{
	"data": {
		"bytecode": {
			"linkReferences": {},
			"object": "608060405234801561001057600080fd5b50336000806101000a81548173ffffffffffffffffffffffffffffffffffffffff021916908373ffffffffffffffffffffffffffffffffffffffff160217905550611efc806100606000396000f3fe608060405234801561001057600080fd5b50600436106100a95760003560e01c80638aa430af116100715780638aa430af1461014e578063a4db23fc1461016a578063be19e12114610186578063cb9f4099146101a2578063cf5765a9146101be578063d6f937e5146101ee576100a9565b8063066f4570146100ae5780632c5aa9e6146100ca57806352ce9539146100fa5780636e0da7021461011657806381b0ba6c14610132575b600080fd5b6100c860048036038101906100c391906117e8565b61021e565b005b6100e460048036038101906100df919061163e565b6102db565b6040516100f191906119b8565b60405180910390f35b610114600480360381019061010f919061174c565b61048b565b005b610130600480360381019061012b9190611779565b6105b8565b005b61014c600480360381019061014791906117e8565b6106d6565b005b6101686004803603810190610163919061174c565b61080a565b005b610184600480360381019061017f919061174c565b610993565b005b6101a0600480360381019061019b91906115b3565b610af4565b005b6101bc60048036038101906101b791906116dd565b610c74565b005b6101d860048036038101906101d3919061174c565b610e1f565b6040516101e591906119d3565b60405180910390f35b61020860048036038101906102039190611573565b610ec7565b60405161021591906119d3565b60405180910390f35b60008054906101000a900473ffffffffffffffffffffffffffffffffffffffff1673ffffffffffffffffffffffffffffffffffffffff163373ffffffffffffffffffffffffffffffffffffffff16146102ac576040517f08c379a00000000000000000000000000000000000000000000000000000000081526004016102a390611a65565b60405180910390fd5b806001600084815260200190815260200160002060090190805190602001906102d69291906110f0565b505050565b60006002600085815260200190815260200160002060009054906101000a900460ff161561033e576040517f08c379a000000000000000000000000000000000000000000000000000000000815260040161033590611a45565b60405180910390fd5b336001600086815260200190815260200160002060000160006101000a81548173ffffffffffffffffffffffffffffffffffffffff021916908373ffffffffffffffffffffffffffffffffffffffff160217905550836001600086815260200190815260200160002060020181905550846001600086815260200190815260200160002060010190805190602001906103d89291906110f0565b506000600160008681526020019081526020016000206003018190555081600160008681526020019081526020016000206005018190555060016002600086815260200190815260200160002060006101000a81548160ff0219169083151502179055506104468385610fcf565b7f6c3830a50de779c9ae2be039ef4fdc507722dad61422c4059fb074ff0080662585856040516104779291906119f5565b60405180910390a160019050949350505050565b60026001600083815260200190815260200160002060030154146104ae57600080fd5b6001600082815260200190815260200160002060000160009054906101000a900473ffffffffffffffffffffffffffffffffffffffff1673ffffffffffffffffffffffffffffffffffffffff163373ffffffffffffffffffffffffffffffffffffffff1614610552576040517f08c379a000000000000000000000000000000000000000000000000000000000815260040161054990611a65565b60405180910390fd5b60016000828152602001908152602001600020600301600081548092919061057990611cee565b91905055507f220a131e78e8341a040cd57d8377b7d26b59d04ecf790b0b8174f71d9de1668f816040516105ad9190611a85565b60405180910390a150565b60026001600085815260200190815260200160002060030154146105db57600080fd5b60008054906101000a900473ffffffffffffffffffffffffffffffffffffffff1673ffffffffffffffffffffffffffffffffffffffff163373ffffffffffffffffffffffffffffffffffffffff1614610669576040517f08c379a000000000000000000000000000000000000000000000000000000000815260040161066090611a65565b60405180910390fd5b8160016000858152602001908152602001600020600f0160008373ffffffffffffffffffffffffffffffffffffffff1673ffffffffffffffffffffffffffffffffffffffff16815260200190815260200160002090805190602001906106d0929190611176565b50505050565b60026001600084815260200190815260200160002060030154146106f957600080fd5b60016000838152602001908152602001600020600d0160003373ffffffffffffffffffffffffffffffffffffffff1673ffffffffffffffffffffffffffffffffffffffff16815260200190815260200160002060009054906101000a900460ff1661076357600080fd5b8060016000848152602001908152602001600020600e0160003373ffffffffffffffffffffffffffffffffffffffff1673ffffffffffffffffffffffffffffffffffffffff16815260200190815260200160002090805190602001906107ca9291906110f0565b507fcf587d6f7810ca815a721731288d56ce776a43b184490efbf7b6e2188af5108b3383836040516107fe9392919061197a565b60405180910390a15050565b6001806000838152602001908152602001600020600301541461082c57600080fd5b6001600082815260200190815260200160002060000160009054906101000a900473ffffffffffffffffffffffffffffffffffffffff1673ffffffffffffffffffffffffffffffffffffffff163373ffffffffffffffffffffffffffffffffffffffff16146108d0576040517f08c379a00000000000000000000000000000000000000000000000000000000081526004016108c790611a65565b60405180910390fd5b60016000828152602001908152602001600020600501546001600083815260200190815260200160002060040154426109099190611bcd565b1161091357600080fd5b60016000828152602001908152602001600020600301600081548092919061093a90611cee565b91905055507f6d3c27ac9c0e2b532d3134fc77f00406a0f871f15158acd1a534ff32f02b2ebf6001600083815260200190815260200160002060040154438360405161098893929190611aa0565b60405180910390a150565b600180600083815260200190815260200160002060030154106109b557600080fd5b6001600082815260200190815260200160002060000160009054906101000a900473ffffffffffffffffffffffffffffffffffffffff1673ffffffffffffffffffffffffffffffffffffffff163373ffffffffffffffffffffffffffffffffffffffff1614610a59576040517f08c379a0000000000000000000000000000000000000000000000000000000008152600401610a5090611a65565b60405180910390fd5b600160008281526020019081526020016000206003016000815480929190610a8090611cee565b91905055504260016000838152602001908152602001600020600401819055507f72ed78084ba8ccd7ed78c0500fe00f29f9bce811b89269a56cf18b4dcfa6534460016000838152602001908152602001600020600401544383604051610ae993929190611aa0565b60405180910390a150565b60018060008381526020019081526020016000206003015410610b1657600080fd5b60008054906101000a900473ffffffffffffffffffffffffffffffffffffffff1673ffffffffffffffffffffffffffffffffffffffff163373ffffffffffffffffffffffffffffffffffffffff161480610bd157506001600082815260200190815260200160002060000160009054906101000a900473ffffffffffffffffffffffffffffffffffffffff1673ffffffffffffffffffffffffffffffffffffffff163373ffffffffffffffffffffffffffffffffffffffff16145b610c10576040517f08c379a0000000000000000000000000000000000000000000000000000000008152600401610c0790611a65565b60405180910390fd5b60005b8351811015610c6e57610c5b848281518110610c3257610c31611d95565b5b6020026020010151848381518110610c4d57610c4c611d95565b5b602002602001015184611020565b8080610c6690611cee565b915050610c13565b50505050565b60018060008481526020019081526020016000206003015414610c9657600080fd5b60016000838152602001908152602001600020600b01600082815260200190815260200160002060009054906101000a900473ffffffffffffffffffffffffffffffffffffffff1673ffffffffffffffffffffffffffffffffffffffff163373ffffffffffffffffffffffffffffffffffffffff1614610d4b576040517f08c379a0000000000000000000000000000000000000000000000000000000008152600401610d4290611a25565b60405180910390fd5b8260016000848152602001908152602001600020600c0160003373ffffffffffffffffffffffffffffffffffffffff1673ffffffffffffffffffffffffffffffffffffffff1681526020019081526020016000209080519060200190610db29291906110f0565b50600160008381526020019081526020016000206007016000815480929190610dda90611cee565b91905055507fc2d7e3c30328bfe2d5070f2c6c0dd93a439a518dcd8e0e115dbc992a607a8e66338484604051610e1293929190611913565b60405180910390a1505050565b6060600160008381526020019081526020016000206009018054610e4290611c8b565b80601f0160208091040260200160405190810160405280929190818152602001828054610e6e90611c8b565b8015610ebb5780601f10610e9057610100808354040283529160200191610ebb565b820191906000526020600020905b815481529060010190602001808311610e9e57829003601f168201915b50505050509050919050565b606060018060008481526020019081526020016000206003015411610eeb57600080fd5b60016000838152602001908152602001600020600c0160008473ffffffffffffffffffffffffffffffffffffffff1673ffffffffffffffffffffffffffffffffffffffff1681526020019081526020016000208054610f4990611c8b565b80601f0160208091040260200160405190810160405280929190818152602001828054610f7590611c8b565b8015610fc25780601f10610f9757610100808354040283529160200191610fc2565b820191906000526020600020905b815481529060010190602001808311610fa557829003601f168201915b5050505050905092915050565b60018060008381526020019081526020016000206003015410610ff157600080fd5b8160016000838152602001908152602001600020600a01908051906020019061101b9291906111d6565b505050565b8260016000838152602001908152602001600020600b01600084815260200190815260200160002060006101000a81548173ffffffffffffffffffffffffffffffffffffffff021916908373ffffffffffffffffffffffffffffffffffffffff1602179055506001600082815260200190815260200160002060060160008154809291906110ad90611cee565b91905055507f4ad260fdb84f8458e9ae5bfb9f78b3a60d8daeba55271ac59884c0f6cb4e043583826040516110e3929190611951565b60405180910390a1505050565b8280546110fc90611c8b565b90600052602060002090601f01602090048101928261111e5760008555611165565b82601f1061113757805160ff1916838001178555611165565b82800160010185558215611165579182015b82811115611164578251825591602001919060010190611149565b5b5090506111729190611260565b5090565b8280548282559060005260206000209081019282156111c5579160200282015b828111156111c45782518290805190602001906111b49291906110f0565b5091602001919060010190611196565b5b5090506111d2919061127d565b5090565b82805482825590600052602060002090810192821561124f579160200282015b8281111561124e5782518260006101000a81548173ffffffffffffffffffffffffffffffffffffffff021916908373ffffffffffffffffffffffffffffffffffffffff160217905550916020019190600101906111f6565b5b50905061125c9190611260565b5090565b5b80821115611279576000816000905550600101611261565b5090565b5b8082111561129d576000818161129491906112a1565b5060010161127e565b5090565b5080546112ad90611c8b565b6000825580601f106112bf57506112de565b601f0160209004906000526020600020908101906112dd9190611260565b5b50565b60006112f46112ef84611afc565b611ad7565b9050808382526020820190508285602086028201111561131757611316611df8565b5b60005b85811015611347578161132d8882611491565b84526020840193506020830192505060018101905061131a565b5050509392505050565b600061136461135f84611b28565b611ad7565b9050808382526020820190508285602086028201111561138757611386611df8565b5b60005b858110156113d557813567ffffffffffffffff8111156113ad576113ac611df3565b5b8086016113ba8982611530565b8552602085019450602084019350505060018101905061138a565b5050509392505050565b60006113f26113ed84611b54565b611ad7565b9050808382526020820190508285602086028201111561141557611414611df8565b5b60005b85811015611445578161142b888261155e565b845260208401935060208301925050600181019050611418565b5050509392505050565b600061146261145d84611b80565b611ad7565b90508281526020810184848401111561147e5761147d611dfd565b5b611489848285611c49565b509392505050565b6000813590506114a081611e98565b92915050565b600082601f8301126114bb576114ba611df3565b5b81356114cb8482602086016112e1565b91505092915050565b600082601f8301126114e9576114e8611df3565b5b81356114f9848260208601611351565b91505092915050565b600082601f83011261151757611516611df3565b5b81356115278482602086016113df565b91505092915050565b600082601f83011261154557611544611df3565b5b813561155584826020860161144f565b91505092915050565b60008135905061156d81611eaf565b92915050565b6000806040838503121561158a57611589611e07565b5b600061159885828601611491565b92505060206115a98582860161155e565b9150509250929050565b6000806000606084860312156115cc576115cb611e07565b5b600084013567ffffffffffffffff8111156115ea576115e9611e02565b5b6115f6868287016114a6565b935050602084013567ffffffffffffffff81111561161757611616611e02565b5b61162386828701611502565b92505060406116348682870161155e565b9150509250925092565b6000806000806080858703121561165857611657611e07565b5b600085013567ffffffffffffffff81111561167657611675611e02565b5b61168287828801611530565b94505060206116938782880161155e565b935050604085013567ffffffffffffffff8111156116b4576116b3611e02565b5b6116c0878288016114a6565b92505060606116d18782880161155e565b91505092959194509250565b6000806000606084860312156116f6576116f5611e07565b5b600084013567ffffffffffffffff81111561171457611713611e02565b5b61172086828701611530565b93505060206117318682870161155e565b92505060406117428682870161155e565b9150509250925092565b60006020828403121561176257611761611e07565b5b60006117708482850161155e565b91505092915050565b60008060006060848603121561179257611791611e07565b5b60006117a08682870161155e565b935050602084013567ffffffffffffffff8111156117c1576117c0611e02565b5b6117cd868287016114d4565b92505060406117de86828701611491565b9150509250925092565b600080604083850312156117ff576117fe611e07565b5b600061180d8582860161155e565b925050602083013567ffffffffffffffff81111561182e5761182d611e02565b5b61183a85828601611530565b9150509250929050565b61184d81611c01565b82525050565b61185c81611c13565b82525050565b600061186d82611bb1565b6118778185611bbc565b9350611887818560208601611c58565b61189081611e0c565b840191505092915050565b60006118a8600983611bbc565b91506118b382611e1d565b602082019050919050565b60006118cb600c83611bbc565b91506118d682611e46565b602082019050919050565b60006118ee600d83611bbc565b91506118f982611e6f565b602082019050919050565b61190d81611c3f565b82525050565b60006060820190506119286000830186611844565b818103602083015261193a8185611862565b90506119496040830184611904565b949350505050565b60006040820190506119666000830185611844565b6119736020830184611904565b9392505050565b600060608201905061198f6000830186611844565b61199c6020830185611904565b81810360408301526119ae8184611862565b9050949350505050565b60006020820190506119cd6000830184611853565b92915050565b600060208201905081810360008301526119ed8184611862565b905092915050565b60006040820190508181036000830152611a0f8185611862565b9050611a1e6020830184611904565b9392505050565b60006020820190508181036000830152611a3e8161189b565b9050919050565b60006020820190508181036000830152611a5e816118be565b9050919050565b60006020820190508181036000830152611a7e816118e1565b9050919050565b6000602082019050611a9a6000830184611904565b92915050565b6000606082019050611ab56000830186611904565b611ac26020830185611904565b611acf6040830184611904565b949350505050565b6000611ae1611af2565b9050611aed8282611cbd565b919050565b6000604051905090565b600067ffffffffffffffff821115611b1757611b16611dc4565b5b602082029050602081019050919050565b600067ffffffffffffffff821115611b4357611b42611dc4565b5b602082029050602081019050919050565b600067ffffffffffffffff821115611b6f57611b6e611dc4565b5b602082029050602081019050919050565b600067ffffffffffffffff821115611b9b57611b9a611dc4565b5b611ba482611e0c565b9050602081019050919050565b600081519050919050565b600082825260208201905092915050565b6000611bd882611c3f565b9150611be383611c3f565b925082821015611bf657611bf5611d37565b5b828203905092915050565b6000611c0c82611c1f565b9050919050565b60008115159050919050565b600073ffffffffffffffffffffffffffffffffffffffff82169050919050565b6000819050919050565b82818337600083830152505050565b60005b83811015611c76578082015181840152602081019050611c5b565b83811115611c85576000848401525b50505050565b60006002820490506001821680611ca357607f821691505b60208210811415611cb757611cb6611d66565b5b50919050565b611cc682611e0c565b810181811067ffffffffffffffff82111715611ce557611ce4611dc4565b5b80604052505050565b6000611cf982611c3f565b91507fffffffffffffffffffffffffffffffffffffffffffffffffffffffffffffffff821415611d2c57611d2b611d37565b5b600182019050919050565b7f4e487b7100000000000000000000000000000000000000000000000000000000600052601160045260246000fd5b7f4e487b7100000000000000000000000000000000000000000000000000000000600052602260045260246000fd5b7f4e487b7100000000000000000000000000000000000000000000000000000000600052603260045260246000fd5b7f4e487b7100000000000000000000000000000000000000000000000000000000600052604160045260246000fd5b600080fd5b600080fd5b600080fd5b600080fd5b600080fd5b6000601f19601f8301169050919050565b7f57726f6e67206b65790000000000000000000000000000000000000000000000600082015250565b7f4944206265656e20757365640000000000000000000000000000000000000000600082015250565b7f4e6f205065726d697373696f6e00000000000000000000000000000000000000600082015250565b611ea181611c01565b8114611eac57600080fd5b50565b611eb881611c3f565b8114611ec357600080fd5b5056fea264697066735822122041e6b3106b57637b6b0c744c5804cf277e40e942ac13cf426ec457cfde9c3d7264736f6c63430008070033",
			"opcodes": "PUSH1 0x80 PUSH1 0x40 MSTORE CALLVALUE DUP1 ISZERO PUSH2 0x10 JUMPI PUSH1 0x0 DUP1 REVERT JUMPDEST POP CALLER PUSH1 0x0 DUP1 PUSH2 0x100 EXP DUP2 SLOAD DUP2 PUSH20 0xFFFFFFFFFFFFFFFFFFFFFFFFFFFFFFFFFFFFFFFF MUL NOT AND SWAP1 DUP4 PUSH20 0xFFFFFFFFFFFFFFFFFFFFFFFFFFFFFFFFFFFFFFFF AND MUL OR SWAP1 SSTORE POP PUSH2 0x1EFC DUP1 PUSH2 0x60 PUSH1 0x0 CODECOPY PUSH1 0x0 RETURN INVALID PUSH1 0x80 PUSH1 0x40 MSTORE CALLVALUE DUP1 ISZERO PUSH2 0x10 JUMPI PUSH1 0x0 DUP1 REVERT JUMPDEST POP PUSH1 0x4 CALLDATASIZE LT PUSH2 0xA9 JUMPI PUSH1 0x0 CALLDATALOAD PUSH1 0xE0 SHR DUP1 PUSH4 0x8AA430AF GT PUSH2 0x71 JUMPI DUP1 PUSH4 0x8AA430AF EQ PUSH2 0x14E JUMPI DUP1 PUSH4 0xA4DB23FC EQ PUSH2 0x16A JUMPI DUP1 PUSH4 0xBE19E121 EQ PUSH2 0x186 JUMPI DUP1 PUSH4 0xCB9F4099 EQ PUSH2 0x1A2 JUMPI DUP1 PUSH4 0xCF5765A9 EQ PUSH2 0x1BE JUMPI DUP1 PUSH4 0xD6F937E5 EQ PUSH2 0x1EE JUMPI PUSH2 0xA9 JUMP JUMPDEST DUP1 PUSH4 0x66F4570 EQ PUSH2 0xAE JUMPI DUP1 PUSH4 0x2C5AA9E6 EQ PUSH2 0xCA JUMPI DUP1 PUSH4 0x52CE9539 EQ PUSH2 0xFA JUMPI DUP1 PUSH4 0x6E0DA702 EQ PUSH2 0x116 JUMPI DUP1 PUSH4 0x81B0BA6C EQ PUSH2 0x132 JUMPI JUMPDEST PUSH1 0x0 DUP1 REVERT JUMPDEST PUSH2 0xC8 PUSH1 0x4 DUP1 CALLDATASIZE SUB DUP2 ADD SWAP1 PUSH2 0xC3 SWAP2 SWAP1 PUSH2 0x17E8 JUMP JUMPDEST PUSH2 0x21E JUMP JUMPDEST STOP JUMPDEST PUSH2 0xE4 PUSH1 0x4 DUP1 CALLDATASIZE SUB DUP2 ADD SWAP1 PUSH2 0xDF SWAP2 SWAP1 PUSH2 0x163E JUMP JUMPDEST PUSH2 0x2DB JUMP JUMPDEST PUSH1 0x40 MLOAD PUSH2 0xF1 SWAP2 SWAP1 PUSH2 0x19B8 JUMP JUMPDEST PUSH1 0x40 MLOAD DUP1 SWAP2 SUB SWAP1 RETURN JUMPDEST PUSH2 0x114 PUSH1 0x4 DUP1 CALLDATASIZE SUB DUP2 ADD SWAP1 PUSH2 0x10F SWAP2 SWAP1 PUSH2 0x174C JUMP JUMPDEST PUSH2 0x48B JUMP JUMPDEST STOP JUMPDEST PUSH2 0x130 PUSH1 0x4 DUP1 CALLDATASIZE SUB DUP2 ADD SWAP1 PUSH2 0x12B SWAP2 SWAP1 PUSH2 0x1779 JUMP JUMPDEST PUSH2 0x5B8 JUMP JUMPDEST STOP JUMPDEST PUSH2 0x14C PUSH1 0x4 DUP1 CALLDATASIZE SUB DUP2 ADD SWAP1 PUSH2 0x147 SWAP2 SWAP1 PUSH2 0x17E8 JUMP JUMPDEST PUSH2 0x6D6 JUMP JUMPDEST STOP JUMPDEST PUSH2 0x168 PUSH1 0x4 DUP1 CALLDATASIZE SUB DUP2 ADD SWAP1 PUSH2 0x163 SWAP2 SWAP1 PUSH2 0x174C JUMP JUMPDEST PUSH2 0x80A JUMP JUMPDEST STOP JUMPDEST PUSH2 0x184 PUSH1 0x4 DUP1 CALLDATASIZE SUB DUP2 ADD SWAP1 PUSH2 0x17F SWAP2 SWAP1 PUSH2 0x174C JUMP JUMPDEST PUSH2 0x993 JUMP JUMPDEST STOP JUMPDEST PUSH2 0x1A0 PUSH1 0x4 DUP1 CALLDATASIZE SUB DUP2 ADD SWAP1 PUSH2 0x19B SWAP2 SWAP1 PUSH2 0x15B3 JUMP JUMPDEST PUSH2 0xAF4 JUMP JUMPDEST STOP JUMPDEST PUSH2 0x1BC PUSH1 0x4 DUP1 CALLDATASIZE SUB DUP2 ADD SWAP1 PUSH2 0x1B7 SWAP2 SWAP1 PUSH2 0x16DD JUMP JUMPDEST PUSH2 0xC74 JUMP JUMPDEST STOP JUMPDEST PUSH2 0x1D8 PUSH1 0x4 DUP1 CALLDATASIZE SUB DUP2 ADD SWAP1 PUSH2 0x1D3 SWAP2 SWAP1 PUSH2 0x174C JUMP JUMPDEST PUSH2 0xE1F JUMP JUMPDEST PUSH1 0x40 MLOAD PUSH2 0x1E5 SWAP2 SWAP1 PUSH2 0x19D3 JUMP JUMPDEST PUSH1 0x40 MLOAD DUP1 SWAP2 SUB SWAP1 RETURN JUMPDEST PUSH2 0x208 PUSH1 0x4 DUP1 CALLDATASIZE SUB DUP2 ADD SWAP1 PUSH2 0x203 SWAP2 SWAP1 PUSH2 0x1573 JUMP JUMPDEST PUSH2 0xEC7 JUMP JUMPDEST PUSH1 0x40 MLOAD PUSH2 0x215 SWAP2 SWAP1 PUSH2 0x19D3 JUMP JUMPDEST PUSH1 0x40 MLOAD DUP1 SWAP2 SUB SWAP1 RETURN JUMPDEST PUSH1 0x0 DUP1 SLOAD SWAP1 PUSH2 0x100 EXP SWAP1 DIV PUSH20 0xFFFFFFFFFFFFFFFFFFFFFFFFFFFFFFFFFFFFFFFF AND PUSH20 0xFFFFFFFFFFFFFFFFFFFFFFFFFFFFFFFFFFFFFFFF AND CALLER PUSH20 0xFFFFFFFFFFFFFFFFFFFFFFFFFFFFFFFFFFFFFFFF AND EQ PUSH2 0x2AC JUMPI PUSH1 0x40 MLOAD PUSH32 0x8C379A000000000000000000000000000000000000000000000000000000000 DUP2 MSTORE PUSH1 0x4 ADD PUSH2 0x2A3 SWAP1 PUSH2 0x1A65 JUMP JUMPDEST PUSH1 0x40 MLOAD DUP1 SWAP2 SUB SWAP1 REVERT JUMPDEST DUP1 PUSH1 0x1 PUSH1 0x0 DUP5 DUP2 MSTORE PUSH1 0x20 ADD SWAP1 DUP2 MSTORE PUSH1 0x20 ADD PUSH1 0x0 KECCAK256 PUSH1 0x9 ADD SWAP1 DUP1 MLOAD SWAP1 PUSH1 0x20 ADD SWAP1 PUSH2 0x2D6 SWAP3 SWAP2 SWAP1 PUSH2 0x10F0 JUMP JUMPDEST POP POP POP JUMP JUMPDEST PUSH1 0x0 PUSH1 0x2 PUSH1 0x0 DUP6 DUP2 MSTORE PUSH1 0x20 ADD SWAP1 DUP2 MSTORE PUSH1 0x20 ADD PUSH1 0x0 KECCAK256 PUSH1 0x0 SWAP1 SLOAD SWAP1 PUSH2 0x100 EXP SWAP1 DIV PUSH1 0xFF AND ISZERO PUSH2 0x33E JUMPI PUSH1 0x40 MLOAD PUSH32 0x8C379A000000000000000000000000000000000000000000000000000000000 DUP2 MSTORE PUSH1 0x4 ADD PUSH2 0x335 SWAP1 PUSH2 0x1A45 JUMP JUMPDEST PUSH1 0x40 MLOAD DUP1 SWAP2 SUB SWAP1 REVERT JUMPDEST CALLER PUSH1 0x1 PUSH1 0x0 DUP7 DUP2 MSTORE PUSH1 0x20 ADD SWAP1 DUP2 MSTORE PUSH1 0x20 ADD PUSH1 0x0 KECCAK256 PUSH1 0x0 ADD PUSH1 0x0 PUSH2 0x100 EXP DUP2 SLOAD DUP2 PUSH20 0xFFFFFFFFFFFFFFFFFFFFFFFFFFFFFFFFFFFFFFFF MUL NOT AND SWAP1 DUP4 PUSH20 0xFFFFFFFFFFFFFFFFFFFFFFFFFFFFFFFFFFFFFFFF AND MUL OR SWAP1 SSTORE POP DUP4 PUSH1 0x1 PUSH1 0x0 DUP7 DUP2 MSTORE PUSH1 0x20 ADD SWAP1 DUP2 MSTORE PUSH1 0x20 ADD PUSH1 0x0 KECCAK256 PUSH1 0x2 ADD DUP2 SWAP1 SSTORE POP DUP5 PUSH1 0x1 PUSH1 0x0 DUP7 DUP2 MSTORE PUSH1 0x20 ADD SWAP1 DUP2 MSTORE PUSH1 0x20 ADD PUSH1 0x0 KECCAK256 PUSH1 0x1 ADD SWAP1 DUP1 MLOAD SWAP1 PUSH1 0x20 ADD SWAP1 PUSH2 0x3D8 SWAP3 SWAP2 SWAP1 PUSH2 0x10F0 JUMP JUMPDEST POP PUSH1 0x0 PUSH1 0x1 PUSH1 0x0 DUP7 DUP2 MSTORE PUSH1 0x20 ADD SWAP1 DUP2 MSTORE PUSH1 0x20 ADD PUSH1 0x0 KECCAK256 PUSH1 0x3 ADD DUP2 SWAP1 SSTORE POP DUP2 PUSH1 0x1 PUSH1 0x0 DUP7 DUP2 MSTORE PUSH1 0x20 ADD SWAP1 DUP2 MSTORE PUSH1 0x20 ADD PUSH1 0x0 KECCAK256 PUSH1 0x5 ADD DUP2 SWAP1 SSTORE POP PUSH1 0x1 PUSH1 0x2 PUSH1 0x0 DUP7 DUP2 MSTORE PUSH1 0x20 ADD SWAP1 DUP2 MSTORE PUSH1 0x20 ADD PUSH1 0x0 KECCAK256 PUSH1 0x0 PUSH2 0x100 EXP DUP2 SLOAD DUP2 PUSH1 0xFF MUL NOT AND SWAP1 DUP4 ISZERO ISZERO MUL OR SWAP1 SSTORE POP PUSH2 0x446 DUP4 DUP6 PUSH2 0xFCF JUMP JUMPDEST PUSH32 0x6C3830A50DE779C9AE2BE039EF4FDC507722DAD61422C4059FB074FF00806625 DUP6 DUP6 PUSH1 0x40 MLOAD PUSH2 0x477 SWAP3 SWAP2 SWAP1 PUSH2 0x19F5 JUMP JUMPDEST PUSH1 0x40 MLOAD DUP1 SWAP2 SUB SWAP1 LOG1 PUSH1 0x1 SWAP1 POP SWAP5 SWAP4 POP POP POP POP JUMP JUMPDEST PUSH1 0x2 PUSH1 0x1 PUSH1 0x0 DUP4 DUP2 MSTORE PUSH1 0x20 ADD SWAP1 DUP2 MSTORE PUSH1 0x20 ADD PUSH1 0x0 KECCAK256 PUSH1 0x3 ADD SLOAD EQ PUSH2 0x4AE JUMPI PUSH1 0x0 DUP1 REVERT JUMPDEST PUSH1 0x1 PUSH1 0x0 DUP3 DUP2 MSTORE PUSH1 0x20 ADD SWAP1 DUP2 MSTORE PUSH1 0x20 ADD PUSH1 0x0 KECCAK256 PUSH1 0x0 ADD PUSH1 0x0 SWAP1 SLOAD SWAP1 PUSH2 0x100 EXP SWAP1 DIV PUSH20 0xFFFFFFFFFFFFFFFFFFFFFFFFFFFFFFFFFFFFFFFF AND PUSH20 0xFFFFFFFFFFFFFFFFFFFFFFFFFFFFFFFFFFFFFFFF AND CALLER PUSH20 0xFFFFFFFFFFFFFFFFFFFFFFFFFFFFFFFFFFFFFFFF AND EQ PUSH2 0x552 JUMPI PUSH1 0x40 MLOAD PUSH32 0x8C379A000000000000000000000000000000000000000000000000000000000 DUP2 MSTORE PUSH1 0x4 ADD PUSH2 0x549 SWAP1 PUSH2 0x1A65 JUMP JUMPDEST PUSH1 0x40 MLOAD DUP1 SWAP2 SUB SWAP1 REVERT JUMPDEST PUSH1 0x1 PUSH1 0x0 DUP3 DUP2 MSTORE PUSH1 0x20 ADD SWAP1 DUP2 MSTORE PUSH1 0x20 ADD PUSH1 0x0 KECCAK256 PUSH1 0x3 ADD PUSH1 0x0 DUP2 SLOAD DUP1 SWAP3 SWAP2 SWAP1 PUSH2 0x579 SWAP1 PUSH2 0x1CEE JUMP JUMPDEST SWAP2 SWAP1 POP SSTORE POP PUSH32 0x220A131E78E8341A040CD57D8377B7D26B59D04ECF790B0B8174F71D9DE1668F DUP2 PUSH1 0x40 MLOAD PUSH2 0x5AD SWAP2 SWAP1 PUSH2 0x1A85 JUMP JUMPDEST PUSH1 0x40 MLOAD DUP1 SWAP2 SUB SWAP1 LOG1 POP JUMP JUMPDEST PUSH1 0x2 PUSH1 0x1 PUSH1 0x0 DUP6 DUP2 MSTORE PUSH1 0x20 ADD SWAP1 DUP2 MSTORE PUSH1 0x20 ADD PUSH1 0x0 KECCAK256 PUSH1 0x3 ADD SLOAD EQ PUSH2 0x5DB JUMPI PUSH1 0x0 DUP1 REVERT JUMPDEST PUSH1 0x0 DUP1 SLOAD SWAP1 PUSH2 0x100 EXP SWAP1 DIV PUSH20 0xFFFFFFFFFFFFFFFFFFFFFFFFFFFFFFFFFFFFFFFF AND PUSH20 0xFFFFFFFFFFFFFFFFFFFFFFFFFFFFFFFFFFFFFFFF AND CALLER PUSH20 0xFFFFFFFFFFFFFFFFFFFFFFFFFFFFFFFFFFFFFFFF AND EQ PUSH2 0x669 JUMPI PUSH1 0x40 MLOAD PUSH32 0x8C379A000000000000000000000000000000000000000000000000000000000 DUP2 MSTORE PUSH1 0x4 ADD PUSH2 0x660 SWAP1 PUSH2 0x1A65 JUMP JUMPDEST PUSH1 0x40 MLOAD DUP1 SWAP2 SUB SWAP1 REVERT JUMPDEST DUP2 PUSH1 0x1 PUSH1 0x0 DUP6 DUP2 MSTORE PUSH1 0x20 ADD SWAP1 DUP2 MSTORE PUSH1 0x20 ADD PUSH1 0x0 KECCAK256 PUSH1 0xF ADD PUSH1 0x0 DUP4 PUSH20 0xFFFFFFFFFFFFFFFFFFFFFFFFFFFFFFFFFFFFFFFF AND PUSH20 0xFFFFFFFFFFFFFFFFFFFFFFFFFFFFFFFFFFFFFFFF AND DUP2 MSTORE PUSH1 0x20 ADD SWAP1 DUP2 MSTORE PUSH1 0x20 ADD PUSH1 0x0 KECCAK256 SWAP1 DUP1 MLOAD SWAP1 PUSH1 0x20 ADD SWAP1 PUSH2 0x6D0 SWAP3 SWAP2 SWAP1 PUSH2 0x1176 JUMP JUMPDEST POP POP POP POP JUMP JUMPDEST PUSH1 0x2 PUSH1 0x1 PUSH1 0x0 DUP5 DUP2 MSTORE PUSH1 0x20 ADD SWAP1 DUP2 MSTORE PUSH1 0x20 ADD PUSH1 0x0 KECCAK256 PUSH1 0x3 ADD SLOAD EQ PUSH2 0x6F9 JUMPI PUSH1 0x0 DUP1 REVERT JUMPDEST PUSH1 0x1 PUSH1 0x0 DUP4 DUP2 MSTORE PUSH1 0x20 ADD SWAP1 DUP2 MSTORE PUSH1 0x20 ADD PUSH1 0x0 KECCAK256 PUSH1 0xD ADD PUSH1 0x0 CALLER PUSH20 0xFFFFFFFFFFFFFFFFFFFFFFFFFFFFFFFFFFFFFFFF AND PUSH20 0xFFFFFFFFFFFFFFFFFFFFFFFFFFFFFFFFFFFFFFFF AND DUP2 MSTORE PUSH1 0x20 ADD SWAP1 DUP2 MSTORE PUSH1 0x20 ADD PUSH1 0x0 KECCAK256 PUSH1 0x0 SWAP1 SLOAD SWAP1 PUSH2 0x100 EXP SWAP1 DIV PUSH1 0xFF AND PUSH2 0x763 JUMPI PUSH1 0x0 DUP1 REVERT JUMPDEST DUP1 PUSH1 0x1 PUSH1 0x0 DUP5 DUP2 MSTORE PUSH1 0x20 ADD SWAP1 DUP2 MSTORE PUSH1 0x20 ADD PUSH1 0x0 KECCAK256 PUSH1 0xE ADD PUSH1 0x0 CALLER PUSH20 0xFFFFFFFFFFFFFFFFFFFFFFFFFFFFFFFFFFFFFFFF AND PUSH20 0xFFFFFFFFFFFFFFFFFFFFFFFFFFFFFFFFFFFFFFFF AND DUP2 MSTORE PUSH1 0x20 ADD SWAP1 DUP2 MSTORE PUSH1 0x20 ADD PUSH1 0x0 KECCAK256 SWAP1 DUP1 MLOAD SWAP1 PUSH1 0x20 ADD SWAP1 PUSH2 0x7CA SWAP3 SWAP2 SWAP1 PUSH2 0x10F0 JUMP JUMPDEST POP PUSH32 0xCF587D6F7810CA815A721731288D56CE776A43B184490EFBF7B6E2188AF5108B CALLER DUP4 DUP4 PUSH1 0x40 MLOAD PUSH2 0x7FE SWAP4 SWAP3 SWAP2 SWAP1 PUSH2 0x197A JUMP JUMPDEST PUSH1 0x40 MLOAD DUP1 SWAP2 SUB SWAP1 LOG1 POP POP JUMP JUMPDEST PUSH1 0x1 DUP1 PUSH1 0x0 DUP4 DUP2 MSTORE PUSH1 0x20 ADD SWAP1 DUP2 MSTORE PUSH1 0x20 ADD PUSH1 0x0 KECCAK256 PUSH1 0x3 ADD SLOAD EQ PUSH2 0x82C JUMPI PUSH1 0x0 DUP1 REVERT JUMPDEST PUSH1 0x1 PUSH1 0x0 DUP3 DUP2 MSTORE PUSH1 0x20 ADD SWAP1 DUP2 MSTORE PUSH1 0x20 ADD PUSH1 0x0 KECCAK256 PUSH1 0x0 ADD PUSH1 0x0 SWAP1 SLOAD SWAP1 PUSH2 0x100 EXP SWAP1 DIV PUSH20 0xFFFFFFFFFFFFFFFFFFFFFFFFFFFFFFFFFFFFFFFF AND PUSH20 0xFFFFFFFFFFFFFFFFFFFFFFFFFFFFFFFFFFFFFFFF AND CALLER PUSH20 0xFFFFFFFFFFFFFFFFFFFFFFFFFFFFFFFFFFFFFFFF AND EQ PUSH2 0x8D0 JUMPI PUSH1 0x40 MLOAD PUSH32 0x8C379A000000000000000000000000000000000000000000000000000000000 DUP2 MSTORE PUSH1 0x4 ADD PUSH2 0x8C7 SWAP1 PUSH2 0x1A65 JUMP JUMPDEST PUSH1 0x40 MLOAD DUP1 SWAP2 SUB SWAP1 REVERT JUMPDEST PUSH1 0x1 PUSH1 0x0 DUP3 DUP2 MSTORE PUSH1 0x20 ADD SWAP1 DUP2 MSTORE PUSH1 0x20 ADD PUSH1 0x0 KECCAK256 PUSH1 0x5 ADD SLOAD PUSH1 0x1 PUSH1 0x0 DUP4 DUP2 MSTORE PUSH1 0x20 ADD SWAP1 DUP2 MSTORE PUSH1 0x20 ADD PUSH1 0x0 KECCAK256 PUSH1 0x4 ADD SLOAD TIMESTAMP PUSH2 0x909 SWAP2 SWAP1 PUSH2 0x1BCD JUMP JUMPDEST GT PUSH2 0x913 JUMPI PUSH1 0x0 DUP1 REVERT JUMPDEST PUSH1 0x1 PUSH1 0x0 DUP3 DUP2 MSTORE PUSH1 0x20 ADD SWAP1 DUP2 MSTORE PUSH1 0x20 ADD PUSH1 0x0 KECCAK256 PUSH1 0x3 ADD PUSH1 0x0 DUP2 SLOAD DUP1 SWAP3 SWAP2 SWAP1 PUSH2 0x93A SWAP1 PUSH2 0x1CEE JUMP JUMPDEST SWAP2 SWAP1 POP SSTORE POP PUSH32 0x6D3C27AC9C0E2B532D3134FC77F00406A0F871F15158ACD1A534FF32F02B2EBF PUSH1 0x1 PUSH1 0x0 DUP4 DUP2 MSTORE PUSH1 0x20 ADD SWAP1 DUP2 MSTORE PUSH1 0x20 ADD PUSH1 0x0 KECCAK256 PUSH1 0x4 ADD SLOAD NUMBER DUP4 PUSH1 0x40 MLOAD PUSH2 0x988 SWAP4 SWAP3 SWAP2 SWAP1 PUSH2 0x1AA0 JUMP JUMPDEST PUSH1 0x40 MLOAD DUP1 SWAP2 SUB SWAP1 LOG1 POP JUMP JUMPDEST PUSH1 0x1 DUP1 PUSH1 0x0 DUP4 DUP2 MSTORE PUSH1 0x20 ADD SWAP1 DUP2 MSTORE PUSH1 0x20 ADD PUSH1 0x0 KECCAK256 PUSH1 0x3 ADD SLOAD LT PUSH2 0x9B5 JUMPI PUSH1 0x0 DUP1 REVERT JUMPDEST PUSH1 0x1 PUSH1 0x0 DUP3 DUP2 MSTORE PUSH1 0x20 ADD SWAP1 DUP2 MSTORE PUSH1 0x20 ADD PUSH1 0x0 KECCAK256 PUSH1 0x0 ADD PUSH1 0x0 SWAP1 SLOAD SWAP1 PUSH2 0x100 EXP SWAP1 DIV PUSH20 0xFFFFFFFFFFFFFFFFFFFFFFFFFFFFFFFFFFFFFFFF AND PUSH20 0xFFFFFFFFFFFFFFFFFFFFFFFFFFFFFFFFFFFFFFFF AND CALLER PUSH20 0xFFFFFFFFFFFFFFFFFFFFFFFFFFFFFFFFFFFFFFFF AND EQ PUSH2 0xA59 JUMPI PUSH1 0x40 MLOAD PUSH32 0x8C379A000000000000000000000000000000000000000000000000000000000 DUP2 MSTORE PUSH1 0x4 ADD PUSH2 0xA50 SWAP1 PUSH2 0x1A65 JUMP JUMPDEST PUSH1 0x40 MLOAD DUP1 SWAP2 SUB SWAP1 REVERT JUMPDEST PUSH1 0x1 PUSH1 0x0 DUP3 DUP2 MSTORE PUSH1 0x20 ADD SWAP1 DUP2 MSTORE PUSH1 0x20 ADD PUSH1 0x0 KECCAK256 PUSH1 0x3 ADD PUSH1 0x0 DUP2 SLOAD DUP1 SWAP3 SWAP2 SWAP1 PUSH2 0xA80 SWAP1 PUSH2 0x1CEE JUMP JUMPDEST SWAP2 SWAP1 POP SSTORE POP TIMESTAMP PUSH1 0x1 PUSH1 0x0 DUP4 DUP2 MSTORE PUSH1 0x20 ADD SWAP1 DUP2 MSTORE PUSH1 0x20 ADD PUSH1 0x0 KECCAK256 PUSH1 0x4 ADD DUP2 SWAP1 SSTORE POP PUSH32 0x72ED78084BA8CCD7ED78C0500FE00F29F9BCE811B89269A56CF18B4DCFA65344 PUSH1 0x1 PUSH1 0x0 DUP4 DUP2 MSTORE PUSH1 0x20 ADD SWAP1 DUP2 MSTORE PUSH1 0x20 ADD PUSH1 0x0 KECCAK256 PUSH1 0x4 ADD SLOAD NUMBER DUP4 PUSH1 0x40 MLOAD PUSH2 0xAE9 SWAP4 SWAP3 SWAP2 SWAP1 PUSH2 0x1AA0 JUMP JUMPDEST PUSH1 0x40 MLOAD DUP1 SWAP2 SUB SWAP1 LOG1 POP JUMP JUMPDEST PUSH1 0x1 DUP1 PUSH1 0x0 DUP4 DUP2 MSTORE PUSH1 0x20 ADD SWAP1 DUP2 MSTORE PUSH1 0x20 ADD PUSH1 0x0 KECCAK256 PUSH1 0x3 ADD SLOAD LT PUSH2 0xB16 JUMPI PUSH1 0x0 DUP1 REVERT JUMPDEST PUSH1 0x0 DUP1 SLOAD SWAP1 PUSH2 0x100 EXP SWAP1 DIV PUSH20 0xFFFFFFFFFFFFFFFFFFFFFFFFFFFFFFFFFFFFFFFF AND PUSH20 0xFFFFFFFFFFFFFFFFFFFFFFFFFFFFFFFFFFFFFFFF AND CALLER PUSH20 0xFFFFFFFFFFFFFFFFFFFFFFFFFFFFFFFFFFFFFFFF AND EQ DUP1 PUSH2 0xBD1 JUMPI POP PUSH1 0x1 PUSH1 0x0 DUP3 DUP2 MSTORE PUSH1 0x20 ADD SWAP1 DUP2 MSTORE PUSH1 0x20 ADD PUSH1 0x0 KECCAK256 PUSH1 0x0 ADD PUSH1 0x0 SWAP1 SLOAD SWAP1 PUSH2 0x100 EXP SWAP1 DIV PUSH20 0xFFFFFFFFFFFFFFFFFFFFFFFFFFFFFFFFFFFFFFFF AND PUSH20 0xFFFFFFFFFFFFFFFFFFFFFFFFFFFFFFFFFFFFFFFF AND CALLER PUSH20 0xFFFFFFFFFFFFFFFFFFFFFFFFFFFFFFFFFFFFFFFF AND EQ JUMPDEST PUSH2 0xC10 JUMPI PUSH1 0x40 MLOAD PUSH32 0x8C379A000000000000000000000000000000000000000000000000000000000 DUP2 MSTORE PUSH1 0x4 ADD PUSH2 0xC07 SWAP1 PUSH2 0x1A65 JUMP JUMPDEST PUSH1 0x40 MLOAD DUP1 SWAP2 SUB SWAP1 REVERT JUMPDEST PUSH1 0x0 JUMPDEST DUP4 MLOAD DUP2 LT ISZERO PUSH2 0xC6E JUMPI PUSH2 0xC5B DUP5 DUP3 DUP2 MLOAD DUP2 LT PUSH2 0xC32 JUMPI PUSH2 0xC31 PUSH2 0x1D95 JUMP JUMPDEST JUMPDEST PUSH1 0x20 MUL PUSH1 0x20 ADD ADD MLOAD DUP5 DUP4 DUP2 MLOAD DUP2 LT PUSH2 0xC4D JUMPI PUSH2 0xC4C PUSH2 0x1D95 JUMP JUMPDEST JUMPDEST PUSH1 0x20 MUL PUSH1 0x20 ADD ADD MLOAD DUP5 PUSH2 0x1020 JUMP JUMPDEST DUP1 DUP1 PUSH2 0xC66 SWAP1 PUSH2 0x1CEE JUMP JUMPDEST SWAP2 POP POP PUSH2 0xC13 JUMP JUMPDEST POP POP POP POP JUMP JUMPDEST PUSH1 0x1 DUP1 PUSH1 0x0 DUP5 DUP2 MSTORE PUSH1 0x20 ADD SWAP1 DUP2 MSTORE PUSH1 0x20 ADD PUSH1 0x0 KECCAK256 PUSH1 0x3 ADD SLOAD EQ PUSH2 0xC96 JUMPI PUSH1 0x0 DUP1 REVERT JUMPDEST PUSH1 0x1 PUSH1 0x0 DUP4 DUP2 MSTORE PUSH1 0x20 ADD SWAP1 DUP2 MSTORE PUSH1 0x20 ADD PUSH1 0x0 KECCAK256 PUSH1 0xB ADD PUSH1 0x0 DUP3 DUP2 MSTORE PUSH1 0x20 ADD SWAP1 DUP2 MSTORE PUSH1 0x20 ADD PUSH1 0x0 KECCAK256 PUSH1 0x0 SWAP1 SLOAD SWAP1 PUSH2 0x100 EXP SWAP1 DIV PUSH20 0xFFFFFFFFFFFFFFFFFFFFFFFFFFFFFFFFFFFFFFFF AND PUSH20 0xFFFFFFFFFFFFFFFFFFFFFFFFFFFFFFFFFFFFFFFF AND CALLER PUSH20 0xFFFFFFFFFFFFFFFFFFFFFFFFFFFFFFFFFFFFFFFF AND EQ PUSH2 0xD4B JUMPI PUSH1 0x40 MLOAD PUSH32 0x8C379A000000000000000000000000000000000000000000000000000000000 DUP2 MSTORE PUSH1 0x4 ADD PUSH2 0xD42 SWAP1 PUSH2 0x1A25 JUMP JUMPDEST PUSH1 0x40 MLOAD DUP1 SWAP2 SUB SWAP1 REVERT JUMPDEST DUP3 PUSH1 0x1 PUSH1 0x0 DUP5 DUP2 MSTORE PUSH1 0x20 ADD SWAP1 DUP2 MSTORE PUSH1 0x20 ADD PUSH1 0x0 KECCAK256 PUSH1 0xC ADD PUSH1 0x0 CALLER PUSH20 0xFFFFFFFFFFFFFFFFFFFFFFFFFFFFFFFFFFFFFFFF AND PUSH20 0xFFFFFFFFFFFFFFFFFFFFFFFFFFFFFFFFFFFFFFFF AND DUP2 MSTORE PUSH1 0x20 ADD SWAP1 DUP2 MSTORE PUSH1 0x20 ADD PUSH1 0x0 KECCAK256 SWAP1 DUP1 MLOAD SWAP1 PUSH1 0x20 ADD SWAP1 PUSH2 0xDB2 SWAP3 SWAP2 SWAP1 PUSH2 0x10F0 JUMP JUMPDEST POP PUSH1 0x1 PUSH1 0x0 DUP4 DUP2 MSTORE PUSH1 0x20 ADD SWAP1 DUP2 MSTORE PUSH1 0x20 ADD PUSH1 0x0 KECCAK256 PUSH1 0x7 ADD PUSH1 0x0 DUP2 SLOAD DUP1 SWAP3 SWAP2 SWAP1 PUSH2 0xDDA SWAP1 PUSH2 0x1CEE JUMP JUMPDEST SWAP2 SWAP1 POP SSTORE POP PUSH32 0xC2D7E3C30328BFE2D5070F2C6C0DD93A439A518DCD8E0E115DBC992A607A8E66 CALLER DUP5 DUP5 PUSH1 0x40 MLOAD PUSH2 0xE12 SWAP4 SWAP3 SWAP2 SWAP1 PUSH2 0x1913 JUMP JUMPDEST PUSH1 0x40 MLOAD DUP1 SWAP2 SUB SWAP1 LOG1 POP POP POP JUMP JUMPDEST PUSH1 0x60 PUSH1 0x1 PUSH1 0x0 DUP4 DUP2 MSTORE PUSH1 0x20 ADD SWAP1 DUP2 MSTORE PUSH1 0x20 ADD PUSH1 0x0 KECCAK256 PUSH1 0x9 ADD DUP1 SLOAD PUSH2 0xE42 SWAP1 PUSH2 0x1C8B JUMP JUMPDEST DUP1 PUSH1 0x1F ADD PUSH1 0x20 DUP1 SWAP2 DIV MUL PUSH1 0x20 ADD PUSH1 0x40 MLOAD SWAP1 DUP2 ADD PUSH1 0x40 MSTORE DUP1 SWAP3 SWAP2 SWAP1 DUP2 DUP2 MSTORE PUSH1 0x20 ADD DUP3 DUP1 SLOAD PUSH2 0xE6E SWAP1 PUSH2 0x1C8B JUMP JUMPDEST DUP1 ISZERO PUSH2 0xEBB JUMPI DUP1 PUSH1 0x1F LT PUSH2 0xE90 JUMPI PUSH2 0x100 DUP1 DUP4 SLOAD DIV MUL DUP4 MSTORE SWAP2 PUSH1 0x20 ADD SWAP2 PUSH2 0xEBB JUMP JUMPDEST DUP3 ADD SWAP2 SWAP1 PUSH1 0x0 MSTORE PUSH1 0x20 PUSH1 0x0 KECCAK256 SWAP1 JUMPDEST DUP2 SLOAD DUP2 MSTORE SWAP1 PUSH1 0x1 ADD SWAP1 PUSH1 0x20 ADD DUP1 DUP4 GT PUSH2 0xE9E JUMPI DUP3 SWAP1 SUB PUSH1 0x1F AND DUP3 ADD SWAP2 JUMPDEST POP POP POP POP POP SWAP1 POP SWAP2 SWAP1 POP JUMP JUMPDEST PUSH1 0x60 PUSH1 0x1 DUP1 PUSH1 0x0 DUP5 DUP2 MSTORE PUSH1 0x20 ADD SWAP1 DUP2 MSTORE PUSH1 0x20 ADD PUSH1 0x0 KECCAK256 PUSH1 0x3 ADD SLOAD GT PUSH2 0xEEB JUMPI PUSH1 0x0 DUP1 REVERT JUMPDEST PUSH1 0x1 PUSH1 0x0 DUP4 DUP2 MSTORE PUSH1 0x20 ADD SWAP1 DUP2 MSTORE PUSH1 0x20 ADD PUSH1 0x0 KECCAK256 PUSH1 0xC ADD PUSH1 0x0 DUP5 PUSH20 0xFFFFFFFFFFFFFFFFFFFFFFFFFFFFFFFFFFFFFFFF AND PUSH20 0xFFFFFFFFFFFFFFFFFFFFFFFFFFFFFFFFFFFFFFFF AND DUP2 MSTORE PUSH1 0x20 ADD SWAP1 DUP2 MSTORE PUSH1 0x20 ADD PUSH1 0x0 KECCAK256 DUP1 SLOAD PUSH2 0xF49 SWAP1 PUSH2 0x1C8B JUMP JUMPDEST DUP1 PUSH1 0x1F ADD PUSH1 0x20 DUP1 SWAP2 DIV MUL PUSH1 0x20 ADD PUSH1 0x40 MLOAD SWAP1 DUP2 ADD PUSH1 0x40 MSTORE DUP1 SWAP3 SWAP2 SWAP1 DUP2 DUP2 MSTORE PUSH1 0x20 ADD DUP3 DUP1 SLOAD PUSH2 0xF75 SWAP1 PUSH2 0x1C8B JUMP JUMPDEST DUP1 ISZERO PUSH2 0xFC2 JUMPI DUP1 PUSH1 0x1F LT PUSH2 0xF97 JUMPI PUSH2 0x100 DUP1 DUP4 SLOAD DIV MUL DUP4 MSTORE SWAP2 PUSH1 0x20 ADD SWAP2 PUSH2 0xFC2 JUMP JUMPDEST DUP3 ADD SWAP2 SWAP1 PUSH1 0x0 MSTORE PUSH1 0x20 PUSH1 0x0 KECCAK256 SWAP1 JUMPDEST DUP2 SLOAD DUP2 MSTORE SWAP1 PUSH1 0x1 ADD SWAP1 PUSH1 0x20 ADD DUP1 DUP4 GT PUSH2 0xFA5 JUMPI DUP3 SWAP1 SUB PUSH1 0x1F AND DUP3 ADD SWAP2 JUMPDEST POP POP POP POP POP SWAP1 POP SWAP3 SWAP2 POP POP JUMP JUMPDEST PUSH1 0x1 DUP1 PUSH1 0x0 DUP4 DUP2 MSTORE PUSH1 0x20 ADD SWAP1 DUP2 MSTORE PUSH1 0x20 ADD PUSH1 0x0 KECCAK256 PUSH1 0x3 ADD SLOAD LT PUSH2 0xFF1 JUMPI PUSH1 0x0 DUP1 REVERT JUMPDEST DUP2 PUSH1 0x1 PUSH1 0x0 DUP4 DUP2 MSTORE PUSH1 0x20 ADD SWAP1 DUP2 MSTORE PUSH1 0x20 ADD PUSH1 0x0 KECCAK256 PUSH1 0xA ADD SWAP1 DUP1 MLOAD SWAP1 PUSH1 0x20 ADD SWAP1 PUSH2 0x101B SWAP3 SWAP2 SWAP1 PUSH2 0x11D6 JUMP JUMPDEST POP POP POP JUMP JUMPDEST DUP3 PUSH1 0x1 PUSH1 0x0 DUP4 DUP2 MSTORE PUSH1 0x20 ADD SWAP1 DUP2 MSTORE PUSH1 0x20 ADD PUSH1 0x0 KECCAK256 PUSH1 0xB ADD PUSH1 0x0 DUP5 DUP2 MSTORE PUSH1 0x20 ADD SWAP1 DUP2 MSTORE PUSH1 0x20 ADD PUSH1 0x0 KECCAK256 PUSH1 0x0 PUSH2 0x100 EXP DUP2 SLOAD DUP2 PUSH20 0xFFFFFFFFFFFFFFFFFFFFFFFFFFFFFFFFFFFFFFFF MUL NOT AND SWAP1 DUP4 PUSH20 0xFFFFFFFFFFFFFFFFFFFFFFFFFFFFFFFFFFFFFFFF AND MUL OR SWAP1 SSTORE POP PUSH1 0x1 PUSH1 0x0 DUP3 DUP2 MSTORE PUSH1 0x20 ADD SWAP1 DUP2 MSTORE PUSH1 0x20 ADD PUSH1 0x0 KECCAK256 PUSH1 0x6 ADD PUSH1 0x0 DUP2 SLOAD DUP1 SWAP3 SWAP2 SWAP1 PUSH2 0x10AD SWAP1 PUSH2 0x1CEE JUMP JUMPDEST SWAP2 SWAP1 POP SSTORE POP PUSH32 0x4AD260FDB84F8458E9AE5BFB9F78B3A60D8DAEBA55271AC59884C0F6CB4E0435 DUP4 DUP3 PUSH1 0x40 MLOAD PUSH2 0x10E3 SWAP3 SWAP2 SWAP1 PUSH2 0x1951 JUMP JUMPDEST PUSH1 0x40 MLOAD DUP1 SWAP2 SUB SWAP1 LOG1 POP POP POP JUMP JUMPDEST DUP3 DUP1 SLOAD PUSH2 0x10FC SWAP1 PUSH2 0x1C8B JUMP JUMPDEST SWAP1 PUSH1 0x0 MSTORE PUSH1 0x20 PUSH1 0x0 KECCAK256 SWAP1 PUSH1 0x1F ADD PUSH1 0x20 SWAP1 DIV DUP2 ADD SWAP3 DUP3 PUSH2 0x111E JUMPI PUSH1 0x0 DUP6 SSTORE PUSH2 0x1165 JUMP JUMPDEST DUP3 PUSH1 0x1F LT PUSH2 0x1137 JUMPI DUP1 MLOAD PUSH1 0xFF NOT AND DUP4 DUP1 ADD OR DUP6 SSTORE PUSH2 0x1165 JUMP JUMPDEST DUP3 DUP1 ADD PUSH1 0x1 ADD DUP6 SSTORE DUP3 ISZERO PUSH2 0x1165 JUMPI SWAP2 DUP3 ADD JUMPDEST DUP3 DUP2 GT ISZERO PUSH2 0x1164 JUMPI DUP3 MLOAD DUP3 SSTORE SWAP2 PUSH1 0x20 ADD SWAP2 SWAP1 PUSH1 0x1 ADD SWAP1 PUSH2 0x1149 JUMP JUMPDEST JUMPDEST POP SWAP1 POP PUSH2 0x1172 SWAP2 SWAP1 PUSH2 0x1260 JUMP JUMPDEST POP SWAP1 JUMP JUMPDEST DUP3 DUP1 SLOAD DUP3 DUP3 SSTORE SWAP1 PUSH1 0x0 MSTORE PUSH1 0x20 PUSH1 0x0 KECCAK256 SWAP1 DUP2 ADD SWAP3 DUP3 ISZERO PUSH2 0x11C5 JUMPI SWAP2 PUSH1 0x20 MUL DUP3 ADD JUMPDEST DUP3 DUP2 GT ISZERO PUSH2 0x11C4 JUMPI DUP3 MLOAD DUP3 SWAP1 DUP1 MLOAD SWAP1 PUSH1 0x20 ADD SWAP1 PUSH2 0x11B4 SWAP3 SWAP2 SWAP1 PUSH2 0x10F0 JUMP JUMPDEST POP SWAP2 PUSH1 0x20 ADD SWAP2 SWAP1 PUSH1 0x1 ADD SWAP1 PUSH2 0x1196 JUMP JUMPDEST JUMPDEST POP SWAP1 POP PUSH2 0x11D2 SWAP2 SWAP1 PUSH2 0x127D JUMP JUMPDEST POP SWAP1 JUMP JUMPDEST DUP3 DUP1 SLOAD DUP3 DUP3 SSTORE SWAP1 PUSH1 0x0 MSTORE PUSH1 0x20 PUSH1 0x0 KECCAK256 SWAP1 DUP2 ADD SWAP3 DUP3 ISZERO PUSH2 0x124F JUMPI SWAP2 PUSH1 0x20 MUL DUP3 ADD JUMPDEST DUP3 DUP2 GT ISZERO PUSH2 0x124E JUMPI DUP3 MLOAD DUP3 PUSH1 0x0 PUSH2 0x100 EXP DUP2 SLOAD DUP2 PUSH20 0xFFFFFFFFFFFFFFFFFFFFFFFFFFFFFFFFFFFFFFFF MUL NOT AND SWAP1 DUP4 PUSH20 0xFFFFFFFFFFFFFFFFFFFFFFFFFFFFFFFFFFFFFFFF AND MUL OR SWAP1 SSTORE POP SWAP2 PUSH1 0x20 ADD SWAP2 SWAP1 PUSH1 0x1 ADD SWAP1 PUSH2 0x11F6 JUMP JUMPDEST JUMPDEST POP SWAP1 POP PUSH2 0x125C SWAP2 SWAP1 PUSH2 0x1260 JUMP JUMPDEST POP SWAP1 JUMP JUMPDEST JUMPDEST DUP1 DUP3 GT ISZERO PUSH2 0x1279 JUMPI PUSH1 0x0 DUP2 PUSH1 0x0 SWAP1 SSTORE POP PUSH1 0x1 ADD PUSH2 0x1261 JUMP JUMPDEST POP SWAP1 JUMP JUMPDEST JUMPDEST DUP1 DUP3 GT ISZERO PUSH2 0x129D JUMPI PUSH1 0x0 DUP2 DUP2 PUSH2 0x1294 SWAP2 SWAP1 PUSH2 0x12A1 JUMP JUMPDEST POP PUSH1 0x1 ADD PUSH2 0x127E JUMP JUMPDEST POP SWAP1 JUMP JUMPDEST POP DUP1 SLOAD PUSH2 0x12AD SWAP1 PUSH2 0x1C8B JUMP JUMPDEST PUSH1 0x0 DUP3 SSTORE DUP1 PUSH1 0x1F LT PUSH2 0x12BF JUMPI POP PUSH2 0x12DE JUMP JUMPDEST PUSH1 0x1F ADD PUSH1 0x20 SWAP1 DIV SWAP1 PUSH1 0x0 MSTORE PUSH1 0x20 PUSH1 0x0 KECCAK256 SWAP1 DUP2 ADD SWAP1 PUSH2 0x12DD SWAP2 SWAP1 PUSH2 0x1260 JUMP JUMPDEST JUMPDEST POP JUMP JUMPDEST PUSH1 0x0 PUSH2 0x12F4 PUSH2 0x12EF DUP5 PUSH2 0x1AFC JUMP JUMPDEST PUSH2 0x1AD7 JUMP JUMPDEST SWAP1 POP DUP1 DUP4 DUP3 MSTORE PUSH1 0x20 DUP3 ADD SWAP1 POP DUP3 DUP6 PUSH1 0x20 DUP7 MUL DUP3 ADD GT ISZERO PUSH2 0x1317 JUMPI PUSH2 0x1316 PUSH2 0x1DF8 JUMP JUMPDEST JUMPDEST PUSH1 0x0 JUMPDEST DUP6 DUP2 LT ISZERO PUSH2 0x1347 JUMPI DUP2 PUSH2 0x132D DUP9 DUP3 PUSH2 0x1491 JUMP JUMPDEST DUP5 MSTORE PUSH1 0x20 DUP5 ADD SWAP4 POP PUSH1 0x20 DUP4 ADD SWAP3 POP POP PUSH1 0x1 DUP2 ADD SWAP1 POP PUSH2 0x131A JUMP JUMPDEST POP POP POP SWAP4 SWAP3 POP POP POP JUMP JUMPDEST PUSH1 0x0 PUSH2 0x1364 PUSH2 0x135F DUP5 PUSH2 0x1B28 JUMP JUMPDEST PUSH2 0x1AD7 JUMP JUMPDEST SWAP1 POP DUP1 DUP4 DUP3 MSTORE PUSH1 0x20 DUP3 ADD SWAP1 POP DUP3 DUP6 PUSH1 0x20 DUP7 MUL DUP3 ADD GT ISZERO PUSH2 0x1387 JUMPI PUSH2 0x1386 PUSH2 0x1DF8 JUMP JUMPDEST JUMPDEST PUSH1 0x0 JUMPDEST DUP6 DUP2 LT ISZERO PUSH2 0x13D5 JUMPI DUP2 CALLDATALOAD PUSH8 0xFFFFFFFFFFFFFFFF DUP2 GT ISZERO PUSH2 0x13AD JUMPI PUSH2 0x13AC PUSH2 0x1DF3 JUMP JUMPDEST JUMPDEST DUP1 DUP7 ADD PUSH2 0x13BA DUP10 DUP3 PUSH2 0x1530 JUMP JUMPDEST DUP6 MSTORE PUSH1 0x20 DUP6 ADD SWAP5 POP PUSH1 0x20 DUP5 ADD SWAP4 POP POP POP PUSH1 0x1 DUP2 ADD SWAP1 POP PUSH2 0x138A JUMP JUMPDEST POP POP POP SWAP4 SWAP3 POP POP POP JUMP JUMPDEST PUSH1 0x0 PUSH2 0x13F2 PUSH2 0x13ED DUP5 PUSH2 0x1B54 JUMP JUMPDEST PUSH2 0x1AD7 JUMP JUMPDEST SWAP1 POP DUP1 DUP4 DUP3 MSTORE PUSH1 0x20 DUP3 ADD SWAP1 POP DUP3 DUP6 PUSH1 0x20 DUP7 MUL DUP3 ADD GT ISZERO PUSH2 0x1415 JUMPI PUSH2 0x1414 PUSH2 0x1DF8 JUMP JUMPDEST JUMPDEST PUSH1 0x0 JUMPDEST DUP6 DUP2 LT ISZERO PUSH2 0x1445 JUMPI DUP2 PUSH2 0x142B DUP9 DUP3 PUSH2 0x155E JUMP JUMPDEST DUP5 MSTORE PUSH1 0x20 DUP5 ADD SWAP4 POP PUSH1 0x20 DUP4 ADD SWAP3 POP POP PUSH1 0x1 DUP2 ADD SWAP1 POP PUSH2 0x1418 JUMP JUMPDEST POP POP POP SWAP4 SWAP3 POP POP POP JUMP JUMPDEST PUSH1 0x0 PUSH2 0x1462 PUSH2 0x145D DUP5 PUSH2 0x1B80 JUMP JUMPDEST PUSH2 0x1AD7 JUMP JUMPDEST SWAP1 POP DUP3 DUP2 MSTORE PUSH1 0x20 DUP2 ADD DUP5 DUP5 DUP5 ADD GT ISZERO PUSH2 0x147E JUMPI PUSH2 0x147D PUSH2 0x1DFD JUMP JUMPDEST JUMPDEST PUSH2 0x1489 DUP5 DUP3 DUP6 PUSH2 0x1C49 JUMP JUMPDEST POP SWAP4 SWAP3 POP POP POP JUMP JUMPDEST PUSH1 0x0 DUP2 CALLDATALOAD SWAP1 POP PUSH2 0x14A0 DUP2 PUSH2 0x1E98 JUMP JUMPDEST SWAP3 SWAP2 POP POP JUMP JUMPDEST PUSH1 0x0 DUP3 PUSH1 0x1F DUP4 ADD SLT PUSH2 0x14BB JUMPI PUSH2 0x14BA PUSH2 0x1DF3 JUMP JUMPDEST JUMPDEST DUP2 CALLDATALOAD PUSH2 0x14CB DUP5 DUP3 PUSH1 0x20 DUP7 ADD PUSH2 0x12E1 JUMP JUMPDEST SWAP2 POP POP SWAP3 SWAP2 POP POP JUMP JUMPDEST PUSH1 0x0 DUP3 PUSH1 0x1F DUP4 ADD SLT PUSH2 0x14E9 JUMPI PUSH2 0x14E8 PUSH2 0x1DF3 JUMP JUMPDEST JUMPDEST DUP2 CALLDATALOAD PUSH2 0x14F9 DUP5 DUP3 PUSH1 0x20 DUP7 ADD PUSH2 0x1351 JUMP JUMPDEST SWAP2 POP POP SWAP3 SWAP2 POP POP JUMP JUMPDEST PUSH1 0x0 DUP3 PUSH1 0x1F DUP4 ADD SLT PUSH2 0x1517 JUMPI PUSH2 0x1516 PUSH2 0x1DF3 JUMP JUMPDEST JUMPDEST DUP2 CALLDATALOAD PUSH2 0x1527 DUP5 DUP3 PUSH1 0x20 DUP7 ADD PUSH2 0x13DF JUMP JUMPDEST SWAP2 POP POP SWAP3 SWAP2 POP POP JUMP JUMPDEST PUSH1 0x0 DUP3 PUSH1 0x1F DUP4 ADD SLT PUSH2 0x1545 JUMPI PUSH2 0x1544 PUSH2 0x1DF3 JUMP JUMPDEST JUMPDEST DUP2 CALLDATALOAD PUSH2 0x1555 DUP5 DUP3 PUSH1 0x20 DUP7 ADD PUSH2 0x144F JUMP JUMPDEST SWAP2 POP POP SWAP3 SWAP2 POP POP JUMP JUMPDEST PUSH1 0x0 DUP2 CALLDATALOAD SWAP1 POP PUSH2 0x156D DUP2 PUSH2 0x1EAF JUMP JUMPDEST SWAP3 SWAP2 POP POP JUMP JUMPDEST PUSH1 0x0 DUP1 PUSH1 0x40 DUP4 DUP6 SUB SLT ISZERO PUSH2 0x158A JUMPI PUSH2 0x1589 PUSH2 0x1E07 JUMP JUMPDEST JUMPDEST PUSH1 0x0 PUSH2 0x1598 DUP6 DUP3 DUP7 ADD PUSH2 0x1491 JUMP JUMPDEST SWAP3 POP POP PUSH1 0x20 PUSH2 0x15A9 DUP6 DUP3 DUP7 ADD PUSH2 0x155E JUMP JUMPDEST SWAP2 POP POP SWAP3 POP SWAP3 SWAP1 POP JUMP JUMPDEST PUSH1 0x0 DUP1 PUSH1 0x0 PUSH1 0x60 DUP5 DUP7 SUB SLT ISZERO PUSH2 0x15CC JUMPI PUSH2 0x15CB PUSH2 0x1E07 JUMP JUMPDEST JUMPDEST PUSH1 0x0 DUP5 ADD CALLDATALOAD PUSH8 0xFFFFFFFFFFFFFFFF DUP2 GT ISZERO PUSH2 0x15EA JUMPI PUSH2 0x15E9 PUSH2 0x1E02 JUMP JUMPDEST JUMPDEST PUSH2 0x15F6 DUP7 DUP3 DUP8 ADD PUSH2 0x14A6 JUMP JUMPDEST SWAP4 POP POP PUSH1 0x20 DUP5 ADD CALLDATALOAD PUSH8 0xFFFFFFFFFFFFFFFF DUP2 GT ISZERO PUSH2 0x1617 JUMPI PUSH2 0x1616 PUSH2 0x1E02 JUMP JUMPDEST JUMPDEST PUSH2 0x1623 DUP7 DUP3 DUP8 ADD PUSH2 0x1502 JUMP JUMPDEST SWAP3 POP POP PUSH1 0x40 PUSH2 0x1634 DUP7 DUP3 DUP8 ADD PUSH2 0x155E JUMP JUMPDEST SWAP2 POP POP SWAP3 POP SWAP3 POP SWAP3 JUMP JUMPDEST PUSH1 0x0 DUP1 PUSH1 0x0 DUP1 PUSH1 0x80 DUP6 DUP8 SUB SLT ISZERO PUSH2 0x1658 JUMPI PUSH2 0x1657 PUSH2 0x1E07 JUMP JUMPDEST JUMPDEST PUSH1 0x0 DUP6 ADD CALLDATALOAD PUSH8 0xFFFFFFFFFFFFFFFF DUP2 GT ISZERO PUSH2 0x1676 JUMPI PUSH2 0x1675 PUSH2 0x1E02 JUMP JUMPDEST JUMPDEST PUSH2 0x1682 DUP8 DUP3 DUP9 ADD PUSH2 0x1530 JUMP JUMPDEST SWAP5 POP POP PUSH1 0x20 PUSH2 0x1693 DUP8 DUP3 DUP9 ADD PUSH2 0x155E JUMP JUMPDEST SWAP4 POP POP PUSH1 0x40 DUP6 ADD CALLDATALOAD PUSH8 0xFFFFFFFFFFFFFFFF DUP2 GT ISZERO PUSH2 0x16B4 JUMPI PUSH2 0x16B3 PUSH2 0x1E02 JUMP JUMPDEST JUMPDEST PUSH2 0x16C0 DUP8 DUP3 DUP9 ADD PUSH2 0x14A6 JUMP JUMPDEST SWAP3 POP POP PUSH1 0x60 PUSH2 0x16D1 DUP8 DUP3 DUP9 ADD PUSH2 0x155E JUMP JUMPDEST SWAP2 POP POP SWAP3 SWAP6 SWAP2 SWAP5 POP SWAP3 POP JUMP JUMPDEST PUSH1 0x0 DUP1 PUSH1 0x0 PUSH1 0x60 DUP5 DUP7 SUB SLT ISZERO PUSH2 0x16F6 JUMPI PUSH2 0x16F5 PUSH2 0x1E07 JUMP JUMPDEST JUMPDEST PUSH1 0x0 DUP5 ADD CALLDATALOAD PUSH8 0xFFFFFFFFFFFFFFFF DUP2 GT ISZERO PUSH2 0x1714 JUMPI PUSH2 0x1713 PUSH2 0x1E02 JUMP JUMPDEST JUMPDEST PUSH2 0x1720 DUP7 DUP3 DUP8 ADD PUSH2 0x1530 JUMP JUMPDEST SWAP4 POP POP PUSH1 0x20 PUSH2 0x1731 DUP7 DUP3 DUP8 ADD PUSH2 0x155E JUMP JUMPDEST SWAP3 POP POP PUSH1 0x40 PUSH2 0x1742 DUP7 DUP3 DUP8 ADD PUSH2 0x155E JUMP JUMPDEST SWAP2 POP POP SWAP3 POP SWAP3 POP SWAP3 JUMP JUMPDEST PUSH1 0x0 PUSH1 0x20 DUP3 DUP5 SUB SLT ISZERO PUSH2 0x1762 JUMPI PUSH2 0x1761 PUSH2 0x1E07 JUMP JUMPDEST JUMPDEST PUSH1 0x0 PUSH2 0x1770 DUP5 DUP3 DUP6 ADD PUSH2 0x155E JUMP JUMPDEST SWAP2 POP POP SWAP3 SWAP2 POP POP JUMP JUMPDEST PUSH1 0x0 DUP1 PUSH1 0x0 PUSH1 0x60 DUP5 DUP7 SUB SLT ISZERO PUSH2 0x1792 JUMPI PUSH2 0x1791 PUSH2 0x1E07 JUMP JUMPDEST JUMPDEST PUSH1 0x0 PUSH2 0x17A0 DUP7 DUP3 DUP8 ADD PUSH2 0x155E JUMP JUMPDEST SWAP4 POP POP PUSH1 0x20 DUP5 ADD CALLDATALOAD PUSH8 0xFFFFFFFFFFFFFFFF DUP2 GT ISZERO PUSH2 0x17C1 JUMPI PUSH2 0x17C0 PUSH2 0x1E02 JUMP JUMPDEST JUMPDEST PUSH2 0x17CD DUP7 DUP3 DUP8 ADD PUSH2 0x14D4 JUMP JUMPDEST SWAP3 POP POP PUSH1 0x40 PUSH2 0x17DE DUP7 DUP3 DUP8 ADD PUSH2 0x1491 JUMP JUMPDEST SWAP2 POP POP SWAP3 POP SWAP3 POP SWAP3 JUMP JUMPDEST PUSH1 0x0 DUP1 PUSH1 0x40 DUP4 DUP6 SUB SLT ISZERO PUSH2 0x17FF JUMPI PUSH2 0x17FE PUSH2 0x1E07 JUMP JUMPDEST JUMPDEST PUSH1 0x0 PUSH2 0x180D DUP6 DUP3 DUP7 ADD PUSH2 0x155E JUMP JUMPDEST SWAP3 POP POP PUSH1 0x20 DUP4 ADD CALLDATALOAD PUSH8 0xFFFFFFFFFFFFFFFF DUP2 GT ISZERO PUSH2 0x182E JUMPI PUSH2 0x182D PUSH2 0x1E02 JUMP JUMPDEST JUMPDEST PUSH2 0x183A DUP6 DUP3 DUP7 ADD PUSH2 0x1530 JUMP JUMPDEST SWAP2 POP POP SWAP3 POP SWAP3 SWAP1 POP JUMP JUMPDEST PUSH2 0x184D DUP2 PUSH2 0x1C01 JUMP JUMPDEST DUP3 MSTORE POP POP JUMP JUMPDEST PUSH2 0x185C DUP2 PUSH2 0x1C13 JUMP JUMPDEST DUP3 MSTORE POP POP JUMP JUMPDEST PUSH1 0x0 PUSH2 0x186D DUP3 PUSH2 0x1BB1 JUMP JUMPDEST PUSH2 0x1877 DUP2 DUP6 PUSH2 0x1BBC JUMP JUMPDEST SWAP4 POP PUSH2 0x1887 DUP2 DUP6 PUSH1 0x20 DUP7 ADD PUSH2 0x1C58 JUMP JUMPDEST PUSH2 0x1890 DUP2 PUSH2 0x1E0C JUMP JUMPDEST DUP5 ADD SWAP2 POP POP SWAP3 SWAP2 POP POP JUMP JUMPDEST PUSH1 0x0 PUSH2 0x18A8 PUSH1 0x9 DUP4 PUSH2 0x1BBC JUMP JUMPDEST SWAP2 POP PUSH2 0x18B3 DUP3 PUSH2 0x1E1D JUMP JUMPDEST PUSH1 0x20 DUP3 ADD SWAP1 POP SWAP2 SWAP1 POP JUMP JUMPDEST PUSH1 0x0 PUSH2 0x18CB PUSH1 0xC DUP4 PUSH2 0x1BBC JUMP JUMPDEST SWAP2 POP PUSH2 0x18D6 DUP3 PUSH2 0x1E46 JUMP JUMPDEST PUSH1 0x20 DUP3 ADD SWAP1 POP SWAP2 SWAP1 POP JUMP JUMPDEST PUSH1 0x0 PUSH2 0x18EE PUSH1 0xD DUP4 PUSH2 0x1BBC JUMP JUMPDEST SWAP2 POP PUSH2 0x18F9 DUP3 PUSH2 0x1E6F JUMP JUMPDEST PUSH1 0x20 DUP3 ADD SWAP1 POP SWAP2 SWAP1 POP JUMP JUMPDEST PUSH2 0x190D DUP2 PUSH2 0x1C3F JUMP JUMPDEST DUP3 MSTORE POP POP JUMP JUMPDEST PUSH1 0x0 PUSH1 0x60 DUP3 ADD SWAP1 POP PUSH2 0x1928 PUSH1 0x0 DUP4 ADD DUP7 PUSH2 0x1844 JUMP JUMPDEST DUP2 DUP2 SUB PUSH1 0x20 DUP4 ADD MSTORE PUSH2 0x193A DUP2 DUP6 PUSH2 0x1862 JUMP JUMPDEST SWAP1 POP PUSH2 0x1949 PUSH1 0x40 DUP4 ADD DUP5 PUSH2 0x1904 JUMP JUMPDEST SWAP5 SWAP4 POP POP POP POP JUMP JUMPDEST PUSH1 0x0 PUSH1 0x40 DUP3 ADD SWAP1 POP PUSH2 0x1966 PUSH1 0x0 DUP4 ADD DUP6 PUSH2 0x1844 JUMP JUMPDEST PUSH2 0x1973 PUSH1 0x20 DUP4 ADD DUP5 PUSH2 0x1904 JUMP JUMPDEST SWAP4 SWAP3 POP POP POP JUMP JUMPDEST PUSH1 0x0 PUSH1 0x60 DUP3 ADD SWAP1 POP PUSH2 0x198F PUSH1 0x0 DUP4 ADD DUP7 PUSH2 0x1844 JUMP JUMPDEST PUSH2 0x199C PUSH1 0x20 DUP4 ADD DUP6 PUSH2 0x1904 JUMP JUMPDEST DUP2 DUP2 SUB PUSH1 0x40 DUP4 ADD MSTORE PUSH2 0x19AE DUP2 DUP5 PUSH2 0x1862 JUMP JUMPDEST SWAP1 POP SWAP5 SWAP4 POP POP POP POP JUMP JUMPDEST PUSH1 0x0 PUSH1 0x20 DUP3 ADD SWAP1 POP PUSH2 0x19CD PUSH1 0x0 DUP4 ADD DUP5 PUSH2 0x1853 JUMP JUMPDEST SWAP3 SWAP2 POP POP JUMP JUMPDEST PUSH1 0x0 PUSH1 0x20 DUP3 ADD SWAP1 POP DUP2 DUP2 SUB PUSH1 0x0 DUP4 ADD MSTORE PUSH2 0x19ED DUP2 DUP5 PUSH2 0x1862 JUMP JUMPDEST SWAP1 POP SWAP3 SWAP2 POP POP JUMP JUMPDEST PUSH1 0x0 PUSH1 0x40 DUP3 ADD SWAP1 POP DUP2 DUP2 SUB PUSH1 0x0 DUP4 ADD MSTORE PUSH2 0x1A0F DUP2 DUP6 PUSH2 0x1862 JUMP JUMPDEST SWAP1 POP PUSH2 0x1A1E PUSH1 0x20 DUP4 ADD DUP5 PUSH2 0x1904 JUMP JUMPDEST SWAP4 SWAP3 POP POP POP JUMP JUMPDEST PUSH1 0x0 PUSH1 0x20 DUP3 ADD SWAP1 POP DUP2 DUP2 SUB PUSH1 0x0 DUP4 ADD MSTORE PUSH2 0x1A3E DUP2 PUSH2 0x189B JUMP JUMPDEST SWAP1 POP SWAP2 SWAP1 POP JUMP JUMPDEST PUSH1 0x0 PUSH1 0x20 DUP3 ADD SWAP1 POP DUP2 DUP2 SUB PUSH1 0x0 DUP4 ADD MSTORE PUSH2 0x1A5E DUP2 PUSH2 0x18BE JUMP JUMPDEST SWAP1 POP SWAP2 SWAP1 POP JUMP JUMPDEST PUSH1 0x0 PUSH1 0x20 DUP3 ADD SWAP1 POP DUP2 DUP2 SUB PUSH1 0x0 DUP4 ADD MSTORE PUSH2 0x1A7E DUP2 PUSH2 0x18E1 JUMP JUMPDEST SWAP1 POP SWAP2 SWAP1 POP JUMP JUMPDEST PUSH1 0x0 PUSH1 0x20 DUP3 ADD SWAP1 POP PUSH2 0x1A9A PUSH1 0x0 DUP4 ADD DUP5 PUSH2 0x1904 JUMP JUMPDEST SWAP3 SWAP2 POP POP JUMP JUMPDEST PUSH1 0x0 PUSH1 0x60 DUP3 ADD SWAP1 POP PUSH2 0x1AB5 PUSH1 0x0 DUP4 ADD DUP7 PUSH2 0x1904 JUMP JUMPDEST PUSH2 0x1AC2 PUSH1 0x20 DUP4 ADD DUP6 PUSH2 0x1904 JUMP JUMPDEST PUSH2 0x1ACF PUSH1 0x40 DUP4 ADD DUP5 PUSH2 0x1904 JUMP JUMPDEST SWAP5 SWAP4 POP POP POP POP JUMP JUMPDEST PUSH1 0x0 PUSH2 0x1AE1 PUSH2 0x1AF2 JUMP JUMPDEST SWAP1 POP PUSH2 0x1AED DUP3 DUP3 PUSH2 0x1CBD JUMP JUMPDEST SWAP2 SWAP1 POP JUMP JUMPDEST PUSH1 0x0 PUSH1 0x40 MLOAD SWAP1 POP SWAP1 JUMP JUMPDEST PUSH1 0x0 PUSH8 0xFFFFFFFFFFFFFFFF DUP3 GT ISZERO PUSH2 0x1B17 JUMPI PUSH2 0x1B16 PUSH2 0x1DC4 JUMP JUMPDEST JUMPDEST PUSH1 0x20 DUP3 MUL SWAP1 POP PUSH1 0x20 DUP2 ADD SWAP1 POP SWAP2 SWAP1 POP JUMP JUMPDEST PUSH1 0x0 PUSH8 0xFFFFFFFFFFFFFFFF DUP3 GT ISZERO PUSH2 0x1B43 JUMPI PUSH2 0x1B42 PUSH2 0x1DC4 JUMP JUMPDEST JUMPDEST PUSH1 0x20 DUP3 MUL SWAP1 POP PUSH1 0x20 DUP2 ADD SWAP1 POP SWAP2 SWAP1 POP JUMP JUMPDEST PUSH1 0x0 PUSH8 0xFFFFFFFFFFFFFFFF DUP3 GT ISZERO PUSH2 0x1B6F JUMPI PUSH2 0x1B6E PUSH2 0x1DC4 JUMP JUMPDEST JUMPDEST PUSH1 0x20 DUP3 MUL SWAP1 POP PUSH1 0x20 DUP2 ADD SWAP1 POP SWAP2 SWAP1 POP JUMP JUMPDEST PUSH1 0x0 PUSH8 0xFFFFFFFFFFFFFFFF DUP3 GT ISZERO PUSH2 0x1B9B JUMPI PUSH2 0x1B9A PUSH2 0x1DC4 JUMP JUMPDEST JUMPDEST PUSH2 0x1BA4 DUP3 PUSH2 0x1E0C JUMP JUMPDEST SWAP1 POP PUSH1 0x20 DUP2 ADD SWAP1 POP SWAP2 SWAP1 POP JUMP JUMPDEST PUSH1 0x0 DUP2 MLOAD SWAP1 POP SWAP2 SWAP1 POP JUMP JUMPDEST PUSH1 0x0 DUP3 DUP3 MSTORE PUSH1 0x20 DUP3 ADD SWAP1 POP SWAP3 SWAP2 POP POP JUMP JUMPDEST PUSH1 0x0 PUSH2 0x1BD8 DUP3 PUSH2 0x1C3F JUMP JUMPDEST SWAP2 POP PUSH2 0x1BE3 DUP4 PUSH2 0x1C3F JUMP JUMPDEST SWAP3 POP DUP3 DUP3 LT ISZERO PUSH2 0x1BF6 JUMPI PUSH2 0x1BF5 PUSH2 0x1D37 JUMP JUMPDEST JUMPDEST DUP3 DUP3 SUB SWAP1 POP SWAP3 SWAP2 POP POP JUMP JUMPDEST PUSH1 0x0 PUSH2 0x1C0C DUP3 PUSH2 0x1C1F JUMP JUMPDEST SWAP1 POP SWAP2 SWAP1 POP JUMP JUMPDEST PUSH1 0x0 DUP2 ISZERO ISZERO SWAP1 POP SWAP2 SWAP1 POP JUMP JUMPDEST PUSH1 0x0 PUSH20 0xFFFFFFFFFFFFFFFFFFFFFFFFFFFFFFFFFFFFFFFF DUP3 AND SWAP1 POP SWAP2 SWAP1 POP JUMP JUMPDEST PUSH1 0x0 DUP2 SWAP1 POP SWAP2 SWAP1 POP JUMP JUMPDEST DUP3 DUP2 DUP4 CALLDATACOPY PUSH1 0x0 DUP4 DUP4 ADD MSTORE POP POP POP JUMP JUMPDEST PUSH1 0x0 JUMPDEST DUP4 DUP2 LT ISZERO PUSH2 0x1C76 JUMPI DUP1 DUP3 ADD MLOAD DUP2 DUP5 ADD MSTORE PUSH1 0x20 DUP2 ADD SWAP1 POP PUSH2 0x1C5B JUMP JUMPDEST DUP4 DUP2 GT ISZERO PUSH2 0x1C85 JUMPI PUSH1 0x0 DUP5 DUP5 ADD MSTORE JUMPDEST POP POP POP POP JUMP JUMPDEST PUSH1 0x0 PUSH1 0x2 DUP3 DIV SWAP1 POP PUSH1 0x1 DUP3 AND DUP1 PUSH2 0x1CA3 JUMPI PUSH1 0x7F DUP3 AND SWAP2 POP JUMPDEST PUSH1 0x20 DUP3 LT DUP2 EQ ISZERO PUSH2 0x1CB7 JUMPI PUSH2 0x1CB6 PUSH2 0x1D66 JUMP JUMPDEST JUMPDEST POP SWAP2 SWAP1 POP JUMP JUMPDEST PUSH2 0x1CC6 DUP3 PUSH2 0x1E0C JUMP JUMPDEST DUP2 ADD DUP2 DUP2 LT PUSH8 0xFFFFFFFFFFFFFFFF DUP3 GT OR ISZERO PUSH2 0x1CE5 JUMPI PUSH2 0x1CE4 PUSH2 0x1DC4 JUMP JUMPDEST JUMPDEST DUP1 PUSH1 0x40 MSTORE POP POP POP JUMP JUMPDEST PUSH1 0x0 PUSH2 0x1CF9 DUP3 PUSH2 0x1C3F JUMP JUMPDEST SWAP2 POP PUSH32 0xFFFFFFFFFFFFFFFFFFFFFFFFFFFFFFFFFFFFFFFFFFFFFFFFFFFFFFFFFFFFFFFF DUP3 EQ ISZERO PUSH2 0x1D2C JUMPI PUSH2 0x1D2B PUSH2 0x1D37 JUMP JUMPDEST JUMPDEST PUSH1 0x1 DUP3 ADD SWAP1 POP SWAP2 SWAP1 POP JUMP JUMPDEST PUSH32 0x4E487B7100000000000000000000000000000000000000000000000000000000 PUSH1 0x0 MSTORE PUSH1 0x11 PUSH1 0x4 MSTORE PUSH1 0x24 PUSH1 0x0 REVERT JUMPDEST PUSH32 0x4E487B7100000000000000000000000000000000000000000000000000000000 PUSH1 0x0 MSTORE PUSH1 0x22 PUSH1 0x4 MSTORE PUSH1 0x24 PUSH1 0x0 REVERT JUMPDEST PUSH32 0x4E487B7100000000000000000000000000000000000000000000000000000000 PUSH1 0x0 MSTORE PUSH1 0x32 PUSH1 0x4 MSTORE PUSH1 0x24 PUSH1 0x0 REVERT JUMPDEST PUSH32 0x4E487B7100000000000000000000000000000000000000000000000000000000 PUSH1 0x0 MSTORE PUSH1 0x41 PUSH1 0x4 MSTORE PUSH1 0x24 PUSH1 0x0 REVERT JUMPDEST PUSH1 0x0 DUP1 REVERT JUMPDEST PUSH1 0x0 DUP1 REVERT JUMPDEST PUSH1 0x0 DUP1 REVERT JUMPDEST PUSH1 0x0 DUP1 REVERT JUMPDEST PUSH1 0x0 DUP1 REVERT JUMPDEST PUSH1 0x0 PUSH1 0x1F NOT PUSH1 0x1F DUP4 ADD AND SWAP1 POP SWAP2 SWAP1 POP JUMP JUMPDEST PUSH32 0x57726F6E67206B65790000000000000000000000000000000000000000000000 PUSH1 0x0 DUP3 ADD MSTORE POP JUMP JUMPDEST PUSH32 0x4944206265656E20757365640000000000000000000000000000000000000000 PUSH1 0x0 DUP3 ADD MSTORE POP JUMP JUMPDEST PUSH32 0x4E6F205065726D697373696F6E00000000000000000000000000000000000000 PUSH1 0x0 DUP3 ADD MSTORE POP JUMP JUMPDEST PUSH2 0x1EA1 DUP2 PUSH2 0x1C01 JUMP JUMPDEST DUP2 EQ PUSH2 0x1EAC JUMPI PUSH1 0x0 DUP1 REVERT JUMPDEST POP JUMP JUMPDEST PUSH2 0x1EB8 DUP2 PUSH2 0x1C3F JUMP JUMPDEST DUP2 EQ PUSH2 0x1EC3 JUMPI PUSH1 0x0 DUP1 REVERT JUMPDEST POP JUMP INVALID LOG2 PUSH5 0x6970667358 0x22 SLT KECCAK256 COINBASE 0xE6 0xB3 LT PUSH12 0x57637B6B0C744C5804CF277E BLOCKHASH 0xE9 TIMESTAMP 0xAC SGT 0xCF TIMESTAMP PUSH15 0xC457CFDE9C3D7264736F6C63430008 SMOD STOP CALLER "
		},
		"gasEstimates": {
			"creation": {
				"codeDepositCost": "1586400",
				"executionCost": "25925",
				"totalCost": "1612325"
			},
			"external": {
				"esecret_submit_end(uint256)": "infinite",
				"get_ballot(address,uint256)": "infinite",
				"get_publickey(uint256)": "infinite",
				"new_vote(string,uint256,address[],uint256)": "infinite",
				"set_publickey(uint256,string)": "infinite",
				"set_result(uint256,string[],address)": "infinite",
				"set_voters(address[],uint256[],uint256)": "infinite",
				"upload_esecret(uint256,string)": "infinite",
				"voting(string,uint256,uint256)": "infinite",
				"voting_end(uint256)": "infinite",
				"voting_start(uint256)": "infinite"
			},
			"internal": {
				"set_candidates(address[] memory,uint256)": "infinite",
				"set_voter(address,uint256,uint256)": "infinite"
			}
		},
		"methodIdentifiers": {
			"esecret_submit_end(uint256)": "52ce9539",
			"get_ballot(address,uint256)": "d6f937e5",
			"get_publickey(uint256)": "cf5765a9",
			"new_vote(string,uint256,address[],uint256)": "2c5aa9e6",
			"set_publickey(uint256,string)": "066f4570",
			"set_result(uint256,string[],address)": "6e0da702",
			"set_voters(address[],uint256[],uint256)": "be19e121",
			"upload_esecret(uint256,string)": "81b0ba6c",
			"voting(string,uint256,uint256)": "cb9f4099",
			"voting_end(uint256)": "8aa430af",
			"voting_start(uint256)": "a4db23fc"
		}
	},
	"abi": [
		{
			"inputs": [],
			"stateMutability": "nonpayable",
			"type": "constructor"
		},
		{
			"anonymous": false,
			"inputs": [
				{
					"indexed": false,
					"internalType": "address",
					"name": "voter",
					"type": "address"
				},
				{
					"indexed": false,
					"internalType": "uint256",
					"name": "vote_id",
					"type": "uint256"
				},
				{
					"indexed": false,
					"internalType": "string",
					"name": "esecret",
					"type": "string"
				}
			],
			"name": "Esecret_submit",
			"type": "event"
		},
		{
			"anonymous": false,
			"inputs": [
				{
					"indexed": false,
					"internalType": "uint256",
					"name": "vote_id",
					"type": "uint256"
				}
			],
			"name": "Esecret_submit_end",
			"type": "event"
		},
		{
			"anonymous": false,
			"inputs": [
				{
					"indexed": false,
					"internalType": "string",
					"name": "vote_title",
					"type": "string"
				},
				{
					"indexed": false,
					"internalType": "uint256",
					"name": "vote_id",
					"type": "uint256"
				}
			],
			"name": "New_vote",
			"type": "event"
		},
		{
			"anonymous": false,
			"inputs": [
				{
					"indexed": false,
					"internalType": "uint256",
					"name": "end_time",
					"type": "uint256"
				},
				{
					"indexed": false,
					"internalType": "uint256",
					"name": "block_number",
					"type": "uint256"
				},
				{
					"indexed": false,
					"internalType": "uint256",
					"name": "vote_id",
					"type": "uint256"
				}
			],
			"name": "Vote_end",
			"type": "event"
		},
		{
			"anonymous": false,
			"inputs": [
				{
					"indexed": false,
					"internalType": "uint256",
					"name": "start_time",
					"type": "uint256"
				},
				{
					"indexed": false,
					"internalType": "uint256",
					"name": "block_number",
					"type": "uint256"
				},
				{
					"indexed": false,
					"internalType": "uint256",
					"name": "vote_id",
					"type": "uint256"
				}
			],
			"name": "Vote_start",
			"type": "event"
		},
		{
			"anonymous": false,
			"inputs": [
				{
					"indexed": false,
					"internalType": "address",
					"name": "voter",
					"type": "address"
				},
				{
					"indexed": false,
					"internalType": "uint256",
					"name": "vote_id",
					"type": "uint256"
				}
			],
			"name": "Voter_set",
			"type": "event"
		},
		{
			"anonymous": false,
			"inputs": [
				{
					"indexed": false,
					"internalType": "address",
					"name": "voter",
					"type": "address"
				},
				{
					"indexed": false,
					"internalType": "string",
					"name": "ballot",
					"type": "string"
				},
				{
					"indexed": false,
					"internalType": "uint256",
					"name": "vote_id",
					"type": "uint256"
				}
			],
			"name": "Voting_complete",
			"type": "event"
		},
		{
			"inputs": [
				{
					"internalType": "uint256",
					"name": "vote_id",
					"type": "uint256"
				}
			],
			"name": "esecret_submit_end",
			"outputs": [],
			"stateMutability": "nonpayable",
			"type": "function"
		},
		{
			"inputs": [
				{
					"internalType": "address",
					"name": "voter",
					"type": "address"
				},
				{
					"internalType": "uint256",
					"name": "vote_id",
					"type": "uint256"
				}
			],
			"name": "get_ballot",
			"outputs": [
				{
					"internalType": "string",
					"name": "",
					"type": "string"
				}
			],
			"stateMutability": "view",
			"type": "function"
		},
		{
			"inputs": [
				{
					"internalType": "uint256",
					"name": "vote_id",
					"type": "uint256"
				}
			],
			"name": "get_publickey",
			"outputs": [
				{
					"internalType": "string",
					"name": "",
					"type": "string"
				}
			],
			"stateMutability": "view",
			"type": "function"
		},
		{
			"inputs": [
				{
					"internalType": "string",
					"name": "title",
					"type": "string"
				},
				{
					"internalType": "uint256",
					"name": "vote_id",
					"type": "uint256"
				},
				{
					"internalType": "address[]",
					"name": "candidates",
					"type": "address[]"
				},
				{
					"internalType": "uint256",
					"name": "vote_duration",
					"type": "uint256"
				}
			],
			"name": "new_vote",
			"outputs": [
				{
					"internalType": "bool",
					"name": "",
					"type": "bool"
				}
			],
			"stateMutability": "nonpayable",
			"type": "function"
		},
		{
			"inputs": [
				{
					"internalType": "uint256",
					"name": "vote_id",
					"type": "uint256"
				},
				{
					"internalType": "string",
					"name": "publickey",
					"type": "string"
				}
			],
			"name": "set_publickey",
			"outputs": [],
			"stateMutability": "nonpayable",
			"type": "function"
		},
		{
			"inputs": [
				{
					"internalType": "uint256",
					"name": "vote_id",
					"type": "uint256"
				},
				{
					"internalType": "string[]",
					"name": "ver_result",
					"type": "string[]"
				},
				{
					"internalType": "address",
					"name": "candidate",
					"type": "address"
				}
			],
			"name": "set_result",
			"outputs": [],
			"stateMutability": "nonpayable",
			"type": "function"
		},
		{
			"inputs": [
				{
					"internalType": "address[]",
					"name": "voters",
					"type": "address[]"
				},
				{
					"internalType": "uint256[]",
					"name": "user_id",
					"type": "uint256[]"
				},
				{
					"internalType": "uint256",
					"name": "vote_id",
					"type": "uint256"
				}
			],
			"name": "set_voters",
			"outputs": [],
			"stateMutability": "nonpayable",
			"type": "function"
		},
		{
			"inputs": [
				{
					"internalType": "uint256",
					"name": "vote_id",
					"type": "uint256"
				},
				{
					"internalType": "string",
					"name": "esecret",
					"type": "string"
				}
			],
			"name": "upload_esecret",
			"outputs": [],
			"stateMutability": "nonpayable",
			"type": "function"
		},
		{
			"inputs": [
				{
					"internalType": "string",
					"name": "ballot",
					"type": "string"
				},
				{
					"internalType": "uint256",
					"name": "vote_id",
					"type": "uint256"
				},
				{
					"internalType": "uint256",
					"name": "voter_id",
					"type": "uint256"
				}
			],
			"name": "voting",
			"outputs": [],
			"stateMutability": "nonpayable",
			"type": "function"
		},
		{
			"inputs": [
				{
					"internalType": "uint256",
					"name": "vote_id",
					"type": "uint256"
				}
			],
			"name": "voting_end",
			"outputs": [],
			"stateMutability": "nonpayable",
			"type": "function"
		},
		{
			"inputs": [
				{
					"internalType": "uint256",
					"name": "vote_id",
					"type": "uint256"
				}
			],
			"name": "voting_start",
			"outputs": [],
			"stateMutability": "nonpayable",
			"type": "function"
		}
	]
}