{
	"Vote_1.sol": {
		"Vote": {
			"abi": [
				{
					"inputs": [],
					"stateMutability": "nonpayable",
					"type": "constructor"
				},
				{
					"anonymous": false,
					"inputs": [
						{
							"indexed": false,
							"internalType": "uint256",
							"name": "end_time",
							"type": "uint256"
						}
					],
					"name": "Vote_end",
					"type": "event"
				},
				{
					"anonymous": false,
					"inputs": [
						{
							"indexed": false,
							"internalType": "uint256",
							"name": "start_time",
							"type": "uint256"
						}
					],
					"name": "Vote_start",
					"type": "event"
				},
				{
					"anonymous": false,
					"inputs": [
						{
							"indexed": false,
							"internalType": "address",
							"name": "voter",
							"type": "address"
						},
						{
							"indexed": false,
							"internalType": "uint256",
							"name": "id",
							"type": "uint256"
						}
					],
					"name": "Voter_set",
					"type": "event"
				},
				{
					"anonymous": false,
					"inputs": [
						{
							"indexed": false,
							"internalType": "address",
							"name": "voter",
							"type": "address"
						}
					],
					"name": "Voting_complete",
					"type": "event"
				},
				{
					"inputs": [
						{
							"internalType": "address",
							"name": "voter",
							"type": "address"
						},
						{
							"internalType": "uint256",
							"name": "proposal_id",
							"type": "uint256"
						}
					],
					"name": "get_ballot",
					"outputs": [
						{
							"internalType": "bytes32",
							"name": "",
							"type": "bytes32"
						}
					],
					"stateMutability": "view",
					"type": "function"
				},
				{
					"inputs": [
						{
							"internalType": "uint256",
							"name": "proposal_id",
							"type": "uint256"
						}
					],
					"name": "new_proposal",
					"outputs": [],
					"stateMutability": "nonpayable",
					"type": "function"
				},
				{
					"inputs": [
						{
							"internalType": "address[]",
							"name": "candidates",
							"type": "address[]"
						},
						{
							"internalType": "uint256",
							"name": "proposal_id",
							"type": "uint256"
						}
					],
					"name": "set_candidates",
					"outputs": [],
					"stateMutability": "nonpayable",
					"type": "function"
				},
				{
					"inputs": [
						{
							"internalType": "uint256",
							"name": "duration",
							"type": "uint256"
						},
						{
							"internalType": "uint256",
							"name": "proposal_id",
							"type": "uint256"
						}
					],
					"name": "set_duration",
					"outputs": [],
					"stateMutability": "nonpayable",
					"type": "function"
				},
				{
					"inputs": [
						{
							"internalType": "address[]",
							"name": "voters",
							"type": "address[]"
						},
						{
							"internalType": "uint256",
							"name": "proposal_id",
							"type": "uint256"
						}
					],
					"name": "set_voters",
					"outputs": [],
					"stateMutability": "nonpayable",
					"type": "function"
				},
				{
					"inputs": [
						{
							"internalType": "bytes32",
							"name": "ballot",
							"type": "bytes32"
						},
						{
							"internalType": "uint256",
							"name": "proposal_id",
							"type": "uint256"
						},
						{
							"internalType": "uint256",
							"name": "voter_id",
							"type": "uint256"
						}
					],
					"name": "voting",
					"outputs": [],
					"stateMutability": "nonpayable",
					"type": "function"
				},
				{
					"inputs": [
						{
							"internalType": "uint256",
							"name": "proposal_id",
							"type": "uint256"
						}
					],
					"name": "voting_end",
					"outputs": [],
					"stateMutability": "nonpayable",
					"type": "function"
				},
				{
					"inputs": [
						{
							"internalType": "uint256",
							"name": "proposal_id",
							"type": "uint256"
						}
					],
					"name": "voting_start",
					"outputs": [],
					"stateMutability": "nonpayable",
					"type": "function"
				}
			],
			"devdoc": {
				"kind": "dev",
				"methods": {},
				"version": 1
			},
			"evm": {
				"assembly": "    /* \"Vote_1.sol\":66:3194  contract Vote{... */\n  mstore(0x40, 0x80)\n    /* \"Vote_1.sol\":116:175  constructor(){... */\n  callvalue\n  dup1\n  iszero\n  tag_1\n  jumpi\n  0x00\n  dup1\n  revert\ntag_1:\n  pop\n    /* \"Vote_1.sol\":157:167  msg.sender */\n  caller\n    /* \"Vote_1.sol\":139:154  _constractowner */\n  0x00\n  dup1\n    /* \"Vote_1.sol\":139:167  _constractowner = msg.sender */\n  0x0100\n  exp\n  dup2\n  sload\n  dup2\n  0xffffffffffffffffffffffffffffffffffffffff\n  mul\n  not\n  and\n  swap1\n  dup4\n  0xffffffffffffffffffffffffffffffffffffffff\n  and\n  mul\n  or\n  swap1\n  sstore\n  pop\n    /* \"Vote_1.sol\":66:3194  contract Vote{... */\n  dataSize(sub_0)\n  dup1\n  dataOffset(sub_0)\n  0x00\n  codecopy\n  0x00\n  return\nstop\n\nsub_0: assembly {\n        /* \"Vote_1.sol\":66:3194  contract Vote{... */\n      mstore(0x40, 0x80)\n      callvalue\n      dup1\n      iszero\n      tag_1\n      jumpi\n      0x00\n      dup1\n      revert\n    tag_1:\n      pop\n      jumpi(tag_2, lt(calldatasize, 0x04))\n      shr(0xe0, calldataload(0x00))\n      dup1\n      0xd6f937e5\n      gt\n      tag_11\n      jumpi\n      dup1\n      0xd6f937e5\n      eq\n      tag_7\n      jumpi\n      dup1\n      0xe28ee120\n      eq\n      tag_8\n      jumpi\n      dup1\n      0xfb5babd8\n      eq\n      tag_9\n      jumpi\n      dup1\n      0xfea9b717\n      eq\n      tag_10\n      jumpi\n      jump(tag_2)\n    tag_11:\n      dup1\n      0x50fae1d2\n      eq\n      tag_3\n      jumpi\n      dup1\n      0x8aa430af\n      eq\n      tag_4\n      jumpi\n      dup1\n      0xa4db23fc\n      eq\n      tag_5\n      jumpi\n      dup1\n      0xd0350b59\n      eq\n      tag_6\n      jumpi\n    tag_2:\n      0x00\n      dup1\n      revert\n        /* \"Vote_1.sol\":2789:2931  function set_candidates(address [] memory candidates, uint proposal_id) public {... */\n    tag_3:\n      tag_12\n      0x04\n      dup1\n      calldatasize\n      sub\n      dup2\n      add\n      swap1\n      tag_13\n      swap2\n      swap1\n      tag_14\n      jump\t// in\n    tag_13:\n      tag_15\n      jump\t// in\n    tag_12:\n      stop\n        /* \"Vote_1.sol\":2185:2567  function voting_end(uint proposal_id) public {... */\n    tag_4:\n      tag_16\n      0x04\n      dup1\n      calldatasize\n      sub\n      dup2\n      add\n      swap1\n      tag_17\n      swap2\n      swap1\n      tag_18\n      jump\t// in\n    tag_17:\n      tag_19\n      jump\t// in\n    tag_16:\n      stop\n        /* \"Vote_1.sol\":1833:2179  function voting_start(uint proposal_id) public {... */\n    tag_5:\n      tag_20\n      0x04\n      dup1\n      calldatasize\n      sub\n      dup2\n      add\n      swap1\n      tag_21\n      swap2\n      swap1\n      tag_18\n      jump\t// in\n    tag_21:\n      tag_22\n      jump\t// in\n    tag_20:\n      stop\n        /* \"Vote_1.sol\":1454:1827  function voting(bytes32 ballot, uint proposal_id, uint voter_id) public{... */\n    tag_6:\n      tag_23\n      0x04\n      dup1\n      calldatasize\n      sub\n      dup2\n      add\n      swap1\n      tag_24\n      swap2\n      swap1\n      tag_25\n      jump\t// in\n    tag_24:\n      tag_26\n      jump\t// in\n    tag_23:\n      stop\n        /* \"Vote_1.sol\":2573:2783  function get_ballot(address voter, uint proposal_id) public view returns(bytes32){... */\n    tag_7:\n      tag_27\n      0x04\n      dup1\n      calldatasize\n      sub\n      dup2\n      add\n      swap1\n      tag_28\n      swap2\n      swap1\n      tag_29\n      jump\t// in\n    tag_28:\n      tag_30\n      jump\t// in\n    tag_27:\n      mload(0x40)\n      tag_31\n      swap2\n      swap1\n      tag_32\n      jump\t// in\n    tag_31:\n      mload(0x40)\n      dup1\n      swap2\n      sub\n      swap1\n      return\n        /* \"Vote_1.sol\":763:990  function new_proposal(uint proposal_id) public {... */\n    tag_8:\n      tag_33\n      0x04\n      dup1\n      calldatasize\n      sub\n      dup2\n      add\n      swap1\n      tag_34\n      swap2\n      swap1\n      tag_18\n      jump\t// in\n    tag_34:\n      tag_35\n      jump\t// in\n    tag_33:\n      stop\n        /* \"Vote_1.sol\":2939:3191  function set_voters(address [] memory voters, uint proposal_id) public {... */\n    tag_9:\n      tag_36\n      0x04\n      dup1\n      calldatasize\n      sub\n      dup2\n      add\n      swap1\n      tag_37\n      swap2\n      swap1\n      tag_14\n      jump\t// in\n    tag_37:\n      tag_38\n      jump\t// in\n    tag_36:\n      stop\n        /* \"Vote_1.sol\":996:1181  function set_duration(uint duration, uint proposal_id) public {... */\n    tag_10:\n      tag_39\n      0x04\n      dup1\n      calldatasize\n      sub\n      dup2\n      add\n      swap1\n      tag_40\n      swap2\n      swap1\n      tag_41\n      jump\t// in\n    tag_40:\n      tag_42\n      jump\t// in\n    tag_39:\n      stop\n        /* \"Vote_1.sol\":2789:2931  function set_candidates(address [] memory candidates, uint proposal_id) public {... */\n    tag_15:\n        /* \"Vote_1.sol\":2914:2924  candidates */\n      dup2\n        /* \"Vote_1.sol\":2878:2887  _proposal */\n      0x01\n        /* \"Vote_1.sol\":2878:2900  _proposal[proposal_id] */\n      0x00\n        /* \"Vote_1.sol\":2888:2899  proposal_id */\n      dup4\n        /* \"Vote_1.sol\":2878:2900  _proposal[proposal_id] */\n      dup2\n      mstore\n      0x20\n      add\n      swap1\n      dup2\n      mstore\n      0x20\n      add\n      0x00\n      keccak256\n        /* \"Vote_1.sol\":2878:2911  _proposal[proposal_id]._candidate */\n      0x07\n      add\n        /* \"Vote_1.sol\":2878:2924  _proposal[proposal_id]._candidate = candidates */\n      swap1\n      dup1\n      mload\n      swap1\n      0x20\n      add\n      swap1\n      tag_44\n      swap3\n      swap2\n      swap1\n      tag_45\n      jump\t// in\n    tag_44:\n      pop\n        /* \"Vote_1.sol\":2789:2931  function set_candidates(address [] memory candidates, uint proposal_id) public {... */\n      pop\n      pop\n      jump\t// out\n        /* \"Vote_1.sol\":2185:2567  function voting_end(uint proposal_id) public {... */\n    tag_19:\n        /* \"Vote_1.sol\":2287:2288  1 */\n      0x01\n        /* \"Vote_1.sol\":2248:2257  _proposal */\n      dup1\n        /* \"Vote_1.sol\":2248:2270  _proposal[proposal_id] */\n      0x00\n        /* \"Vote_1.sol\":2258:2269  proposal_id */\n      dup4\n        /* \"Vote_1.sol\":2248:2270  _proposal[proposal_id] */\n      dup2\n      mstore\n      0x20\n      add\n      swap1\n      dup2\n      mstore\n      0x20\n      add\n      0x00\n      keccak256\n        /* \"Vote_1.sol\":2248:2285  _proposal[proposal_id]._voting_status */\n      0x01\n      add\n      sload\n        /* \"Vote_1.sol\":2248:2288  _proposal[proposal_id]._voting_status==1 */\n      eq\n        /* \"Vote_1.sol\":2240:2289  require(_proposal[proposal_id]._voting_status==1) */\n      tag_47\n      jumpi\n      0x00\n      dup1\n      revert\n    tag_47:\n        /* \"Vote_1.sol\":2319:2334  _constractowner */\n      0x00\n      dup1\n      sload\n      swap1\n      0x0100\n      exp\n      swap1\n      div\n      0xffffffffffffffffffffffffffffffffffffffff\n      and\n        /* \"Vote_1.sol\":2307:2334  msg.sender==_constractowner */\n      0xffffffffffffffffffffffffffffffffffffffff\n      and\n        /* \"Vote_1.sol\":2307:2317  msg.sender */\n      caller\n        /* \"Vote_1.sol\":2307:2334  msg.sender==_constractowner */\n      0xffffffffffffffffffffffffffffffffffffffff\n      and\n      eq\n        /* \"Vote_1.sol\":2299:2352  require(msg.sender==_constractowner, \"No Permission\") */\n      tag_48\n      jumpi\n      mload(0x40)\n      0x08c379a000000000000000000000000000000000000000000000000000000000\n      dup2\n      mstore\n      0x04\n      add\n      tag_49\n      swap1\n      tag_50\n      jump\t// in\n    tag_49:\n      mload(0x40)\n      dup1\n      swap2\n      sub\n      swap1\n      revert\n    tag_48:\n        /* \"Vote_1.sol\":2420:2429  _proposal */\n      0x01\n        /* \"Vote_1.sol\":2420:2442  _proposal[proposal_id] */\n      0x00\n        /* \"Vote_1.sol\":2430:2441  proposal_id */\n      dup3\n        /* \"Vote_1.sol\":2420:2442  _proposal[proposal_id] */\n      dup2\n      mstore\n      0x20\n      add\n      swap1\n      dup2\n      mstore\n      0x20\n      add\n      0x00\n      keccak256\n        /* \"Vote_1.sol\":2420:2452  _proposal[proposal_id]._duration */\n      0x03\n      add\n      sload\n        /* \"Vote_1.sol\":2404:2419  block.timestamp */\n      timestamp\n        /* \"Vote_1.sol\":2370:2379  _proposal */\n      0x01\n        /* \"Vote_1.sol\":2370:2392  _proposal[proposal_id] */\n      0x00\n        /* \"Vote_1.sol\":2380:2391  proposal_id */\n      dup5\n        /* \"Vote_1.sol\":2370:2392  _proposal[proposal_id] */\n      dup2\n      mstore\n      0x20\n      add\n      swap1\n      dup2\n      mstore\n      0x20\n      add\n      0x00\n      keccak256\n        /* \"Vote_1.sol\":2370:2403  _proposal[proposal_id]._timestamp */\n      0x02\n      add\n      sload\n        /* \"Vote_1.sol\":2370:2419  _proposal[proposal_id]._timestamp-block.timestamp */\n      tag_51\n      swap2\n      swap1\n      tag_52\n      jump\t// in\n    tag_51:\n        /* \"Vote_1.sol\":2370:2452  _proposal[proposal_id]._timestamp-block.timestamp>_proposal[proposal_id]._duration */\n      gt\n        /* \"Vote_1.sol\":2362:2453  require(_proposal[proposal_id]._timestamp-block.timestamp>_proposal[proposal_id]._duration) */\n      tag_53\n      jumpi\n      0x00\n      dup1\n      revert\n    tag_53:\n        /* \"Vote_1.sol\":2463:2472  _proposal */\n      0x01\n        /* \"Vote_1.sol\":2463:2485  _proposal[proposal_id] */\n      0x00\n        /* \"Vote_1.sol\":2473:2484  proposal_id */\n      dup3\n        /* \"Vote_1.sol\":2463:2485  _proposal[proposal_id] */\n      dup2\n      mstore\n      0x20\n      add\n      swap1\n      dup2\n      mstore\n      0x20\n      add\n      0x00\n      keccak256\n        /* \"Vote_1.sol\":2463:2500  _proposal[proposal_id]._voting_status */\n      0x01\n      add\n      0x00\n        /* \"Vote_1.sol\":2463:2502  _proposal[proposal_id]._voting_status++ */\n      dup2\n      sload\n      dup1\n      swap3\n      swap2\n      swap1\n      tag_54\n      swap1\n      tag_55\n      jump\t// in\n    tag_54:\n      swap2\n      swap1\n      pop\n      sstore\n      pop\n        /* \"Vote_1.sol\":2517:2560  Vote_end(_proposal[proposal_id]._timestamp) */\n      0x13ab142ea11faae224e222f624b4c09d6484b062ceef1149fa6c3811f7bb9a7a\n        /* \"Vote_1.sol\":2526:2535  _proposal */\n      0x01\n        /* \"Vote_1.sol\":2526:2548  _proposal[proposal_id] */\n      0x00\n        /* \"Vote_1.sol\":2536:2547  proposal_id */\n      dup4\n        /* \"Vote_1.sol\":2526:2548  _proposal[proposal_id] */\n      dup2\n      mstore\n      0x20\n      add\n      swap1\n      dup2\n      mstore\n      0x20\n      add\n      0x00\n      keccak256\n        /* \"Vote_1.sol\":2526:2559  _proposal[proposal_id]._timestamp */\n      0x02\n      add\n      sload\n        /* \"Vote_1.sol\":2517:2560  Vote_end(_proposal[proposal_id]._timestamp) */\n      mload(0x40)\n      tag_56\n      swap2\n      swap1\n      tag_57\n      jump\t// in\n    tag_56:\n      mload(0x40)\n      dup1\n      swap2\n      sub\n      swap1\n      log1\n        /* \"Vote_1.sol\":2185:2567  function voting_end(uint proposal_id) public {... */\n      pop\n      jump\t// out\n        /* \"Vote_1.sol\":1833:2179  function voting_start(uint proposal_id) public {... */\n    tag_22:\n        /* \"Vote_1.sol\":1936:1937  1 */\n      0x01\n        /* \"Vote_1.sol\":1898:1907  _proposal */\n      dup1\n        /* \"Vote_1.sol\":1898:1920  _proposal[proposal_id] */\n      0x00\n        /* \"Vote_1.sol\":1908:1919  proposal_id */\n      dup4\n        /* \"Vote_1.sol\":1898:1920  _proposal[proposal_id] */\n      dup2\n      mstore\n      0x20\n      add\n      swap1\n      dup2\n      mstore\n      0x20\n      add\n      0x00\n      keccak256\n        /* \"Vote_1.sol\":1898:1935  _proposal[proposal_id]._voting_status */\n      0x01\n      add\n      sload\n        /* \"Vote_1.sol\":1898:1937  _proposal[proposal_id]._voting_status<1 */\n      lt\n        /* \"Vote_1.sol\":1890:1938  require(_proposal[proposal_id]._voting_status<1) */\n      tag_59\n      jumpi\n      0x00\n      dup1\n      revert\n    tag_59:\n        /* \"Vote_1.sol\":1968:1983  _constractowner */\n      0x00\n      dup1\n      sload\n      swap1\n      0x0100\n      exp\n      swap1\n      div\n      0xffffffffffffffffffffffffffffffffffffffff\n      and\n        /* \"Vote_1.sol\":1956:1983  msg.sender==_constractowner */\n      0xffffffffffffffffffffffffffffffffffffffff\n      and\n        /* \"Vote_1.sol\":1956:1966  msg.sender */\n      caller\n        /* \"Vote_1.sol\":1956:1983  msg.sender==_constractowner */\n      0xffffffffffffffffffffffffffffffffffffffff\n      and\n      eq\n        /* \"Vote_1.sol\":1948:2001  require(msg.sender==_constractowner, \"No Permission\") */\n      tag_60\n      jumpi\n      mload(0x40)\n      0x08c379a000000000000000000000000000000000000000000000000000000000\n      dup2\n      mstore\n      0x04\n      add\n      tag_61\n      swap1\n      tag_50\n      jump\t// in\n    tag_61:\n      mload(0x40)\n      dup1\n      swap2\n      sub\n      swap1\n      revert\n    tag_60:\n        /* \"Vote_1.sol\":2011:2020  _proposal */\n      0x01\n        /* \"Vote_1.sol\":2011:2033  _proposal[proposal_id] */\n      0x00\n        /* \"Vote_1.sol\":2021:2032  proposal_id */\n      dup3\n        /* \"Vote_1.sol\":2011:2033  _proposal[proposal_id] */\n      dup2\n      mstore\n      0x20\n      add\n      swap1\n      dup2\n      mstore\n      0x20\n      add\n      0x00\n      keccak256\n        /* \"Vote_1.sol\":2011:2048  _proposal[proposal_id]._voting_status */\n      0x01\n      add\n      0x00\n        /* \"Vote_1.sol\":2011:2051  _proposal[proposal_id]._voting_status ++ */\n      dup2\n      sload\n      dup1\n      swap3\n      swap2\n      swap1\n      tag_62\n      swap1\n      tag_55\n      jump\t// in\n    tag_62:\n      swap2\n      swap1\n      pop\n      sstore\n      pop\n        /* \"Vote_1.sol\":2097:2112  block.timestamp */\n      timestamp\n        /* \"Vote_1.sol\":2061:2070  _proposal */\n      0x01\n        /* \"Vote_1.sol\":2061:2083  _proposal[proposal_id] */\n      0x00\n        /* \"Vote_1.sol\":2071:2082  proposal_id */\n      dup4\n        /* \"Vote_1.sol\":2061:2083  _proposal[proposal_id] */\n      dup2\n      mstore\n      0x20\n      add\n      swap1\n      dup2\n      mstore\n      0x20\n      add\n      0x00\n      keccak256\n        /* \"Vote_1.sol\":2061:2094  _proposal[proposal_id]._timestamp */\n      0x02\n      add\n        /* \"Vote_1.sol\":2061:2112  _proposal[proposal_id]._timestamp = block.timestamp */\n      dup2\n      swap1\n      sstore\n      pop\n        /* \"Vote_1.sol\":2127:2172  Vote_start(_proposal[proposal_id]._timestamp) */\n      0xe65838d33ea2cb78d9b73133801f9f2e0b7ba37edfa34983b3209d4309c68d01\n        /* \"Vote_1.sol\":2138:2147  _proposal */\n      0x01\n        /* \"Vote_1.sol\":2138:2160  _proposal[proposal_id] */\n      0x00\n        /* \"Vote_1.sol\":2148:2159  proposal_id */\n      dup4\n        /* \"Vote_1.sol\":2138:2160  _proposal[proposal_id] */\n      dup2\n      mstore\n      0x20\n      add\n      swap1\n      dup2\n      mstore\n      0x20\n      add\n      0x00\n      keccak256\n        /* \"Vote_1.sol\":2138:2171  _proposal[proposal_id]._timestamp */\n      0x02\n      add\n      sload\n        /* \"Vote_1.sol\":2127:2172  Vote_start(_proposal[proposal_id]._timestamp) */\n      mload(0x40)\n      tag_63\n      swap2\n      swap1\n      tag_57\n      jump\t// in\n    tag_63:\n      mload(0x40)\n      dup1\n      swap2\n      sub\n      swap1\n      log1\n        /* \"Vote_1.sol\":1833:2179  function voting_start(uint proposal_id) public {... */\n      pop\n      jump\t// out\n        /* \"Vote_1.sol\":1454:1827  function voting(bytes32 ballot, uint proposal_id, uint voter_id) public{... */\n    tag_26:\n        /* \"Vote_1.sol\":1582:1583  1 */\n      0x01\n        /* \"Vote_1.sol\":1543:1552  _proposal */\n      dup1\n        /* \"Vote_1.sol\":1543:1565  _proposal[proposal_id] */\n      0x00\n        /* \"Vote_1.sol\":1553:1564  proposal_id */\n      dup5\n        /* \"Vote_1.sol\":1543:1565  _proposal[proposal_id] */\n      dup2\n      mstore\n      0x20\n      add\n      swap1\n      dup2\n      mstore\n      0x20\n      add\n      0x00\n      keccak256\n        /* \"Vote_1.sol\":1543:1580  _proposal[proposal_id]._voting_status */\n      0x01\n      add\n      sload\n        /* \"Vote_1.sol\":1543:1583  _proposal[proposal_id]._voting_status==1 */\n      eq\n        /* \"Vote_1.sol\":1535:1584  require(_proposal[proposal_id]._voting_status==1) */\n      tag_65\n      jumpi\n      0x00\n      dup1\n      revert\n    tag_65:\n        /* \"Vote_1.sol\":1614:1623  _proposal */\n      0x01\n        /* \"Vote_1.sol\":1614:1636  _proposal[proposal_id] */\n      0x00\n        /* \"Vote_1.sol\":1624:1635  proposal_id */\n      dup4\n        /* \"Vote_1.sol\":1614:1636  _proposal[proposal_id] */\n      dup2\n      mstore\n      0x20\n      add\n      swap1\n      dup2\n      mstore\n      0x20\n      add\n      0x00\n      keccak256\n        /* \"Vote_1.sol\":1614:1647  _proposal[proposal_id].voter_list */\n      0x08\n      add\n        /* \"Vote_1.sol\":1614:1657  _proposal[proposal_id].voter_list[voter_id] */\n      0x00\n        /* \"Vote_1.sol\":1648:1656  voter_id */\n      dup3\n        /* \"Vote_1.sol\":1614:1657  _proposal[proposal_id].voter_list[voter_id] */\n      dup2\n      mstore\n      0x20\n      add\n      swap1\n      dup2\n      mstore\n      0x20\n      add\n      0x00\n      keccak256\n      0x00\n      swap1\n      sload\n      swap1\n      0x0100\n      exp\n      swap1\n      div\n      0xffffffffffffffffffffffffffffffffffffffff\n      and\n        /* \"Vote_1.sol\":1602:1657  msg.sender==_proposal[proposal_id].voter_list[voter_id] */\n      0xffffffffffffffffffffffffffffffffffffffff\n      and\n        /* \"Vote_1.sol\":1602:1612  msg.sender */\n      caller\n        /* \"Vote_1.sol\":1602:1657  msg.sender==_proposal[proposal_id].voter_list[voter_id] */\n      0xffffffffffffffffffffffffffffffffffffffff\n      and\n      eq\n        /* \"Vote_1.sol\":1594:1671  require(msg.sender==_proposal[proposal_id].voter_list[voter_id], \"Wrong key\") */\n      tag_66\n      jumpi\n      mload(0x40)\n      0x08c379a000000000000000000000000000000000000000000000000000000000\n      dup2\n      mstore\n      0x04\n      add\n      tag_67\n      swap1\n      tag_68\n      jump\t// in\n    tag_67:\n      mload(0x40)\n      dup1\n      swap2\n      sub\n      swap1\n      revert\n    tag_66:\n        /* \"Vote_1.sol\":1731:1737  ballot */\n      dup3\n        /* \"Vote_1.sol\":1681:1690  _proposal */\n      0x01\n        /* \"Vote_1.sol\":1681:1703  _proposal[proposal_id] */\n      0x00\n        /* \"Vote_1.sol\":1691:1702  proposal_id */\n      dup5\n        /* \"Vote_1.sol\":1681:1703  _proposal[proposal_id] */\n      dup2\n      mstore\n      0x20\n      add\n      swap1\n      dup2\n      mstore\n      0x20\n      add\n      0x00\n      keccak256\n        /* \"Vote_1.sol\":1681:1716  _proposal[proposal_id].voter_ballot */\n      0x09\n      add\n        /* \"Vote_1.sol\":1681:1728  _proposal[proposal_id].voter_ballot[msg.sender] */\n      0x00\n        /* \"Vote_1.sol\":1717:1727  msg.sender */\n      caller\n        /* \"Vote_1.sol\":1681:1728  _proposal[proposal_id].voter_ballot[msg.sender] */\n      0xffffffffffffffffffffffffffffffffffffffff\n      and\n      0xffffffffffffffffffffffffffffffffffffffff\n      and\n      dup2\n      mstore\n      0x20\n      add\n      swap1\n      dup2\n      mstore\n      0x20\n      add\n      0x00\n      keccak256\n        /* \"Vote_1.sol\":1681:1737  _proposal[proposal_id].voter_ballot[msg.sender] = ballot */\n      dup2\n      swap1\n      sstore\n      pop\n        /* \"Vote_1.sol\":1747:1756  _proposal */\n      0x01\n        /* \"Vote_1.sol\":1747:1769  _proposal[proposal_id] */\n      0x00\n        /* \"Vote_1.sol\":1757:1768  proposal_id */\n      dup4\n        /* \"Vote_1.sol\":1747:1769  _proposal[proposal_id] */\n      dup2\n      mstore\n      0x20\n      add\n      swap1\n      dup2\n      mstore\n      0x20\n      add\n      0x00\n      keccak256\n        /* \"Vote_1.sol\":1747:1776  _proposal[proposal_id]._voted */\n      0x05\n      add\n      0x00\n        /* \"Vote_1.sol\":1747:1778  _proposal[proposal_id]._voted++ */\n      dup2\n      sload\n      dup1\n      swap3\n      swap2\n      swap1\n      tag_69\n      swap1\n      tag_55\n      jump\t// in\n    tag_69:\n      swap2\n      swap1\n      pop\n      sstore\n      pop\n        /* \"Vote_1.sol\":1793:1820  Voting_complete(msg.sender) */\n      0xfa031a8df385ffa120ab85b1ef5f8e5ea3fa0288cf068ba3d05a152d87026a09\n        /* \"Vote_1.sol\":1809:1819  msg.sender */\n      caller\n        /* \"Vote_1.sol\":1793:1820  Voting_complete(msg.sender) */\n      mload(0x40)\n      tag_70\n      swap2\n      swap1\n      tag_71\n      jump\t// in\n    tag_70:\n      mload(0x40)\n      dup1\n      swap2\n      sub\n      swap1\n      log1\n        /* \"Vote_1.sol\":1454:1827  function voting(bytes32 ballot, uint proposal_id, uint voter_id) public{... */\n      pop\n      pop\n      pop\n      jump\t// out\n        /* \"Vote_1.sol\":2573:2783  function get_ballot(address voter, uint proposal_id) public view returns(bytes32){... */\n    tag_30:\n        /* \"Vote_1.sol\":2646:2653  bytes32 */\n      0x00\n        /* \"Vote_1.sol\":2684:2699  _constractowner */\n      dup1\n      0x00\n      swap1\n      sload\n      swap1\n      0x0100\n      exp\n      swap1\n      div\n      0xffffffffffffffffffffffffffffffffffffffff\n      and\n        /* \"Vote_1.sol\":2672:2699  msg.sender==_constractowner */\n      0xffffffffffffffffffffffffffffffffffffffff\n      and\n        /* \"Vote_1.sol\":2672:2682  msg.sender */\n      caller\n        /* \"Vote_1.sol\":2672:2699  msg.sender==_constractowner */\n      0xffffffffffffffffffffffffffffffffffffffff\n      and\n      eq\n        /* \"Vote_1.sol\":2664:2717  require(msg.sender==_constractowner, \"No Permission\") */\n      tag_73\n      jumpi\n      mload(0x40)\n      0x08c379a000000000000000000000000000000000000000000000000000000000\n      dup2\n      mstore\n      0x04\n      add\n      tag_74\n      swap1\n      tag_50\n      jump\t// in\n    tag_74:\n      mload(0x40)\n      dup1\n      swap2\n      sub\n      swap1\n      revert\n    tag_73:\n        /* \"Vote_1.sol\":2734:2743  _proposal */\n      0x01\n        /* \"Vote_1.sol\":2734:2756  _proposal[proposal_id] */\n      0x00\n        /* \"Vote_1.sol\":2744:2755  proposal_id */\n      dup4\n        /* \"Vote_1.sol\":2734:2756  _proposal[proposal_id] */\n      dup2\n      mstore\n      0x20\n      add\n      swap1\n      dup2\n      mstore\n      0x20\n      add\n      0x00\n      keccak256\n        /* \"Vote_1.sol\":2734:2769  _proposal[proposal_id].voter_ballot */\n      0x09\n      add\n        /* \"Vote_1.sol\":2734:2776  _proposal[proposal_id].voter_ballot[voter] */\n      0x00\n        /* \"Vote_1.sol\":2770:2775  voter */\n      dup5\n        /* \"Vote_1.sol\":2734:2776  _proposal[proposal_id].voter_ballot[voter] */\n      0xffffffffffffffffffffffffffffffffffffffff\n      and\n      0xffffffffffffffffffffffffffffffffffffffff\n      and\n      dup2\n      mstore\n      0x20\n      add\n      swap1\n      dup2\n      mstore\n      0x20\n      add\n      0x00\n      keccak256\n      sload\n        /* \"Vote_1.sol\":2727:2776  return _proposal[proposal_id].voter_ballot[voter] */\n      swap1\n      pop\n        /* \"Vote_1.sol\":2573:2783  function get_ballot(address voter, uint proposal_id) public view returns(bytes32){... */\n      swap3\n      swap2\n      pop\n      pop\n      jump\t// out\n        /* \"Vote_1.sol\":763:990  function new_proposal(uint proposal_id) public {... */\n    tag_35:\n        /* \"Vote_1.sol\":840:855  _constractowner */\n      0x00\n      dup1\n      sload\n      swap1\n      0x0100\n      exp\n      swap1\n      div\n      0xffffffffffffffffffffffffffffffffffffffff\n      and\n        /* \"Vote_1.sol\":828:855  msg.sender==_constractowner */\n      0xffffffffffffffffffffffffffffffffffffffff\n      and\n        /* \"Vote_1.sol\":828:838  msg.sender */\n      caller\n        /* \"Vote_1.sol\":828:855  msg.sender==_constractowner */\n      0xffffffffffffffffffffffffffffffffffffffff\n      and\n      eq\n        /* \"Vote_1.sol\":820:873  require(msg.sender==_constractowner, \"No Permission\") */\n      tag_76\n      jumpi\n      mload(0x40)\n      0x08c379a000000000000000000000000000000000000000000000000000000000\n      dup2\n      mstore\n      0x04\n      add\n      tag_77\n      swap1\n      tag_50\n      jump\t// in\n    tag_77:\n      mload(0x40)\n      dup1\n      swap2\n      sub\n      swap1\n      revert\n    tag_76:\n        /* \"Vote_1.sol\":921:932  proposal_id */\n      dup1\n        /* \"Vote_1.sol\":883:892  _proposal */\n      0x01\n        /* \"Vote_1.sol\":883:905  _proposal[proposal_id] */\n      0x00\n        /* \"Vote_1.sol\":893:904  proposal_id */\n      dup4\n        /* \"Vote_1.sol\":883:905  _proposal[proposal_id] */\n      dup2\n      mstore\n      0x20\n      add\n      swap1\n      dup2\n      mstore\n      0x20\n      add\n      0x00\n      keccak256\n        /* \"Vote_1.sol\":883:918  _proposal[proposal_id]._proposal_id */\n      0x00\n      add\n        /* \"Vote_1.sol\":883:932  _proposal[proposal_id]._proposal_id = proposal_id */\n      dup2\n      swap1\n      sstore\n      pop\n        /* \"Vote_1.sol\":982:983  0 */\n      0x00\n        /* \"Vote_1.sol\":942:951  _proposal */\n      0x01\n        /* \"Vote_1.sol\":942:964  _proposal[proposal_id] */\n      0x00\n        /* \"Vote_1.sol\":952:963  proposal_id */\n      dup4\n        /* \"Vote_1.sol\":942:964  _proposal[proposal_id] */\n      dup2\n      mstore\n      0x20\n      add\n      swap1\n      dup2\n      mstore\n      0x20\n      add\n      0x00\n      keccak256\n        /* \"Vote_1.sol\":942:979  _proposal[proposal_id]._voting_status */\n      0x01\n      add\n        /* \"Vote_1.sol\":942:983  _proposal[proposal_id]._voting_status = 0 */\n      dup2\n      swap1\n      sstore\n      pop\n        /* \"Vote_1.sol\":763:990  function new_proposal(uint proposal_id) public {... */\n      pop\n      jump\t// out\n        /* \"Vote_1.sol\":2939:3191  function set_voters(address [] memory voters, uint proposal_id) public {... */\n    tag_38:\n        /* \"Vote_1.sol\":3040:3055  _constractowner */\n      0x00\n      dup1\n      sload\n      swap1\n      0x0100\n      exp\n      swap1\n      div\n      0xffffffffffffffffffffffffffffffffffffffff\n      and\n        /* \"Vote_1.sol\":3028:3055  msg.sender==_constractowner */\n      0xffffffffffffffffffffffffffffffffffffffff\n      and\n        /* \"Vote_1.sol\":3028:3038  msg.sender */\n      caller\n        /* \"Vote_1.sol\":3028:3055  msg.sender==_constractowner */\n      0xffffffffffffffffffffffffffffffffffffffff\n      and\n      eq\n        /* \"Vote_1.sol\":3020:3073  require(msg.sender==_constractowner, \"No Permission\") */\n      tag_79\n      jumpi\n      mload(0x40)\n      0x08c379a000000000000000000000000000000000000000000000000000000000\n      dup2\n      mstore\n      0x04\n      add\n      tag_80\n      swap1\n      tag_50\n      jump\t// in\n    tag_80:\n      mload(0x40)\n      dup1\n      swap2\n      sub\n      swap1\n      revert\n    tag_79:\n        /* \"Vote_1.sol\":3087:3093  uint i */\n      0x00\n        /* \"Vote_1.sol\":3083:3185  for(uint i = 0; i < voters.length; i++){... */\n    tag_81:\n        /* \"Vote_1.sol\":3103:3109  voters */\n      dup3\n        /* \"Vote_1.sol\":3103:3116  voters.length */\n      mload\n        /* \"Vote_1.sol\":3099:3100  i */\n      dup2\n        /* \"Vote_1.sol\":3099:3116  i < voters.length */\n      lt\n        /* \"Vote_1.sol\":3083:3185  for(uint i = 0; i < voters.length; i++){... */\n      iszero\n      tag_82\n      jumpi\n        /* \"Vote_1.sol\":3136:3174  set_voter_list(voters[i], proposal_id) */\n      tag_84\n        /* \"Vote_1.sol\":3151:3157  voters */\n      dup4\n        /* \"Vote_1.sol\":3158:3159  i */\n      dup3\n        /* \"Vote_1.sol\":3151:3160  voters[i] */\n      dup2\n      mload\n      dup2\n      lt\n      tag_85\n      jumpi\n      tag_86\n      tag_87\n      jump\t// in\n    tag_86:\n    tag_85:\n      0x20\n      mul\n      0x20\n      add\n      add\n      mload\n        /* \"Vote_1.sol\":3162:3173  proposal_id */\n      dup4\n        /* \"Vote_1.sol\":3136:3150  set_voter_list */\n      tag_88\n        /* \"Vote_1.sol\":3136:3174  set_voter_list(voters[i], proposal_id) */\n      jump\t// in\n    tag_84:\n        /* \"Vote_1.sol\":3118:3121  i++ */\n      dup1\n      dup1\n      tag_89\n      swap1\n      tag_55\n      jump\t// in\n    tag_89:\n      swap2\n      pop\n      pop\n        /* \"Vote_1.sol\":3083:3185  for(uint i = 0; i < voters.length; i++){... */\n      jump(tag_81)\n    tag_82:\n      pop\n        /* \"Vote_1.sol\":2939:3191  function set_voters(address [] memory voters, uint proposal_id) public {... */\n      pop\n      pop\n      jump\t// out\n        /* \"Vote_1.sol\":996:1181  function set_duration(uint duration, uint proposal_id) public {... */\n    tag_42:\n        /* \"Vote_1.sol\":1088:1103  _constractowner */\n      0x00\n      dup1\n      sload\n      swap1\n      0x0100\n      exp\n      swap1\n      div\n      0xffffffffffffffffffffffffffffffffffffffff\n      and\n        /* \"Vote_1.sol\":1076:1103  msg.sender==_constractowner */\n      0xffffffffffffffffffffffffffffffffffffffff\n      and\n        /* \"Vote_1.sol\":1076:1086  msg.sender */\n      caller\n        /* \"Vote_1.sol\":1076:1103  msg.sender==_constractowner */\n      0xffffffffffffffffffffffffffffffffffffffff\n      and\n      eq\n        /* \"Vote_1.sol\":1068:1121  require(msg.sender==_constractowner, \"No Permission\") */\n      tag_91\n      jumpi\n      mload(0x40)\n      0x08c379a000000000000000000000000000000000000000000000000000000000\n      dup2\n      mstore\n      0x04\n      add\n      tag_92\n      swap1\n      tag_50\n      jump\t// in\n    tag_92:\n      mload(0x40)\n      dup1\n      swap2\n      sub\n      swap1\n      revert\n    tag_91:\n        /* \"Vote_1.sol\":1166:1174  duration */\n      dup2\n        /* \"Vote_1.sol\":1131:1140  _proposal */\n      0x01\n        /* \"Vote_1.sol\":1131:1153  _proposal[proposal_id] */\n      0x00\n        /* \"Vote_1.sol\":1141:1152  proposal_id */\n      dup4\n        /* \"Vote_1.sol\":1131:1153  _proposal[proposal_id] */\n      dup2\n      mstore\n      0x20\n      add\n      swap1\n      dup2\n      mstore\n      0x20\n      add\n      0x00\n      keccak256\n        /* \"Vote_1.sol\":1131:1163  _proposal[proposal_id]._duration */\n      0x03\n      add\n        /* \"Vote_1.sol\":1131:1174  _proposal[proposal_id]._duration = duration */\n      dup2\n      swap1\n      sstore\n      pop\n        /* \"Vote_1.sol\":996:1181  function set_duration(uint duration, uint proposal_id) public {... */\n      pop\n      pop\n      jump\t// out\n        /* \"Vote_1.sol\":1187:1448  function set_voter_list(address voter, uint proposal_id) private {... */\n    tag_88:\n        /* \"Vote_1.sol\":1262:1272  uint count */\n      0x00\n        /* \"Vote_1.sol\":1275:1284  _proposal */\n      0x01\n        /* \"Vote_1.sol\":1275:1297  _proposal[proposal_id] */\n      0x00\n        /* \"Vote_1.sol\":1285:1296  proposal_id */\n      dup4\n        /* \"Vote_1.sol\":1275:1297  _proposal[proposal_id] */\n      dup2\n      mstore\n      0x20\n      add\n      swap1\n      dup2\n      mstore\n      0x20\n      add\n      0x00\n      keccak256\n        /* \"Vote_1.sol\":1275:1304  _proposal[proposal_id]._count */\n      0x04\n      add\n      sload\n        /* \"Vote_1.sol\":1262:1304  uint count = _proposal[proposal_id]._count */\n      swap1\n      pop\n        /* \"Vote_1.sol\":1357:1362  voter */\n      dup3\n        /* \"Vote_1.sol\":1314:1323  _proposal */\n      0x01\n        /* \"Vote_1.sol\":1314:1336  _proposal[proposal_id] */\n      0x00\n        /* \"Vote_1.sol\":1324:1335  proposal_id */\n      dup5\n        /* \"Vote_1.sol\":1314:1336  _proposal[proposal_id] */\n      dup2\n      mstore\n      0x20\n      add\n      swap1\n      dup2\n      mstore\n      0x20\n      add\n      0x00\n      keccak256\n        /* \"Vote_1.sol\":1314:1347  _proposal[proposal_id].voter_list */\n      0x08\n      add\n        /* \"Vote_1.sol\":1314:1354  _proposal[proposal_id].voter_list[count] */\n      0x00\n        /* \"Vote_1.sol\":1348:1353  count */\n      dup4\n        /* \"Vote_1.sol\":1314:1354  _proposal[proposal_id].voter_list[count] */\n      dup2\n      mstore\n      0x20\n      add\n      swap1\n      dup2\n      mstore\n      0x20\n      add\n      0x00\n      keccak256\n      0x00\n        /* \"Vote_1.sol\":1314:1362  _proposal[proposal_id].voter_list[count] = voter */\n      0x0100\n      exp\n      dup2\n      sload\n      dup2\n      0xffffffffffffffffffffffffffffffffffffffff\n      mul\n      not\n      and\n      swap1\n      dup4\n      0xffffffffffffffffffffffffffffffffffffffff\n      and\n      mul\n      or\n      swap1\n      sstore\n      pop\n        /* \"Vote_1.sol\":1372:1381  _proposal */\n      0x01\n        /* \"Vote_1.sol\":1372:1394  _proposal[proposal_id] */\n      0x00\n        /* \"Vote_1.sol\":1382:1393  proposal_id */\n      dup4\n        /* \"Vote_1.sol\":1372:1394  _proposal[proposal_id] */\n      dup2\n      mstore\n      0x20\n      add\n      swap1\n      dup2\n      mstore\n      0x20\n      add\n      0x00\n      keccak256\n        /* \"Vote_1.sol\":1372:1401  _proposal[proposal_id]._count */\n      0x04\n      add\n      0x00\n        /* \"Vote_1.sol\":1372:1403  _proposal[proposal_id]._count++ */\n      dup2\n      sload\n      dup1\n      swap3\n      swap2\n      swap1\n      tag_94\n      swap1\n      tag_55\n      jump\t// in\n    tag_94:\n      swap2\n      swap1\n      pop\n      sstore\n      pop\n        /* \"Vote_1.sol\":1418:1441  Voter_set(voter, count) */\n      0x4ad260fdb84f8458e9ae5bfb9f78b3a60d8daeba55271ac59884c0f6cb4e0435\n        /* \"Vote_1.sol\":1428:1433  voter */\n      dup4\n        /* \"Vote_1.sol\":1435:1440  count */\n      dup3\n        /* \"Vote_1.sol\":1418:1441  Voter_set(voter, count) */\n      mload(0x40)\n      tag_95\n      swap3\n      swap2\n      swap1\n      tag_96\n      jump\t// in\n    tag_95:\n      mload(0x40)\n      dup1\n      swap2\n      sub\n      swap1\n      log1\n        /* \"Vote_1.sol\":1252:1448  {... */\n      pop\n        /* \"Vote_1.sol\":1187:1448  function set_voter_list(address voter, uint proposal_id) private {... */\n      pop\n      pop\n      jump\t// out\n    tag_45:\n      dup3\n      dup1\n      sload\n      dup3\n      dup3\n      sstore\n      swap1\n      0x00\n      mstore\n      keccak256(0x00, 0x20)\n      swap1\n      dup2\n      add\n      swap3\n      dup3\n      iszero\n      tag_97\n      jumpi\n      swap2\n      0x20\n      mul\n      dup3\n      add\n    tag_98:\n      dup3\n      dup2\n      gt\n      iszero\n      tag_99\n      jumpi\n      dup3\n      mload\n      dup3\n      exp(0x0100, 0x00)\n      dup2\n      sload\n      dup2\n      0xffffffffffffffffffffffffffffffffffffffff\n      mul\n      not\n      and\n      swap1\n      dup4\n      0xffffffffffffffffffffffffffffffffffffffff\n      and\n      mul\n      or\n      swap1\n      sstore\n      pop\n      swap2\n      0x20\n      add\n      swap2\n      swap1\n      0x01\n      add\n      swap1\n      jump(tag_98)\n    tag_99:\n    tag_97:\n      pop\n      swap1\n      pop\n      tag_100\n      swap2\n      swap1\n      tag_101\n      jump\t// in\n    tag_100:\n      pop\n      swap1\n      jump\t// out\n    tag_101:\n    tag_102:\n      dup1\n      dup3\n      gt\n      iszero\n      tag_103\n      jumpi\n      0x00\n      dup2\n      0x00\n      swap1\n      sstore\n      pop\n      0x01\n      add\n      jump(tag_102)\n    tag_103:\n      pop\n      swap1\n      jump\t// out\n        /* \"#utility.yul\":24:746   */\n    tag_105:\n        /* \"#utility.yul\":120:125   */\n      0x00\n        /* \"#utility.yul\":145:226   */\n      tag_107\n        /* \"#utility.yul\":161:225   */\n      tag_108\n        /* \"#utility.yul\":218:224   */\n      dup5\n        /* \"#utility.yul\":161:225   */\n      tag_109\n      jump\t// in\n    tag_108:\n        /* \"#utility.yul\":145:226   */\n      tag_110\n      jump\t// in\n    tag_107:\n        /* \"#utility.yul\":136:226   */\n      swap1\n      pop\n        /* \"#utility.yul\":246:251   */\n      dup1\n        /* \"#utility.yul\":275:281   */\n      dup4\n        /* \"#utility.yul\":268:273   */\n      dup3\n        /* \"#utility.yul\":261:282   */\n      mstore\n        /* \"#utility.yul\":309:313   */\n      0x20\n        /* \"#utility.yul\":302:307   */\n      dup3\n        /* \"#utility.yul\":298:314   */\n      add\n        /* \"#utility.yul\":291:314   */\n      swap1\n      pop\n        /* \"#utility.yul\":335:341   */\n      dup3\n        /* \"#utility.yul\":385:388   */\n      dup6\n        /* \"#utility.yul\":377:381   */\n      0x20\n        /* \"#utility.yul\":369:375   */\n      dup7\n        /* \"#utility.yul\":365:382   */\n      mul\n        /* \"#utility.yul\":360:363   */\n      dup3\n        /* \"#utility.yul\":356:383   */\n      add\n        /* \"#utility.yul\":353:389   */\n      gt\n        /* \"#utility.yul\":350:493   */\n      iszero\n      tag_111\n      jumpi\n        /* \"#utility.yul\":404:483   */\n      tag_112\n      tag_113\n      jump\t// in\n    tag_112:\n        /* \"#utility.yul\":350:493   */\n    tag_111:\n        /* \"#utility.yul\":517:518   */\n      0x00\n        /* \"#utility.yul\":502:740   */\n    tag_114:\n        /* \"#utility.yul\":527:533   */\n      dup6\n        /* \"#utility.yul\":524:525   */\n      dup2\n        /* \"#utility.yul\":521:534   */\n      lt\n        /* \"#utility.yul\":502:740   */\n      iszero\n      tag_116\n      jumpi\n        /* \"#utility.yul\":595:598   */\n      dup2\n        /* \"#utility.yul\":624:661   */\n      tag_117\n        /* \"#utility.yul\":657:660   */\n      dup9\n        /* \"#utility.yul\":645:655   */\n      dup3\n        /* \"#utility.yul\":624:661   */\n      tag_118\n      jump\t// in\n    tag_117:\n        /* \"#utility.yul\":619:622   */\n      dup5\n        /* \"#utility.yul\":612:662   */\n      mstore\n        /* \"#utility.yul\":691:695   */\n      0x20\n        /* \"#utility.yul\":686:689   */\n      dup5\n        /* \"#utility.yul\":682:696   */\n      add\n        /* \"#utility.yul\":675:696   */\n      swap4\n      pop\n        /* \"#utility.yul\":725:729   */\n      0x20\n        /* \"#utility.yul\":720:723   */\n      dup4\n        /* \"#utility.yul\":716:730   */\n      add\n        /* \"#utility.yul\":709:730   */\n      swap3\n      pop\n        /* \"#utility.yul\":562:740   */\n      pop\n        /* \"#utility.yul\":549:550   */\n      0x01\n        /* \"#utility.yul\":546:547   */\n      dup2\n        /* \"#utility.yul\":542:551   */\n      add\n        /* \"#utility.yul\":537:551   */\n      swap1\n      pop\n        /* \"#utility.yul\":502:740   */\n      jump(tag_114)\n    tag_116:\n        /* \"#utility.yul\":506:520   */\n      pop\n        /* \"#utility.yul\":126:746   */\n      pop\n      pop\n        /* \"#utility.yul\":24:746   */\n      swap4\n      swap3\n      pop\n      pop\n      pop\n      jump\t// out\n        /* \"#utility.yul\":752:891   */\n    tag_118:\n        /* \"#utility.yul\":798:803   */\n      0x00\n        /* \"#utility.yul\":836:842   */\n      dup2\n        /* \"#utility.yul\":823:843   */\n      calldataload\n        /* \"#utility.yul\":814:843   */\n      swap1\n      pop\n        /* \"#utility.yul\":852:885   */\n      tag_120\n        /* \"#utility.yul\":879:884   */\n      dup2\n        /* \"#utility.yul\":852:885   */\n      tag_121\n      jump\t// in\n    tag_120:\n        /* \"#utility.yul\":752:891   */\n      swap3\n      swap2\n      pop\n      pop\n      jump\t// out\n        /* \"#utility.yul\":914:1284   */\n    tag_122:\n        /* \"#utility.yul\":985:990   */\n      0x00\n        /* \"#utility.yul\":1034:1037   */\n      dup3\n        /* \"#utility.yul\":1027:1031   */\n      0x1f\n        /* \"#utility.yul\":1019:1025   */\n      dup4\n        /* \"#utility.yul\":1015:1032   */\n      add\n        /* \"#utility.yul\":1011:1038   */\n      slt\n        /* \"#utility.yul\":1001:1123   */\n      tag_124\n      jumpi\n        /* \"#utility.yul\":1042:1121   */\n      tag_125\n      tag_126\n      jump\t// in\n    tag_125:\n        /* \"#utility.yul\":1001:1123   */\n    tag_124:\n        /* \"#utility.yul\":1159:1165   */\n      dup2\n        /* \"#utility.yul\":1146:1166   */\n      calldataload\n        /* \"#utility.yul\":1184:1278   */\n      tag_127\n        /* \"#utility.yul\":1274:1277   */\n      dup5\n        /* \"#utility.yul\":1266:1272   */\n      dup3\n        /* \"#utility.yul\":1259:1263   */\n      0x20\n        /* \"#utility.yul\":1251:1257   */\n      dup7\n        /* \"#utility.yul\":1247:1264   */\n      add\n        /* \"#utility.yul\":1184:1278   */\n      tag_105\n      jump\t// in\n    tag_127:\n        /* \"#utility.yul\":1175:1278   */\n      swap2\n      pop\n        /* \"#utility.yul\":991:1284   */\n      pop\n        /* \"#utility.yul\":914:1284   */\n      swap3\n      swap2\n      pop\n      pop\n      jump\t// out\n        /* \"#utility.yul\":1290:1429   */\n    tag_128:\n        /* \"#utility.yul\":1336:1341   */\n      0x00\n        /* \"#utility.yul\":1374:1380   */\n      dup2\n        /* \"#utility.yul\":1361:1381   */\n      calldataload\n        /* \"#utility.yul\":1352:1381   */\n      swap1\n      pop\n        /* \"#utility.yul\":1390:1423   */\n      tag_130\n        /* \"#utility.yul\":1417:1422   */\n      dup2\n        /* \"#utility.yul\":1390:1423   */\n      tag_131\n      jump\t// in\n    tag_130:\n        /* \"#utility.yul\":1290:1429   */\n      swap3\n      swap2\n      pop\n      pop\n      jump\t// out\n        /* \"#utility.yul\":1435:1574   */\n    tag_132:\n        /* \"#utility.yul\":1481:1486   */\n      0x00\n        /* \"#utility.yul\":1519:1525   */\n      dup2\n        /* \"#utility.yul\":1506:1526   */\n      calldataload\n        /* \"#utility.yul\":1497:1526   */\n      swap1\n      pop\n        /* \"#utility.yul\":1535:1568   */\n      tag_134\n        /* \"#utility.yul\":1562:1567   */\n      dup2\n        /* \"#utility.yul\":1535:1568   */\n      tag_135\n      jump\t// in\n    tag_134:\n        /* \"#utility.yul\":1435:1574   */\n      swap3\n      swap2\n      pop\n      pop\n      jump\t// out\n        /* \"#utility.yul\":1580:2054   */\n    tag_29:\n        /* \"#utility.yul\":1648:1654   */\n      0x00\n        /* \"#utility.yul\":1656:1662   */\n      dup1\n        /* \"#utility.yul\":1705:1707   */\n      0x40\n        /* \"#utility.yul\":1693:1702   */\n      dup4\n        /* \"#utility.yul\":1684:1691   */\n      dup6\n        /* \"#utility.yul\":1680:1703   */\n      sub\n        /* \"#utility.yul\":1676:1708   */\n      slt\n        /* \"#utility.yul\":1673:1792   */\n      iszero\n      tag_137\n      jumpi\n        /* \"#utility.yul\":1711:1790   */\n      tag_138\n      tag_139\n      jump\t// in\n    tag_138:\n        /* \"#utility.yul\":1673:1792   */\n    tag_137:\n        /* \"#utility.yul\":1831:1832   */\n      0x00\n        /* \"#utility.yul\":1856:1909   */\n      tag_140\n        /* \"#utility.yul\":1901:1908   */\n      dup6\n        /* \"#utility.yul\":1892:1898   */\n      dup3\n        /* \"#utility.yul\":1881:1890   */\n      dup7\n        /* \"#utility.yul\":1877:1899   */\n      add\n        /* \"#utility.yul\":1856:1909   */\n      tag_118\n      jump\t// in\n    tag_140:\n        /* \"#utility.yul\":1846:1909   */\n      swap3\n      pop\n        /* \"#utility.yul\":1802:1919   */\n      pop\n        /* \"#utility.yul\":1958:1960   */\n      0x20\n        /* \"#utility.yul\":1984:2037   */\n      tag_141\n        /* \"#utility.yul\":2029:2036   */\n      dup6\n        /* \"#utility.yul\":2020:2026   */\n      dup3\n        /* \"#utility.yul\":2009:2018   */\n      dup7\n        /* \"#utility.yul\":2005:2027   */\n      add\n        /* \"#utility.yul\":1984:2037   */\n      tag_132\n      jump\t// in\n    tag_141:\n        /* \"#utility.yul\":1974:2037   */\n      swap2\n      pop\n        /* \"#utility.yul\":1929:2047   */\n      pop\n        /* \"#utility.yul\":1580:2054   */\n      swap3\n      pop\n      swap3\n      swap1\n      pop\n      jump\t// out\n        /* \"#utility.yul\":2060:2744   */\n    tag_14:\n        /* \"#utility.yul\":2153:2159   */\n      0x00\n        /* \"#utility.yul\":2161:2167   */\n      dup1\n        /* \"#utility.yul\":2210:2212   */\n      0x40\n        /* \"#utility.yul\":2198:2207   */\n      dup4\n        /* \"#utility.yul\":2189:2196   */\n      dup6\n        /* \"#utility.yul\":2185:2208   */\n      sub\n        /* \"#utility.yul\":2181:2213   */\n      slt\n        /* \"#utility.yul\":2178:2297   */\n      iszero\n      tag_143\n      jumpi\n        /* \"#utility.yul\":2216:2295   */\n      tag_144\n      tag_139\n      jump\t// in\n    tag_144:\n        /* \"#utility.yul\":2178:2297   */\n    tag_143:\n        /* \"#utility.yul\":2364:2365   */\n      0x00\n        /* \"#utility.yul\":2353:2362   */\n      dup4\n        /* \"#utility.yul\":2349:2366   */\n      add\n        /* \"#utility.yul\":2336:2367   */\n      calldataload\n        /* \"#utility.yul\":2394:2412   */\n      0xffffffffffffffff\n        /* \"#utility.yul\":2386:2392   */\n      dup2\n        /* \"#utility.yul\":2383:2413   */\n      gt\n        /* \"#utility.yul\":2380:2497   */\n      iszero\n      tag_145\n      jumpi\n        /* \"#utility.yul\":2416:2495   */\n      tag_146\n      tag_147\n      jump\t// in\n    tag_146:\n        /* \"#utility.yul\":2380:2497   */\n    tag_145:\n        /* \"#utility.yul\":2521:2599   */\n      tag_148\n        /* \"#utility.yul\":2591:2598   */\n      dup6\n        /* \"#utility.yul\":2582:2588   */\n      dup3\n        /* \"#utility.yul\":2571:2580   */\n      dup7\n        /* \"#utility.yul\":2567:2589   */\n      add\n        /* \"#utility.yul\":2521:2599   */\n      tag_122\n      jump\t// in\n    tag_148:\n        /* \"#utility.yul\":2511:2599   */\n      swap3\n      pop\n        /* \"#utility.yul\":2307:2609   */\n      pop\n        /* \"#utility.yul\":2648:2650   */\n      0x20\n        /* \"#utility.yul\":2674:2727   */\n      tag_149\n        /* \"#utility.yul\":2719:2726   */\n      dup6\n        /* \"#utility.yul\":2710:2716   */\n      dup3\n        /* \"#utility.yul\":2699:2708   */\n      dup7\n        /* \"#utility.yul\":2695:2717   */\n      add\n        /* \"#utility.yul\":2674:2727   */\n      tag_132\n      jump\t// in\n    tag_149:\n        /* \"#utility.yul\":2664:2727   */\n      swap2\n      pop\n        /* \"#utility.yul\":2619:2737   */\n      pop\n        /* \"#utility.yul\":2060:2744   */\n      swap3\n      pop\n      swap3\n      swap1\n      pop\n      jump\t// out\n        /* \"#utility.yul\":2750:3369   */\n    tag_25:\n        /* \"#utility.yul\":2827:2833   */\n      0x00\n        /* \"#utility.yul\":2835:2841   */\n      dup1\n        /* \"#utility.yul\":2843:2849   */\n      0x00\n        /* \"#utility.yul\":2892:2894   */\n      0x60\n        /* \"#utility.yul\":2880:2889   */\n      dup5\n        /* \"#utility.yul\":2871:2878   */\n      dup7\n        /* \"#utility.yul\":2867:2890   */\n      sub\n        /* \"#utility.yul\":2863:2895   */\n      slt\n        /* \"#utility.yul\":2860:2979   */\n      iszero\n      tag_151\n      jumpi\n        /* \"#utility.yul\":2898:2977   */\n      tag_152\n      tag_139\n      jump\t// in\n    tag_152:\n        /* \"#utility.yul\":2860:2979   */\n    tag_151:\n        /* \"#utility.yul\":3018:3019   */\n      0x00\n        /* \"#utility.yul\":3043:3096   */\n      tag_153\n        /* \"#utility.yul\":3088:3095   */\n      dup7\n        /* \"#utility.yul\":3079:3085   */\n      dup3\n        /* \"#utility.yul\":3068:3077   */\n      dup8\n        /* \"#utility.yul\":3064:3086   */\n      add\n        /* \"#utility.yul\":3043:3096   */\n      tag_128\n      jump\t// in\n    tag_153:\n        /* \"#utility.yul\":3033:3096   */\n      swap4\n      pop\n        /* \"#utility.yul\":2989:3106   */\n      pop\n        /* \"#utility.yul\":3145:3147   */\n      0x20\n        /* \"#utility.yul\":3171:3224   */\n      tag_154\n        /* \"#utility.yul\":3216:3223   */\n      dup7\n        /* \"#utility.yul\":3207:3213   */\n      dup3\n        /* \"#utility.yul\":3196:3205   */\n      dup8\n        /* \"#utility.yul\":3192:3214   */\n      add\n        /* \"#utility.yul\":3171:3224   */\n      tag_132\n      jump\t// in\n    tag_154:\n        /* \"#utility.yul\":3161:3224   */\n      swap3\n      pop\n        /* \"#utility.yul\":3116:3234   */\n      pop\n        /* \"#utility.yul\":3273:3275   */\n      0x40\n        /* \"#utility.yul\":3299:3352   */\n      tag_155\n        /* \"#utility.yul\":3344:3351   */\n      dup7\n        /* \"#utility.yul\":3335:3341   */\n      dup3\n        /* \"#utility.yul\":3324:3333   */\n      dup8\n        /* \"#utility.yul\":3320:3342   */\n      add\n        /* \"#utility.yul\":3299:3352   */\n      tag_132\n      jump\t// in\n    tag_155:\n        /* \"#utility.yul\":3289:3352   */\n      swap2\n      pop\n        /* \"#utility.yul\":3244:3362   */\n      pop\n        /* \"#utility.yul\":2750:3369   */\n      swap3\n      pop\n      swap3\n      pop\n      swap3\n      jump\t// out\n        /* \"#utility.yul\":3375:3704   */\n    tag_18:\n        /* \"#utility.yul\":3434:3440   */\n      0x00\n        /* \"#utility.yul\":3483:3485   */\n      0x20\n        /* \"#utility.yul\":3471:3480   */\n      dup3\n        /* \"#utility.yul\":3462:3469   */\n      dup5\n        /* \"#utility.yul\":3458:3481   */\n      sub\n        /* \"#utility.yul\":3454:3486   */\n      slt\n        /* \"#utility.yul\":3451:3570   */\n      iszero\n      tag_157\n      jumpi\n        /* \"#utility.yul\":3489:3568   */\n      tag_158\n      tag_139\n      jump\t// in\n    tag_158:\n        /* \"#utility.yul\":3451:3570   */\n    tag_157:\n        /* \"#utility.yul\":3609:3610   */\n      0x00\n        /* \"#utility.yul\":3634:3687   */\n      tag_159\n        /* \"#utility.yul\":3679:3686   */\n      dup5\n        /* \"#utility.yul\":3670:3676   */\n      dup3\n        /* \"#utility.yul\":3659:3668   */\n      dup6\n        /* \"#utility.yul\":3655:3677   */\n      add\n        /* \"#utility.yul\":3634:3687   */\n      tag_132\n      jump\t// in\n    tag_159:\n        /* \"#utility.yul\":3624:3687   */\n      swap2\n      pop\n        /* \"#utility.yul\":3580:3697   */\n      pop\n        /* \"#utility.yul\":3375:3704   */\n      swap3\n      swap2\n      pop\n      pop\n      jump\t// out\n        /* \"#utility.yul\":3710:4184   */\n    tag_41:\n        /* \"#utility.yul\":3778:3784   */\n      0x00\n        /* \"#utility.yul\":3786:3792   */\n      dup1\n        /* \"#utility.yul\":3835:3837   */\n      0x40\n        /* \"#utility.yul\":3823:3832   */\n      dup4\n        /* \"#utility.yul\":3814:3821   */\n      dup6\n        /* \"#utility.yul\":3810:3833   */\n      sub\n        /* \"#utility.yul\":3806:3838   */\n      slt\n        /* \"#utility.yul\":3803:3922   */\n      iszero\n      tag_161\n      jumpi\n        /* \"#utility.yul\":3841:3920   */\n      tag_162\n      tag_139\n      jump\t// in\n    tag_162:\n        /* \"#utility.yul\":3803:3922   */\n    tag_161:\n        /* \"#utility.yul\":3961:3962   */\n      0x00\n        /* \"#utility.yul\":3986:4039   */\n      tag_163\n        /* \"#utility.yul\":4031:4038   */\n      dup6\n        /* \"#utility.yul\":4022:4028   */\n      dup3\n        /* \"#utility.yul\":4011:4020   */\n      dup7\n        /* \"#utility.yul\":4007:4029   */\n      add\n        /* \"#utility.yul\":3986:4039   */\n      tag_132\n      jump\t// in\n    tag_163:\n        /* \"#utility.yul\":3976:4039   */\n      swap3\n      pop\n        /* \"#utility.yul\":3932:4049   */\n      pop\n        /* \"#utility.yul\":4088:4090   */\n      0x20\n        /* \"#utility.yul\":4114:4167   */\n      tag_164\n        /* \"#utility.yul\":4159:4166   */\n      dup6\n        /* \"#utility.yul\":4150:4156   */\n      dup3\n        /* \"#utility.yul\":4139:4148   */\n      dup7\n        /* \"#utility.yul\":4135:4157   */\n      add\n        /* \"#utility.yul\":4114:4167   */\n      tag_132\n      jump\t// in\n    tag_164:\n        /* \"#utility.yul\":4104:4167   */\n      swap2\n      pop\n        /* \"#utility.yul\":4059:4177   */\n      pop\n        /* \"#utility.yul\":3710:4184   */\n      swap3\n      pop\n      swap3\n      swap1\n      pop\n      jump\t// out\n        /* \"#utility.yul\":4190:4308   */\n    tag_165:\n        /* \"#utility.yul\":4277:4301   */\n      tag_167\n        /* \"#utility.yul\":4295:4300   */\n      dup2\n        /* \"#utility.yul\":4277:4301   */\n      tag_168\n      jump\t// in\n    tag_167:\n        /* \"#utility.yul\":4272:4275   */\n      dup3\n        /* \"#utility.yul\":4265:4302   */\n      mstore\n        /* \"#utility.yul\":4190:4308   */\n      pop\n      pop\n      jump\t// out\n        /* \"#utility.yul\":4314:4432   */\n    tag_169:\n        /* \"#utility.yul\":4401:4425   */\n      tag_171\n        /* \"#utility.yul\":4419:4424   */\n      dup2\n        /* \"#utility.yul\":4401:4425   */\n      tag_172\n      jump\t// in\n    tag_171:\n        /* \"#utility.yul\":4396:4399   */\n      dup3\n        /* \"#utility.yul\":4389:4426   */\n      mstore\n        /* \"#utility.yul\":4314:4432   */\n      pop\n      pop\n      jump\t// out\n        /* \"#utility.yul\":4438:4803   */\n    tag_173:\n        /* \"#utility.yul\":4580:4583   */\n      0x00\n        /* \"#utility.yul\":4601:4667   */\n      tag_175\n        /* \"#utility.yul\":4665:4666   */\n      0x09\n        /* \"#utility.yul\":4660:4663   */\n      dup4\n        /* \"#utility.yul\":4601:4667   */\n      tag_176\n      jump\t// in\n    tag_175:\n        /* \"#utility.yul\":4594:4667   */\n      swap2\n      pop\n        /* \"#utility.yul\":4676:4769   */\n      tag_177\n        /* \"#utility.yul\":4765:4768   */\n      dup3\n        /* \"#utility.yul\":4676:4769   */\n      tag_178\n      jump\t// in\n    tag_177:\n        /* \"#utility.yul\":4794:4796   */\n      0x20\n        /* \"#utility.yul\":4789:4792   */\n      dup3\n        /* \"#utility.yul\":4785:4797   */\n      add\n        /* \"#utility.yul\":4778:4797   */\n      swap1\n      pop\n        /* \"#utility.yul\":4438:4803   */\n      swap2\n      swap1\n      pop\n      jump\t// out\n        /* \"#utility.yul\":4809:5175   */\n    tag_179:\n        /* \"#utility.yul\":4951:4954   */\n      0x00\n        /* \"#utility.yul\":4972:5039   */\n      tag_181\n        /* \"#utility.yul\":5036:5038   */\n      0x0d\n        /* \"#utility.yul\":5031:5034   */\n      dup4\n        /* \"#utility.yul\":4972:5039   */\n      tag_176\n      jump\t// in\n    tag_181:\n        /* \"#utility.yul\":4965:5039   */\n      swap2\n      pop\n        /* \"#utility.yul\":5048:5141   */\n      tag_182\n        /* \"#utility.yul\":5137:5140   */\n      dup3\n        /* \"#utility.yul\":5048:5141   */\n      tag_183\n      jump\t// in\n    tag_182:\n        /* \"#utility.yul\":5166:5168   */\n      0x20\n        /* \"#utility.yul\":5161:5164   */\n      dup3\n        /* \"#utility.yul\":5157:5169   */\n      add\n        /* \"#utility.yul\":5150:5169   */\n      swap1\n      pop\n        /* \"#utility.yul\":4809:5175   */\n      swap2\n      swap1\n      pop\n      jump\t// out\n        /* \"#utility.yul\":5181:5299   */\n    tag_184:\n        /* \"#utility.yul\":5268:5292   */\n      tag_186\n        /* \"#utility.yul\":5286:5291   */\n      dup2\n        /* \"#utility.yul\":5268:5292   */\n      tag_187\n      jump\t// in\n    tag_186:\n        /* \"#utility.yul\":5263:5266   */\n      dup3\n        /* \"#utility.yul\":5256:5293   */\n      mstore\n        /* \"#utility.yul\":5181:5299   */\n      pop\n      pop\n      jump\t// out\n        /* \"#utility.yul\":5305:5527   */\n    tag_71:\n        /* \"#utility.yul\":5398:5402   */\n      0x00\n        /* \"#utility.yul\":5436:5438   */\n      0x20\n        /* \"#utility.yul\":5425:5434   */\n      dup3\n        /* \"#utility.yul\":5421:5439   */\n      add\n        /* \"#utility.yul\":5413:5439   */\n      swap1\n      pop\n        /* \"#utility.yul\":5449:5520   */\n      tag_189\n        /* \"#utility.yul\":5517:5518   */\n      0x00\n        /* \"#utility.yul\":5506:5515   */\n      dup4\n        /* \"#utility.yul\":5502:5519   */\n      add\n        /* \"#utility.yul\":5493:5499   */\n      dup5\n        /* \"#utility.yul\":5449:5520   */\n      tag_165\n      jump\t// in\n    tag_189:\n        /* \"#utility.yul\":5305:5527   */\n      swap3\n      swap2\n      pop\n      pop\n      jump\t// out\n        /* \"#utility.yul\":5533:5865   */\n    tag_96:\n        /* \"#utility.yul\":5654:5658   */\n      0x00\n        /* \"#utility.yul\":5692:5694   */\n      0x40\n        /* \"#utility.yul\":5681:5690   */\n      dup3\n        /* \"#utility.yul\":5677:5695   */\n      add\n        /* \"#utility.yul\":5669:5695   */\n      swap1\n      pop\n        /* \"#utility.yul\":5705:5776   */\n      tag_191\n        /* \"#utility.yul\":5773:5774   */\n      0x00\n        /* \"#utility.yul\":5762:5771   */\n      dup4\n        /* \"#utility.yul\":5758:5775   */\n      add\n        /* \"#utility.yul\":5749:5755   */\n      dup6\n        /* \"#utility.yul\":5705:5776   */\n      tag_165\n      jump\t// in\n    tag_191:\n        /* \"#utility.yul\":5786:5858   */\n      tag_192\n        /* \"#utility.yul\":5854:5856   */\n      0x20\n        /* \"#utility.yul\":5843:5852   */\n      dup4\n        /* \"#utility.yul\":5839:5857   */\n      add\n        /* \"#utility.yul\":5830:5836   */\n      dup5\n        /* \"#utility.yul\":5786:5858   */\n      tag_184\n      jump\t// in\n    tag_192:\n        /* \"#utility.yul\":5533:5865   */\n      swap4\n      swap3\n      pop\n      pop\n      pop\n      jump\t// out\n        /* \"#utility.yul\":5871:6093   */\n    tag_32:\n        /* \"#utility.yul\":5964:5968   */\n      0x00\n        /* \"#utility.yul\":6002:6004   */\n      0x20\n        /* \"#utility.yul\":5991:6000   */\n      dup3\n        /* \"#utility.yul\":5987:6005   */\n      add\n        /* \"#utility.yul\":5979:6005   */\n      swap1\n      pop\n        /* \"#utility.yul\":6015:6086   */\n      tag_194\n        /* \"#utility.yul\":6083:6084   */\n      0x00\n        /* \"#utility.yul\":6072:6081   */\n      dup4\n        /* \"#utility.yul\":6068:6085   */\n      add\n        /* \"#utility.yul\":6059:6065   */\n      dup5\n        /* \"#utility.yul\":6015:6086   */\n      tag_169\n      jump\t// in\n    tag_194:\n        /* \"#utility.yul\":5871:6093   */\n      swap3\n      swap2\n      pop\n      pop\n      jump\t// out\n        /* \"#utility.yul\":6099:6518   */\n    tag_68:\n        /* \"#utility.yul\":6265:6269   */\n      0x00\n        /* \"#utility.yul\":6303:6305   */\n      0x20\n        /* \"#utility.yul\":6292:6301   */\n      dup3\n        /* \"#utility.yul\":6288:6306   */\n      add\n        /* \"#utility.yul\":6280:6306   */\n      swap1\n      pop\n        /* \"#utility.yul\":6352:6361   */\n      dup2\n        /* \"#utility.yul\":6346:6350   */\n      dup2\n        /* \"#utility.yul\":6342:6362   */\n      sub\n        /* \"#utility.yul\":6338:6339   */\n      0x00\n        /* \"#utility.yul\":6327:6336   */\n      dup4\n        /* \"#utility.yul\":6323:6340   */\n      add\n        /* \"#utility.yul\":6316:6363   */\n      mstore\n        /* \"#utility.yul\":6380:6511   */\n      tag_196\n        /* \"#utility.yul\":6506:6510   */\n      dup2\n        /* \"#utility.yul\":6380:6511   */\n      tag_173\n      jump\t// in\n    tag_196:\n        /* \"#utility.yul\":6372:6511   */\n      swap1\n      pop\n        /* \"#utility.yul\":6099:6518   */\n      swap2\n      swap1\n      pop\n      jump\t// out\n        /* \"#utility.yul\":6524:6943   */\n    tag_50:\n        /* \"#utility.yul\":6690:6694   */\n      0x00\n        /* \"#utility.yul\":6728:6730   */\n      0x20\n        /* \"#utility.yul\":6717:6726   */\n      dup3\n        /* \"#utility.yul\":6713:6731   */\n      add\n        /* \"#utility.yul\":6705:6731   */\n      swap1\n      pop\n        /* \"#utility.yul\":6777:6786   */\n      dup2\n        /* \"#utility.yul\":6771:6775   */\n      dup2\n        /* \"#utility.yul\":6767:6787   */\n      sub\n        /* \"#utility.yul\":6763:6764   */\n      0x00\n        /* \"#utility.yul\":6752:6761   */\n      dup4\n        /* \"#utility.yul\":6748:6765   */\n      add\n        /* \"#utility.yul\":6741:6788   */\n      mstore\n        /* \"#utility.yul\":6805:6936   */\n      tag_198\n        /* \"#utility.yul\":6931:6935   */\n      dup2\n        /* \"#utility.yul\":6805:6936   */\n      tag_179\n      jump\t// in\n    tag_198:\n        /* \"#utility.yul\":6797:6936   */\n      swap1\n      pop\n        /* \"#utility.yul\":6524:6943   */\n      swap2\n      swap1\n      pop\n      jump\t// out\n        /* \"#utility.yul\":6949:7171   */\n    tag_57:\n        /* \"#utility.yul\":7042:7046   */\n      0x00\n        /* \"#utility.yul\":7080:7082   */\n      0x20\n        /* \"#utility.yul\":7069:7078   */\n      dup3\n        /* \"#utility.yul\":7065:7083   */\n      add\n        /* \"#utility.yul\":7057:7083   */\n      swap1\n      pop\n        /* \"#utility.yul\":7093:7164   */\n      tag_200\n        /* \"#utility.yul\":7161:7162   */\n      0x00\n        /* \"#utility.yul\":7150:7159   */\n      dup4\n        /* \"#utility.yul\":7146:7163   */\n      add\n        /* \"#utility.yul\":7137:7143   */\n      dup5\n        /* \"#utility.yul\":7093:7164   */\n      tag_184\n      jump\t// in\n    tag_200:\n        /* \"#utility.yul\":6949:7171   */\n      swap3\n      swap2\n      pop\n      pop\n      jump\t// out\n        /* \"#utility.yul\":7177:7306   */\n    tag_110:\n        /* \"#utility.yul\":7211:7217   */\n      0x00\n        /* \"#utility.yul\":7238:7258   */\n      tag_202\n      tag_203\n      jump\t// in\n    tag_202:\n        /* \"#utility.yul\":7228:7258   */\n      swap1\n      pop\n        /* \"#utility.yul\":7267:7300   */\n      tag_204\n        /* \"#utility.yul\":7295:7299   */\n      dup3\n        /* \"#utility.yul\":7287:7293   */\n      dup3\n        /* \"#utility.yul\":7267:7300   */\n      tag_205\n      jump\t// in\n    tag_204:\n        /* \"#utility.yul\":7177:7306   */\n      swap2\n      swap1\n      pop\n      jump\t// out\n        /* \"#utility.yul\":7312:7387   */\n    tag_203:\n        /* \"#utility.yul\":7345:7351   */\n      0x00\n        /* \"#utility.yul\":7378:7380   */\n      0x40\n        /* \"#utility.yul\":7372:7381   */\n      mload\n        /* \"#utility.yul\":7362:7381   */\n      swap1\n      pop\n        /* \"#utility.yul\":7312:7387   */\n      swap1\n      jump\t// out\n        /* \"#utility.yul\":7393:7704   */\n    tag_109:\n        /* \"#utility.yul\":7470:7474   */\n      0x00\n        /* \"#utility.yul\":7560:7578   */\n      0xffffffffffffffff\n        /* \"#utility.yul\":7552:7558   */\n      dup3\n        /* \"#utility.yul\":7549:7579   */\n      gt\n        /* \"#utility.yul\":7546:7602   */\n      iszero\n      tag_208\n      jumpi\n        /* \"#utility.yul\":7582:7600   */\n      tag_209\n      tag_210\n      jump\t// in\n    tag_209:\n        /* \"#utility.yul\":7546:7602   */\n    tag_208:\n        /* \"#utility.yul\":7632:7636   */\n      0x20\n        /* \"#utility.yul\":7624:7630   */\n      dup3\n        /* \"#utility.yul\":7620:7637   */\n      mul\n        /* \"#utility.yul\":7612:7637   */\n      swap1\n      pop\n        /* \"#utility.yul\":7692:7696   */\n      0x20\n        /* \"#utility.yul\":7686:7690   */\n      dup2\n        /* \"#utility.yul\":7682:7697   */\n      add\n        /* \"#utility.yul\":7674:7697   */\n      swap1\n      pop\n        /* \"#utility.yul\":7393:7704   */\n      swap2\n      swap1\n      pop\n      jump\t// out\n        /* \"#utility.yul\":7710:7879   */\n    tag_176:\n        /* \"#utility.yul\":7794:7805   */\n      0x00\n        /* \"#utility.yul\":7828:7834   */\n      dup3\n        /* \"#utility.yul\":7823:7826   */\n      dup3\n        /* \"#utility.yul\":7816:7835   */\n      mstore\n        /* \"#utility.yul\":7868:7872   */\n      0x20\n        /* \"#utility.yul\":7863:7866   */\n      dup3\n        /* \"#utility.yul\":7859:7873   */\n      add\n        /* \"#utility.yul\":7844:7873   */\n      swap1\n      pop\n        /* \"#utility.yul\":7710:7879   */\n      swap3\n      swap2\n      pop\n      pop\n      jump\t// out\n        /* \"#utility.yul\":7885:8076   */\n    tag_52:\n        /* \"#utility.yul\":7925:7929   */\n      0x00\n        /* \"#utility.yul\":7945:7965   */\n      tag_213\n        /* \"#utility.yul\":7963:7964   */\n      dup3\n        /* \"#utility.yul\":7945:7965   */\n      tag_187\n      jump\t// in\n    tag_213:\n        /* \"#utility.yul\":7940:7965   */\n      swap2\n      pop\n        /* \"#utility.yul\":7979:7999   */\n      tag_214\n        /* \"#utility.yul\":7997:7998   */\n      dup4\n        /* \"#utility.yul\":7979:7999   */\n      tag_187\n      jump\t// in\n    tag_214:\n        /* \"#utility.yul\":7974:7999   */\n      swap3\n      pop\n        /* \"#utility.yul\":8018:8019   */\n      dup3\n        /* \"#utility.yul\":8015:8016   */\n      dup3\n        /* \"#utility.yul\":8012:8020   */\n      lt\n        /* \"#utility.yul\":8009:8043   */\n      iszero\n      tag_215\n      jumpi\n        /* \"#utility.yul\":8023:8041   */\n      tag_216\n      tag_217\n      jump\t// in\n    tag_216:\n        /* \"#utility.yul\":8009:8043   */\n    tag_215:\n        /* \"#utility.yul\":8068:8069   */\n      dup3\n        /* \"#utility.yul\":8065:8066   */\n      dup3\n        /* \"#utility.yul\":8061:8070   */\n      sub\n        /* \"#utility.yul\":8053:8070   */\n      swap1\n      pop\n        /* \"#utility.yul\":7885:8076   */\n      swap3\n      swap2\n      pop\n      pop\n      jump\t// out\n        /* \"#utility.yul\":8082:8178   */\n    tag_168:\n        /* \"#utility.yul\":8119:8126   */\n      0x00\n        /* \"#utility.yul\":8148:8172   */\n      tag_219\n        /* \"#utility.yul\":8166:8171   */\n      dup3\n        /* \"#utility.yul\":8148:8172   */\n      tag_220\n      jump\t// in\n    tag_219:\n        /* \"#utility.yul\":8137:8172   */\n      swap1\n      pop\n        /* \"#utility.yul\":8082:8178   */\n      swap2\n      swap1\n      pop\n      jump\t// out\n        /* \"#utility.yul\":8184:8261   */\n    tag_172:\n        /* \"#utility.yul\":8221:8228   */\n      0x00\n        /* \"#utility.yul\":8250:8255   */\n      dup2\n        /* \"#utility.yul\":8239:8255   */\n      swap1\n      pop\n        /* \"#utility.yul\":8184:8261   */\n      swap2\n      swap1\n      pop\n      jump\t// out\n        /* \"#utility.yul\":8267:8393   */\n    tag_220:\n        /* \"#utility.yul\":8304:8311   */\n      0x00\n        /* \"#utility.yul\":8344:8386   */\n      0xffffffffffffffffffffffffffffffffffffffff\n        /* \"#utility.yul\":8337:8342   */\n      dup3\n        /* \"#utility.yul\":8333:8387   */\n      and\n        /* \"#utility.yul\":8322:8387   */\n      swap1\n      pop\n        /* \"#utility.yul\":8267:8393   */\n      swap2\n      swap1\n      pop\n      jump\t// out\n        /* \"#utility.yul\":8399:8476   */\n    tag_187:\n        /* \"#utility.yul\":8436:8443   */\n      0x00\n        /* \"#utility.yul\":8465:8470   */\n      dup2\n        /* \"#utility.yul\":8454:8470   */\n      swap1\n      pop\n        /* \"#utility.yul\":8399:8476   */\n      swap2\n      swap1\n      pop\n      jump\t// out\n        /* \"#utility.yul\":8482:8763   */\n    tag_205:\n        /* \"#utility.yul\":8565:8592   */\n      tag_225\n        /* \"#utility.yul\":8587:8591   */\n      dup3\n        /* \"#utility.yul\":8565:8592   */\n      tag_226\n      jump\t// in\n    tag_225:\n        /* \"#utility.yul\":8557:8563   */\n      dup2\n        /* \"#utility.yul\":8553:8593   */\n      add\n        /* \"#utility.yul\":8695:8701   */\n      dup2\n        /* \"#utility.yul\":8683:8693   */\n      dup2\n        /* \"#utility.yul\":8680:8702   */\n      lt\n        /* \"#utility.yul\":8659:8677   */\n      0xffffffffffffffff\n        /* \"#utility.yul\":8647:8657   */\n      dup3\n        /* \"#utility.yul\":8644:8678   */\n      gt\n        /* \"#utility.yul\":8641:8703   */\n      or\n        /* \"#utility.yul\":8638:8726   */\n      iszero\n      tag_227\n      jumpi\n        /* \"#utility.yul\":8706:8724   */\n      tag_228\n      tag_210\n      jump\t// in\n    tag_228:\n        /* \"#utility.yul\":8638:8726   */\n    tag_227:\n        /* \"#utility.yul\":8746:8756   */\n      dup1\n        /* \"#utility.yul\":8742:8744   */\n      0x40\n        /* \"#utility.yul\":8735:8757   */\n      mstore\n        /* \"#utility.yul\":8525:8763   */\n      pop\n        /* \"#utility.yul\":8482:8763   */\n      pop\n      pop\n      jump\t// out\n        /* \"#utility.yul\":8769:9002   */\n    tag_55:\n        /* \"#utility.yul\":8808:8811   */\n      0x00\n        /* \"#utility.yul\":8831:8855   */\n      tag_230\n        /* \"#utility.yul\":8849:8854   */\n      dup3\n        /* \"#utility.yul\":8831:8855   */\n      tag_187\n      jump\t// in\n    tag_230:\n        /* \"#utility.yul\":8822:8855   */\n      swap2\n      pop\n        /* \"#utility.yul\":8877:8943   */\n      0xffffffffffffffffffffffffffffffffffffffffffffffffffffffffffffffff\n        /* \"#utility.yul\":8870:8875   */\n      dup3\n        /* \"#utility.yul\":8867:8944   */\n      eq\n        /* \"#utility.yul\":8864:8967   */\n      iszero\n      tag_231\n      jumpi\n        /* \"#utility.yul\":8947:8965   */\n      tag_232\n      tag_217\n      jump\t// in\n    tag_232:\n        /* \"#utility.yul\":8864:8967   */\n    tag_231:\n        /* \"#utility.yul\":8994:8995   */\n      0x01\n        /* \"#utility.yul\":8987:8992   */\n      dup3\n        /* \"#utility.yul\":8983:8996   */\n      add\n        /* \"#utility.yul\":8976:8996   */\n      swap1\n      pop\n        /* \"#utility.yul\":8769:9002   */\n      swap2\n      swap1\n      pop\n      jump\t// out\n        /* \"#utility.yul\":9008:9188   */\n    tag_217:\n        /* \"#utility.yul\":9056:9133   */\n      0x4e487b7100000000000000000000000000000000000000000000000000000000\n        /* \"#utility.yul\":9053:9054   */\n      0x00\n        /* \"#utility.yul\":9046:9134   */\n      mstore\n        /* \"#utility.yul\":9153:9157   */\n      0x11\n        /* \"#utility.yul\":9150:9151   */\n      0x04\n        /* \"#utility.yul\":9143:9158   */\n      mstore\n        /* \"#utility.yul\":9177:9181   */\n      0x24\n        /* \"#utility.yul\":9174:9175   */\n      0x00\n        /* \"#utility.yul\":9167:9182   */\n      revert\n        /* \"#utility.yul\":9194:9374   */\n    tag_87:\n        /* \"#utility.yul\":9242:9319   */\n      0x4e487b7100000000000000000000000000000000000000000000000000000000\n        /* \"#utility.yul\":9239:9240   */\n      0x00\n        /* \"#utility.yul\":9232:9320   */\n      mstore\n        /* \"#utility.yul\":9339:9343   */\n      0x32\n        /* \"#utility.yul\":9336:9337   */\n      0x04\n        /* \"#utility.yul\":9329:9344   */\n      mstore\n        /* \"#utility.yul\":9363:9367   */\n      0x24\n        /* \"#utility.yul\":9360:9361   */\n      0x00\n        /* \"#utility.yul\":9353:9368   */\n      revert\n        /* \"#utility.yul\":9380:9560   */\n    tag_210:\n        /* \"#utility.yul\":9428:9505   */\n      0x4e487b7100000000000000000000000000000000000000000000000000000000\n        /* \"#utility.yul\":9425:9426   */\n      0x00\n        /* \"#utility.yul\":9418:9506   */\n      mstore\n        /* \"#utility.yul\":9525:9529   */\n      0x41\n        /* \"#utility.yul\":9522:9523   */\n      0x04\n        /* \"#utility.yul\":9515:9530   */\n      mstore\n        /* \"#utility.yul\":9549:9553   */\n      0x24\n        /* \"#utility.yul\":9546:9547   */\n      0x00\n        /* \"#utility.yul\":9539:9554   */\n      revert\n        /* \"#utility.yul\":9566:9683   */\n    tag_126:\n        /* \"#utility.yul\":9675:9676   */\n      0x00\n        /* \"#utility.yul\":9672:9673   */\n      dup1\n        /* \"#utility.yul\":9665:9677   */\n      revert\n        /* \"#utility.yul\":9689:9806   */\n    tag_113:\n        /* \"#utility.yul\":9798:9799   */\n      0x00\n        /* \"#utility.yul\":9795:9796   */\n      dup1\n        /* \"#utility.yul\":9788:9800   */\n      revert\n        /* \"#utility.yul\":9812:9929   */\n    tag_147:\n        /* \"#utility.yul\":9921:9922   */\n      0x00\n        /* \"#utility.yul\":9918:9919   */\n      dup1\n        /* \"#utility.yul\":9911:9923   */\n      revert\n        /* \"#utility.yul\":9935:10052   */\n    tag_139:\n        /* \"#utility.yul\":10044:10045   */\n      0x00\n        /* \"#utility.yul\":10041:10042   */\n      dup1\n        /* \"#utility.yul\":10034:10046   */\n      revert\n        /* \"#utility.yul\":10058:10160   */\n    tag_226:\n        /* \"#utility.yul\":10099:10105   */\n      0x00\n        /* \"#utility.yul\":10150:10152   */\n      0x1f\n        /* \"#utility.yul\":10146:10153   */\n      not\n        /* \"#utility.yul\":10141:10143   */\n      0x1f\n        /* \"#utility.yul\":10134:10139   */\n      dup4\n        /* \"#utility.yul\":10130:10144   */\n      add\n        /* \"#utility.yul\":10126:10154   */\n      and\n        /* \"#utility.yul\":10116:10154   */\n      swap1\n      pop\n        /* \"#utility.yul\":10058:10160   */\n      swap2\n      swap1\n      pop\n      jump\t// out\n        /* \"#utility.yul\":10166:10325   */\n    tag_178:\n        /* \"#utility.yul\":10306:10317   */\n      0x57726f6e67206b65790000000000000000000000000000000000000000000000\n        /* \"#utility.yul\":10302:10303   */\n      0x00\n        /* \"#utility.yul\":10294:10300   */\n      dup3\n        /* \"#utility.yul\":10290:10304   */\n      add\n        /* \"#utility.yul\":10283:10318   */\n      mstore\n        /* \"#utility.yul\":10166:10325   */\n      pop\n      jump\t// out\n        /* \"#utility.yul\":10331:10494   */\n    tag_183:\n        /* \"#utility.yul\":10471:10486   */\n      0x4e6f205065726d697373696f6e00000000000000000000000000000000000000\n        /* \"#utility.yul\":10467:10468   */\n      0x00\n        /* \"#utility.yul\":10459:10465   */\n      dup3\n        /* \"#utility.yul\":10455:10469   */\n      add\n        /* \"#utility.yul\":10448:10487   */\n      mstore\n        /* \"#utility.yul\":10331:10494   */\n      pop\n      jump\t// out\n        /* \"#utility.yul\":10500:10622   */\n    tag_121:\n        /* \"#utility.yul\":10573:10597   */\n      tag_244\n        /* \"#utility.yul\":10591:10596   */\n      dup2\n        /* \"#utility.yul\":10573:10597   */\n      tag_168\n      jump\t// in\n    tag_244:\n        /* \"#utility.yul\":10566:10571   */\n      dup2\n        /* \"#utility.yul\":10563:10598   */\n      eq\n        /* \"#utility.yul\":10553:10616   */\n      tag_245\n      jumpi\n        /* \"#utility.yul\":10612:10613   */\n      0x00\n        /* \"#utility.yul\":10609:10610   */\n      dup1\n        /* \"#utility.yul\":10602:10614   */\n      revert\n        /* \"#utility.yul\":10553:10616   */\n    tag_245:\n        /* \"#utility.yul\":10500:10622   */\n      pop\n      jump\t// out\n        /* \"#utility.yul\":10628:10750   */\n    tag_131:\n        /* \"#utility.yul\":10701:10725   */\n      tag_247\n        /* \"#utility.yul\":10719:10724   */\n      dup2\n        /* \"#utility.yul\":10701:10725   */\n      tag_172\n      jump\t// in\n    tag_247:\n        /* \"#utility.yul\":10694:10699   */\n      dup2\n        /* \"#utility.yul\":10691:10726   */\n      eq\n        /* \"#utility.yul\":10681:10744   */\n      tag_248\n      jumpi\n        /* \"#utility.yul\":10740:10741   */\n      0x00\n        /* \"#utility.yul\":10737:10738   */\n      dup1\n        /* \"#utility.yul\":10730:10742   */\n      revert\n        /* \"#utility.yul\":10681:10744   */\n    tag_248:\n        /* \"#utility.yul\":10628:10750   */\n      pop\n      jump\t// out\n        /* \"#utility.yul\":10756:10878   */\n    tag_135:\n        /* \"#utility.yul\":10829:10853   */\n      tag_250\n        /* \"#utility.yul\":10847:10852   */\n      dup2\n        /* \"#utility.yul\":10829:10853   */\n      tag_187\n      jump\t// in\n    tag_250:\n        /* \"#utility.yul\":10822:10827   */\n      dup2\n        /* \"#utility.yul\":10819:10854   */\n      eq\n        /* \"#utility.yul\":10809:10872   */\n      tag_251\n      jumpi\n        /* \"#utility.yul\":10868:10869   */\n      0x00\n        /* \"#utility.yul\":10865:10866   */\n      dup1\n        /* \"#utility.yul\":10858:10870   */\n      revert\n        /* \"#utility.yul\":10809:10872   */\n    tag_251:\n        /* \"#utility.yul\":10756:10878   */\n      pop\n      jump\t// out\n\n    auxdata: 0xa26469706673582212200df8fea1606943d5be754c700edcb0d123c33406f4e6dafa108ca84540076dec64736f6c63430008070033\n}\n",
				"bytecode": {
					"linkReferences": {},
					"object": "608060405234801561001057600080fd5b50336000806101000a81548173ffffffffffffffffffffffffffffffffffffffff021916908373ffffffffffffffffffffffffffffffffffffffff160217905550611102806100606000396000f3fe608060405234801561001057600080fd5b50600436106100885760003560e01c8063d6f937e51161005b578063d6f937e5146100fd578063e28ee1201461012d578063fb5babd814610149578063fea9b7171461016557610088565b806350fae1d21461008d5780638aa430af146100a9578063a4db23fc146100c5578063d0350b59146100e1575b600080fd5b6100a760048036038101906100a29190610be4565b610181565b005b6100c360048036038101906100be9190610c93565b6101b0565b005b6100df60048036038101906100da9190610c93565b61031f565b005b6100fb60048036038101906100f69190610c40565b610466565b005b61011760048036038101906101129190610ba4565b6105fd565b6040516101249190610db7565b60405180910390f35b61014760048036038101906101429190610c93565b6106ea565b005b610163600480360381019061015e9190610be4565b6107b2565b005b61017f600480360381019061017a9190610cc0565b610888565b005b816001600083815260200190815260200160002060070190805190602001906101ab929190610a20565b505050565b600180600083815260200190815260200160002060010154146101d257600080fd5b60008054906101000a900473ffffffffffffffffffffffffffffffffffffffff1673ffffffffffffffffffffffffffffffffffffffff163373ffffffffffffffffffffffffffffffffffffffff1614610260576040517f08c379a000000000000000000000000000000000000000000000000000000000815260040161025790610df2565b60405180910390fd5b60016000828152602001908152602001600020600301544260016000848152602001908152602001600020600201546102999190610e8f565b116102a357600080fd5b6001600082815260200190815260200160002060010160008154809291906102ca90610f3a565b91905055507f13ab142ea11faae224e222f624b4c09d6484b062ceef1149fa6c3811f7bb9a7a60016000838152602001908152602001600020600201546040516103149190610e12565b60405180910390a150565b6001806000838152602001908152602001600020600101541061034157600080fd5b60008054906101000a900473ffffffffffffffffffffffffffffffffffffffff1673ffffffffffffffffffffffffffffffffffffffff163373ffffffffffffffffffffffffffffffffffffffff16146103cf576040517f08c379a00000000000000000000000000000000000000000000000000000000081526004016103c690610df2565b60405180910390fd5b6001600082815260200190815260200160002060010160008154809291906103f690610f3a565b91905055504260016000838152602001908152602001600020600201819055507fe65838d33ea2cb78d9b73133801f9f2e0b7ba37edfa34983b3209d4309c68d01600160008381526020019081526020016000206002015460405161045b9190610e12565b60405180910390a150565b6001806000848152602001908152602001600020600101541461048857600080fd5b60016000838152602001908152602001600020600801600082815260200190815260200160002060009054906101000a900473ffffffffffffffffffffffffffffffffffffffff1673ffffffffffffffffffffffffffffffffffffffff163373ffffffffffffffffffffffffffffffffffffffff161461053d576040517f08c379a000000000000000000000000000000000000000000000000000000000815260040161053490610dd2565b60405180910390fd5b826001600084815260200190815260200160002060090160003373ffffffffffffffffffffffffffffffffffffffff1673ffffffffffffffffffffffffffffffffffffffff168152602001908152602001600020819055506001600083815260200190815260200160002060050160008154809291906105bc90610f3a565b91905055507ffa031a8df385ffa120ab85b1ef5f8e5ea3fa0288cf068ba3d05a152d87026a09336040516105f09190610d73565b60405180910390a1505050565b60008060009054906101000a900473ffffffffffffffffffffffffffffffffffffffff1673ffffffffffffffffffffffffffffffffffffffff163373ffffffffffffffffffffffffffffffffffffffff161461068e576040517f08c379a000000000000000000000000000000000000000000000000000000000815260040161068590610df2565b60405180910390fd5b6001600083815260200190815260200160002060090160008473ffffffffffffffffffffffffffffffffffffffff1673ffffffffffffffffffffffffffffffffffffffff16815260200190815260200160002054905092915050565b60008054906101000a900473ffffffffffffffffffffffffffffffffffffffff1673ffffffffffffffffffffffffffffffffffffffff163373ffffffffffffffffffffffffffffffffffffffff1614610778576040517f08c379a000000000000000000000000000000000000000000000000000000000815260040161076f90610df2565b60405180910390fd5b8060016000838152602001908152602001600020600001819055506000600160008381526020019081526020016000206001018190555050565b60008054906101000a900473ffffffffffffffffffffffffffffffffffffffff1673ffffffffffffffffffffffffffffffffffffffff163373ffffffffffffffffffffffffffffffffffffffff1614610840576040517f08c379a000000000000000000000000000000000000000000000000000000000815260040161083790610df2565b60405180910390fd5b60005b82518110156108835761087083828151811061086257610861610fb2565b5b602002602001015183610935565b808061087b90610f3a565b915050610843565b505050565b60008054906101000a900473ffffffffffffffffffffffffffffffffffffffff1673ffffffffffffffffffffffffffffffffffffffff163373ffffffffffffffffffffffffffffffffffffffff1614610916576040517f08c379a000000000000000000000000000000000000000000000000000000000815260040161090d90610df2565b60405180910390fd5b8160016000838152602001908152602001600020600301819055505050565b6000600160008381526020019081526020016000206004015490508260016000848152602001908152602001600020600801600083815260200190815260200160002060006101000a81548173ffffffffffffffffffffffffffffffffffffffff021916908373ffffffffffffffffffffffffffffffffffffffff1602179055506001600083815260200190815260200160002060040160008154809291906109dd90610f3a565b91905055507f4ad260fdb84f8458e9ae5bfb9f78b3a60d8daeba55271ac59884c0f6cb4e04358382604051610a13929190610d8e565b60405180910390a1505050565b828054828255906000526020600020908101928215610a99579160200282015b82811115610a985782518260006101000a81548173ffffffffffffffffffffffffffffffffffffffff021916908373ffffffffffffffffffffffffffffffffffffffff16021790555091602001919060010190610a40565b5b509050610aa69190610aaa565b5090565b5b80821115610ac3576000816000905550600101610aab565b5090565b6000610ada610ad584610e52565b610e2d565b90508083825260208201905082856020860282011115610afd57610afc611015565b5b60005b85811015610b2d5781610b138882610b37565b845260208401935060208301925050600181019050610b00565b5050509392505050565b600081359050610b4681611087565b92915050565b600082601f830112610b6157610b60611010565b5b8135610b71848260208601610ac7565b91505092915050565b600081359050610b898161109e565b92915050565b600081359050610b9e816110b5565b92915050565b60008060408385031215610bbb57610bba61101f565b5b6000610bc985828601610b37565b9250506020610bda85828601610b8f565b9150509250929050565b60008060408385031215610bfb57610bfa61101f565b5b600083013567ffffffffffffffff811115610c1957610c1861101a565b5b610c2585828601610b4c565b9250506020610c3685828601610b8f565b9150509250929050565b600080600060608486031215610c5957610c5861101f565b5b6000610c6786828701610b7a565b9350506020610c7886828701610b8f565b9250506040610c8986828701610b8f565b9150509250925092565b600060208284031215610ca957610ca861101f565b5b6000610cb784828501610b8f565b91505092915050565b60008060408385031215610cd757610cd661101f565b5b6000610ce585828601610b8f565b9250506020610cf685828601610b8f565b9150509250929050565b610d0981610ec3565b82525050565b610d1881610ed5565b82525050565b6000610d2b600983610e7e565b9150610d3682611035565b602082019050919050565b6000610d4e600d83610e7e565b9150610d598261105e565b602082019050919050565b610d6d81610eff565b82525050565b6000602082019050610d886000830184610d00565b92915050565b6000604082019050610da36000830185610d00565b610db06020830184610d64565b9392505050565b6000602082019050610dcc6000830184610d0f565b92915050565b60006020820190508181036000830152610deb81610d1e565b9050919050565b60006020820190508181036000830152610e0b81610d41565b9050919050565b6000602082019050610e276000830184610d64565b92915050565b6000610e37610e48565b9050610e438282610f09565b919050565b6000604051905090565b600067ffffffffffffffff821115610e6d57610e6c610fe1565b5b602082029050602081019050919050565b600082825260208201905092915050565b6000610e9a82610eff565b9150610ea583610eff565b925082821015610eb857610eb7610f83565b5b828203905092915050565b6000610ece82610edf565b9050919050565b6000819050919050565b600073ffffffffffffffffffffffffffffffffffffffff82169050919050565b6000819050919050565b610f1282611024565b810181811067ffffffffffffffff82111715610f3157610f30610fe1565b5b80604052505050565b6000610f4582610eff565b91507fffffffffffffffffffffffffffffffffffffffffffffffffffffffffffffffff821415610f7857610f77610f83565b5b600182019050919050565b7f4e487b7100000000000000000000000000000000000000000000000000000000600052601160045260246000fd5b7f4e487b7100000000000000000000000000000000000000000000000000000000600052603260045260246000fd5b7f4e487b7100000000000000000000000000000000000000000000000000000000600052604160045260246000fd5b600080fd5b600080fd5b600080fd5b600080fd5b6000601f19601f8301169050919050565b7f57726f6e67206b65790000000000000000000000000000000000000000000000600082015250565b7f4e6f205065726d697373696f6e00000000000000000000000000000000000000600082015250565b61109081610ec3565b811461109b57600080fd5b50565b6110a781610ed5565b81146110b257600080fd5b50565b6110be81610eff565b81146110c957600080fd5b5056fea26469706673582212200df8fea1606943d5be754c700edcb0d123c33406f4e6dafa108ca84540076dec64736f6c63430008070033",
					"opcodes": "PUSH1 0x80 PUSH1 0x40 MSTORE CALLVALUE DUP1 ISZERO PUSH2 0x10 JUMPI PUSH1 0x0 DUP1 REVERT JUMPDEST POP CALLER PUSH1 0x0 DUP1 PUSH2 0x100 EXP DUP2 SLOAD DUP2 PUSH20 0xFFFFFFFFFFFFFFFFFFFFFFFFFFFFFFFFFFFFFFFF MUL NOT AND SWAP1 DUP4 PUSH20 0xFFFFFFFFFFFFFFFFFFFFFFFFFFFFFFFFFFFFFFFF AND MUL OR SWAP1 SSTORE POP PUSH2 0x1102 DUP1 PUSH2 0x60 PUSH1 0x0 CODECOPY PUSH1 0x0 RETURN INVALID PUSH1 0x80 PUSH1 0x40 MSTORE CALLVALUE DUP1 ISZERO PUSH2 0x10 JUMPI PUSH1 0x0 DUP1 REVERT JUMPDEST POP PUSH1 0x4 CALLDATASIZE LT PUSH2 0x88 JUMPI PUSH1 0x0 CALLDATALOAD PUSH1 0xE0 SHR DUP1 PUSH4 0xD6F937E5 GT PUSH2 0x5B JUMPI DUP1 PUSH4 0xD6F937E5 EQ PUSH2 0xFD JUMPI DUP1 PUSH4 0xE28EE120 EQ PUSH2 0x12D JUMPI DUP1 PUSH4 0xFB5BABD8 EQ PUSH2 0x149 JUMPI DUP1 PUSH4 0xFEA9B717 EQ PUSH2 0x165 JUMPI PUSH2 0x88 JUMP JUMPDEST DUP1 PUSH4 0x50FAE1D2 EQ PUSH2 0x8D JUMPI DUP1 PUSH4 0x8AA430AF EQ PUSH2 0xA9 JUMPI DUP1 PUSH4 0xA4DB23FC EQ PUSH2 0xC5 JUMPI DUP1 PUSH4 0xD0350B59 EQ PUSH2 0xE1 JUMPI JUMPDEST PUSH1 0x0 DUP1 REVERT JUMPDEST PUSH2 0xA7 PUSH1 0x4 DUP1 CALLDATASIZE SUB DUP2 ADD SWAP1 PUSH2 0xA2 SWAP2 SWAP1 PUSH2 0xBE4 JUMP JUMPDEST PUSH2 0x181 JUMP JUMPDEST STOP JUMPDEST PUSH2 0xC3 PUSH1 0x4 DUP1 CALLDATASIZE SUB DUP2 ADD SWAP1 PUSH2 0xBE SWAP2 SWAP1 PUSH2 0xC93 JUMP JUMPDEST PUSH2 0x1B0 JUMP JUMPDEST STOP JUMPDEST PUSH2 0xDF PUSH1 0x4 DUP1 CALLDATASIZE SUB DUP2 ADD SWAP1 PUSH2 0xDA SWAP2 SWAP1 PUSH2 0xC93 JUMP JUMPDEST PUSH2 0x31F JUMP JUMPDEST STOP JUMPDEST PUSH2 0xFB PUSH1 0x4 DUP1 CALLDATASIZE SUB DUP2 ADD SWAP1 PUSH2 0xF6 SWAP2 SWAP1 PUSH2 0xC40 JUMP JUMPDEST PUSH2 0x466 JUMP JUMPDEST STOP JUMPDEST PUSH2 0x117 PUSH1 0x4 DUP1 CALLDATASIZE SUB DUP2 ADD SWAP1 PUSH2 0x112 SWAP2 SWAP1 PUSH2 0xBA4 JUMP JUMPDEST PUSH2 0x5FD JUMP JUMPDEST PUSH1 0x40 MLOAD PUSH2 0x124 SWAP2 SWAP1 PUSH2 0xDB7 JUMP JUMPDEST PUSH1 0x40 MLOAD DUP1 SWAP2 SUB SWAP1 RETURN JUMPDEST PUSH2 0x147 PUSH1 0x4 DUP1 CALLDATASIZE SUB DUP2 ADD SWAP1 PUSH2 0x142 SWAP2 SWAP1 PUSH2 0xC93 JUMP JUMPDEST PUSH2 0x6EA JUMP JUMPDEST STOP JUMPDEST PUSH2 0x163 PUSH1 0x4 DUP1 CALLDATASIZE SUB DUP2 ADD SWAP1 PUSH2 0x15E SWAP2 SWAP1 PUSH2 0xBE4 JUMP JUMPDEST PUSH2 0x7B2 JUMP JUMPDEST STOP JUMPDEST PUSH2 0x17F PUSH1 0x4 DUP1 CALLDATASIZE SUB DUP2 ADD SWAP1 PUSH2 0x17A SWAP2 SWAP1 PUSH2 0xCC0 JUMP JUMPDEST PUSH2 0x888 JUMP JUMPDEST STOP JUMPDEST DUP2 PUSH1 0x1 PUSH1 0x0 DUP4 DUP2 MSTORE PUSH1 0x20 ADD SWAP1 DUP2 MSTORE PUSH1 0x20 ADD PUSH1 0x0 KECCAK256 PUSH1 0x7 ADD SWAP1 DUP1 MLOAD SWAP1 PUSH1 0x20 ADD SWAP1 PUSH2 0x1AB SWAP3 SWAP2 SWAP1 PUSH2 0xA20 JUMP JUMPDEST POP POP POP JUMP JUMPDEST PUSH1 0x1 DUP1 PUSH1 0x0 DUP4 DUP2 MSTORE PUSH1 0x20 ADD SWAP1 DUP2 MSTORE PUSH1 0x20 ADD PUSH1 0x0 KECCAK256 PUSH1 0x1 ADD SLOAD EQ PUSH2 0x1D2 JUMPI PUSH1 0x0 DUP1 REVERT JUMPDEST PUSH1 0x0 DUP1 SLOAD SWAP1 PUSH2 0x100 EXP SWAP1 DIV PUSH20 0xFFFFFFFFFFFFFFFFFFFFFFFFFFFFFFFFFFFFFFFF AND PUSH20 0xFFFFFFFFFFFFFFFFFFFFFFFFFFFFFFFFFFFFFFFF AND CALLER PUSH20 0xFFFFFFFFFFFFFFFFFFFFFFFFFFFFFFFFFFFFFFFF AND EQ PUSH2 0x260 JUMPI PUSH1 0x40 MLOAD PUSH32 0x8C379A000000000000000000000000000000000000000000000000000000000 DUP2 MSTORE PUSH1 0x4 ADD PUSH2 0x257 SWAP1 PUSH2 0xDF2 JUMP JUMPDEST PUSH1 0x40 MLOAD DUP1 SWAP2 SUB SWAP1 REVERT JUMPDEST PUSH1 0x1 PUSH1 0x0 DUP3 DUP2 MSTORE PUSH1 0x20 ADD SWAP1 DUP2 MSTORE PUSH1 0x20 ADD PUSH1 0x0 KECCAK256 PUSH1 0x3 ADD SLOAD TIMESTAMP PUSH1 0x1 PUSH1 0x0 DUP5 DUP2 MSTORE PUSH1 0x20 ADD SWAP1 DUP2 MSTORE PUSH1 0x20 ADD PUSH1 0x0 KECCAK256 PUSH1 0x2 ADD SLOAD PUSH2 0x299 SWAP2 SWAP1 PUSH2 0xE8F JUMP JUMPDEST GT PUSH2 0x2A3 JUMPI PUSH1 0x0 DUP1 REVERT JUMPDEST PUSH1 0x1 PUSH1 0x0 DUP3 DUP2 MSTORE PUSH1 0x20 ADD SWAP1 DUP2 MSTORE PUSH1 0x20 ADD PUSH1 0x0 KECCAK256 PUSH1 0x1 ADD PUSH1 0x0 DUP2 SLOAD DUP1 SWAP3 SWAP2 SWAP1 PUSH2 0x2CA SWAP1 PUSH2 0xF3A JUMP JUMPDEST SWAP2 SWAP1 POP SSTORE POP PUSH32 0x13AB142EA11FAAE224E222F624B4C09D6484B062CEEF1149FA6C3811F7BB9A7A PUSH1 0x1 PUSH1 0x0 DUP4 DUP2 MSTORE PUSH1 0x20 ADD SWAP1 DUP2 MSTORE PUSH1 0x20 ADD PUSH1 0x0 KECCAK256 PUSH1 0x2 ADD SLOAD PUSH1 0x40 MLOAD PUSH2 0x314 SWAP2 SWAP1 PUSH2 0xE12 JUMP JUMPDEST PUSH1 0x40 MLOAD DUP1 SWAP2 SUB SWAP1 LOG1 POP JUMP JUMPDEST PUSH1 0x1 DUP1 PUSH1 0x0 DUP4 DUP2 MSTORE PUSH1 0x20 ADD SWAP1 DUP2 MSTORE PUSH1 0x20 ADD PUSH1 0x0 KECCAK256 PUSH1 0x1 ADD SLOAD LT PUSH2 0x341 JUMPI PUSH1 0x0 DUP1 REVERT JUMPDEST PUSH1 0x0 DUP1 SLOAD SWAP1 PUSH2 0x100 EXP SWAP1 DIV PUSH20 0xFFFFFFFFFFFFFFFFFFFFFFFFFFFFFFFFFFFFFFFF AND PUSH20 0xFFFFFFFFFFFFFFFFFFFFFFFFFFFFFFFFFFFFFFFF AND CALLER PUSH20 0xFFFFFFFFFFFFFFFFFFFFFFFFFFFFFFFFFFFFFFFF AND EQ PUSH2 0x3CF JUMPI PUSH1 0x40 MLOAD PUSH32 0x8C379A000000000000000000000000000000000000000000000000000000000 DUP2 MSTORE PUSH1 0x4 ADD PUSH2 0x3C6 SWAP1 PUSH2 0xDF2 JUMP JUMPDEST PUSH1 0x40 MLOAD DUP1 SWAP2 SUB SWAP1 REVERT JUMPDEST PUSH1 0x1 PUSH1 0x0 DUP3 DUP2 MSTORE PUSH1 0x20 ADD SWAP1 DUP2 MSTORE PUSH1 0x20 ADD PUSH1 0x0 KECCAK256 PUSH1 0x1 ADD PUSH1 0x0 DUP2 SLOAD DUP1 SWAP3 SWAP2 SWAP1 PUSH2 0x3F6 SWAP1 PUSH2 0xF3A JUMP JUMPDEST SWAP2 SWAP1 POP SSTORE POP TIMESTAMP PUSH1 0x1 PUSH1 0x0 DUP4 DUP2 MSTORE PUSH1 0x20 ADD SWAP1 DUP2 MSTORE PUSH1 0x20 ADD PUSH1 0x0 KECCAK256 PUSH1 0x2 ADD DUP2 SWAP1 SSTORE POP PUSH32 0xE65838D33EA2CB78D9B73133801F9F2E0B7BA37EDFA34983B3209D4309C68D01 PUSH1 0x1 PUSH1 0x0 DUP4 DUP2 MSTORE PUSH1 0x20 ADD SWAP1 DUP2 MSTORE PUSH1 0x20 ADD PUSH1 0x0 KECCAK256 PUSH1 0x2 ADD SLOAD PUSH1 0x40 MLOAD PUSH2 0x45B SWAP2 SWAP1 PUSH2 0xE12 JUMP JUMPDEST PUSH1 0x40 MLOAD DUP1 SWAP2 SUB SWAP1 LOG1 POP JUMP JUMPDEST PUSH1 0x1 DUP1 PUSH1 0x0 DUP5 DUP2 MSTORE PUSH1 0x20 ADD SWAP1 DUP2 MSTORE PUSH1 0x20 ADD PUSH1 0x0 KECCAK256 PUSH1 0x1 ADD SLOAD EQ PUSH2 0x488 JUMPI PUSH1 0x0 DUP1 REVERT JUMPDEST PUSH1 0x1 PUSH1 0x0 DUP4 DUP2 MSTORE PUSH1 0x20 ADD SWAP1 DUP2 MSTORE PUSH1 0x20 ADD PUSH1 0x0 KECCAK256 PUSH1 0x8 ADD PUSH1 0x0 DUP3 DUP2 MSTORE PUSH1 0x20 ADD SWAP1 DUP2 MSTORE PUSH1 0x20 ADD PUSH1 0x0 KECCAK256 PUSH1 0x0 SWAP1 SLOAD SWAP1 PUSH2 0x100 EXP SWAP1 DIV PUSH20 0xFFFFFFFFFFFFFFFFFFFFFFFFFFFFFFFFFFFFFFFF AND PUSH20 0xFFFFFFFFFFFFFFFFFFFFFFFFFFFFFFFFFFFFFFFF AND CALLER PUSH20 0xFFFFFFFFFFFFFFFFFFFFFFFFFFFFFFFFFFFFFFFF AND EQ PUSH2 0x53D JUMPI PUSH1 0x40 MLOAD PUSH32 0x8C379A000000000000000000000000000000000000000000000000000000000 DUP2 MSTORE PUSH1 0x4 ADD PUSH2 0x534 SWAP1 PUSH2 0xDD2 JUMP JUMPDEST PUSH1 0x40 MLOAD DUP1 SWAP2 SUB SWAP1 REVERT JUMPDEST DUP3 PUSH1 0x1 PUSH1 0x0 DUP5 DUP2 MSTORE PUSH1 0x20 ADD SWAP1 DUP2 MSTORE PUSH1 0x20 ADD PUSH1 0x0 KECCAK256 PUSH1 0x9 ADD PUSH1 0x0 CALLER PUSH20 0xFFFFFFFFFFFFFFFFFFFFFFFFFFFFFFFFFFFFFFFF AND PUSH20 0xFFFFFFFFFFFFFFFFFFFFFFFFFFFFFFFFFFFFFFFF AND DUP2 MSTORE PUSH1 0x20 ADD SWAP1 DUP2 MSTORE PUSH1 0x20 ADD PUSH1 0x0 KECCAK256 DUP2 SWAP1 SSTORE POP PUSH1 0x1 PUSH1 0x0 DUP4 DUP2 MSTORE PUSH1 0x20 ADD SWAP1 DUP2 MSTORE PUSH1 0x20 ADD PUSH1 0x0 KECCAK256 PUSH1 0x5 ADD PUSH1 0x0 DUP2 SLOAD DUP1 SWAP3 SWAP2 SWAP1 PUSH2 0x5BC SWAP1 PUSH2 0xF3A JUMP JUMPDEST SWAP2 SWAP1 POP SSTORE POP PUSH32 0xFA031A8DF385FFA120AB85B1EF5F8E5EA3FA0288CF068BA3D05A152D87026A09 CALLER PUSH1 0x40 MLOAD PUSH2 0x5F0 SWAP2 SWAP1 PUSH2 0xD73 JUMP JUMPDEST PUSH1 0x40 MLOAD DUP1 SWAP2 SUB SWAP1 LOG1 POP POP POP JUMP JUMPDEST PUSH1 0x0 DUP1 PUSH1 0x0 SWAP1 SLOAD SWAP1 PUSH2 0x100 EXP SWAP1 DIV PUSH20 0xFFFFFFFFFFFFFFFFFFFFFFFFFFFFFFFFFFFFFFFF AND PUSH20 0xFFFFFFFFFFFFFFFFFFFFFFFFFFFFFFFFFFFFFFFF AND CALLER PUSH20 0xFFFFFFFFFFFFFFFFFFFFFFFFFFFFFFFFFFFFFFFF AND EQ PUSH2 0x68E JUMPI PUSH1 0x40 MLOAD PUSH32 0x8C379A000000000000000000000000000000000000000000000000000000000 DUP2 MSTORE PUSH1 0x4 ADD PUSH2 0x685 SWAP1 PUSH2 0xDF2 JUMP JUMPDEST PUSH1 0x40 MLOAD DUP1 SWAP2 SUB SWAP1 REVERT JUMPDEST PUSH1 0x1 PUSH1 0x0 DUP4 DUP2 MSTORE PUSH1 0x20 ADD SWAP1 DUP2 MSTORE PUSH1 0x20 ADD PUSH1 0x0 KECCAK256 PUSH1 0x9 ADD PUSH1 0x0 DUP5 PUSH20 0xFFFFFFFFFFFFFFFFFFFFFFFFFFFFFFFFFFFFFFFF AND PUSH20 0xFFFFFFFFFFFFFFFFFFFFFFFFFFFFFFFFFFFFFFFF AND DUP2 MSTORE PUSH1 0x20 ADD SWAP1 DUP2 MSTORE PUSH1 0x20 ADD PUSH1 0x0 KECCAK256 SLOAD SWAP1 POP SWAP3 SWAP2 POP POP JUMP JUMPDEST PUSH1 0x0 DUP1 SLOAD SWAP1 PUSH2 0x100 EXP SWAP1 DIV PUSH20 0xFFFFFFFFFFFFFFFFFFFFFFFFFFFFFFFFFFFFFFFF AND PUSH20 0xFFFFFFFFFFFFFFFFFFFFFFFFFFFFFFFFFFFFFFFF AND CALLER PUSH20 0xFFFFFFFFFFFFFFFFFFFFFFFFFFFFFFFFFFFFFFFF AND EQ PUSH2 0x778 JUMPI PUSH1 0x40 MLOAD PUSH32 0x8C379A000000000000000000000000000000000000000000000000000000000 DUP2 MSTORE PUSH1 0x4 ADD PUSH2 0x76F SWAP1 PUSH2 0xDF2 JUMP JUMPDEST PUSH1 0x40 MLOAD DUP1 SWAP2 SUB SWAP1 REVERT JUMPDEST DUP1 PUSH1 0x1 PUSH1 0x0 DUP4 DUP2 MSTORE PUSH1 0x20 ADD SWAP1 DUP2 MSTORE PUSH1 0x20 ADD PUSH1 0x0 KECCAK256 PUSH1 0x0 ADD DUP2 SWAP1 SSTORE POP PUSH1 0x0 PUSH1 0x1 PUSH1 0x0 DUP4 DUP2 MSTORE PUSH1 0x20 ADD SWAP1 DUP2 MSTORE PUSH1 0x20 ADD PUSH1 0x0 KECCAK256 PUSH1 0x1 ADD DUP2 SWAP1 SSTORE POP POP JUMP JUMPDEST PUSH1 0x0 DUP1 SLOAD SWAP1 PUSH2 0x100 EXP SWAP1 DIV PUSH20 0xFFFFFFFFFFFFFFFFFFFFFFFFFFFFFFFFFFFFFFFF AND PUSH20 0xFFFFFFFFFFFFFFFFFFFFFFFFFFFFFFFFFFFFFFFF AND CALLER PUSH20 0xFFFFFFFFFFFFFFFFFFFFFFFFFFFFFFFFFFFFFFFF AND EQ PUSH2 0x840 JUMPI PUSH1 0x40 MLOAD PUSH32 0x8C379A000000000000000000000000000000000000000000000000000000000 DUP2 MSTORE PUSH1 0x4 ADD PUSH2 0x837 SWAP1 PUSH2 0xDF2 JUMP JUMPDEST PUSH1 0x40 MLOAD DUP1 SWAP2 SUB SWAP1 REVERT JUMPDEST PUSH1 0x0 JUMPDEST DUP3 MLOAD DUP2 LT ISZERO PUSH2 0x883 JUMPI PUSH2 0x870 DUP4 DUP3 DUP2 MLOAD DUP2 LT PUSH2 0x862 JUMPI PUSH2 0x861 PUSH2 0xFB2 JUMP JUMPDEST JUMPDEST PUSH1 0x20 MUL PUSH1 0x20 ADD ADD MLOAD DUP4 PUSH2 0x935 JUMP JUMPDEST DUP1 DUP1 PUSH2 0x87B SWAP1 PUSH2 0xF3A JUMP JUMPDEST SWAP2 POP POP PUSH2 0x843 JUMP JUMPDEST POP POP POP JUMP JUMPDEST PUSH1 0x0 DUP1 SLOAD SWAP1 PUSH2 0x100 EXP SWAP1 DIV PUSH20 0xFFFFFFFFFFFFFFFFFFFFFFFFFFFFFFFFFFFFFFFF AND PUSH20 0xFFFFFFFFFFFFFFFFFFFFFFFFFFFFFFFFFFFFFFFF AND CALLER PUSH20 0xFFFFFFFFFFFFFFFFFFFFFFFFFFFFFFFFFFFFFFFF AND EQ PUSH2 0x916 JUMPI PUSH1 0x40 MLOAD PUSH32 0x8C379A000000000000000000000000000000000000000000000000000000000 DUP2 MSTORE PUSH1 0x4 ADD PUSH2 0x90D SWAP1 PUSH2 0xDF2 JUMP JUMPDEST PUSH1 0x40 MLOAD DUP1 SWAP2 SUB SWAP1 REVERT JUMPDEST DUP2 PUSH1 0x1 PUSH1 0x0 DUP4 DUP2 MSTORE PUSH1 0x20 ADD SWAP1 DUP2 MSTORE PUSH1 0x20 ADD PUSH1 0x0 KECCAK256 PUSH1 0x3 ADD DUP2 SWAP1 SSTORE POP POP POP JUMP JUMPDEST PUSH1 0x0 PUSH1 0x1 PUSH1 0x0 DUP4 DUP2 MSTORE PUSH1 0x20 ADD SWAP1 DUP2 MSTORE PUSH1 0x20 ADD PUSH1 0x0 KECCAK256 PUSH1 0x4 ADD SLOAD SWAP1 POP DUP3 PUSH1 0x1 PUSH1 0x0 DUP5 DUP2 MSTORE PUSH1 0x20 ADD SWAP1 DUP2 MSTORE PUSH1 0x20 ADD PUSH1 0x0 KECCAK256 PUSH1 0x8 ADD PUSH1 0x0 DUP4 DUP2 MSTORE PUSH1 0x20 ADD SWAP1 DUP2 MSTORE PUSH1 0x20 ADD PUSH1 0x0 KECCAK256 PUSH1 0x0 PUSH2 0x100 EXP DUP2 SLOAD DUP2 PUSH20 0xFFFFFFFFFFFFFFFFFFFFFFFFFFFFFFFFFFFFFFFF MUL NOT AND SWAP1 DUP4 PUSH20 0xFFFFFFFFFFFFFFFFFFFFFFFFFFFFFFFFFFFFFFFF AND MUL OR SWAP1 SSTORE POP PUSH1 0x1 PUSH1 0x0 DUP4 DUP2 MSTORE PUSH1 0x20 ADD SWAP1 DUP2 MSTORE PUSH1 0x20 ADD PUSH1 0x0 KECCAK256 PUSH1 0x4 ADD PUSH1 0x0 DUP2 SLOAD DUP1 SWAP3 SWAP2 SWAP1 PUSH2 0x9DD SWAP1 PUSH2 0xF3A JUMP JUMPDEST SWAP2 SWAP1 POP SSTORE POP PUSH32 0x4AD260FDB84F8458E9AE5BFB9F78B3A60D8DAEBA55271AC59884C0F6CB4E0435 DUP4 DUP3 PUSH1 0x40 MLOAD PUSH2 0xA13 SWAP3 SWAP2 SWAP1 PUSH2 0xD8E JUMP JUMPDEST PUSH1 0x40 MLOAD DUP1 SWAP2 SUB SWAP1 LOG1 POP POP POP JUMP JUMPDEST DUP3 DUP1 SLOAD DUP3 DUP3 SSTORE SWAP1 PUSH1 0x0 MSTORE PUSH1 0x20 PUSH1 0x0 KECCAK256 SWAP1 DUP2 ADD SWAP3 DUP3 ISZERO PUSH2 0xA99 JUMPI SWAP2 PUSH1 0x20 MUL DUP3 ADD JUMPDEST DUP3 DUP2 GT ISZERO PUSH2 0xA98 JUMPI DUP3 MLOAD DUP3 PUSH1 0x0 PUSH2 0x100 EXP DUP2 SLOAD DUP2 PUSH20 0xFFFFFFFFFFFFFFFFFFFFFFFFFFFFFFFFFFFFFFFF MUL NOT AND SWAP1 DUP4 PUSH20 0xFFFFFFFFFFFFFFFFFFFFFFFFFFFFFFFFFFFFFFFF AND MUL OR SWAP1 SSTORE POP SWAP2 PUSH1 0x20 ADD SWAP2 SWAP1 PUSH1 0x1 ADD SWAP1 PUSH2 0xA40 JUMP JUMPDEST JUMPDEST POP SWAP1 POP PUSH2 0xAA6 SWAP2 SWAP1 PUSH2 0xAAA JUMP JUMPDEST POP SWAP1 JUMP JUMPDEST JUMPDEST DUP1 DUP3 GT ISZERO PUSH2 0xAC3 JUMPI PUSH1 0x0 DUP2 PUSH1 0x0 SWAP1 SSTORE POP PUSH1 0x1 ADD PUSH2 0xAAB JUMP JUMPDEST POP SWAP1 JUMP JUMPDEST PUSH1 0x0 PUSH2 0xADA PUSH2 0xAD5 DUP5 PUSH2 0xE52 JUMP JUMPDEST PUSH2 0xE2D JUMP JUMPDEST SWAP1 POP DUP1 DUP4 DUP3 MSTORE PUSH1 0x20 DUP3 ADD SWAP1 POP DUP3 DUP6 PUSH1 0x20 DUP7 MUL DUP3 ADD GT ISZERO PUSH2 0xAFD JUMPI PUSH2 0xAFC PUSH2 0x1015 JUMP JUMPDEST JUMPDEST PUSH1 0x0 JUMPDEST DUP6 DUP2 LT ISZERO PUSH2 0xB2D JUMPI DUP2 PUSH2 0xB13 DUP9 DUP3 PUSH2 0xB37 JUMP JUMPDEST DUP5 MSTORE PUSH1 0x20 DUP5 ADD SWAP4 POP PUSH1 0x20 DUP4 ADD SWAP3 POP POP PUSH1 0x1 DUP2 ADD SWAP1 POP PUSH2 0xB00 JUMP JUMPDEST POP POP POP SWAP4 SWAP3 POP POP POP JUMP JUMPDEST PUSH1 0x0 DUP2 CALLDATALOAD SWAP1 POP PUSH2 0xB46 DUP2 PUSH2 0x1087 JUMP JUMPDEST SWAP3 SWAP2 POP POP JUMP JUMPDEST PUSH1 0x0 DUP3 PUSH1 0x1F DUP4 ADD SLT PUSH2 0xB61 JUMPI PUSH2 0xB60 PUSH2 0x1010 JUMP JUMPDEST JUMPDEST DUP2 CALLDATALOAD PUSH2 0xB71 DUP5 DUP3 PUSH1 0x20 DUP7 ADD PUSH2 0xAC7 JUMP JUMPDEST SWAP2 POP POP SWAP3 SWAP2 POP POP JUMP JUMPDEST PUSH1 0x0 DUP2 CALLDATALOAD SWAP1 POP PUSH2 0xB89 DUP2 PUSH2 0x109E JUMP JUMPDEST SWAP3 SWAP2 POP POP JUMP JUMPDEST PUSH1 0x0 DUP2 CALLDATALOAD SWAP1 POP PUSH2 0xB9E DUP2 PUSH2 0x10B5 JUMP JUMPDEST SWAP3 SWAP2 POP POP JUMP JUMPDEST PUSH1 0x0 DUP1 PUSH1 0x40 DUP4 DUP6 SUB SLT ISZERO PUSH2 0xBBB JUMPI PUSH2 0xBBA PUSH2 0x101F JUMP JUMPDEST JUMPDEST PUSH1 0x0 PUSH2 0xBC9 DUP6 DUP3 DUP7 ADD PUSH2 0xB37 JUMP JUMPDEST SWAP3 POP POP PUSH1 0x20 PUSH2 0xBDA DUP6 DUP3 DUP7 ADD PUSH2 0xB8F JUMP JUMPDEST SWAP2 POP POP SWAP3 POP SWAP3 SWAP1 POP JUMP JUMPDEST PUSH1 0x0 DUP1 PUSH1 0x40 DUP4 DUP6 SUB SLT ISZERO PUSH2 0xBFB JUMPI PUSH2 0xBFA PUSH2 0x101F JUMP JUMPDEST JUMPDEST PUSH1 0x0 DUP4 ADD CALLDATALOAD PUSH8 0xFFFFFFFFFFFFFFFF DUP2 GT ISZERO PUSH2 0xC19 JUMPI PUSH2 0xC18 PUSH2 0x101A JUMP JUMPDEST JUMPDEST PUSH2 0xC25 DUP6 DUP3 DUP7 ADD PUSH2 0xB4C JUMP JUMPDEST SWAP3 POP POP PUSH1 0x20 PUSH2 0xC36 DUP6 DUP3 DUP7 ADD PUSH2 0xB8F JUMP JUMPDEST SWAP2 POP POP SWAP3 POP SWAP3 SWAP1 POP JUMP JUMPDEST PUSH1 0x0 DUP1 PUSH1 0x0 PUSH1 0x60 DUP5 DUP7 SUB SLT ISZERO PUSH2 0xC59 JUMPI PUSH2 0xC58 PUSH2 0x101F JUMP JUMPDEST JUMPDEST PUSH1 0x0 PUSH2 0xC67 DUP7 DUP3 DUP8 ADD PUSH2 0xB7A JUMP JUMPDEST SWAP4 POP POP PUSH1 0x20 PUSH2 0xC78 DUP7 DUP3 DUP8 ADD PUSH2 0xB8F JUMP JUMPDEST SWAP3 POP POP PUSH1 0x40 PUSH2 0xC89 DUP7 DUP3 DUP8 ADD PUSH2 0xB8F JUMP JUMPDEST SWAP2 POP POP SWAP3 POP SWAP3 POP SWAP3 JUMP JUMPDEST PUSH1 0x0 PUSH1 0x20 DUP3 DUP5 SUB SLT ISZERO PUSH2 0xCA9 JUMPI PUSH2 0xCA8 PUSH2 0x101F JUMP JUMPDEST JUMPDEST PUSH1 0x0 PUSH2 0xCB7 DUP5 DUP3 DUP6 ADD PUSH2 0xB8F JUMP JUMPDEST SWAP2 POP POP SWAP3 SWAP2 POP POP JUMP JUMPDEST PUSH1 0x0 DUP1 PUSH1 0x40 DUP4 DUP6 SUB SLT ISZERO PUSH2 0xCD7 JUMPI PUSH2 0xCD6 PUSH2 0x101F JUMP JUMPDEST JUMPDEST PUSH1 0x0 PUSH2 0xCE5 DUP6 DUP3 DUP7 ADD PUSH2 0xB8F JUMP JUMPDEST SWAP3 POP POP PUSH1 0x20 PUSH2 0xCF6 DUP6 DUP3 DUP7 ADD PUSH2 0xB8F JUMP JUMPDEST SWAP2 POP POP SWAP3 POP SWAP3 SWAP1 POP JUMP JUMPDEST PUSH2 0xD09 DUP2 PUSH2 0xEC3 JUMP JUMPDEST DUP3 MSTORE POP POP JUMP JUMPDEST PUSH2 0xD18 DUP2 PUSH2 0xED5 JUMP JUMPDEST DUP3 MSTORE POP POP JUMP JUMPDEST PUSH1 0x0 PUSH2 0xD2B PUSH1 0x9 DUP4 PUSH2 0xE7E JUMP JUMPDEST SWAP2 POP PUSH2 0xD36 DUP3 PUSH2 0x1035 JUMP JUMPDEST PUSH1 0x20 DUP3 ADD SWAP1 POP SWAP2 SWAP1 POP JUMP JUMPDEST PUSH1 0x0 PUSH2 0xD4E PUSH1 0xD DUP4 PUSH2 0xE7E JUMP JUMPDEST SWAP2 POP PUSH2 0xD59 DUP3 PUSH2 0x105E JUMP JUMPDEST PUSH1 0x20 DUP3 ADD SWAP1 POP SWAP2 SWAP1 POP JUMP JUMPDEST PUSH2 0xD6D DUP2 PUSH2 0xEFF JUMP JUMPDEST DUP3 MSTORE POP POP JUMP JUMPDEST PUSH1 0x0 PUSH1 0x20 DUP3 ADD SWAP1 POP PUSH2 0xD88 PUSH1 0x0 DUP4 ADD DUP5 PUSH2 0xD00 JUMP JUMPDEST SWAP3 SWAP2 POP POP JUMP JUMPDEST PUSH1 0x0 PUSH1 0x40 DUP3 ADD SWAP1 POP PUSH2 0xDA3 PUSH1 0x0 DUP4 ADD DUP6 PUSH2 0xD00 JUMP JUMPDEST PUSH2 0xDB0 PUSH1 0x20 DUP4 ADD DUP5 PUSH2 0xD64 JUMP JUMPDEST SWAP4 SWAP3 POP POP POP JUMP JUMPDEST PUSH1 0x0 PUSH1 0x20 DUP3 ADD SWAP1 POP PUSH2 0xDCC PUSH1 0x0 DUP4 ADD DUP5 PUSH2 0xD0F JUMP JUMPDEST SWAP3 SWAP2 POP POP JUMP JUMPDEST PUSH1 0x0 PUSH1 0x20 DUP3 ADD SWAP1 POP DUP2 DUP2 SUB PUSH1 0x0 DUP4 ADD MSTORE PUSH2 0xDEB DUP2 PUSH2 0xD1E JUMP JUMPDEST SWAP1 POP SWAP2 SWAP1 POP JUMP JUMPDEST PUSH1 0x0 PUSH1 0x20 DUP3 ADD SWAP1 POP DUP2 DUP2 SUB PUSH1 0x0 DUP4 ADD MSTORE PUSH2 0xE0B DUP2 PUSH2 0xD41 JUMP JUMPDEST SWAP1 POP SWAP2 SWAP1 POP JUMP JUMPDEST PUSH1 0x0 PUSH1 0x20 DUP3 ADD SWAP1 POP PUSH2 0xE27 PUSH1 0x0 DUP4 ADD DUP5 PUSH2 0xD64 JUMP JUMPDEST SWAP3 SWAP2 POP POP JUMP JUMPDEST PUSH1 0x0 PUSH2 0xE37 PUSH2 0xE48 JUMP JUMPDEST SWAP1 POP PUSH2 0xE43 DUP3 DUP3 PUSH2 0xF09 JUMP JUMPDEST SWAP2 SWAP1 POP JUMP JUMPDEST PUSH1 0x0 PUSH1 0x40 MLOAD SWAP1 POP SWAP1 JUMP JUMPDEST PUSH1 0x0 PUSH8 0xFFFFFFFFFFFFFFFF DUP3 GT ISZERO PUSH2 0xE6D JUMPI PUSH2 0xE6C PUSH2 0xFE1 JUMP JUMPDEST JUMPDEST PUSH1 0x20 DUP3 MUL SWAP1 POP PUSH1 0x20 DUP2 ADD SWAP1 POP SWAP2 SWAP1 POP JUMP JUMPDEST PUSH1 0x0 DUP3 DUP3 MSTORE PUSH1 0x20 DUP3 ADD SWAP1 POP SWAP3 SWAP2 POP POP JUMP JUMPDEST PUSH1 0x0 PUSH2 0xE9A DUP3 PUSH2 0xEFF JUMP JUMPDEST SWAP2 POP PUSH2 0xEA5 DUP4 PUSH2 0xEFF JUMP JUMPDEST SWAP3 POP DUP3 DUP3 LT ISZERO PUSH2 0xEB8 JUMPI PUSH2 0xEB7 PUSH2 0xF83 JUMP JUMPDEST JUMPDEST DUP3 DUP3 SUB SWAP1 POP SWAP3 SWAP2 POP POP JUMP JUMPDEST PUSH1 0x0 PUSH2 0xECE DUP3 PUSH2 0xEDF JUMP JUMPDEST SWAP1 POP SWAP2 SWAP1 POP JUMP JUMPDEST PUSH1 0x0 DUP2 SWAP1 POP SWAP2 SWAP1 POP JUMP JUMPDEST PUSH1 0x0 PUSH20 0xFFFFFFFFFFFFFFFFFFFFFFFFFFFFFFFFFFFFFFFF DUP3 AND SWAP1 POP SWAP2 SWAP1 POP JUMP JUMPDEST PUSH1 0x0 DUP2 SWAP1 POP SWAP2 SWAP1 POP JUMP JUMPDEST PUSH2 0xF12 DUP3 PUSH2 0x1024 JUMP JUMPDEST DUP2 ADD DUP2 DUP2 LT PUSH8 0xFFFFFFFFFFFFFFFF DUP3 GT OR ISZERO PUSH2 0xF31 JUMPI PUSH2 0xF30 PUSH2 0xFE1 JUMP JUMPDEST JUMPDEST DUP1 PUSH1 0x40 MSTORE POP POP POP JUMP JUMPDEST PUSH1 0x0 PUSH2 0xF45 DUP3 PUSH2 0xEFF JUMP JUMPDEST SWAP2 POP PUSH32 0xFFFFFFFFFFFFFFFFFFFFFFFFFFFFFFFFFFFFFFFFFFFFFFFFFFFFFFFFFFFFFFFF DUP3 EQ ISZERO PUSH2 0xF78 JUMPI PUSH2 0xF77 PUSH2 0xF83 JUMP JUMPDEST JUMPDEST PUSH1 0x1 DUP3 ADD SWAP1 POP SWAP2 SWAP1 POP JUMP JUMPDEST PUSH32 0x4E487B7100000000000000000000000000000000000000000000000000000000 PUSH1 0x0 MSTORE PUSH1 0x11 PUSH1 0x4 MSTORE PUSH1 0x24 PUSH1 0x0 REVERT JUMPDEST PUSH32 0x4E487B7100000000000000000000000000000000000000000000000000000000 PUSH1 0x0 MSTORE PUSH1 0x32 PUSH1 0x4 MSTORE PUSH1 0x24 PUSH1 0x0 REVERT JUMPDEST PUSH32 0x4E487B7100000000000000000000000000000000000000000000000000000000 PUSH1 0x0 MSTORE PUSH1 0x41 PUSH1 0x4 MSTORE PUSH1 0x24 PUSH1 0x0 REVERT JUMPDEST PUSH1 0x0 DUP1 REVERT JUMPDEST PUSH1 0x0 DUP1 REVERT JUMPDEST PUSH1 0x0 DUP1 REVERT JUMPDEST PUSH1 0x0 DUP1 REVERT JUMPDEST PUSH1 0x0 PUSH1 0x1F NOT PUSH1 0x1F DUP4 ADD AND SWAP1 POP SWAP2 SWAP1 POP JUMP JUMPDEST PUSH32 0x57726F6E67206B65790000000000000000000000000000000000000000000000 PUSH1 0x0 DUP3 ADD MSTORE POP JUMP JUMPDEST PUSH32 0x4E6F205065726D697373696F6E00000000000000000000000000000000000000 PUSH1 0x0 DUP3 ADD MSTORE POP JUMP JUMPDEST PUSH2 0x1090 DUP2 PUSH2 0xEC3 JUMP JUMPDEST DUP2 EQ PUSH2 0x109B JUMPI PUSH1 0x0 DUP1 REVERT JUMPDEST POP JUMP JUMPDEST PUSH2 0x10A7 DUP2 PUSH2 0xED5 JUMP JUMPDEST DUP2 EQ PUSH2 0x10B2 JUMPI PUSH1 0x0 DUP1 REVERT JUMPDEST POP JUMP JUMPDEST PUSH2 0x10BE DUP2 PUSH2 0xEFF JUMP JUMPDEST DUP2 EQ PUSH2 0x10C9 JUMPI PUSH1 0x0 DUP1 REVERT JUMPDEST POP JUMP INVALID LOG2 PUSH5 0x6970667358 0x22 SLT KECCAK256 0xD 0xF8 INVALID LOG1 PUSH1 0x69 NUMBER 0xD5 0xBE PUSH22 0x4C700EDCB0D123C33406F4E6DAFA108CA84540076DEC PUSH5 0x736F6C6343 STOP ADDMOD SMOD STOP CALLER "
				},
				"gasEstimates": {
					"creation": {
						"codeDepositCost": "870800",
						"executionCost": "25175",
						"totalCost": "895975"
					},
					"external": {
						"get_ballot(address,uint256)": "5268",
						"new_proposal(uint256)": "29891",
						"set_candidates(address[],uint256)": "infinite",
						"set_duration(uint256,uint256)": "infinite",
						"set_voters(address[],uint256)": "infinite",
						"voting(bytes32,uint256,uint256)": "infinite",
						"voting_end(uint256)": "infinite",
						"voting_start(uint256)": "infinite"
					},
					"internal": {
						"set_voter_list(address,uint256)": "infinite"
					}
				},
				"methodIdentifiers": {
					"get_ballot(address,uint256)": "d6f937e5",
					"new_proposal(uint256)": "e28ee120",
					"set_candidates(address[],uint256)": "50fae1d2",
					"set_duration(uint256,uint256)": "fea9b717",
					"set_voters(address[],uint256)": "fb5babd8",
					"voting(bytes32,uint256,uint256)": "d0350b59",
					"voting_end(uint256)": "8aa430af",
					"voting_start(uint256)": "a4db23fc"
				}
			},
			"storageLayout": {
				"storage": [
					{
						"astId": 3,
						"contract": "Vote_1.sol:Vote",
						"label": "_constractowner",
						"offset": 0,
						"slot": "0",
						"type": "t_address"
					},
					{
						"astId": 65,
						"contract": "Vote_1.sol:Vote",
						"label": "_proposal",
						"offset": 0,
						"slot": "1",
						"type": "t_mapping(t_uint256,t_struct(_Proposal)60_storage)"
					}
				],
				"types": {
					"t_address": {
						"encoding": "inplace",
						"label": "address",
						"numberOfBytes": "20"
					},
					"t_array(t_address)dyn_storage": {
						"base": "t_address",
						"encoding": "dynamic_array",
						"label": "address[]",
						"numberOfBytes": "32"
					},
					"t_bool": {
						"encoding": "inplace",
						"label": "bool",
						"numberOfBytes": "1"
					},
					"t_bytes32": {
						"encoding": "inplace",
						"label": "bytes32",
						"numberOfBytes": "32"
					},
					"t_mapping(t_address,t_bool)": {
						"encoding": "mapping",
						"key": "t_address",
						"label": "mapping(address => bool)",
						"numberOfBytes": "32",
						"value": "t_bool"
					},
					"t_mapping(t_address,t_bytes32)": {
						"encoding": "mapping",
						"key": "t_address",
						"label": "mapping(address => bytes32)",
						"numberOfBytes": "32",
						"value": "t_bytes32"
					},
					"t_mapping(t_uint256,t_address)": {
						"encoding": "mapping",
						"key": "t_uint256",
						"label": "mapping(uint256 => address)",
						"numberOfBytes": "32",
						"value": "t_address"
					},
					"t_mapping(t_uint256,t_struct(_Proposal)60_storage)": {
						"encoding": "mapping",
						"key": "t_uint256",
						"label": "mapping(uint256 => struct Vote._Proposal)",
						"numberOfBytes": "32",
						"value": "t_struct(_Proposal)60_storage"
					},
					"t_struct(_Proposal)60_storage": {
						"encoding": "inplace",
						"label": "struct Vote._Proposal",
						"members": [
							{
								"astId": 32,
								"contract": "Vote_1.sol:Vote",
								"label": "_proposal_id",
								"offset": 0,
								"slot": "0",
								"type": "t_uint256"
							},
							{
								"astId": 34,
								"contract": "Vote_1.sol:Vote",
								"label": "_voting_status",
								"offset": 0,
								"slot": "1",
								"type": "t_uint256"
							},
							{
								"astId": 36,
								"contract": "Vote_1.sol:Vote",
								"label": "_timestamp",
								"offset": 0,
								"slot": "2",
								"type": "t_uint256"
							},
							{
								"astId": 38,
								"contract": "Vote_1.sol:Vote",
								"label": "_duration",
								"offset": 0,
								"slot": "3",
								"type": "t_uint256"
							},
							{
								"astId": 40,
								"contract": "Vote_1.sol:Vote",
								"label": "_count",
								"offset": 0,
								"slot": "4",
								"type": "t_uint256"
							},
							{
								"astId": 42,
								"contract": "Vote_1.sol:Vote",
								"label": "_voted",
								"offset": 0,
								"slot": "5",
								"type": "t_uint256"
							},
							{
								"astId": 44,
								"contract": "Vote_1.sol:Vote",
								"label": "_voter_amount",
								"offset": 0,
								"slot": "6",
								"type": "t_uint256"
							},
							{
								"astId": 47,
								"contract": "Vote_1.sol:Vote",
								"label": "_candidate",
								"offset": 0,
								"slot": "7",
								"type": "t_array(t_address)dyn_storage"
							},
							{
								"astId": 51,
								"contract": "Vote_1.sol:Vote",
								"label": "voter_list",
								"offset": 0,
								"slot": "8",
								"type": "t_mapping(t_uint256,t_address)"
							},
							{
								"astId": 55,
								"contract": "Vote_1.sol:Vote",
								"label": "voter_ballot",
								"offset": 0,
								"slot": "9",
								"type": "t_mapping(t_address,t_bytes32)"
							},
							{
								"astId": 59,
								"contract": "Vote_1.sol:Vote",
								"label": "hasVoted",
								"offset": 0,
								"slot": "10",
								"type": "t_mapping(t_address,t_bool)"
							}
						],
						"numberOfBytes": "352"
					},
					"t_uint256": {
						"encoding": "inplace",
						"label": "uint256",
						"numberOfBytes": "32"
					}
				}
			},
			"userdoc": {
				"kind": "user",
				"methods": {},
				"version": 1
			}
		}
	}
}