{
	"Vote.sol": {
		"Vote": {
			"abi": [
				{
					"inputs": [
						{
							"internalType": "uint256",
							"name": "voter_amount",
							"type": "uint256"
						},
						{
							"internalType": "uint256",
							"name": "duration",
							"type": "uint256"
						}
					],
					"stateMutability": "nonpayable",
					"type": "constructor"
				},
				{
					"anonymous": false,
					"inputs": [
						{
							"indexed": false,
							"internalType": "uint256",
							"name": "end_time",
							"type": "uint256"
						}
					],
					"name": "Vote_end",
					"type": "event"
				},
				{
					"anonymous": false,
					"inputs": [
						{
							"indexed": false,
							"internalType": "uint256",
							"name": "start_time",
							"type": "uint256"
						}
					],
					"name": "Vote_start",
					"type": "event"
				},
				{
					"anonymous": false,
					"inputs": [
						{
							"indexed": false,
							"internalType": "address",
							"name": "voter",
							"type": "address"
						},
						{
							"indexed": false,
							"internalType": "uint256",
							"name": "id",
							"type": "uint256"
						}
					],
					"name": "Voter_set",
					"type": "event"
				},
				{
					"anonymous": false,
					"inputs": [
						{
							"indexed": false,
							"internalType": "address",
							"name": "voter",
							"type": "address"
						}
					],
					"name": "Voting_complete",
					"type": "event"
				},
				{
					"inputs": [
						{
							"internalType": "address",
							"name": "voter",
							"type": "address"
						}
					],
					"name": "get_ballot",
					"outputs": [
						{
							"internalType": "bytes32",
							"name": "",
							"type": "bytes32"
						}
					],
					"stateMutability": "view",
					"type": "function"
				},
				{
					"inputs": [
						{
							"internalType": "uint256",
							"name": "num",
							"type": "uint256"
						}
					],
					"name": "get_candidates",
					"outputs": [
						{
							"internalType": "address",
							"name": "",
							"type": "address"
						}
					],
					"stateMutability": "view",
					"type": "function"
				},
				{
					"inputs": [
						{
							"internalType": "address[]",
							"name": "candidates",
							"type": "address[]"
						}
					],
					"name": "set_candidates",
					"outputs": [],
					"stateMutability": "nonpayable",
					"type": "function"
				},
				{
					"inputs": [
						{
							"internalType": "address[]",
							"name": "voters",
							"type": "address[]"
						}
					],
					"name": "set_voters",
					"outputs": [],
					"stateMutability": "nonpayable",
					"type": "function"
				},
				{
					"inputs": [
						{
							"internalType": "bytes32",
							"name": "ballot",
							"type": "bytes32"
						}
					],
					"name": "voting",
					"outputs": [],
					"stateMutability": "nonpayable",
					"type": "function"
				},
				{
					"inputs": [],
					"name": "voting_end",
					"outputs": [],
					"stateMutability": "nonpayable",
					"type": "function"
				},
				{
					"inputs": [],
					"name": "voting_start",
					"outputs": [],
					"stateMutability": "nonpayable",
					"type": "function"
				}
			],
			"devdoc": {
				"kind": "dev",
				"methods": {},
				"version": 1
			},
			"evm": {
				"assembly": "    /* \"Vote.sol\":66:2171  contract Vote{... */\n  mstore(0x40, 0x80)\n    /* \"Vote.sol\":266:496  constructor(uint voter_amount, uint duration){... */\n  callvalue\n  dup1\n  iszero\n  tag_1\n  jumpi\n  0x00\n  dup1\n  revert\ntag_1:\n  pop\n  mload(0x40)\n  sub(codesize, bytecodeSize)\n  dup1\n  bytecodeSize\n  dup4\n  codecopy\n  dup2\n  dup2\n  add\n  0x40\n  mstore\n  dup2\n  add\n  swap1\n  tag_2\n  swap2\n  swap1\n  tag_3\n  jump\t// in\ntag_2:\n    /* \"Vote.sol\":339:349  msg.sender */\n  caller\n    /* \"Vote.sol\":321:336  _constractowner */\n  0x00\n  dup1\n    /* \"Vote.sol\":321:349  _constractowner = msg.sender */\n  0x0100\n  exp\n  dup2\n  sload\n  dup2\n  0xffffffffffffffffffffffffffffffffffffffff\n  mul\n  not\n  and\n  swap1\n  dup4\n  0xffffffffffffffffffffffffffffffffffffffff\n  and\n  mul\n  or\n  swap1\n  sstore\n  pop\n    /* \"Vote.sol\":375:387  voter_amount */\n  dup2\n    /* \"Vote.sol\":359:372  _voter_amount */\n  0x01\n    /* \"Vote.sol\":359:387  _voter_amount = voter_amount */\n  dup2\n  swap1\n  sstore\n  pop\n    /* \"Vote.sol\":406:407  0 */\n  0x00\n    /* \"Vote.sol\":397:403  _voted */\n  0x02\n    /* \"Vote.sol\":397:407  _voted = 0 */\n  dup2\n  swap1\n  sstore\n  pop\n    /* \"Vote.sol\":434:439  false */\n  0x00\n    /* \"Vote.sol\":417:431  _voting_status */\n  0x03\n  0x00\n    /* \"Vote.sol\":417:439  _voting_status = false */\n  0x0100\n  exp\n  dup2\n  sload\n  dup2\n  0xff\n  mul\n  not\n  and\n  swap1\n  dup4\n  iszero\n  iszero\n  mul\n  or\n  swap1\n  sstore\n  pop\n    /* \"Vote.sol\":461:469  duration */\n  dup1\n    /* \"Vote.sol\":449:458  _duration */\n  0x05\n    /* \"Vote.sol\":449:469  _duration = duration */\n  dup2\n  swap1\n  sstore\n  pop\n    /* \"Vote.sol\":488:489  0 */\n  0x00\n    /* \"Vote.sol\":479:485  _count */\n  0x06\n    /* \"Vote.sol\":479:489  _count = 0 */\n  dup2\n  swap1\n  sstore\n  pop\n    /* \"Vote.sol\":266:496  constructor(uint voter_amount, uint duration){... */\n  pop\n  pop\n    /* \"Vote.sol\":66:2171  contract Vote{... */\n  jump(tag_6)\n    /* \"#utility.yul\":7:150   */\ntag_8:\n    /* \"#utility.yul\":64:69   */\n  0x00\n    /* \"#utility.yul\":95:101   */\n  dup2\n    /* \"#utility.yul\":89:102   */\n  mload\n    /* \"#utility.yul\":80:102   */\n  swap1\n  pop\n    /* \"#utility.yul\":111:144   */\n  tag_10\n    /* \"#utility.yul\":138:143   */\n  dup2\n    /* \"#utility.yul\":111:144   */\n  tag_11\n  jump\t// in\ntag_10:\n    /* \"#utility.yul\":7:150   */\n  swap3\n  swap2\n  pop\n  pop\n  jump\t// out\n    /* \"#utility.yul\":156:663   */\ntag_3:\n    /* \"#utility.yul\":235:241   */\n  0x00\n    /* \"#utility.yul\":243:249   */\n  dup1\n    /* \"#utility.yul\":292:294   */\n  0x40\n    /* \"#utility.yul\":280:289   */\n  dup4\n    /* \"#utility.yul\":271:278   */\n  dup6\n    /* \"#utility.yul\":267:290   */\n  sub\n    /* \"#utility.yul\":263:295   */\n  slt\n    /* \"#utility.yul\":260:379   */\n  iszero\n  tag_13\n  jumpi\n    /* \"#utility.yul\":298:377   */\n  tag_14\n  tag_15\n  jump\t// in\ntag_14:\n    /* \"#utility.yul\":260:379   */\ntag_13:\n    /* \"#utility.yul\":418:419   */\n  0x00\n    /* \"#utility.yul\":443:507   */\n  tag_16\n    /* \"#utility.yul\":499:506   */\n  dup6\n    /* \"#utility.yul\":490:496   */\n  dup3\n    /* \"#utility.yul\":479:488   */\n  dup7\n    /* \"#utility.yul\":475:497   */\n  add\n    /* \"#utility.yul\":443:507   */\n  tag_8\n  jump\t// in\ntag_16:\n    /* \"#utility.yul\":433:507   */\n  swap3\n  pop\n    /* \"#utility.yul\":389:517   */\n  pop\n    /* \"#utility.yul\":556:558   */\n  0x20\n    /* \"#utility.yul\":582:646   */\n  tag_17\n    /* \"#utility.yul\":638:645   */\n  dup6\n    /* \"#utility.yul\":629:635   */\n  dup3\n    /* \"#utility.yul\":618:627   */\n  dup7\n    /* \"#utility.yul\":614:636   */\n  add\n    /* \"#utility.yul\":582:646   */\n  tag_8\n  jump\t// in\ntag_17:\n    /* \"#utility.yul\":572:646   */\n  swap2\n  pop\n    /* \"#utility.yul\":527:656   */\n  pop\n    /* \"#utility.yul\":156:663   */\n  swap3\n  pop\n  swap3\n  swap1\n  pop\n  jump\t// out\n    /* \"#utility.yul\":750:827   */\ntag_20:\n    /* \"#utility.yul\":787:794   */\n  0x00\n    /* \"#utility.yul\":816:821   */\n  dup2\n    /* \"#utility.yul\":805:821   */\n  swap1\n  pop\n    /* \"#utility.yul\":750:827   */\n  swap2\n  swap1\n  pop\n  jump\t// out\n    /* \"#utility.yul\":956:1073   */\ntag_15:\n    /* \"#utility.yul\":1065:1066   */\n  0x00\n    /* \"#utility.yul\":1062:1063   */\n  dup1\n    /* \"#utility.yul\":1055:1067   */\n  revert\n    /* \"#utility.yul\":1079:1201   */\ntag_11:\n    /* \"#utility.yul\":1152:1176   */\n  tag_26\n    /* \"#utility.yul\":1170:1175   */\n  dup2\n    /* \"#utility.yul\":1152:1176   */\n  tag_20\n  jump\t// in\ntag_26:\n    /* \"#utility.yul\":1145:1150   */\n  dup2\n    /* \"#utility.yul\":1142:1177   */\n  eq\n    /* \"#utility.yul\":1132:1195   */\n  tag_27\n  jumpi\n    /* \"#utility.yul\":1191:1192   */\n  0x00\n    /* \"#utility.yul\":1188:1189   */\n  dup1\n    /* \"#utility.yul\":1181:1193   */\n  revert\n    /* \"#utility.yul\":1132:1195   */\ntag_27:\n    /* \"#utility.yul\":1079:1201   */\n  pop\n  jump\t// out\n    /* \"Vote.sol\":66:2171  contract Vote{... */\ntag_6:\n  dataSize(sub_0)\n  dup1\n  dataOffset(sub_0)\n  0x00\n  codecopy\n  0x00\n  return\nstop\n\nsub_0: assembly {\n        /* \"Vote.sol\":66:2171  contract Vote{... */\n      mstore(0x40, 0x80)\n      callvalue\n      dup1\n      iszero\n      tag_1\n      jumpi\n      0x00\n      dup1\n      revert\n    tag_1:\n      pop\n      jumpi(tag_2, lt(calldatasize, 0x04))\n      shr(0xe0, calldataload(0x00))\n      dup1\n      0x7f8f5d71\n      gt\n      tag_10\n      jumpi\n      dup1\n      0x7f8f5d71\n      eq\n      tag_6\n      jumpi\n      dup1\n      0x87df4995\n      eq\n      tag_7\n      jumpi\n      dup1\n      0xe0e7365c\n      eq\n      tag_8\n      jumpi\n      dup1\n      0xf921bd41\n      eq\n      tag_9\n      jumpi\n      jump(tag_2)\n    tag_10:\n      dup1\n      0x133e59aa\n      eq\n      tag_3\n      jumpi\n      dup1\n      0x356842e2\n      eq\n      tag_4\n      jumpi\n      dup1\n      0x76a4a2c2\n      eq\n      tag_5\n      jumpi\n    tag_2:\n      0x00\n      dup1\n      revert\n        /* \"Vote.sol\":1840:1941  function get_candidates(uint num) public view returns(address){... */\n    tag_3:\n      tag_11\n      0x04\n      dup1\n      calldatasize\n      sub\n      dup2\n      add\n      swap1\n      tag_12\n      swap2\n      swap1\n      tag_13\n      jump\t// in\n    tag_12:\n      tag_14\n      jump\t// in\n    tag_11:\n      mload(0x40)\n      tag_15\n      swap2\n      swap1\n      tag_16\n      jump\t// in\n    tag_15:\n      mload(0x40)\n      dup1\n      swap2\n      sub\n      swap1\n      return\n        /* \"Vote.sol\":1733:1834  function set_candidates(address [] memory candidates) public {... */\n    tag_4:\n      tag_17\n      0x04\n      dup1\n      calldatasize\n      sub\n      dup2\n      add\n      swap1\n      tag_18\n      swap2\n      swap1\n      tag_19\n      jump\t// in\n    tag_18:\n      tag_20\n      jump\t// in\n    tag_17:\n      stop\n        /* \"Vote.sol\":1118:1325  function voting_start() public {... */\n    tag_5:\n      tag_21\n      tag_22\n      jump\t// in\n    tag_21:\n      stop\n        /* \"Vote.sol\":1558:1727  function get_ballot(address voter) public view returns(bytes32){... */\n    tag_6:\n      tag_23\n      0x04\n      dup1\n      calldatasize\n      sub\n      dup2\n      add\n      swap1\n      tag_24\n      swap2\n      swap1\n      tag_25\n      jump\t// in\n    tag_24:\n      tag_26\n      jump\t// in\n    tag_23:\n      mload(0x40)\n      tag_27\n      swap2\n      swap1\n      tag_28\n      jump\t// in\n    tag_27:\n      mload(0x40)\n      dup1\n      swap2\n      sub\n      swap1\n      return\n        /* \"Vote.sol\":1331:1552  function voting_end() public {... */\n    tag_7:\n      tag_29\n      tag_30\n      jump\t// in\n    tag_29:\n      stop\n        /* \"Vote.sol\":902:1112  function voting(bytes32 ballot) public{... */\n    tag_8:\n      tag_31\n      0x04\n      dup1\n      calldatasize\n      sub\n      dup2\n      add\n      swap1\n      tag_32\n      swap2\n      swap1\n      tag_33\n      jump\t// in\n    tag_32:\n      tag_34\n      jump\t// in\n    tag_31:\n      stop\n        /* \"Vote.sol\":1947:2168  function set_voters(address [] memory voters) public {... */\n    tag_9:\n      tag_35\n      0x04\n      dup1\n      calldatasize\n      sub\n      dup2\n      add\n      swap1\n      tag_36\n      swap2\n      swap1\n      tag_19\n      jump\t// in\n    tag_36:\n      tag_37\n      jump\t// in\n    tag_35:\n      stop\n        /* \"Vote.sol\":1840:1941  function get_candidates(uint num) public view returns(address){... */\n    tag_14:\n        /* \"Vote.sol\":1894:1901  address */\n      0x00\n        /* \"Vote.sol\":1919:1929  _candidate */\n      0x07\n        /* \"Vote.sol\":1930:1933  num */\n      dup3\n        /* \"Vote.sol\":1919:1934  _candidate[num] */\n      dup2\n      sload\n      dup2\n      lt\n      tag_39\n      jumpi\n      tag_40\n      tag_41\n      jump\t// in\n    tag_40:\n    tag_39:\n      swap1\n      0x00\n      mstore\n      keccak256(0x00, 0x20)\n      add\n      0x00\n      swap1\n      sload\n      swap1\n      0x0100\n      exp\n      swap1\n      div\n      0xffffffffffffffffffffffffffffffffffffffff\n      and\n        /* \"Vote.sol\":1912:1934  return _candidate[num] */\n      swap1\n      pop\n        /* \"Vote.sol\":1840:1941  function get_candidates(uint num) public view returns(address){... */\n      swap2\n      swap1\n      pop\n      jump\t// out\n        /* \"Vote.sol\":1733:1834  function set_candidates(address [] memory candidates) public {... */\n    tag_20:\n        /* \"Vote.sol\":1817:1827  candidates */\n      dup1\n        /* \"Vote.sol\":1804:1814  _candidate */\n      0x07\n        /* \"Vote.sol\":1804:1827  _candidate = candidates */\n      swap1\n      dup1\n      mload\n      swap1\n      0x20\n      add\n      swap1\n      tag_44\n      swap3\n      swap2\n      swap1\n      tag_45\n      jump\t// in\n    tag_44:\n      pop\n        /* \"Vote.sol\":1733:1834  function set_candidates(address [] memory candidates) public {... */\n      pop\n      jump\t// out\n        /* \"Vote.sol\":1118:1325  function voting_start() public {... */\n    tag_22:\n        /* \"Vote.sol\":1179:1194  _constractowner */\n      0x00\n      dup1\n      sload\n      swap1\n      0x0100\n      exp\n      swap1\n      div\n      0xffffffffffffffffffffffffffffffffffffffff\n      and\n        /* \"Vote.sol\":1167:1194  msg.sender==_constractowner */\n      0xffffffffffffffffffffffffffffffffffffffff\n      and\n        /* \"Vote.sol\":1167:1177  msg.sender */\n      caller\n        /* \"Vote.sol\":1167:1194  msg.sender==_constractowner */\n      0xffffffffffffffffffffffffffffffffffffffff\n      and\n      eq\n        /* \"Vote.sol\":1159:1212  require(msg.sender==_constractowner, \"No Permission\") */\n      tag_47\n      jumpi\n      mload(0x40)\n      0x08c379a000000000000000000000000000000000000000000000000000000000\n      dup2\n      mstore\n      0x04\n      add\n      tag_48\n      swap1\n      tag_49\n      jump\t// in\n    tag_48:\n      mload(0x40)\n      dup1\n      swap2\n      sub\n      swap1\n      revert\n    tag_47:\n        /* \"Vote.sol\":1239:1243  true */\n      0x01\n        /* \"Vote.sol\":1222:1236  _voting_status */\n      0x03\n      0x00\n        /* \"Vote.sol\":1222:1243  _voting_status = true */\n      0x0100\n      exp\n      dup2\n      sload\n      dup2\n      0xff\n      mul\n      not\n      and\n      swap1\n      dup4\n      iszero\n      iszero\n      mul\n      or\n      swap1\n      sstore\n      pop\n        /* \"Vote.sol\":1266:1281  block.timestamp */\n      timestamp\n        /* \"Vote.sol\":1253:1263  _timestamp */\n      0x04\n        /* \"Vote.sol\":1253:1281  _timestamp = block.timestamp */\n      dup2\n      swap1\n      sstore\n      pop\n        /* \"Vote.sol\":1296:1318  Vote_start(_timestamp) */\n      0xe65838d33ea2cb78d9b73133801f9f2e0b7ba37edfa34983b3209d4309c68d01\n        /* \"Vote.sol\":1307:1317  _timestamp */\n      sload(0x04)\n        /* \"Vote.sol\":1296:1318  Vote_start(_timestamp) */\n      mload(0x40)\n      tag_50\n      swap2\n      swap1\n      tag_51\n      jump\t// in\n    tag_50:\n      mload(0x40)\n      dup1\n      swap2\n      sub\n      swap1\n      log1\n        /* \"Vote.sol\":1118:1325  function voting_start() public {... */\n      jump\t// out\n        /* \"Vote.sol\":1558:1727  function get_ballot(address voter) public view returns(bytes32){... */\n    tag_26:\n        /* \"Vote.sol\":1613:1620  bytes32 */\n      0x00\n        /* \"Vote.sol\":1651:1666  _constractowner */\n      dup1\n      0x00\n      swap1\n      sload\n      swap1\n      0x0100\n      exp\n      swap1\n      div\n      0xffffffffffffffffffffffffffffffffffffffff\n      and\n        /* \"Vote.sol\":1639:1666  msg.sender==_constractowner */\n      0xffffffffffffffffffffffffffffffffffffffff\n      and\n        /* \"Vote.sol\":1639:1649  msg.sender */\n      caller\n        /* \"Vote.sol\":1639:1666  msg.sender==_constractowner */\n      0xffffffffffffffffffffffffffffffffffffffff\n      and\n      eq\n        /* \"Vote.sol\":1631:1684  require(msg.sender==_constractowner, \"No Permission\") */\n      tag_53\n      jumpi\n      mload(0x40)\n      0x08c379a000000000000000000000000000000000000000000000000000000000\n      dup2\n      mstore\n      0x04\n      add\n      tag_54\n      swap1\n      tag_49\n      jump\t// in\n    tag_54:\n      mload(0x40)\n      dup1\n      swap2\n      sub\n      swap1\n      revert\n    tag_53:\n        /* \"Vote.sol\":1701:1713  voter_ballot */\n      0x09\n        /* \"Vote.sol\":1701:1720  voter_ballot[voter] */\n      0x00\n        /* \"Vote.sol\":1714:1719  voter */\n      dup4\n        /* \"Vote.sol\":1701:1720  voter_ballot[voter] */\n      0xffffffffffffffffffffffffffffffffffffffff\n      and\n      0xffffffffffffffffffffffffffffffffffffffff\n      and\n      dup2\n      mstore\n      0x20\n      add\n      swap1\n      dup2\n      mstore\n      0x20\n      add\n      0x00\n      keccak256\n      sload\n        /* \"Vote.sol\":1694:1720  return voter_ballot[voter] */\n      swap1\n      pop\n        /* \"Vote.sol\":1558:1727  function get_ballot(address voter) public view returns(bytes32){... */\n      swap2\n      swap1\n      pop\n      jump\t// out\n        /* \"Vote.sol\":1331:1552  function voting_end() public {... */\n    tag_30:\n        /* \"Vote.sol\":1390:1405  _constractowner */\n      0x00\n      dup1\n      sload\n      swap1\n      0x0100\n      exp\n      swap1\n      div\n      0xffffffffffffffffffffffffffffffffffffffff\n      and\n        /* \"Vote.sol\":1378:1405  msg.sender==_constractowner */\n      0xffffffffffffffffffffffffffffffffffffffff\n      and\n        /* \"Vote.sol\":1378:1388  msg.sender */\n      caller\n        /* \"Vote.sol\":1378:1405  msg.sender==_constractowner */\n      0xffffffffffffffffffffffffffffffffffffffff\n      and\n      eq\n        /* \"Vote.sol\":1370:1423  require(msg.sender==_constractowner, \"No Permission\") */\n      tag_56\n      jumpi\n      mload(0x40)\n      0x08c379a000000000000000000000000000000000000000000000000000000000\n      dup2\n      mstore\n      0x04\n      add\n      tag_57\n      swap1\n      tag_49\n      jump\t// in\n    tag_57:\n      mload(0x40)\n      dup1\n      swap2\n      sub\n      swap1\n      revert\n    tag_56:\n        /* \"Vote.sol\":1468:1477  _duration */\n      sload(0x05)\n        /* \"Vote.sol\":1452:1467  block.timestamp */\n      timestamp\n        /* \"Vote.sol\":1441:1451  _timestamp */\n      sload(0x04)\n        /* \"Vote.sol\":1441:1467  _timestamp-block.timestamp */\n      tag_58\n      swap2\n      swap1\n      tag_59\n      jump\t// in\n    tag_58:\n        /* \"Vote.sol\":1441:1477  _timestamp-block.timestamp>_duration */\n      gt\n        /* \"Vote.sol\":1433:1478  require(_timestamp-block.timestamp>_duration) */\n      tag_60\n      jumpi\n      0x00\n      dup1\n      revert\n    tag_60:\n        /* \"Vote.sol\":1505:1510  false */\n      0x00\n        /* \"Vote.sol\":1488:1502  _voting_status */\n      0x03\n      0x00\n        /* \"Vote.sol\":1488:1510  _voting_status = false */\n      0x0100\n      exp\n      dup2\n      sload\n      dup2\n      0xff\n      mul\n      not\n      and\n      swap1\n      dup4\n      iszero\n      iszero\n      mul\n      or\n      swap1\n      sstore\n      pop\n        /* \"Vote.sol\":1525:1545  Vote_end(_timestamp) */\n      0x13ab142ea11faae224e222f624b4c09d6484b062ceef1149fa6c3811f7bb9a7a\n        /* \"Vote.sol\":1534:1544  _timestamp */\n      sload(0x04)\n        /* \"Vote.sol\":1525:1545  Vote_end(_timestamp) */\n      mload(0x40)\n      tag_61\n      swap2\n      swap1\n      tag_51\n      jump\t// in\n    tag_61:\n      mload(0x40)\n      dup1\n      swap2\n      sub\n      swap1\n      log1\n        /* \"Vote.sol\":1331:1552  function voting_end() public {... */\n      jump\t// out\n        /* \"Vote.sol\":902:1112  function voting(bytes32 ballot) public{... */\n    tag_34:\n        /* \"Vote.sol\":970:980  voter_list */\n      0x08\n        /* \"Vote.sol\":970:988  voter_list[_count] */\n      0x00\n        /* \"Vote.sol\":981:987  _count */\n      sload(0x06)\n        /* \"Vote.sol\":970:988  voter_list[_count] */\n      dup2\n      mstore\n      0x20\n      add\n      swap1\n      dup2\n      mstore\n      0x20\n      add\n      0x00\n      keccak256\n      0x00\n      swap1\n      sload\n      swap1\n      0x0100\n      exp\n      swap1\n      div\n      0xffffffffffffffffffffffffffffffffffffffff\n      and\n        /* \"Vote.sol\":958:988  msg.sender==voter_list[_count] */\n      0xffffffffffffffffffffffffffffffffffffffff\n      and\n        /* \"Vote.sol\":958:968  msg.sender */\n      caller\n        /* \"Vote.sol\":958:988  msg.sender==voter_list[_count] */\n      0xffffffffffffffffffffffffffffffffffffffff\n      and\n      eq\n        /* \"Vote.sol\":950:1002  require(msg.sender==voter_list[_count], \"Wrong key\") */\n      tag_63\n      jumpi\n      mload(0x40)\n      0x08c379a000000000000000000000000000000000000000000000000000000000\n      dup2\n      mstore\n      0x04\n      add\n      tag_64\n      swap1\n      tag_65\n      jump\t// in\n    tag_64:\n      mload(0x40)\n      dup1\n      swap2\n      sub\n      swap1\n      revert\n    tag_63:\n        /* \"Vote.sol\":1039:1045  ballot */\n      dup1\n        /* \"Vote.sol\":1012:1024  voter_ballot */\n      0x09\n        /* \"Vote.sol\":1012:1036  voter_ballot[msg.sender] */\n      0x00\n        /* \"Vote.sol\":1025:1035  msg.sender */\n      caller\n        /* \"Vote.sol\":1012:1036  voter_ballot[msg.sender] */\n      0xffffffffffffffffffffffffffffffffffffffff\n      and\n      0xffffffffffffffffffffffffffffffffffffffff\n      and\n      dup2\n      mstore\n      0x20\n      add\n      swap1\n      dup2\n      mstore\n      0x20\n      add\n      0x00\n      keccak256\n        /* \"Vote.sol\":1012:1045  voter_ballot[msg.sender] = ballot */\n      dup2\n      swap1\n      sstore\n      pop\n        /* \"Vote.sol\":1055:1061  _voted */\n      0x02\n      0x00\n        /* \"Vote.sol\":1055:1063  _voted++ */\n      dup2\n      sload\n      dup1\n      swap3\n      swap2\n      swap1\n      tag_66\n      swap1\n      tag_67\n      jump\t// in\n    tag_66:\n      swap2\n      swap1\n      pop\n      sstore\n      pop\n        /* \"Vote.sol\":1078:1105  Voting_complete(msg.sender) */\n      0xfa031a8df385ffa120ab85b1ef5f8e5ea3fa0288cf068ba3d05a152d87026a09\n        /* \"Vote.sol\":1094:1104  msg.sender */\n      caller\n        /* \"Vote.sol\":1078:1105  Voting_complete(msg.sender) */\n      mload(0x40)\n      tag_68\n      swap2\n      swap1\n      tag_16\n      jump\t// in\n    tag_68:\n      mload(0x40)\n      dup1\n      swap2\n      sub\n      swap1\n      log1\n        /* \"Vote.sol\":902:1112  function voting(bytes32 ballot) public{... */\n      pop\n      jump\t// out\n        /* \"Vote.sol\":1947:2168  function set_voters(address [] memory voters) public {... */\n    tag_37:\n        /* \"Vote.sol\":2030:2045  _constractowner */\n      0x00\n      dup1\n      sload\n      swap1\n      0x0100\n      exp\n      swap1\n      div\n      0xffffffffffffffffffffffffffffffffffffffff\n      and\n        /* \"Vote.sol\":2018:2045  msg.sender==_constractowner */\n      0xffffffffffffffffffffffffffffffffffffffff\n      and\n        /* \"Vote.sol\":2018:2028  msg.sender */\n      caller\n        /* \"Vote.sol\":2018:2045  msg.sender==_constractowner */\n      0xffffffffffffffffffffffffffffffffffffffff\n      and\n      eq\n        /* \"Vote.sol\":2010:2063  require(msg.sender==_constractowner, \"No Permission\") */\n      tag_70\n      jumpi\n      mload(0x40)\n      0x08c379a000000000000000000000000000000000000000000000000000000000\n      dup2\n      mstore\n      0x04\n      add\n      tag_71\n      swap1\n      tag_49\n      jump\t// in\n    tag_71:\n      mload(0x40)\n      dup1\n      swap2\n      sub\n      swap1\n      revert\n    tag_70:\n        /* \"Vote.sol\":2077:2083  uint i */\n      0x00\n        /* \"Vote.sol\":2073:2162  for(uint i = 0; i < voters.length; i++){... */\n    tag_72:\n        /* \"Vote.sol\":2093:2099  voters */\n      dup2\n        /* \"Vote.sol\":2093:2106  voters.length */\n      mload\n        /* \"Vote.sol\":2089:2090  i */\n      dup2\n        /* \"Vote.sol\":2089:2106  i < voters.length */\n      lt\n        /* \"Vote.sol\":2073:2162  for(uint i = 0; i < voters.length; i++){... */\n      iszero\n      tag_73\n      jumpi\n        /* \"Vote.sol\":2126:2151  set_voter_list(voters[i]) */\n      tag_75\n        /* \"Vote.sol\":2141:2147  voters */\n      dup3\n        /* \"Vote.sol\":2148:2149  i */\n      dup3\n        /* \"Vote.sol\":2141:2150  voters[i] */\n      dup2\n      mload\n      dup2\n      lt\n      tag_76\n      jumpi\n      tag_77\n      tag_41\n      jump\t// in\n    tag_77:\n    tag_76:\n      0x20\n      mul\n      0x20\n      add\n      add\n      mload\n        /* \"Vote.sol\":2126:2140  set_voter_list */\n      tag_78\n        /* \"Vote.sol\":2126:2151  set_voter_list(voters[i]) */\n      jump\t// in\n    tag_75:\n        /* \"Vote.sol\":2108:2111  i++ */\n      dup1\n      dup1\n      tag_79\n      swap1\n      tag_67\n      jump\t// in\n    tag_79:\n      swap2\n      pop\n      pop\n        /* \"Vote.sol\":2073:2162  for(uint i = 0; i < voters.length; i++){... */\n      jump(tag_72)\n    tag_73:\n      pop\n        /* \"Vote.sol\":1947:2168  function set_voters(address [] memory voters) public {... */\n      pop\n      jump\t// out\n        /* \"Vote.sol\":747:896  function set_voter_list(address voter) private {... */\n    tag_78:\n        /* \"Vote.sol\":825:830  voter */\n      dup1\n        /* \"Vote.sol\":804:814  voter_list */\n      0x08\n        /* \"Vote.sol\":804:822  voter_list[_count] */\n      0x00\n        /* \"Vote.sol\":815:821  _count */\n      sload(0x06)\n        /* \"Vote.sol\":804:822  voter_list[_count] */\n      dup2\n      mstore\n      0x20\n      add\n      swap1\n      dup2\n      mstore\n      0x20\n      add\n      0x00\n      keccak256\n      0x00\n        /* \"Vote.sol\":804:830  voter_list[_count] = voter */\n      0x0100\n      exp\n      dup2\n      sload\n      dup2\n      0xffffffffffffffffffffffffffffffffffffffff\n      mul\n      not\n      and\n      swap1\n      dup4\n      0xffffffffffffffffffffffffffffffffffffffff\n      and\n      mul\n      or\n      swap1\n      sstore\n      pop\n        /* \"Vote.sol\":840:846  _count */\n      0x06\n      0x00\n        /* \"Vote.sol\":840:848  _count++ */\n      dup2\n      sload\n      dup1\n      swap3\n      swap2\n      swap1\n      tag_81\n      swap1\n      tag_67\n      jump\t// in\n    tag_81:\n      swap2\n      swap1\n      pop\n      sstore\n      pop\n        /* \"Vote.sol\":863:889  Voter_set(voter, _count-1) */\n      0x4ad260fdb84f8458e9ae5bfb9f78b3a60d8daeba55271ac59884c0f6cb4e0435\n        /* \"Vote.sol\":873:878  voter */\n      dup2\n        /* \"Vote.sol\":887:888  1 */\n      0x01\n        /* \"Vote.sol\":880:886  _count */\n      sload(0x06)\n        /* \"Vote.sol\":880:888  _count-1 */\n      tag_82\n      swap2\n      swap1\n      tag_59\n      jump\t// in\n    tag_82:\n        /* \"Vote.sol\":863:889  Voter_set(voter, _count-1) */\n      mload(0x40)\n      tag_83\n      swap3\n      swap2\n      swap1\n      tag_84\n      jump\t// in\n    tag_83:\n      mload(0x40)\n      dup1\n      swap2\n      sub\n      swap1\n      log1\n        /* \"Vote.sol\":747:896  function set_voter_list(address voter) private {... */\n      pop\n      jump\t// out\n    tag_45:\n      dup3\n      dup1\n      sload\n      dup3\n      dup3\n      sstore\n      swap1\n      0x00\n      mstore\n      keccak256(0x00, 0x20)\n      swap1\n      dup2\n      add\n      swap3\n      dup3\n      iszero\n      tag_85\n      jumpi\n      swap2\n      0x20\n      mul\n      dup3\n      add\n    tag_86:\n      dup3\n      dup2\n      gt\n      iszero\n      tag_87\n      jumpi\n      dup3\n      mload\n      dup3\n      exp(0x0100, 0x00)\n      dup2\n      sload\n      dup2\n      0xffffffffffffffffffffffffffffffffffffffff\n      mul\n      not\n      and\n      swap1\n      dup4\n      0xffffffffffffffffffffffffffffffffffffffff\n      and\n      mul\n      or\n      swap1\n      sstore\n      pop\n      swap2\n      0x20\n      add\n      swap2\n      swap1\n      0x01\n      add\n      swap1\n      jump(tag_86)\n    tag_87:\n    tag_85:\n      pop\n      swap1\n      pop\n      tag_88\n      swap2\n      swap1\n      tag_89\n      jump\t// in\n    tag_88:\n      pop\n      swap1\n      jump\t// out\n    tag_89:\n    tag_90:\n      dup1\n      dup3\n      gt\n      iszero\n      tag_91\n      jumpi\n      0x00\n      dup2\n      0x00\n      swap1\n      sstore\n      pop\n      0x01\n      add\n      jump(tag_90)\n    tag_91:\n      pop\n      swap1\n      jump\t// out\n        /* \"#utility.yul\":24:746   */\n    tag_93:\n        /* \"#utility.yul\":120:125   */\n      0x00\n        /* \"#utility.yul\":145:226   */\n      tag_95\n        /* \"#utility.yul\":161:225   */\n      tag_96\n        /* \"#utility.yul\":218:224   */\n      dup5\n        /* \"#utility.yul\":161:225   */\n      tag_97\n      jump\t// in\n    tag_96:\n        /* \"#utility.yul\":145:226   */\n      tag_98\n      jump\t// in\n    tag_95:\n        /* \"#utility.yul\":136:226   */\n      swap1\n      pop\n        /* \"#utility.yul\":246:251   */\n      dup1\n        /* \"#utility.yul\":275:281   */\n      dup4\n        /* \"#utility.yul\":268:273   */\n      dup3\n        /* \"#utility.yul\":261:282   */\n      mstore\n        /* \"#utility.yul\":309:313   */\n      0x20\n        /* \"#utility.yul\":302:307   */\n      dup3\n        /* \"#utility.yul\":298:314   */\n      add\n        /* \"#utility.yul\":291:314   */\n      swap1\n      pop\n        /* \"#utility.yul\":335:341   */\n      dup3\n        /* \"#utility.yul\":385:388   */\n      dup6\n        /* \"#utility.yul\":377:381   */\n      0x20\n        /* \"#utility.yul\":369:375   */\n      dup7\n        /* \"#utility.yul\":365:382   */\n      mul\n        /* \"#utility.yul\":360:363   */\n      dup3\n        /* \"#utility.yul\":356:383   */\n      add\n        /* \"#utility.yul\":353:389   */\n      gt\n        /* \"#utility.yul\":350:493   */\n      iszero\n      tag_99\n      jumpi\n        /* \"#utility.yul\":404:483   */\n      tag_100\n      tag_101\n      jump\t// in\n    tag_100:\n        /* \"#utility.yul\":350:493   */\n    tag_99:\n        /* \"#utility.yul\":517:518   */\n      0x00\n        /* \"#utility.yul\":502:740   */\n    tag_102:\n        /* \"#utility.yul\":527:533   */\n      dup6\n        /* \"#utility.yul\":524:525   */\n      dup2\n        /* \"#utility.yul\":521:534   */\n      lt\n        /* \"#utility.yul\":502:740   */\n      iszero\n      tag_104\n      jumpi\n        /* \"#utility.yul\":595:598   */\n      dup2\n        /* \"#utility.yul\":624:661   */\n      tag_105\n        /* \"#utility.yul\":657:660   */\n      dup9\n        /* \"#utility.yul\":645:655   */\n      dup3\n        /* \"#utility.yul\":624:661   */\n      tag_106\n      jump\t// in\n    tag_105:\n        /* \"#utility.yul\":619:622   */\n      dup5\n        /* \"#utility.yul\":612:662   */\n      mstore\n        /* \"#utility.yul\":691:695   */\n      0x20\n        /* \"#utility.yul\":686:689   */\n      dup5\n        /* \"#utility.yul\":682:696   */\n      add\n        /* \"#utility.yul\":675:696   */\n      swap4\n      pop\n        /* \"#utility.yul\":725:729   */\n      0x20\n        /* \"#utility.yul\":720:723   */\n      dup4\n        /* \"#utility.yul\":716:730   */\n      add\n        /* \"#utility.yul\":709:730   */\n      swap3\n      pop\n        /* \"#utility.yul\":562:740   */\n      pop\n        /* \"#utility.yul\":549:550   */\n      0x01\n        /* \"#utility.yul\":546:547   */\n      dup2\n        /* \"#utility.yul\":542:551   */\n      add\n        /* \"#utility.yul\":537:551   */\n      swap1\n      pop\n        /* \"#utility.yul\":502:740   */\n      jump(tag_102)\n    tag_104:\n        /* \"#utility.yul\":506:520   */\n      pop\n        /* \"#utility.yul\":126:746   */\n      pop\n      pop\n        /* \"#utility.yul\":24:746   */\n      swap4\n      swap3\n      pop\n      pop\n      pop\n      jump\t// out\n        /* \"#utility.yul\":752:891   */\n    tag_106:\n        /* \"#utility.yul\":798:803   */\n      0x00\n        /* \"#utility.yul\":836:842   */\n      dup2\n        /* \"#utility.yul\":823:843   */\n      calldataload\n        /* \"#utility.yul\":814:843   */\n      swap1\n      pop\n        /* \"#utility.yul\":852:885   */\n      tag_108\n        /* \"#utility.yul\":879:884   */\n      dup2\n        /* \"#utility.yul\":852:885   */\n      tag_109\n      jump\t// in\n    tag_108:\n        /* \"#utility.yul\":752:891   */\n      swap3\n      swap2\n      pop\n      pop\n      jump\t// out\n        /* \"#utility.yul\":914:1284   */\n    tag_110:\n        /* \"#utility.yul\":985:990   */\n      0x00\n        /* \"#utility.yul\":1034:1037   */\n      dup3\n        /* \"#utility.yul\":1027:1031   */\n      0x1f\n        /* \"#utility.yul\":1019:1025   */\n      dup4\n        /* \"#utility.yul\":1015:1032   */\n      add\n        /* \"#utility.yul\":1011:1038   */\n      slt\n        /* \"#utility.yul\":1001:1123   */\n      tag_112\n      jumpi\n        /* \"#utility.yul\":1042:1121   */\n      tag_113\n      tag_114\n      jump\t// in\n    tag_113:\n        /* \"#utility.yul\":1001:1123   */\n    tag_112:\n        /* \"#utility.yul\":1159:1165   */\n      dup2\n        /* \"#utility.yul\":1146:1166   */\n      calldataload\n        /* \"#utility.yul\":1184:1278   */\n      tag_115\n        /* \"#utility.yul\":1274:1277   */\n      dup5\n        /* \"#utility.yul\":1266:1272   */\n      dup3\n        /* \"#utility.yul\":1259:1263   */\n      0x20\n        /* \"#utility.yul\":1251:1257   */\n      dup7\n        /* \"#utility.yul\":1247:1264   */\n      add\n        /* \"#utility.yul\":1184:1278   */\n      tag_93\n      jump\t// in\n    tag_115:\n        /* \"#utility.yul\":1175:1278   */\n      swap2\n      pop\n        /* \"#utility.yul\":991:1284   */\n      pop\n        /* \"#utility.yul\":914:1284   */\n      swap3\n      swap2\n      pop\n      pop\n      jump\t// out\n        /* \"#utility.yul\":1290:1429   */\n    tag_116:\n        /* \"#utility.yul\":1336:1341   */\n      0x00\n        /* \"#utility.yul\":1374:1380   */\n      dup2\n        /* \"#utility.yul\":1361:1381   */\n      calldataload\n        /* \"#utility.yul\":1352:1381   */\n      swap1\n      pop\n        /* \"#utility.yul\":1390:1423   */\n      tag_118\n        /* \"#utility.yul\":1417:1422   */\n      dup2\n        /* \"#utility.yul\":1390:1423   */\n      tag_119\n      jump\t// in\n    tag_118:\n        /* \"#utility.yul\":1290:1429   */\n      swap3\n      swap2\n      pop\n      pop\n      jump\t// out\n        /* \"#utility.yul\":1435:1574   */\n    tag_120:\n        /* \"#utility.yul\":1481:1486   */\n      0x00\n        /* \"#utility.yul\":1519:1525   */\n      dup2\n        /* \"#utility.yul\":1506:1526   */\n      calldataload\n        /* \"#utility.yul\":1497:1526   */\n      swap1\n      pop\n        /* \"#utility.yul\":1535:1568   */\n      tag_122\n        /* \"#utility.yul\":1562:1567   */\n      dup2\n        /* \"#utility.yul\":1535:1568   */\n      tag_123\n      jump\t// in\n    tag_122:\n        /* \"#utility.yul\":1435:1574   */\n      swap3\n      swap2\n      pop\n      pop\n      jump\t// out\n        /* \"#utility.yul\":1580:1909   */\n    tag_25:\n        /* \"#utility.yul\":1639:1645   */\n      0x00\n        /* \"#utility.yul\":1688:1690   */\n      0x20\n        /* \"#utility.yul\":1676:1685   */\n      dup3\n        /* \"#utility.yul\":1667:1674   */\n      dup5\n        /* \"#utility.yul\":1663:1686   */\n      sub\n        /* \"#utility.yul\":1659:1691   */\n      slt\n        /* \"#utility.yul\":1656:1775   */\n      iszero\n      tag_125\n      jumpi\n        /* \"#utility.yul\":1694:1773   */\n      tag_126\n      tag_127\n      jump\t// in\n    tag_126:\n        /* \"#utility.yul\":1656:1775   */\n    tag_125:\n        /* \"#utility.yul\":1814:1815   */\n      0x00\n        /* \"#utility.yul\":1839:1892   */\n      tag_128\n        /* \"#utility.yul\":1884:1891   */\n      dup5\n        /* \"#utility.yul\":1875:1881   */\n      dup3\n        /* \"#utility.yul\":1864:1873   */\n      dup6\n        /* \"#utility.yul\":1860:1882   */\n      add\n        /* \"#utility.yul\":1839:1892   */\n      tag_106\n      jump\t// in\n    tag_128:\n        /* \"#utility.yul\":1829:1892   */\n      swap2\n      pop\n        /* \"#utility.yul\":1785:1902   */\n      pop\n        /* \"#utility.yul\":1580:1909   */\n      swap3\n      swap2\n      pop\n      pop\n      jump\t// out\n        /* \"#utility.yul\":1915:2454   */\n    tag_19:\n        /* \"#utility.yul\":1999:2005   */\n      0x00\n        /* \"#utility.yul\":2048:2050   */\n      0x20\n        /* \"#utility.yul\":2036:2045   */\n      dup3\n        /* \"#utility.yul\":2027:2034   */\n      dup5\n        /* \"#utility.yul\":2023:2046   */\n      sub\n        /* \"#utility.yul\":2019:2051   */\n      slt\n        /* \"#utility.yul\":2016:2135   */\n      iszero\n      tag_130\n      jumpi\n        /* \"#utility.yul\":2054:2133   */\n      tag_131\n      tag_127\n      jump\t// in\n    tag_131:\n        /* \"#utility.yul\":2016:2135   */\n    tag_130:\n        /* \"#utility.yul\":2202:2203   */\n      0x00\n        /* \"#utility.yul\":2191:2200   */\n      dup3\n        /* \"#utility.yul\":2187:2204   */\n      add\n        /* \"#utility.yul\":2174:2205   */\n      calldataload\n        /* \"#utility.yul\":2232:2250   */\n      0xffffffffffffffff\n        /* \"#utility.yul\":2224:2230   */\n      dup2\n        /* \"#utility.yul\":2221:2251   */\n      gt\n        /* \"#utility.yul\":2218:2335   */\n      iszero\n      tag_132\n      jumpi\n        /* \"#utility.yul\":2254:2333   */\n      tag_133\n      tag_134\n      jump\t// in\n    tag_133:\n        /* \"#utility.yul\":2218:2335   */\n    tag_132:\n        /* \"#utility.yul\":2359:2437   */\n      tag_135\n        /* \"#utility.yul\":2429:2436   */\n      dup5\n        /* \"#utility.yul\":2420:2426   */\n      dup3\n        /* \"#utility.yul\":2409:2418   */\n      dup6\n        /* \"#utility.yul\":2405:2427   */\n      add\n        /* \"#utility.yul\":2359:2437   */\n      tag_110\n      jump\t// in\n    tag_135:\n        /* \"#utility.yul\":2349:2437   */\n      swap2\n      pop\n        /* \"#utility.yul\":2145:2447   */\n      pop\n        /* \"#utility.yul\":1915:2454   */\n      swap3\n      swap2\n      pop\n      pop\n      jump\t// out\n        /* \"#utility.yul\":2460:2789   */\n    tag_33:\n        /* \"#utility.yul\":2519:2525   */\n      0x00\n        /* \"#utility.yul\":2568:2570   */\n      0x20\n        /* \"#utility.yul\":2556:2565   */\n      dup3\n        /* \"#utility.yul\":2547:2554   */\n      dup5\n        /* \"#utility.yul\":2543:2566   */\n      sub\n        /* \"#utility.yul\":2539:2571   */\n      slt\n        /* \"#utility.yul\":2536:2655   */\n      iszero\n      tag_137\n      jumpi\n        /* \"#utility.yul\":2574:2653   */\n      tag_138\n      tag_127\n      jump\t// in\n    tag_138:\n        /* \"#utility.yul\":2536:2655   */\n    tag_137:\n        /* \"#utility.yul\":2694:2695   */\n      0x00\n        /* \"#utility.yul\":2719:2772   */\n      tag_139\n        /* \"#utility.yul\":2764:2771   */\n      dup5\n        /* \"#utility.yul\":2755:2761   */\n      dup3\n        /* \"#utility.yul\":2744:2753   */\n      dup6\n        /* \"#utility.yul\":2740:2762   */\n      add\n        /* \"#utility.yul\":2719:2772   */\n      tag_116\n      jump\t// in\n    tag_139:\n        /* \"#utility.yul\":2709:2772   */\n      swap2\n      pop\n        /* \"#utility.yul\":2665:2782   */\n      pop\n        /* \"#utility.yul\":2460:2789   */\n      swap3\n      swap2\n      pop\n      pop\n      jump\t// out\n        /* \"#utility.yul\":2795:3124   */\n    tag_13:\n        /* \"#utility.yul\":2854:2860   */\n      0x00\n        /* \"#utility.yul\":2903:2905   */\n      0x20\n        /* \"#utility.yul\":2891:2900   */\n      dup3\n        /* \"#utility.yul\":2882:2889   */\n      dup5\n        /* \"#utility.yul\":2878:2901   */\n      sub\n        /* \"#utility.yul\":2874:2906   */\n      slt\n        /* \"#utility.yul\":2871:2990   */\n      iszero\n      tag_141\n      jumpi\n        /* \"#utility.yul\":2909:2988   */\n      tag_142\n      tag_127\n      jump\t// in\n    tag_142:\n        /* \"#utility.yul\":2871:2990   */\n    tag_141:\n        /* \"#utility.yul\":3029:3030   */\n      0x00\n        /* \"#utility.yul\":3054:3107   */\n      tag_143\n        /* \"#utility.yul\":3099:3106   */\n      dup5\n        /* \"#utility.yul\":3090:3096   */\n      dup3\n        /* \"#utility.yul\":3079:3088   */\n      dup6\n        /* \"#utility.yul\":3075:3097   */\n      add\n        /* \"#utility.yul\":3054:3107   */\n      tag_120\n      jump\t// in\n    tag_143:\n        /* \"#utility.yul\":3044:3107   */\n      swap2\n      pop\n        /* \"#utility.yul\":3000:3117   */\n      pop\n        /* \"#utility.yul\":2795:3124   */\n      swap3\n      swap2\n      pop\n      pop\n      jump\t// out\n        /* \"#utility.yul\":3130:3248   */\n    tag_144:\n        /* \"#utility.yul\":3217:3241   */\n      tag_146\n        /* \"#utility.yul\":3235:3240   */\n      dup2\n        /* \"#utility.yul\":3217:3241   */\n      tag_147\n      jump\t// in\n    tag_146:\n        /* \"#utility.yul\":3212:3215   */\n      dup3\n        /* \"#utility.yul\":3205:3242   */\n      mstore\n        /* \"#utility.yul\":3130:3248   */\n      pop\n      pop\n      jump\t// out\n        /* \"#utility.yul\":3254:3372   */\n    tag_148:\n        /* \"#utility.yul\":3341:3365   */\n      tag_150\n        /* \"#utility.yul\":3359:3364   */\n      dup2\n        /* \"#utility.yul\":3341:3365   */\n      tag_151\n      jump\t// in\n    tag_150:\n        /* \"#utility.yul\":3336:3339   */\n      dup3\n        /* \"#utility.yul\":3329:3366   */\n      mstore\n        /* \"#utility.yul\":3254:3372   */\n      pop\n      pop\n      jump\t// out\n        /* \"#utility.yul\":3378:3743   */\n    tag_152:\n        /* \"#utility.yul\":3520:3523   */\n      0x00\n        /* \"#utility.yul\":3541:3607   */\n      tag_154\n        /* \"#utility.yul\":3605:3606   */\n      0x09\n        /* \"#utility.yul\":3600:3603   */\n      dup4\n        /* \"#utility.yul\":3541:3607   */\n      tag_155\n      jump\t// in\n    tag_154:\n        /* \"#utility.yul\":3534:3607   */\n      swap2\n      pop\n        /* \"#utility.yul\":3616:3709   */\n      tag_156\n        /* \"#utility.yul\":3705:3708   */\n      dup3\n        /* \"#utility.yul\":3616:3709   */\n      tag_157\n      jump\t// in\n    tag_156:\n        /* \"#utility.yul\":3734:3736   */\n      0x20\n        /* \"#utility.yul\":3729:3732   */\n      dup3\n        /* \"#utility.yul\":3725:3737   */\n      add\n        /* \"#utility.yul\":3718:3737   */\n      swap1\n      pop\n        /* \"#utility.yul\":3378:3743   */\n      swap2\n      swap1\n      pop\n      jump\t// out\n        /* \"#utility.yul\":3749:4115   */\n    tag_158:\n        /* \"#utility.yul\":3891:3894   */\n      0x00\n        /* \"#utility.yul\":3912:3979   */\n      tag_160\n        /* \"#utility.yul\":3976:3978   */\n      0x0d\n        /* \"#utility.yul\":3971:3974   */\n      dup4\n        /* \"#utility.yul\":3912:3979   */\n      tag_155\n      jump\t// in\n    tag_160:\n        /* \"#utility.yul\":3905:3979   */\n      swap2\n      pop\n        /* \"#utility.yul\":3988:4081   */\n      tag_161\n        /* \"#utility.yul\":4077:4080   */\n      dup3\n        /* \"#utility.yul\":3988:4081   */\n      tag_162\n      jump\t// in\n    tag_161:\n        /* \"#utility.yul\":4106:4108   */\n      0x20\n        /* \"#utility.yul\":4101:4104   */\n      dup3\n        /* \"#utility.yul\":4097:4109   */\n      add\n        /* \"#utility.yul\":4090:4109   */\n      swap1\n      pop\n        /* \"#utility.yul\":3749:4115   */\n      swap2\n      swap1\n      pop\n      jump\t// out\n        /* \"#utility.yul\":4121:4239   */\n    tag_163:\n        /* \"#utility.yul\":4208:4232   */\n      tag_165\n        /* \"#utility.yul\":4226:4231   */\n      dup2\n        /* \"#utility.yul\":4208:4232   */\n      tag_166\n      jump\t// in\n    tag_165:\n        /* \"#utility.yul\":4203:4206   */\n      dup3\n        /* \"#utility.yul\":4196:4233   */\n      mstore\n        /* \"#utility.yul\":4121:4239   */\n      pop\n      pop\n      jump\t// out\n        /* \"#utility.yul\":4245:4467   */\n    tag_16:\n        /* \"#utility.yul\":4338:4342   */\n      0x00\n        /* \"#utility.yul\":4376:4378   */\n      0x20\n        /* \"#utility.yul\":4365:4374   */\n      dup3\n        /* \"#utility.yul\":4361:4379   */\n      add\n        /* \"#utility.yul\":4353:4379   */\n      swap1\n      pop\n        /* \"#utility.yul\":4389:4460   */\n      tag_168\n        /* \"#utility.yul\":4457:4458   */\n      0x00\n        /* \"#utility.yul\":4446:4455   */\n      dup4\n        /* \"#utility.yul\":4442:4459   */\n      add\n        /* \"#utility.yul\":4433:4439   */\n      dup5\n        /* \"#utility.yul\":4389:4460   */\n      tag_144\n      jump\t// in\n    tag_168:\n        /* \"#utility.yul\":4245:4467   */\n      swap3\n      swap2\n      pop\n      pop\n      jump\t// out\n        /* \"#utility.yul\":4473:4805   */\n    tag_84:\n        /* \"#utility.yul\":4594:4598   */\n      0x00\n        /* \"#utility.yul\":4632:4634   */\n      0x40\n        /* \"#utility.yul\":4621:4630   */\n      dup3\n        /* \"#utility.yul\":4617:4635   */\n      add\n        /* \"#utility.yul\":4609:4635   */\n      swap1\n      pop\n        /* \"#utility.yul\":4645:4716   */\n      tag_170\n        /* \"#utility.yul\":4713:4714   */\n      0x00\n        /* \"#utility.yul\":4702:4711   */\n      dup4\n        /* \"#utility.yul\":4698:4715   */\n      add\n        /* \"#utility.yul\":4689:4695   */\n      dup6\n        /* \"#utility.yul\":4645:4716   */\n      tag_144\n      jump\t// in\n    tag_170:\n        /* \"#utility.yul\":4726:4798   */\n      tag_171\n        /* \"#utility.yul\":4794:4796   */\n      0x20\n        /* \"#utility.yul\":4783:4792   */\n      dup4\n        /* \"#utility.yul\":4779:4797   */\n      add\n        /* \"#utility.yul\":4770:4776   */\n      dup5\n        /* \"#utility.yul\":4726:4798   */\n      tag_163\n      jump\t// in\n    tag_171:\n        /* \"#utility.yul\":4473:4805   */\n      swap4\n      swap3\n      pop\n      pop\n      pop\n      jump\t// out\n        /* \"#utility.yul\":4811:5033   */\n    tag_28:\n        /* \"#utility.yul\":4904:4908   */\n      0x00\n        /* \"#utility.yul\":4942:4944   */\n      0x20\n        /* \"#utility.yul\":4931:4940   */\n      dup3\n        /* \"#utility.yul\":4927:4945   */\n      add\n        /* \"#utility.yul\":4919:4945   */\n      swap1\n      pop\n        /* \"#utility.yul\":4955:5026   */\n      tag_173\n        /* \"#utility.yul\":5023:5024   */\n      0x00\n        /* \"#utility.yul\":5012:5021   */\n      dup4\n        /* \"#utility.yul\":5008:5025   */\n      add\n        /* \"#utility.yul\":4999:5005   */\n      dup5\n        /* \"#utility.yul\":4955:5026   */\n      tag_148\n      jump\t// in\n    tag_173:\n        /* \"#utility.yul\":4811:5033   */\n      swap3\n      swap2\n      pop\n      pop\n      jump\t// out\n        /* \"#utility.yul\":5039:5458   */\n    tag_65:\n        /* \"#utility.yul\":5205:5209   */\n      0x00\n        /* \"#utility.yul\":5243:5245   */\n      0x20\n        /* \"#utility.yul\":5232:5241   */\n      dup3\n        /* \"#utility.yul\":5228:5246   */\n      add\n        /* \"#utility.yul\":5220:5246   */\n      swap1\n      pop\n        /* \"#utility.yul\":5292:5301   */\n      dup2\n        /* \"#utility.yul\":5286:5290   */\n      dup2\n        /* \"#utility.yul\":5282:5302   */\n      sub\n        /* \"#utility.yul\":5278:5279   */\n      0x00\n        /* \"#utility.yul\":5267:5276   */\n      dup4\n        /* \"#utility.yul\":5263:5280   */\n      add\n        /* \"#utility.yul\":5256:5303   */\n      mstore\n        /* \"#utility.yul\":5320:5451   */\n      tag_175\n        /* \"#utility.yul\":5446:5450   */\n      dup2\n        /* \"#utility.yul\":5320:5451   */\n      tag_152\n      jump\t// in\n    tag_175:\n        /* \"#utility.yul\":5312:5451   */\n      swap1\n      pop\n        /* \"#utility.yul\":5039:5458   */\n      swap2\n      swap1\n      pop\n      jump\t// out\n        /* \"#utility.yul\":5464:5883   */\n    tag_49:\n        /* \"#utility.yul\":5630:5634   */\n      0x00\n        /* \"#utility.yul\":5668:5670   */\n      0x20\n        /* \"#utility.yul\":5657:5666   */\n      dup3\n        /* \"#utility.yul\":5653:5671   */\n      add\n        /* \"#utility.yul\":5645:5671   */\n      swap1\n      pop\n        /* \"#utility.yul\":5717:5726   */\n      dup2\n        /* \"#utility.yul\":5711:5715   */\n      dup2\n        /* \"#utility.yul\":5707:5727   */\n      sub\n        /* \"#utility.yul\":5703:5704   */\n      0x00\n        /* \"#utility.yul\":5692:5701   */\n      dup4\n        /* \"#utility.yul\":5688:5705   */\n      add\n        /* \"#utility.yul\":5681:5728   */\n      mstore\n        /* \"#utility.yul\":5745:5876   */\n      tag_177\n        /* \"#utility.yul\":5871:5875   */\n      dup2\n        /* \"#utility.yul\":5745:5876   */\n      tag_158\n      jump\t// in\n    tag_177:\n        /* \"#utility.yul\":5737:5876   */\n      swap1\n      pop\n        /* \"#utility.yul\":5464:5883   */\n      swap2\n      swap1\n      pop\n      jump\t// out\n        /* \"#utility.yul\":5889:6111   */\n    tag_51:\n        /* \"#utility.yul\":5982:5986   */\n      0x00\n        /* \"#utility.yul\":6020:6022   */\n      0x20\n        /* \"#utility.yul\":6009:6018   */\n      dup3\n        /* \"#utility.yul\":6005:6023   */\n      add\n        /* \"#utility.yul\":5997:6023   */\n      swap1\n      pop\n        /* \"#utility.yul\":6033:6104   */\n      tag_179\n        /* \"#utility.yul\":6101:6102   */\n      0x00\n        /* \"#utility.yul\":6090:6099   */\n      dup4\n        /* \"#utility.yul\":6086:6103   */\n      add\n        /* \"#utility.yul\":6077:6083   */\n      dup5\n        /* \"#utility.yul\":6033:6104   */\n      tag_163\n      jump\t// in\n    tag_179:\n        /* \"#utility.yul\":5889:6111   */\n      swap3\n      swap2\n      pop\n      pop\n      jump\t// out\n        /* \"#utility.yul\":6117:6246   */\n    tag_98:\n        /* \"#utility.yul\":6151:6157   */\n      0x00\n        /* \"#utility.yul\":6178:6198   */\n      tag_181\n      tag_182\n      jump\t// in\n    tag_181:\n        /* \"#utility.yul\":6168:6198   */\n      swap1\n      pop\n        /* \"#utility.yul\":6207:6240   */\n      tag_183\n        /* \"#utility.yul\":6235:6239   */\n      dup3\n        /* \"#utility.yul\":6227:6233   */\n      dup3\n        /* \"#utility.yul\":6207:6240   */\n      tag_184\n      jump\t// in\n    tag_183:\n        /* \"#utility.yul\":6117:6246   */\n      swap2\n      swap1\n      pop\n      jump\t// out\n        /* \"#utility.yul\":6252:6327   */\n    tag_182:\n        /* \"#utility.yul\":6285:6291   */\n      0x00\n        /* \"#utility.yul\":6318:6320   */\n      0x40\n        /* \"#utility.yul\":6312:6321   */\n      mload\n        /* \"#utility.yul\":6302:6321   */\n      swap1\n      pop\n        /* \"#utility.yul\":6252:6327   */\n      swap1\n      jump\t// out\n        /* \"#utility.yul\":6333:6644   */\n    tag_97:\n        /* \"#utility.yul\":6410:6414   */\n      0x00\n        /* \"#utility.yul\":6500:6518   */\n      0xffffffffffffffff\n        /* \"#utility.yul\":6492:6498   */\n      dup3\n        /* \"#utility.yul\":6489:6519   */\n      gt\n        /* \"#utility.yul\":6486:6542   */\n      iszero\n      tag_187\n      jumpi\n        /* \"#utility.yul\":6522:6540   */\n      tag_188\n      tag_189\n      jump\t// in\n    tag_188:\n        /* \"#utility.yul\":6486:6542   */\n    tag_187:\n        /* \"#utility.yul\":6572:6576   */\n      0x20\n        /* \"#utility.yul\":6564:6570   */\n      dup3\n        /* \"#utility.yul\":6560:6577   */\n      mul\n        /* \"#utility.yul\":6552:6577   */\n      swap1\n      pop\n        /* \"#utility.yul\":6632:6636   */\n      0x20\n        /* \"#utility.yul\":6626:6630   */\n      dup2\n        /* \"#utility.yul\":6622:6637   */\n      add\n        /* \"#utility.yul\":6614:6637   */\n      swap1\n      pop\n        /* \"#utility.yul\":6333:6644   */\n      swap2\n      swap1\n      pop\n      jump\t// out\n        /* \"#utility.yul\":6650:6819   */\n    tag_155:\n        /* \"#utility.yul\":6734:6745   */\n      0x00\n        /* \"#utility.yul\":6768:6774   */\n      dup3\n        /* \"#utility.yul\":6763:6766   */\n      dup3\n        /* \"#utility.yul\":6756:6775   */\n      mstore\n        /* \"#utility.yul\":6808:6812   */\n      0x20\n        /* \"#utility.yul\":6803:6806   */\n      dup3\n        /* \"#utility.yul\":6799:6813   */\n      add\n        /* \"#utility.yul\":6784:6813   */\n      swap1\n      pop\n        /* \"#utility.yul\":6650:6819   */\n      swap3\n      swap2\n      pop\n      pop\n      jump\t// out\n        /* \"#utility.yul\":6825:7016   */\n    tag_59:\n        /* \"#utility.yul\":6865:6869   */\n      0x00\n        /* \"#utility.yul\":6885:6905   */\n      tag_192\n        /* \"#utility.yul\":6903:6904   */\n      dup3\n        /* \"#utility.yul\":6885:6905   */\n      tag_166\n      jump\t// in\n    tag_192:\n        /* \"#utility.yul\":6880:6905   */\n      swap2\n      pop\n        /* \"#utility.yul\":6919:6939   */\n      tag_193\n        /* \"#utility.yul\":6937:6938   */\n      dup4\n        /* \"#utility.yul\":6919:6939   */\n      tag_166\n      jump\t// in\n    tag_193:\n        /* \"#utility.yul\":6914:6939   */\n      swap3\n      pop\n        /* \"#utility.yul\":6958:6959   */\n      dup3\n        /* \"#utility.yul\":6955:6956   */\n      dup3\n        /* \"#utility.yul\":6952:6960   */\n      lt\n        /* \"#utility.yul\":6949:6983   */\n      iszero\n      tag_194\n      jumpi\n        /* \"#utility.yul\":6963:6981   */\n      tag_195\n      tag_196\n      jump\t// in\n    tag_195:\n        /* \"#utility.yul\":6949:6983   */\n    tag_194:\n        /* \"#utility.yul\":7008:7009   */\n      dup3\n        /* \"#utility.yul\":7005:7006   */\n      dup3\n        /* \"#utility.yul\":7001:7010   */\n      sub\n        /* \"#utility.yul\":6993:7010   */\n      swap1\n      pop\n        /* \"#utility.yul\":6825:7016   */\n      swap3\n      swap2\n      pop\n      pop\n      jump\t// out\n        /* \"#utility.yul\":7022:7118   */\n    tag_147:\n        /* \"#utility.yul\":7059:7066   */\n      0x00\n        /* \"#utility.yul\":7088:7112   */\n      tag_198\n        /* \"#utility.yul\":7106:7111   */\n      dup3\n        /* \"#utility.yul\":7088:7112   */\n      tag_199\n      jump\t// in\n    tag_198:\n        /* \"#utility.yul\":7077:7112   */\n      swap1\n      pop\n        /* \"#utility.yul\":7022:7118   */\n      swap2\n      swap1\n      pop\n      jump\t// out\n        /* \"#utility.yul\":7124:7201   */\n    tag_151:\n        /* \"#utility.yul\":7161:7168   */\n      0x00\n        /* \"#utility.yul\":7190:7195   */\n      dup2\n        /* \"#utility.yul\":7179:7195   */\n      swap1\n      pop\n        /* \"#utility.yul\":7124:7201   */\n      swap2\n      swap1\n      pop\n      jump\t// out\n        /* \"#utility.yul\":7207:7333   */\n    tag_199:\n        /* \"#utility.yul\":7244:7251   */\n      0x00\n        /* \"#utility.yul\":7284:7326   */\n      0xffffffffffffffffffffffffffffffffffffffff\n        /* \"#utility.yul\":7277:7282   */\n      dup3\n        /* \"#utility.yul\":7273:7327   */\n      and\n        /* \"#utility.yul\":7262:7327   */\n      swap1\n      pop\n        /* \"#utility.yul\":7207:7333   */\n      swap2\n      swap1\n      pop\n      jump\t// out\n        /* \"#utility.yul\":7339:7416   */\n    tag_166:\n        /* \"#utility.yul\":7376:7383   */\n      0x00\n        /* \"#utility.yul\":7405:7410   */\n      dup2\n        /* \"#utility.yul\":7394:7410   */\n      swap1\n      pop\n        /* \"#utility.yul\":7339:7416   */\n      swap2\n      swap1\n      pop\n      jump\t// out\n        /* \"#utility.yul\":7422:7703   */\n    tag_184:\n        /* \"#utility.yul\":7505:7532   */\n      tag_204\n        /* \"#utility.yul\":7527:7531   */\n      dup3\n        /* \"#utility.yul\":7505:7532   */\n      tag_205\n      jump\t// in\n    tag_204:\n        /* \"#utility.yul\":7497:7503   */\n      dup2\n        /* \"#utility.yul\":7493:7533   */\n      add\n        /* \"#utility.yul\":7635:7641   */\n      dup2\n        /* \"#utility.yul\":7623:7633   */\n      dup2\n        /* \"#utility.yul\":7620:7642   */\n      lt\n        /* \"#utility.yul\":7599:7617   */\n      0xffffffffffffffff\n        /* \"#utility.yul\":7587:7597   */\n      dup3\n        /* \"#utility.yul\":7584:7618   */\n      gt\n        /* \"#utility.yul\":7581:7643   */\n      or\n        /* \"#utility.yul\":7578:7666   */\n      iszero\n      tag_206\n      jumpi\n        /* \"#utility.yul\":7646:7664   */\n      tag_207\n      tag_189\n      jump\t// in\n    tag_207:\n        /* \"#utility.yul\":7578:7666   */\n    tag_206:\n        /* \"#utility.yul\":7686:7696   */\n      dup1\n        /* \"#utility.yul\":7682:7684   */\n      0x40\n        /* \"#utility.yul\":7675:7697   */\n      mstore\n        /* \"#utility.yul\":7465:7703   */\n      pop\n        /* \"#utility.yul\":7422:7703   */\n      pop\n      pop\n      jump\t// out\n        /* \"#utility.yul\":7709:7942   */\n    tag_67:\n        /* \"#utility.yul\":7748:7751   */\n      0x00\n        /* \"#utility.yul\":7771:7795   */\n      tag_209\n        /* \"#utility.yul\":7789:7794   */\n      dup3\n        /* \"#utility.yul\":7771:7795   */\n      tag_166\n      jump\t// in\n    tag_209:\n        /* \"#utility.yul\":7762:7795   */\n      swap2\n      pop\n        /* \"#utility.yul\":7817:7883   */\n      0xffffffffffffffffffffffffffffffffffffffffffffffffffffffffffffffff\n        /* \"#utility.yul\":7810:7815   */\n      dup3\n        /* \"#utility.yul\":7807:7884   */\n      eq\n        /* \"#utility.yul\":7804:7907   */\n      iszero\n      tag_210\n      jumpi\n        /* \"#utility.yul\":7887:7905   */\n      tag_211\n      tag_196\n      jump\t// in\n    tag_211:\n        /* \"#utility.yul\":7804:7907   */\n    tag_210:\n        /* \"#utility.yul\":7934:7935   */\n      0x01\n        /* \"#utility.yul\":7927:7932   */\n      dup3\n        /* \"#utility.yul\":7923:7936   */\n      add\n        /* \"#utility.yul\":7916:7936   */\n      swap1\n      pop\n        /* \"#utility.yul\":7709:7942   */\n      swap2\n      swap1\n      pop\n      jump\t// out\n        /* \"#utility.yul\":7948:8128   */\n    tag_196:\n        /* \"#utility.yul\":7996:8073   */\n      0x4e487b7100000000000000000000000000000000000000000000000000000000\n        /* \"#utility.yul\":7993:7994   */\n      0x00\n        /* \"#utility.yul\":7986:8074   */\n      mstore\n        /* \"#utility.yul\":8093:8097   */\n      0x11\n        /* \"#utility.yul\":8090:8091   */\n      0x04\n        /* \"#utility.yul\":8083:8098   */\n      mstore\n        /* \"#utility.yul\":8117:8121   */\n      0x24\n        /* \"#utility.yul\":8114:8115   */\n      0x00\n        /* \"#utility.yul\":8107:8122   */\n      revert\n        /* \"#utility.yul\":8134:8314   */\n    tag_41:\n        /* \"#utility.yul\":8182:8259   */\n      0x4e487b7100000000000000000000000000000000000000000000000000000000\n        /* \"#utility.yul\":8179:8180   */\n      0x00\n        /* \"#utility.yul\":8172:8260   */\n      mstore\n        /* \"#utility.yul\":8279:8283   */\n      0x32\n        /* \"#utility.yul\":8276:8277   */\n      0x04\n        /* \"#utility.yul\":8269:8284   */\n      mstore\n        /* \"#utility.yul\":8303:8307   */\n      0x24\n        /* \"#utility.yul\":8300:8301   */\n      0x00\n        /* \"#utility.yul\":8293:8308   */\n      revert\n        /* \"#utility.yul\":8320:8500   */\n    tag_189:\n        /* \"#utility.yul\":8368:8445   */\n      0x4e487b7100000000000000000000000000000000000000000000000000000000\n        /* \"#utility.yul\":8365:8366   */\n      0x00\n        /* \"#utility.yul\":8358:8446   */\n      mstore\n        /* \"#utility.yul\":8465:8469   */\n      0x41\n        /* \"#utility.yul\":8462:8463   */\n      0x04\n        /* \"#utility.yul\":8455:8470   */\n      mstore\n        /* \"#utility.yul\":8489:8493   */\n      0x24\n        /* \"#utility.yul\":8486:8487   */\n      0x00\n        /* \"#utility.yul\":8479:8494   */\n      revert\n        /* \"#utility.yul\":8506:8623   */\n    tag_114:\n        /* \"#utility.yul\":8615:8616   */\n      0x00\n        /* \"#utility.yul\":8612:8613   */\n      dup1\n        /* \"#utility.yul\":8605:8617   */\n      revert\n        /* \"#utility.yul\":8629:8746   */\n    tag_101:\n        /* \"#utility.yul\":8738:8739   */\n      0x00\n        /* \"#utility.yul\":8735:8736   */\n      dup1\n        /* \"#utility.yul\":8728:8740   */\n      revert\n        /* \"#utility.yul\":8752:8869   */\n    tag_134:\n        /* \"#utility.yul\":8861:8862   */\n      0x00\n        /* \"#utility.yul\":8858:8859   */\n      dup1\n        /* \"#utility.yul\":8851:8863   */\n      revert\n        /* \"#utility.yul\":8875:8992   */\n    tag_127:\n        /* \"#utility.yul\":8984:8985   */\n      0x00\n        /* \"#utility.yul\":8981:8982   */\n      dup1\n        /* \"#utility.yul\":8974:8986   */\n      revert\n        /* \"#utility.yul\":8998:9100   */\n    tag_205:\n        /* \"#utility.yul\":9039:9045   */\n      0x00\n        /* \"#utility.yul\":9090:9092   */\n      0x1f\n        /* \"#utility.yul\":9086:9093   */\n      not\n        /* \"#utility.yul\":9081:9083   */\n      0x1f\n        /* \"#utility.yul\":9074:9079   */\n      dup4\n        /* \"#utility.yul\":9070:9084   */\n      add\n        /* \"#utility.yul\":9066:9094   */\n      and\n        /* \"#utility.yul\":9056:9094   */\n      swap1\n      pop\n        /* \"#utility.yul\":8998:9100   */\n      swap2\n      swap1\n      pop\n      jump\t// out\n        /* \"#utility.yul\":9106:9265   */\n    tag_157:\n        /* \"#utility.yul\":9246:9257   */\n      0x57726f6e67206b65790000000000000000000000000000000000000000000000\n        /* \"#utility.yul\":9242:9243   */\n      0x00\n        /* \"#utility.yul\":9234:9240   */\n      dup3\n        /* \"#utility.yul\":9230:9244   */\n      add\n        /* \"#utility.yul\":9223:9258   */\n      mstore\n        /* \"#utility.yul\":9106:9265   */\n      pop\n      jump\t// out\n        /* \"#utility.yul\":9271:9434   */\n    tag_162:\n        /* \"#utility.yul\":9411:9426   */\n      0x4e6f205065726d697373696f6e00000000000000000000000000000000000000\n        /* \"#utility.yul\":9407:9408   */\n      0x00\n        /* \"#utility.yul\":9399:9405   */\n      dup3\n        /* \"#utility.yul\":9395:9409   */\n      add\n        /* \"#utility.yul\":9388:9427   */\n      mstore\n        /* \"#utility.yul\":9271:9434   */\n      pop\n      jump\t// out\n        /* \"#utility.yul\":9440:9562   */\n    tag_109:\n        /* \"#utility.yul\":9513:9537   */\n      tag_223\n        /* \"#utility.yul\":9531:9536   */\n      dup2\n        /* \"#utility.yul\":9513:9537   */\n      tag_147\n      jump\t// in\n    tag_223:\n        /* \"#utility.yul\":9506:9511   */\n      dup2\n        /* \"#utility.yul\":9503:9538   */\n      eq\n        /* \"#utility.yul\":9493:9556   */\n      tag_224\n      jumpi\n        /* \"#utility.yul\":9552:9553   */\n      0x00\n        /* \"#utility.yul\":9549:9550   */\n      dup1\n        /* \"#utility.yul\":9542:9554   */\n      revert\n        /* \"#utility.yul\":9493:9556   */\n    tag_224:\n        /* \"#utility.yul\":9440:9562   */\n      pop\n      jump\t// out\n        /* \"#utility.yul\":9568:9690   */\n    tag_119:\n        /* \"#utility.yul\":9641:9665   */\n      tag_226\n        /* \"#utility.yul\":9659:9664   */\n      dup2\n        /* \"#utility.yul\":9641:9665   */\n      tag_151\n      jump\t// in\n    tag_226:\n        /* \"#utility.yul\":9634:9639   */\n      dup2\n        /* \"#utility.yul\":9631:9666   */\n      eq\n        /* \"#utility.yul\":9621:9684   */\n      tag_227\n      jumpi\n        /* \"#utility.yul\":9680:9681   */\n      0x00\n        /* \"#utility.yul\":9677:9678   */\n      dup1\n        /* \"#utility.yul\":9670:9682   */\n      revert\n        /* \"#utility.yul\":9621:9684   */\n    tag_227:\n        /* \"#utility.yul\":9568:9690   */\n      pop\n      jump\t// out\n        /* \"#utility.yul\":9696:9818   */\n    tag_123:\n        /* \"#utility.yul\":9769:9793   */\n      tag_229\n        /* \"#utility.yul\":9787:9792   */\n      dup2\n        /* \"#utility.yul\":9769:9793   */\n      tag_166\n      jump\t// in\n    tag_229:\n        /* \"#utility.yul\":9762:9767   */\n      dup2\n        /* \"#utility.yul\":9759:9794   */\n      eq\n        /* \"#utility.yul\":9749:9812   */\n      tag_230\n      jumpi\n        /* \"#utility.yul\":9808:9809   */\n      0x00\n        /* \"#utility.yul\":9805:9806   */\n      dup1\n        /* \"#utility.yul\":9798:9810   */\n      revert\n        /* \"#utility.yul\":9749:9812   */\n    tag_230:\n        /* \"#utility.yul\":9696:9818   */\n      pop\n      jump\t// out\n\n    auxdata: 0xa264697066735822122025373e4843cc9bc6cee7460f35edb12e1a6c02e8a9c1ae71967c9d24581f769364736f6c63430008070033\n}\n",
				"bytecode": {
					"linkReferences": {},
					"object": "608060405234801561001057600080fd5b50604051610ec3380380610ec3833981810160405281019061003291906100c7565b336000806101000a81548173ffffffffffffffffffffffffffffffffffffffff021916908373ffffffffffffffffffffffffffffffffffffffff1602179055508160018190555060006002819055506000600360006101000a81548160ff021916908315150217905550806005819055506000600681905550505061012d565b6000815190506100c181610116565b92915050565b600080604083850312156100de576100dd610111565b5b60006100ec858286016100b2565b92505060206100fd858286016100b2565b9150509250929050565b6000819050919050565b600080fd5b61011f81610107565b811461012a57600080fd5b50565b610d878061013c6000396000f3fe608060405234801561001057600080fd5b506004361061007d5760003560e01c80637f8f5d711161005b5780637f8f5d71146100d857806387df499514610108578063e0e7365c14610112578063f921bd411461012e5761007d565b8063133e59aa14610082578063356842e2146100b257806376a4a2c2146100ce575b600080fd5b61009c60048036038101906100979190610958565b61014a565b6040516100a991906109f8565b60405180910390f35b6100cc60048036038101906100c791906108e2565b610192565b005b6100d66101ac565b005b6100f260048036038101906100ed91906108b5565b610297565b6040516100ff9190610a3c565b60405180910390f35b61011061036f565b005b61012c6004803603810190610127919061092b565b61046e565b005b610148600480360381019061014391906108e2565b6105a7565b005b6000600782815481106101605761015f610c37565b5b9060005260206000200160009054906101000a900473ffffffffffffffffffffffffffffffffffffffff169050919050565b80600790805190602001906101a8929190610731565b5050565b60008054906101000a900473ffffffffffffffffffffffffffffffffffffffff1673ffffffffffffffffffffffffffffffffffffffff163373ffffffffffffffffffffffffffffffffffffffff161461023a576040517f08c379a000000000000000000000000000000000000000000000000000000000815260040161023190610a77565b60405180910390fd5b6001600360006101000a81548160ff021916908315150217905550426004819055507fe65838d33ea2cb78d9b73133801f9f2e0b7ba37edfa34983b3209d4309c68d0160045460405161028d9190610a97565b60405180910390a1565b60008060009054906101000a900473ffffffffffffffffffffffffffffffffffffffff1673ffffffffffffffffffffffffffffffffffffffff163373ffffffffffffffffffffffffffffffffffffffff1614610328576040517f08c379a000000000000000000000000000000000000000000000000000000000815260040161031f90610a77565b60405180910390fd5b600960008373ffffffffffffffffffffffffffffffffffffffff1673ffffffffffffffffffffffffffffffffffffffff168152602001908152602001600020549050919050565b60008054906101000a900473ffffffffffffffffffffffffffffffffffffffff1673ffffffffffffffffffffffffffffffffffffffff163373ffffffffffffffffffffffffffffffffffffffff16146103fd576040517f08c379a00000000000000000000000000000000000000000000000000000000081526004016103f490610a77565b60405180910390fd5b6005544260045461040e9190610b14565b1161041857600080fd5b6000600360006101000a81548160ff0219169083151502179055507f13ab142ea11faae224e222f624b4c09d6484b062ceef1149fa6c3811f7bb9a7a6004546040516104649190610a97565b60405180910390a1565b60086000600654815260200190815260200160002060009054906101000a900473ffffffffffffffffffffffffffffffffffffffff1673ffffffffffffffffffffffffffffffffffffffff163373ffffffffffffffffffffffffffffffffffffffff1614610511576040517f08c379a000000000000000000000000000000000000000000000000000000000815260040161050890610a57565b60405180910390fd5b80600960003373ffffffffffffffffffffffffffffffffffffffff1673ffffffffffffffffffffffffffffffffffffffff168152602001908152602001600020819055506002600081548092919061056890610bbf565b91905055507ffa031a8df385ffa120ab85b1ef5f8e5ea3fa0288cf068ba3d05a152d87026a093360405161059c91906109f8565b60405180910390a150565b60008054906101000a900473ffffffffffffffffffffffffffffffffffffffff1673ffffffffffffffffffffffffffffffffffffffff163373ffffffffffffffffffffffffffffffffffffffff1614610635576040517f08c379a000000000000000000000000000000000000000000000000000000000815260040161062c90610a77565b60405180910390fd5b60005b81518110156106775761066482828151811061065757610656610c37565b5b602002602001015161067b565b808061066f90610bbf565b915050610638565b5050565b8060086000600654815260200190815260200160002060006101000a81548173ffffffffffffffffffffffffffffffffffffffff021916908373ffffffffffffffffffffffffffffffffffffffff160217905550600660008154809291906106e290610bbf565b91905055507f4ad260fdb84f8458e9ae5bfb9f78b3a60d8daeba55271ac59884c0f6cb4e04358160016006546107189190610b14565b604051610726929190610a13565b60405180910390a150565b8280548282559060005260206000209081019282156107aa579160200282015b828111156107a95782518260006101000a81548173ffffffffffffffffffffffffffffffffffffffff021916908373ffffffffffffffffffffffffffffffffffffffff16021790555091602001919060010190610751565b5b5090506107b791906107bb565b5090565b5b808211156107d45760008160009055506001016107bc565b5090565b60006107eb6107e684610ad7565b610ab2565b9050808382526020820190508285602086028201111561080e5761080d610c9a565b5b60005b8581101561083e57816108248882610848565b845260208401935060208301925050600181019050610811565b5050509392505050565b60008135905061085781610d0c565b92915050565b600082601f83011261087257610871610c95565b5b81356108828482602086016107d8565b91505092915050565b60008135905061089a81610d23565b92915050565b6000813590506108af81610d3a565b92915050565b6000602082840312156108cb576108ca610ca4565b5b60006108d984828501610848565b91505092915050565b6000602082840312156108f8576108f7610ca4565b5b600082013567ffffffffffffffff81111561091657610915610c9f565b5b6109228482850161085d565b91505092915050565b60006020828403121561094157610940610ca4565b5b600061094f8482850161088b565b91505092915050565b60006020828403121561096e5761096d610ca4565b5b600061097c848285016108a0565b91505092915050565b61098e81610b48565b82525050565b61099d81610b5a565b82525050565b60006109b0600983610b03565b91506109bb82610cba565b602082019050919050565b60006109d3600d83610b03565b91506109de82610ce3565b602082019050919050565b6109f281610b84565b82525050565b6000602082019050610a0d6000830184610985565b92915050565b6000604082019050610a286000830185610985565b610a3560208301846109e9565b9392505050565b6000602082019050610a516000830184610994565b92915050565b60006020820190508181036000830152610a70816109a3565b9050919050565b60006020820190508181036000830152610a90816109c6565b9050919050565b6000602082019050610aac60008301846109e9565b92915050565b6000610abc610acd565b9050610ac88282610b8e565b919050565b6000604051905090565b600067ffffffffffffffff821115610af257610af1610c66565b5b602082029050602081019050919050565b600082825260208201905092915050565b6000610b1f82610b84565b9150610b2a83610b84565b925082821015610b3d57610b3c610c08565b5b828203905092915050565b6000610b5382610b64565b9050919050565b6000819050919050565b600073ffffffffffffffffffffffffffffffffffffffff82169050919050565b6000819050919050565b610b9782610ca9565b810181811067ffffffffffffffff82111715610bb657610bb5610c66565b5b80604052505050565b6000610bca82610b84565b91507fffffffffffffffffffffffffffffffffffffffffffffffffffffffffffffffff821415610bfd57610bfc610c08565b5b600182019050919050565b7f4e487b7100000000000000000000000000000000000000000000000000000000600052601160045260246000fd5b7f4e487b7100000000000000000000000000000000000000000000000000000000600052603260045260246000fd5b7f4e487b7100000000000000000000000000000000000000000000000000000000600052604160045260246000fd5b600080fd5b600080fd5b600080fd5b600080fd5b6000601f19601f8301169050919050565b7f57726f6e67206b65790000000000000000000000000000000000000000000000600082015250565b7f4e6f205065726d697373696f6e00000000000000000000000000000000000000600082015250565b610d1581610b48565b8114610d2057600080fd5b50565b610d2c81610b5a565b8114610d3757600080fd5b50565b610d4381610b84565b8114610d4e57600080fd5b5056fea264697066735822122025373e4843cc9bc6cee7460f35edb12e1a6c02e8a9c1ae71967c9d24581f769364736f6c63430008070033",
					"opcodes": "PUSH1 0x80 PUSH1 0x40 MSTORE CALLVALUE DUP1 ISZERO PUSH2 0x10 JUMPI PUSH1 0x0 DUP1 REVERT JUMPDEST POP PUSH1 0x40 MLOAD PUSH2 0xEC3 CODESIZE SUB DUP1 PUSH2 0xEC3 DUP4 CODECOPY DUP2 DUP2 ADD PUSH1 0x40 MSTORE DUP2 ADD SWAP1 PUSH2 0x32 SWAP2 SWAP1 PUSH2 0xC7 JUMP JUMPDEST CALLER PUSH1 0x0 DUP1 PUSH2 0x100 EXP DUP2 SLOAD DUP2 PUSH20 0xFFFFFFFFFFFFFFFFFFFFFFFFFFFFFFFFFFFFFFFF MUL NOT AND SWAP1 DUP4 PUSH20 0xFFFFFFFFFFFFFFFFFFFFFFFFFFFFFFFFFFFFFFFF AND MUL OR SWAP1 SSTORE POP DUP2 PUSH1 0x1 DUP2 SWAP1 SSTORE POP PUSH1 0x0 PUSH1 0x2 DUP2 SWAP1 SSTORE POP PUSH1 0x0 PUSH1 0x3 PUSH1 0x0 PUSH2 0x100 EXP DUP2 SLOAD DUP2 PUSH1 0xFF MUL NOT AND SWAP1 DUP4 ISZERO ISZERO MUL OR SWAP1 SSTORE POP DUP1 PUSH1 0x5 DUP2 SWAP1 SSTORE POP PUSH1 0x0 PUSH1 0x6 DUP2 SWAP1 SSTORE POP POP POP PUSH2 0x12D JUMP JUMPDEST PUSH1 0x0 DUP2 MLOAD SWAP1 POP PUSH2 0xC1 DUP2 PUSH2 0x116 JUMP JUMPDEST SWAP3 SWAP2 POP POP JUMP JUMPDEST PUSH1 0x0 DUP1 PUSH1 0x40 DUP4 DUP6 SUB SLT ISZERO PUSH2 0xDE JUMPI PUSH2 0xDD PUSH2 0x111 JUMP JUMPDEST JUMPDEST PUSH1 0x0 PUSH2 0xEC DUP6 DUP3 DUP7 ADD PUSH2 0xB2 JUMP JUMPDEST SWAP3 POP POP PUSH1 0x20 PUSH2 0xFD DUP6 DUP3 DUP7 ADD PUSH2 0xB2 JUMP JUMPDEST SWAP2 POP POP SWAP3 POP SWAP3 SWAP1 POP JUMP JUMPDEST PUSH1 0x0 DUP2 SWAP1 POP SWAP2 SWAP1 POP JUMP JUMPDEST PUSH1 0x0 DUP1 REVERT JUMPDEST PUSH2 0x11F DUP2 PUSH2 0x107 JUMP JUMPDEST DUP2 EQ PUSH2 0x12A JUMPI PUSH1 0x0 DUP1 REVERT JUMPDEST POP JUMP JUMPDEST PUSH2 0xD87 DUP1 PUSH2 0x13C PUSH1 0x0 CODECOPY PUSH1 0x0 RETURN INVALID PUSH1 0x80 PUSH1 0x40 MSTORE CALLVALUE DUP1 ISZERO PUSH2 0x10 JUMPI PUSH1 0x0 DUP1 REVERT JUMPDEST POP PUSH1 0x4 CALLDATASIZE LT PUSH2 0x7D JUMPI PUSH1 0x0 CALLDATALOAD PUSH1 0xE0 SHR DUP1 PUSH4 0x7F8F5D71 GT PUSH2 0x5B JUMPI DUP1 PUSH4 0x7F8F5D71 EQ PUSH2 0xD8 JUMPI DUP1 PUSH4 0x87DF4995 EQ PUSH2 0x108 JUMPI DUP1 PUSH4 0xE0E7365C EQ PUSH2 0x112 JUMPI DUP1 PUSH4 0xF921BD41 EQ PUSH2 0x12E JUMPI PUSH2 0x7D JUMP JUMPDEST DUP1 PUSH4 0x133E59AA EQ PUSH2 0x82 JUMPI DUP1 PUSH4 0x356842E2 EQ PUSH2 0xB2 JUMPI DUP1 PUSH4 0x76A4A2C2 EQ PUSH2 0xCE JUMPI JUMPDEST PUSH1 0x0 DUP1 REVERT JUMPDEST PUSH2 0x9C PUSH1 0x4 DUP1 CALLDATASIZE SUB DUP2 ADD SWAP1 PUSH2 0x97 SWAP2 SWAP1 PUSH2 0x958 JUMP JUMPDEST PUSH2 0x14A JUMP JUMPDEST PUSH1 0x40 MLOAD PUSH2 0xA9 SWAP2 SWAP1 PUSH2 0x9F8 JUMP JUMPDEST PUSH1 0x40 MLOAD DUP1 SWAP2 SUB SWAP1 RETURN JUMPDEST PUSH2 0xCC PUSH1 0x4 DUP1 CALLDATASIZE SUB DUP2 ADD SWAP1 PUSH2 0xC7 SWAP2 SWAP1 PUSH2 0x8E2 JUMP JUMPDEST PUSH2 0x192 JUMP JUMPDEST STOP JUMPDEST PUSH2 0xD6 PUSH2 0x1AC JUMP JUMPDEST STOP JUMPDEST PUSH2 0xF2 PUSH1 0x4 DUP1 CALLDATASIZE SUB DUP2 ADD SWAP1 PUSH2 0xED SWAP2 SWAP1 PUSH2 0x8B5 JUMP JUMPDEST PUSH2 0x297 JUMP JUMPDEST PUSH1 0x40 MLOAD PUSH2 0xFF SWAP2 SWAP1 PUSH2 0xA3C JUMP JUMPDEST PUSH1 0x40 MLOAD DUP1 SWAP2 SUB SWAP1 RETURN JUMPDEST PUSH2 0x110 PUSH2 0x36F JUMP JUMPDEST STOP JUMPDEST PUSH2 0x12C PUSH1 0x4 DUP1 CALLDATASIZE SUB DUP2 ADD SWAP1 PUSH2 0x127 SWAP2 SWAP1 PUSH2 0x92B JUMP JUMPDEST PUSH2 0x46E JUMP JUMPDEST STOP JUMPDEST PUSH2 0x148 PUSH1 0x4 DUP1 CALLDATASIZE SUB DUP2 ADD SWAP1 PUSH2 0x143 SWAP2 SWAP1 PUSH2 0x8E2 JUMP JUMPDEST PUSH2 0x5A7 JUMP JUMPDEST STOP JUMPDEST PUSH1 0x0 PUSH1 0x7 DUP3 DUP2 SLOAD DUP2 LT PUSH2 0x160 JUMPI PUSH2 0x15F PUSH2 0xC37 JUMP JUMPDEST JUMPDEST SWAP1 PUSH1 0x0 MSTORE PUSH1 0x20 PUSH1 0x0 KECCAK256 ADD PUSH1 0x0 SWAP1 SLOAD SWAP1 PUSH2 0x100 EXP SWAP1 DIV PUSH20 0xFFFFFFFFFFFFFFFFFFFFFFFFFFFFFFFFFFFFFFFF AND SWAP1 POP SWAP2 SWAP1 POP JUMP JUMPDEST DUP1 PUSH1 0x7 SWAP1 DUP1 MLOAD SWAP1 PUSH1 0x20 ADD SWAP1 PUSH2 0x1A8 SWAP3 SWAP2 SWAP1 PUSH2 0x731 JUMP JUMPDEST POP POP JUMP JUMPDEST PUSH1 0x0 DUP1 SLOAD SWAP1 PUSH2 0x100 EXP SWAP1 DIV PUSH20 0xFFFFFFFFFFFFFFFFFFFFFFFFFFFFFFFFFFFFFFFF AND PUSH20 0xFFFFFFFFFFFFFFFFFFFFFFFFFFFFFFFFFFFFFFFF AND CALLER PUSH20 0xFFFFFFFFFFFFFFFFFFFFFFFFFFFFFFFFFFFFFFFF AND EQ PUSH2 0x23A JUMPI PUSH1 0x40 MLOAD PUSH32 0x8C379A000000000000000000000000000000000000000000000000000000000 DUP2 MSTORE PUSH1 0x4 ADD PUSH2 0x231 SWAP1 PUSH2 0xA77 JUMP JUMPDEST PUSH1 0x40 MLOAD DUP1 SWAP2 SUB SWAP1 REVERT JUMPDEST PUSH1 0x1 PUSH1 0x3 PUSH1 0x0 PUSH2 0x100 EXP DUP2 SLOAD DUP2 PUSH1 0xFF MUL NOT AND SWAP1 DUP4 ISZERO ISZERO MUL OR SWAP1 SSTORE POP TIMESTAMP PUSH1 0x4 DUP2 SWAP1 SSTORE POP PUSH32 0xE65838D33EA2CB78D9B73133801F9F2E0B7BA37EDFA34983B3209D4309C68D01 PUSH1 0x4 SLOAD PUSH1 0x40 MLOAD PUSH2 0x28D SWAP2 SWAP1 PUSH2 0xA97 JUMP JUMPDEST PUSH1 0x40 MLOAD DUP1 SWAP2 SUB SWAP1 LOG1 JUMP JUMPDEST PUSH1 0x0 DUP1 PUSH1 0x0 SWAP1 SLOAD SWAP1 PUSH2 0x100 EXP SWAP1 DIV PUSH20 0xFFFFFFFFFFFFFFFFFFFFFFFFFFFFFFFFFFFFFFFF AND PUSH20 0xFFFFFFFFFFFFFFFFFFFFFFFFFFFFFFFFFFFFFFFF AND CALLER PUSH20 0xFFFFFFFFFFFFFFFFFFFFFFFFFFFFFFFFFFFFFFFF AND EQ PUSH2 0x328 JUMPI PUSH1 0x40 MLOAD PUSH32 0x8C379A000000000000000000000000000000000000000000000000000000000 DUP2 MSTORE PUSH1 0x4 ADD PUSH2 0x31F SWAP1 PUSH2 0xA77 JUMP JUMPDEST PUSH1 0x40 MLOAD DUP1 SWAP2 SUB SWAP1 REVERT JUMPDEST PUSH1 0x9 PUSH1 0x0 DUP4 PUSH20 0xFFFFFFFFFFFFFFFFFFFFFFFFFFFFFFFFFFFFFFFF AND PUSH20 0xFFFFFFFFFFFFFFFFFFFFFFFFFFFFFFFFFFFFFFFF AND DUP2 MSTORE PUSH1 0x20 ADD SWAP1 DUP2 MSTORE PUSH1 0x20 ADD PUSH1 0x0 KECCAK256 SLOAD SWAP1 POP SWAP2 SWAP1 POP JUMP JUMPDEST PUSH1 0x0 DUP1 SLOAD SWAP1 PUSH2 0x100 EXP SWAP1 DIV PUSH20 0xFFFFFFFFFFFFFFFFFFFFFFFFFFFFFFFFFFFFFFFF AND PUSH20 0xFFFFFFFFFFFFFFFFFFFFFFFFFFFFFFFFFFFFFFFF AND CALLER PUSH20 0xFFFFFFFFFFFFFFFFFFFFFFFFFFFFFFFFFFFFFFFF AND EQ PUSH2 0x3FD JUMPI PUSH1 0x40 MLOAD PUSH32 0x8C379A000000000000000000000000000000000000000000000000000000000 DUP2 MSTORE PUSH1 0x4 ADD PUSH2 0x3F4 SWAP1 PUSH2 0xA77 JUMP JUMPDEST PUSH1 0x40 MLOAD DUP1 SWAP2 SUB SWAP1 REVERT JUMPDEST PUSH1 0x5 SLOAD TIMESTAMP PUSH1 0x4 SLOAD PUSH2 0x40E SWAP2 SWAP1 PUSH2 0xB14 JUMP JUMPDEST GT PUSH2 0x418 JUMPI PUSH1 0x0 DUP1 REVERT JUMPDEST PUSH1 0x0 PUSH1 0x3 PUSH1 0x0 PUSH2 0x100 EXP DUP2 SLOAD DUP2 PUSH1 0xFF MUL NOT AND SWAP1 DUP4 ISZERO ISZERO MUL OR SWAP1 SSTORE POP PUSH32 0x13AB142EA11FAAE224E222F624B4C09D6484B062CEEF1149FA6C3811F7BB9A7A PUSH1 0x4 SLOAD PUSH1 0x40 MLOAD PUSH2 0x464 SWAP2 SWAP1 PUSH2 0xA97 JUMP JUMPDEST PUSH1 0x40 MLOAD DUP1 SWAP2 SUB SWAP1 LOG1 JUMP JUMPDEST PUSH1 0x8 PUSH1 0x0 PUSH1 0x6 SLOAD DUP2 MSTORE PUSH1 0x20 ADD SWAP1 DUP2 MSTORE PUSH1 0x20 ADD PUSH1 0x0 KECCAK256 PUSH1 0x0 SWAP1 SLOAD SWAP1 PUSH2 0x100 EXP SWAP1 DIV PUSH20 0xFFFFFFFFFFFFFFFFFFFFFFFFFFFFFFFFFFFFFFFF AND PUSH20 0xFFFFFFFFFFFFFFFFFFFFFFFFFFFFFFFFFFFFFFFF AND CALLER PUSH20 0xFFFFFFFFFFFFFFFFFFFFFFFFFFFFFFFFFFFFFFFF AND EQ PUSH2 0x511 JUMPI PUSH1 0x40 MLOAD PUSH32 0x8C379A000000000000000000000000000000000000000000000000000000000 DUP2 MSTORE PUSH1 0x4 ADD PUSH2 0x508 SWAP1 PUSH2 0xA57 JUMP JUMPDEST PUSH1 0x40 MLOAD DUP1 SWAP2 SUB SWAP1 REVERT JUMPDEST DUP1 PUSH1 0x9 PUSH1 0x0 CALLER PUSH20 0xFFFFFFFFFFFFFFFFFFFFFFFFFFFFFFFFFFFFFFFF AND PUSH20 0xFFFFFFFFFFFFFFFFFFFFFFFFFFFFFFFFFFFFFFFF AND DUP2 MSTORE PUSH1 0x20 ADD SWAP1 DUP2 MSTORE PUSH1 0x20 ADD PUSH1 0x0 KECCAK256 DUP2 SWAP1 SSTORE POP PUSH1 0x2 PUSH1 0x0 DUP2 SLOAD DUP1 SWAP3 SWAP2 SWAP1 PUSH2 0x568 SWAP1 PUSH2 0xBBF JUMP JUMPDEST SWAP2 SWAP1 POP SSTORE POP PUSH32 0xFA031A8DF385FFA120AB85B1EF5F8E5EA3FA0288CF068BA3D05A152D87026A09 CALLER PUSH1 0x40 MLOAD PUSH2 0x59C SWAP2 SWAP1 PUSH2 0x9F8 JUMP JUMPDEST PUSH1 0x40 MLOAD DUP1 SWAP2 SUB SWAP1 LOG1 POP JUMP JUMPDEST PUSH1 0x0 DUP1 SLOAD SWAP1 PUSH2 0x100 EXP SWAP1 DIV PUSH20 0xFFFFFFFFFFFFFFFFFFFFFFFFFFFFFFFFFFFFFFFF AND PUSH20 0xFFFFFFFFFFFFFFFFFFFFFFFFFFFFFFFFFFFFFFFF AND CALLER PUSH20 0xFFFFFFFFFFFFFFFFFFFFFFFFFFFFFFFFFFFFFFFF AND EQ PUSH2 0x635 JUMPI PUSH1 0x40 MLOAD PUSH32 0x8C379A000000000000000000000000000000000000000000000000000000000 DUP2 MSTORE PUSH1 0x4 ADD PUSH2 0x62C SWAP1 PUSH2 0xA77 JUMP JUMPDEST PUSH1 0x40 MLOAD DUP1 SWAP2 SUB SWAP1 REVERT JUMPDEST PUSH1 0x0 JUMPDEST DUP2 MLOAD DUP2 LT ISZERO PUSH2 0x677 JUMPI PUSH2 0x664 DUP3 DUP3 DUP2 MLOAD DUP2 LT PUSH2 0x657 JUMPI PUSH2 0x656 PUSH2 0xC37 JUMP JUMPDEST JUMPDEST PUSH1 0x20 MUL PUSH1 0x20 ADD ADD MLOAD PUSH2 0x67B JUMP JUMPDEST DUP1 DUP1 PUSH2 0x66F SWAP1 PUSH2 0xBBF JUMP JUMPDEST SWAP2 POP POP PUSH2 0x638 JUMP JUMPDEST POP POP JUMP JUMPDEST DUP1 PUSH1 0x8 PUSH1 0x0 PUSH1 0x6 SLOAD DUP2 MSTORE PUSH1 0x20 ADD SWAP1 DUP2 MSTORE PUSH1 0x20 ADD PUSH1 0x0 KECCAK256 PUSH1 0x0 PUSH2 0x100 EXP DUP2 SLOAD DUP2 PUSH20 0xFFFFFFFFFFFFFFFFFFFFFFFFFFFFFFFFFFFFFFFF MUL NOT AND SWAP1 DUP4 PUSH20 0xFFFFFFFFFFFFFFFFFFFFFFFFFFFFFFFFFFFFFFFF AND MUL OR SWAP1 SSTORE POP PUSH1 0x6 PUSH1 0x0 DUP2 SLOAD DUP1 SWAP3 SWAP2 SWAP1 PUSH2 0x6E2 SWAP1 PUSH2 0xBBF JUMP JUMPDEST SWAP2 SWAP1 POP SSTORE POP PUSH32 0x4AD260FDB84F8458E9AE5BFB9F78B3A60D8DAEBA55271AC59884C0F6CB4E0435 DUP2 PUSH1 0x1 PUSH1 0x6 SLOAD PUSH2 0x718 SWAP2 SWAP1 PUSH2 0xB14 JUMP JUMPDEST PUSH1 0x40 MLOAD PUSH2 0x726 SWAP3 SWAP2 SWAP1 PUSH2 0xA13 JUMP JUMPDEST PUSH1 0x40 MLOAD DUP1 SWAP2 SUB SWAP1 LOG1 POP JUMP JUMPDEST DUP3 DUP1 SLOAD DUP3 DUP3 SSTORE SWAP1 PUSH1 0x0 MSTORE PUSH1 0x20 PUSH1 0x0 KECCAK256 SWAP1 DUP2 ADD SWAP3 DUP3 ISZERO PUSH2 0x7AA JUMPI SWAP2 PUSH1 0x20 MUL DUP3 ADD JUMPDEST DUP3 DUP2 GT ISZERO PUSH2 0x7A9 JUMPI DUP3 MLOAD DUP3 PUSH1 0x0 PUSH2 0x100 EXP DUP2 SLOAD DUP2 PUSH20 0xFFFFFFFFFFFFFFFFFFFFFFFFFFFFFFFFFFFFFFFF MUL NOT AND SWAP1 DUP4 PUSH20 0xFFFFFFFFFFFFFFFFFFFFFFFFFFFFFFFFFFFFFFFF AND MUL OR SWAP1 SSTORE POP SWAP2 PUSH1 0x20 ADD SWAP2 SWAP1 PUSH1 0x1 ADD SWAP1 PUSH2 0x751 JUMP JUMPDEST JUMPDEST POP SWAP1 POP PUSH2 0x7B7 SWAP2 SWAP1 PUSH2 0x7BB JUMP JUMPDEST POP SWAP1 JUMP JUMPDEST JUMPDEST DUP1 DUP3 GT ISZERO PUSH2 0x7D4 JUMPI PUSH1 0x0 DUP2 PUSH1 0x0 SWAP1 SSTORE POP PUSH1 0x1 ADD PUSH2 0x7BC JUMP JUMPDEST POP SWAP1 JUMP JUMPDEST PUSH1 0x0 PUSH2 0x7EB PUSH2 0x7E6 DUP5 PUSH2 0xAD7 JUMP JUMPDEST PUSH2 0xAB2 JUMP JUMPDEST SWAP1 POP DUP1 DUP4 DUP3 MSTORE PUSH1 0x20 DUP3 ADD SWAP1 POP DUP3 DUP6 PUSH1 0x20 DUP7 MUL DUP3 ADD GT ISZERO PUSH2 0x80E JUMPI PUSH2 0x80D PUSH2 0xC9A JUMP JUMPDEST JUMPDEST PUSH1 0x0 JUMPDEST DUP6 DUP2 LT ISZERO PUSH2 0x83E JUMPI DUP2 PUSH2 0x824 DUP9 DUP3 PUSH2 0x848 JUMP JUMPDEST DUP5 MSTORE PUSH1 0x20 DUP5 ADD SWAP4 POP PUSH1 0x20 DUP4 ADD SWAP3 POP POP PUSH1 0x1 DUP2 ADD SWAP1 POP PUSH2 0x811 JUMP JUMPDEST POP POP POP SWAP4 SWAP3 POP POP POP JUMP JUMPDEST PUSH1 0x0 DUP2 CALLDATALOAD SWAP1 POP PUSH2 0x857 DUP2 PUSH2 0xD0C JUMP JUMPDEST SWAP3 SWAP2 POP POP JUMP JUMPDEST PUSH1 0x0 DUP3 PUSH1 0x1F DUP4 ADD SLT PUSH2 0x872 JUMPI PUSH2 0x871 PUSH2 0xC95 JUMP JUMPDEST JUMPDEST DUP2 CALLDATALOAD PUSH2 0x882 DUP5 DUP3 PUSH1 0x20 DUP7 ADD PUSH2 0x7D8 JUMP JUMPDEST SWAP2 POP POP SWAP3 SWAP2 POP POP JUMP JUMPDEST PUSH1 0x0 DUP2 CALLDATALOAD SWAP1 POP PUSH2 0x89A DUP2 PUSH2 0xD23 JUMP JUMPDEST SWAP3 SWAP2 POP POP JUMP JUMPDEST PUSH1 0x0 DUP2 CALLDATALOAD SWAP1 POP PUSH2 0x8AF DUP2 PUSH2 0xD3A JUMP JUMPDEST SWAP3 SWAP2 POP POP JUMP JUMPDEST PUSH1 0x0 PUSH1 0x20 DUP3 DUP5 SUB SLT ISZERO PUSH2 0x8CB JUMPI PUSH2 0x8CA PUSH2 0xCA4 JUMP JUMPDEST JUMPDEST PUSH1 0x0 PUSH2 0x8D9 DUP5 DUP3 DUP6 ADD PUSH2 0x848 JUMP JUMPDEST SWAP2 POP POP SWAP3 SWAP2 POP POP JUMP JUMPDEST PUSH1 0x0 PUSH1 0x20 DUP3 DUP5 SUB SLT ISZERO PUSH2 0x8F8 JUMPI PUSH2 0x8F7 PUSH2 0xCA4 JUMP JUMPDEST JUMPDEST PUSH1 0x0 DUP3 ADD CALLDATALOAD PUSH8 0xFFFFFFFFFFFFFFFF DUP2 GT ISZERO PUSH2 0x916 JUMPI PUSH2 0x915 PUSH2 0xC9F JUMP JUMPDEST JUMPDEST PUSH2 0x922 DUP5 DUP3 DUP6 ADD PUSH2 0x85D JUMP JUMPDEST SWAP2 POP POP SWAP3 SWAP2 POP POP JUMP JUMPDEST PUSH1 0x0 PUSH1 0x20 DUP3 DUP5 SUB SLT ISZERO PUSH2 0x941 JUMPI PUSH2 0x940 PUSH2 0xCA4 JUMP JUMPDEST JUMPDEST PUSH1 0x0 PUSH2 0x94F DUP5 DUP3 DUP6 ADD PUSH2 0x88B JUMP JUMPDEST SWAP2 POP POP SWAP3 SWAP2 POP POP JUMP JUMPDEST PUSH1 0x0 PUSH1 0x20 DUP3 DUP5 SUB SLT ISZERO PUSH2 0x96E JUMPI PUSH2 0x96D PUSH2 0xCA4 JUMP JUMPDEST JUMPDEST PUSH1 0x0 PUSH2 0x97C DUP5 DUP3 DUP6 ADD PUSH2 0x8A0 JUMP JUMPDEST SWAP2 POP POP SWAP3 SWAP2 POP POP JUMP JUMPDEST PUSH2 0x98E DUP2 PUSH2 0xB48 JUMP JUMPDEST DUP3 MSTORE POP POP JUMP JUMPDEST PUSH2 0x99D DUP2 PUSH2 0xB5A JUMP JUMPDEST DUP3 MSTORE POP POP JUMP JUMPDEST PUSH1 0x0 PUSH2 0x9B0 PUSH1 0x9 DUP4 PUSH2 0xB03 JUMP JUMPDEST SWAP2 POP PUSH2 0x9BB DUP3 PUSH2 0xCBA JUMP JUMPDEST PUSH1 0x20 DUP3 ADD SWAP1 POP SWAP2 SWAP1 POP JUMP JUMPDEST PUSH1 0x0 PUSH2 0x9D3 PUSH1 0xD DUP4 PUSH2 0xB03 JUMP JUMPDEST SWAP2 POP PUSH2 0x9DE DUP3 PUSH2 0xCE3 JUMP JUMPDEST PUSH1 0x20 DUP3 ADD SWAP1 POP SWAP2 SWAP1 POP JUMP JUMPDEST PUSH2 0x9F2 DUP2 PUSH2 0xB84 JUMP JUMPDEST DUP3 MSTORE POP POP JUMP JUMPDEST PUSH1 0x0 PUSH1 0x20 DUP3 ADD SWAP1 POP PUSH2 0xA0D PUSH1 0x0 DUP4 ADD DUP5 PUSH2 0x985 JUMP JUMPDEST SWAP3 SWAP2 POP POP JUMP JUMPDEST PUSH1 0x0 PUSH1 0x40 DUP3 ADD SWAP1 POP PUSH2 0xA28 PUSH1 0x0 DUP4 ADD DUP6 PUSH2 0x985 JUMP JUMPDEST PUSH2 0xA35 PUSH1 0x20 DUP4 ADD DUP5 PUSH2 0x9E9 JUMP JUMPDEST SWAP4 SWAP3 POP POP POP JUMP JUMPDEST PUSH1 0x0 PUSH1 0x20 DUP3 ADD SWAP1 POP PUSH2 0xA51 PUSH1 0x0 DUP4 ADD DUP5 PUSH2 0x994 JUMP JUMPDEST SWAP3 SWAP2 POP POP JUMP JUMPDEST PUSH1 0x0 PUSH1 0x20 DUP3 ADD SWAP1 POP DUP2 DUP2 SUB PUSH1 0x0 DUP4 ADD MSTORE PUSH2 0xA70 DUP2 PUSH2 0x9A3 JUMP JUMPDEST SWAP1 POP SWAP2 SWAP1 POP JUMP JUMPDEST PUSH1 0x0 PUSH1 0x20 DUP3 ADD SWAP1 POP DUP2 DUP2 SUB PUSH1 0x0 DUP4 ADD MSTORE PUSH2 0xA90 DUP2 PUSH2 0x9C6 JUMP JUMPDEST SWAP1 POP SWAP2 SWAP1 POP JUMP JUMPDEST PUSH1 0x0 PUSH1 0x20 DUP3 ADD SWAP1 POP PUSH2 0xAAC PUSH1 0x0 DUP4 ADD DUP5 PUSH2 0x9E9 JUMP JUMPDEST SWAP3 SWAP2 POP POP JUMP JUMPDEST PUSH1 0x0 PUSH2 0xABC PUSH2 0xACD JUMP JUMPDEST SWAP1 POP PUSH2 0xAC8 DUP3 DUP3 PUSH2 0xB8E JUMP JUMPDEST SWAP2 SWAP1 POP JUMP JUMPDEST PUSH1 0x0 PUSH1 0x40 MLOAD SWAP1 POP SWAP1 JUMP JUMPDEST PUSH1 0x0 PUSH8 0xFFFFFFFFFFFFFFFF DUP3 GT ISZERO PUSH2 0xAF2 JUMPI PUSH2 0xAF1 PUSH2 0xC66 JUMP JUMPDEST JUMPDEST PUSH1 0x20 DUP3 MUL SWAP1 POP PUSH1 0x20 DUP2 ADD SWAP1 POP SWAP2 SWAP1 POP JUMP JUMPDEST PUSH1 0x0 DUP3 DUP3 MSTORE PUSH1 0x20 DUP3 ADD SWAP1 POP SWAP3 SWAP2 POP POP JUMP JUMPDEST PUSH1 0x0 PUSH2 0xB1F DUP3 PUSH2 0xB84 JUMP JUMPDEST SWAP2 POP PUSH2 0xB2A DUP4 PUSH2 0xB84 JUMP JUMPDEST SWAP3 POP DUP3 DUP3 LT ISZERO PUSH2 0xB3D JUMPI PUSH2 0xB3C PUSH2 0xC08 JUMP JUMPDEST JUMPDEST DUP3 DUP3 SUB SWAP1 POP SWAP3 SWAP2 POP POP JUMP JUMPDEST PUSH1 0x0 PUSH2 0xB53 DUP3 PUSH2 0xB64 JUMP JUMPDEST SWAP1 POP SWAP2 SWAP1 POP JUMP JUMPDEST PUSH1 0x0 DUP2 SWAP1 POP SWAP2 SWAP1 POP JUMP JUMPDEST PUSH1 0x0 PUSH20 0xFFFFFFFFFFFFFFFFFFFFFFFFFFFFFFFFFFFFFFFF DUP3 AND SWAP1 POP SWAP2 SWAP1 POP JUMP JUMPDEST PUSH1 0x0 DUP2 SWAP1 POP SWAP2 SWAP1 POP JUMP JUMPDEST PUSH2 0xB97 DUP3 PUSH2 0xCA9 JUMP JUMPDEST DUP2 ADD DUP2 DUP2 LT PUSH8 0xFFFFFFFFFFFFFFFF DUP3 GT OR ISZERO PUSH2 0xBB6 JUMPI PUSH2 0xBB5 PUSH2 0xC66 JUMP JUMPDEST JUMPDEST DUP1 PUSH1 0x40 MSTORE POP POP POP JUMP JUMPDEST PUSH1 0x0 PUSH2 0xBCA DUP3 PUSH2 0xB84 JUMP JUMPDEST SWAP2 POP PUSH32 0xFFFFFFFFFFFFFFFFFFFFFFFFFFFFFFFFFFFFFFFFFFFFFFFFFFFFFFFFFFFFFFFF DUP3 EQ ISZERO PUSH2 0xBFD JUMPI PUSH2 0xBFC PUSH2 0xC08 JUMP JUMPDEST JUMPDEST PUSH1 0x1 DUP3 ADD SWAP1 POP SWAP2 SWAP1 POP JUMP JUMPDEST PUSH32 0x4E487B7100000000000000000000000000000000000000000000000000000000 PUSH1 0x0 MSTORE PUSH1 0x11 PUSH1 0x4 MSTORE PUSH1 0x24 PUSH1 0x0 REVERT JUMPDEST PUSH32 0x4E487B7100000000000000000000000000000000000000000000000000000000 PUSH1 0x0 MSTORE PUSH1 0x32 PUSH1 0x4 MSTORE PUSH1 0x24 PUSH1 0x0 REVERT JUMPDEST PUSH32 0x4E487B7100000000000000000000000000000000000000000000000000000000 PUSH1 0x0 MSTORE PUSH1 0x41 PUSH1 0x4 MSTORE PUSH1 0x24 PUSH1 0x0 REVERT JUMPDEST PUSH1 0x0 DUP1 REVERT JUMPDEST PUSH1 0x0 DUP1 REVERT JUMPDEST PUSH1 0x0 DUP1 REVERT JUMPDEST PUSH1 0x0 DUP1 REVERT JUMPDEST PUSH1 0x0 PUSH1 0x1F NOT PUSH1 0x1F DUP4 ADD AND SWAP1 POP SWAP2 SWAP1 POP JUMP JUMPDEST PUSH32 0x57726F6E67206B65790000000000000000000000000000000000000000000000 PUSH1 0x0 DUP3 ADD MSTORE POP JUMP JUMPDEST PUSH32 0x4E6F205065726D697373696F6E00000000000000000000000000000000000000 PUSH1 0x0 DUP3 ADD MSTORE POP JUMP JUMPDEST PUSH2 0xD15 DUP2 PUSH2 0xB48 JUMP JUMPDEST DUP2 EQ PUSH2 0xD20 JUMPI PUSH1 0x0 DUP1 REVERT JUMPDEST POP JUMP JUMPDEST PUSH2 0xD2C DUP2 PUSH2 0xB5A JUMP JUMPDEST DUP2 EQ PUSH2 0xD37 JUMPI PUSH1 0x0 DUP1 REVERT JUMPDEST POP JUMP JUMPDEST PUSH2 0xD43 DUP2 PUSH2 0xB84 JUMP JUMPDEST DUP2 EQ PUSH2 0xD4E JUMPI PUSH1 0x0 DUP1 REVERT JUMPDEST POP JUMP INVALID LOG2 PUSH5 0x6970667358 0x22 SLT KECCAK256 0x25 CALLDATACOPY RETURNDATACOPY BASEFEE NUMBER 0xCC SWAP12 0xC6 0xCE 0xE7 CHAINID 0xF CALLDATALOAD 0xED 0xB1 0x2E BYTE PUSH13 0x2E8A9C1AE71967C9D24581F76 SWAP4 PUSH5 0x736F6C6343 STOP ADDMOD SMOD STOP CALLER "
				},
				"gasEstimates": {
					"creation": {
						"codeDepositCost": "692600",
						"executionCost": "infinite",
						"totalCost": "infinite"
					},
					"external": {
						"get_ballot(address)": "5011",
						"get_candidates(uint256)": "4968",
						"set_candidates(address[])": "infinite",
						"set_voters(address[])": "infinite",
						"voting(bytes32)": "52600",
						"voting_end()": "infinite",
						"voting_start()": "52027"
					},
					"internal": {
						"set_voter_list(address)": "infinite"
					}
				},
				"methodIdentifiers": {
					"get_ballot(address)": "7f8f5d71",
					"get_candidates(uint256)": "133e59aa",
					"set_candidates(address[])": "356842e2",
					"set_voters(address[])": "f921bd41",
					"voting(bytes32)": "e0e7365c",
					"voting_end()": "87df4995",
					"voting_start()": "76a4a2c2"
				}
			},
			"storageLayout": {
				"storage": [
					{
						"astId": 3,
						"contract": "Vote.sol:Vote",
						"label": "_constractowner",
						"offset": 0,
						"slot": "0",
						"type": "t_address"
					},
					{
						"astId": 5,
						"contract": "Vote.sol:Vote",
						"label": "_voter_amount",
						"offset": 0,
						"slot": "1",
						"type": "t_uint256"
					},
					{
						"astId": 7,
						"contract": "Vote.sol:Vote",
						"label": "_voted",
						"offset": 0,
						"slot": "2",
						"type": "t_uint256"
					},
					{
						"astId": 9,
						"contract": "Vote.sol:Vote",
						"label": "_voting_status",
						"offset": 0,
						"slot": "3",
						"type": "t_bool"
					},
					{
						"astId": 11,
						"contract": "Vote.sol:Vote",
						"label": "_timestamp",
						"offset": 0,
						"slot": "4",
						"type": "t_uint256"
					},
					{
						"astId": 13,
						"contract": "Vote.sol:Vote",
						"label": "_duration",
						"offset": 0,
						"slot": "5",
						"type": "t_uint256"
					},
					{
						"astId": 15,
						"contract": "Vote.sol:Vote",
						"label": "_count",
						"offset": 0,
						"slot": "6",
						"type": "t_uint256"
					},
					{
						"astId": 18,
						"contract": "Vote.sol:Vote",
						"label": "_candidate",
						"offset": 0,
						"slot": "7",
						"type": "t_array(t_address)dyn_storage"
					},
					{
						"astId": 55,
						"contract": "Vote.sol:Vote",
						"label": "voter_list",
						"offset": 0,
						"slot": "8",
						"type": "t_mapping(t_uint256,t_address)"
					},
					{
						"astId": 59,
						"contract": "Vote.sol:Vote",
						"label": "voter_ballot",
						"offset": 0,
						"slot": "9",
						"type": "t_mapping(t_address,t_bytes32)"
					}
				],
				"types": {
					"t_address": {
						"encoding": "inplace",
						"label": "address",
						"numberOfBytes": "20"
					},
					"t_array(t_address)dyn_storage": {
						"base": "t_address",
						"encoding": "dynamic_array",
						"label": "address[]",
						"numberOfBytes": "32"
					},
					"t_bool": {
						"encoding": "inplace",
						"label": "bool",
						"numberOfBytes": "1"
					},
					"t_bytes32": {
						"encoding": "inplace",
						"label": "bytes32",
						"numberOfBytes": "32"
					},
					"t_mapping(t_address,t_bytes32)": {
						"encoding": "mapping",
						"key": "t_address",
						"label": "mapping(address => bytes32)",
						"numberOfBytes": "32",
						"value": "t_bytes32"
					},
					"t_mapping(t_uint256,t_address)": {
						"encoding": "mapping",
						"key": "t_uint256",
						"label": "mapping(uint256 => address)",
						"numberOfBytes": "32",
						"value": "t_address"
					},
					"t_uint256": {
						"encoding": "inplace",
						"label": "uint256",
						"numberOfBytes": "32"
					}
				}
			},
			"userdoc": {
				"kind": "user",
				"methods": {},
				"version": 1
			}
		}
	}
}