{
	"Vote_1.sol": {
		"Vote": {
			"abi": [
				{
					"inputs": [],
					"stateMutability": "nonpayable",
					"type": "constructor"
				},
				{
					"anonymous": false,
					"inputs": [
						{
							"indexed": false,
							"internalType": "address",
							"name": "voter",
							"type": "address"
						},
						{
							"indexed": false,
							"internalType": "uint256",
							"name": "vote_id",
							"type": "uint256"
						},
						{
							"indexed": false,
							"internalType": "string",
							"name": "esecret",
							"type": "string"
						}
					],
					"name": "Esecret_submit",
					"type": "event"
				},
				{
					"anonymous": false,
					"inputs": [
						{
							"indexed": false,
							"internalType": "uint256",
							"name": "vote_id",
							"type": "uint256"
						}
					],
					"name": "Esecret_submit_end",
					"type": "event"
				},
				{
					"anonymous": false,
					"inputs": [
						{
							"indexed": false,
							"internalType": "string",
							"name": "vote_title",
							"type": "string"
						},
						{
							"indexed": false,
							"internalType": "uint256",
							"name": "vote_id",
							"type": "uint256"
						}
					],
					"name": "New_vote",
					"type": "event"
				},
				{
					"anonymous": false,
					"inputs": [
						{
							"indexed": false,
							"internalType": "uint256",
							"name": "end_time",
							"type": "uint256"
						},
						{
							"indexed": false,
							"internalType": "uint256",
							"name": "block_number",
							"type": "uint256"
						},
						{
							"indexed": false,
							"internalType": "uint256",
							"name": "vote_id",
							"type": "uint256"
						}
					],
					"name": "Vote_end",
					"type": "event"
				},
				{
					"anonymous": false,
					"inputs": [
						{
							"indexed": false,
							"internalType": "uint256",
							"name": "start_time",
							"type": "uint256"
						},
						{
							"indexed": false,
							"internalType": "uint256",
							"name": "block_number",
							"type": "uint256"
						},
						{
							"indexed": false,
							"internalType": "uint256",
							"name": "vote_id",
							"type": "uint256"
						}
					],
					"name": "Vote_start",
					"type": "event"
				},
				{
					"anonymous": false,
					"inputs": [
						{
							"indexed": false,
							"internalType": "address",
							"name": "voter",
							"type": "address"
						},
						{
							"indexed": false,
							"internalType": "uint256",
							"name": "vote_id",
							"type": "uint256"
						}
					],
					"name": "Voter_set",
					"type": "event"
				},
				{
					"anonymous": false,
					"inputs": [
						{
							"indexed": false,
							"internalType": "address",
							"name": "voter",
							"type": "address"
						},
						{
							"indexed": false,
							"internalType": "string",
							"name": "ballot",
							"type": "string"
						},
						{
							"indexed": false,
							"internalType": "uint256",
							"name": "vote_id",
							"type": "uint256"
						}
					],
					"name": "Voting_complete",
					"type": "event"
				},
				{
					"inputs": [
						{
							"internalType": "uint256",
							"name": "vote_id",
							"type": "uint256"
						}
					],
					"name": "esecret_submit_end",
					"outputs": [],
					"stateMutability": "nonpayable",
					"type": "function"
				},
				{
					"inputs": [
						{
							"internalType": "address",
							"name": "voter",
							"type": "address"
						},
						{
							"internalType": "uint256",
							"name": "vote_id",
							"type": "uint256"
						}
					],
					"name": "get_ballot",
					"outputs": [
						{
							"internalType": "string",
							"name": "",
							"type": "string"
						}
					],
					"stateMutability": "view",
					"type": "function"
				},
				{
					"inputs": [
						{
							"internalType": "uint256",
							"name": "vote_id",
							"type": "uint256"
						}
					],
					"name": "get_publickey",
					"outputs": [
						{
							"internalType": "string",
							"name": "",
							"type": "string"
						}
					],
					"stateMutability": "view",
					"type": "function"
				},
				{
					"inputs": [
						{
							"internalType": "string",
							"name": "title",
							"type": "string"
						},
						{
							"internalType": "uint256",
							"name": "vote_id",
							"type": "uint256"
						},
						{
							"internalType": "address[]",
							"name": "candidates",
							"type": "address[]"
						},
						{
							"internalType": "uint256",
							"name": "vote_duration",
							"type": "uint256"
						}
					],
					"name": "new_vote",
					"outputs": [
						{
							"internalType": "bool",
							"name": "",
							"type": "bool"
						}
					],
					"stateMutability": "nonpayable",
					"type": "function"
				},
				{
					"inputs": [
						{
							"internalType": "uint256",
							"name": "vote_id",
							"type": "uint256"
						},
						{
							"internalType": "string",
							"name": "publickey",
							"type": "string"
						}
					],
					"name": "set_publickey",
					"outputs": [],
					"stateMutability": "nonpayable",
					"type": "function"
				},
				{
					"inputs": [
						{
							"internalType": "uint256",
							"name": "vote_id",
							"type": "uint256"
						},
						{
							"internalType": "string[]",
							"name": "ver_result",
							"type": "string[]"
						},
						{
							"internalType": "address",
							"name": "candidate",
							"type": "address"
						}
					],
					"name": "set_result",
					"outputs": [],
					"stateMutability": "nonpayable",
					"type": "function"
				},
				{
					"inputs": [
						{
							"internalType": "address[]",
							"name": "voters",
							"type": "address[]"
						},
						{
							"internalType": "uint256[]",
							"name": "user_id",
							"type": "uint256[]"
						},
						{
							"internalType": "uint256",
							"name": "vote_id",
							"type": "uint256"
						}
					],
					"name": "set_voters",
					"outputs": [],
					"stateMutability": "nonpayable",
					"type": "function"
				},
				{
					"inputs": [
						{
							"internalType": "uint256",
							"name": "vote_id",
							"type": "uint256"
						},
						{
							"internalType": "string",
							"name": "esecret",
							"type": "string"
						}
					],
					"name": "upload_esecret",
					"outputs": [],
					"stateMutability": "nonpayable",
					"type": "function"
				},
				{
					"inputs": [
						{
							"internalType": "string",
							"name": "ballot",
							"type": "string"
						},
						{
							"internalType": "uint256",
							"name": "vote_id",
							"type": "uint256"
						},
						{
							"internalType": "uint256",
							"name": "voter_id",
							"type": "uint256"
						}
					],
					"name": "voting",
					"outputs": [],
					"stateMutability": "nonpayable",
					"type": "function"
				},
				{
					"inputs": [
						{
							"internalType": "uint256",
							"name": "vote_id",
							"type": "uint256"
						}
					],
					"name": "voting_end",
					"outputs": [],
					"stateMutability": "nonpayable",
					"type": "function"
				},
				{
					"inputs": [
						{
							"internalType": "uint256",
							"name": "vote_id",
							"type": "uint256"
						}
					],
					"name": "voting_start",
					"outputs": [],
					"stateMutability": "nonpayable",
					"type": "function"
				}
			],
			"devdoc": {
				"kind": "dev",
				"methods": {},
				"version": 1
			},
			"evm": {
				"assembly": "    /* \"Vote_1.sol\":66:4997  contract Vote{... */\n  mstore(0x40, 0x80)\n    /* \"Vote_1.sol\":116:174  constructor(){... */\n  callvalue\n  dup1\n  iszero\n  tag_1\n  jumpi\n  0x00\n  dup1\n  revert\ntag_1:\n  pop\n    /* \"Vote_1.sol\":157:167  msg.sender */\n  caller\n    /* \"Vote_1.sol\":139:154  _constractowner */\n  0x00\n  dup1\n    /* \"Vote_1.sol\":139:167  _constractowner = msg.sender */\n  0x0100\n  exp\n  dup2\n  sload\n  dup2\n  0xffffffffffffffffffffffffffffffffffffffff\n  mul\n  not\n  and\n  swap1\n  dup4\n  0xffffffffffffffffffffffffffffffffffffffff\n  and\n  mul\n  or\n  swap1\n  sstore\n  pop\n    /* \"Vote_1.sol\":66:4997  contract Vote{... */\n  dataSize(sub_0)\n  dup1\n  dataOffset(sub_0)\n  0x00\n  codecopy\n  0x00\n  return\nstop\n\nsub_0: assembly {\n        /* \"Vote_1.sol\":66:4997  contract Vote{... */\n      mstore(0x40, 0x80)\n      callvalue\n      dup1\n      iszero\n      tag_1\n      jumpi\n      0x00\n      dup1\n      revert\n    tag_1:\n      pop\n      jumpi(tag_2, lt(calldatasize, 0x04))\n      shr(0xe0, calldataload(0x00))\n      dup1\n      0x8aa430af\n      gt\n      tag_14\n      jumpi\n      dup1\n      0x8aa430af\n      eq\n      tag_8\n      jumpi\n      dup1\n      0xa4db23fc\n      eq\n      tag_9\n      jumpi\n      dup1\n      0xbe19e121\n      eq\n      tag_10\n      jumpi\n      dup1\n      0xcb9f4099\n      eq\n      tag_11\n      jumpi\n      dup1\n      0xcf5765a9\n      eq\n      tag_12\n      jumpi\n      dup1\n      0xd6f937e5\n      eq\n      tag_13\n      jumpi\n      jump(tag_2)\n    tag_14:\n      dup1\n      0x066f4570\n      eq\n      tag_3\n      jumpi\n      dup1\n      0x2c5aa9e6\n      eq\n      tag_4\n      jumpi\n      dup1\n      0x52ce9539\n      eq\n      tag_5\n      jumpi\n      dup1\n      0x6e0da702\n      eq\n      tag_6\n      jumpi\n      dup1\n      0x81b0ba6c\n      eq\n      tag_7\n      jumpi\n    tag_2:\n      0x00\n      dup1\n      revert\n        /* \"Vote_1.sol\":3841:4026  function set_publickey(uint vote_id, string memory publickey) public {... */\n    tag_3:\n      tag_15\n      0x04\n      dup1\n      calldatasize\n      sub\n      dup2\n      add\n      swap1\n      tag_16\n      swap2\n      swap1\n      tag_17\n      jump\t// in\n    tag_16:\n      tag_18\n      jump\t// in\n    tag_15:\n      stop\n        /* \"Vote_1.sol\":1233:1787  function new_vote(string memory title, uint vote_id, address [] memory candidates, uint vote_duration) public returns (bool){... */\n    tag_4:\n      tag_19\n      0x04\n      dup1\n      calldatasize\n      sub\n      dup2\n      add\n      swap1\n      tag_20\n      swap2\n      swap1\n      tag_21\n      jump\t// in\n    tag_20:\n      tag_22\n      jump\t// in\n    tag_19:\n      mload(0x40)\n      tag_23\n      swap2\n      swap1\n      tag_24\n      jump\t// in\n    tag_23:\n      mload(0x40)\n      dup1\n      swap2\n      sub\n      swap1\n      return\n        /* \"Vote_1.sol\":4463:4724  function esecret_submit_end(uint vote_id) public {... */\n    tag_5:\n      tag_25\n      0x04\n      dup1\n      calldatasize\n      sub\n      dup2\n      add\n      swap1\n      tag_26\n      swap2\n      swap1\n      tag_27\n      jump\t// in\n    tag_26:\n      tag_28\n      jump\t// in\n    tag_25:\n      stop\n        /* \"Vote_1.sol\":4730:4995  function set_result(uint vote_id, string [] memory ver_result, address candidate) public {... */\n    tag_6:\n      tag_29\n      0x04\n      dup1\n      calldatasize\n      sub\n      dup2\n      add\n      swap1\n      tag_30\n      swap2\n      swap1\n      tag_31\n      jump\t// in\n    tag_30:\n      tag_32\n      jump\t// in\n    tag_29:\n      stop\n        /* \"Vote_1.sol\":4157:4457  function upload_esecret(uint vote_id, string memory esecret) public {... */\n    tag_7:\n      tag_33\n      0x04\n      dup1\n      calldatasize\n      sub\n      dup2\n      add\n      swap1\n      tag_34\n      swap2\n      swap1\n      tag_17\n      jump\t// in\n    tag_34:\n      tag_35\n      jump\t// in\n    tag_33:\n      stop\n        /* \"Vote_1.sol\":2714:3083  function voting_end(uint vote_id) public {... */\n    tag_8:\n      tag_36\n      0x04\n      dup1\n      calldatasize\n      sub\n      dup2\n      add\n      swap1\n      tag_37\n      swap2\n      swap1\n      tag_27\n      jump\t// in\n    tag_37:\n      tag_38\n      jump\t// in\n    tag_36:\n      stop\n        /* \"Vote_1.sol\":2367:2708  function voting_start(uint vote_id) public {... */\n    tag_9:\n      tag_39\n      0x04\n      dup1\n      calldatasize\n      sub\n      dup2\n      add\n      swap1\n      tag_40\n      swap2\n      swap1\n      tag_27\n      jump\t// in\n    tag_40:\n      tag_41\n      jump\t// in\n    tag_39:\n      stop\n        /* \"Vote_1.sol\":3473:3835  function set_voters(address [] memory voters, uint [] memory user_id, uint vote_id) public {... */\n    tag_10:\n      tag_42\n      0x04\n      dup1\n      calldatasize\n      sub\n      dup2\n      add\n      swap1\n      tag_43\n      swap2\n      swap1\n      tag_44\n      jump\t// in\n    tag_43:\n      tag_45\n      jump\t// in\n    tag_42:\n      stop\n        /* \"Vote_1.sol\":2001:2361  function voting(string memory ballot, uint vote_id, uint voter_id) public{... */\n    tag_11:\n      tag_46\n      0x04\n      dup1\n      calldatasize\n      sub\n      dup2\n      add\n      swap1\n      tag_47\n      swap2\n      swap1\n      tag_48\n      jump\t// in\n    tag_47:\n      tag_49\n      jump\t// in\n    tag_46:\n      stop\n        /* \"Vote_1.sol\":4032:4151  function get_publickey(uint vote_id) public view returns(string memory){... */\n    tag_12:\n      tag_50\n      0x04\n      dup1\n      calldatasize\n      sub\n      dup2\n      add\n      swap1\n      tag_51\n      swap2\n      swap1\n      tag_27\n      jump\t// in\n    tag_51:\n      tag_52\n      jump\t// in\n    tag_50:\n      mload(0x40)\n      tag_53\n      swap2\n      swap1\n      tag_54\n      jump\t// in\n    tag_53:\n      mload(0x40)\n      dup1\n      swap2\n      sub\n      swap1\n      return\n        /* \"Vote_1.sol\":3089:3280  function get_ballot(address voter, uint vote_id) public view returns(string memory){... */\n    tag_13:\n      tag_55\n      0x04\n      dup1\n      calldatasize\n      sub\n      dup2\n      add\n      swap1\n      tag_56\n      swap2\n      swap1\n      tag_57\n      jump\t// in\n    tag_56:\n      tag_58\n      jump\t// in\n    tag_55:\n      mload(0x40)\n      tag_59\n      swap2\n      swap1\n      tag_54\n      jump\t// in\n    tag_59:\n      mload(0x40)\n      dup1\n      swap2\n      sub\n      swap1\n      return\n        /* \"Vote_1.sol\":3841:4026  function set_publickey(uint vote_id, string memory publickey) public {... */\n    tag_18:\n        /* \"Vote_1.sol\":3940:3955  _constractowner */\n      0x00\n      dup1\n      sload\n      swap1\n      0x0100\n      exp\n      swap1\n      div\n      0xffffffffffffffffffffffffffffffffffffffff\n      and\n        /* \"Vote_1.sol\":3928:3955  msg.sender==_constractowner */\n      0xffffffffffffffffffffffffffffffffffffffff\n      and\n        /* \"Vote_1.sol\":3928:3938  msg.sender */\n      caller\n        /* \"Vote_1.sol\":3928:3955  msg.sender==_constractowner */\n      0xffffffffffffffffffffffffffffffffffffffff\n      and\n      eq\n        /* \"Vote_1.sol\":3920:3973  require(msg.sender==_constractowner, \"No Permission\") */\n      tag_61\n      jumpi\n      mload(0x40)\n      0x08c379a000000000000000000000000000000000000000000000000000000000\n      dup2\n      mstore\n      0x04\n      add\n      tag_62\n      swap1\n      tag_63\n      jump\t// in\n    tag_62:\n      mload(0x40)\n      dup1\n      swap2\n      sub\n      swap1\n      revert\n    tag_61:\n        /* \"Vote_1.sol\":4010:4019  publickey */\n      dup1\n        /* \"Vote_1.sol\":3983:3988  _vote */\n      0x01\n        /* \"Vote_1.sol\":3983:3997  _vote[vote_id] */\n      0x00\n        /* \"Vote_1.sol\":3989:3996  vote_id */\n      dup5\n        /* \"Vote_1.sol\":3983:3997  _vote[vote_id] */\n      dup2\n      mstore\n      0x20\n      add\n      swap1\n      dup2\n      mstore\n      0x20\n      add\n      0x00\n      keccak256\n        /* \"Vote_1.sol\":3983:4007  _vote[vote_id]._pulickey */\n      0x09\n      add\n        /* \"Vote_1.sol\":3983:4019  _vote[vote_id]._pulickey = publickey */\n      swap1\n      dup1\n      mload\n      swap1\n      0x20\n      add\n      swap1\n      tag_64\n      swap3\n      swap2\n      swap1\n      tag_65\n      jump\t// in\n    tag_64:\n      pop\n        /* \"Vote_1.sol\":3841:4026  function set_publickey(uint vote_id, string memory publickey) public {... */\n      pop\n      pop\n      jump\t// out\n        /* \"Vote_1.sol\":1233:1787  function new_vote(string memory title, uint vote_id, address [] memory candidates, uint vote_duration) public returns (bool){... */\n    tag_22:\n        /* \"Vote_1.sol\":1352:1356  bool */\n      0x00\n        /* \"Vote_1.sol\":1376:1389  _vote_id_used */\n      0x02\n        /* \"Vote_1.sol\":1376:1398  _vote_id_used[vote_id] */\n      0x00\n        /* \"Vote_1.sol\":1390:1397  vote_id */\n      dup6\n        /* \"Vote_1.sol\":1376:1398  _vote_id_used[vote_id] */\n      dup2\n      mstore\n      0x20\n      add\n      swap1\n      dup2\n      mstore\n      0x20\n      add\n      0x00\n      keccak256\n      0x00\n      swap1\n      sload\n      swap1\n      0x0100\n      exp\n      swap1\n      div\n      0xff\n      and\n        /* \"Vote_1.sol\":1375:1398  !_vote_id_used[vote_id] */\n      iszero\n        /* \"Vote_1.sol\":1367:1415  require(!_vote_id_used[vote_id], \"ID been used\") */\n      tag_67\n      jumpi\n      mload(0x40)\n      0x08c379a000000000000000000000000000000000000000000000000000000000\n      dup2\n      mstore\n      0x04\n      add\n      tag_68\n      swap1\n      tag_69\n      jump\t// in\n    tag_68:\n      mload(0x40)\n      dup1\n      swap2\n      sub\n      swap1\n      revert\n    tag_67:\n        /* \"Vote_1.sol\":1451:1461  msg.sender */\n      caller\n        /* \"Vote_1.sol\":1425:1430  _vote */\n      0x01\n        /* \"Vote_1.sol\":1425:1439  _vote[vote_id] */\n      0x00\n        /* \"Vote_1.sol\":1431:1438  vote_id */\n      dup7\n        /* \"Vote_1.sol\":1425:1439  _vote[vote_id] */\n      dup2\n      mstore\n      0x20\n      add\n      swap1\n      dup2\n      mstore\n      0x20\n      add\n      0x00\n      keccak256\n        /* \"Vote_1.sol\":1425:1448  _vote[vote_id]._invoker */\n      0x00\n      add\n      0x00\n        /* \"Vote_1.sol\":1425:1461  _vote[vote_id]._invoker = msg.sender */\n      0x0100\n      exp\n      dup2\n      sload\n      dup2\n      0xffffffffffffffffffffffffffffffffffffffff\n      mul\n      not\n      and\n      swap1\n      dup4\n      0xffffffffffffffffffffffffffffffffffffffff\n      and\n      mul\n      or\n      swap1\n      sstore\n      pop\n        /* \"Vote_1.sol\":1497:1504  vote_id */\n      dup4\n        /* \"Vote_1.sol\":1471:1476  _vote */\n      0x01\n        /* \"Vote_1.sol\":1471:1485  _vote[vote_id] */\n      0x00\n        /* \"Vote_1.sol\":1477:1484  vote_id */\n      dup7\n        /* \"Vote_1.sol\":1471:1485  _vote[vote_id] */\n      dup2\n      mstore\n      0x20\n      add\n      swap1\n      dup2\n      mstore\n      0x20\n      add\n      0x00\n      keccak256\n        /* \"Vote_1.sol\":1471:1494  _vote[vote_id]._vote_id */\n      0x02\n      add\n        /* \"Vote_1.sol\":1471:1504  _vote[vote_id]._vote_id = vote_id */\n      dup2\n      swap1\n      sstore\n      pop\n        /* \"Vote_1.sol\":1538:1543  title */\n      dup5\n        /* \"Vote_1.sol\":1514:1519  _vote */\n      0x01\n        /* \"Vote_1.sol\":1514:1528  _vote[vote_id] */\n      0x00\n        /* \"Vote_1.sol\":1520:1527  vote_id */\n      dup7\n        /* \"Vote_1.sol\":1514:1528  _vote[vote_id] */\n      dup2\n      mstore\n      0x20\n      add\n      swap1\n      dup2\n      mstore\n      0x20\n      add\n      0x00\n      keccak256\n        /* \"Vote_1.sol\":1514:1535  _vote[vote_id]._title */\n      0x01\n      add\n        /* \"Vote_1.sol\":1514:1543  _vote[vote_id]._title = title */\n      swap1\n      dup1\n      mload\n      swap1\n      0x20\n      add\n      swap1\n      tag_70\n      swap3\n      swap2\n      swap1\n      tag_65\n      jump\t// in\n    tag_70:\n      pop\n        /* \"Vote_1.sol\":1585:1586  0 */\n      0x00\n        /* \"Vote_1.sol\":1553:1558  _vote */\n      0x01\n        /* \"Vote_1.sol\":1553:1567  _vote[vote_id] */\n      0x00\n        /* \"Vote_1.sol\":1559:1566  vote_id */\n      dup7\n        /* \"Vote_1.sol\":1553:1567  _vote[vote_id] */\n      dup2\n      mstore\n      0x20\n      add\n      swap1\n      dup2\n      mstore\n      0x20\n      add\n      0x00\n      keccak256\n        /* \"Vote_1.sol\":1553:1582  _vote[vote_id]._voting_status */\n      0x03\n      add\n        /* \"Vote_1.sol\":1553:1586  _vote[vote_id]._voting_status = 0 */\n      dup2\n      swap1\n      sstore\n      pop\n        /* \"Vote_1.sol\":1623:1636  vote_duration */\n      dup2\n        /* \"Vote_1.sol\":1596:1601  _vote */\n      0x01\n        /* \"Vote_1.sol\":1596:1610  _vote[vote_id] */\n      0x00\n        /* \"Vote_1.sol\":1602:1609  vote_id */\n      dup7\n        /* \"Vote_1.sol\":1596:1610  _vote[vote_id] */\n      dup2\n      mstore\n      0x20\n      add\n      swap1\n      dup2\n      mstore\n      0x20\n      add\n      0x00\n      keccak256\n        /* \"Vote_1.sol\":1596:1620  _vote[vote_id]._duration */\n      0x05\n      add\n        /* \"Vote_1.sol\":1596:1636  _vote[vote_id]._duration = vote_duration */\n      dup2\n      swap1\n      sstore\n      pop\n        /* \"Vote_1.sol\":1671:1675  true */\n      0x01\n        /* \"Vote_1.sol\":1646:1659  _vote_id_used */\n      0x02\n        /* \"Vote_1.sol\":1646:1668  _vote_id_used[vote_id] */\n      0x00\n        /* \"Vote_1.sol\":1660:1667  vote_id */\n      dup7\n        /* \"Vote_1.sol\":1646:1668  _vote_id_used[vote_id] */\n      dup2\n      mstore\n      0x20\n      add\n      swap1\n      dup2\n      mstore\n      0x20\n      add\n      0x00\n      keccak256\n      0x00\n        /* \"Vote_1.sol\":1646:1675  _vote_id_used[vote_id] = true */\n      0x0100\n      exp\n      dup2\n      sload\n      dup2\n      0xff\n      mul\n      not\n      and\n      swap1\n      dup4\n      iszero\n      iszero\n      mul\n      or\n      swap1\n      sstore\n      pop\n        /* \"Vote_1.sol\":1685:1720  set_candidates(candidates, vote_id) */\n      tag_71\n        /* \"Vote_1.sol\":1700:1710  candidates */\n      dup4\n        /* \"Vote_1.sol\":1712:1719  vote_id */\n      dup6\n        /* \"Vote_1.sol\":1685:1699  set_candidates */\n      tag_72\n        /* \"Vote_1.sol\":1685:1720  set_candidates(candidates, vote_id) */\n      jump\t// in\n    tag_71:\n        /* \"Vote_1.sol\":1735:1759  New_vote(title, vote_id) */\n      0x6c3830a50de779c9ae2be039ef4fdc507722dad61422c4059fb074ff00806625\n        /* \"Vote_1.sol\":1744:1749  title */\n      dup6\n        /* \"Vote_1.sol\":1751:1758  vote_id */\n      dup6\n        /* \"Vote_1.sol\":1735:1759  New_vote(title, vote_id) */\n      mload(0x40)\n      tag_73\n      swap3\n      swap2\n      swap1\n      tag_74\n      jump\t// in\n    tag_73:\n      mload(0x40)\n      dup1\n      swap2\n      sub\n      swap1\n      log1\n        /* \"Vote_1.sol\":1776:1780  true */\n      0x01\n        /* \"Vote_1.sol\":1769:1780  return true */\n      swap1\n      pop\n        /* \"Vote_1.sol\":1233:1787  function new_vote(string memory title, uint vote_id, address [] memory candidates, uint vote_duration) public returns (bool){... */\n      swap5\n      swap4\n      pop\n      pop\n      pop\n      pop\n      jump\t// out\n        /* \"Vote_1.sol\":4463:4724  function esecret_submit_end(uint vote_id) public {... */\n    tag_28:\n        /* \"Vote_1.sol\":4561:4562  2 */\n      0x02\n        /* \"Vote_1.sol\":4530:4535  _vote */\n      0x01\n        /* \"Vote_1.sol\":4530:4544  _vote[vote_id] */\n      0x00\n        /* \"Vote_1.sol\":4536:4543  vote_id */\n      dup4\n        /* \"Vote_1.sol\":4530:4544  _vote[vote_id] */\n      dup2\n      mstore\n      0x20\n      add\n      swap1\n      dup2\n      mstore\n      0x20\n      add\n      0x00\n      keccak256\n        /* \"Vote_1.sol\":4530:4559  _vote[vote_id]._voting_status */\n      0x03\n      add\n      sload\n        /* \"Vote_1.sol\":4530:4562  _vote[vote_id]._voting_status==2 */\n      eq\n        /* \"Vote_1.sol\":4522:4563  require(_vote[vote_id]._voting_status==2) */\n      tag_76\n      jumpi\n      0x00\n      dup1\n      revert\n    tag_76:\n        /* \"Vote_1.sol\":4593:4598  _vote */\n      0x01\n        /* \"Vote_1.sol\":4593:4607  _vote[vote_id] */\n      0x00\n        /* \"Vote_1.sol\":4599:4606  vote_id */\n      dup3\n        /* \"Vote_1.sol\":4593:4607  _vote[vote_id] */\n      dup2\n      mstore\n      0x20\n      add\n      swap1\n      dup2\n      mstore\n      0x20\n      add\n      0x00\n      keccak256\n        /* \"Vote_1.sol\":4593:4616  _vote[vote_id]._invoker */\n      0x00\n      add\n      0x00\n      swap1\n      sload\n      swap1\n      0x0100\n      exp\n      swap1\n      div\n      0xffffffffffffffffffffffffffffffffffffffff\n      and\n        /* \"Vote_1.sol\":4581:4616  msg.sender==_vote[vote_id]._invoker */\n      0xffffffffffffffffffffffffffffffffffffffff\n      and\n        /* \"Vote_1.sol\":4581:4591  msg.sender */\n      caller\n        /* \"Vote_1.sol\":4581:4616  msg.sender==_vote[vote_id]._invoker */\n      0xffffffffffffffffffffffffffffffffffffffff\n      and\n      eq\n        /* \"Vote_1.sol\":4573:4634  require(msg.sender==_vote[vote_id]._invoker, \"No Permission\") */\n      tag_77\n      jumpi\n      mload(0x40)\n      0x08c379a000000000000000000000000000000000000000000000000000000000\n      dup2\n      mstore\n      0x04\n      add\n      tag_78\n      swap1\n      tag_63\n      jump\t// in\n    tag_78:\n      mload(0x40)\n      dup1\n      swap2\n      sub\n      swap1\n      revert\n    tag_77:\n        /* \"Vote_1.sol\":4644:4649  _vote */\n      0x01\n        /* \"Vote_1.sol\":4644:4658  _vote[vote_id] */\n      0x00\n        /* \"Vote_1.sol\":4650:4657  vote_id */\n      dup3\n        /* \"Vote_1.sol\":4644:4658  _vote[vote_id] */\n      dup2\n      mstore\n      0x20\n      add\n      swap1\n      dup2\n      mstore\n      0x20\n      add\n      0x00\n      keccak256\n        /* \"Vote_1.sol\":4644:4673  _vote[vote_id]._voting_status */\n      0x03\n      add\n      0x00\n        /* \"Vote_1.sol\":4644:4675  _vote[vote_id]._voting_status++ */\n      dup2\n      sload\n      dup1\n      swap3\n      swap2\n      swap1\n      tag_79\n      swap1\n      tag_80\n      jump\t// in\n    tag_79:\n      swap2\n      swap1\n      pop\n      sstore\n      pop\n        /* \"Vote_1.sol\":4690:4717  Esecret_submit_end(vote_id) */\n      0x220a131e78e8341a040cd57d8377b7d26b59d04ecf790b0b8174f71d9de1668f\n        /* \"Vote_1.sol\":4709:4716  vote_id */\n      dup2\n        /* \"Vote_1.sol\":4690:4717  Esecret_submit_end(vote_id) */\n      mload(0x40)\n      tag_81\n      swap2\n      swap1\n      tag_82\n      jump\t// in\n    tag_81:\n      mload(0x40)\n      dup1\n      swap2\n      sub\n      swap1\n      log1\n        /* \"Vote_1.sol\":4463:4724  function esecret_submit_end(uint vote_id) public {... */\n      pop\n      jump\t// out\n        /* \"Vote_1.sol\":4730:4995  function set_result(uint vote_id, string [] memory ver_result, address candidate) public {... */\n    tag_32:\n        /* \"Vote_1.sol\":4868:4869  2 */\n      0x02\n        /* \"Vote_1.sol\":4837:4842  _vote */\n      0x01\n        /* \"Vote_1.sol\":4837:4851  _vote[vote_id] */\n      0x00\n        /* \"Vote_1.sol\":4843:4850  vote_id */\n      dup6\n        /* \"Vote_1.sol\":4837:4851  _vote[vote_id] */\n      dup2\n      mstore\n      0x20\n      add\n      swap1\n      dup2\n      mstore\n      0x20\n      add\n      0x00\n      keccak256\n        /* \"Vote_1.sol\":4837:4866  _vote[vote_id]._voting_status */\n      0x03\n      add\n      sload\n        /* \"Vote_1.sol\":4837:4869  _vote[vote_id]._voting_status==2 */\n      eq\n        /* \"Vote_1.sol\":4829:4870  require(_vote[vote_id]._voting_status==2) */\n      tag_84\n      jumpi\n      0x00\n      dup1\n      revert\n    tag_84:\n        /* \"Vote_1.sol\":4900:4915  _constractowner */\n      0x00\n      dup1\n      sload\n      swap1\n      0x0100\n      exp\n      swap1\n      div\n      0xffffffffffffffffffffffffffffffffffffffff\n      and\n        /* \"Vote_1.sol\":4888:4915  msg.sender==_constractowner */\n      0xffffffffffffffffffffffffffffffffffffffff\n      and\n        /* \"Vote_1.sol\":4888:4898  msg.sender */\n      caller\n        /* \"Vote_1.sol\":4888:4915  msg.sender==_constractowner */\n      0xffffffffffffffffffffffffffffffffffffffff\n      and\n      eq\n        /* \"Vote_1.sol\":4880:4933  require(msg.sender==_constractowner, \"No Permission\") */\n      tag_85\n      jumpi\n      mload(0x40)\n      0x08c379a000000000000000000000000000000000000000000000000000000000\n      dup2\n      mstore\n      0x04\n      add\n      tag_86\n      swap1\n      tag_63\n      jump\t// in\n    tag_86:\n      mload(0x40)\n      dup1\n      swap2\n      sub\n      swap1\n      revert\n    tag_85:\n        /* \"Vote_1.sol\":4978:4988  ver_result */\n      dup2\n        /* \"Vote_1.sol\":4943:4948  _vote */\n      0x01\n        /* \"Vote_1.sol\":4943:4957  _vote[vote_id] */\n      0x00\n        /* \"Vote_1.sol\":4949:4956  vote_id */\n      dup6\n        /* \"Vote_1.sol\":4943:4957  _vote[vote_id] */\n      dup2\n      mstore\n      0x20\n      add\n      swap1\n      dup2\n      mstore\n      0x20\n      add\n      0x00\n      keccak256\n        /* \"Vote_1.sol\":4943:4964  _vote[vote_id].result */\n      0x0f\n      add\n        /* \"Vote_1.sol\":4943:4975  _vote[vote_id].result[candidate] */\n      0x00\n        /* \"Vote_1.sol\":4965:4974  candidate */\n      dup4\n        /* \"Vote_1.sol\":4943:4975  _vote[vote_id].result[candidate] */\n      0xffffffffffffffffffffffffffffffffffffffff\n      and\n      0xffffffffffffffffffffffffffffffffffffffff\n      and\n      dup2\n      mstore\n      0x20\n      add\n      swap1\n      dup2\n      mstore\n      0x20\n      add\n      0x00\n      keccak256\n        /* \"Vote_1.sol\":4943:4988  _vote[vote_id].result[candidate] = ver_result */\n      swap1\n      dup1\n      mload\n      swap1\n      0x20\n      add\n      swap1\n      tag_87\n      swap3\n      swap2\n      swap1\n      tag_88\n      jump\t// in\n    tag_87:\n      pop\n        /* \"Vote_1.sol\":4730:4995  function set_result(uint vote_id, string [] memory ver_result, address candidate) public {... */\n      pop\n      pop\n      pop\n      jump\t// out\n        /* \"Vote_1.sol\":4157:4457  function upload_esecret(uint vote_id, string memory esecret) public {... */\n    tag_35:\n        /* \"Vote_1.sol\":4274:4275  2 */\n      0x02\n        /* \"Vote_1.sol\":4243:4248  _vote */\n      0x01\n        /* \"Vote_1.sol\":4243:4257  _vote[vote_id] */\n      0x00\n        /* \"Vote_1.sol\":4249:4256  vote_id */\n      dup5\n        /* \"Vote_1.sol\":4243:4257  _vote[vote_id] */\n      dup2\n      mstore\n      0x20\n      add\n      swap1\n      dup2\n      mstore\n      0x20\n      add\n      0x00\n      keccak256\n        /* \"Vote_1.sol\":4243:4272  _vote[vote_id]._voting_status */\n      0x03\n      add\n      sload\n        /* \"Vote_1.sol\":4243:4275  _vote[vote_id]._voting_status==2 */\n      eq\n        /* \"Vote_1.sol\":4235:4276  require(_vote[vote_id]._voting_status==2) */\n      tag_90\n      jumpi\n      0x00\n      dup1\n      revert\n    tag_90:\n        /* \"Vote_1.sol\":4294:4299  _vote */\n      0x01\n        /* \"Vote_1.sol\":4294:4308  _vote[vote_id] */\n      0x00\n        /* \"Vote_1.sol\":4300:4307  vote_id */\n      dup4\n        /* \"Vote_1.sol\":4294:4308  _vote[vote_id] */\n      dup2\n      mstore\n      0x20\n      add\n      swap1\n      dup2\n      mstore\n      0x20\n      add\n      0x00\n      keccak256\n        /* \"Vote_1.sol\":4294:4317  _vote[vote_id].hasVoted */\n      0x0d\n      add\n        /* \"Vote_1.sol\":4294:4329  _vote[vote_id].hasVoted[msg.sender] */\n      0x00\n        /* \"Vote_1.sol\":4318:4328  msg.sender */\n      caller\n        /* \"Vote_1.sol\":4294:4329  _vote[vote_id].hasVoted[msg.sender] */\n      0xffffffffffffffffffffffffffffffffffffffff\n      and\n      0xffffffffffffffffffffffffffffffffffffffff\n      and\n      dup2\n      mstore\n      0x20\n      add\n      swap1\n      dup2\n      mstore\n      0x20\n      add\n      0x00\n      keccak256\n      0x00\n      swap1\n      sload\n      swap1\n      0x0100\n      exp\n      swap1\n      div\n      0xff\n      and\n        /* \"Vote_1.sol\":4286:4330  require(_vote[vote_id].hasVoted[msg.sender]) */\n      tag_91\n      jumpi\n      0x00\n      dup1\n      revert\n    tag_91:\n        /* \"Vote_1.sol\":4384:4391  esecret */\n      dup1\n        /* \"Vote_1.sol\":4340:4345  _vote */\n      0x01\n        /* \"Vote_1.sol\":4340:4354  _vote[vote_id] */\n      0x00\n        /* \"Vote_1.sol\":4346:4353  vote_id */\n      dup5\n        /* \"Vote_1.sol\":4340:4354  _vote[vote_id] */\n      dup2\n      mstore\n      0x20\n      add\n      swap1\n      dup2\n      mstore\n      0x20\n      add\n      0x00\n      keccak256\n        /* \"Vote_1.sol\":4340:4369  _vote[vote_id].ballot_esecret */\n      0x0e\n      add\n        /* \"Vote_1.sol\":4340:4381  _vote[vote_id].ballot_esecret[msg.sender] */\n      0x00\n        /* \"Vote_1.sol\":4370:4380  msg.sender */\n      caller\n        /* \"Vote_1.sol\":4340:4381  _vote[vote_id].ballot_esecret[msg.sender] */\n      0xffffffffffffffffffffffffffffffffffffffff\n      and\n      0xffffffffffffffffffffffffffffffffffffffff\n      and\n      dup2\n      mstore\n      0x20\n      add\n      swap1\n      dup2\n      mstore\n      0x20\n      add\n      0x00\n      keccak256\n        /* \"Vote_1.sol\":4340:4391  _vote[vote_id].ballot_esecret[msg.sender] = esecret */\n      swap1\n      dup1\n      mload\n      swap1\n      0x20\n      add\n      swap1\n      tag_92\n      swap3\n      swap2\n      swap1\n      tag_65\n      jump\t// in\n    tag_92:\n      pop\n        /* \"Vote_1.sol\":4406:4450  Esecret_submit(msg.sender, vote_id, esecret) */\n      0xcf587d6f7810ca815a721731288d56ce776a43b184490efbf7b6e2188af5108b\n        /* \"Vote_1.sol\":4421:4431  msg.sender */\n      caller\n        /* \"Vote_1.sol\":4433:4440  vote_id */\n      dup4\n        /* \"Vote_1.sol\":4442:4449  esecret */\n      dup4\n        /* \"Vote_1.sol\":4406:4450  Esecret_submit(msg.sender, vote_id, esecret) */\n      mload(0x40)\n      tag_93\n      swap4\n      swap3\n      swap2\n      swap1\n      tag_94\n      jump\t// in\n    tag_93:\n      mload(0x40)\n      dup1\n      swap2\n      sub\n      swap1\n      log1\n        /* \"Vote_1.sol\":4157:4457  function upload_esecret(uint vote_id, string memory esecret) public {... */\n      pop\n      pop\n      jump\t// out\n        /* \"Vote_1.sol\":2714:3083  function voting_end(uint vote_id) public {... */\n    tag_38:\n        /* \"Vote_1.sol\":2804:2805  1 */\n      0x01\n        /* \"Vote_1.sol\":2773:2778  _vote */\n      dup1\n        /* \"Vote_1.sol\":2773:2787  _vote[vote_id] */\n      0x00\n        /* \"Vote_1.sol\":2779:2786  vote_id */\n      dup4\n        /* \"Vote_1.sol\":2773:2787  _vote[vote_id] */\n      dup2\n      mstore\n      0x20\n      add\n      swap1\n      dup2\n      mstore\n      0x20\n      add\n      0x00\n      keccak256\n        /* \"Vote_1.sol\":2773:2802  _vote[vote_id]._voting_status */\n      0x03\n      add\n      sload\n        /* \"Vote_1.sol\":2773:2805  _vote[vote_id]._voting_status==1 */\n      eq\n        /* \"Vote_1.sol\":2765:2806  require(_vote[vote_id]._voting_status==1) */\n      tag_96\n      jumpi\n      0x00\n      dup1\n      revert\n    tag_96:\n        /* \"Vote_1.sol\":2836:2841  _vote */\n      0x01\n        /* \"Vote_1.sol\":2836:2850  _vote[vote_id] */\n      0x00\n        /* \"Vote_1.sol\":2842:2849  vote_id */\n      dup3\n        /* \"Vote_1.sol\":2836:2850  _vote[vote_id] */\n      dup2\n      mstore\n      0x20\n      add\n      swap1\n      dup2\n      mstore\n      0x20\n      add\n      0x00\n      keccak256\n        /* \"Vote_1.sol\":2836:2859  _vote[vote_id]._invoker */\n      0x00\n      add\n      0x00\n      swap1\n      sload\n      swap1\n      0x0100\n      exp\n      swap1\n      div\n      0xffffffffffffffffffffffffffffffffffffffff\n      and\n        /* \"Vote_1.sol\":2824:2859  msg.sender==_vote[vote_id]._invoker */\n      0xffffffffffffffffffffffffffffffffffffffff\n      and\n        /* \"Vote_1.sol\":2824:2834  msg.sender */\n      caller\n        /* \"Vote_1.sol\":2824:2859  msg.sender==_vote[vote_id]._invoker */\n      0xffffffffffffffffffffffffffffffffffffffff\n      and\n      eq\n        /* \"Vote_1.sol\":2816:2877  require(msg.sender==_vote[vote_id]._invoker, \"No Permission\") */\n      tag_97\n      jumpi\n      mload(0x40)\n      0x08c379a000000000000000000000000000000000000000000000000000000000\n      dup2\n      mstore\n      0x04\n      add\n      tag_98\n      swap1\n      tag_63\n      jump\t// in\n    tag_98:\n      mload(0x40)\n      dup1\n      swap2\n      sub\n      swap1\n      revert\n    tag_97:\n        /* \"Vote_1.sol\":2937:2942  _vote */\n      0x01\n        /* \"Vote_1.sol\":2937:2951  _vote[vote_id] */\n      0x00\n        /* \"Vote_1.sol\":2943:2950  vote_id */\n      dup3\n        /* \"Vote_1.sol\":2937:2951  _vote[vote_id] */\n      dup2\n      mstore\n      0x20\n      add\n      swap1\n      dup2\n      mstore\n      0x20\n      add\n      0x00\n      keccak256\n        /* \"Vote_1.sol\":2937:2961  _vote[vote_id]._duration */\n      0x05\n      add\n      sload\n        /* \"Vote_1.sol\":2911:2916  _vote */\n      0x01\n        /* \"Vote_1.sol\":2911:2925  _vote[vote_id] */\n      0x00\n        /* \"Vote_1.sol\":2917:2924  vote_id */\n      dup4\n        /* \"Vote_1.sol\":2911:2925  _vote[vote_id] */\n      dup2\n      mstore\n      0x20\n      add\n      swap1\n      dup2\n      mstore\n      0x20\n      add\n      0x00\n      keccak256\n        /* \"Vote_1.sol\":2911:2936  _vote[vote_id]._timestamp */\n      0x04\n      add\n      sload\n        /* \"Vote_1.sol\":2895:2910  block.timestamp */\n      timestamp\n        /* \"Vote_1.sol\":2895:2936  block.timestamp-_vote[vote_id]._timestamp */\n      tag_99\n      swap2\n      swap1\n      tag_100\n      jump\t// in\n    tag_99:\n        /* \"Vote_1.sol\":2895:2961  block.timestamp-_vote[vote_id]._timestamp>_vote[vote_id]._duration */\n      gt\n        /* \"Vote_1.sol\":2887:2962  require(block.timestamp-_vote[vote_id]._timestamp>_vote[vote_id]._duration) */\n      tag_101\n      jumpi\n      0x00\n      dup1\n      revert\n    tag_101:\n        /* \"Vote_1.sol\":2972:2977  _vote */\n      0x01\n        /* \"Vote_1.sol\":2972:2986  _vote[vote_id] */\n      0x00\n        /* \"Vote_1.sol\":2978:2985  vote_id */\n      dup3\n        /* \"Vote_1.sol\":2972:2986  _vote[vote_id] */\n      dup2\n      mstore\n      0x20\n      add\n      swap1\n      dup2\n      mstore\n      0x20\n      add\n      0x00\n      keccak256\n        /* \"Vote_1.sol\":2972:3001  _vote[vote_id]._voting_status */\n      0x03\n      add\n      0x00\n        /* \"Vote_1.sol\":2972:3003  _vote[vote_id]._voting_status++ */\n      dup2\n      sload\n      dup1\n      swap3\n      swap2\n      swap1\n      tag_102\n      swap1\n      tag_80\n      jump\t// in\n    tag_102:\n      swap2\n      swap1\n      pop\n      sstore\n      pop\n        /* \"Vote_1.sol\":3018:3076  Vote_end(_vote[vote_id]._timestamp, block.number, vote_id) */\n      0x6d3c27ac9c0e2b532d3134fc77f00406a0f871f15158acd1a534ff32f02b2ebf\n        /* \"Vote_1.sol\":3027:3032  _vote */\n      0x01\n        /* \"Vote_1.sol\":3027:3041  _vote[vote_id] */\n      0x00\n        /* \"Vote_1.sol\":3033:3040  vote_id */\n      dup4\n        /* \"Vote_1.sol\":3027:3041  _vote[vote_id] */\n      dup2\n      mstore\n      0x20\n      add\n      swap1\n      dup2\n      mstore\n      0x20\n      add\n      0x00\n      keccak256\n        /* \"Vote_1.sol\":3027:3052  _vote[vote_id]._timestamp */\n      0x04\n      add\n      sload\n        /* \"Vote_1.sol\":3054:3066  block.number */\n      number\n        /* \"Vote_1.sol\":3068:3075  vote_id */\n      dup4\n        /* \"Vote_1.sol\":3018:3076  Vote_end(_vote[vote_id]._timestamp, block.number, vote_id) */\n      mload(0x40)\n      tag_103\n      swap4\n      swap3\n      swap2\n      swap1\n      tag_104\n      jump\t// in\n    tag_103:\n      mload(0x40)\n      dup1\n      swap2\n      sub\n      swap1\n      log1\n        /* \"Vote_1.sol\":2714:3083  function voting_end(uint vote_id) public {... */\n      pop\n      jump\t// out\n        /* \"Vote_1.sol\":2367:2708  function voting_start(uint vote_id) public {... */\n    tag_41:\n        /* \"Vote_1.sol\":2458:2459  1 */\n      0x01\n        /* \"Vote_1.sol\":2428:2433  _vote */\n      dup1\n        /* \"Vote_1.sol\":2428:2442  _vote[vote_id] */\n      0x00\n        /* \"Vote_1.sol\":2434:2441  vote_id */\n      dup4\n        /* \"Vote_1.sol\":2428:2442  _vote[vote_id] */\n      dup2\n      mstore\n      0x20\n      add\n      swap1\n      dup2\n      mstore\n      0x20\n      add\n      0x00\n      keccak256\n        /* \"Vote_1.sol\":2428:2457  _vote[vote_id]._voting_status */\n      0x03\n      add\n      sload\n        /* \"Vote_1.sol\":2428:2459  _vote[vote_id]._voting_status<1 */\n      lt\n        /* \"Vote_1.sol\":2420:2460  require(_vote[vote_id]._voting_status<1) */\n      tag_106\n      jumpi\n      0x00\n      dup1\n      revert\n    tag_106:\n        /* \"Vote_1.sol\":2490:2495  _vote */\n      0x01\n        /* \"Vote_1.sol\":2490:2504  _vote[vote_id] */\n      0x00\n        /* \"Vote_1.sol\":2496:2503  vote_id */\n      dup3\n        /* \"Vote_1.sol\":2490:2504  _vote[vote_id] */\n      dup2\n      mstore\n      0x20\n      add\n      swap1\n      dup2\n      mstore\n      0x20\n      add\n      0x00\n      keccak256\n        /* \"Vote_1.sol\":2490:2513  _vote[vote_id]._invoker */\n      0x00\n      add\n      0x00\n      swap1\n      sload\n      swap1\n      0x0100\n      exp\n      swap1\n      div\n      0xffffffffffffffffffffffffffffffffffffffff\n      and\n        /* \"Vote_1.sol\":2478:2513  msg.sender==_vote[vote_id]._invoker */\n      0xffffffffffffffffffffffffffffffffffffffff\n      and\n        /* \"Vote_1.sol\":2478:2488  msg.sender */\n      caller\n        /* \"Vote_1.sol\":2478:2513  msg.sender==_vote[vote_id]._invoker */\n      0xffffffffffffffffffffffffffffffffffffffff\n      and\n      eq\n        /* \"Vote_1.sol\":2470:2531  require(msg.sender==_vote[vote_id]._invoker, \"No Permission\") */\n      tag_107\n      jumpi\n      mload(0x40)\n      0x08c379a000000000000000000000000000000000000000000000000000000000\n      dup2\n      mstore\n      0x04\n      add\n      tag_108\n      swap1\n      tag_63\n      jump\t// in\n    tag_108:\n      mload(0x40)\n      dup1\n      swap2\n      sub\n      swap1\n      revert\n    tag_107:\n        /* \"Vote_1.sol\":2541:2546  _vote */\n      0x01\n        /* \"Vote_1.sol\":2541:2555  _vote[vote_id] */\n      0x00\n        /* \"Vote_1.sol\":2547:2554  vote_id */\n      dup3\n        /* \"Vote_1.sol\":2541:2555  _vote[vote_id] */\n      dup2\n      mstore\n      0x20\n      add\n      swap1\n      dup2\n      mstore\n      0x20\n      add\n      0x00\n      keccak256\n        /* \"Vote_1.sol\":2541:2570  _vote[vote_id]._voting_status */\n      0x03\n      add\n      0x00\n        /* \"Vote_1.sol\":2541:2573  _vote[vote_id]._voting_status ++ */\n      dup2\n      sload\n      dup1\n      swap3\n      swap2\n      swap1\n      tag_109\n      swap1\n      tag_80\n      jump\t// in\n    tag_109:\n      swap2\n      swap1\n      pop\n      sstore\n      pop\n        /* \"Vote_1.sol\":2611:2626  block.timestamp */\n      timestamp\n        /* \"Vote_1.sol\":2583:2588  _vote */\n      0x01\n        /* \"Vote_1.sol\":2583:2597  _vote[vote_id] */\n      0x00\n        /* \"Vote_1.sol\":2589:2596  vote_id */\n      dup4\n        /* \"Vote_1.sol\":2583:2597  _vote[vote_id] */\n      dup2\n      mstore\n      0x20\n      add\n      swap1\n      dup2\n      mstore\n      0x20\n      add\n      0x00\n      keccak256\n        /* \"Vote_1.sol\":2583:2608  _vote[vote_id]._timestamp */\n      0x04\n      add\n        /* \"Vote_1.sol\":2583:2626  _vote[vote_id]._timestamp = block.timestamp */\n      dup2\n      swap1\n      sstore\n      pop\n        /* \"Vote_1.sol\":2641:2701  Vote_start(_vote[vote_id]._timestamp, block.number, vote_id) */\n      0x72ed78084ba8ccd7ed78c0500fe00f29f9bce811b89269a56cf18b4dcfa65344\n        /* \"Vote_1.sol\":2652:2657  _vote */\n      0x01\n        /* \"Vote_1.sol\":2652:2666  _vote[vote_id] */\n      0x00\n        /* \"Vote_1.sol\":2658:2665  vote_id */\n      dup4\n        /* \"Vote_1.sol\":2652:2666  _vote[vote_id] */\n      dup2\n      mstore\n      0x20\n      add\n      swap1\n      dup2\n      mstore\n      0x20\n      add\n      0x00\n      keccak256\n        /* \"Vote_1.sol\":2652:2677  _vote[vote_id]._timestamp */\n      0x04\n      add\n      sload\n        /* \"Vote_1.sol\":2679:2691  block.number */\n      number\n        /* \"Vote_1.sol\":2693:2700  vote_id */\n      dup4\n        /* \"Vote_1.sol\":2641:2701  Vote_start(_vote[vote_id]._timestamp, block.number, vote_id) */\n      mload(0x40)\n      tag_110\n      swap4\n      swap3\n      swap2\n      swap1\n      tag_104\n      jump\t// in\n    tag_110:\n      mload(0x40)\n      dup1\n      swap2\n      sub\n      swap1\n      log1\n        /* \"Vote_1.sol\":2367:2708  function voting_start(uint vote_id) public {... */\n      pop\n      jump\t// out\n        /* \"Vote_1.sol\":3473:3835  function set_voters(address [] memory voters, uint [] memory user_id, uint vote_id) public {... */\n    tag_45:\n        /* \"Vote_1.sol\":3612:3613  1 */\n      0x01\n        /* \"Vote_1.sol\":3582:3587  _vote */\n      dup1\n        /* \"Vote_1.sol\":3582:3596  _vote[vote_id] */\n      0x00\n        /* \"Vote_1.sol\":3588:3595  vote_id */\n      dup4\n        /* \"Vote_1.sol\":3582:3596  _vote[vote_id] */\n      dup2\n      mstore\n      0x20\n      add\n      swap1\n      dup2\n      mstore\n      0x20\n      add\n      0x00\n      keccak256\n        /* \"Vote_1.sol\":3582:3611  _vote[vote_id]._voting_status */\n      0x03\n      add\n      sload\n        /* \"Vote_1.sol\":3582:3613  _vote[vote_id]._voting_status<1 */\n      lt\n        /* \"Vote_1.sol\":3574:3614  require(_vote[vote_id]._voting_status<1) */\n      tag_112\n      jumpi\n      0x00\n      dup1\n      revert\n    tag_112:\n        /* \"Vote_1.sol\":3644:3659  _constractowner */\n      0x00\n      dup1\n      sload\n      swap1\n      0x0100\n      exp\n      swap1\n      div\n      0xffffffffffffffffffffffffffffffffffffffff\n      and\n        /* \"Vote_1.sol\":3632:3659  msg.sender==_constractowner */\n      0xffffffffffffffffffffffffffffffffffffffff\n      and\n        /* \"Vote_1.sol\":3632:3642  msg.sender */\n      caller\n        /* \"Vote_1.sol\":3632:3659  msg.sender==_constractowner */\n      0xffffffffffffffffffffffffffffffffffffffff\n      and\n      eq\n        /* \"Vote_1.sol\":3632:3696  msg.sender==_constractowner||msg.sender==_vote[vote_id]._invoker */\n      dup1\n      tag_113\n      jumpi\n      pop\n        /* \"Vote_1.sol\":3673:3678  _vote */\n      0x01\n        /* \"Vote_1.sol\":3673:3687  _vote[vote_id] */\n      0x00\n        /* \"Vote_1.sol\":3679:3686  vote_id */\n      dup3\n        /* \"Vote_1.sol\":3673:3687  _vote[vote_id] */\n      dup2\n      mstore\n      0x20\n      add\n      swap1\n      dup2\n      mstore\n      0x20\n      add\n      0x00\n      keccak256\n        /* \"Vote_1.sol\":3673:3696  _vote[vote_id]._invoker */\n      0x00\n      add\n      0x00\n      swap1\n      sload\n      swap1\n      0x0100\n      exp\n      swap1\n      div\n      0xffffffffffffffffffffffffffffffffffffffff\n      and\n        /* \"Vote_1.sol\":3661:3696  msg.sender==_vote[vote_id]._invoker */\n      0xffffffffffffffffffffffffffffffffffffffff\n      and\n        /* \"Vote_1.sol\":3661:3671  msg.sender */\n      caller\n        /* \"Vote_1.sol\":3661:3696  msg.sender==_vote[vote_id]._invoker */\n      0xffffffffffffffffffffffffffffffffffffffff\n      and\n      eq\n        /* \"Vote_1.sol\":3632:3696  msg.sender==_constractowner||msg.sender==_vote[vote_id]._invoker */\n    tag_113:\n        /* \"Vote_1.sol\":3624:3714  require(msg.sender==_constractowner||msg.sender==_vote[vote_id]._invoker, \"No Permission\") */\n      tag_114\n      jumpi\n      mload(0x40)\n      0x08c379a000000000000000000000000000000000000000000000000000000000\n      dup2\n      mstore\n      0x04\n      add\n      tag_115\n      swap1\n      tag_63\n      jump\t// in\n    tag_115:\n      mload(0x40)\n      dup1\n      swap2\n      sub\n      swap1\n      revert\n    tag_114:\n        /* \"Vote_1.sol\":3728:3734  uint i */\n      0x00\n        /* \"Vote_1.sol\":3724:3829  for(uint i = 0; i < voters.length; i++){... */\n    tag_116:\n        /* \"Vote_1.sol\":3744:3750  voters */\n      dup4\n        /* \"Vote_1.sol\":3744:3757  voters.length */\n      mload\n        /* \"Vote_1.sol\":3740:3741  i */\n      dup2\n        /* \"Vote_1.sol\":3740:3757  i < voters.length */\n      lt\n        /* \"Vote_1.sol\":3724:3829  for(uint i = 0; i < voters.length; i++){... */\n      iszero\n      tag_117\n      jumpi\n        /* \"Vote_1.sol\":3777:3818  set_voter(voters[i], user_id[i], vote_id) */\n      tag_119\n        /* \"Vote_1.sol\":3787:3793  voters */\n      dup5\n        /* \"Vote_1.sol\":3794:3795  i */\n      dup3\n        /* \"Vote_1.sol\":3787:3796  voters[i] */\n      dup2\n      mload\n      dup2\n      lt\n      tag_120\n      jumpi\n      tag_121\n      tag_122\n      jump\t// in\n    tag_121:\n    tag_120:\n      0x20\n      mul\n      0x20\n      add\n      add\n      mload\n        /* \"Vote_1.sol\":3798:3805  user_id */\n      dup5\n        /* \"Vote_1.sol\":3806:3807  i */\n      dup4\n        /* \"Vote_1.sol\":3798:3808  user_id[i] */\n      dup2\n      mload\n      dup2\n      lt\n      tag_123\n      jumpi\n      tag_124\n      tag_122\n      jump\t// in\n    tag_124:\n    tag_123:\n      0x20\n      mul\n      0x20\n      add\n      add\n      mload\n        /* \"Vote_1.sol\":3810:3817  vote_id */\n      dup5\n        /* \"Vote_1.sol\":3777:3786  set_voter */\n      tag_125\n        /* \"Vote_1.sol\":3777:3818  set_voter(voters[i], user_id[i], vote_id) */\n      jump\t// in\n    tag_119:\n        /* \"Vote_1.sol\":3759:3762  i++ */\n      dup1\n      dup1\n      tag_126\n      swap1\n      tag_80\n      jump\t// in\n    tag_126:\n      swap2\n      pop\n      pop\n        /* \"Vote_1.sol\":3724:3829  for(uint i = 0; i < voters.length; i++){... */\n      jump(tag_116)\n    tag_117:\n      pop\n        /* \"Vote_1.sol\":3473:3835  function set_voters(address [] memory voters, uint [] memory user_id, uint vote_id) public {... */\n      pop\n      pop\n      pop\n      jump\t// out\n        /* \"Vote_1.sol\":2001:2361  function voting(string memory ballot, uint vote_id, uint voter_id) public{... */\n    tag_49:\n        /* \"Vote_1.sol\":2123:2124  1 */\n      0x01\n        /* \"Vote_1.sol\":2092:2097  _vote */\n      dup1\n        /* \"Vote_1.sol\":2092:2106  _vote[vote_id] */\n      0x00\n        /* \"Vote_1.sol\":2098:2105  vote_id */\n      dup5\n        /* \"Vote_1.sol\":2092:2106  _vote[vote_id] */\n      dup2\n      mstore\n      0x20\n      add\n      swap1\n      dup2\n      mstore\n      0x20\n      add\n      0x00\n      keccak256\n        /* \"Vote_1.sol\":2092:2121  _vote[vote_id]._voting_status */\n      0x03\n      add\n      sload\n        /* \"Vote_1.sol\":2092:2124  _vote[vote_id]._voting_status==1 */\n      eq\n        /* \"Vote_1.sol\":2084:2125  require(_vote[vote_id]._voting_status==1) */\n      tag_128\n      jumpi\n      0x00\n      dup1\n      revert\n    tag_128:\n        /* \"Vote_1.sol\":2155:2160  _vote */\n      0x01\n        /* \"Vote_1.sol\":2155:2169  _vote[vote_id] */\n      0x00\n        /* \"Vote_1.sol\":2161:2168  vote_id */\n      dup4\n        /* \"Vote_1.sol\":2155:2169  _vote[vote_id] */\n      dup2\n      mstore\n      0x20\n      add\n      swap1\n      dup2\n      mstore\n      0x20\n      add\n      0x00\n      keccak256\n        /* \"Vote_1.sol\":2155:2180  _vote[vote_id].voter_list */\n      0x0b\n      add\n        /* \"Vote_1.sol\":2155:2190  _vote[vote_id].voter_list[voter_id] */\n      0x00\n        /* \"Vote_1.sol\":2181:2189  voter_id */\n      dup3\n        /* \"Vote_1.sol\":2155:2190  _vote[vote_id].voter_list[voter_id] */\n      dup2\n      mstore\n      0x20\n      add\n      swap1\n      dup2\n      mstore\n      0x20\n      add\n      0x00\n      keccak256\n      0x00\n      swap1\n      sload\n      swap1\n      0x0100\n      exp\n      swap1\n      div\n      0xffffffffffffffffffffffffffffffffffffffff\n      and\n        /* \"Vote_1.sol\":2143:2190  msg.sender==_vote[vote_id].voter_list[voter_id] */\n      0xffffffffffffffffffffffffffffffffffffffff\n      and\n        /* \"Vote_1.sol\":2143:2153  msg.sender */\n      caller\n        /* \"Vote_1.sol\":2143:2190  msg.sender==_vote[vote_id].voter_list[voter_id] */\n      0xffffffffffffffffffffffffffffffffffffffff\n      and\n      eq\n        /* \"Vote_1.sol\":2135:2204  require(msg.sender==_vote[vote_id].voter_list[voter_id], \"Wrong key\") */\n      tag_129\n      jumpi\n      mload(0x40)\n      0x08c379a000000000000000000000000000000000000000000000000000000000\n      dup2\n      mstore\n      0x04\n      add\n      tag_130\n      swap1\n      tag_131\n      jump\t// in\n    tag_130:\n      mload(0x40)\n      dup1\n      swap2\n      sub\n      swap1\n      revert\n    tag_129:\n        /* \"Vote_1.sol\":2256:2262  ballot */\n      dup3\n        /* \"Vote_1.sol\":2214:2219  _vote */\n      0x01\n        /* \"Vote_1.sol\":2214:2228  _vote[vote_id] */\n      0x00\n        /* \"Vote_1.sol\":2220:2227  vote_id */\n      dup5\n        /* \"Vote_1.sol\":2214:2228  _vote[vote_id] */\n      dup2\n      mstore\n      0x20\n      add\n      swap1\n      dup2\n      mstore\n      0x20\n      add\n      0x00\n      keccak256\n        /* \"Vote_1.sol\":2214:2241  _vote[vote_id].voter_ballot */\n      0x0c\n      add\n        /* \"Vote_1.sol\":2214:2253  _vote[vote_id].voter_ballot[msg.sender] */\n      0x00\n        /* \"Vote_1.sol\":2242:2252  msg.sender */\n      caller\n        /* \"Vote_1.sol\":2214:2253  _vote[vote_id].voter_ballot[msg.sender] */\n      0xffffffffffffffffffffffffffffffffffffffff\n      and\n      0xffffffffffffffffffffffffffffffffffffffff\n      and\n      dup2\n      mstore\n      0x20\n      add\n      swap1\n      dup2\n      mstore\n      0x20\n      add\n      0x00\n      keccak256\n        /* \"Vote_1.sol\":2214:2262  _vote[vote_id].voter_ballot[msg.sender] = ballot */\n      swap1\n      dup1\n      mload\n      swap1\n      0x20\n      add\n      swap1\n      tag_132\n      swap3\n      swap2\n      swap1\n      tag_65\n      jump\t// in\n    tag_132:\n      pop\n        /* \"Vote_1.sol\":2272:2277  _vote */\n      0x01\n        /* \"Vote_1.sol\":2272:2286  _vote[vote_id] */\n      0x00\n        /* \"Vote_1.sol\":2278:2285  vote_id */\n      dup4\n        /* \"Vote_1.sol\":2272:2286  _vote[vote_id] */\n      dup2\n      mstore\n      0x20\n      add\n      swap1\n      dup2\n      mstore\n      0x20\n      add\n      0x00\n      keccak256\n        /* \"Vote_1.sol\":2272:2293  _vote[vote_id]._voted */\n      0x07\n      add\n      0x00\n        /* \"Vote_1.sol\":2272:2295  _vote[vote_id]._voted++ */\n      dup2\n      sload\n      dup1\n      swap3\n      swap2\n      swap1\n      tag_133\n      swap1\n      tag_80\n      jump\t// in\n    tag_133:\n      swap2\n      swap1\n      pop\n      sstore\n      pop\n        /* \"Vote_1.sol\":2310:2354  Voting_complete(msg.sender, ballot, vote_id) */\n      0xc2d7e3c30328bfe2d5070f2c6c0dd93a439a518dcd8e0e115dbc992a607a8e66\n        /* \"Vote_1.sol\":2326:2336  msg.sender */\n      caller\n        /* \"Vote_1.sol\":2338:2344  ballot */\n      dup5\n        /* \"Vote_1.sol\":2346:2353  vote_id */\n      dup5\n        /* \"Vote_1.sol\":2310:2354  Voting_complete(msg.sender, ballot, vote_id) */\n      mload(0x40)\n      tag_134\n      swap4\n      swap3\n      swap2\n      swap1\n      tag_135\n      jump\t// in\n    tag_134:\n      mload(0x40)\n      dup1\n      swap2\n      sub\n      swap1\n      log1\n        /* \"Vote_1.sol\":2001:2361  function voting(string memory ballot, uint vote_id, uint voter_id) public{... */\n      pop\n      pop\n      pop\n      jump\t// out\n        /* \"Vote_1.sol\":4032:4151  function get_publickey(uint vote_id) public view returns(string memory){... */\n    tag_52:\n        /* \"Vote_1.sol\":4089:4102  string memory */\n      0x60\n        /* \"Vote_1.sol\":4120:4125  _vote */\n      0x01\n        /* \"Vote_1.sol\":4120:4134  _vote[vote_id] */\n      0x00\n        /* \"Vote_1.sol\":4126:4133  vote_id */\n      dup4\n        /* \"Vote_1.sol\":4120:4134  _vote[vote_id] */\n      dup2\n      mstore\n      0x20\n      add\n      swap1\n      dup2\n      mstore\n      0x20\n      add\n      0x00\n      keccak256\n        /* \"Vote_1.sol\":4120:4144  _vote[vote_id]._pulickey */\n      0x09\n      add\n        /* \"Vote_1.sol\":4113:4144  return _vote[vote_id]._pulickey */\n      dup1\n      sload\n      tag_137\n      swap1\n      tag_138\n      jump\t// in\n    tag_137:\n      dup1\n      0x1f\n      add\n      0x20\n      dup1\n      swap2\n      div\n      mul\n      0x20\n      add\n      mload(0x40)\n      swap1\n      dup2\n      add\n      0x40\n      mstore\n      dup1\n      swap3\n      swap2\n      swap1\n      dup2\n      dup2\n      mstore\n      0x20\n      add\n      dup3\n      dup1\n      sload\n      tag_139\n      swap1\n      tag_138\n      jump\t// in\n    tag_139:\n      dup1\n      iszero\n      tag_140\n      jumpi\n      dup1\n      0x1f\n      lt\n      tag_141\n      jumpi\n      0x0100\n      dup1\n      dup4\n      sload\n      div\n      mul\n      dup4\n      mstore\n      swap2\n      0x20\n      add\n      swap2\n      jump(tag_140)\n    tag_141:\n      dup3\n      add\n      swap2\n      swap1\n      0x00\n      mstore\n      keccak256(0x00, 0x20)\n      swap1\n    tag_142:\n      dup2\n      sload\n      dup2\n      mstore\n      swap1\n      0x01\n      add\n      swap1\n      0x20\n      add\n      dup1\n      dup4\n      gt\n      tag_142\n      jumpi\n      dup3\n      swap1\n      sub\n      0x1f\n      and\n      dup3\n      add\n      swap2\n    tag_140:\n      pop\n      pop\n      pop\n      pop\n      pop\n      swap1\n      pop\n        /* \"Vote_1.sol\":4032:4151  function get_publickey(uint vote_id) public view returns(string memory){... */\n      swap2\n      swap1\n      pop\n      jump\t// out\n        /* \"Vote_1.sol\":3089:3280  function get_ballot(address voter, uint vote_id) public view returns(string memory){... */\n    tag_58:\n        /* \"Vote_1.sol\":3158:3171  string memory */\n      0x60\n        /* \"Vote_1.sol\":3220:3221  1 */\n      0x01\n        /* \"Vote_1.sol\":3190:3195  _vote */\n      dup1\n        /* \"Vote_1.sol\":3190:3204  _vote[vote_id] */\n      0x00\n        /* \"Vote_1.sol\":3196:3203  vote_id */\n      dup5\n        /* \"Vote_1.sol\":3190:3204  _vote[vote_id] */\n      dup2\n      mstore\n      0x20\n      add\n      swap1\n      dup2\n      mstore\n      0x20\n      add\n      0x00\n      keccak256\n        /* \"Vote_1.sol\":3190:3219  _vote[vote_id]._voting_status */\n      0x03\n      add\n      sload\n        /* \"Vote_1.sol\":3190:3221  _vote[vote_id]._voting_status>1 */\n      gt\n        /* \"Vote_1.sol\":3182:3222  require(_vote[vote_id]._voting_status>1) */\n      tag_144\n      jumpi\n      0x00\n      dup1\n      revert\n    tag_144:\n        /* \"Vote_1.sol\":3239:3244  _vote */\n      0x01\n        /* \"Vote_1.sol\":3239:3253  _vote[vote_id] */\n      0x00\n        /* \"Vote_1.sol\":3245:3252  vote_id */\n      dup4\n        /* \"Vote_1.sol\":3239:3253  _vote[vote_id] */\n      dup2\n      mstore\n      0x20\n      add\n      swap1\n      dup2\n      mstore\n      0x20\n      add\n      0x00\n      keccak256\n        /* \"Vote_1.sol\":3239:3266  _vote[vote_id].voter_ballot */\n      0x0c\n      add\n        /* \"Vote_1.sol\":3239:3273  _vote[vote_id].voter_ballot[voter] */\n      0x00\n        /* \"Vote_1.sol\":3267:3272  voter */\n      dup5\n        /* \"Vote_1.sol\":3239:3273  _vote[vote_id].voter_ballot[voter] */\n      0xffffffffffffffffffffffffffffffffffffffff\n      and\n      0xffffffffffffffffffffffffffffffffffffffff\n      and\n      dup2\n      mstore\n      0x20\n      add\n      swap1\n      dup2\n      mstore\n      0x20\n      add\n      0x00\n      keccak256\n        /* \"Vote_1.sol\":3232:3273  return _vote[vote_id].voter_ballot[voter] */\n      dup1\n      sload\n      tag_145\n      swap1\n      tag_138\n      jump\t// in\n    tag_145:\n      dup1\n      0x1f\n      add\n      0x20\n      dup1\n      swap2\n      div\n      mul\n      0x20\n      add\n      mload(0x40)\n      swap1\n      dup2\n      add\n      0x40\n      mstore\n      dup1\n      swap3\n      swap2\n      swap1\n      dup2\n      dup2\n      mstore\n      0x20\n      add\n      dup3\n      dup1\n      sload\n      tag_146\n      swap1\n      tag_138\n      jump\t// in\n    tag_146:\n      dup1\n      iszero\n      tag_147\n      jumpi\n      dup1\n      0x1f\n      lt\n      tag_148\n      jumpi\n      0x0100\n      dup1\n      dup4\n      sload\n      div\n      mul\n      dup4\n      mstore\n      swap2\n      0x20\n      add\n      swap2\n      jump(tag_147)\n    tag_148:\n      dup3\n      add\n      swap2\n      swap1\n      0x00\n      mstore\n      keccak256(0x00, 0x20)\n      swap1\n    tag_149:\n      dup2\n      sload\n      dup2\n      mstore\n      swap1\n      0x01\n      add\n      swap1\n      0x20\n      add\n      dup1\n      dup4\n      gt\n      tag_149\n      jumpi\n      dup3\n      swap1\n      sub\n      0x1f\n      and\n      dup3\n      add\n      swap2\n    tag_147:\n      pop\n      pop\n      pop\n      pop\n      pop\n      swap1\n      pop\n        /* \"Vote_1.sol\":3089:3280  function get_ballot(address voter, uint vote_id) public view returns(string memory){... */\n      swap3\n      swap2\n      pop\n      pop\n      jump\t// out\n        /* \"Vote_1.sol\":3286:3467  function set_candidates(address [] memory candidates, uint vote_id) private {... */\n    tag_72:\n        /* \"Vote_1.sol\":3410:3411  1 */\n      0x01\n        /* \"Vote_1.sol\":3380:3385  _vote */\n      dup1\n        /* \"Vote_1.sol\":3380:3394  _vote[vote_id] */\n      0x00\n        /* \"Vote_1.sol\":3386:3393  vote_id */\n      dup4\n        /* \"Vote_1.sol\":3380:3394  _vote[vote_id] */\n      dup2\n      mstore\n      0x20\n      add\n      swap1\n      dup2\n      mstore\n      0x20\n      add\n      0x00\n      keccak256\n        /* \"Vote_1.sol\":3380:3409  _vote[vote_id]._voting_status */\n      0x03\n      add\n      sload\n        /* \"Vote_1.sol\":3380:3411  _vote[vote_id]._voting_status<1 */\n      lt\n        /* \"Vote_1.sol\":3372:3412  require(_vote[vote_id]._voting_status<1) */\n      tag_151\n      jumpi\n      0x00\n      dup1\n      revert\n    tag_151:\n        /* \"Vote_1.sol\":3450:3460  candidates */\n      dup2\n        /* \"Vote_1.sol\":3422:3427  _vote */\n      0x01\n        /* \"Vote_1.sol\":3422:3436  _vote[vote_id] */\n      0x00\n        /* \"Vote_1.sol\":3428:3435  vote_id */\n      dup4\n        /* \"Vote_1.sol\":3422:3436  _vote[vote_id] */\n      dup2\n      mstore\n      0x20\n      add\n      swap1\n      dup2\n      mstore\n      0x20\n      add\n      0x00\n      keccak256\n        /* \"Vote_1.sol\":3422:3447  _vote[vote_id]._candidate */\n      0x0a\n      add\n        /* \"Vote_1.sol\":3422:3460  _vote[vote_id]._candidate = candidates */\n      swap1\n      dup1\n      mload\n      swap1\n      0x20\n      add\n      swap1\n      tag_152\n      swap3\n      swap2\n      swap1\n      tag_153\n      jump\t// in\n    tag_152:\n      pop\n        /* \"Vote_1.sol\":3286:3467  function set_candidates(address [] memory candidates, uint vote_id) private {... */\n      pop\n      pop\n      jump\t// out\n        /* \"Vote_1.sol\":1793:1995  function set_voter(address voter, uint user_id, uint vote_id) private {... */\n    tag_125:\n        /* \"Vote_1.sol\":1910:1915  voter */\n      dup3\n        /* \"Vote_1.sol\":1873:1878  _vote */\n      0x01\n        /* \"Vote_1.sol\":1873:1887  _vote[vote_id] */\n      0x00\n        /* \"Vote_1.sol\":1879:1886  vote_id */\n      dup4\n        /* \"Vote_1.sol\":1873:1887  _vote[vote_id] */\n      dup2\n      mstore\n      0x20\n      add\n      swap1\n      dup2\n      mstore\n      0x20\n      add\n      0x00\n      keccak256\n        /* \"Vote_1.sol\":1873:1898  _vote[vote_id].voter_list */\n      0x0b\n      add\n        /* \"Vote_1.sol\":1873:1907  _vote[vote_id].voter_list[user_id] */\n      0x00\n        /* \"Vote_1.sol\":1899:1906  user_id */\n      dup5\n        /* \"Vote_1.sol\":1873:1907  _vote[vote_id].voter_list[user_id] */\n      dup2\n      mstore\n      0x20\n      add\n      swap1\n      dup2\n      mstore\n      0x20\n      add\n      0x00\n      keccak256\n      0x00\n        /* \"Vote_1.sol\":1873:1915  _vote[vote_id].voter_list[user_id] = voter */\n      0x0100\n      exp\n      dup2\n      sload\n      dup2\n      0xffffffffffffffffffffffffffffffffffffffff\n      mul\n      not\n      and\n      swap1\n      dup4\n      0xffffffffffffffffffffffffffffffffffffffff\n      and\n      mul\n      or\n      swap1\n      sstore\n      pop\n        /* \"Vote_1.sol\":1925:1930  _vote */\n      0x01\n        /* \"Vote_1.sol\":1925:1939  _vote[vote_id] */\n      0x00\n        /* \"Vote_1.sol\":1931:1938  vote_id */\n      dup3\n        /* \"Vote_1.sol\":1925:1939  _vote[vote_id] */\n      dup2\n      mstore\n      0x20\n      add\n      swap1\n      dup2\n      mstore\n      0x20\n      add\n      0x00\n      keccak256\n        /* \"Vote_1.sol\":1925:1946  _vote[vote_id]._count */\n      0x06\n      add\n      0x00\n        /* \"Vote_1.sol\":1925:1948  _vote[vote_id]._count++ */\n      dup2\n      sload\n      dup1\n      swap3\n      swap2\n      swap1\n      tag_155\n      swap1\n      tag_80\n      jump\t// in\n    tag_155:\n      swap2\n      swap1\n      pop\n      sstore\n      pop\n        /* \"Vote_1.sol\":1963:1988  Voter_set(voter, vote_id) */\n      0x4ad260fdb84f8458e9ae5bfb9f78b3a60d8daeba55271ac59884c0f6cb4e0435\n        /* \"Vote_1.sol\":1973:1978  voter */\n      dup4\n        /* \"Vote_1.sol\":1980:1987  vote_id */\n      dup3\n        /* \"Vote_1.sol\":1963:1988  Voter_set(voter, vote_id) */\n      mload(0x40)\n      tag_156\n      swap3\n      swap2\n      swap1\n      tag_157\n      jump\t// in\n    tag_156:\n      mload(0x40)\n      dup1\n      swap2\n      sub\n      swap1\n      log1\n        /* \"Vote_1.sol\":1793:1995  function set_voter(address voter, uint user_id, uint vote_id) private {... */\n      pop\n      pop\n      pop\n      jump\t// out\n    tag_65:\n      dup3\n      dup1\n      sload\n      tag_158\n      swap1\n      tag_138\n      jump\t// in\n    tag_158:\n      swap1\n      0x00\n      mstore\n      keccak256(0x00, 0x20)\n      swap1\n      0x1f\n      add\n      0x20\n      swap1\n      div\n      dup2\n      add\n      swap3\n      dup3\n      tag_160\n      jumpi\n      0x00\n      dup6\n      sstore\n      jump(tag_159)\n    tag_160:\n      dup3\n      0x1f\n      lt\n      tag_161\n      jumpi\n      dup1\n      mload\n      not(0xff)\n      and\n      dup4\n      dup1\n      add\n      or\n      dup6\n      sstore\n      jump(tag_159)\n    tag_161:\n      dup3\n      dup1\n      add\n      0x01\n      add\n      dup6\n      sstore\n      dup3\n      iszero\n      tag_159\n      jumpi\n      swap2\n      dup3\n      add\n    tag_162:\n      dup3\n      dup2\n      gt\n      iszero\n      tag_163\n      jumpi\n      dup3\n      mload\n      dup3\n      sstore\n      swap2\n      0x20\n      add\n      swap2\n      swap1\n      0x01\n      add\n      swap1\n      jump(tag_162)\n    tag_163:\n    tag_159:\n      pop\n      swap1\n      pop\n      tag_164\n      swap2\n      swap1\n      tag_165\n      jump\t// in\n    tag_164:\n      pop\n      swap1\n      jump\t// out\n    tag_88:\n      dup3\n      dup1\n      sload\n      dup3\n      dup3\n      sstore\n      swap1\n      0x00\n      mstore\n      keccak256(0x00, 0x20)\n      swap1\n      dup2\n      add\n      swap3\n      dup3\n      iszero\n      tag_166\n      jumpi\n      swap2\n      0x20\n      mul\n      dup3\n      add\n    tag_167:\n      dup3\n      dup2\n      gt\n      iszero\n      tag_168\n      jumpi\n      dup3\n      mload\n      dup3\n      swap1\n      dup1\n      mload\n      swap1\n      0x20\n      add\n      swap1\n      tag_169\n      swap3\n      swap2\n      swap1\n      tag_65\n      jump\t// in\n    tag_169:\n      pop\n      swap2\n      0x20\n      add\n      swap2\n      swap1\n      0x01\n      add\n      swap1\n      jump(tag_167)\n    tag_168:\n    tag_166:\n      pop\n      swap1\n      pop\n      tag_170\n      swap2\n      swap1\n      tag_171\n      jump\t// in\n    tag_170:\n      pop\n      swap1\n      jump\t// out\n    tag_153:\n      dup3\n      dup1\n      sload\n      dup3\n      dup3\n      sstore\n      swap1\n      0x00\n      mstore\n      keccak256(0x00, 0x20)\n      swap1\n      dup2\n      add\n      swap3\n      dup3\n      iszero\n      tag_172\n      jumpi\n      swap2\n      0x20\n      mul\n      dup3\n      add\n    tag_173:\n      dup3\n      dup2\n      gt\n      iszero\n      tag_174\n      jumpi\n      dup3\n      mload\n      dup3\n      exp(0x0100, 0x00)\n      dup2\n      sload\n      dup2\n      0xffffffffffffffffffffffffffffffffffffffff\n      mul\n      not\n      and\n      swap1\n      dup4\n      0xffffffffffffffffffffffffffffffffffffffff\n      and\n      mul\n      or\n      swap1\n      sstore\n      pop\n      swap2\n      0x20\n      add\n      swap2\n      swap1\n      0x01\n      add\n      swap1\n      jump(tag_173)\n    tag_174:\n    tag_172:\n      pop\n      swap1\n      pop\n      tag_175\n      swap2\n      swap1\n      tag_165\n      jump\t// in\n    tag_175:\n      pop\n      swap1\n      jump\t// out\n    tag_165:\n    tag_176:\n      dup1\n      dup3\n      gt\n      iszero\n      tag_177\n      jumpi\n      0x00\n      dup2\n      0x00\n      swap1\n      sstore\n      pop\n      0x01\n      add\n      jump(tag_176)\n    tag_177:\n      pop\n      swap1\n      jump\t// out\n    tag_171:\n    tag_178:\n      dup1\n      dup3\n      gt\n      iszero\n      tag_179\n      jumpi\n      0x00\n      dup2\n      dup2\n      tag_180\n      swap2\n      swap1\n      tag_181\n      jump\t// in\n    tag_180:\n      pop\n      0x01\n      add\n      jump(tag_178)\n    tag_179:\n      pop\n      swap1\n      jump\t// out\n    tag_181:\n      pop\n      dup1\n      sload\n      tag_182\n      swap1\n      tag_138\n      jump\t// in\n    tag_182:\n      0x00\n      dup3\n      sstore\n      dup1\n      0x1f\n      lt\n      tag_184\n      jumpi\n      pop\n      jump(tag_183)\n    tag_184:\n      0x1f\n      add\n      0x20\n      swap1\n      div\n      swap1\n      0x00\n      mstore\n      keccak256(0x00, 0x20)\n      swap1\n      dup2\n      add\n      swap1\n      tag_185\n      swap2\n      swap1\n      tag_165\n      jump\t// in\n    tag_185:\n    tag_183:\n      pop\n      jump\t// out\n        /* \"#utility.yul\":24:746   */\n    tag_187:\n        /* \"#utility.yul\":120:125   */\n      0x00\n        /* \"#utility.yul\":145:226   */\n      tag_189\n        /* \"#utility.yul\":161:225   */\n      tag_190\n        /* \"#utility.yul\":218:224   */\n      dup5\n        /* \"#utility.yul\":161:225   */\n      tag_191\n      jump\t// in\n    tag_190:\n        /* \"#utility.yul\":145:226   */\n      tag_192\n      jump\t// in\n    tag_189:\n        /* \"#utility.yul\":136:226   */\n      swap1\n      pop\n        /* \"#utility.yul\":246:251   */\n      dup1\n        /* \"#utility.yul\":275:281   */\n      dup4\n        /* \"#utility.yul\":268:273   */\n      dup3\n        /* \"#utility.yul\":261:282   */\n      mstore\n        /* \"#utility.yul\":309:313   */\n      0x20\n        /* \"#utility.yul\":302:307   */\n      dup3\n        /* \"#utility.yul\":298:314   */\n      add\n        /* \"#utility.yul\":291:314   */\n      swap1\n      pop\n        /* \"#utility.yul\":335:341   */\n      dup3\n        /* \"#utility.yul\":385:388   */\n      dup6\n        /* \"#utility.yul\":377:381   */\n      0x20\n        /* \"#utility.yul\":369:375   */\n      dup7\n        /* \"#utility.yul\":365:382   */\n      mul\n        /* \"#utility.yul\":360:363   */\n      dup3\n        /* \"#utility.yul\":356:383   */\n      add\n        /* \"#utility.yul\":353:389   */\n      gt\n        /* \"#utility.yul\":350:493   */\n      iszero\n      tag_193\n      jumpi\n        /* \"#utility.yul\":404:483   */\n      tag_194\n      tag_195\n      jump\t// in\n    tag_194:\n        /* \"#utility.yul\":350:493   */\n    tag_193:\n        /* \"#utility.yul\":517:518   */\n      0x00\n        /* \"#utility.yul\":502:740   */\n    tag_196:\n        /* \"#utility.yul\":527:533   */\n      dup6\n        /* \"#utility.yul\":524:525   */\n      dup2\n        /* \"#utility.yul\":521:534   */\n      lt\n        /* \"#utility.yul\":502:740   */\n      iszero\n      tag_198\n      jumpi\n        /* \"#utility.yul\":595:598   */\n      dup2\n        /* \"#utility.yul\":624:661   */\n      tag_199\n        /* \"#utility.yul\":657:660   */\n      dup9\n        /* \"#utility.yul\":645:655   */\n      dup3\n        /* \"#utility.yul\":624:661   */\n      tag_200\n      jump\t// in\n    tag_199:\n        /* \"#utility.yul\":619:622   */\n      dup5\n        /* \"#utility.yul\":612:662   */\n      mstore\n        /* \"#utility.yul\":691:695   */\n      0x20\n        /* \"#utility.yul\":686:689   */\n      dup5\n        /* \"#utility.yul\":682:696   */\n      add\n        /* \"#utility.yul\":675:696   */\n      swap4\n      pop\n        /* \"#utility.yul\":725:729   */\n      0x20\n        /* \"#utility.yul\":720:723   */\n      dup4\n        /* \"#utility.yul\":716:730   */\n      add\n        /* \"#utility.yul\":709:730   */\n      swap3\n      pop\n        /* \"#utility.yul\":562:740   */\n      pop\n        /* \"#utility.yul\":549:550   */\n      0x01\n        /* \"#utility.yul\":546:547   */\n      dup2\n        /* \"#utility.yul\":542:551   */\n      add\n        /* \"#utility.yul\":537:551   */\n      swap1\n      pop\n        /* \"#utility.yul\":502:740   */\n      jump(tag_196)\n    tag_198:\n        /* \"#utility.yul\":506:520   */\n      pop\n        /* \"#utility.yul\":126:746   */\n      pop\n      pop\n        /* \"#utility.yul\":24:746   */\n      swap4\n      swap3\n      pop\n      pop\n      pop\n      jump\t// out\n        /* \"#utility.yul\":768:1725   */\n    tag_201:\n        /* \"#utility.yul\":874:879   */\n      0x00\n        /* \"#utility.yul\":899:990   */\n      tag_203\n        /* \"#utility.yul\":915:989   */\n      tag_204\n        /* \"#utility.yul\":982:988   */\n      dup5\n        /* \"#utility.yul\":915:989   */\n      tag_205\n      jump\t// in\n    tag_204:\n        /* \"#utility.yul\":899:990   */\n      tag_192\n      jump\t// in\n    tag_203:\n        /* \"#utility.yul\":890:990   */\n      swap1\n      pop\n        /* \"#utility.yul\":1010:1015   */\n      dup1\n        /* \"#utility.yul\":1039:1045   */\n      dup4\n        /* \"#utility.yul\":1032:1037   */\n      dup3\n        /* \"#utility.yul\":1025:1046   */\n      mstore\n        /* \"#utility.yul\":1073:1077   */\n      0x20\n        /* \"#utility.yul\":1066:1071   */\n      dup3\n        /* \"#utility.yul\":1062:1078   */\n      add\n        /* \"#utility.yul\":1055:1078   */\n      swap1\n      pop\n        /* \"#utility.yul\":1099:1105   */\n      dup3\n        /* \"#utility.yul\":1149:1152   */\n      dup6\n        /* \"#utility.yul\":1141:1145   */\n      0x20\n        /* \"#utility.yul\":1133:1139   */\n      dup7\n        /* \"#utility.yul\":1129:1146   */\n      mul\n        /* \"#utility.yul\":1124:1127   */\n      dup3\n        /* \"#utility.yul\":1120:1147   */\n      add\n        /* \"#utility.yul\":1117:1153   */\n      gt\n        /* \"#utility.yul\":1114:1257   */\n      iszero\n      tag_206\n      jumpi\n        /* \"#utility.yul\":1168:1247   */\n      tag_207\n      tag_195\n      jump\t// in\n    tag_207:\n        /* \"#utility.yul\":1114:1257   */\n    tag_206:\n        /* \"#utility.yul\":1281:1282   */\n      0x00\n        /* \"#utility.yul\":1266:1719   */\n    tag_208:\n        /* \"#utility.yul\":1291:1297   */\n      dup6\n        /* \"#utility.yul\":1288:1289   */\n      dup2\n        /* \"#utility.yul\":1285:1298   */\n      lt\n        /* \"#utility.yul\":1266:1719   */\n      iszero\n      tag_210\n      jumpi\n        /* \"#utility.yul\":1373:1376   */\n      dup2\n        /* \"#utility.yul\":1360:1377   */\n      calldataload\n        /* \"#utility.yul\":1409:1427   */\n      0xffffffffffffffff\n        /* \"#utility.yul\":1396:1407   */\n      dup2\n        /* \"#utility.yul\":1393:1428   */\n      gt\n        /* \"#utility.yul\":1390:1512   */\n      iszero\n      tag_211\n      jumpi\n        /* \"#utility.yul\":1431:1510   */\n      tag_212\n      tag_213\n      jump\t// in\n    tag_212:\n        /* \"#utility.yul\":1390:1512   */\n    tag_211:\n        /* \"#utility.yul\":1555:1566   */\n      dup1\n        /* \"#utility.yul\":1547:1553   */\n      dup7\n        /* \"#utility.yul\":1543:1567   */\n      add\n        /* \"#utility.yul\":1593:1640   */\n      tag_214\n        /* \"#utility.yul\":1636:1639   */\n      dup10\n        /* \"#utility.yul\":1624:1634   */\n      dup3\n        /* \"#utility.yul\":1593:1640   */\n      tag_215\n      jump\t// in\n    tag_214:\n        /* \"#utility.yul\":1588:1591   */\n      dup6\n        /* \"#utility.yul\":1581:1641   */\n      mstore\n        /* \"#utility.yul\":1670:1674   */\n      0x20\n        /* \"#utility.yul\":1665:1668   */\n      dup6\n        /* \"#utility.yul\":1661:1675   */\n      add\n        /* \"#utility.yul\":1654:1675   */\n      swap5\n      pop\n        /* \"#utility.yul\":1704:1708   */\n      0x20\n        /* \"#utility.yul\":1699:1702   */\n      dup5\n        /* \"#utility.yul\":1695:1709   */\n      add\n        /* \"#utility.yul\":1688:1709   */\n      swap4\n      pop\n        /* \"#utility.yul\":1326:1719   */\n      pop\n      pop\n        /* \"#utility.yul\":1313:1314   */\n      0x01\n        /* \"#utility.yul\":1310:1311   */\n      dup2\n        /* \"#utility.yul\":1306:1315   */\n      add\n        /* \"#utility.yul\":1301:1315   */\n      swap1\n      pop\n        /* \"#utility.yul\":1266:1719   */\n      jump(tag_208)\n    tag_210:\n        /* \"#utility.yul\":1270:1284   */\n      pop\n        /* \"#utility.yul\":880:1725   */\n      pop\n      pop\n        /* \"#utility.yul\":768:1725   */\n      swap4\n      swap3\n      pop\n      pop\n      pop\n      jump\t// out\n        /* \"#utility.yul\":1748:2470   */\n    tag_216:\n        /* \"#utility.yul\":1844:1849   */\n      0x00\n        /* \"#utility.yul\":1869:1950   */\n      tag_218\n        /* \"#utility.yul\":1885:1949   */\n      tag_219\n        /* \"#utility.yul\":1942:1948   */\n      dup5\n        /* \"#utility.yul\":1885:1949   */\n      tag_220\n      jump\t// in\n    tag_219:\n        /* \"#utility.yul\":1869:1950   */\n      tag_192\n      jump\t// in\n    tag_218:\n        /* \"#utility.yul\":1860:1950   */\n      swap1\n      pop\n        /* \"#utility.yul\":1970:1975   */\n      dup1\n        /* \"#utility.yul\":1999:2005   */\n      dup4\n        /* \"#utility.yul\":1992:1997   */\n      dup3\n        /* \"#utility.yul\":1985:2006   */\n      mstore\n        /* \"#utility.yul\":2033:2037   */\n      0x20\n        /* \"#utility.yul\":2026:2031   */\n      dup3\n        /* \"#utility.yul\":2022:2038   */\n      add\n        /* \"#utility.yul\":2015:2038   */\n      swap1\n      pop\n        /* \"#utility.yul\":2059:2065   */\n      dup3\n        /* \"#utility.yul\":2109:2112   */\n      dup6\n        /* \"#utility.yul\":2101:2105   */\n      0x20\n        /* \"#utility.yul\":2093:2099   */\n      dup7\n        /* \"#utility.yul\":2089:2106   */\n      mul\n        /* \"#utility.yul\":2084:2087   */\n      dup3\n        /* \"#utility.yul\":2080:2107   */\n      add\n        /* \"#utility.yul\":2077:2113   */\n      gt\n        /* \"#utility.yul\":2074:2217   */\n      iszero\n      tag_221\n      jumpi\n        /* \"#utility.yul\":2128:2207   */\n      tag_222\n      tag_195\n      jump\t// in\n    tag_222:\n        /* \"#utility.yul\":2074:2217   */\n    tag_221:\n        /* \"#utility.yul\":2241:2242   */\n      0x00\n        /* \"#utility.yul\":2226:2464   */\n    tag_223:\n        /* \"#utility.yul\":2251:2257   */\n      dup6\n        /* \"#utility.yul\":2248:2249   */\n      dup2\n        /* \"#utility.yul\":2245:2258   */\n      lt\n        /* \"#utility.yul\":2226:2464   */\n      iszero\n      tag_225\n      jumpi\n        /* \"#utility.yul\":2319:2322   */\n      dup2\n        /* \"#utility.yul\":2348:2385   */\n      tag_226\n        /* \"#utility.yul\":2381:2384   */\n      dup9\n        /* \"#utility.yul\":2369:2379   */\n      dup3\n        /* \"#utility.yul\":2348:2385   */\n      tag_227\n      jump\t// in\n    tag_226:\n        /* \"#utility.yul\":2343:2346   */\n      dup5\n        /* \"#utility.yul\":2336:2386   */\n      mstore\n        /* \"#utility.yul\":2415:2419   */\n      0x20\n        /* \"#utility.yul\":2410:2413   */\n      dup5\n        /* \"#utility.yul\":2406:2420   */\n      add\n        /* \"#utility.yul\":2399:2420   */\n      swap4\n      pop\n        /* \"#utility.yul\":2449:2453   */\n      0x20\n        /* \"#utility.yul\":2444:2447   */\n      dup4\n        /* \"#utility.yul\":2440:2454   */\n      add\n        /* \"#utility.yul\":2433:2454   */\n      swap3\n      pop\n        /* \"#utility.yul\":2286:2464   */\n      pop\n        /* \"#utility.yul\":2273:2274   */\n      0x01\n        /* \"#utility.yul\":2270:2271   */\n      dup2\n        /* \"#utility.yul\":2266:2275   */\n      add\n        /* \"#utility.yul\":2261:2275   */\n      swap1\n      pop\n        /* \"#utility.yul\":2226:2464   */\n      jump(tag_223)\n    tag_225:\n        /* \"#utility.yul\":2230:2244   */\n      pop\n        /* \"#utility.yul\":1850:2470   */\n      pop\n      pop\n        /* \"#utility.yul\":1748:2470   */\n      swap4\n      swap3\n      pop\n      pop\n      pop\n      jump\t// out\n        /* \"#utility.yul\":2476:2888   */\n    tag_228:\n        /* \"#utility.yul\":2554:2559   */\n      0x00\n        /* \"#utility.yul\":2579:2645   */\n      tag_230\n        /* \"#utility.yul\":2595:2644   */\n      tag_231\n        /* \"#utility.yul\":2637:2643   */\n      dup5\n        /* \"#utility.yul\":2595:2644   */\n      tag_232\n      jump\t// in\n    tag_231:\n        /* \"#utility.yul\":2579:2645   */\n      tag_192\n      jump\t// in\n    tag_230:\n        /* \"#utility.yul\":2570:2645   */\n      swap1\n      pop\n        /* \"#utility.yul\":2668:2674   */\n      dup3\n        /* \"#utility.yul\":2661:2666   */\n      dup2\n        /* \"#utility.yul\":2654:2675   */\n      mstore\n        /* \"#utility.yul\":2706:2710   */\n      0x20\n        /* \"#utility.yul\":2699:2704   */\n      dup2\n        /* \"#utility.yul\":2695:2711   */\n      add\n        /* \"#utility.yul\":2744:2747   */\n      dup5\n        /* \"#utility.yul\":2735:2741   */\n      dup5\n        /* \"#utility.yul\":2730:2733   */\n      dup5\n        /* \"#utility.yul\":2726:2742   */\n      add\n        /* \"#utility.yul\":2723:2748   */\n      gt\n        /* \"#utility.yul\":2720:2832   */\n      iszero\n      tag_233\n      jumpi\n        /* \"#utility.yul\":2751:2830   */\n      tag_234\n      tag_235\n      jump\t// in\n    tag_234:\n        /* \"#utility.yul\":2720:2832   */\n    tag_233:\n        /* \"#utility.yul\":2841:2882   */\n      tag_236\n        /* \"#utility.yul\":2875:2881   */\n      dup5\n        /* \"#utility.yul\":2870:2873   */\n      dup3\n        /* \"#utility.yul\":2865:2868   */\n      dup6\n        /* \"#utility.yul\":2841:2882   */\n      tag_237\n      jump\t// in\n    tag_236:\n        /* \"#utility.yul\":2560:2888   */\n      pop\n        /* \"#utility.yul\":2476:2888   */\n      swap4\n      swap3\n      pop\n      pop\n      pop\n      jump\t// out\n        /* \"#utility.yul\":2894:3033   */\n    tag_200:\n        /* \"#utility.yul\":2940:2945   */\n      0x00\n        /* \"#utility.yul\":2978:2984   */\n      dup2\n        /* \"#utility.yul\":2965:2985   */\n      calldataload\n        /* \"#utility.yul\":2956:2985   */\n      swap1\n      pop\n        /* \"#utility.yul\":2994:3027   */\n      tag_239\n        /* \"#utility.yul\":3021:3026   */\n      dup2\n        /* \"#utility.yul\":2994:3027   */\n      tag_240\n      jump\t// in\n    tag_239:\n        /* \"#utility.yul\":2894:3033   */\n      swap3\n      swap2\n      pop\n      pop\n      jump\t// out\n        /* \"#utility.yul\":3056:3426   */\n    tag_241:\n        /* \"#utility.yul\":3127:3132   */\n      0x00\n        /* \"#utility.yul\":3176:3179   */\n      dup3\n        /* \"#utility.yul\":3169:3173   */\n      0x1f\n        /* \"#utility.yul\":3161:3167   */\n      dup4\n        /* \"#utility.yul\":3157:3174   */\n      add\n        /* \"#utility.yul\":3153:3180   */\n      slt\n        /* \"#utility.yul\":3143:3265   */\n      tag_243\n      jumpi\n        /* \"#utility.yul\":3184:3263   */\n      tag_244\n      tag_213\n      jump\t// in\n    tag_244:\n        /* \"#utility.yul\":3143:3265   */\n    tag_243:\n        /* \"#utility.yul\":3301:3307   */\n      dup2\n        /* \"#utility.yul\":3288:3308   */\n      calldataload\n        /* \"#utility.yul\":3326:3420   */\n      tag_245\n        /* \"#utility.yul\":3416:3419   */\n      dup5\n        /* \"#utility.yul\":3408:3414   */\n      dup3\n        /* \"#utility.yul\":3401:3405   */\n      0x20\n        /* \"#utility.yul\":3393:3399   */\n      dup7\n        /* \"#utility.yul\":3389:3406   */\n      add\n        /* \"#utility.yul\":3326:3420   */\n      tag_187\n      jump\t// in\n    tag_245:\n        /* \"#utility.yul\":3317:3420   */\n      swap2\n      pop\n        /* \"#utility.yul\":3133:3426   */\n      pop\n        /* \"#utility.yul\":3056:3426   */\n      swap3\n      swap2\n      pop\n      pop\n      jump\t// out\n        /* \"#utility.yul\":3448:3838   */\n    tag_246:\n        /* \"#utility.yul\":3529:3534   */\n      0x00\n        /* \"#utility.yul\":3578:3581   */\n      dup3\n        /* \"#utility.yul\":3571:3575   */\n      0x1f\n        /* \"#utility.yul\":3563:3569   */\n      dup4\n        /* \"#utility.yul\":3559:3576   */\n      add\n        /* \"#utility.yul\":3555:3582   */\n      slt\n        /* \"#utility.yul\":3545:3667   */\n      tag_248\n      jumpi\n        /* \"#utility.yul\":3586:3665   */\n      tag_249\n      tag_213\n      jump\t// in\n    tag_249:\n        /* \"#utility.yul\":3545:3667   */\n    tag_248:\n        /* \"#utility.yul\":3703:3709   */\n      dup2\n        /* \"#utility.yul\":3690:3710   */\n      calldataload\n        /* \"#utility.yul\":3728:3832   */\n      tag_250\n        /* \"#utility.yul\":3828:3831   */\n      dup5\n        /* \"#utility.yul\":3820:3826   */\n      dup3\n        /* \"#utility.yul\":3813:3817   */\n      0x20\n        /* \"#utility.yul\":3805:3811   */\n      dup7\n        /* \"#utility.yul\":3801:3818   */\n      add\n        /* \"#utility.yul\":3728:3832   */\n      tag_201\n      jump\t// in\n    tag_250:\n        /* \"#utility.yul\":3719:3832   */\n      swap2\n      pop\n        /* \"#utility.yul\":3535:3838   */\n      pop\n        /* \"#utility.yul\":3448:3838   */\n      swap3\n      swap2\n      pop\n      pop\n      jump\t// out\n        /* \"#utility.yul\":3861:4231   */\n    tag_251:\n        /* \"#utility.yul\":3932:3937   */\n      0x00\n        /* \"#utility.yul\":3981:3984   */\n      dup3\n        /* \"#utility.yul\":3974:3978   */\n      0x1f\n        /* \"#utility.yul\":3966:3972   */\n      dup4\n        /* \"#utility.yul\":3962:3979   */\n      add\n        /* \"#utility.yul\":3958:3985   */\n      slt\n        /* \"#utility.yul\":3948:4070   */\n      tag_253\n      jumpi\n        /* \"#utility.yul\":3989:4068   */\n      tag_254\n      tag_213\n      jump\t// in\n    tag_254:\n        /* \"#utility.yul\":3948:4070   */\n    tag_253:\n        /* \"#utility.yul\":4106:4112   */\n      dup2\n        /* \"#utility.yul\":4093:4113   */\n      calldataload\n        /* \"#utility.yul\":4131:4225   */\n      tag_255\n        /* \"#utility.yul\":4221:4224   */\n      dup5\n        /* \"#utility.yul\":4213:4219   */\n      dup3\n        /* \"#utility.yul\":4206:4210   */\n      0x20\n        /* \"#utility.yul\":4198:4204   */\n      dup7\n        /* \"#utility.yul\":4194:4211   */\n      add\n        /* \"#utility.yul\":4131:4225   */\n      tag_216\n      jump\t// in\n    tag_255:\n        /* \"#utility.yul\":4122:4225   */\n      swap2\n      pop\n        /* \"#utility.yul\":3938:4231   */\n      pop\n        /* \"#utility.yul\":3861:4231   */\n      swap3\n      swap2\n      pop\n      pop\n      jump\t// out\n        /* \"#utility.yul\":4251:4591   */\n    tag_215:\n        /* \"#utility.yul\":4307:4312   */\n      0x00\n        /* \"#utility.yul\":4356:4359   */\n      dup3\n        /* \"#utility.yul\":4349:4353   */\n      0x1f\n        /* \"#utility.yul\":4341:4347   */\n      dup4\n        /* \"#utility.yul\":4337:4354   */\n      add\n        /* \"#utility.yul\":4333:4360   */\n      slt\n        /* \"#utility.yul\":4323:4445   */\n      tag_257\n      jumpi\n        /* \"#utility.yul\":4364:4443   */\n      tag_258\n      tag_213\n      jump\t// in\n    tag_258:\n        /* \"#utility.yul\":4323:4445   */\n    tag_257:\n        /* \"#utility.yul\":4481:4487   */\n      dup2\n        /* \"#utility.yul\":4468:4488   */\n      calldataload\n        /* \"#utility.yul\":4506:4585   */\n      tag_259\n        /* \"#utility.yul\":4581:4584   */\n      dup5\n        /* \"#utility.yul\":4573:4579   */\n      dup3\n        /* \"#utility.yul\":4566:4570   */\n      0x20\n        /* \"#utility.yul\":4558:4564   */\n      dup7\n        /* \"#utility.yul\":4554:4571   */\n      add\n        /* \"#utility.yul\":4506:4585   */\n      tag_228\n      jump\t// in\n    tag_259:\n        /* \"#utility.yul\":4497:4585   */\n      swap2\n      pop\n        /* \"#utility.yul\":4313:4591   */\n      pop\n        /* \"#utility.yul\":4251:4591   */\n      swap3\n      swap2\n      pop\n      pop\n      jump\t// out\n        /* \"#utility.yul\":4597:4736   */\n    tag_227:\n        /* \"#utility.yul\":4643:4648   */\n      0x00\n        /* \"#utility.yul\":4681:4687   */\n      dup2\n        /* \"#utility.yul\":4668:4688   */\n      calldataload\n        /* \"#utility.yul\":4659:4688   */\n      swap1\n      pop\n        /* \"#utility.yul\":4697:4730   */\n      tag_261\n        /* \"#utility.yul\":4724:4729   */\n      dup2\n        /* \"#utility.yul\":4697:4730   */\n      tag_262\n      jump\t// in\n    tag_261:\n        /* \"#utility.yul\":4597:4736   */\n      swap3\n      swap2\n      pop\n      pop\n      jump\t// out\n        /* \"#utility.yul\":4742:5216   */\n    tag_57:\n        /* \"#utility.yul\":4810:4816   */\n      0x00\n        /* \"#utility.yul\":4818:4824   */\n      dup1\n        /* \"#utility.yul\":4867:4869   */\n      0x40\n        /* \"#utility.yul\":4855:4864   */\n      dup4\n        /* \"#utility.yul\":4846:4853   */\n      dup6\n        /* \"#utility.yul\":4842:4865   */\n      sub\n        /* \"#utility.yul\":4838:4870   */\n      slt\n        /* \"#utility.yul\":4835:4954   */\n      iszero\n      tag_264\n      jumpi\n        /* \"#utility.yul\":4873:4952   */\n      tag_265\n      tag_266\n      jump\t// in\n    tag_265:\n        /* \"#utility.yul\":4835:4954   */\n    tag_264:\n        /* \"#utility.yul\":4993:4994   */\n      0x00\n        /* \"#utility.yul\":5018:5071   */\n      tag_267\n        /* \"#utility.yul\":5063:5070   */\n      dup6\n        /* \"#utility.yul\":5054:5060   */\n      dup3\n        /* \"#utility.yul\":5043:5052   */\n      dup7\n        /* \"#utility.yul\":5039:5061   */\n      add\n        /* \"#utility.yul\":5018:5071   */\n      tag_200\n      jump\t// in\n    tag_267:\n        /* \"#utility.yul\":5008:5071   */\n      swap3\n      pop\n        /* \"#utility.yul\":4964:5081   */\n      pop\n        /* \"#utility.yul\":5120:5122   */\n      0x20\n        /* \"#utility.yul\":5146:5199   */\n      tag_268\n        /* \"#utility.yul\":5191:5198   */\n      dup6\n        /* \"#utility.yul\":5182:5188   */\n      dup3\n        /* \"#utility.yul\":5171:5180   */\n      dup7\n        /* \"#utility.yul\":5167:5189   */\n      add\n        /* \"#utility.yul\":5146:5199   */\n      tag_227\n      jump\t// in\n    tag_268:\n        /* \"#utility.yul\":5136:5199   */\n      swap2\n      pop\n        /* \"#utility.yul\":5091:5209   */\n      pop\n        /* \"#utility.yul\":4742:5216   */\n      swap3\n      pop\n      swap3\n      swap1\n      pop\n      jump\t// out\n        /* \"#utility.yul\":5222:6261   */\n    tag_44:\n        /* \"#utility.yul\":5349:5355   */\n      0x00\n        /* \"#utility.yul\":5357:5363   */\n      dup1\n        /* \"#utility.yul\":5365:5371   */\n      0x00\n        /* \"#utility.yul\":5414:5416   */\n      0x60\n        /* \"#utility.yul\":5402:5411   */\n      dup5\n        /* \"#utility.yul\":5393:5400   */\n      dup7\n        /* \"#utility.yul\":5389:5412   */\n      sub\n        /* \"#utility.yul\":5385:5417   */\n      slt\n        /* \"#utility.yul\":5382:5501   */\n      iszero\n      tag_270\n      jumpi\n        /* \"#utility.yul\":5420:5499   */\n      tag_271\n      tag_266\n      jump\t// in\n    tag_271:\n        /* \"#utility.yul\":5382:5501   */\n    tag_270:\n        /* \"#utility.yul\":5568:5569   */\n      0x00\n        /* \"#utility.yul\":5557:5566   */\n      dup5\n        /* \"#utility.yul\":5553:5570   */\n      add\n        /* \"#utility.yul\":5540:5571   */\n      calldataload\n        /* \"#utility.yul\":5598:5616   */\n      0xffffffffffffffff\n        /* \"#utility.yul\":5590:5596   */\n      dup2\n        /* \"#utility.yul\":5587:5617   */\n      gt\n        /* \"#utility.yul\":5584:5701   */\n      iszero\n      tag_272\n      jumpi\n        /* \"#utility.yul\":5620:5699   */\n      tag_273\n      tag_274\n      jump\t// in\n    tag_273:\n        /* \"#utility.yul\":5584:5701   */\n    tag_272:\n        /* \"#utility.yul\":5725:5803   */\n      tag_275\n        /* \"#utility.yul\":5795:5802   */\n      dup7\n        /* \"#utility.yul\":5786:5792   */\n      dup3\n        /* \"#utility.yul\":5775:5784   */\n      dup8\n        /* \"#utility.yul\":5771:5793   */\n      add\n        /* \"#utility.yul\":5725:5803   */\n      tag_241\n      jump\t// in\n    tag_275:\n        /* \"#utility.yul\":5715:5803   */\n      swap4\n      pop\n        /* \"#utility.yul\":5511:5813   */\n      pop\n        /* \"#utility.yul\":5880:5882   */\n      0x20\n        /* \"#utility.yul\":5869:5878   */\n      dup5\n        /* \"#utility.yul\":5865:5883   */\n      add\n        /* \"#utility.yul\":5852:5884   */\n      calldataload\n        /* \"#utility.yul\":5911:5929   */\n      0xffffffffffffffff\n        /* \"#utility.yul\":5903:5909   */\n      dup2\n        /* \"#utility.yul\":5900:5930   */\n      gt\n        /* \"#utility.yul\":5897:6014   */\n      iszero\n      tag_276\n      jumpi\n        /* \"#utility.yul\":5933:6012   */\n      tag_277\n      tag_274\n      jump\t// in\n    tag_277:\n        /* \"#utility.yul\":5897:6014   */\n    tag_276:\n        /* \"#utility.yul\":6038:6116   */\n      tag_278\n        /* \"#utility.yul\":6108:6115   */\n      dup7\n        /* \"#utility.yul\":6099:6105   */\n      dup3\n        /* \"#utility.yul\":6088:6097   */\n      dup8\n        /* \"#utility.yul\":6084:6106   */\n      add\n        /* \"#utility.yul\":6038:6116   */\n      tag_251\n      jump\t// in\n    tag_278:\n        /* \"#utility.yul\":6028:6116   */\n      swap3\n      pop\n        /* \"#utility.yul\":5823:6126   */\n      pop\n        /* \"#utility.yul\":6165:6167   */\n      0x40\n        /* \"#utility.yul\":6191:6244   */\n      tag_279\n        /* \"#utility.yul\":6236:6243   */\n      dup7\n        /* \"#utility.yul\":6227:6233   */\n      dup3\n        /* \"#utility.yul\":6216:6225   */\n      dup8\n        /* \"#utility.yul\":6212:6234   */\n      add\n        /* \"#utility.yul\":6191:6244   */\n      tag_227\n      jump\t// in\n    tag_279:\n        /* \"#utility.yul\":6181:6244   */\n      swap2\n      pop\n        /* \"#utility.yul\":6136:6254   */\n      pop\n        /* \"#utility.yul\":5222:6261   */\n      swap3\n      pop\n      swap3\n      pop\n      swap3\n      jump\t// out\n        /* \"#utility.yul\":6267:7422   */\n    tag_21:\n        /* \"#utility.yul\":6388:6394   */\n      0x00\n        /* \"#utility.yul\":6396:6402   */\n      dup1\n        /* \"#utility.yul\":6404:6410   */\n      0x00\n        /* \"#utility.yul\":6412:6418   */\n      dup1\n        /* \"#utility.yul\":6461:6464   */\n      0x80\n        /* \"#utility.yul\":6449:6458   */\n      dup6\n        /* \"#utility.yul\":6440:6447   */\n      dup8\n        /* \"#utility.yul\":6436:6459   */\n      sub\n        /* \"#utility.yul\":6432:6465   */\n      slt\n        /* \"#utility.yul\":6429:6549   */\n      iszero\n      tag_281\n      jumpi\n        /* \"#utility.yul\":6468:6547   */\n      tag_282\n      tag_266\n      jump\t// in\n    tag_282:\n        /* \"#utility.yul\":6429:6549   */\n    tag_281:\n        /* \"#utility.yul\":6616:6617   */\n      0x00\n        /* \"#utility.yul\":6605:6614   */\n      dup6\n        /* \"#utility.yul\":6601:6618   */\n      add\n        /* \"#utility.yul\":6588:6619   */\n      calldataload\n        /* \"#utility.yul\":6646:6664   */\n      0xffffffffffffffff\n        /* \"#utility.yul\":6638:6644   */\n      dup2\n        /* \"#utility.yul\":6635:6665   */\n      gt\n        /* \"#utility.yul\":6632:6749   */\n      iszero\n      tag_283\n      jumpi\n        /* \"#utility.yul\":6668:6747   */\n      tag_284\n      tag_274\n      jump\t// in\n    tag_284:\n        /* \"#utility.yul\":6632:6749   */\n    tag_283:\n        /* \"#utility.yul\":6773:6836   */\n      tag_285\n        /* \"#utility.yul\":6828:6835   */\n      dup8\n        /* \"#utility.yul\":6819:6825   */\n      dup3\n        /* \"#utility.yul\":6808:6817   */\n      dup9\n        /* \"#utility.yul\":6804:6826   */\n      add\n        /* \"#utility.yul\":6773:6836   */\n      tag_215\n      jump\t// in\n    tag_285:\n        /* \"#utility.yul\":6763:6836   */\n      swap5\n      pop\n        /* \"#utility.yul\":6559:6846   */\n      pop\n        /* \"#utility.yul\":6885:6887   */\n      0x20\n        /* \"#utility.yul\":6911:6964   */\n      tag_286\n        /* \"#utility.yul\":6956:6963   */\n      dup8\n        /* \"#utility.yul\":6947:6953   */\n      dup3\n        /* \"#utility.yul\":6936:6945   */\n      dup9\n        /* \"#utility.yul\":6932:6954   */\n      add\n        /* \"#utility.yul\":6911:6964   */\n      tag_227\n      jump\t// in\n    tag_286:\n        /* \"#utility.yul\":6901:6964   */\n      swap4\n      pop\n        /* \"#utility.yul\":6856:6974   */\n      pop\n        /* \"#utility.yul\":7041:7043   */\n      0x40\n        /* \"#utility.yul\":7030:7039   */\n      dup6\n        /* \"#utility.yul\":7026:7044   */\n      add\n        /* \"#utility.yul\":7013:7045   */\n      calldataload\n        /* \"#utility.yul\":7072:7090   */\n      0xffffffffffffffff\n        /* \"#utility.yul\":7064:7070   */\n      dup2\n        /* \"#utility.yul\":7061:7091   */\n      gt\n        /* \"#utility.yul\":7058:7175   */\n      iszero\n      tag_287\n      jumpi\n        /* \"#utility.yul\":7094:7173   */\n      tag_288\n      tag_274\n      jump\t// in\n    tag_288:\n        /* \"#utility.yul\":7058:7175   */\n    tag_287:\n        /* \"#utility.yul\":7199:7277   */\n      tag_289\n        /* \"#utility.yul\":7269:7276   */\n      dup8\n        /* \"#utility.yul\":7260:7266   */\n      dup3\n        /* \"#utility.yul\":7249:7258   */\n      dup9\n        /* \"#utility.yul\":7245:7267   */\n      add\n        /* \"#utility.yul\":7199:7277   */\n      tag_241\n      jump\t// in\n    tag_289:\n        /* \"#utility.yul\":7189:7277   */\n      swap3\n      pop\n        /* \"#utility.yul\":6984:7287   */\n      pop\n        /* \"#utility.yul\":7326:7328   */\n      0x60\n        /* \"#utility.yul\":7352:7405   */\n      tag_290\n        /* \"#utility.yul\":7397:7404   */\n      dup8\n        /* \"#utility.yul\":7388:7394   */\n      dup3\n        /* \"#utility.yul\":7377:7386   */\n      dup9\n        /* \"#utility.yul\":7373:7395   */\n      add\n        /* \"#utility.yul\":7352:7405   */\n      tag_227\n      jump\t// in\n    tag_290:\n        /* \"#utility.yul\":7342:7405   */\n      swap2\n      pop\n        /* \"#utility.yul\":7297:7415   */\n      pop\n        /* \"#utility.yul\":6267:7422   */\n      swap3\n      swap6\n      swap2\n      swap5\n      pop\n      swap3\n      pop\n      jump\t// out\n        /* \"#utility.yul\":7428:8227   */\n    tag_48:\n        /* \"#utility.yul\":7515:7521   */\n      0x00\n        /* \"#utility.yul\":7523:7529   */\n      dup1\n        /* \"#utility.yul\":7531:7537   */\n      0x00\n        /* \"#utility.yul\":7580:7582   */\n      0x60\n        /* \"#utility.yul\":7568:7577   */\n      dup5\n        /* \"#utility.yul\":7559:7566   */\n      dup7\n        /* \"#utility.yul\":7555:7578   */\n      sub\n        /* \"#utility.yul\":7551:7583   */\n      slt\n        /* \"#utility.yul\":7548:7667   */\n      iszero\n      tag_292\n      jumpi\n        /* \"#utility.yul\":7586:7665   */\n      tag_293\n      tag_266\n      jump\t// in\n    tag_293:\n        /* \"#utility.yul\":7548:7667   */\n    tag_292:\n        /* \"#utility.yul\":7734:7735   */\n      0x00\n        /* \"#utility.yul\":7723:7732   */\n      dup5\n        /* \"#utility.yul\":7719:7736   */\n      add\n        /* \"#utility.yul\":7706:7737   */\n      calldataload\n        /* \"#utility.yul\":7764:7782   */\n      0xffffffffffffffff\n        /* \"#utility.yul\":7756:7762   */\n      dup2\n        /* \"#utility.yul\":7753:7783   */\n      gt\n        /* \"#utility.yul\":7750:7867   */\n      iszero\n      tag_294\n      jumpi\n        /* \"#utility.yul\":7786:7865   */\n      tag_295\n      tag_274\n      jump\t// in\n    tag_295:\n        /* \"#utility.yul\":7750:7867   */\n    tag_294:\n        /* \"#utility.yul\":7891:7954   */\n      tag_296\n        /* \"#utility.yul\":7946:7953   */\n      dup7\n        /* \"#utility.yul\":7937:7943   */\n      dup3\n        /* \"#utility.yul\":7926:7935   */\n      dup8\n        /* \"#utility.yul\":7922:7944   */\n      add\n        /* \"#utility.yul\":7891:7954   */\n      tag_215\n      jump\t// in\n    tag_296:\n        /* \"#utility.yul\":7881:7954   */\n      swap4\n      pop\n        /* \"#utility.yul\":7677:7964   */\n      pop\n        /* \"#utility.yul\":8003:8005   */\n      0x20\n        /* \"#utility.yul\":8029:8082   */\n      tag_297\n        /* \"#utility.yul\":8074:8081   */\n      dup7\n        /* \"#utility.yul\":8065:8071   */\n      dup3\n        /* \"#utility.yul\":8054:8063   */\n      dup8\n        /* \"#utility.yul\":8050:8072   */\n      add\n        /* \"#utility.yul\":8029:8082   */\n      tag_227\n      jump\t// in\n    tag_297:\n        /* \"#utility.yul\":8019:8082   */\n      swap3\n      pop\n        /* \"#utility.yul\":7974:8092   */\n      pop\n        /* \"#utility.yul\":8131:8133   */\n      0x40\n        /* \"#utility.yul\":8157:8210   */\n      tag_298\n        /* \"#utility.yul\":8202:8209   */\n      dup7\n        /* \"#utility.yul\":8193:8199   */\n      dup3\n        /* \"#utility.yul\":8182:8191   */\n      dup8\n        /* \"#utility.yul\":8178:8200   */\n      add\n        /* \"#utility.yul\":8157:8210   */\n      tag_227\n      jump\t// in\n    tag_298:\n        /* \"#utility.yul\":8147:8210   */\n      swap2\n      pop\n        /* \"#utility.yul\":8102:8220   */\n      pop\n        /* \"#utility.yul\":7428:8227   */\n      swap3\n      pop\n      swap3\n      pop\n      swap3\n      jump\t// out\n        /* \"#utility.yul\":8233:8562   */\n    tag_27:\n        /* \"#utility.yul\":8292:8298   */\n      0x00\n        /* \"#utility.yul\":8341:8343   */\n      0x20\n        /* \"#utility.yul\":8329:8338   */\n      dup3\n        /* \"#utility.yul\":8320:8327   */\n      dup5\n        /* \"#utility.yul\":8316:8339   */\n      sub\n        /* \"#utility.yul\":8312:8344   */\n      slt\n        /* \"#utility.yul\":8309:8428   */\n      iszero\n      tag_300\n      jumpi\n        /* \"#utility.yul\":8347:8426   */\n      tag_301\n      tag_266\n      jump\t// in\n    tag_301:\n        /* \"#utility.yul\":8309:8428   */\n    tag_300:\n        /* \"#utility.yul\":8467:8468   */\n      0x00\n        /* \"#utility.yul\":8492:8545   */\n      tag_302\n        /* \"#utility.yul\":8537:8544   */\n      dup5\n        /* \"#utility.yul\":8528:8534   */\n      dup3\n        /* \"#utility.yul\":8517:8526   */\n      dup6\n        /* \"#utility.yul\":8513:8535   */\n      add\n        /* \"#utility.yul\":8492:8545   */\n      tag_227\n      jump\t// in\n    tag_302:\n        /* \"#utility.yul\":8482:8545   */\n      swap2\n      pop\n        /* \"#utility.yul\":8438:8555   */\n      pop\n        /* \"#utility.yul\":8233:8562   */\n      swap3\n      swap2\n      pop\n      pop\n      jump\t// out\n        /* \"#utility.yul\":8568:9417   */\n    tag_31:\n        /* \"#utility.yul\":8680:8686   */\n      0x00\n        /* \"#utility.yul\":8688:8694   */\n      dup1\n        /* \"#utility.yul\":8696:8702   */\n      0x00\n        /* \"#utility.yul\":8745:8747   */\n      0x60\n        /* \"#utility.yul\":8733:8742   */\n      dup5\n        /* \"#utility.yul\":8724:8731   */\n      dup7\n        /* \"#utility.yul\":8720:8743   */\n      sub\n        /* \"#utility.yul\":8716:8748   */\n      slt\n        /* \"#utility.yul\":8713:8832   */\n      iszero\n      tag_304\n      jumpi\n        /* \"#utility.yul\":8751:8830   */\n      tag_305\n      tag_266\n      jump\t// in\n    tag_305:\n        /* \"#utility.yul\":8713:8832   */\n    tag_304:\n        /* \"#utility.yul\":8871:8872   */\n      0x00\n        /* \"#utility.yul\":8896:8949   */\n      tag_306\n        /* \"#utility.yul\":8941:8948   */\n      dup7\n        /* \"#utility.yul\":8932:8938   */\n      dup3\n        /* \"#utility.yul\":8921:8930   */\n      dup8\n        /* \"#utility.yul\":8917:8939   */\n      add\n        /* \"#utility.yul\":8896:8949   */\n      tag_227\n      jump\t// in\n    tag_306:\n        /* \"#utility.yul\":8886:8949   */\n      swap4\n      pop\n        /* \"#utility.yul\":8842:8959   */\n      pop\n        /* \"#utility.yul\":9026:9028   */\n      0x20\n        /* \"#utility.yul\":9015:9024   */\n      dup5\n        /* \"#utility.yul\":9011:9029   */\n      add\n        /* \"#utility.yul\":8998:9030   */\n      calldataload\n        /* \"#utility.yul\":9057:9075   */\n      0xffffffffffffffff\n        /* \"#utility.yul\":9049:9055   */\n      dup2\n        /* \"#utility.yul\":9046:9076   */\n      gt\n        /* \"#utility.yul\":9043:9160   */\n      iszero\n      tag_307\n      jumpi\n        /* \"#utility.yul\":9079:9158   */\n      tag_308\n      tag_274\n      jump\t// in\n    tag_308:\n        /* \"#utility.yul\":9043:9160   */\n    tag_307:\n        /* \"#utility.yul\":9184:9272   */\n      tag_309\n        /* \"#utility.yul\":9264:9271   */\n      dup7\n        /* \"#utility.yul\":9255:9261   */\n      dup3\n        /* \"#utility.yul\":9244:9253   */\n      dup8\n        /* \"#utility.yul\":9240:9262   */\n      add\n        /* \"#utility.yul\":9184:9272   */\n      tag_246\n      jump\t// in\n    tag_309:\n        /* \"#utility.yul\":9174:9272   */\n      swap3\n      pop\n        /* \"#utility.yul\":8969:9282   */\n      pop\n        /* \"#utility.yul\":9321:9323   */\n      0x40\n        /* \"#utility.yul\":9347:9400   */\n      tag_310\n        /* \"#utility.yul\":9392:9399   */\n      dup7\n        /* \"#utility.yul\":9383:9389   */\n      dup3\n        /* \"#utility.yul\":9372:9381   */\n      dup8\n        /* \"#utility.yul\":9368:9390   */\n      add\n        /* \"#utility.yul\":9347:9400   */\n      tag_200\n      jump\t// in\n    tag_310:\n        /* \"#utility.yul\":9337:9400   */\n      swap2\n      pop\n        /* \"#utility.yul\":9292:9410   */\n      pop\n        /* \"#utility.yul\":8568:9417   */\n      swap3\n      pop\n      swap3\n      pop\n      swap3\n      jump\t// out\n        /* \"#utility.yul\":9423:10077   */\n    tag_17:\n        /* \"#utility.yul\":9501:9507   */\n      0x00\n        /* \"#utility.yul\":9509:9515   */\n      dup1\n        /* \"#utility.yul\":9558:9560   */\n      0x40\n        /* \"#utility.yul\":9546:9555   */\n      dup4\n        /* \"#utility.yul\":9537:9544   */\n      dup6\n        /* \"#utility.yul\":9533:9556   */\n      sub\n        /* \"#utility.yul\":9529:9561   */\n      slt\n        /* \"#utility.yul\":9526:9645   */\n      iszero\n      tag_312\n      jumpi\n        /* \"#utility.yul\":9564:9643   */\n      tag_313\n      tag_266\n      jump\t// in\n    tag_313:\n        /* \"#utility.yul\":9526:9645   */\n    tag_312:\n        /* \"#utility.yul\":9684:9685   */\n      0x00\n        /* \"#utility.yul\":9709:9762   */\n      tag_314\n        /* \"#utility.yul\":9754:9761   */\n      dup6\n        /* \"#utility.yul\":9745:9751   */\n      dup3\n        /* \"#utility.yul\":9734:9743   */\n      dup7\n        /* \"#utility.yul\":9730:9752   */\n      add\n        /* \"#utility.yul\":9709:9762   */\n      tag_227\n      jump\t// in\n    tag_314:\n        /* \"#utility.yul\":9699:9762   */\n      swap3\n      pop\n        /* \"#utility.yul\":9655:9772   */\n      pop\n        /* \"#utility.yul\":9839:9841   */\n      0x20\n        /* \"#utility.yul\":9828:9837   */\n      dup4\n        /* \"#utility.yul\":9824:9842   */\n      add\n        /* \"#utility.yul\":9811:9843   */\n      calldataload\n        /* \"#utility.yul\":9870:9888   */\n      0xffffffffffffffff\n        /* \"#utility.yul\":9862:9868   */\n      dup2\n        /* \"#utility.yul\":9859:9889   */\n      gt\n        /* \"#utility.yul\":9856:9973   */\n      iszero\n      tag_315\n      jumpi\n        /* \"#utility.yul\":9892:9971   */\n      tag_316\n      tag_274\n      jump\t// in\n    tag_316:\n        /* \"#utility.yul\":9856:9973   */\n    tag_315:\n        /* \"#utility.yul\":9997:10060   */\n      tag_317\n        /* \"#utility.yul\":10052:10059   */\n      dup6\n        /* \"#utility.yul\":10043:10049   */\n      dup3\n        /* \"#utility.yul\":10032:10041   */\n      dup7\n        /* \"#utility.yul\":10028:10050   */\n      add\n        /* \"#utility.yul\":9997:10060   */\n      tag_215\n      jump\t// in\n    tag_317:\n        /* \"#utility.yul\":9987:10060   */\n      swap2\n      pop\n        /* \"#utility.yul\":9782:10070   */\n      pop\n        /* \"#utility.yul\":9423:10077   */\n      swap3\n      pop\n      swap3\n      swap1\n      pop\n      jump\t// out\n        /* \"#utility.yul\":10083:10201   */\n    tag_318:\n        /* \"#utility.yul\":10170:10194   */\n      tag_320\n        /* \"#utility.yul\":10188:10193   */\n      dup2\n        /* \"#utility.yul\":10170:10194   */\n      tag_321\n      jump\t// in\n    tag_320:\n        /* \"#utility.yul\":10165:10168   */\n      dup3\n        /* \"#utility.yul\":10158:10195   */\n      mstore\n        /* \"#utility.yul\":10083:10201   */\n      pop\n      pop\n      jump\t// out\n        /* \"#utility.yul\":10207:10316   */\n    tag_322:\n        /* \"#utility.yul\":10288:10309   */\n      tag_324\n        /* \"#utility.yul\":10303:10308   */\n      dup2\n        /* \"#utility.yul\":10288:10309   */\n      tag_325\n      jump\t// in\n    tag_324:\n        /* \"#utility.yul\":10283:10286   */\n      dup3\n        /* \"#utility.yul\":10276:10310   */\n      mstore\n        /* \"#utility.yul\":10207:10316   */\n      pop\n      pop\n      jump\t// out\n        /* \"#utility.yul\":10322:10686   */\n    tag_326:\n        /* \"#utility.yul\":10410:10413   */\n      0x00\n        /* \"#utility.yul\":10438:10477   */\n      tag_328\n        /* \"#utility.yul\":10471:10476   */\n      dup3\n        /* \"#utility.yul\":10438:10477   */\n      tag_329\n      jump\t// in\n    tag_328:\n        /* \"#utility.yul\":10493:10564   */\n      tag_330\n        /* \"#utility.yul\":10557:10563   */\n      dup2\n        /* \"#utility.yul\":10552:10555   */\n      dup6\n        /* \"#utility.yul\":10493:10564   */\n      tag_331\n      jump\t// in\n    tag_330:\n        /* \"#utility.yul\":10486:10564   */\n      swap4\n      pop\n        /* \"#utility.yul\":10573:10625   */\n      tag_332\n        /* \"#utility.yul\":10618:10624   */\n      dup2\n        /* \"#utility.yul\":10613:10616   */\n      dup6\n        /* \"#utility.yul\":10606:10610   */\n      0x20\n        /* \"#utility.yul\":10599:10604   */\n      dup7\n        /* \"#utility.yul\":10595:10611   */\n      add\n        /* \"#utility.yul\":10573:10625   */\n      tag_333\n      jump\t// in\n    tag_332:\n        /* \"#utility.yul\":10650:10679   */\n      tag_334\n        /* \"#utility.yul\":10672:10678   */\n      dup2\n        /* \"#utility.yul\":10650:10679   */\n      tag_335\n      jump\t// in\n    tag_334:\n        /* \"#utility.yul\":10645:10648   */\n      dup5\n        /* \"#utility.yul\":10641:10680   */\n      add\n        /* \"#utility.yul\":10634:10680   */\n      swap2\n      pop\n        /* \"#utility.yul\":10414:10686   */\n      pop\n        /* \"#utility.yul\":10322:10686   */\n      swap3\n      swap2\n      pop\n      pop\n      jump\t// out\n        /* \"#utility.yul\":10692:11057   */\n    tag_336:\n        /* \"#utility.yul\":10834:10837   */\n      0x00\n        /* \"#utility.yul\":10855:10921   */\n      tag_338\n        /* \"#utility.yul\":10919:10920   */\n      0x09\n        /* \"#utility.yul\":10914:10917   */\n      dup4\n        /* \"#utility.yul\":10855:10921   */\n      tag_331\n      jump\t// in\n    tag_338:\n        /* \"#utility.yul\":10848:10921   */\n      swap2\n      pop\n        /* \"#utility.yul\":10930:11023   */\n      tag_339\n        /* \"#utility.yul\":11019:11022   */\n      dup3\n        /* \"#utility.yul\":10930:11023   */\n      tag_340\n      jump\t// in\n    tag_339:\n        /* \"#utility.yul\":11048:11050   */\n      0x20\n        /* \"#utility.yul\":11043:11046   */\n      dup3\n        /* \"#utility.yul\":11039:11051   */\n      add\n        /* \"#utility.yul\":11032:11051   */\n      swap1\n      pop\n        /* \"#utility.yul\":10692:11057   */\n      swap2\n      swap1\n      pop\n      jump\t// out\n        /* \"#utility.yul\":11063:11429   */\n    tag_341:\n        /* \"#utility.yul\":11205:11208   */\n      0x00\n        /* \"#utility.yul\":11226:11293   */\n      tag_343\n        /* \"#utility.yul\":11290:11292   */\n      0x0c\n        /* \"#utility.yul\":11285:11288   */\n      dup4\n        /* \"#utility.yul\":11226:11293   */\n      tag_331\n      jump\t// in\n    tag_343:\n        /* \"#utility.yul\":11219:11293   */\n      swap2\n      pop\n        /* \"#utility.yul\":11302:11395   */\n      tag_344\n        /* \"#utility.yul\":11391:11394   */\n      dup3\n        /* \"#utility.yul\":11302:11395   */\n      tag_345\n      jump\t// in\n    tag_344:\n        /* \"#utility.yul\":11420:11422   */\n      0x20\n        /* \"#utility.yul\":11415:11418   */\n      dup3\n        /* \"#utility.yul\":11411:11423   */\n      add\n        /* \"#utility.yul\":11404:11423   */\n      swap1\n      pop\n        /* \"#utility.yul\":11063:11429   */\n      swap2\n      swap1\n      pop\n      jump\t// out\n        /* \"#utility.yul\":11435:11801   */\n    tag_346:\n        /* \"#utility.yul\":11577:11580   */\n      0x00\n        /* \"#utility.yul\":11598:11665   */\n      tag_348\n        /* \"#utility.yul\":11662:11664   */\n      0x0d\n        /* \"#utility.yul\":11657:11660   */\n      dup4\n        /* \"#utility.yul\":11598:11665   */\n      tag_331\n      jump\t// in\n    tag_348:\n        /* \"#utility.yul\":11591:11665   */\n      swap2\n      pop\n        /* \"#utility.yul\":11674:11767   */\n      tag_349\n        /* \"#utility.yul\":11763:11766   */\n      dup3\n        /* \"#utility.yul\":11674:11767   */\n      tag_350\n      jump\t// in\n    tag_349:\n        /* \"#utility.yul\":11792:11794   */\n      0x20\n        /* \"#utility.yul\":11787:11790   */\n      dup3\n        /* \"#utility.yul\":11783:11795   */\n      add\n        /* \"#utility.yul\":11776:11795   */\n      swap1\n      pop\n        /* \"#utility.yul\":11435:11801   */\n      swap2\n      swap1\n      pop\n      jump\t// out\n        /* \"#utility.yul\":11807:11925   */\n    tag_351:\n        /* \"#utility.yul\":11894:11918   */\n      tag_353\n        /* \"#utility.yul\":11912:11917   */\n      dup2\n        /* \"#utility.yul\":11894:11918   */\n      tag_354\n      jump\t// in\n    tag_353:\n        /* \"#utility.yul\":11889:11892   */\n      dup3\n        /* \"#utility.yul\":11882:11919   */\n      mstore\n        /* \"#utility.yul\":11807:11925   */\n      pop\n      pop\n      jump\t// out\n        /* \"#utility.yul\":11931:12464   */\n    tag_135:\n        /* \"#utility.yul\":12100:12104   */\n      0x00\n        /* \"#utility.yul\":12138:12140   */\n      0x60\n        /* \"#utility.yul\":12127:12136   */\n      dup3\n        /* \"#utility.yul\":12123:12141   */\n      add\n        /* \"#utility.yul\":12115:12141   */\n      swap1\n      pop\n        /* \"#utility.yul\":12151:12222   */\n      tag_356\n        /* \"#utility.yul\":12219:12220   */\n      0x00\n        /* \"#utility.yul\":12208:12217   */\n      dup4\n        /* \"#utility.yul\":12204:12221   */\n      add\n        /* \"#utility.yul\":12195:12201   */\n      dup7\n        /* \"#utility.yul\":12151:12222   */\n      tag_318\n      jump\t// in\n    tag_356:\n        /* \"#utility.yul\":12269:12278   */\n      dup2\n        /* \"#utility.yul\":12263:12267   */\n      dup2\n        /* \"#utility.yul\":12259:12279   */\n      sub\n        /* \"#utility.yul\":12254:12256   */\n      0x20\n        /* \"#utility.yul\":12243:12252   */\n      dup4\n        /* \"#utility.yul\":12239:12257   */\n      add\n        /* \"#utility.yul\":12232:12280   */\n      mstore\n        /* \"#utility.yul\":12297:12375   */\n      tag_357\n        /* \"#utility.yul\":12370:12374   */\n      dup2\n        /* \"#utility.yul\":12361:12367   */\n      dup6\n        /* \"#utility.yul\":12297:12375   */\n      tag_326\n      jump\t// in\n    tag_357:\n        /* \"#utility.yul\":12289:12375   */\n      swap1\n      pop\n        /* \"#utility.yul\":12385:12457   */\n      tag_358\n        /* \"#utility.yul\":12453:12455   */\n      0x40\n        /* \"#utility.yul\":12442:12451   */\n      dup4\n        /* \"#utility.yul\":12438:12456   */\n      add\n        /* \"#utility.yul\":12429:12435   */\n      dup5\n        /* \"#utility.yul\":12385:12457   */\n      tag_351\n      jump\t// in\n    tag_358:\n        /* \"#utility.yul\":11931:12464   */\n      swap5\n      swap4\n      pop\n      pop\n      pop\n      pop\n      jump\t// out\n        /* \"#utility.yul\":12470:12802   */\n    tag_157:\n        /* \"#utility.yul\":12591:12595   */\n      0x00\n        /* \"#utility.yul\":12629:12631   */\n      0x40\n        /* \"#utility.yul\":12618:12627   */\n      dup3\n        /* \"#utility.yul\":12614:12632   */\n      add\n        /* \"#utility.yul\":12606:12632   */\n      swap1\n      pop\n        /* \"#utility.yul\":12642:12713   */\n      tag_360\n        /* \"#utility.yul\":12710:12711   */\n      0x00\n        /* \"#utility.yul\":12699:12708   */\n      dup4\n        /* \"#utility.yul\":12695:12712   */\n      add\n        /* \"#utility.yul\":12686:12692   */\n      dup6\n        /* \"#utility.yul\":12642:12713   */\n      tag_318\n      jump\t// in\n    tag_360:\n        /* \"#utility.yul\":12723:12795   */\n      tag_361\n        /* \"#utility.yul\":12791:12793   */\n      0x20\n        /* \"#utility.yul\":12780:12789   */\n      dup4\n        /* \"#utility.yul\":12776:12794   */\n      add\n        /* \"#utility.yul\":12767:12773   */\n      dup5\n        /* \"#utility.yul\":12723:12795   */\n      tag_351\n      jump\t// in\n    tag_361:\n        /* \"#utility.yul\":12470:12802   */\n      swap4\n      swap3\n      pop\n      pop\n      pop\n      jump\t// out\n        /* \"#utility.yul\":12808:13341   */\n    tag_94:\n        /* \"#utility.yul\":12977:12981   */\n      0x00\n        /* \"#utility.yul\":13015:13017   */\n      0x60\n        /* \"#utility.yul\":13004:13013   */\n      dup3\n        /* \"#utility.yul\":13000:13018   */\n      add\n        /* \"#utility.yul\":12992:13018   */\n      swap1\n      pop\n        /* \"#utility.yul\":13028:13099   */\n      tag_363\n        /* \"#utility.yul\":13096:13097   */\n      0x00\n        /* \"#utility.yul\":13085:13094   */\n      dup4\n        /* \"#utility.yul\":13081:13098   */\n      add\n        /* \"#utility.yul\":13072:13078   */\n      dup7\n        /* \"#utility.yul\":13028:13099   */\n      tag_318\n      jump\t// in\n    tag_363:\n        /* \"#utility.yul\":13109:13181   */\n      tag_364\n        /* \"#utility.yul\":13177:13179   */\n      0x20\n        /* \"#utility.yul\":13166:13175   */\n      dup4\n        /* \"#utility.yul\":13162:13180   */\n      add\n        /* \"#utility.yul\":13153:13159   */\n      dup6\n        /* \"#utility.yul\":13109:13181   */\n      tag_351\n      jump\t// in\n    tag_364:\n        /* \"#utility.yul\":13228:13237   */\n      dup2\n        /* \"#utility.yul\":13222:13226   */\n      dup2\n        /* \"#utility.yul\":13218:13238   */\n      sub\n        /* \"#utility.yul\":13213:13215   */\n      0x40\n        /* \"#utility.yul\":13202:13211   */\n      dup4\n        /* \"#utility.yul\":13198:13216   */\n      add\n        /* \"#utility.yul\":13191:13239   */\n      mstore\n        /* \"#utility.yul\":13256:13334   */\n      tag_365\n        /* \"#utility.yul\":13329:13333   */\n      dup2\n        /* \"#utility.yul\":13320:13326   */\n      dup5\n        /* \"#utility.yul\":13256:13334   */\n      tag_326\n      jump\t// in\n    tag_365:\n        /* \"#utility.yul\":13248:13334   */\n      swap1\n      pop\n        /* \"#utility.yul\":12808:13341   */\n      swap5\n      swap4\n      pop\n      pop\n      pop\n      pop\n      jump\t// out\n        /* \"#utility.yul\":13347:13557   */\n    tag_24:\n        /* \"#utility.yul\":13434:13438   */\n      0x00\n        /* \"#utility.yul\":13472:13474   */\n      0x20\n        /* \"#utility.yul\":13461:13470   */\n      dup3\n        /* \"#utility.yul\":13457:13475   */\n      add\n        /* \"#utility.yul\":13449:13475   */\n      swap1\n      pop\n        /* \"#utility.yul\":13485:13550   */\n      tag_367\n        /* \"#utility.yul\":13547:13548   */\n      0x00\n        /* \"#utility.yul\":13536:13545   */\n      dup4\n        /* \"#utility.yul\":13532:13549   */\n      add\n        /* \"#utility.yul\":13523:13529   */\n      dup5\n        /* \"#utility.yul\":13485:13550   */\n      tag_322\n      jump\t// in\n    tag_367:\n        /* \"#utility.yul\":13347:13557   */\n      swap3\n      swap2\n      pop\n      pop\n      jump\t// out\n        /* \"#utility.yul\":13563:13876   */\n    tag_54:\n        /* \"#utility.yul\":13676:13680   */\n      0x00\n        /* \"#utility.yul\":13714:13716   */\n      0x20\n        /* \"#utility.yul\":13703:13712   */\n      dup3\n        /* \"#utility.yul\":13699:13717   */\n      add\n        /* \"#utility.yul\":13691:13717   */\n      swap1\n      pop\n        /* \"#utility.yul\":13763:13772   */\n      dup2\n        /* \"#utility.yul\":13757:13761   */\n      dup2\n        /* \"#utility.yul\":13753:13773   */\n      sub\n        /* \"#utility.yul\":13749:13750   */\n      0x00\n        /* \"#utility.yul\":13738:13747   */\n      dup4\n        /* \"#utility.yul\":13734:13751   */\n      add\n        /* \"#utility.yul\":13727:13774   */\n      mstore\n        /* \"#utility.yul\":13791:13869   */\n      tag_369\n        /* \"#utility.yul\":13864:13868   */\n      dup2\n        /* \"#utility.yul\":13855:13861   */\n      dup5\n        /* \"#utility.yul\":13791:13869   */\n      tag_326\n      jump\t// in\n    tag_369:\n        /* \"#utility.yul\":13783:13869   */\n      swap1\n      pop\n        /* \"#utility.yul\":13563:13876   */\n      swap3\n      swap2\n      pop\n      pop\n      jump\t// out\n        /* \"#utility.yul\":13882:14305   */\n    tag_74:\n        /* \"#utility.yul\":14023:14027   */\n      0x00\n        /* \"#utility.yul\":14061:14063   */\n      0x40\n        /* \"#utility.yul\":14050:14059   */\n      dup3\n        /* \"#utility.yul\":14046:14064   */\n      add\n        /* \"#utility.yul\":14038:14064   */\n      swap1\n      pop\n        /* \"#utility.yul\":14110:14119   */\n      dup2\n        /* \"#utility.yul\":14104:14108   */\n      dup2\n        /* \"#utility.yul\":14100:14120   */\n      sub\n        /* \"#utility.yul\":14096:14097   */\n      0x00\n        /* \"#utility.yul\":14085:14094   */\n      dup4\n        /* \"#utility.yul\":14081:14098   */\n      add\n        /* \"#utility.yul\":14074:14121   */\n      mstore\n        /* \"#utility.yul\":14138:14216   */\n      tag_371\n        /* \"#utility.yul\":14211:14215   */\n      dup2\n        /* \"#utility.yul\":14202:14208   */\n      dup6\n        /* \"#utility.yul\":14138:14216   */\n      tag_326\n      jump\t// in\n    tag_371:\n        /* \"#utility.yul\":14130:14216   */\n      swap1\n      pop\n        /* \"#utility.yul\":14226:14298   */\n      tag_372\n        /* \"#utility.yul\":14294:14296   */\n      0x20\n        /* \"#utility.yul\":14283:14292   */\n      dup4\n        /* \"#utility.yul\":14279:14297   */\n      add\n        /* \"#utility.yul\":14270:14276   */\n      dup5\n        /* \"#utility.yul\":14226:14298   */\n      tag_351\n      jump\t// in\n    tag_372:\n        /* \"#utility.yul\":13882:14305   */\n      swap4\n      swap3\n      pop\n      pop\n      pop\n      jump\t// out\n        /* \"#utility.yul\":14311:14730   */\n    tag_131:\n        /* \"#utility.yul\":14477:14481   */\n      0x00\n        /* \"#utility.yul\":14515:14517   */\n      0x20\n        /* \"#utility.yul\":14504:14513   */\n      dup3\n        /* \"#utility.yul\":14500:14518   */\n      add\n        /* \"#utility.yul\":14492:14518   */\n      swap1\n      pop\n        /* \"#utility.yul\":14564:14573   */\n      dup2\n        /* \"#utility.yul\":14558:14562   */\n      dup2\n        /* \"#utility.yul\":14554:14574   */\n      sub\n        /* \"#utility.yul\":14550:14551   */\n      0x00\n        /* \"#utility.yul\":14539:14548   */\n      dup4\n        /* \"#utility.yul\":14535:14552   */\n      add\n        /* \"#utility.yul\":14528:14575   */\n      mstore\n        /* \"#utility.yul\":14592:14723   */\n      tag_374\n        /* \"#utility.yul\":14718:14722   */\n      dup2\n        /* \"#utility.yul\":14592:14723   */\n      tag_336\n      jump\t// in\n    tag_374:\n        /* \"#utility.yul\":14584:14723   */\n      swap1\n      pop\n        /* \"#utility.yul\":14311:14730   */\n      swap2\n      swap1\n      pop\n      jump\t// out\n        /* \"#utility.yul\":14736:15155   */\n    tag_69:\n        /* \"#utility.yul\":14902:14906   */\n      0x00\n        /* \"#utility.yul\":14940:14942   */\n      0x20\n        /* \"#utility.yul\":14929:14938   */\n      dup3\n        /* \"#utility.yul\":14925:14943   */\n      add\n        /* \"#utility.yul\":14917:14943   */\n      swap1\n      pop\n        /* \"#utility.yul\":14989:14998   */\n      dup2\n        /* \"#utility.yul\":14983:14987   */\n      dup2\n        /* \"#utility.yul\":14979:14999   */\n      sub\n        /* \"#utility.yul\":14975:14976   */\n      0x00\n        /* \"#utility.yul\":14964:14973   */\n      dup4\n        /* \"#utility.yul\":14960:14977   */\n      add\n        /* \"#utility.yul\":14953:15000   */\n      mstore\n        /* \"#utility.yul\":15017:15148   */\n      tag_376\n        /* \"#utility.yul\":15143:15147   */\n      dup2\n        /* \"#utility.yul\":15017:15148   */\n      tag_341\n      jump\t// in\n    tag_376:\n        /* \"#utility.yul\":15009:15148   */\n      swap1\n      pop\n        /* \"#utility.yul\":14736:15155   */\n      swap2\n      swap1\n      pop\n      jump\t// out\n        /* \"#utility.yul\":15161:15580   */\n    tag_63:\n        /* \"#utility.yul\":15327:15331   */\n      0x00\n        /* \"#utility.yul\":15365:15367   */\n      0x20\n        /* \"#utility.yul\":15354:15363   */\n      dup3\n        /* \"#utility.yul\":15350:15368   */\n      add\n        /* \"#utility.yul\":15342:15368   */\n      swap1\n      pop\n        /* \"#utility.yul\":15414:15423   */\n      dup2\n        /* \"#utility.yul\":15408:15412   */\n      dup2\n        /* \"#utility.yul\":15404:15424   */\n      sub\n        /* \"#utility.yul\":15400:15401   */\n      0x00\n        /* \"#utility.yul\":15389:15398   */\n      dup4\n        /* \"#utility.yul\":15385:15402   */\n      add\n        /* \"#utility.yul\":15378:15425   */\n      mstore\n        /* \"#utility.yul\":15442:15573   */\n      tag_378\n        /* \"#utility.yul\":15568:15572   */\n      dup2\n        /* \"#utility.yul\":15442:15573   */\n      tag_346\n      jump\t// in\n    tag_378:\n        /* \"#utility.yul\":15434:15573   */\n      swap1\n      pop\n        /* \"#utility.yul\":15161:15580   */\n      swap2\n      swap1\n      pop\n      jump\t// out\n        /* \"#utility.yul\":15586:15808   */\n    tag_82:\n        /* \"#utility.yul\":15679:15683   */\n      0x00\n        /* \"#utility.yul\":15717:15719   */\n      0x20\n        /* \"#utility.yul\":15706:15715   */\n      dup3\n        /* \"#utility.yul\":15702:15720   */\n      add\n        /* \"#utility.yul\":15694:15720   */\n      swap1\n      pop\n        /* \"#utility.yul\":15730:15801   */\n      tag_380\n        /* \"#utility.yul\":15798:15799   */\n      0x00\n        /* \"#utility.yul\":15787:15796   */\n      dup4\n        /* \"#utility.yul\":15783:15800   */\n      add\n        /* \"#utility.yul\":15774:15780   */\n      dup5\n        /* \"#utility.yul\":15730:15801   */\n      tag_351\n      jump\t// in\n    tag_380:\n        /* \"#utility.yul\":15586:15808   */\n      swap3\n      swap2\n      pop\n      pop\n      jump\t// out\n        /* \"#utility.yul\":15814:16256   */\n    tag_104:\n        /* \"#utility.yul\":15963:15967   */\n      0x00\n        /* \"#utility.yul\":16001:16003   */\n      0x60\n        /* \"#utility.yul\":15990:15999   */\n      dup3\n        /* \"#utility.yul\":15986:16004   */\n      add\n        /* \"#utility.yul\":15978:16004   */\n      swap1\n      pop\n        /* \"#utility.yul\":16014:16085   */\n      tag_382\n        /* \"#utility.yul\":16082:16083   */\n      0x00\n        /* \"#utility.yul\":16071:16080   */\n      dup4\n        /* \"#utility.yul\":16067:16084   */\n      add\n        /* \"#utility.yul\":16058:16064   */\n      dup7\n        /* \"#utility.yul\":16014:16085   */\n      tag_351\n      jump\t// in\n    tag_382:\n        /* \"#utility.yul\":16095:16167   */\n      tag_383\n        /* \"#utility.yul\":16163:16165   */\n      0x20\n        /* \"#utility.yul\":16152:16161   */\n      dup4\n        /* \"#utility.yul\":16148:16166   */\n      add\n        /* \"#utility.yul\":16139:16145   */\n      dup6\n        /* \"#utility.yul\":16095:16167   */\n      tag_351\n      jump\t// in\n    tag_383:\n        /* \"#utility.yul\":16177:16249   */\n      tag_384\n        /* \"#utility.yul\":16245:16247   */\n      0x40\n        /* \"#utility.yul\":16234:16243   */\n      dup4\n        /* \"#utility.yul\":16230:16248   */\n      add\n        /* \"#utility.yul\":16221:16227   */\n      dup5\n        /* \"#utility.yul\":16177:16249   */\n      tag_351\n      jump\t// in\n    tag_384:\n        /* \"#utility.yul\":15814:16256   */\n      swap5\n      swap4\n      pop\n      pop\n      pop\n      pop\n      jump\t// out\n        /* \"#utility.yul\":16262:16391   */\n    tag_192:\n        /* \"#utility.yul\":16296:16302   */\n      0x00\n        /* \"#utility.yul\":16323:16343   */\n      tag_386\n      tag_387\n      jump\t// in\n    tag_386:\n        /* \"#utility.yul\":16313:16343   */\n      swap1\n      pop\n        /* \"#utility.yul\":16352:16385   */\n      tag_388\n        /* \"#utility.yul\":16380:16384   */\n      dup3\n        /* \"#utility.yul\":16372:16378   */\n      dup3\n        /* \"#utility.yul\":16352:16385   */\n      tag_389\n      jump\t// in\n    tag_388:\n        /* \"#utility.yul\":16262:16391   */\n      swap2\n      swap1\n      pop\n      jump\t// out\n        /* \"#utility.yul\":16397:16472   */\n    tag_387:\n        /* \"#utility.yul\":16430:16436   */\n      0x00\n        /* \"#utility.yul\":16463:16465   */\n      0x40\n        /* \"#utility.yul\":16457:16466   */\n      mload\n        /* \"#utility.yul\":16447:16466   */\n      swap1\n      pop\n        /* \"#utility.yul\":16397:16472   */\n      swap1\n      jump\t// out\n        /* \"#utility.yul\":16478:16789   */\n    tag_191:\n        /* \"#utility.yul\":16555:16559   */\n      0x00\n        /* \"#utility.yul\":16645:16663   */\n      0xffffffffffffffff\n        /* \"#utility.yul\":16637:16643   */\n      dup3\n        /* \"#utility.yul\":16634:16664   */\n      gt\n        /* \"#utility.yul\":16631:16687   */\n      iszero\n      tag_392\n      jumpi\n        /* \"#utility.yul\":16667:16685   */\n      tag_393\n      tag_394\n      jump\t// in\n    tag_393:\n        /* \"#utility.yul\":16631:16687   */\n    tag_392:\n        /* \"#utility.yul\":16717:16721   */\n      0x20\n        /* \"#utility.yul\":16709:16715   */\n      dup3\n        /* \"#utility.yul\":16705:16722   */\n      mul\n        /* \"#utility.yul\":16697:16722   */\n      swap1\n      pop\n        /* \"#utility.yul\":16777:16781   */\n      0x20\n        /* \"#utility.yul\":16771:16775   */\n      dup2\n        /* \"#utility.yul\":16767:16782   */\n      add\n        /* \"#utility.yul\":16759:16782   */\n      swap1\n      pop\n        /* \"#utility.yul\":16478:16789   */\n      swap2\n      swap1\n      pop\n      jump\t// out\n        /* \"#utility.yul\":16795:17116   */\n    tag_205:\n        /* \"#utility.yul\":16882:16886   */\n      0x00\n        /* \"#utility.yul\":16972:16990   */\n      0xffffffffffffffff\n        /* \"#utility.yul\":16964:16970   */\n      dup3\n        /* \"#utility.yul\":16961:16991   */\n      gt\n        /* \"#utility.yul\":16958:17014   */\n      iszero\n      tag_396\n      jumpi\n        /* \"#utility.yul\":16994:17012   */\n      tag_397\n      tag_394\n      jump\t// in\n    tag_397:\n        /* \"#utility.yul\":16958:17014   */\n    tag_396:\n        /* \"#utility.yul\":17044:17048   */\n      0x20\n        /* \"#utility.yul\":17036:17042   */\n      dup3\n        /* \"#utility.yul\":17032:17049   */\n      mul\n        /* \"#utility.yul\":17024:17049   */\n      swap1\n      pop\n        /* \"#utility.yul\":17104:17108   */\n      0x20\n        /* \"#utility.yul\":17098:17102   */\n      dup2\n        /* \"#utility.yul\":17094:17109   */\n      add\n        /* \"#utility.yul\":17086:17109   */\n      swap1\n      pop\n        /* \"#utility.yul\":16795:17116   */\n      swap2\n      swap1\n      pop\n      jump\t// out\n        /* \"#utility.yul\":17122:17433   */\n    tag_220:\n        /* \"#utility.yul\":17199:17203   */\n      0x00\n        /* \"#utility.yul\":17289:17307   */\n      0xffffffffffffffff\n        /* \"#utility.yul\":17281:17287   */\n      dup3\n        /* \"#utility.yul\":17278:17308   */\n      gt\n        /* \"#utility.yul\":17275:17331   */\n      iszero\n      tag_399\n      jumpi\n        /* \"#utility.yul\":17311:17329   */\n      tag_400\n      tag_394\n      jump\t// in\n    tag_400:\n        /* \"#utility.yul\":17275:17331   */\n    tag_399:\n        /* \"#utility.yul\":17361:17365   */\n      0x20\n        /* \"#utility.yul\":17353:17359   */\n      dup3\n        /* \"#utility.yul\":17349:17366   */\n      mul\n        /* \"#utility.yul\":17341:17366   */\n      swap1\n      pop\n        /* \"#utility.yul\":17421:17425   */\n      0x20\n        /* \"#utility.yul\":17415:17419   */\n      dup2\n        /* \"#utility.yul\":17411:17426   */\n      add\n        /* \"#utility.yul\":17403:17426   */\n      swap1\n      pop\n        /* \"#utility.yul\":17122:17433   */\n      swap2\n      swap1\n      pop\n      jump\t// out\n        /* \"#utility.yul\":17439:17747   */\n    tag_232:\n        /* \"#utility.yul\":17501:17505   */\n      0x00\n        /* \"#utility.yul\":17591:17609   */\n      0xffffffffffffffff\n        /* \"#utility.yul\":17583:17589   */\n      dup3\n        /* \"#utility.yul\":17580:17610   */\n      gt\n        /* \"#utility.yul\":17577:17633   */\n      iszero\n      tag_402\n      jumpi\n        /* \"#utility.yul\":17613:17631   */\n      tag_403\n      tag_394\n      jump\t// in\n    tag_403:\n        /* \"#utility.yul\":17577:17633   */\n    tag_402:\n        /* \"#utility.yul\":17651:17680   */\n      tag_404\n        /* \"#utility.yul\":17673:17679   */\n      dup3\n        /* \"#utility.yul\":17651:17680   */\n      tag_335\n      jump\t// in\n    tag_404:\n        /* \"#utility.yul\":17643:17680   */\n      swap1\n      pop\n        /* \"#utility.yul\":17735:17739   */\n      0x20\n        /* \"#utility.yul\":17729:17733   */\n      dup2\n        /* \"#utility.yul\":17725:17740   */\n      add\n        /* \"#utility.yul\":17717:17740   */\n      swap1\n      pop\n        /* \"#utility.yul\":17439:17747   */\n      swap2\n      swap1\n      pop\n      jump\t// out\n        /* \"#utility.yul\":17753:17852   */\n    tag_329:\n        /* \"#utility.yul\":17805:17811   */\n      0x00\n        /* \"#utility.yul\":17839:17844   */\n      dup2\n        /* \"#utility.yul\":17833:17845   */\n      mload\n        /* \"#utility.yul\":17823:17845   */\n      swap1\n      pop\n        /* \"#utility.yul\":17753:17852   */\n      swap2\n      swap1\n      pop\n      jump\t// out\n        /* \"#utility.yul\":17858:18027   */\n    tag_331:\n        /* \"#utility.yul\":17942:17953   */\n      0x00\n        /* \"#utility.yul\":17976:17982   */\n      dup3\n        /* \"#utility.yul\":17971:17974   */\n      dup3\n        /* \"#utility.yul\":17964:17983   */\n      mstore\n        /* \"#utility.yul\":18016:18020   */\n      0x20\n        /* \"#utility.yul\":18011:18014   */\n      dup3\n        /* \"#utility.yul\":18007:18021   */\n      add\n        /* \"#utility.yul\":17992:18021   */\n      swap1\n      pop\n        /* \"#utility.yul\":17858:18027   */\n      swap3\n      swap2\n      pop\n      pop\n      jump\t// out\n        /* \"#utility.yul\":18033:18224   */\n    tag_100:\n        /* \"#utility.yul\":18073:18077   */\n      0x00\n        /* \"#utility.yul\":18093:18113   */\n      tag_408\n        /* \"#utility.yul\":18111:18112   */\n      dup3\n        /* \"#utility.yul\":18093:18113   */\n      tag_354\n      jump\t// in\n    tag_408:\n        /* \"#utility.yul\":18088:18113   */\n      swap2\n      pop\n        /* \"#utility.yul\":18127:18147   */\n      tag_409\n        /* \"#utility.yul\":18145:18146   */\n      dup4\n        /* \"#utility.yul\":18127:18147   */\n      tag_354\n      jump\t// in\n    tag_409:\n        /* \"#utility.yul\":18122:18147   */\n      swap3\n      pop\n        /* \"#utility.yul\":18166:18167   */\n      dup3\n        /* \"#utility.yul\":18163:18164   */\n      dup3\n        /* \"#utility.yul\":18160:18168   */\n      lt\n        /* \"#utility.yul\":18157:18191   */\n      iszero\n      tag_410\n      jumpi\n        /* \"#utility.yul\":18171:18189   */\n      tag_411\n      tag_412\n      jump\t// in\n    tag_411:\n        /* \"#utility.yul\":18157:18191   */\n    tag_410:\n        /* \"#utility.yul\":18216:18217   */\n      dup3\n        /* \"#utility.yul\":18213:18214   */\n      dup3\n        /* \"#utility.yul\":18209:18218   */\n      sub\n        /* \"#utility.yul\":18201:18218   */\n      swap1\n      pop\n        /* \"#utility.yul\":18033:18224   */\n      swap3\n      swap2\n      pop\n      pop\n      jump\t// out\n        /* \"#utility.yul\":18230:18326   */\n    tag_321:\n        /* \"#utility.yul\":18267:18274   */\n      0x00\n        /* \"#utility.yul\":18296:18320   */\n      tag_414\n        /* \"#utility.yul\":18314:18319   */\n      dup3\n        /* \"#utility.yul\":18296:18320   */\n      tag_415\n      jump\t// in\n    tag_414:\n        /* \"#utility.yul\":18285:18320   */\n      swap1\n      pop\n        /* \"#utility.yul\":18230:18326   */\n      swap2\n      swap1\n      pop\n      jump\t// out\n        /* \"#utility.yul\":18332:18422   */\n    tag_325:\n        /* \"#utility.yul\":18366:18373   */\n      0x00\n        /* \"#utility.yul\":18409:18414   */\n      dup2\n        /* \"#utility.yul\":18402:18415   */\n      iszero\n        /* \"#utility.yul\":18395:18416   */\n      iszero\n        /* \"#utility.yul\":18384:18416   */\n      swap1\n      pop\n        /* \"#utility.yul\":18332:18422   */\n      swap2\n      swap1\n      pop\n      jump\t// out\n        /* \"#utility.yul\":18428:18554   */\n    tag_415:\n        /* \"#utility.yul\":18465:18472   */\n      0x00\n        /* \"#utility.yul\":18505:18547   */\n      0xffffffffffffffffffffffffffffffffffffffff\n        /* \"#utility.yul\":18498:18503   */\n      dup3\n        /* \"#utility.yul\":18494:18548   */\n      and\n        /* \"#utility.yul\":18483:18548   */\n      swap1\n      pop\n        /* \"#utility.yul\":18428:18554   */\n      swap2\n      swap1\n      pop\n      jump\t// out\n        /* \"#utility.yul\":18560:18637   */\n    tag_354:\n        /* \"#utility.yul\":18597:18604   */\n      0x00\n        /* \"#utility.yul\":18626:18631   */\n      dup2\n        /* \"#utility.yul\":18615:18631   */\n      swap1\n      pop\n        /* \"#utility.yul\":18560:18637   */\n      swap2\n      swap1\n      pop\n      jump\t// out\n        /* \"#utility.yul\":18643:18797   */\n    tag_237:\n        /* \"#utility.yul\":18727:18733   */\n      dup3\n        /* \"#utility.yul\":18722:18725   */\n      dup2\n        /* \"#utility.yul\":18717:18720   */\n      dup4\n        /* \"#utility.yul\":18704:18734   */\n      calldatacopy\n        /* \"#utility.yul\":18789:18790   */\n      0x00\n        /* \"#utility.yul\":18780:18786   */\n      dup4\n        /* \"#utility.yul\":18775:18778   */\n      dup4\n        /* \"#utility.yul\":18771:18787   */\n      add\n        /* \"#utility.yul\":18764:18791   */\n      mstore\n        /* \"#utility.yul\":18643:18797   */\n      pop\n      pop\n      pop\n      jump\t// out\n        /* \"#utility.yul\":18803:19110   */\n    tag_333:\n        /* \"#utility.yul\":18871:18872   */\n      0x00\n        /* \"#utility.yul\":18881:18994   */\n    tag_421:\n        /* \"#utility.yul\":18895:18901   */\n      dup4\n        /* \"#utility.yul\":18892:18893   */\n      dup2\n        /* \"#utility.yul\":18889:18902   */\n      lt\n        /* \"#utility.yul\":18881:18994   */\n      iszero\n      tag_423\n      jumpi\n        /* \"#utility.yul\":18980:18981   */\n      dup1\n        /* \"#utility.yul\":18975:18978   */\n      dup3\n        /* \"#utility.yul\":18971:18982   */\n      add\n        /* \"#utility.yul\":18965:18983   */\n      mload\n        /* \"#utility.yul\":18961:18962   */\n      dup2\n        /* \"#utility.yul\":18956:18959   */\n      dup5\n        /* \"#utility.yul\":18952:18963   */\n      add\n        /* \"#utility.yul\":18945:18984   */\n      mstore\n        /* \"#utility.yul\":18917:18919   */\n      0x20\n        /* \"#utility.yul\":18914:18915   */\n      dup2\n        /* \"#utility.yul\":18910:18920   */\n      add\n        /* \"#utility.yul\":18905:18920   */\n      swap1\n      pop\n        /* \"#utility.yul\":18881:18994   */\n      jump(tag_421)\n    tag_423:\n        /* \"#utility.yul\":19012:19018   */\n      dup4\n        /* \"#utility.yul\":19009:19010   */\n      dup2\n        /* \"#utility.yul\":19006:19019   */\n      gt\n        /* \"#utility.yul\":19003:19104   */\n      iszero\n      tag_424\n      jumpi\n        /* \"#utility.yul\":19092:19093   */\n      0x00\n        /* \"#utility.yul\":19083:19089   */\n      dup5\n        /* \"#utility.yul\":19078:19081   */\n      dup5\n        /* \"#utility.yul\":19074:19090   */\n      add\n        /* \"#utility.yul\":19067:19094   */\n      mstore\n        /* \"#utility.yul\":19003:19104   */\n    tag_424:\n        /* \"#utility.yul\":18852:19110   */\n      pop\n        /* \"#utility.yul\":18803:19110   */\n      pop\n      pop\n      pop\n      jump\t// out\n        /* \"#utility.yul\":19116:19436   */\n    tag_138:\n        /* \"#utility.yul\":19160:19166   */\n      0x00\n        /* \"#utility.yul\":19197:19198   */\n      0x02\n        /* \"#utility.yul\":19191:19195   */\n      dup3\n        /* \"#utility.yul\":19187:19199   */\n      div\n        /* \"#utility.yul\":19177:19199   */\n      swap1\n      pop\n        /* \"#utility.yul\":19244:19245   */\n      0x01\n        /* \"#utility.yul\":19238:19242   */\n      dup3\n        /* \"#utility.yul\":19234:19246   */\n      and\n        /* \"#utility.yul\":19265:19283   */\n      dup1\n        /* \"#utility.yul\":19255:19336   */\n      tag_426\n      jumpi\n        /* \"#utility.yul\":19321:19325   */\n      0x7f\n        /* \"#utility.yul\":19313:19319   */\n      dup3\n        /* \"#utility.yul\":19309:19326   */\n      and\n        /* \"#utility.yul\":19299:19326   */\n      swap2\n      pop\n        /* \"#utility.yul\":19255:19336   */\n    tag_426:\n        /* \"#utility.yul\":19383:19385   */\n      0x20\n        /* \"#utility.yul\":19375:19381   */\n      dup3\n        /* \"#utility.yul\":19372:19386   */\n      lt\n        /* \"#utility.yul\":19352:19370   */\n      dup2\n        /* \"#utility.yul\":19349:19387   */\n      eq\n        /* \"#utility.yul\":19346:19430   */\n      iszero\n      tag_427\n      jumpi\n        /* \"#utility.yul\":19402:19420   */\n      tag_428\n      tag_429\n      jump\t// in\n    tag_428:\n        /* \"#utility.yul\":19346:19430   */\n    tag_427:\n        /* \"#utility.yul\":19167:19436   */\n      pop\n        /* \"#utility.yul\":19116:19436   */\n      swap2\n      swap1\n      pop\n      jump\t// out\n        /* \"#utility.yul\":19442:19723   */\n    tag_389:\n        /* \"#utility.yul\":19525:19552   */\n      tag_431\n        /* \"#utility.yul\":19547:19551   */\n      dup3\n        /* \"#utility.yul\":19525:19552   */\n      tag_335\n      jump\t// in\n    tag_431:\n        /* \"#utility.yul\":19517:19523   */\n      dup2\n        /* \"#utility.yul\":19513:19553   */\n      add\n        /* \"#utility.yul\":19655:19661   */\n      dup2\n        /* \"#utility.yul\":19643:19653   */\n      dup2\n        /* \"#utility.yul\":19640:19662   */\n      lt\n        /* \"#utility.yul\":19619:19637   */\n      0xffffffffffffffff\n        /* \"#utility.yul\":19607:19617   */\n      dup3\n        /* \"#utility.yul\":19604:19638   */\n      gt\n        /* \"#utility.yul\":19601:19663   */\n      or\n        /* \"#utility.yul\":19598:19686   */\n      iszero\n      tag_432\n      jumpi\n        /* \"#utility.yul\":19666:19684   */\n      tag_433\n      tag_394\n      jump\t// in\n    tag_433:\n        /* \"#utility.yul\":19598:19686   */\n    tag_432:\n        /* \"#utility.yul\":19706:19716   */\n      dup1\n        /* \"#utility.yul\":19702:19704   */\n      0x40\n        /* \"#utility.yul\":19695:19717   */\n      mstore\n        /* \"#utility.yul\":19485:19723   */\n      pop\n        /* \"#utility.yul\":19442:19723   */\n      pop\n      pop\n      jump\t// out\n        /* \"#utility.yul\":19729:19962   */\n    tag_80:\n        /* \"#utility.yul\":19768:19771   */\n      0x00\n        /* \"#utility.yul\":19791:19815   */\n      tag_435\n        /* \"#utility.yul\":19809:19814   */\n      dup3\n        /* \"#utility.yul\":19791:19815   */\n      tag_354\n      jump\t// in\n    tag_435:\n        /* \"#utility.yul\":19782:19815   */\n      swap2\n      pop\n        /* \"#utility.yul\":19837:19903   */\n      0xffffffffffffffffffffffffffffffffffffffffffffffffffffffffffffffff\n        /* \"#utility.yul\":19830:19835   */\n      dup3\n        /* \"#utility.yul\":19827:19904   */\n      eq\n        /* \"#utility.yul\":19824:19927   */\n      iszero\n      tag_436\n      jumpi\n        /* \"#utility.yul\":19907:19925   */\n      tag_437\n      tag_412\n      jump\t// in\n    tag_437:\n        /* \"#utility.yul\":19824:19927   */\n    tag_436:\n        /* \"#utility.yul\":19954:19955   */\n      0x01\n        /* \"#utility.yul\":19947:19952   */\n      dup3\n        /* \"#utility.yul\":19943:19956   */\n      add\n        /* \"#utility.yul\":19936:19956   */\n      swap1\n      pop\n        /* \"#utility.yul\":19729:19962   */\n      swap2\n      swap1\n      pop\n      jump\t// out\n        /* \"#utility.yul\":19968:20148   */\n    tag_412:\n        /* \"#utility.yul\":20016:20093   */\n      0x4e487b7100000000000000000000000000000000000000000000000000000000\n        /* \"#utility.yul\":20013:20014   */\n      0x00\n        /* \"#utility.yul\":20006:20094   */\n      mstore\n        /* \"#utility.yul\":20113:20117   */\n      0x11\n        /* \"#utility.yul\":20110:20111   */\n      0x04\n        /* \"#utility.yul\":20103:20118   */\n      mstore\n        /* \"#utility.yul\":20137:20141   */\n      0x24\n        /* \"#utility.yul\":20134:20135   */\n      0x00\n        /* \"#utility.yul\":20127:20142   */\n      revert\n        /* \"#utility.yul\":20154:20334   */\n    tag_429:\n        /* \"#utility.yul\":20202:20279   */\n      0x4e487b7100000000000000000000000000000000000000000000000000000000\n        /* \"#utility.yul\":20199:20200   */\n      0x00\n        /* \"#utility.yul\":20192:20280   */\n      mstore\n        /* \"#utility.yul\":20299:20303   */\n      0x22\n        /* \"#utility.yul\":20296:20297   */\n      0x04\n        /* \"#utility.yul\":20289:20304   */\n      mstore\n        /* \"#utility.yul\":20323:20327   */\n      0x24\n        /* \"#utility.yul\":20320:20321   */\n      0x00\n        /* \"#utility.yul\":20313:20328   */\n      revert\n        /* \"#utility.yul\":20340:20520   */\n    tag_122:\n        /* \"#utility.yul\":20388:20465   */\n      0x4e487b7100000000000000000000000000000000000000000000000000000000\n        /* \"#utility.yul\":20385:20386   */\n      0x00\n        /* \"#utility.yul\":20378:20466   */\n      mstore\n        /* \"#utility.yul\":20485:20489   */\n      0x32\n        /* \"#utility.yul\":20482:20483   */\n      0x04\n        /* \"#utility.yul\":20475:20490   */\n      mstore\n        /* \"#utility.yul\":20509:20513   */\n      0x24\n        /* \"#utility.yul\":20506:20507   */\n      0x00\n        /* \"#utility.yul\":20499:20514   */\n      revert\n        /* \"#utility.yul\":20526:20706   */\n    tag_394:\n        /* \"#utility.yul\":20574:20651   */\n      0x4e487b7100000000000000000000000000000000000000000000000000000000\n        /* \"#utility.yul\":20571:20572   */\n      0x00\n        /* \"#utility.yul\":20564:20652   */\n      mstore\n        /* \"#utility.yul\":20671:20675   */\n      0x41\n        /* \"#utility.yul\":20668:20669   */\n      0x04\n        /* \"#utility.yul\":20661:20676   */\n      mstore\n        /* \"#utility.yul\":20695:20699   */\n      0x24\n        /* \"#utility.yul\":20692:20693   */\n      0x00\n        /* \"#utility.yul\":20685:20700   */\n      revert\n        /* \"#utility.yul\":20712:20829   */\n    tag_213:\n        /* \"#utility.yul\":20821:20822   */\n      0x00\n        /* \"#utility.yul\":20818:20819   */\n      dup1\n        /* \"#utility.yul\":20811:20823   */\n      revert\n        /* \"#utility.yul\":20835:20952   */\n    tag_195:\n        /* \"#utility.yul\":20944:20945   */\n      0x00\n        /* \"#utility.yul\":20941:20942   */\n      dup1\n        /* \"#utility.yul\":20934:20946   */\n      revert\n        /* \"#utility.yul\":20958:21075   */\n    tag_235:\n        /* \"#utility.yul\":21067:21068   */\n      0x00\n        /* \"#utility.yul\":21064:21065   */\n      dup1\n        /* \"#utility.yul\":21057:21069   */\n      revert\n        /* \"#utility.yul\":21081:21198   */\n    tag_274:\n        /* \"#utility.yul\":21190:21191   */\n      0x00\n        /* \"#utility.yul\":21187:21188   */\n      dup1\n        /* \"#utility.yul\":21180:21192   */\n      revert\n        /* \"#utility.yul\":21204:21321   */\n    tag_266:\n        /* \"#utility.yul\":21313:21314   */\n      0x00\n        /* \"#utility.yul\":21310:21311   */\n      dup1\n        /* \"#utility.yul\":21303:21315   */\n      revert\n        /* \"#utility.yul\":21327:21429   */\n    tag_335:\n        /* \"#utility.yul\":21368:21374   */\n      0x00\n        /* \"#utility.yul\":21419:21421   */\n      0x1f\n        /* \"#utility.yul\":21415:21422   */\n      not\n        /* \"#utility.yul\":21410:21412   */\n      0x1f\n        /* \"#utility.yul\":21403:21408   */\n      dup4\n        /* \"#utility.yul\":21399:21413   */\n      add\n        /* \"#utility.yul\":21395:21423   */\n      and\n        /* \"#utility.yul\":21385:21423   */\n      swap1\n      pop\n        /* \"#utility.yul\":21327:21429   */\n      swap2\n      swap1\n      pop\n      jump\t// out\n        /* \"#utility.yul\":21435:21594   */\n    tag_340:\n        /* \"#utility.yul\":21575:21586   */\n      0x57726f6e67206b65790000000000000000000000000000000000000000000000\n        /* \"#utility.yul\":21571:21572   */\n      0x00\n        /* \"#utility.yul\":21563:21569   */\n      dup3\n        /* \"#utility.yul\":21559:21573   */\n      add\n        /* \"#utility.yul\":21552:21587   */\n      mstore\n        /* \"#utility.yul\":21435:21594   */\n      pop\n      jump\t// out\n        /* \"#utility.yul\":21600:21762   */\n    tag_345:\n        /* \"#utility.yul\":21740:21754   */\n      0x4944206265656e20757365640000000000000000000000000000000000000000\n        /* \"#utility.yul\":21736:21737   */\n      0x00\n        /* \"#utility.yul\":21728:21734   */\n      dup3\n        /* \"#utility.yul\":21724:21738   */\n      add\n        /* \"#utility.yul\":21717:21755   */\n      mstore\n        /* \"#utility.yul\":21600:21762   */\n      pop\n      jump\t// out\n        /* \"#utility.yul\":21768:21931   */\n    tag_350:\n        /* \"#utility.yul\":21908:21923   */\n      0x4e6f205065726d697373696f6e00000000000000000000000000000000000000\n        /* \"#utility.yul\":21904:21905   */\n      0x00\n        /* \"#utility.yul\":21896:21902   */\n      dup3\n        /* \"#utility.yul\":21892:21906   */\n      add\n        /* \"#utility.yul\":21885:21924   */\n      mstore\n        /* \"#utility.yul\":21768:21931   */\n      pop\n      jump\t// out\n        /* \"#utility.yul\":21937:22059   */\n    tag_240:\n        /* \"#utility.yul\":22010:22034   */\n      tag_452\n        /* \"#utility.yul\":22028:22033   */\n      dup2\n        /* \"#utility.yul\":22010:22034   */\n      tag_321\n      jump\t// in\n    tag_452:\n        /* \"#utility.yul\":22003:22008   */\n      dup2\n        /* \"#utility.yul\":22000:22035   */\n      eq\n        /* \"#utility.yul\":21990:22053   */\n      tag_453\n      jumpi\n        /* \"#utility.yul\":22049:22050   */\n      0x00\n        /* \"#utility.yul\":22046:22047   */\n      dup1\n        /* \"#utility.yul\":22039:22051   */\n      revert\n        /* \"#utility.yul\":21990:22053   */\n    tag_453:\n        /* \"#utility.yul\":21937:22059   */\n      pop\n      jump\t// out\n        /* \"#utility.yul\":22065:22187   */\n    tag_262:\n        /* \"#utility.yul\":22138:22162   */\n      tag_455\n        /* \"#utility.yul\":22156:22161   */\n      dup2\n        /* \"#utility.yul\":22138:22162   */\n      tag_354\n      jump\t// in\n    tag_455:\n        /* \"#utility.yul\":22131:22136   */\n      dup2\n        /* \"#utility.yul\":22128:22163   */\n      eq\n        /* \"#utility.yul\":22118:22181   */\n      tag_456\n      jumpi\n        /* \"#utility.yul\":22177:22178   */\n      0x00\n        /* \"#utility.yul\":22174:22175   */\n      dup1\n        /* \"#utility.yul\":22167:22179   */\n      revert\n        /* \"#utility.yul\":22118:22181   */\n    tag_456:\n        /* \"#utility.yul\":22065:22187   */\n      pop\n      jump\t// out\n\n    auxdata: 0xa264697066735822122041e6b3106b57637b6b0c744c5804cf277e40e942ac13cf426ec457cfde9c3d7264736f6c63430008070033\n}\n",
				"bytecode": {
					"linkReferences": {},
					"object": "608060405234801561001057600080fd5b50336000806101000a81548173ffffffffffffffffffffffffffffffffffffffff021916908373ffffffffffffffffffffffffffffffffffffffff160217905550611efc806100606000396000f3fe608060405234801561001057600080fd5b50600436106100a95760003560e01c80638aa430af116100715780638aa430af1461014e578063a4db23fc1461016a578063be19e12114610186578063cb9f4099146101a2578063cf5765a9146101be578063d6f937e5146101ee576100a9565b8063066f4570146100ae5780632c5aa9e6146100ca57806352ce9539146100fa5780636e0da7021461011657806381b0ba6c14610132575b600080fd5b6100c860048036038101906100c391906117e8565b61021e565b005b6100e460048036038101906100df919061163e565b6102db565b6040516100f191906119b8565b60405180910390f35b610114600480360381019061010f919061174c565b61048b565b005b610130600480360381019061012b9190611779565b6105b8565b005b61014c600480360381019061014791906117e8565b6106d6565b005b6101686004803603810190610163919061174c565b61080a565b005b610184600480360381019061017f919061174c565b610993565b005b6101a0600480360381019061019b91906115b3565b610af4565b005b6101bc60048036038101906101b791906116dd565b610c74565b005b6101d860048036038101906101d3919061174c565b610e1f565b6040516101e591906119d3565b60405180910390f35b61020860048036038101906102039190611573565b610ec7565b60405161021591906119d3565b60405180910390f35b60008054906101000a900473ffffffffffffffffffffffffffffffffffffffff1673ffffffffffffffffffffffffffffffffffffffff163373ffffffffffffffffffffffffffffffffffffffff16146102ac576040517f08c379a00000000000000000000000000000000000000000000000000000000081526004016102a390611a65565b60405180910390fd5b806001600084815260200190815260200160002060090190805190602001906102d69291906110f0565b505050565b60006002600085815260200190815260200160002060009054906101000a900460ff161561033e576040517f08c379a000000000000000000000000000000000000000000000000000000000815260040161033590611a45565b60405180910390fd5b336001600086815260200190815260200160002060000160006101000a81548173ffffffffffffffffffffffffffffffffffffffff021916908373ffffffffffffffffffffffffffffffffffffffff160217905550836001600086815260200190815260200160002060020181905550846001600086815260200190815260200160002060010190805190602001906103d89291906110f0565b506000600160008681526020019081526020016000206003018190555081600160008681526020019081526020016000206005018190555060016002600086815260200190815260200160002060006101000a81548160ff0219169083151502179055506104468385610fcf565b7f6c3830a50de779c9ae2be039ef4fdc507722dad61422c4059fb074ff0080662585856040516104779291906119f5565b60405180910390a160019050949350505050565b60026001600083815260200190815260200160002060030154146104ae57600080fd5b6001600082815260200190815260200160002060000160009054906101000a900473ffffffffffffffffffffffffffffffffffffffff1673ffffffffffffffffffffffffffffffffffffffff163373ffffffffffffffffffffffffffffffffffffffff1614610552576040517f08c379a000000000000000000000000000000000000000000000000000000000815260040161054990611a65565b60405180910390fd5b60016000828152602001908152602001600020600301600081548092919061057990611cee565b91905055507f220a131e78e8341a040cd57d8377b7d26b59d04ecf790b0b8174f71d9de1668f816040516105ad9190611a85565b60405180910390a150565b60026001600085815260200190815260200160002060030154146105db57600080fd5b60008054906101000a900473ffffffffffffffffffffffffffffffffffffffff1673ffffffffffffffffffffffffffffffffffffffff163373ffffffffffffffffffffffffffffffffffffffff1614610669576040517f08c379a000000000000000000000000000000000000000000000000000000000815260040161066090611a65565b60405180910390fd5b8160016000858152602001908152602001600020600f0160008373ffffffffffffffffffffffffffffffffffffffff1673ffffffffffffffffffffffffffffffffffffffff16815260200190815260200160002090805190602001906106d0929190611176565b50505050565b60026001600084815260200190815260200160002060030154146106f957600080fd5b60016000838152602001908152602001600020600d0160003373ffffffffffffffffffffffffffffffffffffffff1673ffffffffffffffffffffffffffffffffffffffff16815260200190815260200160002060009054906101000a900460ff1661076357600080fd5b8060016000848152602001908152602001600020600e0160003373ffffffffffffffffffffffffffffffffffffffff1673ffffffffffffffffffffffffffffffffffffffff16815260200190815260200160002090805190602001906107ca9291906110f0565b507fcf587d6f7810ca815a721731288d56ce776a43b184490efbf7b6e2188af5108b3383836040516107fe9392919061197a565b60405180910390a15050565b6001806000838152602001908152602001600020600301541461082c57600080fd5b6001600082815260200190815260200160002060000160009054906101000a900473ffffffffffffffffffffffffffffffffffffffff1673ffffffffffffffffffffffffffffffffffffffff163373ffffffffffffffffffffffffffffffffffffffff16146108d0576040517f08c379a00000000000000000000000000000000000000000000000000000000081526004016108c790611a65565b60405180910390fd5b60016000828152602001908152602001600020600501546001600083815260200190815260200160002060040154426109099190611bcd565b1161091357600080fd5b60016000828152602001908152602001600020600301600081548092919061093a90611cee565b91905055507f6d3c27ac9c0e2b532d3134fc77f00406a0f871f15158acd1a534ff32f02b2ebf6001600083815260200190815260200160002060040154438360405161098893929190611aa0565b60405180910390a150565b600180600083815260200190815260200160002060030154106109b557600080fd5b6001600082815260200190815260200160002060000160009054906101000a900473ffffffffffffffffffffffffffffffffffffffff1673ffffffffffffffffffffffffffffffffffffffff163373ffffffffffffffffffffffffffffffffffffffff1614610a59576040517f08c379a0000000000000000000000000000000000000000000000000000000008152600401610a5090611a65565b60405180910390fd5b600160008281526020019081526020016000206003016000815480929190610a8090611cee565b91905055504260016000838152602001908152602001600020600401819055507f72ed78084ba8ccd7ed78c0500fe00f29f9bce811b89269a56cf18b4dcfa6534460016000838152602001908152602001600020600401544383604051610ae993929190611aa0565b60405180910390a150565b60018060008381526020019081526020016000206003015410610b1657600080fd5b60008054906101000a900473ffffffffffffffffffffffffffffffffffffffff1673ffffffffffffffffffffffffffffffffffffffff163373ffffffffffffffffffffffffffffffffffffffff161480610bd157506001600082815260200190815260200160002060000160009054906101000a900473ffffffffffffffffffffffffffffffffffffffff1673ffffffffffffffffffffffffffffffffffffffff163373ffffffffffffffffffffffffffffffffffffffff16145b610c10576040517f08c379a0000000000000000000000000000000000000000000000000000000008152600401610c0790611a65565b60405180910390fd5b60005b8351811015610c6e57610c5b848281518110610c3257610c31611d95565b5b6020026020010151848381518110610c4d57610c4c611d95565b5b602002602001015184611020565b8080610c6690611cee565b915050610c13565b50505050565b60018060008481526020019081526020016000206003015414610c9657600080fd5b60016000838152602001908152602001600020600b01600082815260200190815260200160002060009054906101000a900473ffffffffffffffffffffffffffffffffffffffff1673ffffffffffffffffffffffffffffffffffffffff163373ffffffffffffffffffffffffffffffffffffffff1614610d4b576040517f08c379a0000000000000000000000000000000000000000000000000000000008152600401610d4290611a25565b60405180910390fd5b8260016000848152602001908152602001600020600c0160003373ffffffffffffffffffffffffffffffffffffffff1673ffffffffffffffffffffffffffffffffffffffff1681526020019081526020016000209080519060200190610db29291906110f0565b50600160008381526020019081526020016000206007016000815480929190610dda90611cee565b91905055507fc2d7e3c30328bfe2d5070f2c6c0dd93a439a518dcd8e0e115dbc992a607a8e66338484604051610e1293929190611913565b60405180910390a1505050565b6060600160008381526020019081526020016000206009018054610e4290611c8b565b80601f0160208091040260200160405190810160405280929190818152602001828054610e6e90611c8b565b8015610ebb5780601f10610e9057610100808354040283529160200191610ebb565b820191906000526020600020905b815481529060010190602001808311610e9e57829003601f168201915b50505050509050919050565b606060018060008481526020019081526020016000206003015411610eeb57600080fd5b60016000838152602001908152602001600020600c0160008473ffffffffffffffffffffffffffffffffffffffff1673ffffffffffffffffffffffffffffffffffffffff1681526020019081526020016000208054610f4990611c8b565b80601f0160208091040260200160405190810160405280929190818152602001828054610f7590611c8b565b8015610fc25780601f10610f9757610100808354040283529160200191610fc2565b820191906000526020600020905b815481529060010190602001808311610fa557829003601f168201915b5050505050905092915050565b60018060008381526020019081526020016000206003015410610ff157600080fd5b8160016000838152602001908152602001600020600a01908051906020019061101b9291906111d6565b505050565b8260016000838152602001908152602001600020600b01600084815260200190815260200160002060006101000a81548173ffffffffffffffffffffffffffffffffffffffff021916908373ffffffffffffffffffffffffffffffffffffffff1602179055506001600082815260200190815260200160002060060160008154809291906110ad90611cee565b91905055507f4ad260fdb84f8458e9ae5bfb9f78b3a60d8daeba55271ac59884c0f6cb4e043583826040516110e3929190611951565b60405180910390a1505050565b8280546110fc90611c8b565b90600052602060002090601f01602090048101928261111e5760008555611165565b82601f1061113757805160ff1916838001178555611165565b82800160010185558215611165579182015b82811115611164578251825591602001919060010190611149565b5b5090506111729190611260565b5090565b8280548282559060005260206000209081019282156111c5579160200282015b828111156111c45782518290805190602001906111b49291906110f0565b5091602001919060010190611196565b5b5090506111d2919061127d565b5090565b82805482825590600052602060002090810192821561124f579160200282015b8281111561124e5782518260006101000a81548173ffffffffffffffffffffffffffffffffffffffff021916908373ffffffffffffffffffffffffffffffffffffffff160217905550916020019190600101906111f6565b5b50905061125c9190611260565b5090565b5b80821115611279576000816000905550600101611261565b5090565b5b8082111561129d576000818161129491906112a1565b5060010161127e565b5090565b5080546112ad90611c8b565b6000825580601f106112bf57506112de565b601f0160209004906000526020600020908101906112dd9190611260565b5b50565b60006112f46112ef84611afc565b611ad7565b9050808382526020820190508285602086028201111561131757611316611df8565b5b60005b85811015611347578161132d8882611491565b84526020840193506020830192505060018101905061131a565b5050509392505050565b600061136461135f84611b28565b611ad7565b9050808382526020820190508285602086028201111561138757611386611df8565b5b60005b858110156113d557813567ffffffffffffffff8111156113ad576113ac611df3565b5b8086016113ba8982611530565b8552602085019450602084019350505060018101905061138a565b5050509392505050565b60006113f26113ed84611b54565b611ad7565b9050808382526020820190508285602086028201111561141557611414611df8565b5b60005b85811015611445578161142b888261155e565b845260208401935060208301925050600181019050611418565b5050509392505050565b600061146261145d84611b80565b611ad7565b90508281526020810184848401111561147e5761147d611dfd565b5b611489848285611c49565b509392505050565b6000813590506114a081611e98565b92915050565b600082601f8301126114bb576114ba611df3565b5b81356114cb8482602086016112e1565b91505092915050565b600082601f8301126114e9576114e8611df3565b5b81356114f9848260208601611351565b91505092915050565b600082601f83011261151757611516611df3565b5b81356115278482602086016113df565b91505092915050565b600082601f83011261154557611544611df3565b5b813561155584826020860161144f565b91505092915050565b60008135905061156d81611eaf565b92915050565b6000806040838503121561158a57611589611e07565b5b600061159885828601611491565b92505060206115a98582860161155e565b9150509250929050565b6000806000606084860312156115cc576115cb611e07565b5b600084013567ffffffffffffffff8111156115ea576115e9611e02565b5b6115f6868287016114a6565b935050602084013567ffffffffffffffff81111561161757611616611e02565b5b61162386828701611502565b92505060406116348682870161155e565b9150509250925092565b6000806000806080858703121561165857611657611e07565b5b600085013567ffffffffffffffff81111561167657611675611e02565b5b61168287828801611530565b94505060206116938782880161155e565b935050604085013567ffffffffffffffff8111156116b4576116b3611e02565b5b6116c0878288016114a6565b92505060606116d18782880161155e565b91505092959194509250565b6000806000606084860312156116f6576116f5611e07565b5b600084013567ffffffffffffffff81111561171457611713611e02565b5b61172086828701611530565b93505060206117318682870161155e565b92505060406117428682870161155e565b9150509250925092565b60006020828403121561176257611761611e07565b5b60006117708482850161155e565b91505092915050565b60008060006060848603121561179257611791611e07565b5b60006117a08682870161155e565b935050602084013567ffffffffffffffff8111156117c1576117c0611e02565b5b6117cd868287016114d4565b92505060406117de86828701611491565b9150509250925092565b600080604083850312156117ff576117fe611e07565b5b600061180d8582860161155e565b925050602083013567ffffffffffffffff81111561182e5761182d611e02565b5b61183a85828601611530565b9150509250929050565b61184d81611c01565b82525050565b61185c81611c13565b82525050565b600061186d82611bb1565b6118778185611bbc565b9350611887818560208601611c58565b61189081611e0c565b840191505092915050565b60006118a8600983611bbc565b91506118b382611e1d565b602082019050919050565b60006118cb600c83611bbc565b91506118d682611e46565b602082019050919050565b60006118ee600d83611bbc565b91506118f982611e6f565b602082019050919050565b61190d81611c3f565b82525050565b60006060820190506119286000830186611844565b818103602083015261193a8185611862565b90506119496040830184611904565b949350505050565b60006040820190506119666000830185611844565b6119736020830184611904565b9392505050565b600060608201905061198f6000830186611844565b61199c6020830185611904565b81810360408301526119ae8184611862565b9050949350505050565b60006020820190506119cd6000830184611853565b92915050565b600060208201905081810360008301526119ed8184611862565b905092915050565b60006040820190508181036000830152611a0f8185611862565b9050611a1e6020830184611904565b9392505050565b60006020820190508181036000830152611a3e8161189b565b9050919050565b60006020820190508181036000830152611a5e816118be565b9050919050565b60006020820190508181036000830152611a7e816118e1565b9050919050565b6000602082019050611a9a6000830184611904565b92915050565b6000606082019050611ab56000830186611904565b611ac26020830185611904565b611acf6040830184611904565b949350505050565b6000611ae1611af2565b9050611aed8282611cbd565b919050565b6000604051905090565b600067ffffffffffffffff821115611b1757611b16611dc4565b5b602082029050602081019050919050565b600067ffffffffffffffff821115611b4357611b42611dc4565b5b602082029050602081019050919050565b600067ffffffffffffffff821115611b6f57611b6e611dc4565b5b602082029050602081019050919050565b600067ffffffffffffffff821115611b9b57611b9a611dc4565b5b611ba482611e0c565b9050602081019050919050565b600081519050919050565b600082825260208201905092915050565b6000611bd882611c3f565b9150611be383611c3f565b925082821015611bf657611bf5611d37565b5b828203905092915050565b6000611c0c82611c1f565b9050919050565b60008115159050919050565b600073ffffffffffffffffffffffffffffffffffffffff82169050919050565b6000819050919050565b82818337600083830152505050565b60005b83811015611c76578082015181840152602081019050611c5b565b83811115611c85576000848401525b50505050565b60006002820490506001821680611ca357607f821691505b60208210811415611cb757611cb6611d66565b5b50919050565b611cc682611e0c565b810181811067ffffffffffffffff82111715611ce557611ce4611dc4565b5b80604052505050565b6000611cf982611c3f565b91507fffffffffffffffffffffffffffffffffffffffffffffffffffffffffffffffff821415611d2c57611d2b611d37565b5b600182019050919050565b7f4e487b7100000000000000000000000000000000000000000000000000000000600052601160045260246000fd5b7f4e487b7100000000000000000000000000000000000000000000000000000000600052602260045260246000fd5b7f4e487b7100000000000000000000000000000000000000000000000000000000600052603260045260246000fd5b7f4e487b7100000000000000000000000000000000000000000000000000000000600052604160045260246000fd5b600080fd5b600080fd5b600080fd5b600080fd5b600080fd5b6000601f19601f8301169050919050565b7f57726f6e67206b65790000000000000000000000000000000000000000000000600082015250565b7f4944206265656e20757365640000000000000000000000000000000000000000600082015250565b7f4e6f205065726d697373696f6e00000000000000000000000000000000000000600082015250565b611ea181611c01565b8114611eac57600080fd5b50565b611eb881611c3f565b8114611ec357600080fd5b5056fea264697066735822122041e6b3106b57637b6b0c744c5804cf277e40e942ac13cf426ec457cfde9c3d7264736f6c63430008070033",
					"opcodes": "PUSH1 0x80 PUSH1 0x40 MSTORE CALLVALUE DUP1 ISZERO PUSH2 0x10 JUMPI PUSH1 0x0 DUP1 REVERT JUMPDEST POP CALLER PUSH1 0x0 DUP1 PUSH2 0x100 EXP DUP2 SLOAD DUP2 PUSH20 0xFFFFFFFFFFFFFFFFFFFFFFFFFFFFFFFFFFFFFFFF MUL NOT AND SWAP1 DUP4 PUSH20 0xFFFFFFFFFFFFFFFFFFFFFFFFFFFFFFFFFFFFFFFF AND MUL OR SWAP1 SSTORE POP PUSH2 0x1EFC DUP1 PUSH2 0x60 PUSH1 0x0 CODECOPY PUSH1 0x0 RETURN INVALID PUSH1 0x80 PUSH1 0x40 MSTORE CALLVALUE DUP1 ISZERO PUSH2 0x10 JUMPI PUSH1 0x0 DUP1 REVERT JUMPDEST POP PUSH1 0x4 CALLDATASIZE LT PUSH2 0xA9 JUMPI PUSH1 0x0 CALLDATALOAD PUSH1 0xE0 SHR DUP1 PUSH4 0x8AA430AF GT PUSH2 0x71 JUMPI DUP1 PUSH4 0x8AA430AF EQ PUSH2 0x14E JUMPI DUP1 PUSH4 0xA4DB23FC EQ PUSH2 0x16A JUMPI DUP1 PUSH4 0xBE19E121 EQ PUSH2 0x186 JUMPI DUP1 PUSH4 0xCB9F4099 EQ PUSH2 0x1A2 JUMPI DUP1 PUSH4 0xCF5765A9 EQ PUSH2 0x1BE JUMPI DUP1 PUSH4 0xD6F937E5 EQ PUSH2 0x1EE JUMPI PUSH2 0xA9 JUMP JUMPDEST DUP1 PUSH4 0x66F4570 EQ PUSH2 0xAE JUMPI DUP1 PUSH4 0x2C5AA9E6 EQ PUSH2 0xCA JUMPI DUP1 PUSH4 0x52CE9539 EQ PUSH2 0xFA JUMPI DUP1 PUSH4 0x6E0DA702 EQ PUSH2 0x116 JUMPI DUP1 PUSH4 0x81B0BA6C EQ PUSH2 0x132 JUMPI JUMPDEST PUSH1 0x0 DUP1 REVERT JUMPDEST PUSH2 0xC8 PUSH1 0x4 DUP1 CALLDATASIZE SUB DUP2 ADD SWAP1 PUSH2 0xC3 SWAP2 SWAP1 PUSH2 0x17E8 JUMP JUMPDEST PUSH2 0x21E JUMP JUMPDEST STOP JUMPDEST PUSH2 0xE4 PUSH1 0x4 DUP1 CALLDATASIZE SUB DUP2 ADD SWAP1 PUSH2 0xDF SWAP2 SWAP1 PUSH2 0x163E JUMP JUMPDEST PUSH2 0x2DB JUMP JUMPDEST PUSH1 0x40 MLOAD PUSH2 0xF1 SWAP2 SWAP1 PUSH2 0x19B8 JUMP JUMPDEST PUSH1 0x40 MLOAD DUP1 SWAP2 SUB SWAP1 RETURN JUMPDEST PUSH2 0x114 PUSH1 0x4 DUP1 CALLDATASIZE SUB DUP2 ADD SWAP1 PUSH2 0x10F SWAP2 SWAP1 PUSH2 0x174C JUMP JUMPDEST PUSH2 0x48B JUMP JUMPDEST STOP JUMPDEST PUSH2 0x130 PUSH1 0x4 DUP1 CALLDATASIZE SUB DUP2 ADD SWAP1 PUSH2 0x12B SWAP2 SWAP1 PUSH2 0x1779 JUMP JUMPDEST PUSH2 0x5B8 JUMP JUMPDEST STOP JUMPDEST PUSH2 0x14C PUSH1 0x4 DUP1 CALLDATASIZE SUB DUP2 ADD SWAP1 PUSH2 0x147 SWAP2 SWAP1 PUSH2 0x17E8 JUMP JUMPDEST PUSH2 0x6D6 JUMP JUMPDEST STOP JUMPDEST PUSH2 0x168 PUSH1 0x4 DUP1 CALLDATASIZE SUB DUP2 ADD SWAP1 PUSH2 0x163 SWAP2 SWAP1 PUSH2 0x174C JUMP JUMPDEST PUSH2 0x80A JUMP JUMPDEST STOP JUMPDEST PUSH2 0x184 PUSH1 0x4 DUP1 CALLDATASIZE SUB DUP2 ADD SWAP1 PUSH2 0x17F SWAP2 SWAP1 PUSH2 0x174C JUMP JUMPDEST PUSH2 0x993 JUMP JUMPDEST STOP JUMPDEST PUSH2 0x1A0 PUSH1 0x4 DUP1 CALLDATASIZE SUB DUP2 ADD SWAP1 PUSH2 0x19B SWAP2 SWAP1 PUSH2 0x15B3 JUMP JUMPDEST PUSH2 0xAF4 JUMP JUMPDEST STOP JUMPDEST PUSH2 0x1BC PUSH1 0x4 DUP1 CALLDATASIZE SUB DUP2 ADD SWAP1 PUSH2 0x1B7 SWAP2 SWAP1 PUSH2 0x16DD JUMP JUMPDEST PUSH2 0xC74 JUMP JUMPDEST STOP JUMPDEST PUSH2 0x1D8 PUSH1 0x4 DUP1 CALLDATASIZE SUB DUP2 ADD SWAP1 PUSH2 0x1D3 SWAP2 SWAP1 PUSH2 0x174C JUMP JUMPDEST PUSH2 0xE1F JUMP JUMPDEST PUSH1 0x40 MLOAD PUSH2 0x1E5 SWAP2 SWAP1 PUSH2 0x19D3 JUMP JUMPDEST PUSH1 0x40 MLOAD DUP1 SWAP2 SUB SWAP1 RETURN JUMPDEST PUSH2 0x208 PUSH1 0x4 DUP1 CALLDATASIZE SUB DUP2 ADD SWAP1 PUSH2 0x203 SWAP2 SWAP1 PUSH2 0x1573 JUMP JUMPDEST PUSH2 0xEC7 JUMP JUMPDEST PUSH1 0x40 MLOAD PUSH2 0x215 SWAP2 SWAP1 PUSH2 0x19D3 JUMP JUMPDEST PUSH1 0x40 MLOAD DUP1 SWAP2 SUB SWAP1 RETURN JUMPDEST PUSH1 0x0 DUP1 SLOAD SWAP1 PUSH2 0x100 EXP SWAP1 DIV PUSH20 0xFFFFFFFFFFFFFFFFFFFFFFFFFFFFFFFFFFFFFFFF AND PUSH20 0xFFFFFFFFFFFFFFFFFFFFFFFFFFFFFFFFFFFFFFFF AND CALLER PUSH20 0xFFFFFFFFFFFFFFFFFFFFFFFFFFFFFFFFFFFFFFFF AND EQ PUSH2 0x2AC JUMPI PUSH1 0x40 MLOAD PUSH32 0x8C379A000000000000000000000000000000000000000000000000000000000 DUP2 MSTORE PUSH1 0x4 ADD PUSH2 0x2A3 SWAP1 PUSH2 0x1A65 JUMP JUMPDEST PUSH1 0x40 MLOAD DUP1 SWAP2 SUB SWAP1 REVERT JUMPDEST DUP1 PUSH1 0x1 PUSH1 0x0 DUP5 DUP2 MSTORE PUSH1 0x20 ADD SWAP1 DUP2 MSTORE PUSH1 0x20 ADD PUSH1 0x0 KECCAK256 PUSH1 0x9 ADD SWAP1 DUP1 MLOAD SWAP1 PUSH1 0x20 ADD SWAP1 PUSH2 0x2D6 SWAP3 SWAP2 SWAP1 PUSH2 0x10F0 JUMP JUMPDEST POP POP POP JUMP JUMPDEST PUSH1 0x0 PUSH1 0x2 PUSH1 0x0 DUP6 DUP2 MSTORE PUSH1 0x20 ADD SWAP1 DUP2 MSTORE PUSH1 0x20 ADD PUSH1 0x0 KECCAK256 PUSH1 0x0 SWAP1 SLOAD SWAP1 PUSH2 0x100 EXP SWAP1 DIV PUSH1 0xFF AND ISZERO PUSH2 0x33E JUMPI PUSH1 0x40 MLOAD PUSH32 0x8C379A000000000000000000000000000000000000000000000000000000000 DUP2 MSTORE PUSH1 0x4 ADD PUSH2 0x335 SWAP1 PUSH2 0x1A45 JUMP JUMPDEST PUSH1 0x40 MLOAD DUP1 SWAP2 SUB SWAP1 REVERT JUMPDEST CALLER PUSH1 0x1 PUSH1 0x0 DUP7 DUP2 MSTORE PUSH1 0x20 ADD SWAP1 DUP2 MSTORE PUSH1 0x20 ADD PUSH1 0x0 KECCAK256 PUSH1 0x0 ADD PUSH1 0x0 PUSH2 0x100 EXP DUP2 SLOAD DUP2 PUSH20 0xFFFFFFFFFFFFFFFFFFFFFFFFFFFFFFFFFFFFFFFF MUL NOT AND SWAP1 DUP4 PUSH20 0xFFFFFFFFFFFFFFFFFFFFFFFFFFFFFFFFFFFFFFFF AND MUL OR SWAP1 SSTORE POP DUP4 PUSH1 0x1 PUSH1 0x0 DUP7 DUP2 MSTORE PUSH1 0x20 ADD SWAP1 DUP2 MSTORE PUSH1 0x20 ADD PUSH1 0x0 KECCAK256 PUSH1 0x2 ADD DUP2 SWAP1 SSTORE POP DUP5 PUSH1 0x1 PUSH1 0x0 DUP7 DUP2 MSTORE PUSH1 0x20 ADD SWAP1 DUP2 MSTORE PUSH1 0x20 ADD PUSH1 0x0 KECCAK256 PUSH1 0x1 ADD SWAP1 DUP1 MLOAD SWAP1 PUSH1 0x20 ADD SWAP1 PUSH2 0x3D8 SWAP3 SWAP2 SWAP1 PUSH2 0x10F0 JUMP JUMPDEST POP PUSH1 0x0 PUSH1 0x1 PUSH1 0x0 DUP7 DUP2 MSTORE PUSH1 0x20 ADD SWAP1 DUP2 MSTORE PUSH1 0x20 ADD PUSH1 0x0 KECCAK256 PUSH1 0x3 ADD DUP2 SWAP1 SSTORE POP DUP2 PUSH1 0x1 PUSH1 0x0 DUP7 DUP2 MSTORE PUSH1 0x20 ADD SWAP1 DUP2 MSTORE PUSH1 0x20 ADD PUSH1 0x0 KECCAK256 PUSH1 0x5 ADD DUP2 SWAP1 SSTORE POP PUSH1 0x1 PUSH1 0x2 PUSH1 0x0 DUP7 DUP2 MSTORE PUSH1 0x20 ADD SWAP1 DUP2 MSTORE PUSH1 0x20 ADD PUSH1 0x0 KECCAK256 PUSH1 0x0 PUSH2 0x100 EXP DUP2 SLOAD DUP2 PUSH1 0xFF MUL NOT AND SWAP1 DUP4 ISZERO ISZERO MUL OR SWAP1 SSTORE POP PUSH2 0x446 DUP4 DUP6 PUSH2 0xFCF JUMP JUMPDEST PUSH32 0x6C3830A50DE779C9AE2BE039EF4FDC507722DAD61422C4059FB074FF00806625 DUP6 DUP6 PUSH1 0x40 MLOAD PUSH2 0x477 SWAP3 SWAP2 SWAP1 PUSH2 0x19F5 JUMP JUMPDEST PUSH1 0x40 MLOAD DUP1 SWAP2 SUB SWAP1 LOG1 PUSH1 0x1 SWAP1 POP SWAP5 SWAP4 POP POP POP POP JUMP JUMPDEST PUSH1 0x2 PUSH1 0x1 PUSH1 0x0 DUP4 DUP2 MSTORE PUSH1 0x20 ADD SWAP1 DUP2 MSTORE PUSH1 0x20 ADD PUSH1 0x0 KECCAK256 PUSH1 0x3 ADD SLOAD EQ PUSH2 0x4AE JUMPI PUSH1 0x0 DUP1 REVERT JUMPDEST PUSH1 0x1 PUSH1 0x0 DUP3 DUP2 MSTORE PUSH1 0x20 ADD SWAP1 DUP2 MSTORE PUSH1 0x20 ADD PUSH1 0x0 KECCAK256 PUSH1 0x0 ADD PUSH1 0x0 SWAP1 SLOAD SWAP1 PUSH2 0x100 EXP SWAP1 DIV PUSH20 0xFFFFFFFFFFFFFFFFFFFFFFFFFFFFFFFFFFFFFFFF AND PUSH20 0xFFFFFFFFFFFFFFFFFFFFFFFFFFFFFFFFFFFFFFFF AND CALLER PUSH20 0xFFFFFFFFFFFFFFFFFFFFFFFFFFFFFFFFFFFFFFFF AND EQ PUSH2 0x552 JUMPI PUSH1 0x40 MLOAD PUSH32 0x8C379A000000000000000000000000000000000000000000000000000000000 DUP2 MSTORE PUSH1 0x4 ADD PUSH2 0x549 SWAP1 PUSH2 0x1A65 JUMP JUMPDEST PUSH1 0x40 MLOAD DUP1 SWAP2 SUB SWAP1 REVERT JUMPDEST PUSH1 0x1 PUSH1 0x0 DUP3 DUP2 MSTORE PUSH1 0x20 ADD SWAP1 DUP2 MSTORE PUSH1 0x20 ADD PUSH1 0x0 KECCAK256 PUSH1 0x3 ADD PUSH1 0x0 DUP2 SLOAD DUP1 SWAP3 SWAP2 SWAP1 PUSH2 0x579 SWAP1 PUSH2 0x1CEE JUMP JUMPDEST SWAP2 SWAP1 POP SSTORE POP PUSH32 0x220A131E78E8341A040CD57D8377B7D26B59D04ECF790B0B8174F71D9DE1668F DUP2 PUSH1 0x40 MLOAD PUSH2 0x5AD SWAP2 SWAP1 PUSH2 0x1A85 JUMP JUMPDEST PUSH1 0x40 MLOAD DUP1 SWAP2 SUB SWAP1 LOG1 POP JUMP JUMPDEST PUSH1 0x2 PUSH1 0x1 PUSH1 0x0 DUP6 DUP2 MSTORE PUSH1 0x20 ADD SWAP1 DUP2 MSTORE PUSH1 0x20 ADD PUSH1 0x0 KECCAK256 PUSH1 0x3 ADD SLOAD EQ PUSH2 0x5DB JUMPI PUSH1 0x0 DUP1 REVERT JUMPDEST PUSH1 0x0 DUP1 SLOAD SWAP1 PUSH2 0x100 EXP SWAP1 DIV PUSH20 0xFFFFFFFFFFFFFFFFFFFFFFFFFFFFFFFFFFFFFFFF AND PUSH20 0xFFFFFFFFFFFFFFFFFFFFFFFFFFFFFFFFFFFFFFFF AND CALLER PUSH20 0xFFFFFFFFFFFFFFFFFFFFFFFFFFFFFFFFFFFFFFFF AND EQ PUSH2 0x669 JUMPI PUSH1 0x40 MLOAD PUSH32 0x8C379A000000000000000000000000000000000000000000000000000000000 DUP2 MSTORE PUSH1 0x4 ADD PUSH2 0x660 SWAP1 PUSH2 0x1A65 JUMP JUMPDEST PUSH1 0x40 MLOAD DUP1 SWAP2 SUB SWAP1 REVERT JUMPDEST DUP2 PUSH1 0x1 PUSH1 0x0 DUP6 DUP2 MSTORE PUSH1 0x20 ADD SWAP1 DUP2 MSTORE PUSH1 0x20 ADD PUSH1 0x0 KECCAK256 PUSH1 0xF ADD PUSH1 0x0 DUP4 PUSH20 0xFFFFFFFFFFFFFFFFFFFFFFFFFFFFFFFFFFFFFFFF AND PUSH20 0xFFFFFFFFFFFFFFFFFFFFFFFFFFFFFFFFFFFFFFFF AND DUP2 MSTORE PUSH1 0x20 ADD SWAP1 DUP2 MSTORE PUSH1 0x20 ADD PUSH1 0x0 KECCAK256 SWAP1 DUP1 MLOAD SWAP1 PUSH1 0x20 ADD SWAP1 PUSH2 0x6D0 SWAP3 SWAP2 SWAP1 PUSH2 0x1176 JUMP JUMPDEST POP POP POP POP JUMP JUMPDEST PUSH1 0x2 PUSH1 0x1 PUSH1 0x0 DUP5 DUP2 MSTORE PUSH1 0x20 ADD SWAP1 DUP2 MSTORE PUSH1 0x20 ADD PUSH1 0x0 KECCAK256 PUSH1 0x3 ADD SLOAD EQ PUSH2 0x6F9 JUMPI PUSH1 0x0 DUP1 REVERT JUMPDEST PUSH1 0x1 PUSH1 0x0 DUP4 DUP2 MSTORE PUSH1 0x20 ADD SWAP1 DUP2 MSTORE PUSH1 0x20 ADD PUSH1 0x0 KECCAK256 PUSH1 0xD ADD PUSH1 0x0 CALLER PUSH20 0xFFFFFFFFFFFFFFFFFFFFFFFFFFFFFFFFFFFFFFFF AND PUSH20 0xFFFFFFFFFFFFFFFFFFFFFFFFFFFFFFFFFFFFFFFF AND DUP2 MSTORE PUSH1 0x20 ADD SWAP1 DUP2 MSTORE PUSH1 0x20 ADD PUSH1 0x0 KECCAK256 PUSH1 0x0 SWAP1 SLOAD SWAP1 PUSH2 0x100 EXP SWAP1 DIV PUSH1 0xFF AND PUSH2 0x763 JUMPI PUSH1 0x0 DUP1 REVERT JUMPDEST DUP1 PUSH1 0x1 PUSH1 0x0 DUP5 DUP2 MSTORE PUSH1 0x20 ADD SWAP1 DUP2 MSTORE PUSH1 0x20 ADD PUSH1 0x0 KECCAK256 PUSH1 0xE ADD PUSH1 0x0 CALLER PUSH20 0xFFFFFFFFFFFFFFFFFFFFFFFFFFFFFFFFFFFFFFFF AND PUSH20 0xFFFFFFFFFFFFFFFFFFFFFFFFFFFFFFFFFFFFFFFF AND DUP2 MSTORE PUSH1 0x20 ADD SWAP1 DUP2 MSTORE PUSH1 0x20 ADD PUSH1 0x0 KECCAK256 SWAP1 DUP1 MLOAD SWAP1 PUSH1 0x20 ADD SWAP1 PUSH2 0x7CA SWAP3 SWAP2 SWAP1 PUSH2 0x10F0 JUMP JUMPDEST POP PUSH32 0xCF587D6F7810CA815A721731288D56CE776A43B184490EFBF7B6E2188AF5108B CALLER DUP4 DUP4 PUSH1 0x40 MLOAD PUSH2 0x7FE SWAP4 SWAP3 SWAP2 SWAP1 PUSH2 0x197A JUMP JUMPDEST PUSH1 0x40 MLOAD DUP1 SWAP2 SUB SWAP1 LOG1 POP POP JUMP JUMPDEST PUSH1 0x1 DUP1 PUSH1 0x0 DUP4 DUP2 MSTORE PUSH1 0x20 ADD SWAP1 DUP2 MSTORE PUSH1 0x20 ADD PUSH1 0x0 KECCAK256 PUSH1 0x3 ADD SLOAD EQ PUSH2 0x82C JUMPI PUSH1 0x0 DUP1 REVERT JUMPDEST PUSH1 0x1 PUSH1 0x0 DUP3 DUP2 MSTORE PUSH1 0x20 ADD SWAP1 DUP2 MSTORE PUSH1 0x20 ADD PUSH1 0x0 KECCAK256 PUSH1 0x0 ADD PUSH1 0x0 SWAP1 SLOAD SWAP1 PUSH2 0x100 EXP SWAP1 DIV PUSH20 0xFFFFFFFFFFFFFFFFFFFFFFFFFFFFFFFFFFFFFFFF AND PUSH20 0xFFFFFFFFFFFFFFFFFFFFFFFFFFFFFFFFFFFFFFFF AND CALLER PUSH20 0xFFFFFFFFFFFFFFFFFFFFFFFFFFFFFFFFFFFFFFFF AND EQ PUSH2 0x8D0 JUMPI PUSH1 0x40 MLOAD PUSH32 0x8C379A000000000000000000000000000000000000000000000000000000000 DUP2 MSTORE PUSH1 0x4 ADD PUSH2 0x8C7 SWAP1 PUSH2 0x1A65 JUMP JUMPDEST PUSH1 0x40 MLOAD DUP1 SWAP2 SUB SWAP1 REVERT JUMPDEST PUSH1 0x1 PUSH1 0x0 DUP3 DUP2 MSTORE PUSH1 0x20 ADD SWAP1 DUP2 MSTORE PUSH1 0x20 ADD PUSH1 0x0 KECCAK256 PUSH1 0x5 ADD SLOAD PUSH1 0x1 PUSH1 0x0 DUP4 DUP2 MSTORE PUSH1 0x20 ADD SWAP1 DUP2 MSTORE PUSH1 0x20 ADD PUSH1 0x0 KECCAK256 PUSH1 0x4 ADD SLOAD TIMESTAMP PUSH2 0x909 SWAP2 SWAP1 PUSH2 0x1BCD JUMP JUMPDEST GT PUSH2 0x913 JUMPI PUSH1 0x0 DUP1 REVERT JUMPDEST PUSH1 0x1 PUSH1 0x0 DUP3 DUP2 MSTORE PUSH1 0x20 ADD SWAP1 DUP2 MSTORE PUSH1 0x20 ADD PUSH1 0x0 KECCAK256 PUSH1 0x3 ADD PUSH1 0x0 DUP2 SLOAD DUP1 SWAP3 SWAP2 SWAP1 PUSH2 0x93A SWAP1 PUSH2 0x1CEE JUMP JUMPDEST SWAP2 SWAP1 POP SSTORE POP PUSH32 0x6D3C27AC9C0E2B532D3134FC77F00406A0F871F15158ACD1A534FF32F02B2EBF PUSH1 0x1 PUSH1 0x0 DUP4 DUP2 MSTORE PUSH1 0x20 ADD SWAP1 DUP2 MSTORE PUSH1 0x20 ADD PUSH1 0x0 KECCAK256 PUSH1 0x4 ADD SLOAD NUMBER DUP4 PUSH1 0x40 MLOAD PUSH2 0x988 SWAP4 SWAP3 SWAP2 SWAP1 PUSH2 0x1AA0 JUMP JUMPDEST PUSH1 0x40 MLOAD DUP1 SWAP2 SUB SWAP1 LOG1 POP JUMP JUMPDEST PUSH1 0x1 DUP1 PUSH1 0x0 DUP4 DUP2 MSTORE PUSH1 0x20 ADD SWAP1 DUP2 MSTORE PUSH1 0x20 ADD PUSH1 0x0 KECCAK256 PUSH1 0x3 ADD SLOAD LT PUSH2 0x9B5 JUMPI PUSH1 0x0 DUP1 REVERT JUMPDEST PUSH1 0x1 PUSH1 0x0 DUP3 DUP2 MSTORE PUSH1 0x20 ADD SWAP1 DUP2 MSTORE PUSH1 0x20 ADD PUSH1 0x0 KECCAK256 PUSH1 0x0 ADD PUSH1 0x0 SWAP1 SLOAD SWAP1 PUSH2 0x100 EXP SWAP1 DIV PUSH20 0xFFFFFFFFFFFFFFFFFFFFFFFFFFFFFFFFFFFFFFFF AND PUSH20 0xFFFFFFFFFFFFFFFFFFFFFFFFFFFFFFFFFFFFFFFF AND CALLER PUSH20 0xFFFFFFFFFFFFFFFFFFFFFFFFFFFFFFFFFFFFFFFF AND EQ PUSH2 0xA59 JUMPI PUSH1 0x40 MLOAD PUSH32 0x8C379A000000000000000000000000000000000000000000000000000000000 DUP2 MSTORE PUSH1 0x4 ADD PUSH2 0xA50 SWAP1 PUSH2 0x1A65 JUMP JUMPDEST PUSH1 0x40 MLOAD DUP1 SWAP2 SUB SWAP1 REVERT JUMPDEST PUSH1 0x1 PUSH1 0x0 DUP3 DUP2 MSTORE PUSH1 0x20 ADD SWAP1 DUP2 MSTORE PUSH1 0x20 ADD PUSH1 0x0 KECCAK256 PUSH1 0x3 ADD PUSH1 0x0 DUP2 SLOAD DUP1 SWAP3 SWAP2 SWAP1 PUSH2 0xA80 SWAP1 PUSH2 0x1CEE JUMP JUMPDEST SWAP2 SWAP1 POP SSTORE POP TIMESTAMP PUSH1 0x1 PUSH1 0x0 DUP4 DUP2 MSTORE PUSH1 0x20 ADD SWAP1 DUP2 MSTORE PUSH1 0x20 ADD PUSH1 0x0 KECCAK256 PUSH1 0x4 ADD DUP2 SWAP1 SSTORE POP PUSH32 0x72ED78084BA8CCD7ED78C0500FE00F29F9BCE811B89269A56CF18B4DCFA65344 PUSH1 0x1 PUSH1 0x0 DUP4 DUP2 MSTORE PUSH1 0x20 ADD SWAP1 DUP2 MSTORE PUSH1 0x20 ADD PUSH1 0x0 KECCAK256 PUSH1 0x4 ADD SLOAD NUMBER DUP4 PUSH1 0x40 MLOAD PUSH2 0xAE9 SWAP4 SWAP3 SWAP2 SWAP1 PUSH2 0x1AA0 JUMP JUMPDEST PUSH1 0x40 MLOAD DUP1 SWAP2 SUB SWAP1 LOG1 POP JUMP JUMPDEST PUSH1 0x1 DUP1 PUSH1 0x0 DUP4 DUP2 MSTORE PUSH1 0x20 ADD SWAP1 DUP2 MSTORE PUSH1 0x20 ADD PUSH1 0x0 KECCAK256 PUSH1 0x3 ADD SLOAD LT PUSH2 0xB16 JUMPI PUSH1 0x0 DUP1 REVERT JUMPDEST PUSH1 0x0 DUP1 SLOAD SWAP1 PUSH2 0x100 EXP SWAP1 DIV PUSH20 0xFFFFFFFFFFFFFFFFFFFFFFFFFFFFFFFFFFFFFFFF AND PUSH20 0xFFFFFFFFFFFFFFFFFFFFFFFFFFFFFFFFFFFFFFFF AND CALLER PUSH20 0xFFFFFFFFFFFFFFFFFFFFFFFFFFFFFFFFFFFFFFFF AND EQ DUP1 PUSH2 0xBD1 JUMPI POP PUSH1 0x1 PUSH1 0x0 DUP3 DUP2 MSTORE PUSH1 0x20 ADD SWAP1 DUP2 MSTORE PUSH1 0x20 ADD PUSH1 0x0 KECCAK256 PUSH1 0x0 ADD PUSH1 0x0 SWAP1 SLOAD SWAP1 PUSH2 0x100 EXP SWAP1 DIV PUSH20 0xFFFFFFFFFFFFFFFFFFFFFFFFFFFFFFFFFFFFFFFF AND PUSH20 0xFFFFFFFFFFFFFFFFFFFFFFFFFFFFFFFFFFFFFFFF AND CALLER PUSH20 0xFFFFFFFFFFFFFFFFFFFFFFFFFFFFFFFFFFFFFFFF AND EQ JUMPDEST PUSH2 0xC10 JUMPI PUSH1 0x40 MLOAD PUSH32 0x8C379A000000000000000000000000000000000000000000000000000000000 DUP2 MSTORE PUSH1 0x4 ADD PUSH2 0xC07 SWAP1 PUSH2 0x1A65 JUMP JUMPDEST PUSH1 0x40 MLOAD DUP1 SWAP2 SUB SWAP1 REVERT JUMPDEST PUSH1 0x0 JUMPDEST DUP4 MLOAD DUP2 LT ISZERO PUSH2 0xC6E JUMPI PUSH2 0xC5B DUP5 DUP3 DUP2 MLOAD DUP2 LT PUSH2 0xC32 JUMPI PUSH2 0xC31 PUSH2 0x1D95 JUMP JUMPDEST JUMPDEST PUSH1 0x20 MUL PUSH1 0x20 ADD ADD MLOAD DUP5 DUP4 DUP2 MLOAD DUP2 LT PUSH2 0xC4D JUMPI PUSH2 0xC4C PUSH2 0x1D95 JUMP JUMPDEST JUMPDEST PUSH1 0x20 MUL PUSH1 0x20 ADD ADD MLOAD DUP5 PUSH2 0x1020 JUMP JUMPDEST DUP1 DUP1 PUSH2 0xC66 SWAP1 PUSH2 0x1CEE JUMP JUMPDEST SWAP2 POP POP PUSH2 0xC13 JUMP JUMPDEST POP POP POP POP JUMP JUMPDEST PUSH1 0x1 DUP1 PUSH1 0x0 DUP5 DUP2 MSTORE PUSH1 0x20 ADD SWAP1 DUP2 MSTORE PUSH1 0x20 ADD PUSH1 0x0 KECCAK256 PUSH1 0x3 ADD SLOAD EQ PUSH2 0xC96 JUMPI PUSH1 0x0 DUP1 REVERT JUMPDEST PUSH1 0x1 PUSH1 0x0 DUP4 DUP2 MSTORE PUSH1 0x20 ADD SWAP1 DUP2 MSTORE PUSH1 0x20 ADD PUSH1 0x0 KECCAK256 PUSH1 0xB ADD PUSH1 0x0 DUP3 DUP2 MSTORE PUSH1 0x20 ADD SWAP1 DUP2 MSTORE PUSH1 0x20 ADD PUSH1 0x0 KECCAK256 PUSH1 0x0 SWAP1 SLOAD SWAP1 PUSH2 0x100 EXP SWAP1 DIV PUSH20 0xFFFFFFFFFFFFFFFFFFFFFFFFFFFFFFFFFFFFFFFF AND PUSH20 0xFFFFFFFFFFFFFFFFFFFFFFFFFFFFFFFFFFFFFFFF AND CALLER PUSH20 0xFFFFFFFFFFFFFFFFFFFFFFFFFFFFFFFFFFFFFFFF AND EQ PUSH2 0xD4B JUMPI PUSH1 0x40 MLOAD PUSH32 0x8C379A000000000000000000000000000000000000000000000000000000000 DUP2 MSTORE PUSH1 0x4 ADD PUSH2 0xD42 SWAP1 PUSH2 0x1A25 JUMP JUMPDEST PUSH1 0x40 MLOAD DUP1 SWAP2 SUB SWAP1 REVERT JUMPDEST DUP3 PUSH1 0x1 PUSH1 0x0 DUP5 DUP2 MSTORE PUSH1 0x20 ADD SWAP1 DUP2 MSTORE PUSH1 0x20 ADD PUSH1 0x0 KECCAK256 PUSH1 0xC ADD PUSH1 0x0 CALLER PUSH20 0xFFFFFFFFFFFFFFFFFFFFFFFFFFFFFFFFFFFFFFFF AND PUSH20 0xFFFFFFFFFFFFFFFFFFFFFFFFFFFFFFFFFFFFFFFF AND DUP2 MSTORE PUSH1 0x20 ADD SWAP1 DUP2 MSTORE PUSH1 0x20 ADD PUSH1 0x0 KECCAK256 SWAP1 DUP1 MLOAD SWAP1 PUSH1 0x20 ADD SWAP1 PUSH2 0xDB2 SWAP3 SWAP2 SWAP1 PUSH2 0x10F0 JUMP JUMPDEST POP PUSH1 0x1 PUSH1 0x0 DUP4 DUP2 MSTORE PUSH1 0x20 ADD SWAP1 DUP2 MSTORE PUSH1 0x20 ADD PUSH1 0x0 KECCAK256 PUSH1 0x7 ADD PUSH1 0x0 DUP2 SLOAD DUP1 SWAP3 SWAP2 SWAP1 PUSH2 0xDDA SWAP1 PUSH2 0x1CEE JUMP JUMPDEST SWAP2 SWAP1 POP SSTORE POP PUSH32 0xC2D7E3C30328BFE2D5070F2C6C0DD93A439A518DCD8E0E115DBC992A607A8E66 CALLER DUP5 DUP5 PUSH1 0x40 MLOAD PUSH2 0xE12 SWAP4 SWAP3 SWAP2 SWAP1 PUSH2 0x1913 JUMP JUMPDEST PUSH1 0x40 MLOAD DUP1 SWAP2 SUB SWAP1 LOG1 POP POP POP JUMP JUMPDEST PUSH1 0x60 PUSH1 0x1 PUSH1 0x0 DUP4 DUP2 MSTORE PUSH1 0x20 ADD SWAP1 DUP2 MSTORE PUSH1 0x20 ADD PUSH1 0x0 KECCAK256 PUSH1 0x9 ADD DUP1 SLOAD PUSH2 0xE42 SWAP1 PUSH2 0x1C8B JUMP JUMPDEST DUP1 PUSH1 0x1F ADD PUSH1 0x20 DUP1 SWAP2 DIV MUL PUSH1 0x20 ADD PUSH1 0x40 MLOAD SWAP1 DUP2 ADD PUSH1 0x40 MSTORE DUP1 SWAP3 SWAP2 SWAP1 DUP2 DUP2 MSTORE PUSH1 0x20 ADD DUP3 DUP1 SLOAD PUSH2 0xE6E SWAP1 PUSH2 0x1C8B JUMP JUMPDEST DUP1 ISZERO PUSH2 0xEBB JUMPI DUP1 PUSH1 0x1F LT PUSH2 0xE90 JUMPI PUSH2 0x100 DUP1 DUP4 SLOAD DIV MUL DUP4 MSTORE SWAP2 PUSH1 0x20 ADD SWAP2 PUSH2 0xEBB JUMP JUMPDEST DUP3 ADD SWAP2 SWAP1 PUSH1 0x0 MSTORE PUSH1 0x20 PUSH1 0x0 KECCAK256 SWAP1 JUMPDEST DUP2 SLOAD DUP2 MSTORE SWAP1 PUSH1 0x1 ADD SWAP1 PUSH1 0x20 ADD DUP1 DUP4 GT PUSH2 0xE9E JUMPI DUP3 SWAP1 SUB PUSH1 0x1F AND DUP3 ADD SWAP2 JUMPDEST POP POP POP POP POP SWAP1 POP SWAP2 SWAP1 POP JUMP JUMPDEST PUSH1 0x60 PUSH1 0x1 DUP1 PUSH1 0x0 DUP5 DUP2 MSTORE PUSH1 0x20 ADD SWAP1 DUP2 MSTORE PUSH1 0x20 ADD PUSH1 0x0 KECCAK256 PUSH1 0x3 ADD SLOAD GT PUSH2 0xEEB JUMPI PUSH1 0x0 DUP1 REVERT JUMPDEST PUSH1 0x1 PUSH1 0x0 DUP4 DUP2 MSTORE PUSH1 0x20 ADD SWAP1 DUP2 MSTORE PUSH1 0x20 ADD PUSH1 0x0 KECCAK256 PUSH1 0xC ADD PUSH1 0x0 DUP5 PUSH20 0xFFFFFFFFFFFFFFFFFFFFFFFFFFFFFFFFFFFFFFFF AND PUSH20 0xFFFFFFFFFFFFFFFFFFFFFFFFFFFFFFFFFFFFFFFF AND DUP2 MSTORE PUSH1 0x20 ADD SWAP1 DUP2 MSTORE PUSH1 0x20 ADD PUSH1 0x0 KECCAK256 DUP1 SLOAD PUSH2 0xF49 SWAP1 PUSH2 0x1C8B JUMP JUMPDEST DUP1 PUSH1 0x1F ADD PUSH1 0x20 DUP1 SWAP2 DIV MUL PUSH1 0x20 ADD PUSH1 0x40 MLOAD SWAP1 DUP2 ADD PUSH1 0x40 MSTORE DUP1 SWAP3 SWAP2 SWAP1 DUP2 DUP2 MSTORE PUSH1 0x20 ADD DUP3 DUP1 SLOAD PUSH2 0xF75 SWAP1 PUSH2 0x1C8B JUMP JUMPDEST DUP1 ISZERO PUSH2 0xFC2 JUMPI DUP1 PUSH1 0x1F LT PUSH2 0xF97 JUMPI PUSH2 0x100 DUP1 DUP4 SLOAD DIV MUL DUP4 MSTORE SWAP2 PUSH1 0x20 ADD SWAP2 PUSH2 0xFC2 JUMP JUMPDEST DUP3 ADD SWAP2 SWAP1 PUSH1 0x0 MSTORE PUSH1 0x20 PUSH1 0x0 KECCAK256 SWAP1 JUMPDEST DUP2 SLOAD DUP2 MSTORE SWAP1 PUSH1 0x1 ADD SWAP1 PUSH1 0x20 ADD DUP1 DUP4 GT PUSH2 0xFA5 JUMPI DUP3 SWAP1 SUB PUSH1 0x1F AND DUP3 ADD SWAP2 JUMPDEST POP POP POP POP POP SWAP1 POP SWAP3 SWAP2 POP POP JUMP JUMPDEST PUSH1 0x1 DUP1 PUSH1 0x0 DUP4 DUP2 MSTORE PUSH1 0x20 ADD SWAP1 DUP2 MSTORE PUSH1 0x20 ADD PUSH1 0x0 KECCAK256 PUSH1 0x3 ADD SLOAD LT PUSH2 0xFF1 JUMPI PUSH1 0x0 DUP1 REVERT JUMPDEST DUP2 PUSH1 0x1 PUSH1 0x0 DUP4 DUP2 MSTORE PUSH1 0x20 ADD SWAP1 DUP2 MSTORE PUSH1 0x20 ADD PUSH1 0x0 KECCAK256 PUSH1 0xA ADD SWAP1 DUP1 MLOAD SWAP1 PUSH1 0x20 ADD SWAP1 PUSH2 0x101B SWAP3 SWAP2 SWAP1 PUSH2 0x11D6 JUMP JUMPDEST POP POP POP JUMP JUMPDEST DUP3 PUSH1 0x1 PUSH1 0x0 DUP4 DUP2 MSTORE PUSH1 0x20 ADD SWAP1 DUP2 MSTORE PUSH1 0x20 ADD PUSH1 0x0 KECCAK256 PUSH1 0xB ADD PUSH1 0x0 DUP5 DUP2 MSTORE PUSH1 0x20 ADD SWAP1 DUP2 MSTORE PUSH1 0x20 ADD PUSH1 0x0 KECCAK256 PUSH1 0x0 PUSH2 0x100 EXP DUP2 SLOAD DUP2 PUSH20 0xFFFFFFFFFFFFFFFFFFFFFFFFFFFFFFFFFFFFFFFF MUL NOT AND SWAP1 DUP4 PUSH20 0xFFFFFFFFFFFFFFFFFFFFFFFFFFFFFFFFFFFFFFFF AND MUL OR SWAP1 SSTORE POP PUSH1 0x1 PUSH1 0x0 DUP3 DUP2 MSTORE PUSH1 0x20 ADD SWAP1 DUP2 MSTORE PUSH1 0x20 ADD PUSH1 0x0 KECCAK256 PUSH1 0x6 ADD PUSH1 0x0 DUP2 SLOAD DUP1 SWAP3 SWAP2 SWAP1 PUSH2 0x10AD SWAP1 PUSH2 0x1CEE JUMP JUMPDEST SWAP2 SWAP1 POP SSTORE POP PUSH32 0x4AD260FDB84F8458E9AE5BFB9F78B3A60D8DAEBA55271AC59884C0F6CB4E0435 DUP4 DUP3 PUSH1 0x40 MLOAD PUSH2 0x10E3 SWAP3 SWAP2 SWAP1 PUSH2 0x1951 JUMP JUMPDEST PUSH1 0x40 MLOAD DUP1 SWAP2 SUB SWAP1 LOG1 POP POP POP JUMP JUMPDEST DUP3 DUP1 SLOAD PUSH2 0x10FC SWAP1 PUSH2 0x1C8B JUMP JUMPDEST SWAP1 PUSH1 0x0 MSTORE PUSH1 0x20 PUSH1 0x0 KECCAK256 SWAP1 PUSH1 0x1F ADD PUSH1 0x20 SWAP1 DIV DUP2 ADD SWAP3 DUP3 PUSH2 0x111E JUMPI PUSH1 0x0 DUP6 SSTORE PUSH2 0x1165 JUMP JUMPDEST DUP3 PUSH1 0x1F LT PUSH2 0x1137 JUMPI DUP1 MLOAD PUSH1 0xFF NOT AND DUP4 DUP1 ADD OR DUP6 SSTORE PUSH2 0x1165 JUMP JUMPDEST DUP3 DUP1 ADD PUSH1 0x1 ADD DUP6 SSTORE DUP3 ISZERO PUSH2 0x1165 JUMPI SWAP2 DUP3 ADD JUMPDEST DUP3 DUP2 GT ISZERO PUSH2 0x1164 JUMPI DUP3 MLOAD DUP3 SSTORE SWAP2 PUSH1 0x20 ADD SWAP2 SWAP1 PUSH1 0x1 ADD SWAP1 PUSH2 0x1149 JUMP JUMPDEST JUMPDEST POP SWAP1 POP PUSH2 0x1172 SWAP2 SWAP1 PUSH2 0x1260 JUMP JUMPDEST POP SWAP1 JUMP JUMPDEST DUP3 DUP1 SLOAD DUP3 DUP3 SSTORE SWAP1 PUSH1 0x0 MSTORE PUSH1 0x20 PUSH1 0x0 KECCAK256 SWAP1 DUP2 ADD SWAP3 DUP3 ISZERO PUSH2 0x11C5 JUMPI SWAP2 PUSH1 0x20 MUL DUP3 ADD JUMPDEST DUP3 DUP2 GT ISZERO PUSH2 0x11C4 JUMPI DUP3 MLOAD DUP3 SWAP1 DUP1 MLOAD SWAP1 PUSH1 0x20 ADD SWAP1 PUSH2 0x11B4 SWAP3 SWAP2 SWAP1 PUSH2 0x10F0 JUMP JUMPDEST POP SWAP2 PUSH1 0x20 ADD SWAP2 SWAP1 PUSH1 0x1 ADD SWAP1 PUSH2 0x1196 JUMP JUMPDEST JUMPDEST POP SWAP1 POP PUSH2 0x11D2 SWAP2 SWAP1 PUSH2 0x127D JUMP JUMPDEST POP SWAP1 JUMP JUMPDEST DUP3 DUP1 SLOAD DUP3 DUP3 SSTORE SWAP1 PUSH1 0x0 MSTORE PUSH1 0x20 PUSH1 0x0 KECCAK256 SWAP1 DUP2 ADD SWAP3 DUP3 ISZERO PUSH2 0x124F JUMPI SWAP2 PUSH1 0x20 MUL DUP3 ADD JUMPDEST DUP3 DUP2 GT ISZERO PUSH2 0x124E JUMPI DUP3 MLOAD DUP3 PUSH1 0x0 PUSH2 0x100 EXP DUP2 SLOAD DUP2 PUSH20 0xFFFFFFFFFFFFFFFFFFFFFFFFFFFFFFFFFFFFFFFF MUL NOT AND SWAP1 DUP4 PUSH20 0xFFFFFFFFFFFFFFFFFFFFFFFFFFFFFFFFFFFFFFFF AND MUL OR SWAP1 SSTORE POP SWAP2 PUSH1 0x20 ADD SWAP2 SWAP1 PUSH1 0x1 ADD SWAP1 PUSH2 0x11F6 JUMP JUMPDEST JUMPDEST POP SWAP1 POP PUSH2 0x125C SWAP2 SWAP1 PUSH2 0x1260 JUMP JUMPDEST POP SWAP1 JUMP JUMPDEST JUMPDEST DUP1 DUP3 GT ISZERO PUSH2 0x1279 JUMPI PUSH1 0x0 DUP2 PUSH1 0x0 SWAP1 SSTORE POP PUSH1 0x1 ADD PUSH2 0x1261 JUMP JUMPDEST POP SWAP1 JUMP JUMPDEST JUMPDEST DUP1 DUP3 GT ISZERO PUSH2 0x129D JUMPI PUSH1 0x0 DUP2 DUP2 PUSH2 0x1294 SWAP2 SWAP1 PUSH2 0x12A1 JUMP JUMPDEST POP PUSH1 0x1 ADD PUSH2 0x127E JUMP JUMPDEST POP SWAP1 JUMP JUMPDEST POP DUP1 SLOAD PUSH2 0x12AD SWAP1 PUSH2 0x1C8B JUMP JUMPDEST PUSH1 0x0 DUP3 SSTORE DUP1 PUSH1 0x1F LT PUSH2 0x12BF JUMPI POP PUSH2 0x12DE JUMP JUMPDEST PUSH1 0x1F ADD PUSH1 0x20 SWAP1 DIV SWAP1 PUSH1 0x0 MSTORE PUSH1 0x20 PUSH1 0x0 KECCAK256 SWAP1 DUP2 ADD SWAP1 PUSH2 0x12DD SWAP2 SWAP1 PUSH2 0x1260 JUMP JUMPDEST JUMPDEST POP JUMP JUMPDEST PUSH1 0x0 PUSH2 0x12F4 PUSH2 0x12EF DUP5 PUSH2 0x1AFC JUMP JUMPDEST PUSH2 0x1AD7 JUMP JUMPDEST SWAP1 POP DUP1 DUP4 DUP3 MSTORE PUSH1 0x20 DUP3 ADD SWAP1 POP DUP3 DUP6 PUSH1 0x20 DUP7 MUL DUP3 ADD GT ISZERO PUSH2 0x1317 JUMPI PUSH2 0x1316 PUSH2 0x1DF8 JUMP JUMPDEST JUMPDEST PUSH1 0x0 JUMPDEST DUP6 DUP2 LT ISZERO PUSH2 0x1347 JUMPI DUP2 PUSH2 0x132D DUP9 DUP3 PUSH2 0x1491 JUMP JUMPDEST DUP5 MSTORE PUSH1 0x20 DUP5 ADD SWAP4 POP PUSH1 0x20 DUP4 ADD SWAP3 POP POP PUSH1 0x1 DUP2 ADD SWAP1 POP PUSH2 0x131A JUMP JUMPDEST POP POP POP SWAP4 SWAP3 POP POP POP JUMP JUMPDEST PUSH1 0x0 PUSH2 0x1364 PUSH2 0x135F DUP5 PUSH2 0x1B28 JUMP JUMPDEST PUSH2 0x1AD7 JUMP JUMPDEST SWAP1 POP DUP1 DUP4 DUP3 MSTORE PUSH1 0x20 DUP3 ADD SWAP1 POP DUP3 DUP6 PUSH1 0x20 DUP7 MUL DUP3 ADD GT ISZERO PUSH2 0x1387 JUMPI PUSH2 0x1386 PUSH2 0x1DF8 JUMP JUMPDEST JUMPDEST PUSH1 0x0 JUMPDEST DUP6 DUP2 LT ISZERO PUSH2 0x13D5 JUMPI DUP2 CALLDATALOAD PUSH8 0xFFFFFFFFFFFFFFFF DUP2 GT ISZERO PUSH2 0x13AD JUMPI PUSH2 0x13AC PUSH2 0x1DF3 JUMP JUMPDEST JUMPDEST DUP1 DUP7 ADD PUSH2 0x13BA DUP10 DUP3 PUSH2 0x1530 JUMP JUMPDEST DUP6 MSTORE PUSH1 0x20 DUP6 ADD SWAP5 POP PUSH1 0x20 DUP5 ADD SWAP4 POP POP POP PUSH1 0x1 DUP2 ADD SWAP1 POP PUSH2 0x138A JUMP JUMPDEST POP POP POP SWAP4 SWAP3 POP POP POP JUMP JUMPDEST PUSH1 0x0 PUSH2 0x13F2 PUSH2 0x13ED DUP5 PUSH2 0x1B54 JUMP JUMPDEST PUSH2 0x1AD7 JUMP JUMPDEST SWAP1 POP DUP1 DUP4 DUP3 MSTORE PUSH1 0x20 DUP3 ADD SWAP1 POP DUP3 DUP6 PUSH1 0x20 DUP7 MUL DUP3 ADD GT ISZERO PUSH2 0x1415 JUMPI PUSH2 0x1414 PUSH2 0x1DF8 JUMP JUMPDEST JUMPDEST PUSH1 0x0 JUMPDEST DUP6 DUP2 LT ISZERO PUSH2 0x1445 JUMPI DUP2 PUSH2 0x142B DUP9 DUP3 PUSH2 0x155E JUMP JUMPDEST DUP5 MSTORE PUSH1 0x20 DUP5 ADD SWAP4 POP PUSH1 0x20 DUP4 ADD SWAP3 POP POP PUSH1 0x1 DUP2 ADD SWAP1 POP PUSH2 0x1418 JUMP JUMPDEST POP POP POP SWAP4 SWAP3 POP POP POP JUMP JUMPDEST PUSH1 0x0 PUSH2 0x1462 PUSH2 0x145D DUP5 PUSH2 0x1B80 JUMP JUMPDEST PUSH2 0x1AD7 JUMP JUMPDEST SWAP1 POP DUP3 DUP2 MSTORE PUSH1 0x20 DUP2 ADD DUP5 DUP5 DUP5 ADD GT ISZERO PUSH2 0x147E JUMPI PUSH2 0x147D PUSH2 0x1DFD JUMP JUMPDEST JUMPDEST PUSH2 0x1489 DUP5 DUP3 DUP6 PUSH2 0x1C49 JUMP JUMPDEST POP SWAP4 SWAP3 POP POP POP JUMP JUMPDEST PUSH1 0x0 DUP2 CALLDATALOAD SWAP1 POP PUSH2 0x14A0 DUP2 PUSH2 0x1E98 JUMP JUMPDEST SWAP3 SWAP2 POP POP JUMP JUMPDEST PUSH1 0x0 DUP3 PUSH1 0x1F DUP4 ADD SLT PUSH2 0x14BB JUMPI PUSH2 0x14BA PUSH2 0x1DF3 JUMP JUMPDEST JUMPDEST DUP2 CALLDATALOAD PUSH2 0x14CB DUP5 DUP3 PUSH1 0x20 DUP7 ADD PUSH2 0x12E1 JUMP JUMPDEST SWAP2 POP POP SWAP3 SWAP2 POP POP JUMP JUMPDEST PUSH1 0x0 DUP3 PUSH1 0x1F DUP4 ADD SLT PUSH2 0x14E9 JUMPI PUSH2 0x14E8 PUSH2 0x1DF3 JUMP JUMPDEST JUMPDEST DUP2 CALLDATALOAD PUSH2 0x14F9 DUP5 DUP3 PUSH1 0x20 DUP7 ADD PUSH2 0x1351 JUMP JUMPDEST SWAP2 POP POP SWAP3 SWAP2 POP POP JUMP JUMPDEST PUSH1 0x0 DUP3 PUSH1 0x1F DUP4 ADD SLT PUSH2 0x1517 JUMPI PUSH2 0x1516 PUSH2 0x1DF3 JUMP JUMPDEST JUMPDEST DUP2 CALLDATALOAD PUSH2 0x1527 DUP5 DUP3 PUSH1 0x20 DUP7 ADD PUSH2 0x13DF JUMP JUMPDEST SWAP2 POP POP SWAP3 SWAP2 POP POP JUMP JUMPDEST PUSH1 0x0 DUP3 PUSH1 0x1F DUP4 ADD SLT PUSH2 0x1545 JUMPI PUSH2 0x1544 PUSH2 0x1DF3 JUMP JUMPDEST JUMPDEST DUP2 CALLDATALOAD PUSH2 0x1555 DUP5 DUP3 PUSH1 0x20 DUP7 ADD PUSH2 0x144F JUMP JUMPDEST SWAP2 POP POP SWAP3 SWAP2 POP POP JUMP JUMPDEST PUSH1 0x0 DUP2 CALLDATALOAD SWAP1 POP PUSH2 0x156D DUP2 PUSH2 0x1EAF JUMP JUMPDEST SWAP3 SWAP2 POP POP JUMP JUMPDEST PUSH1 0x0 DUP1 PUSH1 0x40 DUP4 DUP6 SUB SLT ISZERO PUSH2 0x158A JUMPI PUSH2 0x1589 PUSH2 0x1E07 JUMP JUMPDEST JUMPDEST PUSH1 0x0 PUSH2 0x1598 DUP6 DUP3 DUP7 ADD PUSH2 0x1491 JUMP JUMPDEST SWAP3 POP POP PUSH1 0x20 PUSH2 0x15A9 DUP6 DUP3 DUP7 ADD PUSH2 0x155E JUMP JUMPDEST SWAP2 POP POP SWAP3 POP SWAP3 SWAP1 POP JUMP JUMPDEST PUSH1 0x0 DUP1 PUSH1 0x0 PUSH1 0x60 DUP5 DUP7 SUB SLT ISZERO PUSH2 0x15CC JUMPI PUSH2 0x15CB PUSH2 0x1E07 JUMP JUMPDEST JUMPDEST PUSH1 0x0 DUP5 ADD CALLDATALOAD PUSH8 0xFFFFFFFFFFFFFFFF DUP2 GT ISZERO PUSH2 0x15EA JUMPI PUSH2 0x15E9 PUSH2 0x1E02 JUMP JUMPDEST JUMPDEST PUSH2 0x15F6 DUP7 DUP3 DUP8 ADD PUSH2 0x14A6 JUMP JUMPDEST SWAP4 POP POP PUSH1 0x20 DUP5 ADD CALLDATALOAD PUSH8 0xFFFFFFFFFFFFFFFF DUP2 GT ISZERO PUSH2 0x1617 JUMPI PUSH2 0x1616 PUSH2 0x1E02 JUMP JUMPDEST JUMPDEST PUSH2 0x1623 DUP7 DUP3 DUP8 ADD PUSH2 0x1502 JUMP JUMPDEST SWAP3 POP POP PUSH1 0x40 PUSH2 0x1634 DUP7 DUP3 DUP8 ADD PUSH2 0x155E JUMP JUMPDEST SWAP2 POP POP SWAP3 POP SWAP3 POP SWAP3 JUMP JUMPDEST PUSH1 0x0 DUP1 PUSH1 0x0 DUP1 PUSH1 0x80 DUP6 DUP8 SUB SLT ISZERO PUSH2 0x1658 JUMPI PUSH2 0x1657 PUSH2 0x1E07 JUMP JUMPDEST JUMPDEST PUSH1 0x0 DUP6 ADD CALLDATALOAD PUSH8 0xFFFFFFFFFFFFFFFF DUP2 GT ISZERO PUSH2 0x1676 JUMPI PUSH2 0x1675 PUSH2 0x1E02 JUMP JUMPDEST JUMPDEST PUSH2 0x1682 DUP8 DUP3 DUP9 ADD PUSH2 0x1530 JUMP JUMPDEST SWAP5 POP POP PUSH1 0x20 PUSH2 0x1693 DUP8 DUP3 DUP9 ADD PUSH2 0x155E JUMP JUMPDEST SWAP4 POP POP PUSH1 0x40 DUP6 ADD CALLDATALOAD PUSH8 0xFFFFFFFFFFFFFFFF DUP2 GT ISZERO PUSH2 0x16B4 JUMPI PUSH2 0x16B3 PUSH2 0x1E02 JUMP JUMPDEST JUMPDEST PUSH2 0x16C0 DUP8 DUP3 DUP9 ADD PUSH2 0x14A6 JUMP JUMPDEST SWAP3 POP POP PUSH1 0x60 PUSH2 0x16D1 DUP8 DUP3 DUP9 ADD PUSH2 0x155E JUMP JUMPDEST SWAP2 POP POP SWAP3 SWAP6 SWAP2 SWAP5 POP SWAP3 POP JUMP JUMPDEST PUSH1 0x0 DUP1 PUSH1 0x0 PUSH1 0x60 DUP5 DUP7 SUB SLT ISZERO PUSH2 0x16F6 JUMPI PUSH2 0x16F5 PUSH2 0x1E07 JUMP JUMPDEST JUMPDEST PUSH1 0x0 DUP5 ADD CALLDATALOAD PUSH8 0xFFFFFFFFFFFFFFFF DUP2 GT ISZERO PUSH2 0x1714 JUMPI PUSH2 0x1713 PUSH2 0x1E02 JUMP JUMPDEST JUMPDEST PUSH2 0x1720 DUP7 DUP3 DUP8 ADD PUSH2 0x1530 JUMP JUMPDEST SWAP4 POP POP PUSH1 0x20 PUSH2 0x1731 DUP7 DUP3 DUP8 ADD PUSH2 0x155E JUMP JUMPDEST SWAP3 POP POP PUSH1 0x40 PUSH2 0x1742 DUP7 DUP3 DUP8 ADD PUSH2 0x155E JUMP JUMPDEST SWAP2 POP POP SWAP3 POP SWAP3 POP SWAP3 JUMP JUMPDEST PUSH1 0x0 PUSH1 0x20 DUP3 DUP5 SUB SLT ISZERO PUSH2 0x1762 JUMPI PUSH2 0x1761 PUSH2 0x1E07 JUMP JUMPDEST JUMPDEST PUSH1 0x0 PUSH2 0x1770 DUP5 DUP3 DUP6 ADD PUSH2 0x155E JUMP JUMPDEST SWAP2 POP POP SWAP3 SWAP2 POP POP JUMP JUMPDEST PUSH1 0x0 DUP1 PUSH1 0x0 PUSH1 0x60 DUP5 DUP7 SUB SLT ISZERO PUSH2 0x1792 JUMPI PUSH2 0x1791 PUSH2 0x1E07 JUMP JUMPDEST JUMPDEST PUSH1 0x0 PUSH2 0x17A0 DUP7 DUP3 DUP8 ADD PUSH2 0x155E JUMP JUMPDEST SWAP4 POP POP PUSH1 0x20 DUP5 ADD CALLDATALOAD PUSH8 0xFFFFFFFFFFFFFFFF DUP2 GT ISZERO PUSH2 0x17C1 JUMPI PUSH2 0x17C0 PUSH2 0x1E02 JUMP JUMPDEST JUMPDEST PUSH2 0x17CD DUP7 DUP3 DUP8 ADD PUSH2 0x14D4 JUMP JUMPDEST SWAP3 POP POP PUSH1 0x40 PUSH2 0x17DE DUP7 DUP3 DUP8 ADD PUSH2 0x1491 JUMP JUMPDEST SWAP2 POP POP SWAP3 POP SWAP3 POP SWAP3 JUMP JUMPDEST PUSH1 0x0 DUP1 PUSH1 0x40 DUP4 DUP6 SUB SLT ISZERO PUSH2 0x17FF JUMPI PUSH2 0x17FE PUSH2 0x1E07 JUMP JUMPDEST JUMPDEST PUSH1 0x0 PUSH2 0x180D DUP6 DUP3 DUP7 ADD PUSH2 0x155E JUMP JUMPDEST SWAP3 POP POP PUSH1 0x20 DUP4 ADD CALLDATALOAD PUSH8 0xFFFFFFFFFFFFFFFF DUP2 GT ISZERO PUSH2 0x182E JUMPI PUSH2 0x182D PUSH2 0x1E02 JUMP JUMPDEST JUMPDEST PUSH2 0x183A DUP6 DUP3 DUP7 ADD PUSH2 0x1530 JUMP JUMPDEST SWAP2 POP POP SWAP3 POP SWAP3 SWAP1 POP JUMP JUMPDEST PUSH2 0x184D DUP2 PUSH2 0x1C01 JUMP JUMPDEST DUP3 MSTORE POP POP JUMP JUMPDEST PUSH2 0x185C DUP2 PUSH2 0x1C13 JUMP JUMPDEST DUP3 MSTORE POP POP JUMP JUMPDEST PUSH1 0x0 PUSH2 0x186D DUP3 PUSH2 0x1BB1 JUMP JUMPDEST PUSH2 0x1877 DUP2 DUP6 PUSH2 0x1BBC JUMP JUMPDEST SWAP4 POP PUSH2 0x1887 DUP2 DUP6 PUSH1 0x20 DUP7 ADD PUSH2 0x1C58 JUMP JUMPDEST PUSH2 0x1890 DUP2 PUSH2 0x1E0C JUMP JUMPDEST DUP5 ADD SWAP2 POP POP SWAP3 SWAP2 POP POP JUMP JUMPDEST PUSH1 0x0 PUSH2 0x18A8 PUSH1 0x9 DUP4 PUSH2 0x1BBC JUMP JUMPDEST SWAP2 POP PUSH2 0x18B3 DUP3 PUSH2 0x1E1D JUMP JUMPDEST PUSH1 0x20 DUP3 ADD SWAP1 POP SWAP2 SWAP1 POP JUMP JUMPDEST PUSH1 0x0 PUSH2 0x18CB PUSH1 0xC DUP4 PUSH2 0x1BBC JUMP JUMPDEST SWAP2 POP PUSH2 0x18D6 DUP3 PUSH2 0x1E46 JUMP JUMPDEST PUSH1 0x20 DUP3 ADD SWAP1 POP SWAP2 SWAP1 POP JUMP JUMPDEST PUSH1 0x0 PUSH2 0x18EE PUSH1 0xD DUP4 PUSH2 0x1BBC JUMP JUMPDEST SWAP2 POP PUSH2 0x18F9 DUP3 PUSH2 0x1E6F JUMP JUMPDEST PUSH1 0x20 DUP3 ADD SWAP1 POP SWAP2 SWAP1 POP JUMP JUMPDEST PUSH2 0x190D DUP2 PUSH2 0x1C3F JUMP JUMPDEST DUP3 MSTORE POP POP JUMP JUMPDEST PUSH1 0x0 PUSH1 0x60 DUP3 ADD SWAP1 POP PUSH2 0x1928 PUSH1 0x0 DUP4 ADD DUP7 PUSH2 0x1844 JUMP JUMPDEST DUP2 DUP2 SUB PUSH1 0x20 DUP4 ADD MSTORE PUSH2 0x193A DUP2 DUP6 PUSH2 0x1862 JUMP JUMPDEST SWAP1 POP PUSH2 0x1949 PUSH1 0x40 DUP4 ADD DUP5 PUSH2 0x1904 JUMP JUMPDEST SWAP5 SWAP4 POP POP POP POP JUMP JUMPDEST PUSH1 0x0 PUSH1 0x40 DUP3 ADD SWAP1 POP PUSH2 0x1966 PUSH1 0x0 DUP4 ADD DUP6 PUSH2 0x1844 JUMP JUMPDEST PUSH2 0x1973 PUSH1 0x20 DUP4 ADD DUP5 PUSH2 0x1904 JUMP JUMPDEST SWAP4 SWAP3 POP POP POP JUMP JUMPDEST PUSH1 0x0 PUSH1 0x60 DUP3 ADD SWAP1 POP PUSH2 0x198F PUSH1 0x0 DUP4 ADD DUP7 PUSH2 0x1844 JUMP JUMPDEST PUSH2 0x199C PUSH1 0x20 DUP4 ADD DUP6 PUSH2 0x1904 JUMP JUMPDEST DUP2 DUP2 SUB PUSH1 0x40 DUP4 ADD MSTORE PUSH2 0x19AE DUP2 DUP5 PUSH2 0x1862 JUMP JUMPDEST SWAP1 POP SWAP5 SWAP4 POP POP POP POP JUMP JUMPDEST PUSH1 0x0 PUSH1 0x20 DUP3 ADD SWAP1 POP PUSH2 0x19CD PUSH1 0x0 DUP4 ADD DUP5 PUSH2 0x1853 JUMP JUMPDEST SWAP3 SWAP2 POP POP JUMP JUMPDEST PUSH1 0x0 PUSH1 0x20 DUP3 ADD SWAP1 POP DUP2 DUP2 SUB PUSH1 0x0 DUP4 ADD MSTORE PUSH2 0x19ED DUP2 DUP5 PUSH2 0x1862 JUMP JUMPDEST SWAP1 POP SWAP3 SWAP2 POP POP JUMP JUMPDEST PUSH1 0x0 PUSH1 0x40 DUP3 ADD SWAP1 POP DUP2 DUP2 SUB PUSH1 0x0 DUP4 ADD MSTORE PUSH2 0x1A0F DUP2 DUP6 PUSH2 0x1862 JUMP JUMPDEST SWAP1 POP PUSH2 0x1A1E PUSH1 0x20 DUP4 ADD DUP5 PUSH2 0x1904 JUMP JUMPDEST SWAP4 SWAP3 POP POP POP JUMP JUMPDEST PUSH1 0x0 PUSH1 0x20 DUP3 ADD SWAP1 POP DUP2 DUP2 SUB PUSH1 0x0 DUP4 ADD MSTORE PUSH2 0x1A3E DUP2 PUSH2 0x189B JUMP JUMPDEST SWAP1 POP SWAP2 SWAP1 POP JUMP JUMPDEST PUSH1 0x0 PUSH1 0x20 DUP3 ADD SWAP1 POP DUP2 DUP2 SUB PUSH1 0x0 DUP4 ADD MSTORE PUSH2 0x1A5E DUP2 PUSH2 0x18BE JUMP JUMPDEST SWAP1 POP SWAP2 SWAP1 POP JUMP JUMPDEST PUSH1 0x0 PUSH1 0x20 DUP3 ADD SWAP1 POP DUP2 DUP2 SUB PUSH1 0x0 DUP4 ADD MSTORE PUSH2 0x1A7E DUP2 PUSH2 0x18E1 JUMP JUMPDEST SWAP1 POP SWAP2 SWAP1 POP JUMP JUMPDEST PUSH1 0x0 PUSH1 0x20 DUP3 ADD SWAP1 POP PUSH2 0x1A9A PUSH1 0x0 DUP4 ADD DUP5 PUSH2 0x1904 JUMP JUMPDEST SWAP3 SWAP2 POP POP JUMP JUMPDEST PUSH1 0x0 PUSH1 0x60 DUP3 ADD SWAP1 POP PUSH2 0x1AB5 PUSH1 0x0 DUP4 ADD DUP7 PUSH2 0x1904 JUMP JUMPDEST PUSH2 0x1AC2 PUSH1 0x20 DUP4 ADD DUP6 PUSH2 0x1904 JUMP JUMPDEST PUSH2 0x1ACF PUSH1 0x40 DUP4 ADD DUP5 PUSH2 0x1904 JUMP JUMPDEST SWAP5 SWAP4 POP POP POP POP JUMP JUMPDEST PUSH1 0x0 PUSH2 0x1AE1 PUSH2 0x1AF2 JUMP JUMPDEST SWAP1 POP PUSH2 0x1AED DUP3 DUP3 PUSH2 0x1CBD JUMP JUMPDEST SWAP2 SWAP1 POP JUMP JUMPDEST PUSH1 0x0 PUSH1 0x40 MLOAD SWAP1 POP SWAP1 JUMP JUMPDEST PUSH1 0x0 PUSH8 0xFFFFFFFFFFFFFFFF DUP3 GT ISZERO PUSH2 0x1B17 JUMPI PUSH2 0x1B16 PUSH2 0x1DC4 JUMP JUMPDEST JUMPDEST PUSH1 0x20 DUP3 MUL SWAP1 POP PUSH1 0x20 DUP2 ADD SWAP1 POP SWAP2 SWAP1 POP JUMP JUMPDEST PUSH1 0x0 PUSH8 0xFFFFFFFFFFFFFFFF DUP3 GT ISZERO PUSH2 0x1B43 JUMPI PUSH2 0x1B42 PUSH2 0x1DC4 JUMP JUMPDEST JUMPDEST PUSH1 0x20 DUP3 MUL SWAP1 POP PUSH1 0x20 DUP2 ADD SWAP1 POP SWAP2 SWAP1 POP JUMP JUMPDEST PUSH1 0x0 PUSH8 0xFFFFFFFFFFFFFFFF DUP3 GT ISZERO PUSH2 0x1B6F JUMPI PUSH2 0x1B6E PUSH2 0x1DC4 JUMP JUMPDEST JUMPDEST PUSH1 0x20 DUP3 MUL SWAP1 POP PUSH1 0x20 DUP2 ADD SWAP1 POP SWAP2 SWAP1 POP JUMP JUMPDEST PUSH1 0x0 PUSH8 0xFFFFFFFFFFFFFFFF DUP3 GT ISZERO PUSH2 0x1B9B JUMPI PUSH2 0x1B9A PUSH2 0x1DC4 JUMP JUMPDEST JUMPDEST PUSH2 0x1BA4 DUP3 PUSH2 0x1E0C JUMP JUMPDEST SWAP1 POP PUSH1 0x20 DUP2 ADD SWAP1 POP SWAP2 SWAP1 POP JUMP JUMPDEST PUSH1 0x0 DUP2 MLOAD SWAP1 POP SWAP2 SWAP1 POP JUMP JUMPDEST PUSH1 0x0 DUP3 DUP3 MSTORE PUSH1 0x20 DUP3 ADD SWAP1 POP SWAP3 SWAP2 POP POP JUMP JUMPDEST PUSH1 0x0 PUSH2 0x1BD8 DUP3 PUSH2 0x1C3F JUMP JUMPDEST SWAP2 POP PUSH2 0x1BE3 DUP4 PUSH2 0x1C3F JUMP JUMPDEST SWAP3 POP DUP3 DUP3 LT ISZERO PUSH2 0x1BF6 JUMPI PUSH2 0x1BF5 PUSH2 0x1D37 JUMP JUMPDEST JUMPDEST DUP3 DUP3 SUB SWAP1 POP SWAP3 SWAP2 POP POP JUMP JUMPDEST PUSH1 0x0 PUSH2 0x1C0C DUP3 PUSH2 0x1C1F JUMP JUMPDEST SWAP1 POP SWAP2 SWAP1 POP JUMP JUMPDEST PUSH1 0x0 DUP2 ISZERO ISZERO SWAP1 POP SWAP2 SWAP1 POP JUMP JUMPDEST PUSH1 0x0 PUSH20 0xFFFFFFFFFFFFFFFFFFFFFFFFFFFFFFFFFFFFFFFF DUP3 AND SWAP1 POP SWAP2 SWAP1 POP JUMP JUMPDEST PUSH1 0x0 DUP2 SWAP1 POP SWAP2 SWAP1 POP JUMP JUMPDEST DUP3 DUP2 DUP4 CALLDATACOPY PUSH1 0x0 DUP4 DUP4 ADD MSTORE POP POP POP JUMP JUMPDEST PUSH1 0x0 JUMPDEST DUP4 DUP2 LT ISZERO PUSH2 0x1C76 JUMPI DUP1 DUP3 ADD MLOAD DUP2 DUP5 ADD MSTORE PUSH1 0x20 DUP2 ADD SWAP1 POP PUSH2 0x1C5B JUMP JUMPDEST DUP4 DUP2 GT ISZERO PUSH2 0x1C85 JUMPI PUSH1 0x0 DUP5 DUP5 ADD MSTORE JUMPDEST POP POP POP POP JUMP JUMPDEST PUSH1 0x0 PUSH1 0x2 DUP3 DIV SWAP1 POP PUSH1 0x1 DUP3 AND DUP1 PUSH2 0x1CA3 JUMPI PUSH1 0x7F DUP3 AND SWAP2 POP JUMPDEST PUSH1 0x20 DUP3 LT DUP2 EQ ISZERO PUSH2 0x1CB7 JUMPI PUSH2 0x1CB6 PUSH2 0x1D66 JUMP JUMPDEST JUMPDEST POP SWAP2 SWAP1 POP JUMP JUMPDEST PUSH2 0x1CC6 DUP3 PUSH2 0x1E0C JUMP JUMPDEST DUP2 ADD DUP2 DUP2 LT PUSH8 0xFFFFFFFFFFFFFFFF DUP3 GT OR ISZERO PUSH2 0x1CE5 JUMPI PUSH2 0x1CE4 PUSH2 0x1DC4 JUMP JUMPDEST JUMPDEST DUP1 PUSH1 0x40 MSTORE POP POP POP JUMP JUMPDEST PUSH1 0x0 PUSH2 0x1CF9 DUP3 PUSH2 0x1C3F JUMP JUMPDEST SWAP2 POP PUSH32 0xFFFFFFFFFFFFFFFFFFFFFFFFFFFFFFFFFFFFFFFFFFFFFFFFFFFFFFFFFFFFFFFF DUP3 EQ ISZERO PUSH2 0x1D2C JUMPI PUSH2 0x1D2B PUSH2 0x1D37 JUMP JUMPDEST JUMPDEST PUSH1 0x1 DUP3 ADD SWAP1 POP SWAP2 SWAP1 POP JUMP JUMPDEST PUSH32 0x4E487B7100000000000000000000000000000000000000000000000000000000 PUSH1 0x0 MSTORE PUSH1 0x11 PUSH1 0x4 MSTORE PUSH1 0x24 PUSH1 0x0 REVERT JUMPDEST PUSH32 0x4E487B7100000000000000000000000000000000000000000000000000000000 PUSH1 0x0 MSTORE PUSH1 0x22 PUSH1 0x4 MSTORE PUSH1 0x24 PUSH1 0x0 REVERT JUMPDEST PUSH32 0x4E487B7100000000000000000000000000000000000000000000000000000000 PUSH1 0x0 MSTORE PUSH1 0x32 PUSH1 0x4 MSTORE PUSH1 0x24 PUSH1 0x0 REVERT JUMPDEST PUSH32 0x4E487B7100000000000000000000000000000000000000000000000000000000 PUSH1 0x0 MSTORE PUSH1 0x41 PUSH1 0x4 MSTORE PUSH1 0x24 PUSH1 0x0 REVERT JUMPDEST PUSH1 0x0 DUP1 REVERT JUMPDEST PUSH1 0x0 DUP1 REVERT JUMPDEST PUSH1 0x0 DUP1 REVERT JUMPDEST PUSH1 0x0 DUP1 REVERT JUMPDEST PUSH1 0x0 DUP1 REVERT JUMPDEST PUSH1 0x0 PUSH1 0x1F NOT PUSH1 0x1F DUP4 ADD AND SWAP1 POP SWAP2 SWAP1 POP JUMP JUMPDEST PUSH32 0x57726F6E67206B65790000000000000000000000000000000000000000000000 PUSH1 0x0 DUP3 ADD MSTORE POP JUMP JUMPDEST PUSH32 0x4944206265656E20757365640000000000000000000000000000000000000000 PUSH1 0x0 DUP3 ADD MSTORE POP JUMP JUMPDEST PUSH32 0x4E6F205065726D697373696F6E00000000000000000000000000000000000000 PUSH1 0x0 DUP3 ADD MSTORE POP JUMP JUMPDEST PUSH2 0x1EA1 DUP2 PUSH2 0x1C01 JUMP JUMPDEST DUP2 EQ PUSH2 0x1EAC JUMPI PUSH1 0x0 DUP1 REVERT JUMPDEST POP JUMP JUMPDEST PUSH2 0x1EB8 DUP2 PUSH2 0x1C3F JUMP JUMPDEST DUP2 EQ PUSH2 0x1EC3 JUMPI PUSH1 0x0 DUP1 REVERT JUMPDEST POP JUMP INVALID LOG2 PUSH5 0x6970667358 0x22 SLT KECCAK256 COINBASE 0xE6 0xB3 LT PUSH12 0x57637B6B0C744C5804CF277E BLOCKHASH 0xE9 TIMESTAMP 0xAC SGT 0xCF TIMESTAMP PUSH15 0xC457CFDE9C3D7264736F6C63430008 SMOD STOP CALLER "
				},
				"gasEstimates": {
					"creation": {
						"codeDepositCost": "1586400",
						"executionCost": "25925",
						"totalCost": "1612325"
					},
					"external": {
						"esecret_submit_end(uint256)": "infinite",
						"get_ballot(address,uint256)": "infinite",
						"get_publickey(uint256)": "infinite",
						"new_vote(string,uint256,address[],uint256)": "infinite",
						"set_publickey(uint256,string)": "infinite",
						"set_result(uint256,string[],address)": "infinite",
						"set_voters(address[],uint256[],uint256)": "infinite",
						"upload_esecret(uint256,string)": "infinite",
						"voting(string,uint256,uint256)": "infinite",
						"voting_end(uint256)": "infinite",
						"voting_start(uint256)": "infinite"
					},
					"internal": {
						"set_candidates(address[] memory,uint256)": "infinite",
						"set_voter(address,uint256,uint256)": "infinite"
					}
				},
				"methodIdentifiers": {
					"esecret_submit_end(uint256)": "52ce9539",
					"get_ballot(address,uint256)": "d6f937e5",
					"get_publickey(uint256)": "cf5765a9",
					"new_vote(string,uint256,address[],uint256)": "2c5aa9e6",
					"set_publickey(uint256,string)": "066f4570",
					"set_result(uint256,string[],address)": "6e0da702",
					"set_voters(address[],uint256[],uint256)": "be19e121",
					"upload_esecret(uint256,string)": "81b0ba6c",
					"voting(string,uint256,uint256)": "cb9f4099",
					"voting_end(uint256)": "8aa430af",
					"voting_start(uint256)": "a4db23fc"
				}
			},
			"storageLayout": {
				"storage": [
					{
						"astId": 3,
						"contract": "Vote_1.sol:Vote",
						"label": "_constractowner",
						"offset": 0,
						"slot": "0",
						"type": "t_address"
					},
					{
						"astId": 110,
						"contract": "Vote_1.sol:Vote",
						"label": "_vote",
						"offset": 0,
						"slot": "1",
						"type": "t_mapping(t_uint256,t_struct(_voting)105_storage)"
					},
					{
						"astId": 114,
						"contract": "Vote_1.sol:Vote",
						"label": "_vote_id_used",
						"offset": 0,
						"slot": "2",
						"type": "t_mapping(t_uint256,t_bool)"
					}
				],
				"types": {
					"t_address": {
						"encoding": "inplace",
						"label": "address",
						"numberOfBytes": "20"
					},
					"t_array(t_address)dyn_storage": {
						"base": "t_address",
						"encoding": "dynamic_array",
						"label": "address[]",
						"numberOfBytes": "32"
					},
					"t_array(t_string_storage)dyn_storage": {
						"base": "t_string_storage",
						"encoding": "dynamic_array",
						"label": "string[]",
						"numberOfBytes": "32"
					},
					"t_bool": {
						"encoding": "inplace",
						"label": "bool",
						"numberOfBytes": "1"
					},
					"t_mapping(t_address,t_array(t_string_storage)dyn_storage)": {
						"encoding": "mapping",
						"key": "t_address",
						"label": "mapping(address => string[])",
						"numberOfBytes": "32",
						"value": "t_array(t_string_storage)dyn_storage"
					},
					"t_mapping(t_address,t_bool)": {
						"encoding": "mapping",
						"key": "t_address",
						"label": "mapping(address => bool)",
						"numberOfBytes": "32",
						"value": "t_bool"
					},
					"t_mapping(t_address,t_string_storage)": {
						"encoding": "mapping",
						"key": "t_address",
						"label": "mapping(address => string)",
						"numberOfBytes": "32",
						"value": "t_string_storage"
					},
					"t_mapping(t_uint256,t_address)": {
						"encoding": "mapping",
						"key": "t_uint256",
						"label": "mapping(uint256 => address)",
						"numberOfBytes": "32",
						"value": "t_address"
					},
					"t_mapping(t_uint256,t_bool)": {
						"encoding": "mapping",
						"key": "t_uint256",
						"label": "mapping(uint256 => bool)",
						"numberOfBytes": "32",
						"value": "t_bool"
					},
					"t_mapping(t_uint256,t_struct(_voting)105_storage)": {
						"encoding": "mapping",
						"key": "t_uint256",
						"label": "mapping(uint256 => struct Vote._voting)",
						"numberOfBytes": "32",
						"value": "t_struct(_voting)105_storage"
					},
					"t_string_storage": {
						"encoding": "bytes",
						"label": "string",
						"numberOfBytes": "32"
					},
					"t_struct(_voting)105_storage": {
						"encoding": "inplace",
						"label": "struct Vote._voting",
						"members": [
							{
								"astId": 62,
								"contract": "Vote_1.sol:Vote",
								"label": "_invoker",
								"offset": 0,
								"slot": "0",
								"type": "t_address"
							},
							{
								"astId": 64,
								"contract": "Vote_1.sol:Vote",
								"label": "_title",
								"offset": 0,
								"slot": "1",
								"type": "t_string_storage"
							},
							{
								"astId": 66,
								"contract": "Vote_1.sol:Vote",
								"label": "_vote_id",
								"offset": 0,
								"slot": "2",
								"type": "t_uint256"
							},
							{
								"astId": 68,
								"contract": "Vote_1.sol:Vote",
								"label": "_voting_status",
								"offset": 0,
								"slot": "3",
								"type": "t_uint256"
							},
							{
								"astId": 70,
								"contract": "Vote_1.sol:Vote",
								"label": "_timestamp",
								"offset": 0,
								"slot": "4",
								"type": "t_uint256"
							},
							{
								"astId": 72,
								"contract": "Vote_1.sol:Vote",
								"label": "_duration",
								"offset": 0,
								"slot": "5",
								"type": "t_uint256"
							},
							{
								"astId": 74,
								"contract": "Vote_1.sol:Vote",
								"label": "_count",
								"offset": 0,
								"slot": "6",
								"type": "t_uint256"
							},
							{
								"astId": 76,
								"contract": "Vote_1.sol:Vote",
								"label": "_voted",
								"offset": 0,
								"slot": "7",
								"type": "t_uint256"
							},
							{
								"astId": 78,
								"contract": "Vote_1.sol:Vote",
								"label": "_voter_amount",
								"offset": 0,
								"slot": "8",
								"type": "t_uint256"
							},
							{
								"astId": 80,
								"contract": "Vote_1.sol:Vote",
								"label": "_pulickey",
								"offset": 0,
								"slot": "9",
								"type": "t_string_storage"
							},
							{
								"astId": 83,
								"contract": "Vote_1.sol:Vote",
								"label": "_candidate",
								"offset": 0,
								"slot": "10",
								"type": "t_array(t_address)dyn_storage"
							},
							{
								"astId": 87,
								"contract": "Vote_1.sol:Vote",
								"label": "voter_list",
								"offset": 0,
								"slot": "11",
								"type": "t_mapping(t_uint256,t_address)"
							},
							{
								"astId": 91,
								"contract": "Vote_1.sol:Vote",
								"label": "voter_ballot",
								"offset": 0,
								"slot": "12",
								"type": "t_mapping(t_address,t_string_storage)"
							},
							{
								"astId": 95,
								"contract": "Vote_1.sol:Vote",
								"label": "hasVoted",
								"offset": 0,
								"slot": "13",
								"type": "t_mapping(t_address,t_bool)"
							},
							{
								"astId": 99,
								"contract": "Vote_1.sol:Vote",
								"label": "ballot_esecret",
								"offset": 0,
								"slot": "14",
								"type": "t_mapping(t_address,t_string_storage)"
							},
							{
								"astId": 104,
								"contract": "Vote_1.sol:Vote",
								"label": "result",
								"offset": 0,
								"slot": "15",
								"type": "t_mapping(t_address,t_array(t_string_storage)dyn_storage)"
							}
						],
						"numberOfBytes": "512"
					},
					"t_uint256": {
						"encoding": "inplace",
						"label": "uint256",
						"numberOfBytes": "32"
					}
				}
			},
			"userdoc": {
				"kind": "user",
				"methods": {},
				"version": 1
			}
		}
	}
}