{
	"Desktop/Blockchain_project/backend/smartcontract/Vote_1.sol": {
		"Vote": {
			"abi": [
				{
					"inputs": [],
					"stateMutability": "nonpayable",
					"type": "constructor"
				},
				{
					"anonymous": false,
					"inputs": [
						{
							"indexed": false,
							"internalType": "uint256",
							"name": "end_time",
							"type": "uint256"
						},
						{
							"indexed": false,
							"internalType": "uint256",
							"name": "block_number",
							"type": "uint256"
						},
						{
							"indexed": false,
							"internalType": "uint256",
							"name": "proposal_id",
							"type": "uint256"
						}
					],
					"name": "Vote_end",
					"type": "event"
				},
				{
					"anonymous": false,
					"inputs": [
						{
							"indexed": false,
							"internalType": "uint256",
							"name": "start_time",
							"type": "uint256"
						},
						{
							"indexed": false,
							"internalType": "uint256",
							"name": "block_number",
							"type": "uint256"
						},
						{
							"indexed": false,
							"internalType": "uint256",
							"name": "proposal_id",
							"type": "uint256"
						}
					],
					"name": "Vote_start",
					"type": "event"
				},
				{
					"anonymous": false,
					"inputs": [
						{
							"indexed": false,
							"internalType": "address",
							"name": "voter",
							"type": "address"
						},
						{
							"indexed": false,
							"internalType": "uint256",
							"name": "proposal_id",
							"type": "uint256"
						}
					],
					"name": "Voter_set",
					"type": "event"
				},
				{
					"anonymous": false,
					"inputs": [
						{
							"indexed": false,
							"internalType": "address",
							"name": "voter",
							"type": "address"
						},
						{
							"indexed": false,
							"internalType": "string",
							"name": "ballot",
							"type": "string"
						},
						{
							"indexed": false,
							"internalType": "uint256",
							"name": "proposal_id",
							"type": "uint256"
						}
					],
					"name": "Voting_complete",
					"type": "event"
				},
				{
					"inputs": [
						{
							"internalType": "address",
							"name": "voter",
							"type": "address"
						},
						{
							"internalType": "uint256",
							"name": "proposal_id",
							"type": "uint256"
						}
					],
					"name": "get_ballot",
					"outputs": [
						{
							"internalType": "string",
							"name": "",
							"type": "string"
						}
					],
					"stateMutability": "view",
					"type": "function"
				},
				{
					"inputs": [
						{
							"internalType": "uint256",
							"name": "proposal_id",
							"type": "uint256"
						},
						{
							"internalType": "uint256",
							"name": "proposal_duration",
							"type": "uint256"
						}
					],
					"name": "new_proposal",
					"outputs": [
						{
							"internalType": "bool",
							"name": "",
							"type": "bool"
						}
					],
					"stateMutability": "nonpayable",
					"type": "function"
				},
				{
					"inputs": [
						{
							"internalType": "address[]",
							"name": "candidates",
							"type": "address[]"
						},
						{
							"internalType": "uint256",
							"name": "proposal_id",
							"type": "uint256"
						}
					],
					"name": "set_candidates",
					"outputs": [],
					"stateMutability": "nonpayable",
					"type": "function"
				},
				{
					"inputs": [
						{
							"internalType": "uint256",
							"name": "duration",
							"type": "uint256"
						},
						{
							"internalType": "uint256",
							"name": "proposal_id",
							"type": "uint256"
						}
					],
					"name": "set_duration",
					"outputs": [],
					"stateMutability": "nonpayable",
					"type": "function"
				},
				{
					"inputs": [
						{
							"internalType": "address[]",
							"name": "voters",
							"type": "address[]"
						},
						{
							"internalType": "uint256[]",
							"name": "user_id",
							"type": "uint256[]"
						},
						{
							"internalType": "uint256",
							"name": "proposal_id",
							"type": "uint256"
						}
					],
					"name": "set_voters",
					"outputs": [],
					"stateMutability": "nonpayable",
					"type": "function"
				},
				{
					"inputs": [
						{
							"internalType": "string",
							"name": "ballot",
							"type": "string"
						},
						{
							"internalType": "uint256",
							"name": "proposal_id",
							"type": "uint256"
						},
						{
							"internalType": "uint256",
							"name": "voter_id",
							"type": "uint256"
						}
					],
					"name": "voting",
					"outputs": [],
					"stateMutability": "nonpayable",
					"type": "function"
				},
				{
					"inputs": [
						{
							"internalType": "uint256",
							"name": "proposal_id",
							"type": "uint256"
						}
					],
					"name": "voting_end",
					"outputs": [],
					"stateMutability": "nonpayable",
					"type": "function"
				},
				{
					"inputs": [
						{
							"internalType": "uint256",
							"name": "proposal_id",
							"type": "uint256"
						}
					],
					"name": "voting_start",
					"outputs": [],
					"stateMutability": "nonpayable",
					"type": "function"
				}
			],
			"devdoc": {
				"kind": "dev",
				"methods": {},
				"version": 1
			},
			"evm": {
				"assembly": "    /* \"Desktop/Blockchain_project/backend/smartcontract/Vote_1.sol\":66:3916  contract Vote{... */\n  mstore(0x40, 0x80)\n    /* \"Desktop/Blockchain_project/backend/smartcontract/Vote_1.sol\":116:174  constructor(){... */\n  callvalue\n  dup1\n  iszero\n  tag_1\n  jumpi\n  0x00\n  dup1\n  revert\ntag_1:\n  pop\n    /* \"Desktop/Blockchain_project/backend/smartcontract/Vote_1.sol\":157:167  msg.sender */\n  caller\n    /* \"Desktop/Blockchain_project/backend/smartcontract/Vote_1.sol\":139:154  _constractowner */\n  0x00\n  dup1\n    /* \"Desktop/Blockchain_project/backend/smartcontract/Vote_1.sol\":139:167  _constractowner = msg.sender */\n  0x0100\n  exp\n  dup2\n  sload\n  dup2\n  0xffffffffffffffffffffffffffffffffffffffff\n  mul\n  not\n  and\n  swap1\n  dup4\n  0xffffffffffffffffffffffffffffffffffffffff\n  and\n  mul\n  or\n  swap1\n  sstore\n  pop\n    /* \"Desktop/Blockchain_project/backend/smartcontract/Vote_1.sol\":66:3916  contract Vote{... */\n  dataSize(sub_0)\n  dup1\n  dataOffset(sub_0)\n  0x00\n  codecopy\n  0x00\n  return\nstop\n\nsub_0: assembly {\n        /* \"Desktop/Blockchain_project/backend/smartcontract/Vote_1.sol\":66:3916  contract Vote{... */\n      mstore(0x40, 0x80)\n      callvalue\n      dup1\n      iszero\n      tag_1\n      jumpi\n      0x00\n      dup1\n      revert\n    tag_1:\n      pop\n      jumpi(tag_2, lt(calldatasize, 0x04))\n      shr(0xe0, calldataload(0x00))\n      dup1\n      0xbe19e121\n      gt\n      tag_11\n      jumpi\n      dup1\n      0xbe19e121\n      eq\n      tag_7\n      jumpi\n      dup1\n      0xcb9f4099\n      eq\n      tag_8\n      jumpi\n      dup1\n      0xd6f937e5\n      eq\n      tag_9\n      jumpi\n      dup1\n      0xfea9b717\n      eq\n      tag_10\n      jumpi\n      jump(tag_2)\n    tag_11:\n      dup1\n      0x50fae1d2\n      eq\n      tag_3\n      jumpi\n      dup1\n      0x730cb352\n      eq\n      tag_4\n      jumpi\n      dup1\n      0x8aa430af\n      eq\n      tag_5\n      jumpi\n      dup1\n      0xa4db23fc\n      eq\n      tag_6\n      jumpi\n    tag_2:\n      0x00\n      dup1\n      revert\n        /* \"Desktop/Blockchain_project/backend/smartcontract/Vote_1.sol\":3361:3561  function set_candidates(address [] memory candidates, uint proposal_id) public {... */\n    tag_3:\n      tag_12\n      0x04\n      dup1\n      calldatasize\n      sub\n      dup2\n      add\n      swap1\n      tag_13\n      swap2\n      swap1\n      tag_14\n      jump\t// in\n    tag_13:\n      tag_15\n      jump\t// in\n    tag_12:\n      stop\n        /* \"Desktop/Blockchain_project/backend/smartcontract/Vote_1.sol\":928:1389  function new_proposal(uint proposal_id, uint proposal_duration) public returns (bool){... */\n    tag_4:\n      tag_16\n      0x04\n      dup1\n      calldatasize\n      sub\n      dup2\n      add\n      swap1\n      tag_17\n      swap2\n      swap1\n      tag_18\n      jump\t// in\n    tag_17:\n      tag_19\n      jump\t// in\n    tag_16:\n      mload(0x40)\n      tag_20\n      swap2\n      swap1\n      tag_21\n      jump\t// in\n    tag_20:\n      mload(0x40)\n      dup1\n      swap2\n      sub\n      swap1\n      return\n        /* \"Desktop/Blockchain_project/backend/smartcontract/Vote_1.sol\":2666:3075  function voting_end(uint proposal_id) public {... */\n    tag_5:\n      tag_22\n      0x04\n      dup1\n      calldatasize\n      sub\n      dup2\n      add\n      swap1\n      tag_23\n      swap2\n      swap1\n      tag_24\n      jump\t// in\n    tag_23:\n      tag_25\n      jump\t// in\n    tag_22:\n      stop\n        /* \"Desktop/Blockchain_project/backend/smartcontract/Vote_1.sol\":2287:2660  function voting_start(uint proposal_id) public {... */\n    tag_6:\n      tag_26\n      0x04\n      dup1\n      calldatasize\n      sub\n      dup2\n      add\n      swap1\n      tag_27\n      swap2\n      swap1\n      tag_24\n      jump\t// in\n    tag_27:\n      tag_28\n      jump\t// in\n    tag_26:\n      stop\n        /* \"Desktop/Blockchain_project/backend/smartcontract/Vote_1.sol\":3567:3913  function set_voters(address [] memory voters, uint [] memory user_id, uint proposal_id) public {... */\n    tag_7:\n      tag_29\n      0x04\n      dup1\n      calldatasize\n      sub\n      dup2\n      add\n      swap1\n      tag_30\n      swap2\n      swap1\n      tag_31\n      jump\t// in\n    tag_30:\n      tag_32\n      jump\t// in\n    tag_29:\n      stop\n        /* \"Desktop/Blockchain_project/backend/smartcontract/Vote_1.sol\":1881:2281  function voting(string memory ballot, uint proposal_id, uint voter_id) public{... */\n    tag_8:\n      tag_33\n      0x04\n      dup1\n      calldatasize\n      sub\n      dup2\n      add\n      swap1\n      tag_34\n      swap2\n      swap1\n      tag_35\n      jump\t// in\n    tag_34:\n      tag_36\n      jump\t// in\n    tag_33:\n      stop\n        /* \"Desktop/Blockchain_project/backend/smartcontract/Vote_1.sol\":3081:3355  function get_ballot(address voter, uint proposal_id) public view returns(string memory){... */\n    tag_9:\n      tag_37\n      0x04\n      dup1\n      calldatasize\n      sub\n      dup2\n      add\n      swap1\n      tag_38\n      swap2\n      swap1\n      tag_39\n      jump\t// in\n    tag_38:\n      tag_40\n      jump\t// in\n    tag_37:\n      mload(0x40)\n      tag_41\n      swap2\n      swap1\n      tag_42\n      jump\t// in\n    tag_41:\n      mload(0x40)\n      dup1\n      swap2\n      sub\n      swap1\n      return\n        /* \"Desktop/Blockchain_project/backend/smartcontract/Vote_1.sol\":1395:1638  function set_duration(uint duration, uint proposal_id) public {... */\n    tag_10:\n      tag_43\n      0x04\n      dup1\n      calldatasize\n      sub\n      dup2\n      add\n      swap1\n      tag_44\n      swap2\n      swap1\n      tag_18\n      jump\t// in\n    tag_44:\n      tag_45\n      jump\t// in\n    tag_43:\n      stop\n        /* \"Desktop/Blockchain_project/backend/smartcontract/Vote_1.sol\":3361:3561  function set_candidates(address [] memory candidates, uint proposal_id) public {... */\n    tag_15:\n        /* \"Desktop/Blockchain_project/backend/smartcontract/Vote_1.sol\":3496:3497  1 */\n      0x01\n        /* \"Desktop/Blockchain_project/backend/smartcontract/Vote_1.sol\":3458:3467  _proposal */\n      dup1\n        /* \"Desktop/Blockchain_project/backend/smartcontract/Vote_1.sol\":3458:3480  _proposal[proposal_id] */\n      0x00\n        /* \"Desktop/Blockchain_project/backend/smartcontract/Vote_1.sol\":3468:3479  proposal_id */\n      dup4\n        /* \"Desktop/Blockchain_project/backend/smartcontract/Vote_1.sol\":3458:3480  _proposal[proposal_id] */\n      dup2\n      mstore\n      0x20\n      add\n      swap1\n      dup2\n      mstore\n      0x20\n      add\n      0x00\n      keccak256\n        /* \"Desktop/Blockchain_project/backend/smartcontract/Vote_1.sol\":3458:3495  _proposal[proposal_id]._voting_status */\n      0x01\n      add\n      sload\n        /* \"Desktop/Blockchain_project/backend/smartcontract/Vote_1.sol\":3458:3497  _proposal[proposal_id]._voting_status<1 */\n      lt\n        /* \"Desktop/Blockchain_project/backend/smartcontract/Vote_1.sol\":3450:3498  require(_proposal[proposal_id]._voting_status<1) */\n      tag_47\n      jumpi\n      0x00\n      dup1\n      revert\n    tag_47:\n        /* \"Desktop/Blockchain_project/backend/smartcontract/Vote_1.sol\":3544:3554  candidates */\n      dup2\n        /* \"Desktop/Blockchain_project/backend/smartcontract/Vote_1.sol\":3508:3517  _proposal */\n      0x01\n        /* \"Desktop/Blockchain_project/backend/smartcontract/Vote_1.sol\":3508:3530  _proposal[proposal_id] */\n      0x00\n        /* \"Desktop/Blockchain_project/backend/smartcontract/Vote_1.sol\":3518:3529  proposal_id */\n      dup4\n        /* \"Desktop/Blockchain_project/backend/smartcontract/Vote_1.sol\":3508:3530  _proposal[proposal_id] */\n      dup2\n      mstore\n      0x20\n      add\n      swap1\n      dup2\n      mstore\n      0x20\n      add\n      0x00\n      keccak256\n        /* \"Desktop/Blockchain_project/backend/smartcontract/Vote_1.sol\":3508:3541  _proposal[proposal_id]._candidate */\n      0x07\n      add\n        /* \"Desktop/Blockchain_project/backend/smartcontract/Vote_1.sol\":3508:3554  _proposal[proposal_id]._candidate = candidates */\n      swap1\n      dup1\n      mload\n      swap1\n      0x20\n      add\n      swap1\n      tag_48\n      swap3\n      swap2\n      swap1\n      tag_49\n      jump\t// in\n    tag_48:\n      pop\n        /* \"Desktop/Blockchain_project/backend/smartcontract/Vote_1.sol\":3361:3561  function set_candidates(address [] memory candidates, uint proposal_id) public {... */\n      pop\n      pop\n      jump\t// out\n        /* \"Desktop/Blockchain_project/backend/smartcontract/Vote_1.sol\":928:1389  function new_proposal(uint proposal_id, uint proposal_duration) public returns (bool){... */\n    tag_19:\n        /* \"Desktop/Blockchain_project/backend/smartcontract/Vote_1.sol\":1008:1012  bool */\n      0x00\n        /* \"Desktop/Blockchain_project/backend/smartcontract/Vote_1.sol\":1043:1058  _constractowner */\n      dup1\n      0x00\n      swap1\n      sload\n      swap1\n      0x0100\n      exp\n      swap1\n      div\n      0xffffffffffffffffffffffffffffffffffffffff\n      and\n        /* \"Desktop/Blockchain_project/backend/smartcontract/Vote_1.sol\":1031:1058  msg.sender==_constractowner */\n      0xffffffffffffffffffffffffffffffffffffffff\n      and\n        /* \"Desktop/Blockchain_project/backend/smartcontract/Vote_1.sol\":1031:1041  msg.sender */\n      caller\n        /* \"Desktop/Blockchain_project/backend/smartcontract/Vote_1.sol\":1031:1058  msg.sender==_constractowner */\n      0xffffffffffffffffffffffffffffffffffffffff\n      and\n      eq\n        /* \"Desktop/Blockchain_project/backend/smartcontract/Vote_1.sol\":1023:1076  require(msg.sender==_constractowner, \"No Permission\") */\n      tag_51\n      jumpi\n      mload(0x40)\n      0x08c379a000000000000000000000000000000000000000000000000000000000\n      dup2\n      mstore\n      0x04\n      add\n      tag_52\n      swap1\n      tag_53\n      jump\t// in\n    tag_52:\n      mload(0x40)\n      dup1\n      swap2\n      sub\n      swap1\n      revert\n    tag_51:\n        /* \"Desktop/Blockchain_project/backend/smartcontract/Vote_1.sol\":1095:1112  _proposal_id_used */\n      0x02\n        /* \"Desktop/Blockchain_project/backend/smartcontract/Vote_1.sol\":1095:1125  _proposal_id_used[proposal_id] */\n      0x00\n        /* \"Desktop/Blockchain_project/backend/smartcontract/Vote_1.sol\":1113:1124  proposal_id */\n      dup5\n        /* \"Desktop/Blockchain_project/backend/smartcontract/Vote_1.sol\":1095:1125  _proposal_id_used[proposal_id] */\n      dup2\n      mstore\n      0x20\n      add\n      swap1\n      dup2\n      mstore\n      0x20\n      add\n      0x00\n      keccak256\n      0x00\n      swap1\n      sload\n      swap1\n      0x0100\n      exp\n      swap1\n      div\n      0xff\n      and\n        /* \"Desktop/Blockchain_project/backend/smartcontract/Vote_1.sol\":1094:1125  !_proposal_id_used[proposal_id] */\n      iszero\n        /* \"Desktop/Blockchain_project/backend/smartcontract/Vote_1.sol\":1086:1142  require(!_proposal_id_used[proposal_id], \"ID been used\") */\n      tag_54\n      jumpi\n      mload(0x40)\n      0x08c379a000000000000000000000000000000000000000000000000000000000\n      dup2\n      mstore\n      0x04\n      add\n      tag_55\n      swap1\n      tag_56\n      jump\t// in\n    tag_55:\n      mload(0x40)\n      dup1\n      swap2\n      sub\n      swap1\n      revert\n    tag_54:\n        /* \"Desktop/Blockchain_project/backend/smartcontract/Vote_1.sol\":1190:1201  proposal_id */\n      dup3\n        /* \"Desktop/Blockchain_project/backend/smartcontract/Vote_1.sol\":1152:1161  _proposal */\n      0x01\n        /* \"Desktop/Blockchain_project/backend/smartcontract/Vote_1.sol\":1152:1174  _proposal[proposal_id] */\n      0x00\n        /* \"Desktop/Blockchain_project/backend/smartcontract/Vote_1.sol\":1162:1173  proposal_id */\n      dup6\n        /* \"Desktop/Blockchain_project/backend/smartcontract/Vote_1.sol\":1152:1174  _proposal[proposal_id] */\n      dup2\n      mstore\n      0x20\n      add\n      swap1\n      dup2\n      mstore\n      0x20\n      add\n      0x00\n      keccak256\n        /* \"Desktop/Blockchain_project/backend/smartcontract/Vote_1.sol\":1152:1187  _proposal[proposal_id]._proposal_id */\n      0x00\n      add\n        /* \"Desktop/Blockchain_project/backend/smartcontract/Vote_1.sol\":1152:1201  _proposal[proposal_id]._proposal_id = proposal_id */\n      dup2\n      swap1\n      sstore\n      pop\n        /* \"Desktop/Blockchain_project/backend/smartcontract/Vote_1.sol\":1251:1252  0 */\n      0x00\n        /* \"Desktop/Blockchain_project/backend/smartcontract/Vote_1.sol\":1211:1220  _proposal */\n      0x01\n        /* \"Desktop/Blockchain_project/backend/smartcontract/Vote_1.sol\":1211:1233  _proposal[proposal_id] */\n      0x00\n        /* \"Desktop/Blockchain_project/backend/smartcontract/Vote_1.sol\":1221:1232  proposal_id */\n      dup6\n        /* \"Desktop/Blockchain_project/backend/smartcontract/Vote_1.sol\":1211:1233  _proposal[proposal_id] */\n      dup2\n      mstore\n      0x20\n      add\n      swap1\n      dup2\n      mstore\n      0x20\n      add\n      0x00\n      keccak256\n        /* \"Desktop/Blockchain_project/backend/smartcontract/Vote_1.sol\":1211:1248  _proposal[proposal_id]._voting_status */\n      0x01\n      add\n        /* \"Desktop/Blockchain_project/backend/smartcontract/Vote_1.sol\":1211:1252  _proposal[proposal_id]._voting_status = 0 */\n      dup2\n      swap1\n      sstore\n      pop\n        /* \"Desktop/Blockchain_project/backend/smartcontract/Vote_1.sol\":1297:1314  proposal_duration */\n      dup2\n        /* \"Desktop/Blockchain_project/backend/smartcontract/Vote_1.sol\":1262:1271  _proposal */\n      0x01\n        /* \"Desktop/Blockchain_project/backend/smartcontract/Vote_1.sol\":1262:1284  _proposal[proposal_id] */\n      0x00\n        /* \"Desktop/Blockchain_project/backend/smartcontract/Vote_1.sol\":1272:1283  proposal_id */\n      dup6\n        /* \"Desktop/Blockchain_project/backend/smartcontract/Vote_1.sol\":1262:1284  _proposal[proposal_id] */\n      dup2\n      mstore\n      0x20\n      add\n      swap1\n      dup2\n      mstore\n      0x20\n      add\n      0x00\n      keccak256\n        /* \"Desktop/Blockchain_project/backend/smartcontract/Vote_1.sol\":1262:1294  _proposal[proposal_id]._duration */\n      0x03\n      add\n        /* \"Desktop/Blockchain_project/backend/smartcontract/Vote_1.sol\":1262:1314  _proposal[proposal_id]._duration = proposal_duration */\n      dup2\n      swap1\n      sstore\n      pop\n        /* \"Desktop/Blockchain_project/backend/smartcontract/Vote_1.sol\":1357:1361  true */\n      0x01\n        /* \"Desktop/Blockchain_project/backend/smartcontract/Vote_1.sol\":1324:1341  _proposal_id_used */\n      0x02\n        /* \"Desktop/Blockchain_project/backend/smartcontract/Vote_1.sol\":1324:1354  _proposal_id_used[proposal_id] */\n      0x00\n        /* \"Desktop/Blockchain_project/backend/smartcontract/Vote_1.sol\":1342:1353  proposal_id */\n      dup6\n        /* \"Desktop/Blockchain_project/backend/smartcontract/Vote_1.sol\":1324:1354  _proposal_id_used[proposal_id] */\n      dup2\n      mstore\n      0x20\n      add\n      swap1\n      dup2\n      mstore\n      0x20\n      add\n      0x00\n      keccak256\n      0x00\n        /* \"Desktop/Blockchain_project/backend/smartcontract/Vote_1.sol\":1324:1361  _proposal_id_used[proposal_id] = true */\n      0x0100\n      exp\n      dup2\n      sload\n      dup2\n      0xff\n      mul\n      not\n      and\n      swap1\n      dup4\n      iszero\n      iszero\n      mul\n      or\n      swap1\n      sstore\n      pop\n        /* \"Desktop/Blockchain_project/backend/smartcontract/Vote_1.sol\":1378:1382  true */\n      0x01\n        /* \"Desktop/Blockchain_project/backend/smartcontract/Vote_1.sol\":1371:1382  return true */\n      swap1\n      pop\n        /* \"Desktop/Blockchain_project/backend/smartcontract/Vote_1.sol\":928:1389  function new_proposal(uint proposal_id, uint proposal_duration) public returns (bool){... */\n      swap3\n      swap2\n      pop\n      pop\n      jump\t// out\n        /* \"Desktop/Blockchain_project/backend/smartcontract/Vote_1.sol\":2666:3075  function voting_end(uint proposal_id) public {... */\n    tag_25:\n        /* \"Desktop/Blockchain_project/backend/smartcontract/Vote_1.sol\":2768:2769  1 */\n      0x01\n        /* \"Desktop/Blockchain_project/backend/smartcontract/Vote_1.sol\":2729:2738  _proposal */\n      dup1\n        /* \"Desktop/Blockchain_project/backend/smartcontract/Vote_1.sol\":2729:2751  _proposal[proposal_id] */\n      0x00\n        /* \"Desktop/Blockchain_project/backend/smartcontract/Vote_1.sol\":2739:2750  proposal_id */\n      dup4\n        /* \"Desktop/Blockchain_project/backend/smartcontract/Vote_1.sol\":2729:2751  _proposal[proposal_id] */\n      dup2\n      mstore\n      0x20\n      add\n      swap1\n      dup2\n      mstore\n      0x20\n      add\n      0x00\n      keccak256\n        /* \"Desktop/Blockchain_project/backend/smartcontract/Vote_1.sol\":2729:2766  _proposal[proposal_id]._voting_status */\n      0x01\n      add\n      sload\n        /* \"Desktop/Blockchain_project/backend/smartcontract/Vote_1.sol\":2729:2769  _proposal[proposal_id]._voting_status==1 */\n      eq\n        /* \"Desktop/Blockchain_project/backend/smartcontract/Vote_1.sol\":2721:2770  require(_proposal[proposal_id]._voting_status==1) */\n      tag_58\n      jumpi\n      0x00\n      dup1\n      revert\n    tag_58:\n        /* \"Desktop/Blockchain_project/backend/smartcontract/Vote_1.sol\":2800:2815  _constractowner */\n      0x00\n      dup1\n      sload\n      swap1\n      0x0100\n      exp\n      swap1\n      div\n      0xffffffffffffffffffffffffffffffffffffffff\n      and\n        /* \"Desktop/Blockchain_project/backend/smartcontract/Vote_1.sol\":2788:2815  msg.sender==_constractowner */\n      0xffffffffffffffffffffffffffffffffffffffff\n      and\n        /* \"Desktop/Blockchain_project/backend/smartcontract/Vote_1.sol\":2788:2798  msg.sender */\n      caller\n        /* \"Desktop/Blockchain_project/backend/smartcontract/Vote_1.sol\":2788:2815  msg.sender==_constractowner */\n      0xffffffffffffffffffffffffffffffffffffffff\n      and\n      eq\n        /* \"Desktop/Blockchain_project/backend/smartcontract/Vote_1.sol\":2780:2833  require(msg.sender==_constractowner, \"No Permission\") */\n      tag_59\n      jumpi\n      mload(0x40)\n      0x08c379a000000000000000000000000000000000000000000000000000000000\n      dup2\n      mstore\n      0x04\n      add\n      tag_60\n      swap1\n      tag_53\n      jump\t// in\n    tag_60:\n      mload(0x40)\n      dup1\n      swap2\n      sub\n      swap1\n      revert\n    tag_59:\n        /* \"Desktop/Blockchain_project/backend/smartcontract/Vote_1.sol\":2901:2910  _proposal */\n      0x01\n        /* \"Desktop/Blockchain_project/backend/smartcontract/Vote_1.sol\":2901:2923  _proposal[proposal_id] */\n      0x00\n        /* \"Desktop/Blockchain_project/backend/smartcontract/Vote_1.sol\":2911:2922  proposal_id */\n      dup3\n        /* \"Desktop/Blockchain_project/backend/smartcontract/Vote_1.sol\":2901:2923  _proposal[proposal_id] */\n      dup2\n      mstore\n      0x20\n      add\n      swap1\n      dup2\n      mstore\n      0x20\n      add\n      0x00\n      keccak256\n        /* \"Desktop/Blockchain_project/backend/smartcontract/Vote_1.sol\":2901:2933  _proposal[proposal_id]._duration */\n      0x03\n      add\n      sload\n        /* \"Desktop/Blockchain_project/backend/smartcontract/Vote_1.sol\":2867:2876  _proposal */\n      0x01\n        /* \"Desktop/Blockchain_project/backend/smartcontract/Vote_1.sol\":2867:2889  _proposal[proposal_id] */\n      0x00\n        /* \"Desktop/Blockchain_project/backend/smartcontract/Vote_1.sol\":2877:2888  proposal_id */\n      dup4\n        /* \"Desktop/Blockchain_project/backend/smartcontract/Vote_1.sol\":2867:2889  _proposal[proposal_id] */\n      dup2\n      mstore\n      0x20\n      add\n      swap1\n      dup2\n      mstore\n      0x20\n      add\n      0x00\n      keccak256\n        /* \"Desktop/Blockchain_project/backend/smartcontract/Vote_1.sol\":2867:2900  _proposal[proposal_id]._timestamp */\n      0x02\n      add\n      sload\n        /* \"Desktop/Blockchain_project/backend/smartcontract/Vote_1.sol\":2851:2866  block.timestamp */\n      timestamp\n        /* \"Desktop/Blockchain_project/backend/smartcontract/Vote_1.sol\":2851:2900  block.timestamp-_proposal[proposal_id]._timestamp */\n      tag_61\n      swap2\n      swap1\n      tag_62\n      jump\t// in\n    tag_61:\n        /* \"Desktop/Blockchain_project/backend/smartcontract/Vote_1.sol\":2851:2933  block.timestamp-_proposal[proposal_id]._timestamp>_proposal[proposal_id]._duration */\n      gt\n        /* \"Desktop/Blockchain_project/backend/smartcontract/Vote_1.sol\":2843:2934  require(block.timestamp-_proposal[proposal_id]._timestamp>_proposal[proposal_id]._duration) */\n      tag_63\n      jumpi\n      0x00\n      dup1\n      revert\n    tag_63:\n        /* \"Desktop/Blockchain_project/backend/smartcontract/Vote_1.sol\":2944:2953  _proposal */\n      0x01\n        /* \"Desktop/Blockchain_project/backend/smartcontract/Vote_1.sol\":2944:2966  _proposal[proposal_id] */\n      0x00\n        /* \"Desktop/Blockchain_project/backend/smartcontract/Vote_1.sol\":2954:2965  proposal_id */\n      dup3\n        /* \"Desktop/Blockchain_project/backend/smartcontract/Vote_1.sol\":2944:2966  _proposal[proposal_id] */\n      dup2\n      mstore\n      0x20\n      add\n      swap1\n      dup2\n      mstore\n      0x20\n      add\n      0x00\n      keccak256\n        /* \"Desktop/Blockchain_project/backend/smartcontract/Vote_1.sol\":2944:2981  _proposal[proposal_id]._voting_status */\n      0x01\n      add\n      0x00\n        /* \"Desktop/Blockchain_project/backend/smartcontract/Vote_1.sol\":2944:2983  _proposal[proposal_id]._voting_status++ */\n      dup2\n      sload\n      dup1\n      swap3\n      swap2\n      swap1\n      tag_64\n      swap1\n      tag_65\n      jump\t// in\n    tag_64:\n      swap2\n      swap1\n      pop\n      sstore\n      pop\n        /* \"Desktop/Blockchain_project/backend/smartcontract/Vote_1.sol\":2998:3068  Vote_end(_proposal[proposal_id]._timestamp, block.number, proposal_id) */\n      0x6d3c27ac9c0e2b532d3134fc77f00406a0f871f15158acd1a534ff32f02b2ebf\n        /* \"Desktop/Blockchain_project/backend/smartcontract/Vote_1.sol\":3007:3016  _proposal */\n      0x01\n        /* \"Desktop/Blockchain_project/backend/smartcontract/Vote_1.sol\":3007:3029  _proposal[proposal_id] */\n      0x00\n        /* \"Desktop/Blockchain_project/backend/smartcontract/Vote_1.sol\":3017:3028  proposal_id */\n      dup4\n        /* \"Desktop/Blockchain_project/backend/smartcontract/Vote_1.sol\":3007:3029  _proposal[proposal_id] */\n      dup2\n      mstore\n      0x20\n      add\n      swap1\n      dup2\n      mstore\n      0x20\n      add\n      0x00\n      keccak256\n        /* \"Desktop/Blockchain_project/backend/smartcontract/Vote_1.sol\":3007:3040  _proposal[proposal_id]._timestamp */\n      0x02\n      add\n      sload\n        /* \"Desktop/Blockchain_project/backend/smartcontract/Vote_1.sol\":3042:3054  block.number */\n      number\n        /* \"Desktop/Blockchain_project/backend/smartcontract/Vote_1.sol\":3056:3067  proposal_id */\n      dup4\n        /* \"Desktop/Blockchain_project/backend/smartcontract/Vote_1.sol\":2998:3068  Vote_end(_proposal[proposal_id]._timestamp, block.number, proposal_id) */\n      mload(0x40)\n      tag_66\n      swap4\n      swap3\n      swap2\n      swap1\n      tag_67\n      jump\t// in\n    tag_66:\n      mload(0x40)\n      dup1\n      swap2\n      sub\n      swap1\n      log1\n        /* \"Desktop/Blockchain_project/backend/smartcontract/Vote_1.sol\":2666:3075  function voting_end(uint proposal_id) public {... */\n      pop\n      jump\t// out\n        /* \"Desktop/Blockchain_project/backend/smartcontract/Vote_1.sol\":2287:2660  function voting_start(uint proposal_id) public {... */\n    tag_28:\n        /* \"Desktop/Blockchain_project/backend/smartcontract/Vote_1.sol\":2390:2391  1 */\n      0x01\n        /* \"Desktop/Blockchain_project/backend/smartcontract/Vote_1.sol\":2352:2361  _proposal */\n      dup1\n        /* \"Desktop/Blockchain_project/backend/smartcontract/Vote_1.sol\":2352:2374  _proposal[proposal_id] */\n      0x00\n        /* \"Desktop/Blockchain_project/backend/smartcontract/Vote_1.sol\":2362:2373  proposal_id */\n      dup4\n        /* \"Desktop/Blockchain_project/backend/smartcontract/Vote_1.sol\":2352:2374  _proposal[proposal_id] */\n      dup2\n      mstore\n      0x20\n      add\n      swap1\n      dup2\n      mstore\n      0x20\n      add\n      0x00\n      keccak256\n        /* \"Desktop/Blockchain_project/backend/smartcontract/Vote_1.sol\":2352:2389  _proposal[proposal_id]._voting_status */\n      0x01\n      add\n      sload\n        /* \"Desktop/Blockchain_project/backend/smartcontract/Vote_1.sol\":2352:2391  _proposal[proposal_id]._voting_status<1 */\n      lt\n        /* \"Desktop/Blockchain_project/backend/smartcontract/Vote_1.sol\":2344:2392  require(_proposal[proposal_id]._voting_status<1) */\n      tag_69\n      jumpi\n      0x00\n      dup1\n      revert\n    tag_69:\n        /* \"Desktop/Blockchain_project/backend/smartcontract/Vote_1.sol\":2422:2437  _constractowner */\n      0x00\n      dup1\n      sload\n      swap1\n      0x0100\n      exp\n      swap1\n      div\n      0xffffffffffffffffffffffffffffffffffffffff\n      and\n        /* \"Desktop/Blockchain_project/backend/smartcontract/Vote_1.sol\":2410:2437  msg.sender==_constractowner */\n      0xffffffffffffffffffffffffffffffffffffffff\n      and\n        /* \"Desktop/Blockchain_project/backend/smartcontract/Vote_1.sol\":2410:2420  msg.sender */\n      caller\n        /* \"Desktop/Blockchain_project/backend/smartcontract/Vote_1.sol\":2410:2437  msg.sender==_constractowner */\n      0xffffffffffffffffffffffffffffffffffffffff\n      and\n      eq\n        /* \"Desktop/Blockchain_project/backend/smartcontract/Vote_1.sol\":2402:2455  require(msg.sender==_constractowner, \"No Permission\") */\n      tag_70\n      jumpi\n      mload(0x40)\n      0x08c379a000000000000000000000000000000000000000000000000000000000\n      dup2\n      mstore\n      0x04\n      add\n      tag_71\n      swap1\n      tag_53\n      jump\t// in\n    tag_71:\n      mload(0x40)\n      dup1\n      swap2\n      sub\n      swap1\n      revert\n    tag_70:\n        /* \"Desktop/Blockchain_project/backend/smartcontract/Vote_1.sol\":2465:2474  _proposal */\n      0x01\n        /* \"Desktop/Blockchain_project/backend/smartcontract/Vote_1.sol\":2465:2487  _proposal[proposal_id] */\n      0x00\n        /* \"Desktop/Blockchain_project/backend/smartcontract/Vote_1.sol\":2475:2486  proposal_id */\n      dup3\n        /* \"Desktop/Blockchain_project/backend/smartcontract/Vote_1.sol\":2465:2487  _proposal[proposal_id] */\n      dup2\n      mstore\n      0x20\n      add\n      swap1\n      dup2\n      mstore\n      0x20\n      add\n      0x00\n      keccak256\n        /* \"Desktop/Blockchain_project/backend/smartcontract/Vote_1.sol\":2465:2502  _proposal[proposal_id]._voting_status */\n      0x01\n      add\n      0x00\n        /* \"Desktop/Blockchain_project/backend/smartcontract/Vote_1.sol\":2465:2505  _proposal[proposal_id]._voting_status ++ */\n      dup2\n      sload\n      dup1\n      swap3\n      swap2\n      swap1\n      tag_72\n      swap1\n      tag_65\n      jump\t// in\n    tag_72:\n      swap2\n      swap1\n      pop\n      sstore\n      pop\n        /* \"Desktop/Blockchain_project/backend/smartcontract/Vote_1.sol\":2551:2566  block.timestamp */\n      timestamp\n        /* \"Desktop/Blockchain_project/backend/smartcontract/Vote_1.sol\":2515:2524  _proposal */\n      0x01\n        /* \"Desktop/Blockchain_project/backend/smartcontract/Vote_1.sol\":2515:2537  _proposal[proposal_id] */\n      0x00\n        /* \"Desktop/Blockchain_project/backend/smartcontract/Vote_1.sol\":2525:2536  proposal_id */\n      dup4\n        /* \"Desktop/Blockchain_project/backend/smartcontract/Vote_1.sol\":2515:2537  _proposal[proposal_id] */\n      dup2\n      mstore\n      0x20\n      add\n      swap1\n      dup2\n      mstore\n      0x20\n      add\n      0x00\n      keccak256\n        /* \"Desktop/Blockchain_project/backend/smartcontract/Vote_1.sol\":2515:2548  _proposal[proposal_id]._timestamp */\n      0x02\n      add\n        /* \"Desktop/Blockchain_project/backend/smartcontract/Vote_1.sol\":2515:2566  _proposal[proposal_id]._timestamp = block.timestamp */\n      dup2\n      swap1\n      sstore\n      pop\n        /* \"Desktop/Blockchain_project/backend/smartcontract/Vote_1.sol\":2581:2653  Vote_start(_proposal[proposal_id]._timestamp, block.number, proposal_id) */\n      0x72ed78084ba8ccd7ed78c0500fe00f29f9bce811b89269a56cf18b4dcfa65344\n        /* \"Desktop/Blockchain_project/backend/smartcontract/Vote_1.sol\":2592:2601  _proposal */\n      0x01\n        /* \"Desktop/Blockchain_project/backend/smartcontract/Vote_1.sol\":2592:2614  _proposal[proposal_id] */\n      0x00\n        /* \"Desktop/Blockchain_project/backend/smartcontract/Vote_1.sol\":2602:2613  proposal_id */\n      dup4\n        /* \"Desktop/Blockchain_project/backend/smartcontract/Vote_1.sol\":2592:2614  _proposal[proposal_id] */\n      dup2\n      mstore\n      0x20\n      add\n      swap1\n      dup2\n      mstore\n      0x20\n      add\n      0x00\n      keccak256\n        /* \"Desktop/Blockchain_project/backend/smartcontract/Vote_1.sol\":2592:2625  _proposal[proposal_id]._timestamp */\n      0x02\n      add\n      sload\n        /* \"Desktop/Blockchain_project/backend/smartcontract/Vote_1.sol\":2627:2639  block.number */\n      number\n        /* \"Desktop/Blockchain_project/backend/smartcontract/Vote_1.sol\":2641:2652  proposal_id */\n      dup4\n        /* \"Desktop/Blockchain_project/backend/smartcontract/Vote_1.sol\":2581:2653  Vote_start(_proposal[proposal_id]._timestamp, block.number, proposal_id) */\n      mload(0x40)\n      tag_73\n      swap4\n      swap3\n      swap2\n      swap1\n      tag_67\n      jump\t// in\n    tag_73:\n      mload(0x40)\n      dup1\n      swap2\n      sub\n      swap1\n      log1\n        /* \"Desktop/Blockchain_project/backend/smartcontract/Vote_1.sol\":2287:2660  function voting_start(uint proposal_id) public {... */\n      pop\n      jump\t// out\n        /* \"Desktop/Blockchain_project/backend/smartcontract/Vote_1.sol\":3567:3913  function set_voters(address [] memory voters, uint [] memory user_id, uint proposal_id) public {... */\n    tag_32:\n        /* \"Desktop/Blockchain_project/backend/smartcontract/Vote_1.sol\":3718:3719  1 */\n      0x01\n        /* \"Desktop/Blockchain_project/backend/smartcontract/Vote_1.sol\":3680:3689  _proposal */\n      dup1\n        /* \"Desktop/Blockchain_project/backend/smartcontract/Vote_1.sol\":3680:3702  _proposal[proposal_id] */\n      0x00\n        /* \"Desktop/Blockchain_project/backend/smartcontract/Vote_1.sol\":3690:3701  proposal_id */\n      dup4\n        /* \"Desktop/Blockchain_project/backend/smartcontract/Vote_1.sol\":3680:3702  _proposal[proposal_id] */\n      dup2\n      mstore\n      0x20\n      add\n      swap1\n      dup2\n      mstore\n      0x20\n      add\n      0x00\n      keccak256\n        /* \"Desktop/Blockchain_project/backend/smartcontract/Vote_1.sol\":3680:3717  _proposal[proposal_id]._voting_status */\n      0x01\n      add\n      sload\n        /* \"Desktop/Blockchain_project/backend/smartcontract/Vote_1.sol\":3680:3719  _proposal[proposal_id]._voting_status<1 */\n      lt\n        /* \"Desktop/Blockchain_project/backend/smartcontract/Vote_1.sol\":3672:3720  require(_proposal[proposal_id]._voting_status<1) */\n      tag_75\n      jumpi\n      0x00\n      dup1\n      revert\n    tag_75:\n        /* \"Desktop/Blockchain_project/backend/smartcontract/Vote_1.sol\":3750:3765  _constractowner */\n      0x00\n      dup1\n      sload\n      swap1\n      0x0100\n      exp\n      swap1\n      div\n      0xffffffffffffffffffffffffffffffffffffffff\n      and\n        /* \"Desktop/Blockchain_project/backend/smartcontract/Vote_1.sol\":3738:3765  msg.sender==_constractowner */\n      0xffffffffffffffffffffffffffffffffffffffff\n      and\n        /* \"Desktop/Blockchain_project/backend/smartcontract/Vote_1.sol\":3738:3748  msg.sender */\n      caller\n        /* \"Desktop/Blockchain_project/backend/smartcontract/Vote_1.sol\":3738:3765  msg.sender==_constractowner */\n      0xffffffffffffffffffffffffffffffffffffffff\n      and\n      eq\n        /* \"Desktop/Blockchain_project/backend/smartcontract/Vote_1.sol\":3730:3783  require(msg.sender==_constractowner, \"No Permission\") */\n      tag_76\n      jumpi\n      mload(0x40)\n      0x08c379a000000000000000000000000000000000000000000000000000000000\n      dup2\n      mstore\n      0x04\n      add\n      tag_77\n      swap1\n      tag_53\n      jump\t// in\n    tag_77:\n      mload(0x40)\n      dup1\n      swap2\n      sub\n      swap1\n      revert\n    tag_76:\n        /* \"Desktop/Blockchain_project/backend/smartcontract/Vote_1.sol\":3797:3803  uint i */\n      0x00\n        /* \"Desktop/Blockchain_project/backend/smartcontract/Vote_1.sol\":3793:3907  for(uint i = 0; i < voters.length; i++){... */\n    tag_78:\n        /* \"Desktop/Blockchain_project/backend/smartcontract/Vote_1.sol\":3813:3819  voters */\n      dup4\n        /* \"Desktop/Blockchain_project/backend/smartcontract/Vote_1.sol\":3813:3826  voters.length */\n      mload\n        /* \"Desktop/Blockchain_project/backend/smartcontract/Vote_1.sol\":3809:3810  i */\n      dup2\n        /* \"Desktop/Blockchain_project/backend/smartcontract/Vote_1.sol\":3809:3826  i < voters.length */\n      lt\n        /* \"Desktop/Blockchain_project/backend/smartcontract/Vote_1.sol\":3793:3907  for(uint i = 0; i < voters.length; i++){... */\n      iszero\n      tag_79\n      jumpi\n        /* \"Desktop/Blockchain_project/backend/smartcontract/Vote_1.sol\":3846:3896  set_voter_list(voters[i], user_id[i], proposal_id) */\n      tag_81\n        /* \"Desktop/Blockchain_project/backend/smartcontract/Vote_1.sol\":3861:3867  voters */\n      dup5\n        /* \"Desktop/Blockchain_project/backend/smartcontract/Vote_1.sol\":3868:3869  i */\n      dup3\n        /* \"Desktop/Blockchain_project/backend/smartcontract/Vote_1.sol\":3861:3870  voters[i] */\n      dup2\n      mload\n      dup2\n      lt\n      tag_82\n      jumpi\n      tag_83\n      tag_84\n      jump\t// in\n    tag_83:\n    tag_82:\n      0x20\n      mul\n      0x20\n      add\n      add\n      mload\n        /* \"Desktop/Blockchain_project/backend/smartcontract/Vote_1.sol\":3872:3879  user_id */\n      dup5\n        /* \"Desktop/Blockchain_project/backend/smartcontract/Vote_1.sol\":3880:3881  i */\n      dup4\n        /* \"Desktop/Blockchain_project/backend/smartcontract/Vote_1.sol\":3872:3882  user_id[i] */\n      dup2\n      mload\n      dup2\n      lt\n      tag_85\n      jumpi\n      tag_86\n      tag_84\n      jump\t// in\n    tag_86:\n    tag_85:\n      0x20\n      mul\n      0x20\n      add\n      add\n      mload\n        /* \"Desktop/Blockchain_project/backend/smartcontract/Vote_1.sol\":3884:3895  proposal_id */\n      dup5\n        /* \"Desktop/Blockchain_project/backend/smartcontract/Vote_1.sol\":3846:3860  set_voter_list */\n      tag_87\n        /* \"Desktop/Blockchain_project/backend/smartcontract/Vote_1.sol\":3846:3896  set_voter_list(voters[i], user_id[i], proposal_id) */\n      jump\t// in\n    tag_81:\n        /* \"Desktop/Blockchain_project/backend/smartcontract/Vote_1.sol\":3828:3831  i++ */\n      dup1\n      dup1\n      tag_88\n      swap1\n      tag_65\n      jump\t// in\n    tag_88:\n      swap2\n      pop\n      pop\n        /* \"Desktop/Blockchain_project/backend/smartcontract/Vote_1.sol\":3793:3907  for(uint i = 0; i < voters.length; i++){... */\n      jump(tag_78)\n    tag_79:\n      pop\n        /* \"Desktop/Blockchain_project/backend/smartcontract/Vote_1.sol\":3567:3913  function set_voters(address [] memory voters, uint [] memory user_id, uint proposal_id) public {... */\n      pop\n      pop\n      pop\n      jump\t// out\n        /* \"Desktop/Blockchain_project/backend/smartcontract/Vote_1.sol\":1881:2281  function voting(string memory ballot, uint proposal_id, uint voter_id) public{... */\n    tag_36:\n        /* \"Desktop/Blockchain_project/backend/smartcontract/Vote_1.sol\":2015:2016  1 */\n      0x01\n        /* \"Desktop/Blockchain_project/backend/smartcontract/Vote_1.sol\":1976:1985  _proposal */\n      dup1\n        /* \"Desktop/Blockchain_project/backend/smartcontract/Vote_1.sol\":1976:1998  _proposal[proposal_id] */\n      0x00\n        /* \"Desktop/Blockchain_project/backend/smartcontract/Vote_1.sol\":1986:1997  proposal_id */\n      dup5\n        /* \"Desktop/Blockchain_project/backend/smartcontract/Vote_1.sol\":1976:1998  _proposal[proposal_id] */\n      dup2\n      mstore\n      0x20\n      add\n      swap1\n      dup2\n      mstore\n      0x20\n      add\n      0x00\n      keccak256\n        /* \"Desktop/Blockchain_project/backend/smartcontract/Vote_1.sol\":1976:2013  _proposal[proposal_id]._voting_status */\n      0x01\n      add\n      sload\n        /* \"Desktop/Blockchain_project/backend/smartcontract/Vote_1.sol\":1976:2016  _proposal[proposal_id]._voting_status==1 */\n      eq\n        /* \"Desktop/Blockchain_project/backend/smartcontract/Vote_1.sol\":1968:2017  require(_proposal[proposal_id]._voting_status==1) */\n      tag_90\n      jumpi\n      0x00\n      dup1\n      revert\n    tag_90:\n        /* \"Desktop/Blockchain_project/backend/smartcontract/Vote_1.sol\":2047:2056  _proposal */\n      0x01\n        /* \"Desktop/Blockchain_project/backend/smartcontract/Vote_1.sol\":2047:2069  _proposal[proposal_id] */\n      0x00\n        /* \"Desktop/Blockchain_project/backend/smartcontract/Vote_1.sol\":2057:2068  proposal_id */\n      dup4\n        /* \"Desktop/Blockchain_project/backend/smartcontract/Vote_1.sol\":2047:2069  _proposal[proposal_id] */\n      dup2\n      mstore\n      0x20\n      add\n      swap1\n      dup2\n      mstore\n      0x20\n      add\n      0x00\n      keccak256\n        /* \"Desktop/Blockchain_project/backend/smartcontract/Vote_1.sol\":2047:2080  _proposal[proposal_id].voter_list */\n      0x08\n      add\n        /* \"Desktop/Blockchain_project/backend/smartcontract/Vote_1.sol\":2047:2090  _proposal[proposal_id].voter_list[voter_id] */\n      0x00\n        /* \"Desktop/Blockchain_project/backend/smartcontract/Vote_1.sol\":2081:2089  voter_id */\n      dup3\n        /* \"Desktop/Blockchain_project/backend/smartcontract/Vote_1.sol\":2047:2090  _proposal[proposal_id].voter_list[voter_id] */\n      dup2\n      mstore\n      0x20\n      add\n      swap1\n      dup2\n      mstore\n      0x20\n      add\n      0x00\n      keccak256\n      0x00\n      swap1\n      sload\n      swap1\n      0x0100\n      exp\n      swap1\n      div\n      0xffffffffffffffffffffffffffffffffffffffff\n      and\n        /* \"Desktop/Blockchain_project/backend/smartcontract/Vote_1.sol\":2035:2090  msg.sender==_proposal[proposal_id].voter_list[voter_id] */\n      0xffffffffffffffffffffffffffffffffffffffff\n      and\n        /* \"Desktop/Blockchain_project/backend/smartcontract/Vote_1.sol\":2035:2045  msg.sender */\n      caller\n        /* \"Desktop/Blockchain_project/backend/smartcontract/Vote_1.sol\":2035:2090  msg.sender==_proposal[proposal_id].voter_list[voter_id] */\n      0xffffffffffffffffffffffffffffffffffffffff\n      and\n      eq\n        /* \"Desktop/Blockchain_project/backend/smartcontract/Vote_1.sol\":2027:2104  require(msg.sender==_proposal[proposal_id].voter_list[voter_id], \"Wrong key\") */\n      tag_91\n      jumpi\n      mload(0x40)\n      0x08c379a000000000000000000000000000000000000000000000000000000000\n      dup2\n      mstore\n      0x04\n      add\n      tag_92\n      swap1\n      tag_93\n      jump\t// in\n    tag_92:\n      mload(0x40)\n      dup1\n      swap2\n      sub\n      swap1\n      revert\n    tag_91:\n        /* \"Desktop/Blockchain_project/backend/smartcontract/Vote_1.sol\":2164:2170  ballot */\n      dup3\n        /* \"Desktop/Blockchain_project/backend/smartcontract/Vote_1.sol\":2114:2123  _proposal */\n      0x01\n        /* \"Desktop/Blockchain_project/backend/smartcontract/Vote_1.sol\":2114:2136  _proposal[proposal_id] */\n      0x00\n        /* \"Desktop/Blockchain_project/backend/smartcontract/Vote_1.sol\":2124:2135  proposal_id */\n      dup5\n        /* \"Desktop/Blockchain_project/backend/smartcontract/Vote_1.sol\":2114:2136  _proposal[proposal_id] */\n      dup2\n      mstore\n      0x20\n      add\n      swap1\n      dup2\n      mstore\n      0x20\n      add\n      0x00\n      keccak256\n        /* \"Desktop/Blockchain_project/backend/smartcontract/Vote_1.sol\":2114:2149  _proposal[proposal_id].voter_ballot */\n      0x09\n      add\n        /* \"Desktop/Blockchain_project/backend/smartcontract/Vote_1.sol\":2114:2161  _proposal[proposal_id].voter_ballot[msg.sender] */\n      0x00\n        /* \"Desktop/Blockchain_project/backend/smartcontract/Vote_1.sol\":2150:2160  msg.sender */\n      caller\n        /* \"Desktop/Blockchain_project/backend/smartcontract/Vote_1.sol\":2114:2161  _proposal[proposal_id].voter_ballot[msg.sender] */\n      0xffffffffffffffffffffffffffffffffffffffff\n      and\n      0xffffffffffffffffffffffffffffffffffffffff\n      and\n      dup2\n      mstore\n      0x20\n      add\n      swap1\n      dup2\n      mstore\n      0x20\n      add\n      0x00\n      keccak256\n        /* \"Desktop/Blockchain_project/backend/smartcontract/Vote_1.sol\":2114:2170  _proposal[proposal_id].voter_ballot[msg.sender] = ballot */\n      swap1\n      dup1\n      mload\n      swap1\n      0x20\n      add\n      swap1\n      tag_94\n      swap3\n      swap2\n      swap1\n      tag_95\n      jump\t// in\n    tag_94:\n      pop\n        /* \"Desktop/Blockchain_project/backend/smartcontract/Vote_1.sol\":2180:2189  _proposal */\n      0x01\n        /* \"Desktop/Blockchain_project/backend/smartcontract/Vote_1.sol\":2180:2202  _proposal[proposal_id] */\n      0x00\n        /* \"Desktop/Blockchain_project/backend/smartcontract/Vote_1.sol\":2190:2201  proposal_id */\n      dup4\n        /* \"Desktop/Blockchain_project/backend/smartcontract/Vote_1.sol\":2180:2202  _proposal[proposal_id] */\n      dup2\n      mstore\n      0x20\n      add\n      swap1\n      dup2\n      mstore\n      0x20\n      add\n      0x00\n      keccak256\n        /* \"Desktop/Blockchain_project/backend/smartcontract/Vote_1.sol\":2180:2209  _proposal[proposal_id]._voted */\n      0x05\n      add\n      0x00\n        /* \"Desktop/Blockchain_project/backend/smartcontract/Vote_1.sol\":2180:2211  _proposal[proposal_id]._voted++ */\n      dup2\n      sload\n      dup1\n      swap3\n      swap2\n      swap1\n      tag_96\n      swap1\n      tag_65\n      jump\t// in\n    tag_96:\n      swap2\n      swap1\n      pop\n      sstore\n      pop\n        /* \"Desktop/Blockchain_project/backend/smartcontract/Vote_1.sol\":2226:2274  Voting_complete(msg.sender, ballot, proposal_id) */\n      0xc2d7e3c30328bfe2d5070f2c6c0dd93a439a518dcd8e0e115dbc992a607a8e66\n        /* \"Desktop/Blockchain_project/backend/smartcontract/Vote_1.sol\":2242:2252  msg.sender */\n      caller\n        /* \"Desktop/Blockchain_project/backend/smartcontract/Vote_1.sol\":2254:2260  ballot */\n      dup5\n        /* \"Desktop/Blockchain_project/backend/smartcontract/Vote_1.sol\":2262:2273  proposal_id */\n      dup5\n        /* \"Desktop/Blockchain_project/backend/smartcontract/Vote_1.sol\":2226:2274  Voting_complete(msg.sender, ballot, proposal_id) */\n      mload(0x40)\n      tag_97\n      swap4\n      swap3\n      swap2\n      swap1\n      tag_98\n      jump\t// in\n    tag_97:\n      mload(0x40)\n      dup1\n      swap2\n      sub\n      swap1\n      log1\n        /* \"Desktop/Blockchain_project/backend/smartcontract/Vote_1.sol\":1881:2281  function voting(string memory ballot, uint proposal_id, uint voter_id) public{... */\n      pop\n      pop\n      pop\n      jump\t// out\n        /* \"Desktop/Blockchain_project/backend/smartcontract/Vote_1.sol\":3081:3355  function get_ballot(address voter, uint proposal_id) public view returns(string memory){... */\n    tag_40:\n        /* \"Desktop/Blockchain_project/backend/smartcontract/Vote_1.sol\":3154:3167  string memory */\n      0x60\n        /* \"Desktop/Blockchain_project/backend/smartcontract/Vote_1.sol\":3224:3225  1 */\n      0x01\n        /* \"Desktop/Blockchain_project/backend/smartcontract/Vote_1.sol\":3186:3195  _proposal */\n      dup1\n        /* \"Desktop/Blockchain_project/backend/smartcontract/Vote_1.sol\":3186:3208  _proposal[proposal_id] */\n      0x00\n        /* \"Desktop/Blockchain_project/backend/smartcontract/Vote_1.sol\":3196:3207  proposal_id */\n      dup5\n        /* \"Desktop/Blockchain_project/backend/smartcontract/Vote_1.sol\":3186:3208  _proposal[proposal_id] */\n      dup2\n      mstore\n      0x20\n      add\n      swap1\n      dup2\n      mstore\n      0x20\n      add\n      0x00\n      keccak256\n        /* \"Desktop/Blockchain_project/backend/smartcontract/Vote_1.sol\":3186:3223  _proposal[proposal_id]._voting_status */\n      0x01\n      add\n      sload\n        /* \"Desktop/Blockchain_project/backend/smartcontract/Vote_1.sol\":3186:3225  _proposal[proposal_id]._voting_status>1 */\n      gt\n        /* \"Desktop/Blockchain_project/backend/smartcontract/Vote_1.sol\":3178:3226  require(_proposal[proposal_id]._voting_status>1) */\n      tag_100\n      jumpi\n      0x00\n      dup1\n      revert\n    tag_100:\n        /* \"Desktop/Blockchain_project/backend/smartcontract/Vote_1.sol\":3256:3271  _constractowner */\n      0x00\n      dup1\n      sload\n      swap1\n      0x0100\n      exp\n      swap1\n      div\n      0xffffffffffffffffffffffffffffffffffffffff\n      and\n        /* \"Desktop/Blockchain_project/backend/smartcontract/Vote_1.sol\":3244:3271  msg.sender==_constractowner */\n      0xffffffffffffffffffffffffffffffffffffffff\n      and\n        /* \"Desktop/Blockchain_project/backend/smartcontract/Vote_1.sol\":3244:3254  msg.sender */\n      caller\n        /* \"Desktop/Blockchain_project/backend/smartcontract/Vote_1.sol\":3244:3271  msg.sender==_constractowner */\n      0xffffffffffffffffffffffffffffffffffffffff\n      and\n      eq\n        /* \"Desktop/Blockchain_project/backend/smartcontract/Vote_1.sol\":3236:3289  require(msg.sender==_constractowner, \"No Permission\") */\n      tag_101\n      jumpi\n      mload(0x40)\n      0x08c379a000000000000000000000000000000000000000000000000000000000\n      dup2\n      mstore\n      0x04\n      add\n      tag_102\n      swap1\n      tag_53\n      jump\t// in\n    tag_102:\n      mload(0x40)\n      dup1\n      swap2\n      sub\n      swap1\n      revert\n    tag_101:\n        /* \"Desktop/Blockchain_project/backend/smartcontract/Vote_1.sol\":3306:3315  _proposal */\n      0x01\n        /* \"Desktop/Blockchain_project/backend/smartcontract/Vote_1.sol\":3306:3328  _proposal[proposal_id] */\n      0x00\n        /* \"Desktop/Blockchain_project/backend/smartcontract/Vote_1.sol\":3316:3327  proposal_id */\n      dup4\n        /* \"Desktop/Blockchain_project/backend/smartcontract/Vote_1.sol\":3306:3328  _proposal[proposal_id] */\n      dup2\n      mstore\n      0x20\n      add\n      swap1\n      dup2\n      mstore\n      0x20\n      add\n      0x00\n      keccak256\n        /* \"Desktop/Blockchain_project/backend/smartcontract/Vote_1.sol\":3306:3341  _proposal[proposal_id].voter_ballot */\n      0x09\n      add\n        /* \"Desktop/Blockchain_project/backend/smartcontract/Vote_1.sol\":3306:3348  _proposal[proposal_id].voter_ballot[voter] */\n      0x00\n        /* \"Desktop/Blockchain_project/backend/smartcontract/Vote_1.sol\":3342:3347  voter */\n      dup5\n        /* \"Desktop/Blockchain_project/backend/smartcontract/Vote_1.sol\":3306:3348  _proposal[proposal_id].voter_ballot[voter] */\n      0xffffffffffffffffffffffffffffffffffffffff\n      and\n      0xffffffffffffffffffffffffffffffffffffffff\n      and\n      dup2\n      mstore\n      0x20\n      add\n      swap1\n      dup2\n      mstore\n      0x20\n      add\n      0x00\n      keccak256\n        /* \"Desktop/Blockchain_project/backend/smartcontract/Vote_1.sol\":3299:3348  return _proposal[proposal_id].voter_ballot[voter] */\n      dup1\n      sload\n      tag_103\n      swap1\n      tag_104\n      jump\t// in\n    tag_103:\n      dup1\n      0x1f\n      add\n      0x20\n      dup1\n      swap2\n      div\n      mul\n      0x20\n      add\n      mload(0x40)\n      swap1\n      dup2\n      add\n      0x40\n      mstore\n      dup1\n      swap3\n      swap2\n      swap1\n      dup2\n      dup2\n      mstore\n      0x20\n      add\n      dup3\n      dup1\n      sload\n      tag_105\n      swap1\n      tag_104\n      jump\t// in\n    tag_105:\n      dup1\n      iszero\n      tag_106\n      jumpi\n      dup1\n      0x1f\n      lt\n      tag_107\n      jumpi\n      0x0100\n      dup1\n      dup4\n      sload\n      div\n      mul\n      dup4\n      mstore\n      swap2\n      0x20\n      add\n      swap2\n      jump(tag_106)\n    tag_107:\n      dup3\n      add\n      swap2\n      swap1\n      0x00\n      mstore\n      keccak256(0x00, 0x20)\n      swap1\n    tag_108:\n      dup2\n      sload\n      dup2\n      mstore\n      swap1\n      0x01\n      add\n      swap1\n      0x20\n      add\n      dup1\n      dup4\n      gt\n      tag_108\n      jumpi\n      dup3\n      swap1\n      sub\n      0x1f\n      and\n      dup3\n      add\n      swap2\n    tag_106:\n      pop\n      pop\n      pop\n      pop\n      pop\n      swap1\n      pop\n        /* \"Desktop/Blockchain_project/backend/smartcontract/Vote_1.sol\":3081:3355  function get_ballot(address voter, uint proposal_id) public view returns(string memory){... */\n      swap3\n      swap2\n      pop\n      pop\n      jump\t// out\n        /* \"Desktop/Blockchain_project/backend/smartcontract/Vote_1.sol\":1395:1638  function set_duration(uint duration, uint proposal_id) public {... */\n    tag_45:\n        /* \"Desktop/Blockchain_project/backend/smartcontract/Vote_1.sol\":1487:1502  _constractowner */\n      0x00\n      dup1\n      sload\n      swap1\n      0x0100\n      exp\n      swap1\n      div\n      0xffffffffffffffffffffffffffffffffffffffff\n      and\n        /* \"Desktop/Blockchain_project/backend/smartcontract/Vote_1.sol\":1475:1502  msg.sender==_constractowner */\n      0xffffffffffffffffffffffffffffffffffffffff\n      and\n        /* \"Desktop/Blockchain_project/backend/smartcontract/Vote_1.sol\":1475:1485  msg.sender */\n      caller\n        /* \"Desktop/Blockchain_project/backend/smartcontract/Vote_1.sol\":1475:1502  msg.sender==_constractowner */\n      0xffffffffffffffffffffffffffffffffffffffff\n      and\n      eq\n        /* \"Desktop/Blockchain_project/backend/smartcontract/Vote_1.sol\":1467:1520  require(msg.sender==_constractowner, \"No Permission\") */\n      tag_110\n      jumpi\n      mload(0x40)\n      0x08c379a000000000000000000000000000000000000000000000000000000000\n      dup2\n      mstore\n      0x04\n      add\n      tag_111\n      swap1\n      tag_53\n      jump\t// in\n    tag_111:\n      mload(0x40)\n      dup1\n      swap2\n      sub\n      swap1\n      revert\n    tag_110:\n        /* \"Desktop/Blockchain_project/backend/smartcontract/Vote_1.sol\":1576:1577  1 */\n      0x01\n        /* \"Desktop/Blockchain_project/backend/smartcontract/Vote_1.sol\":1538:1547  _proposal */\n      dup1\n        /* \"Desktop/Blockchain_project/backend/smartcontract/Vote_1.sol\":1538:1560  _proposal[proposal_id] */\n      0x00\n        /* \"Desktop/Blockchain_project/backend/smartcontract/Vote_1.sol\":1548:1559  proposal_id */\n      dup4\n        /* \"Desktop/Blockchain_project/backend/smartcontract/Vote_1.sol\":1538:1560  _proposal[proposal_id] */\n      dup2\n      mstore\n      0x20\n      add\n      swap1\n      dup2\n      mstore\n      0x20\n      add\n      0x00\n      keccak256\n        /* \"Desktop/Blockchain_project/backend/smartcontract/Vote_1.sol\":1538:1575  _proposal[proposal_id]._voting_status */\n      0x01\n      add\n      sload\n        /* \"Desktop/Blockchain_project/backend/smartcontract/Vote_1.sol\":1538:1577  _proposal[proposal_id]._voting_status<1 */\n      lt\n        /* \"Desktop/Blockchain_project/backend/smartcontract/Vote_1.sol\":1530:1578  require(_proposal[proposal_id]._voting_status<1) */\n      tag_112\n      jumpi\n      0x00\n      dup1\n      revert\n    tag_112:\n        /* \"Desktop/Blockchain_project/backend/smartcontract/Vote_1.sol\":1623:1631  duration */\n      dup2\n        /* \"Desktop/Blockchain_project/backend/smartcontract/Vote_1.sol\":1588:1597  _proposal */\n      0x01\n        /* \"Desktop/Blockchain_project/backend/smartcontract/Vote_1.sol\":1588:1610  _proposal[proposal_id] */\n      0x00\n        /* \"Desktop/Blockchain_project/backend/smartcontract/Vote_1.sol\":1598:1609  proposal_id */\n      dup4\n        /* \"Desktop/Blockchain_project/backend/smartcontract/Vote_1.sol\":1588:1610  _proposal[proposal_id] */\n      dup2\n      mstore\n      0x20\n      add\n      swap1\n      dup2\n      mstore\n      0x20\n      add\n      0x00\n      keccak256\n        /* \"Desktop/Blockchain_project/backend/smartcontract/Vote_1.sol\":1588:1620  _proposal[proposal_id]._duration */\n      0x03\n      add\n        /* \"Desktop/Blockchain_project/backend/smartcontract/Vote_1.sol\":1588:1631  _proposal[proposal_id]._duration = duration */\n      dup2\n      swap1\n      sstore\n      pop\n        /* \"Desktop/Blockchain_project/backend/smartcontract/Vote_1.sol\":1395:1638  function set_duration(uint duration, uint proposal_id) public {... */\n      pop\n      pop\n      jump\t// out\n        /* \"Desktop/Blockchain_project/backend/smartcontract/Vote_1.sol\":1644:1875  function set_voter_list(address voter, uint user_id, uint proposal_id) private {... */\n    tag_87:\n        /* \"Desktop/Blockchain_project/backend/smartcontract/Vote_1.sol\":1778:1783  voter */\n      dup3\n        /* \"Desktop/Blockchain_project/backend/smartcontract/Vote_1.sol\":1733:1742  _proposal */\n      0x01\n        /* \"Desktop/Blockchain_project/backend/smartcontract/Vote_1.sol\":1733:1755  _proposal[proposal_id] */\n      0x00\n        /* \"Desktop/Blockchain_project/backend/smartcontract/Vote_1.sol\":1743:1754  proposal_id */\n      dup4\n        /* \"Desktop/Blockchain_project/backend/smartcontract/Vote_1.sol\":1733:1755  _proposal[proposal_id] */\n      dup2\n      mstore\n      0x20\n      add\n      swap1\n      dup2\n      mstore\n      0x20\n      add\n      0x00\n      keccak256\n        /* \"Desktop/Blockchain_project/backend/smartcontract/Vote_1.sol\":1733:1766  _proposal[proposal_id].voter_list */\n      0x08\n      add\n        /* \"Desktop/Blockchain_project/backend/smartcontract/Vote_1.sol\":1733:1775  _proposal[proposal_id].voter_list[user_id] */\n      0x00\n        /* \"Desktop/Blockchain_project/backend/smartcontract/Vote_1.sol\":1767:1774  user_id */\n      dup5\n        /* \"Desktop/Blockchain_project/backend/smartcontract/Vote_1.sol\":1733:1775  _proposal[proposal_id].voter_list[user_id] */\n      dup2\n      mstore\n      0x20\n      add\n      swap1\n      dup2\n      mstore\n      0x20\n      add\n      0x00\n      keccak256\n      0x00\n        /* \"Desktop/Blockchain_project/backend/smartcontract/Vote_1.sol\":1733:1783  _proposal[proposal_id].voter_list[user_id] = voter */\n      0x0100\n      exp\n      dup2\n      sload\n      dup2\n      0xffffffffffffffffffffffffffffffffffffffff\n      mul\n      not\n      and\n      swap1\n      dup4\n      0xffffffffffffffffffffffffffffffffffffffff\n      and\n      mul\n      or\n      swap1\n      sstore\n      pop\n        /* \"Desktop/Blockchain_project/backend/smartcontract/Vote_1.sol\":1793:1802  _proposal */\n      0x01\n        /* \"Desktop/Blockchain_project/backend/smartcontract/Vote_1.sol\":1793:1815  _proposal[proposal_id] */\n      0x00\n        /* \"Desktop/Blockchain_project/backend/smartcontract/Vote_1.sol\":1803:1814  proposal_id */\n      dup3\n        /* \"Desktop/Blockchain_project/backend/smartcontract/Vote_1.sol\":1793:1815  _proposal[proposal_id] */\n      dup2\n      mstore\n      0x20\n      add\n      swap1\n      dup2\n      mstore\n      0x20\n      add\n      0x00\n      keccak256\n        /* \"Desktop/Blockchain_project/backend/smartcontract/Vote_1.sol\":1793:1822  _proposal[proposal_id]._count */\n      0x04\n      add\n      0x00\n        /* \"Desktop/Blockchain_project/backend/smartcontract/Vote_1.sol\":1793:1824  _proposal[proposal_id]._count++ */\n      dup2\n      sload\n      dup1\n      swap3\n      swap2\n      swap1\n      tag_114\n      swap1\n      tag_65\n      jump\t// in\n    tag_114:\n      swap2\n      swap1\n      pop\n      sstore\n      pop\n        /* \"Desktop/Blockchain_project/backend/smartcontract/Vote_1.sol\":1839:1868  Voter_set(voter, proposal_id) */\n      0x4ad260fdb84f8458e9ae5bfb9f78b3a60d8daeba55271ac59884c0f6cb4e0435\n        /* \"Desktop/Blockchain_project/backend/smartcontract/Vote_1.sol\":1849:1854  voter */\n      dup4\n        /* \"Desktop/Blockchain_project/backend/smartcontract/Vote_1.sol\":1856:1867  proposal_id */\n      dup3\n        /* \"Desktop/Blockchain_project/backend/smartcontract/Vote_1.sol\":1839:1868  Voter_set(voter, proposal_id) */\n      mload(0x40)\n      tag_115\n      swap3\n      swap2\n      swap1\n      tag_116\n      jump\t// in\n    tag_115:\n      mload(0x40)\n      dup1\n      swap2\n      sub\n      swap1\n      log1\n        /* \"Desktop/Blockchain_project/backend/smartcontract/Vote_1.sol\":1644:1875  function set_voter_list(address voter, uint user_id, uint proposal_id) private {... */\n      pop\n      pop\n      pop\n      jump\t// out\n    tag_49:\n      dup3\n      dup1\n      sload\n      dup3\n      dup3\n      sstore\n      swap1\n      0x00\n      mstore\n      keccak256(0x00, 0x20)\n      swap1\n      dup2\n      add\n      swap3\n      dup3\n      iszero\n      tag_117\n      jumpi\n      swap2\n      0x20\n      mul\n      dup3\n      add\n    tag_118:\n      dup3\n      dup2\n      gt\n      iszero\n      tag_119\n      jumpi\n      dup3\n      mload\n      dup3\n      exp(0x0100, 0x00)\n      dup2\n      sload\n      dup2\n      0xffffffffffffffffffffffffffffffffffffffff\n      mul\n      not\n      and\n      swap1\n      dup4\n      0xffffffffffffffffffffffffffffffffffffffff\n      and\n      mul\n      or\n      swap1\n      sstore\n      pop\n      swap2\n      0x20\n      add\n      swap2\n      swap1\n      0x01\n      add\n      swap1\n      jump(tag_118)\n    tag_119:\n    tag_117:\n      pop\n      swap1\n      pop\n      tag_120\n      swap2\n      swap1\n      tag_121\n      jump\t// in\n    tag_120:\n      pop\n      swap1\n      jump\t// out\n    tag_95:\n      dup3\n      dup1\n      sload\n      tag_122\n      swap1\n      tag_104\n      jump\t// in\n    tag_122:\n      swap1\n      0x00\n      mstore\n      keccak256(0x00, 0x20)\n      swap1\n      0x1f\n      add\n      0x20\n      swap1\n      div\n      dup2\n      add\n      swap3\n      dup3\n      tag_124\n      jumpi\n      0x00\n      dup6\n      sstore\n      jump(tag_123)\n    tag_124:\n      dup3\n      0x1f\n      lt\n      tag_125\n      jumpi\n      dup1\n      mload\n      not(0xff)\n      and\n      dup4\n      dup1\n      add\n      or\n      dup6\n      sstore\n      jump(tag_123)\n    tag_125:\n      dup3\n      dup1\n      add\n      0x01\n      add\n      dup6\n      sstore\n      dup3\n      iszero\n      tag_123\n      jumpi\n      swap2\n      dup3\n      add\n    tag_126:\n      dup3\n      dup2\n      gt\n      iszero\n      tag_127\n      jumpi\n      dup3\n      mload\n      dup3\n      sstore\n      swap2\n      0x20\n      add\n      swap2\n      swap1\n      0x01\n      add\n      swap1\n      jump(tag_126)\n    tag_127:\n    tag_123:\n      pop\n      swap1\n      pop\n      tag_128\n      swap2\n      swap1\n      tag_121\n      jump\t// in\n    tag_128:\n      pop\n      swap1\n      jump\t// out\n    tag_121:\n    tag_129:\n      dup1\n      dup3\n      gt\n      iszero\n      tag_130\n      jumpi\n      0x00\n      dup2\n      0x00\n      swap1\n      sstore\n      pop\n      0x01\n      add\n      jump(tag_129)\n    tag_130:\n      pop\n      swap1\n      jump\t// out\n        /* \"#utility.yul\":24:746   */\n    tag_132:\n        /* \"#utility.yul\":120:125   */\n      0x00\n        /* \"#utility.yul\":145:226   */\n      tag_134\n        /* \"#utility.yul\":161:225   */\n      tag_135\n        /* \"#utility.yul\":218:224   */\n      dup5\n        /* \"#utility.yul\":161:225   */\n      tag_136\n      jump\t// in\n    tag_135:\n        /* \"#utility.yul\":145:226   */\n      tag_137\n      jump\t// in\n    tag_134:\n        /* \"#utility.yul\":136:226   */\n      swap1\n      pop\n        /* \"#utility.yul\":246:251   */\n      dup1\n        /* \"#utility.yul\":275:281   */\n      dup4\n        /* \"#utility.yul\":268:273   */\n      dup3\n        /* \"#utility.yul\":261:282   */\n      mstore\n        /* \"#utility.yul\":309:313   */\n      0x20\n        /* \"#utility.yul\":302:307   */\n      dup3\n        /* \"#utility.yul\":298:314   */\n      add\n        /* \"#utility.yul\":291:314   */\n      swap1\n      pop\n        /* \"#utility.yul\":335:341   */\n      dup3\n        /* \"#utility.yul\":385:388   */\n      dup6\n        /* \"#utility.yul\":377:381   */\n      0x20\n        /* \"#utility.yul\":369:375   */\n      dup7\n        /* \"#utility.yul\":365:382   */\n      mul\n        /* \"#utility.yul\":360:363   */\n      dup3\n        /* \"#utility.yul\":356:383   */\n      add\n        /* \"#utility.yul\":353:389   */\n      gt\n        /* \"#utility.yul\":350:493   */\n      iszero\n      tag_138\n      jumpi\n        /* \"#utility.yul\":404:483   */\n      tag_139\n      tag_140\n      jump\t// in\n    tag_139:\n        /* \"#utility.yul\":350:493   */\n    tag_138:\n        /* \"#utility.yul\":517:518   */\n      0x00\n        /* \"#utility.yul\":502:740   */\n    tag_141:\n        /* \"#utility.yul\":527:533   */\n      dup6\n        /* \"#utility.yul\":524:525   */\n      dup2\n        /* \"#utility.yul\":521:534   */\n      lt\n        /* \"#utility.yul\":502:740   */\n      iszero\n      tag_143\n      jumpi\n        /* \"#utility.yul\":595:598   */\n      dup2\n        /* \"#utility.yul\":624:661   */\n      tag_144\n        /* \"#utility.yul\":657:660   */\n      dup9\n        /* \"#utility.yul\":645:655   */\n      dup3\n        /* \"#utility.yul\":624:661   */\n      tag_145\n      jump\t// in\n    tag_144:\n        /* \"#utility.yul\":619:622   */\n      dup5\n        /* \"#utility.yul\":612:662   */\n      mstore\n        /* \"#utility.yul\":691:695   */\n      0x20\n        /* \"#utility.yul\":686:689   */\n      dup5\n        /* \"#utility.yul\":682:696   */\n      add\n        /* \"#utility.yul\":675:696   */\n      swap4\n      pop\n        /* \"#utility.yul\":725:729   */\n      0x20\n        /* \"#utility.yul\":720:723   */\n      dup4\n        /* \"#utility.yul\":716:730   */\n      add\n        /* \"#utility.yul\":709:730   */\n      swap3\n      pop\n        /* \"#utility.yul\":562:740   */\n      pop\n        /* \"#utility.yul\":549:550   */\n      0x01\n        /* \"#utility.yul\":546:547   */\n      dup2\n        /* \"#utility.yul\":542:551   */\n      add\n        /* \"#utility.yul\":537:551   */\n      swap1\n      pop\n        /* \"#utility.yul\":502:740   */\n      jump(tag_141)\n    tag_143:\n        /* \"#utility.yul\":506:520   */\n      pop\n        /* \"#utility.yul\":126:746   */\n      pop\n      pop\n        /* \"#utility.yul\":24:746   */\n      swap4\n      swap3\n      pop\n      pop\n      pop\n      jump\t// out\n        /* \"#utility.yul\":769:1491   */\n    tag_146:\n        /* \"#utility.yul\":865:870   */\n      0x00\n        /* \"#utility.yul\":890:971   */\n      tag_148\n        /* \"#utility.yul\":906:970   */\n      tag_149\n        /* \"#utility.yul\":963:969   */\n      dup5\n        /* \"#utility.yul\":906:970   */\n      tag_150\n      jump\t// in\n    tag_149:\n        /* \"#utility.yul\":890:971   */\n      tag_137\n      jump\t// in\n    tag_148:\n        /* \"#utility.yul\":881:971   */\n      swap1\n      pop\n        /* \"#utility.yul\":991:996   */\n      dup1\n        /* \"#utility.yul\":1020:1026   */\n      dup4\n        /* \"#utility.yul\":1013:1018   */\n      dup3\n        /* \"#utility.yul\":1006:1027   */\n      mstore\n        /* \"#utility.yul\":1054:1058   */\n      0x20\n        /* \"#utility.yul\":1047:1052   */\n      dup3\n        /* \"#utility.yul\":1043:1059   */\n      add\n        /* \"#utility.yul\":1036:1059   */\n      swap1\n      pop\n        /* \"#utility.yul\":1080:1086   */\n      dup3\n        /* \"#utility.yul\":1130:1133   */\n      dup6\n        /* \"#utility.yul\":1122:1126   */\n      0x20\n        /* \"#utility.yul\":1114:1120   */\n      dup7\n        /* \"#utility.yul\":1110:1127   */\n      mul\n        /* \"#utility.yul\":1105:1108   */\n      dup3\n        /* \"#utility.yul\":1101:1128   */\n      add\n        /* \"#utility.yul\":1098:1134   */\n      gt\n        /* \"#utility.yul\":1095:1238   */\n      iszero\n      tag_151\n      jumpi\n        /* \"#utility.yul\":1149:1228   */\n      tag_152\n      tag_140\n      jump\t// in\n    tag_152:\n        /* \"#utility.yul\":1095:1238   */\n    tag_151:\n        /* \"#utility.yul\":1262:1263   */\n      0x00\n        /* \"#utility.yul\":1247:1485   */\n    tag_153:\n        /* \"#utility.yul\":1272:1278   */\n      dup6\n        /* \"#utility.yul\":1269:1270   */\n      dup2\n        /* \"#utility.yul\":1266:1279   */\n      lt\n        /* \"#utility.yul\":1247:1485   */\n      iszero\n      tag_155\n      jumpi\n        /* \"#utility.yul\":1340:1343   */\n      dup2\n        /* \"#utility.yul\":1369:1406   */\n      tag_156\n        /* \"#utility.yul\":1402:1405   */\n      dup9\n        /* \"#utility.yul\":1390:1400   */\n      dup3\n        /* \"#utility.yul\":1369:1406   */\n      tag_157\n      jump\t// in\n    tag_156:\n        /* \"#utility.yul\":1364:1367   */\n      dup5\n        /* \"#utility.yul\":1357:1407   */\n      mstore\n        /* \"#utility.yul\":1436:1440   */\n      0x20\n        /* \"#utility.yul\":1431:1434   */\n      dup5\n        /* \"#utility.yul\":1427:1441   */\n      add\n        /* \"#utility.yul\":1420:1441   */\n      swap4\n      pop\n        /* \"#utility.yul\":1470:1474   */\n      0x20\n        /* \"#utility.yul\":1465:1468   */\n      dup4\n        /* \"#utility.yul\":1461:1475   */\n      add\n        /* \"#utility.yul\":1454:1475   */\n      swap3\n      pop\n        /* \"#utility.yul\":1307:1485   */\n      pop\n        /* \"#utility.yul\":1294:1295   */\n      0x01\n        /* \"#utility.yul\":1291:1292   */\n      dup2\n        /* \"#utility.yul\":1287:1296   */\n      add\n        /* \"#utility.yul\":1282:1296   */\n      swap1\n      pop\n        /* \"#utility.yul\":1247:1485   */\n      jump(tag_153)\n    tag_155:\n        /* \"#utility.yul\":1251:1265   */\n      pop\n        /* \"#utility.yul\":871:1491   */\n      pop\n      pop\n        /* \"#utility.yul\":769:1491   */\n      swap4\n      swap3\n      pop\n      pop\n      pop\n      jump\t// out\n        /* \"#utility.yul\":1497:1909   */\n    tag_158:\n        /* \"#utility.yul\":1575:1580   */\n      0x00\n        /* \"#utility.yul\":1600:1666   */\n      tag_160\n        /* \"#utility.yul\":1616:1665   */\n      tag_161\n        /* \"#utility.yul\":1658:1664   */\n      dup5\n        /* \"#utility.yul\":1616:1665   */\n      tag_162\n      jump\t// in\n    tag_161:\n        /* \"#utility.yul\":1600:1666   */\n      tag_137\n      jump\t// in\n    tag_160:\n        /* \"#utility.yul\":1591:1666   */\n      swap1\n      pop\n        /* \"#utility.yul\":1689:1695   */\n      dup3\n        /* \"#utility.yul\":1682:1687   */\n      dup2\n        /* \"#utility.yul\":1675:1696   */\n      mstore\n        /* \"#utility.yul\":1727:1731   */\n      0x20\n        /* \"#utility.yul\":1720:1725   */\n      dup2\n        /* \"#utility.yul\":1716:1732   */\n      add\n        /* \"#utility.yul\":1765:1768   */\n      dup5\n        /* \"#utility.yul\":1756:1762   */\n      dup5\n        /* \"#utility.yul\":1751:1754   */\n      dup5\n        /* \"#utility.yul\":1747:1763   */\n      add\n        /* \"#utility.yul\":1744:1769   */\n      gt\n        /* \"#utility.yul\":1741:1853   */\n      iszero\n      tag_163\n      jumpi\n        /* \"#utility.yul\":1772:1851   */\n      tag_164\n      tag_165\n      jump\t// in\n    tag_164:\n        /* \"#utility.yul\":1741:1853   */\n    tag_163:\n        /* \"#utility.yul\":1862:1903   */\n      tag_166\n        /* \"#utility.yul\":1896:1902   */\n      dup5\n        /* \"#utility.yul\":1891:1894   */\n      dup3\n        /* \"#utility.yul\":1886:1889   */\n      dup6\n        /* \"#utility.yul\":1862:1903   */\n      tag_167\n      jump\t// in\n    tag_166:\n        /* \"#utility.yul\":1581:1909   */\n      pop\n        /* \"#utility.yul\":1497:1909   */\n      swap4\n      swap3\n      pop\n      pop\n      pop\n      jump\t// out\n        /* \"#utility.yul\":1915:2054   */\n    tag_145:\n        /* \"#utility.yul\":1961:1966   */\n      0x00\n        /* \"#utility.yul\":1999:2005   */\n      dup2\n        /* \"#utility.yul\":1986:2006   */\n      calldataload\n        /* \"#utility.yul\":1977:2006   */\n      swap1\n      pop\n        /* \"#utility.yul\":2015:2048   */\n      tag_169\n        /* \"#utility.yul\":2042:2047   */\n      dup2\n        /* \"#utility.yul\":2015:2048   */\n      tag_170\n      jump\t// in\n    tag_169:\n        /* \"#utility.yul\":1915:2054   */\n      swap3\n      swap2\n      pop\n      pop\n      jump\t// out\n        /* \"#utility.yul\":2077:2447   */\n    tag_171:\n        /* \"#utility.yul\":2148:2153   */\n      0x00\n        /* \"#utility.yul\":2197:2200   */\n      dup3\n        /* \"#utility.yul\":2190:2194   */\n      0x1f\n        /* \"#utility.yul\":2182:2188   */\n      dup4\n        /* \"#utility.yul\":2178:2195   */\n      add\n        /* \"#utility.yul\":2174:2201   */\n      slt\n        /* \"#utility.yul\":2164:2286   */\n      tag_173\n      jumpi\n        /* \"#utility.yul\":2205:2284   */\n      tag_174\n      tag_175\n      jump\t// in\n    tag_174:\n        /* \"#utility.yul\":2164:2286   */\n    tag_173:\n        /* \"#utility.yul\":2322:2328   */\n      dup2\n        /* \"#utility.yul\":2309:2329   */\n      calldataload\n        /* \"#utility.yul\":2347:2441   */\n      tag_176\n        /* \"#utility.yul\":2437:2440   */\n      dup5\n        /* \"#utility.yul\":2429:2435   */\n      dup3\n        /* \"#utility.yul\":2422:2426   */\n      0x20\n        /* \"#utility.yul\":2414:2420   */\n      dup7\n        /* \"#utility.yul\":2410:2427   */\n      add\n        /* \"#utility.yul\":2347:2441   */\n      tag_132\n      jump\t// in\n    tag_176:\n        /* \"#utility.yul\":2338:2441   */\n      swap2\n      pop\n        /* \"#utility.yul\":2154:2447   */\n      pop\n        /* \"#utility.yul\":2077:2447   */\n      swap3\n      swap2\n      pop\n      pop\n      jump\t// out\n        /* \"#utility.yul\":2470:2840   */\n    tag_177:\n        /* \"#utility.yul\":2541:2546   */\n      0x00\n        /* \"#utility.yul\":2590:2593   */\n      dup3\n        /* \"#utility.yul\":2583:2587   */\n      0x1f\n        /* \"#utility.yul\":2575:2581   */\n      dup4\n        /* \"#utility.yul\":2571:2588   */\n      add\n        /* \"#utility.yul\":2567:2594   */\n      slt\n        /* \"#utility.yul\":2557:2679   */\n      tag_179\n      jumpi\n        /* \"#utility.yul\":2598:2677   */\n      tag_180\n      tag_175\n      jump\t// in\n    tag_180:\n        /* \"#utility.yul\":2557:2679   */\n    tag_179:\n        /* \"#utility.yul\":2715:2721   */\n      dup2\n        /* \"#utility.yul\":2702:2722   */\n      calldataload\n        /* \"#utility.yul\":2740:2834   */\n      tag_181\n        /* \"#utility.yul\":2830:2833   */\n      dup5\n        /* \"#utility.yul\":2822:2828   */\n      dup3\n        /* \"#utility.yul\":2815:2819   */\n      0x20\n        /* \"#utility.yul\":2807:2813   */\n      dup7\n        /* \"#utility.yul\":2803:2820   */\n      add\n        /* \"#utility.yul\":2740:2834   */\n      tag_146\n      jump\t// in\n    tag_181:\n        /* \"#utility.yul\":2731:2834   */\n      swap2\n      pop\n        /* \"#utility.yul\":2547:2840   */\n      pop\n        /* \"#utility.yul\":2470:2840   */\n      swap3\n      swap2\n      pop\n      pop\n      jump\t// out\n        /* \"#utility.yul\":2860:3200   */\n    tag_182:\n        /* \"#utility.yul\":2916:2921   */\n      0x00\n        /* \"#utility.yul\":2965:2968   */\n      dup3\n        /* \"#utility.yul\":2958:2962   */\n      0x1f\n        /* \"#utility.yul\":2950:2956   */\n      dup4\n        /* \"#utility.yul\":2946:2963   */\n      add\n        /* \"#utility.yul\":2942:2969   */\n      slt\n        /* \"#utility.yul\":2932:3054   */\n      tag_184\n      jumpi\n        /* \"#utility.yul\":2973:3052   */\n      tag_185\n      tag_175\n      jump\t// in\n    tag_185:\n        /* \"#utility.yul\":2932:3054   */\n    tag_184:\n        /* \"#utility.yul\":3090:3096   */\n      dup2\n        /* \"#utility.yul\":3077:3097   */\n      calldataload\n        /* \"#utility.yul\":3115:3194   */\n      tag_186\n        /* \"#utility.yul\":3190:3193   */\n      dup5\n        /* \"#utility.yul\":3182:3188   */\n      dup3\n        /* \"#utility.yul\":3175:3179   */\n      0x20\n        /* \"#utility.yul\":3167:3173   */\n      dup7\n        /* \"#utility.yul\":3163:3180   */\n      add\n        /* \"#utility.yul\":3115:3194   */\n      tag_158\n      jump\t// in\n    tag_186:\n        /* \"#utility.yul\":3106:3194   */\n      swap2\n      pop\n        /* \"#utility.yul\":2922:3200   */\n      pop\n        /* \"#utility.yul\":2860:3200   */\n      swap3\n      swap2\n      pop\n      pop\n      jump\t// out\n        /* \"#utility.yul\":3206:3345   */\n    tag_157:\n        /* \"#utility.yul\":3252:3257   */\n      0x00\n        /* \"#utility.yul\":3290:3296   */\n      dup2\n        /* \"#utility.yul\":3277:3297   */\n      calldataload\n        /* \"#utility.yul\":3268:3297   */\n      swap1\n      pop\n        /* \"#utility.yul\":3306:3339   */\n      tag_188\n        /* \"#utility.yul\":3333:3338   */\n      dup2\n        /* \"#utility.yul\":3306:3339   */\n      tag_189\n      jump\t// in\n    tag_188:\n        /* \"#utility.yul\":3206:3345   */\n      swap3\n      swap2\n      pop\n      pop\n      jump\t// out\n        /* \"#utility.yul\":3351:3825   */\n    tag_39:\n        /* \"#utility.yul\":3419:3425   */\n      0x00\n        /* \"#utility.yul\":3427:3433   */\n      dup1\n        /* \"#utility.yul\":3476:3478   */\n      0x40\n        /* \"#utility.yul\":3464:3473   */\n      dup4\n        /* \"#utility.yul\":3455:3462   */\n      dup6\n        /* \"#utility.yul\":3451:3474   */\n      sub\n        /* \"#utility.yul\":3447:3479   */\n      slt\n        /* \"#utility.yul\":3444:3563   */\n      iszero\n      tag_191\n      jumpi\n        /* \"#utility.yul\":3482:3561   */\n      tag_192\n      tag_193\n      jump\t// in\n    tag_192:\n        /* \"#utility.yul\":3444:3563   */\n    tag_191:\n        /* \"#utility.yul\":3602:3603   */\n      0x00\n        /* \"#utility.yul\":3627:3680   */\n      tag_194\n        /* \"#utility.yul\":3672:3679   */\n      dup6\n        /* \"#utility.yul\":3663:3669   */\n      dup3\n        /* \"#utility.yul\":3652:3661   */\n      dup7\n        /* \"#utility.yul\":3648:3670   */\n      add\n        /* \"#utility.yul\":3627:3680   */\n      tag_145\n      jump\t// in\n    tag_194:\n        /* \"#utility.yul\":3617:3680   */\n      swap3\n      pop\n        /* \"#utility.yul\":3573:3690   */\n      pop\n        /* \"#utility.yul\":3729:3731   */\n      0x20\n        /* \"#utility.yul\":3755:3808   */\n      tag_195\n        /* \"#utility.yul\":3800:3807   */\n      dup6\n        /* \"#utility.yul\":3791:3797   */\n      dup3\n        /* \"#utility.yul\":3780:3789   */\n      dup7\n        /* \"#utility.yul\":3776:3798   */\n      add\n        /* \"#utility.yul\":3755:3808   */\n      tag_157\n      jump\t// in\n    tag_195:\n        /* \"#utility.yul\":3745:3808   */\n      swap2\n      pop\n        /* \"#utility.yul\":3700:3818   */\n      pop\n        /* \"#utility.yul\":3351:3825   */\n      swap3\n      pop\n      swap3\n      swap1\n      pop\n      jump\t// out\n        /* \"#utility.yul\":3831:4870   */\n    tag_31:\n        /* \"#utility.yul\":3958:3964   */\n      0x00\n        /* \"#utility.yul\":3966:3972   */\n      dup1\n        /* \"#utility.yul\":3974:3980   */\n      0x00\n        /* \"#utility.yul\":4023:4025   */\n      0x60\n        /* \"#utility.yul\":4011:4020   */\n      dup5\n        /* \"#utility.yul\":4002:4009   */\n      dup7\n        /* \"#utility.yul\":3998:4021   */\n      sub\n        /* \"#utility.yul\":3994:4026   */\n      slt\n        /* \"#utility.yul\":3991:4110   */\n      iszero\n      tag_197\n      jumpi\n        /* \"#utility.yul\":4029:4108   */\n      tag_198\n      tag_193\n      jump\t// in\n    tag_198:\n        /* \"#utility.yul\":3991:4110   */\n    tag_197:\n        /* \"#utility.yul\":4177:4178   */\n      0x00\n        /* \"#utility.yul\":4166:4175   */\n      dup5\n        /* \"#utility.yul\":4162:4179   */\n      add\n        /* \"#utility.yul\":4149:4180   */\n      calldataload\n        /* \"#utility.yul\":4207:4225   */\n      0xffffffffffffffff\n        /* \"#utility.yul\":4199:4205   */\n      dup2\n        /* \"#utility.yul\":4196:4226   */\n      gt\n        /* \"#utility.yul\":4193:4310   */\n      iszero\n      tag_199\n      jumpi\n        /* \"#utility.yul\":4229:4308   */\n      tag_200\n      tag_201\n      jump\t// in\n    tag_200:\n        /* \"#utility.yul\":4193:4310   */\n    tag_199:\n        /* \"#utility.yul\":4334:4412   */\n      tag_202\n        /* \"#utility.yul\":4404:4411   */\n      dup7\n        /* \"#utility.yul\":4395:4401   */\n      dup3\n        /* \"#utility.yul\":4384:4393   */\n      dup8\n        /* \"#utility.yul\":4380:4402   */\n      add\n        /* \"#utility.yul\":4334:4412   */\n      tag_171\n      jump\t// in\n    tag_202:\n        /* \"#utility.yul\":4324:4412   */\n      swap4\n      pop\n        /* \"#utility.yul\":4120:4422   */\n      pop\n        /* \"#utility.yul\":4489:4491   */\n      0x20\n        /* \"#utility.yul\":4478:4487   */\n      dup5\n        /* \"#utility.yul\":4474:4492   */\n      add\n        /* \"#utility.yul\":4461:4493   */\n      calldataload\n        /* \"#utility.yul\":4520:4538   */\n      0xffffffffffffffff\n        /* \"#utility.yul\":4512:4518   */\n      dup2\n        /* \"#utility.yul\":4509:4539   */\n      gt\n        /* \"#utility.yul\":4506:4623   */\n      iszero\n      tag_203\n      jumpi\n        /* \"#utility.yul\":4542:4621   */\n      tag_204\n      tag_201\n      jump\t// in\n    tag_204:\n        /* \"#utility.yul\":4506:4623   */\n    tag_203:\n        /* \"#utility.yul\":4647:4725   */\n      tag_205\n        /* \"#utility.yul\":4717:4724   */\n      dup7\n        /* \"#utility.yul\":4708:4714   */\n      dup3\n        /* \"#utility.yul\":4697:4706   */\n      dup8\n        /* \"#utility.yul\":4693:4715   */\n      add\n        /* \"#utility.yul\":4647:4725   */\n      tag_177\n      jump\t// in\n    tag_205:\n        /* \"#utility.yul\":4637:4725   */\n      swap3\n      pop\n        /* \"#utility.yul\":4432:4735   */\n      pop\n        /* \"#utility.yul\":4774:4776   */\n      0x40\n        /* \"#utility.yul\":4800:4853   */\n      tag_206\n        /* \"#utility.yul\":4845:4852   */\n      dup7\n        /* \"#utility.yul\":4836:4842   */\n      dup3\n        /* \"#utility.yul\":4825:4834   */\n      dup8\n        /* \"#utility.yul\":4821:4843   */\n      add\n        /* \"#utility.yul\":4800:4853   */\n      tag_157\n      jump\t// in\n    tag_206:\n        /* \"#utility.yul\":4790:4853   */\n      swap2\n      pop\n        /* \"#utility.yul\":4745:4863   */\n      pop\n        /* \"#utility.yul\":3831:4870   */\n      swap3\n      pop\n      swap3\n      pop\n      swap3\n      jump\t// out\n        /* \"#utility.yul\":4876:5560   */\n    tag_14:\n        /* \"#utility.yul\":4969:4975   */\n      0x00\n        /* \"#utility.yul\":4977:4983   */\n      dup1\n        /* \"#utility.yul\":5026:5028   */\n      0x40\n        /* \"#utility.yul\":5014:5023   */\n      dup4\n        /* \"#utility.yul\":5005:5012   */\n      dup6\n        /* \"#utility.yul\":5001:5024   */\n      sub\n        /* \"#utility.yul\":4997:5029   */\n      slt\n        /* \"#utility.yul\":4994:5113   */\n      iszero\n      tag_208\n      jumpi\n        /* \"#utility.yul\":5032:5111   */\n      tag_209\n      tag_193\n      jump\t// in\n    tag_209:\n        /* \"#utility.yul\":4994:5113   */\n    tag_208:\n        /* \"#utility.yul\":5180:5181   */\n      0x00\n        /* \"#utility.yul\":5169:5178   */\n      dup4\n        /* \"#utility.yul\":5165:5182   */\n      add\n        /* \"#utility.yul\":5152:5183   */\n      calldataload\n        /* \"#utility.yul\":5210:5228   */\n      0xffffffffffffffff\n        /* \"#utility.yul\":5202:5208   */\n      dup2\n        /* \"#utility.yul\":5199:5229   */\n      gt\n        /* \"#utility.yul\":5196:5313   */\n      iszero\n      tag_210\n      jumpi\n        /* \"#utility.yul\":5232:5311   */\n      tag_211\n      tag_201\n      jump\t// in\n    tag_211:\n        /* \"#utility.yul\":5196:5313   */\n    tag_210:\n        /* \"#utility.yul\":5337:5415   */\n      tag_212\n        /* \"#utility.yul\":5407:5414   */\n      dup6\n        /* \"#utility.yul\":5398:5404   */\n      dup3\n        /* \"#utility.yul\":5387:5396   */\n      dup7\n        /* \"#utility.yul\":5383:5405   */\n      add\n        /* \"#utility.yul\":5337:5415   */\n      tag_171\n      jump\t// in\n    tag_212:\n        /* \"#utility.yul\":5327:5415   */\n      swap3\n      pop\n        /* \"#utility.yul\":5123:5425   */\n      pop\n        /* \"#utility.yul\":5464:5466   */\n      0x20\n        /* \"#utility.yul\":5490:5543   */\n      tag_213\n        /* \"#utility.yul\":5535:5542   */\n      dup6\n        /* \"#utility.yul\":5526:5532   */\n      dup3\n        /* \"#utility.yul\":5515:5524   */\n      dup7\n        /* \"#utility.yul\":5511:5533   */\n      add\n        /* \"#utility.yul\":5490:5543   */\n      tag_157\n      jump\t// in\n    tag_213:\n        /* \"#utility.yul\":5480:5543   */\n      swap2\n      pop\n        /* \"#utility.yul\":5435:5553   */\n      pop\n        /* \"#utility.yul\":4876:5560   */\n      swap3\n      pop\n      swap3\n      swap1\n      pop\n      jump\t// out\n        /* \"#utility.yul\":5566:6365   */\n    tag_35:\n        /* \"#utility.yul\":5653:5659   */\n      0x00\n        /* \"#utility.yul\":5661:5667   */\n      dup1\n        /* \"#utility.yul\":5669:5675   */\n      0x00\n        /* \"#utility.yul\":5718:5720   */\n      0x60\n        /* \"#utility.yul\":5706:5715   */\n      dup5\n        /* \"#utility.yul\":5697:5704   */\n      dup7\n        /* \"#utility.yul\":5693:5716   */\n      sub\n        /* \"#utility.yul\":5689:5721   */\n      slt\n        /* \"#utility.yul\":5686:5805   */\n      iszero\n      tag_215\n      jumpi\n        /* \"#utility.yul\":5724:5803   */\n      tag_216\n      tag_193\n      jump\t// in\n    tag_216:\n        /* \"#utility.yul\":5686:5805   */\n    tag_215:\n        /* \"#utility.yul\":5872:5873   */\n      0x00\n        /* \"#utility.yul\":5861:5870   */\n      dup5\n        /* \"#utility.yul\":5857:5874   */\n      add\n        /* \"#utility.yul\":5844:5875   */\n      calldataload\n        /* \"#utility.yul\":5902:5920   */\n      0xffffffffffffffff\n        /* \"#utility.yul\":5894:5900   */\n      dup2\n        /* \"#utility.yul\":5891:5921   */\n      gt\n        /* \"#utility.yul\":5888:6005   */\n      iszero\n      tag_217\n      jumpi\n        /* \"#utility.yul\":5924:6003   */\n      tag_218\n      tag_201\n      jump\t// in\n    tag_218:\n        /* \"#utility.yul\":5888:6005   */\n    tag_217:\n        /* \"#utility.yul\":6029:6092   */\n      tag_219\n        /* \"#utility.yul\":6084:6091   */\n      dup7\n        /* \"#utility.yul\":6075:6081   */\n      dup3\n        /* \"#utility.yul\":6064:6073   */\n      dup8\n        /* \"#utility.yul\":6060:6082   */\n      add\n        /* \"#utility.yul\":6029:6092   */\n      tag_182\n      jump\t// in\n    tag_219:\n        /* \"#utility.yul\":6019:6092   */\n      swap4\n      pop\n        /* \"#utility.yul\":5815:6102   */\n      pop\n        /* \"#utility.yul\":6141:6143   */\n      0x20\n        /* \"#utility.yul\":6167:6220   */\n      tag_220\n        /* \"#utility.yul\":6212:6219   */\n      dup7\n        /* \"#utility.yul\":6203:6209   */\n      dup3\n        /* \"#utility.yul\":6192:6201   */\n      dup8\n        /* \"#utility.yul\":6188:6210   */\n      add\n        /* \"#utility.yul\":6167:6220   */\n      tag_157\n      jump\t// in\n    tag_220:\n        /* \"#utility.yul\":6157:6220   */\n      swap3\n      pop\n        /* \"#utility.yul\":6112:6230   */\n      pop\n        /* \"#utility.yul\":6269:6271   */\n      0x40\n        /* \"#utility.yul\":6295:6348   */\n      tag_221\n        /* \"#utility.yul\":6340:6347   */\n      dup7\n        /* \"#utility.yul\":6331:6337   */\n      dup3\n        /* \"#utility.yul\":6320:6329   */\n      dup8\n        /* \"#utility.yul\":6316:6338   */\n      add\n        /* \"#utility.yul\":6295:6348   */\n      tag_157\n      jump\t// in\n    tag_221:\n        /* \"#utility.yul\":6285:6348   */\n      swap2\n      pop\n        /* \"#utility.yul\":6240:6358   */\n      pop\n        /* \"#utility.yul\":5566:6365   */\n      swap3\n      pop\n      swap3\n      pop\n      swap3\n      jump\t// out\n        /* \"#utility.yul\":6371:6700   */\n    tag_24:\n        /* \"#utility.yul\":6430:6436   */\n      0x00\n        /* \"#utility.yul\":6479:6481   */\n      0x20\n        /* \"#utility.yul\":6467:6476   */\n      dup3\n        /* \"#utility.yul\":6458:6465   */\n      dup5\n        /* \"#utility.yul\":6454:6477   */\n      sub\n        /* \"#utility.yul\":6450:6482   */\n      slt\n        /* \"#utility.yul\":6447:6566   */\n      iszero\n      tag_223\n      jumpi\n        /* \"#utility.yul\":6485:6564   */\n      tag_224\n      tag_193\n      jump\t// in\n    tag_224:\n        /* \"#utility.yul\":6447:6566   */\n    tag_223:\n        /* \"#utility.yul\":6605:6606   */\n      0x00\n        /* \"#utility.yul\":6630:6683   */\n      tag_225\n        /* \"#utility.yul\":6675:6682   */\n      dup5\n        /* \"#utility.yul\":6666:6672   */\n      dup3\n        /* \"#utility.yul\":6655:6664   */\n      dup6\n        /* \"#utility.yul\":6651:6673   */\n      add\n        /* \"#utility.yul\":6630:6683   */\n      tag_157\n      jump\t// in\n    tag_225:\n        /* \"#utility.yul\":6620:6683   */\n      swap2\n      pop\n        /* \"#utility.yul\":6576:6693   */\n      pop\n        /* \"#utility.yul\":6371:6700   */\n      swap3\n      swap2\n      pop\n      pop\n      jump\t// out\n        /* \"#utility.yul\":6706:7180   */\n    tag_18:\n        /* \"#utility.yul\":6774:6780   */\n      0x00\n        /* \"#utility.yul\":6782:6788   */\n      dup1\n        /* \"#utility.yul\":6831:6833   */\n      0x40\n        /* \"#utility.yul\":6819:6828   */\n      dup4\n        /* \"#utility.yul\":6810:6817   */\n      dup6\n        /* \"#utility.yul\":6806:6829   */\n      sub\n        /* \"#utility.yul\":6802:6834   */\n      slt\n        /* \"#utility.yul\":6799:6918   */\n      iszero\n      tag_227\n      jumpi\n        /* \"#utility.yul\":6837:6916   */\n      tag_228\n      tag_193\n      jump\t// in\n    tag_228:\n        /* \"#utility.yul\":6799:6918   */\n    tag_227:\n        /* \"#utility.yul\":6957:6958   */\n      0x00\n        /* \"#utility.yul\":6982:7035   */\n      tag_229\n        /* \"#utility.yul\":7027:7034   */\n      dup6\n        /* \"#utility.yul\":7018:7024   */\n      dup3\n        /* \"#utility.yul\":7007:7016   */\n      dup7\n        /* \"#utility.yul\":7003:7025   */\n      add\n        /* \"#utility.yul\":6982:7035   */\n      tag_157\n      jump\t// in\n    tag_229:\n        /* \"#utility.yul\":6972:7035   */\n      swap3\n      pop\n        /* \"#utility.yul\":6928:7045   */\n      pop\n        /* \"#utility.yul\":7084:7086   */\n      0x20\n        /* \"#utility.yul\":7110:7163   */\n      tag_230\n        /* \"#utility.yul\":7155:7162   */\n      dup6\n        /* \"#utility.yul\":7146:7152   */\n      dup3\n        /* \"#utility.yul\":7135:7144   */\n      dup7\n        /* \"#utility.yul\":7131:7153   */\n      add\n        /* \"#utility.yul\":7110:7163   */\n      tag_157\n      jump\t// in\n    tag_230:\n        /* \"#utility.yul\":7100:7163   */\n      swap2\n      pop\n        /* \"#utility.yul\":7055:7173   */\n      pop\n        /* \"#utility.yul\":6706:7180   */\n      swap3\n      pop\n      swap3\n      swap1\n      pop\n      jump\t// out\n        /* \"#utility.yul\":7186:7304   */\n    tag_231:\n        /* \"#utility.yul\":7273:7297   */\n      tag_233\n        /* \"#utility.yul\":7291:7296   */\n      dup2\n        /* \"#utility.yul\":7273:7297   */\n      tag_234\n      jump\t// in\n    tag_233:\n        /* \"#utility.yul\":7268:7271   */\n      dup3\n        /* \"#utility.yul\":7261:7298   */\n      mstore\n        /* \"#utility.yul\":7186:7304   */\n      pop\n      pop\n      jump\t// out\n        /* \"#utility.yul\":7310:7419   */\n    tag_235:\n        /* \"#utility.yul\":7391:7412   */\n      tag_237\n        /* \"#utility.yul\":7406:7411   */\n      dup2\n        /* \"#utility.yul\":7391:7412   */\n      tag_238\n      jump\t// in\n    tag_237:\n        /* \"#utility.yul\":7386:7389   */\n      dup3\n        /* \"#utility.yul\":7379:7413   */\n      mstore\n        /* \"#utility.yul\":7310:7419   */\n      pop\n      pop\n      jump\t// out\n        /* \"#utility.yul\":7425:7789   */\n    tag_239:\n        /* \"#utility.yul\":7513:7516   */\n      0x00\n        /* \"#utility.yul\":7541:7580   */\n      tag_241\n        /* \"#utility.yul\":7574:7579   */\n      dup3\n        /* \"#utility.yul\":7541:7580   */\n      tag_242\n      jump\t// in\n    tag_241:\n        /* \"#utility.yul\":7596:7667   */\n      tag_243\n        /* \"#utility.yul\":7660:7666   */\n      dup2\n        /* \"#utility.yul\":7655:7658   */\n      dup6\n        /* \"#utility.yul\":7596:7667   */\n      tag_244\n      jump\t// in\n    tag_243:\n        /* \"#utility.yul\":7589:7667   */\n      swap4\n      pop\n        /* \"#utility.yul\":7676:7728   */\n      tag_245\n        /* \"#utility.yul\":7721:7727   */\n      dup2\n        /* \"#utility.yul\":7716:7719   */\n      dup6\n        /* \"#utility.yul\":7709:7713   */\n      0x20\n        /* \"#utility.yul\":7702:7707   */\n      dup7\n        /* \"#utility.yul\":7698:7714   */\n      add\n        /* \"#utility.yul\":7676:7728   */\n      tag_246\n      jump\t// in\n    tag_245:\n        /* \"#utility.yul\":7753:7782   */\n      tag_247\n        /* \"#utility.yul\":7775:7781   */\n      dup2\n        /* \"#utility.yul\":7753:7782   */\n      tag_248\n      jump\t// in\n    tag_247:\n        /* \"#utility.yul\":7748:7751   */\n      dup5\n        /* \"#utility.yul\":7744:7783   */\n      add\n        /* \"#utility.yul\":7737:7783   */\n      swap2\n      pop\n        /* \"#utility.yul\":7517:7789   */\n      pop\n        /* \"#utility.yul\":7425:7789   */\n      swap3\n      swap2\n      pop\n      pop\n      jump\t// out\n        /* \"#utility.yul\":7795:8160   */\n    tag_249:\n        /* \"#utility.yul\":7937:7940   */\n      0x00\n        /* \"#utility.yul\":7958:8024   */\n      tag_251\n        /* \"#utility.yul\":8022:8023   */\n      0x09\n        /* \"#utility.yul\":8017:8020   */\n      dup4\n        /* \"#utility.yul\":7958:8024   */\n      tag_244\n      jump\t// in\n    tag_251:\n        /* \"#utility.yul\":7951:8024   */\n      swap2\n      pop\n        /* \"#utility.yul\":8033:8126   */\n      tag_252\n        /* \"#utility.yul\":8122:8125   */\n      dup3\n        /* \"#utility.yul\":8033:8126   */\n      tag_253\n      jump\t// in\n    tag_252:\n        /* \"#utility.yul\":8151:8153   */\n      0x20\n        /* \"#utility.yul\":8146:8149   */\n      dup3\n        /* \"#utility.yul\":8142:8154   */\n      add\n        /* \"#utility.yul\":8135:8154   */\n      swap1\n      pop\n        /* \"#utility.yul\":7795:8160   */\n      swap2\n      swap1\n      pop\n      jump\t// out\n        /* \"#utility.yul\":8166:8532   */\n    tag_254:\n        /* \"#utility.yul\":8308:8311   */\n      0x00\n        /* \"#utility.yul\":8329:8396   */\n      tag_256\n        /* \"#utility.yul\":8393:8395   */\n      0x0c\n        /* \"#utility.yul\":8388:8391   */\n      dup4\n        /* \"#utility.yul\":8329:8396   */\n      tag_244\n      jump\t// in\n    tag_256:\n        /* \"#utility.yul\":8322:8396   */\n      swap2\n      pop\n        /* \"#utility.yul\":8405:8498   */\n      tag_257\n        /* \"#utility.yul\":8494:8497   */\n      dup3\n        /* \"#utility.yul\":8405:8498   */\n      tag_258\n      jump\t// in\n    tag_257:\n        /* \"#utility.yul\":8523:8525   */\n      0x20\n        /* \"#utility.yul\":8518:8521   */\n      dup3\n        /* \"#utility.yul\":8514:8526   */\n      add\n        /* \"#utility.yul\":8507:8526   */\n      swap1\n      pop\n        /* \"#utility.yul\":8166:8532   */\n      swap2\n      swap1\n      pop\n      jump\t// out\n        /* \"#utility.yul\":8538:8904   */\n    tag_259:\n        /* \"#utility.yul\":8680:8683   */\n      0x00\n        /* \"#utility.yul\":8701:8768   */\n      tag_261\n        /* \"#utility.yul\":8765:8767   */\n      0x0d\n        /* \"#utility.yul\":8760:8763   */\n      dup4\n        /* \"#utility.yul\":8701:8768   */\n      tag_244\n      jump\t// in\n    tag_261:\n        /* \"#utility.yul\":8694:8768   */\n      swap2\n      pop\n        /* \"#utility.yul\":8777:8870   */\n      tag_262\n        /* \"#utility.yul\":8866:8869   */\n      dup3\n        /* \"#utility.yul\":8777:8870   */\n      tag_263\n      jump\t// in\n    tag_262:\n        /* \"#utility.yul\":8895:8897   */\n      0x20\n        /* \"#utility.yul\":8890:8893   */\n      dup3\n        /* \"#utility.yul\":8886:8898   */\n      add\n        /* \"#utility.yul\":8879:8898   */\n      swap1\n      pop\n        /* \"#utility.yul\":8538:8904   */\n      swap2\n      swap1\n      pop\n      jump\t// out\n        /* \"#utility.yul\":8910:9028   */\n    tag_264:\n        /* \"#utility.yul\":8997:9021   */\n      tag_266\n        /* \"#utility.yul\":9015:9020   */\n      dup2\n        /* \"#utility.yul\":8997:9021   */\n      tag_267\n      jump\t// in\n    tag_266:\n        /* \"#utility.yul\":8992:8995   */\n      dup3\n        /* \"#utility.yul\":8985:9022   */\n      mstore\n        /* \"#utility.yul\":8910:9028   */\n      pop\n      pop\n      jump\t// out\n        /* \"#utility.yul\":9034:9567   */\n    tag_98:\n        /* \"#utility.yul\":9203:9207   */\n      0x00\n        /* \"#utility.yul\":9241:9243   */\n      0x60\n        /* \"#utility.yul\":9230:9239   */\n      dup3\n        /* \"#utility.yul\":9226:9244   */\n      add\n        /* \"#utility.yul\":9218:9244   */\n      swap1\n      pop\n        /* \"#utility.yul\":9254:9325   */\n      tag_269\n        /* \"#utility.yul\":9322:9323   */\n      0x00\n        /* \"#utility.yul\":9311:9320   */\n      dup4\n        /* \"#utility.yul\":9307:9324   */\n      add\n        /* \"#utility.yul\":9298:9304   */\n      dup7\n        /* \"#utility.yul\":9254:9325   */\n      tag_231\n      jump\t// in\n    tag_269:\n        /* \"#utility.yul\":9372:9381   */\n      dup2\n        /* \"#utility.yul\":9366:9370   */\n      dup2\n        /* \"#utility.yul\":9362:9382   */\n      sub\n        /* \"#utility.yul\":9357:9359   */\n      0x20\n        /* \"#utility.yul\":9346:9355   */\n      dup4\n        /* \"#utility.yul\":9342:9360   */\n      add\n        /* \"#utility.yul\":9335:9383   */\n      mstore\n        /* \"#utility.yul\":9400:9478   */\n      tag_270\n        /* \"#utility.yul\":9473:9477   */\n      dup2\n        /* \"#utility.yul\":9464:9470   */\n      dup6\n        /* \"#utility.yul\":9400:9478   */\n      tag_239\n      jump\t// in\n    tag_270:\n        /* \"#utility.yul\":9392:9478   */\n      swap1\n      pop\n        /* \"#utility.yul\":9488:9560   */\n      tag_271\n        /* \"#utility.yul\":9556:9558   */\n      0x40\n        /* \"#utility.yul\":9545:9554   */\n      dup4\n        /* \"#utility.yul\":9541:9559   */\n      add\n        /* \"#utility.yul\":9532:9538   */\n      dup5\n        /* \"#utility.yul\":9488:9560   */\n      tag_264\n      jump\t// in\n    tag_271:\n        /* \"#utility.yul\":9034:9567   */\n      swap5\n      swap4\n      pop\n      pop\n      pop\n      pop\n      jump\t// out\n        /* \"#utility.yul\":9573:9905   */\n    tag_116:\n        /* \"#utility.yul\":9694:9698   */\n      0x00\n        /* \"#utility.yul\":9732:9734   */\n      0x40\n        /* \"#utility.yul\":9721:9730   */\n      dup3\n        /* \"#utility.yul\":9717:9735   */\n      add\n        /* \"#utility.yul\":9709:9735   */\n      swap1\n      pop\n        /* \"#utility.yul\":9745:9816   */\n      tag_273\n        /* \"#utility.yul\":9813:9814   */\n      0x00\n        /* \"#utility.yul\":9802:9811   */\n      dup4\n        /* \"#utility.yul\":9798:9815   */\n      add\n        /* \"#utility.yul\":9789:9795   */\n      dup6\n        /* \"#utility.yul\":9745:9816   */\n      tag_231\n      jump\t// in\n    tag_273:\n        /* \"#utility.yul\":9826:9898   */\n      tag_274\n        /* \"#utility.yul\":9894:9896   */\n      0x20\n        /* \"#utility.yul\":9883:9892   */\n      dup4\n        /* \"#utility.yul\":9879:9897   */\n      add\n        /* \"#utility.yul\":9870:9876   */\n      dup5\n        /* \"#utility.yul\":9826:9898   */\n      tag_264\n      jump\t// in\n    tag_274:\n        /* \"#utility.yul\":9573:9905   */\n      swap4\n      swap3\n      pop\n      pop\n      pop\n      jump\t// out\n        /* \"#utility.yul\":9911:10121   */\n    tag_21:\n        /* \"#utility.yul\":9998:10002   */\n      0x00\n        /* \"#utility.yul\":10036:10038   */\n      0x20\n        /* \"#utility.yul\":10025:10034   */\n      dup3\n        /* \"#utility.yul\":10021:10039   */\n      add\n        /* \"#utility.yul\":10013:10039   */\n      swap1\n      pop\n        /* \"#utility.yul\":10049:10114   */\n      tag_276\n        /* \"#utility.yul\":10111:10112   */\n      0x00\n        /* \"#utility.yul\":10100:10109   */\n      dup4\n        /* \"#utility.yul\":10096:10113   */\n      add\n        /* \"#utility.yul\":10087:10093   */\n      dup5\n        /* \"#utility.yul\":10049:10114   */\n      tag_235\n      jump\t// in\n    tag_276:\n        /* \"#utility.yul\":9911:10121   */\n      swap3\n      swap2\n      pop\n      pop\n      jump\t// out\n        /* \"#utility.yul\":10127:10440   */\n    tag_42:\n        /* \"#utility.yul\":10240:10244   */\n      0x00\n        /* \"#utility.yul\":10278:10280   */\n      0x20\n        /* \"#utility.yul\":10267:10276   */\n      dup3\n        /* \"#utility.yul\":10263:10281   */\n      add\n        /* \"#utility.yul\":10255:10281   */\n      swap1\n      pop\n        /* \"#utility.yul\":10327:10336   */\n      dup2\n        /* \"#utility.yul\":10321:10325   */\n      dup2\n        /* \"#utility.yul\":10317:10337   */\n      sub\n        /* \"#utility.yul\":10313:10314   */\n      0x00\n        /* \"#utility.yul\":10302:10311   */\n      dup4\n        /* \"#utility.yul\":10298:10315   */\n      add\n        /* \"#utility.yul\":10291:10338   */\n      mstore\n        /* \"#utility.yul\":10355:10433   */\n      tag_278\n        /* \"#utility.yul\":10428:10432   */\n      dup2\n        /* \"#utility.yul\":10419:10425   */\n      dup5\n        /* \"#utility.yul\":10355:10433   */\n      tag_239\n      jump\t// in\n    tag_278:\n        /* \"#utility.yul\":10347:10433   */\n      swap1\n      pop\n        /* \"#utility.yul\":10127:10440   */\n      swap3\n      swap2\n      pop\n      pop\n      jump\t// out\n        /* \"#utility.yul\":10446:10865   */\n    tag_93:\n        /* \"#utility.yul\":10612:10616   */\n      0x00\n        /* \"#utility.yul\":10650:10652   */\n      0x20\n        /* \"#utility.yul\":10639:10648   */\n      dup3\n        /* \"#utility.yul\":10635:10653   */\n      add\n        /* \"#utility.yul\":10627:10653   */\n      swap1\n      pop\n        /* \"#utility.yul\":10699:10708   */\n      dup2\n        /* \"#utility.yul\":10693:10697   */\n      dup2\n        /* \"#utility.yul\":10689:10709   */\n      sub\n        /* \"#utility.yul\":10685:10686   */\n      0x00\n        /* \"#utility.yul\":10674:10683   */\n      dup4\n        /* \"#utility.yul\":10670:10687   */\n      add\n        /* \"#utility.yul\":10663:10710   */\n      mstore\n        /* \"#utility.yul\":10727:10858   */\n      tag_280\n        /* \"#utility.yul\":10853:10857   */\n      dup2\n        /* \"#utility.yul\":10727:10858   */\n      tag_249\n      jump\t// in\n    tag_280:\n        /* \"#utility.yul\":10719:10858   */\n      swap1\n      pop\n        /* \"#utility.yul\":10446:10865   */\n      swap2\n      swap1\n      pop\n      jump\t// out\n        /* \"#utility.yul\":10871:11290   */\n    tag_56:\n        /* \"#utility.yul\":11037:11041   */\n      0x00\n        /* \"#utility.yul\":11075:11077   */\n      0x20\n        /* \"#utility.yul\":11064:11073   */\n      dup3\n        /* \"#utility.yul\":11060:11078   */\n      add\n        /* \"#utility.yul\":11052:11078   */\n      swap1\n      pop\n        /* \"#utility.yul\":11124:11133   */\n      dup2\n        /* \"#utility.yul\":11118:11122   */\n      dup2\n        /* \"#utility.yul\":11114:11134   */\n      sub\n        /* \"#utility.yul\":11110:11111   */\n      0x00\n        /* \"#utility.yul\":11099:11108   */\n      dup4\n        /* \"#utility.yul\":11095:11112   */\n      add\n        /* \"#utility.yul\":11088:11135   */\n      mstore\n        /* \"#utility.yul\":11152:11283   */\n      tag_282\n        /* \"#utility.yul\":11278:11282   */\n      dup2\n        /* \"#utility.yul\":11152:11283   */\n      tag_254\n      jump\t// in\n    tag_282:\n        /* \"#utility.yul\":11144:11283   */\n      swap1\n      pop\n        /* \"#utility.yul\":10871:11290   */\n      swap2\n      swap1\n      pop\n      jump\t// out\n        /* \"#utility.yul\":11296:11715   */\n    tag_53:\n        /* \"#utility.yul\":11462:11466   */\n      0x00\n        /* \"#utility.yul\":11500:11502   */\n      0x20\n        /* \"#utility.yul\":11489:11498   */\n      dup3\n        /* \"#utility.yul\":11485:11503   */\n      add\n        /* \"#utility.yul\":11477:11503   */\n      swap1\n      pop\n        /* \"#utility.yul\":11549:11558   */\n      dup2\n        /* \"#utility.yul\":11543:11547   */\n      dup2\n        /* \"#utility.yul\":11539:11559   */\n      sub\n        /* \"#utility.yul\":11535:11536   */\n      0x00\n        /* \"#utility.yul\":11524:11533   */\n      dup4\n        /* \"#utility.yul\":11520:11537   */\n      add\n        /* \"#utility.yul\":11513:11560   */\n      mstore\n        /* \"#utility.yul\":11577:11708   */\n      tag_284\n        /* \"#utility.yul\":11703:11707   */\n      dup2\n        /* \"#utility.yul\":11577:11708   */\n      tag_259\n      jump\t// in\n    tag_284:\n        /* \"#utility.yul\":11569:11708   */\n      swap1\n      pop\n        /* \"#utility.yul\":11296:11715   */\n      swap2\n      swap1\n      pop\n      jump\t// out\n        /* \"#utility.yul\":11721:12163   */\n    tag_67:\n        /* \"#utility.yul\":11870:11874   */\n      0x00\n        /* \"#utility.yul\":11908:11910   */\n      0x60\n        /* \"#utility.yul\":11897:11906   */\n      dup3\n        /* \"#utility.yul\":11893:11911   */\n      add\n        /* \"#utility.yul\":11885:11911   */\n      swap1\n      pop\n        /* \"#utility.yul\":11921:11992   */\n      tag_286\n        /* \"#utility.yul\":11989:11990   */\n      0x00\n        /* \"#utility.yul\":11978:11987   */\n      dup4\n        /* \"#utility.yul\":11974:11991   */\n      add\n        /* \"#utility.yul\":11965:11971   */\n      dup7\n        /* \"#utility.yul\":11921:11992   */\n      tag_264\n      jump\t// in\n    tag_286:\n        /* \"#utility.yul\":12002:12074   */\n      tag_287\n        /* \"#utility.yul\":12070:12072   */\n      0x20\n        /* \"#utility.yul\":12059:12068   */\n      dup4\n        /* \"#utility.yul\":12055:12073   */\n      add\n        /* \"#utility.yul\":12046:12052   */\n      dup6\n        /* \"#utility.yul\":12002:12074   */\n      tag_264\n      jump\t// in\n    tag_287:\n        /* \"#utility.yul\":12084:12156   */\n      tag_288\n        /* \"#utility.yul\":12152:12154   */\n      0x40\n        /* \"#utility.yul\":12141:12150   */\n      dup4\n        /* \"#utility.yul\":12137:12155   */\n      add\n        /* \"#utility.yul\":12128:12134   */\n      dup5\n        /* \"#utility.yul\":12084:12156   */\n      tag_264\n      jump\t// in\n    tag_288:\n        /* \"#utility.yul\":11721:12163   */\n      swap5\n      swap4\n      pop\n      pop\n      pop\n      pop\n      jump\t// out\n        /* \"#utility.yul\":12169:12298   */\n    tag_137:\n        /* \"#utility.yul\":12203:12209   */\n      0x00\n        /* \"#utility.yul\":12230:12250   */\n      tag_290\n      tag_291\n      jump\t// in\n    tag_290:\n        /* \"#utility.yul\":12220:12250   */\n      swap1\n      pop\n        /* \"#utility.yul\":12259:12292   */\n      tag_292\n        /* \"#utility.yul\":12287:12291   */\n      dup3\n        /* \"#utility.yul\":12279:12285   */\n      dup3\n        /* \"#utility.yul\":12259:12292   */\n      tag_293\n      jump\t// in\n    tag_292:\n        /* \"#utility.yul\":12169:12298   */\n      swap2\n      swap1\n      pop\n      jump\t// out\n        /* \"#utility.yul\":12304:12379   */\n    tag_291:\n        /* \"#utility.yul\":12337:12343   */\n      0x00\n        /* \"#utility.yul\":12370:12372   */\n      0x40\n        /* \"#utility.yul\":12364:12373   */\n      mload\n        /* \"#utility.yul\":12354:12373   */\n      swap1\n      pop\n        /* \"#utility.yul\":12304:12379   */\n      swap1\n      jump\t// out\n        /* \"#utility.yul\":12385:12696   */\n    tag_136:\n        /* \"#utility.yul\":12462:12466   */\n      0x00\n        /* \"#utility.yul\":12552:12570   */\n      0xffffffffffffffff\n        /* \"#utility.yul\":12544:12550   */\n      dup3\n        /* \"#utility.yul\":12541:12571   */\n      gt\n        /* \"#utility.yul\":12538:12594   */\n      iszero\n      tag_296\n      jumpi\n        /* \"#utility.yul\":12574:12592   */\n      tag_297\n      tag_298\n      jump\t// in\n    tag_297:\n        /* \"#utility.yul\":12538:12594   */\n    tag_296:\n        /* \"#utility.yul\":12624:12628   */\n      0x20\n        /* \"#utility.yul\":12616:12622   */\n      dup3\n        /* \"#utility.yul\":12612:12629   */\n      mul\n        /* \"#utility.yul\":12604:12629   */\n      swap1\n      pop\n        /* \"#utility.yul\":12684:12688   */\n      0x20\n        /* \"#utility.yul\":12678:12682   */\n      dup2\n        /* \"#utility.yul\":12674:12689   */\n      add\n        /* \"#utility.yul\":12666:12689   */\n      swap1\n      pop\n        /* \"#utility.yul\":12385:12696   */\n      swap2\n      swap1\n      pop\n      jump\t// out\n        /* \"#utility.yul\":12702:13013   */\n    tag_150:\n        /* \"#utility.yul\":12779:12783   */\n      0x00\n        /* \"#utility.yul\":12869:12887   */\n      0xffffffffffffffff\n        /* \"#utility.yul\":12861:12867   */\n      dup3\n        /* \"#utility.yul\":12858:12888   */\n      gt\n        /* \"#utility.yul\":12855:12911   */\n      iszero\n      tag_300\n      jumpi\n        /* \"#utility.yul\":12891:12909   */\n      tag_301\n      tag_298\n      jump\t// in\n    tag_301:\n        /* \"#utility.yul\":12855:12911   */\n    tag_300:\n        /* \"#utility.yul\":12941:12945   */\n      0x20\n        /* \"#utility.yul\":12933:12939   */\n      dup3\n        /* \"#utility.yul\":12929:12946   */\n      mul\n        /* \"#utility.yul\":12921:12946   */\n      swap1\n      pop\n        /* \"#utility.yul\":13001:13005   */\n      0x20\n        /* \"#utility.yul\":12995:12999   */\n      dup2\n        /* \"#utility.yul\":12991:13006   */\n      add\n        /* \"#utility.yul\":12983:13006   */\n      swap1\n      pop\n        /* \"#utility.yul\":12702:13013   */\n      swap2\n      swap1\n      pop\n      jump\t// out\n        /* \"#utility.yul\":13019:13327   */\n    tag_162:\n        /* \"#utility.yul\":13081:13085   */\n      0x00\n        /* \"#utility.yul\":13171:13189   */\n      0xffffffffffffffff\n        /* \"#utility.yul\":13163:13169   */\n      dup3\n        /* \"#utility.yul\":13160:13190   */\n      gt\n        /* \"#utility.yul\":13157:13213   */\n      iszero\n      tag_303\n      jumpi\n        /* \"#utility.yul\":13193:13211   */\n      tag_304\n      tag_298\n      jump\t// in\n    tag_304:\n        /* \"#utility.yul\":13157:13213   */\n    tag_303:\n        /* \"#utility.yul\":13231:13260   */\n      tag_305\n        /* \"#utility.yul\":13253:13259   */\n      dup3\n        /* \"#utility.yul\":13231:13260   */\n      tag_248\n      jump\t// in\n    tag_305:\n        /* \"#utility.yul\":13223:13260   */\n      swap1\n      pop\n        /* \"#utility.yul\":13315:13319   */\n      0x20\n        /* \"#utility.yul\":13309:13313   */\n      dup2\n        /* \"#utility.yul\":13305:13320   */\n      add\n        /* \"#utility.yul\":13297:13320   */\n      swap1\n      pop\n        /* \"#utility.yul\":13019:13327   */\n      swap2\n      swap1\n      pop\n      jump\t// out\n        /* \"#utility.yul\":13333:13432   */\n    tag_242:\n        /* \"#utility.yul\":13385:13391   */\n      0x00\n        /* \"#utility.yul\":13419:13424   */\n      dup2\n        /* \"#utility.yul\":13413:13425   */\n      mload\n        /* \"#utility.yul\":13403:13425   */\n      swap1\n      pop\n        /* \"#utility.yul\":13333:13432   */\n      swap2\n      swap1\n      pop\n      jump\t// out\n        /* \"#utility.yul\":13438:13607   */\n    tag_244:\n        /* \"#utility.yul\":13522:13533   */\n      0x00\n        /* \"#utility.yul\":13556:13562   */\n      dup3\n        /* \"#utility.yul\":13551:13554   */\n      dup3\n        /* \"#utility.yul\":13544:13563   */\n      mstore\n        /* \"#utility.yul\":13596:13600   */\n      0x20\n        /* \"#utility.yul\":13591:13594   */\n      dup3\n        /* \"#utility.yul\":13587:13601   */\n      add\n        /* \"#utility.yul\":13572:13601   */\n      swap1\n      pop\n        /* \"#utility.yul\":13438:13607   */\n      swap3\n      swap2\n      pop\n      pop\n      jump\t// out\n        /* \"#utility.yul\":13613:13804   */\n    tag_62:\n        /* \"#utility.yul\":13653:13657   */\n      0x00\n        /* \"#utility.yul\":13673:13693   */\n      tag_309\n        /* \"#utility.yul\":13691:13692   */\n      dup3\n        /* \"#utility.yul\":13673:13693   */\n      tag_267\n      jump\t// in\n    tag_309:\n        /* \"#utility.yul\":13668:13693   */\n      swap2\n      pop\n        /* \"#utility.yul\":13707:13727   */\n      tag_310\n        /* \"#utility.yul\":13725:13726   */\n      dup4\n        /* \"#utility.yul\":13707:13727   */\n      tag_267\n      jump\t// in\n    tag_310:\n        /* \"#utility.yul\":13702:13727   */\n      swap3\n      pop\n        /* \"#utility.yul\":13746:13747   */\n      dup3\n        /* \"#utility.yul\":13743:13744   */\n      dup3\n        /* \"#utility.yul\":13740:13748   */\n      lt\n        /* \"#utility.yul\":13737:13771   */\n      iszero\n      tag_311\n      jumpi\n        /* \"#utility.yul\":13751:13769   */\n      tag_312\n      tag_313\n      jump\t// in\n    tag_312:\n        /* \"#utility.yul\":13737:13771   */\n    tag_311:\n        /* \"#utility.yul\":13796:13797   */\n      dup3\n        /* \"#utility.yul\":13793:13794   */\n      dup3\n        /* \"#utility.yul\":13789:13798   */\n      sub\n        /* \"#utility.yul\":13781:13798   */\n      swap1\n      pop\n        /* \"#utility.yul\":13613:13804   */\n      swap3\n      swap2\n      pop\n      pop\n      jump\t// out\n        /* \"#utility.yul\":13810:13906   */\n    tag_234:\n        /* \"#utility.yul\":13847:13854   */\n      0x00\n        /* \"#utility.yul\":13876:13900   */\n      tag_315\n        /* \"#utility.yul\":13894:13899   */\n      dup3\n        /* \"#utility.yul\":13876:13900   */\n      tag_316\n      jump\t// in\n    tag_315:\n        /* \"#utility.yul\":13865:13900   */\n      swap1\n      pop\n        /* \"#utility.yul\":13810:13906   */\n      swap2\n      swap1\n      pop\n      jump\t// out\n        /* \"#utility.yul\":13912:14002   */\n    tag_238:\n        /* \"#utility.yul\":13946:13953   */\n      0x00\n        /* \"#utility.yul\":13989:13994   */\n      dup2\n        /* \"#utility.yul\":13982:13995   */\n      iszero\n        /* \"#utility.yul\":13975:13996   */\n      iszero\n        /* \"#utility.yul\":13964:13996   */\n      swap1\n      pop\n        /* \"#utility.yul\":13912:14002   */\n      swap2\n      swap1\n      pop\n      jump\t// out\n        /* \"#utility.yul\":14008:14134   */\n    tag_316:\n        /* \"#utility.yul\":14045:14052   */\n      0x00\n        /* \"#utility.yul\":14085:14127   */\n      0xffffffffffffffffffffffffffffffffffffffff\n        /* \"#utility.yul\":14078:14083   */\n      dup3\n        /* \"#utility.yul\":14074:14128   */\n      and\n        /* \"#utility.yul\":14063:14128   */\n      swap1\n      pop\n        /* \"#utility.yul\":14008:14134   */\n      swap2\n      swap1\n      pop\n      jump\t// out\n        /* \"#utility.yul\":14140:14217   */\n    tag_267:\n        /* \"#utility.yul\":14177:14184   */\n      0x00\n        /* \"#utility.yul\":14206:14211   */\n      dup2\n        /* \"#utility.yul\":14195:14211   */\n      swap1\n      pop\n        /* \"#utility.yul\":14140:14217   */\n      swap2\n      swap1\n      pop\n      jump\t// out\n        /* \"#utility.yul\":14223:14377   */\n    tag_167:\n        /* \"#utility.yul\":14307:14313   */\n      dup3\n        /* \"#utility.yul\":14302:14305   */\n      dup2\n        /* \"#utility.yul\":14297:14300   */\n      dup4\n        /* \"#utility.yul\":14284:14314   */\n      calldatacopy\n        /* \"#utility.yul\":14369:14370   */\n      0x00\n        /* \"#utility.yul\":14360:14366   */\n      dup4\n        /* \"#utility.yul\":14355:14358   */\n      dup4\n        /* \"#utility.yul\":14351:14367   */\n      add\n        /* \"#utility.yul\":14344:14371   */\n      mstore\n        /* \"#utility.yul\":14223:14377   */\n      pop\n      pop\n      pop\n      jump\t// out\n        /* \"#utility.yul\":14383:14690   */\n    tag_246:\n        /* \"#utility.yul\":14451:14452   */\n      0x00\n        /* \"#utility.yul\":14461:14574   */\n    tag_322:\n        /* \"#utility.yul\":14475:14481   */\n      dup4\n        /* \"#utility.yul\":14472:14473   */\n      dup2\n        /* \"#utility.yul\":14469:14482   */\n      lt\n        /* \"#utility.yul\":14461:14574   */\n      iszero\n      tag_324\n      jumpi\n        /* \"#utility.yul\":14560:14561   */\n      dup1\n        /* \"#utility.yul\":14555:14558   */\n      dup3\n        /* \"#utility.yul\":14551:14562   */\n      add\n        /* \"#utility.yul\":14545:14563   */\n      mload\n        /* \"#utility.yul\":14541:14542   */\n      dup2\n        /* \"#utility.yul\":14536:14539   */\n      dup5\n        /* \"#utility.yul\":14532:14543   */\n      add\n        /* \"#utility.yul\":14525:14564   */\n      mstore\n        /* \"#utility.yul\":14497:14499   */\n      0x20\n        /* \"#utility.yul\":14494:14495   */\n      dup2\n        /* \"#utility.yul\":14490:14500   */\n      add\n        /* \"#utility.yul\":14485:14500   */\n      swap1\n      pop\n        /* \"#utility.yul\":14461:14574   */\n      jump(tag_322)\n    tag_324:\n        /* \"#utility.yul\":14592:14598   */\n      dup4\n        /* \"#utility.yul\":14589:14590   */\n      dup2\n        /* \"#utility.yul\":14586:14599   */\n      gt\n        /* \"#utility.yul\":14583:14684   */\n      iszero\n      tag_325\n      jumpi\n        /* \"#utility.yul\":14672:14673   */\n      0x00\n        /* \"#utility.yul\":14663:14669   */\n      dup5\n        /* \"#utility.yul\":14658:14661   */\n      dup5\n        /* \"#utility.yul\":14654:14670   */\n      add\n        /* \"#utility.yul\":14647:14674   */\n      mstore\n        /* \"#utility.yul\":14583:14684   */\n    tag_325:\n        /* \"#utility.yul\":14432:14690   */\n      pop\n        /* \"#utility.yul\":14383:14690   */\n      pop\n      pop\n      pop\n      jump\t// out\n        /* \"#utility.yul\":14696:15016   */\n    tag_104:\n        /* \"#utility.yul\":14740:14746   */\n      0x00\n        /* \"#utility.yul\":14777:14778   */\n      0x02\n        /* \"#utility.yul\":14771:14775   */\n      dup3\n        /* \"#utility.yul\":14767:14779   */\n      div\n        /* \"#utility.yul\":14757:14779   */\n      swap1\n      pop\n        /* \"#utility.yul\":14824:14825   */\n      0x01\n        /* \"#utility.yul\":14818:14822   */\n      dup3\n        /* \"#utility.yul\":14814:14826   */\n      and\n        /* \"#utility.yul\":14845:14863   */\n      dup1\n        /* \"#utility.yul\":14835:14916   */\n      tag_327\n      jumpi\n        /* \"#utility.yul\":14901:14905   */\n      0x7f\n        /* \"#utility.yul\":14893:14899   */\n      dup3\n        /* \"#utility.yul\":14889:14906   */\n      and\n        /* \"#utility.yul\":14879:14906   */\n      swap2\n      pop\n        /* \"#utility.yul\":14835:14916   */\n    tag_327:\n        /* \"#utility.yul\":14963:14965   */\n      0x20\n        /* \"#utility.yul\":14955:14961   */\n      dup3\n        /* \"#utility.yul\":14952:14966   */\n      lt\n        /* \"#utility.yul\":14932:14950   */\n      dup2\n        /* \"#utility.yul\":14929:14967   */\n      eq\n        /* \"#utility.yul\":14926:15010   */\n      iszero\n      tag_328\n      jumpi\n        /* \"#utility.yul\":14982:15000   */\n      tag_329\n      tag_330\n      jump\t// in\n    tag_329:\n        /* \"#utility.yul\":14926:15010   */\n    tag_328:\n        /* \"#utility.yul\":14747:15016   */\n      pop\n        /* \"#utility.yul\":14696:15016   */\n      swap2\n      swap1\n      pop\n      jump\t// out\n        /* \"#utility.yul\":15022:15303   */\n    tag_293:\n        /* \"#utility.yul\":15105:15132   */\n      tag_332\n        /* \"#utility.yul\":15127:15131   */\n      dup3\n        /* \"#utility.yul\":15105:15132   */\n      tag_248\n      jump\t// in\n    tag_332:\n        /* \"#utility.yul\":15097:15103   */\n      dup2\n        /* \"#utility.yul\":15093:15133   */\n      add\n        /* \"#utility.yul\":15235:15241   */\n      dup2\n        /* \"#utility.yul\":15223:15233   */\n      dup2\n        /* \"#utility.yul\":15220:15242   */\n      lt\n        /* \"#utility.yul\":15199:15217   */\n      0xffffffffffffffff\n        /* \"#utility.yul\":15187:15197   */\n      dup3\n        /* \"#utility.yul\":15184:15218   */\n      gt\n        /* \"#utility.yul\":15181:15243   */\n      or\n        /* \"#utility.yul\":15178:15266   */\n      iszero\n      tag_333\n      jumpi\n        /* \"#utility.yul\":15246:15264   */\n      tag_334\n      tag_298\n      jump\t// in\n    tag_334:\n        /* \"#utility.yul\":15178:15266   */\n    tag_333:\n        /* \"#utility.yul\":15286:15296   */\n      dup1\n        /* \"#utility.yul\":15282:15284   */\n      0x40\n        /* \"#utility.yul\":15275:15297   */\n      mstore\n        /* \"#utility.yul\":15065:15303   */\n      pop\n        /* \"#utility.yul\":15022:15303   */\n      pop\n      pop\n      jump\t// out\n        /* \"#utility.yul\":15309:15542   */\n    tag_65:\n        /* \"#utility.yul\":15348:15351   */\n      0x00\n        /* \"#utility.yul\":15371:15395   */\n      tag_336\n        /* \"#utility.yul\":15389:15394   */\n      dup3\n        /* \"#utility.yul\":15371:15395   */\n      tag_267\n      jump\t// in\n    tag_336:\n        /* \"#utility.yul\":15362:15395   */\n      swap2\n      pop\n        /* \"#utility.yul\":15417:15483   */\n      0xffffffffffffffffffffffffffffffffffffffffffffffffffffffffffffffff\n        /* \"#utility.yul\":15410:15415   */\n      dup3\n        /* \"#utility.yul\":15407:15484   */\n      eq\n        /* \"#utility.yul\":15404:15507   */\n      iszero\n      tag_337\n      jumpi\n        /* \"#utility.yul\":15487:15505   */\n      tag_338\n      tag_313\n      jump\t// in\n    tag_338:\n        /* \"#utility.yul\":15404:15507   */\n    tag_337:\n        /* \"#utility.yul\":15534:15535   */\n      0x01\n        /* \"#utility.yul\":15527:15532   */\n      dup3\n        /* \"#utility.yul\":15523:15536   */\n      add\n        /* \"#utility.yul\":15516:15536   */\n      swap1\n      pop\n        /* \"#utility.yul\":15309:15542   */\n      swap2\n      swap1\n      pop\n      jump\t// out\n        /* \"#utility.yul\":15548:15728   */\n    tag_313:\n        /* \"#utility.yul\":15596:15673   */\n      0x4e487b7100000000000000000000000000000000000000000000000000000000\n        /* \"#utility.yul\":15593:15594   */\n      0x00\n        /* \"#utility.yul\":15586:15674   */\n      mstore\n        /* \"#utility.yul\":15693:15697   */\n      0x11\n        /* \"#utility.yul\":15690:15691   */\n      0x04\n        /* \"#utility.yul\":15683:15698   */\n      mstore\n        /* \"#utility.yul\":15717:15721   */\n      0x24\n        /* \"#utility.yul\":15714:15715   */\n      0x00\n        /* \"#utility.yul\":15707:15722   */\n      revert\n        /* \"#utility.yul\":15734:15914   */\n    tag_330:\n        /* \"#utility.yul\":15782:15859   */\n      0x4e487b7100000000000000000000000000000000000000000000000000000000\n        /* \"#utility.yul\":15779:15780   */\n      0x00\n        /* \"#utility.yul\":15772:15860   */\n      mstore\n        /* \"#utility.yul\":15879:15883   */\n      0x22\n        /* \"#utility.yul\":15876:15877   */\n      0x04\n        /* \"#utility.yul\":15869:15884   */\n      mstore\n        /* \"#utility.yul\":15903:15907   */\n      0x24\n        /* \"#utility.yul\":15900:15901   */\n      0x00\n        /* \"#utility.yul\":15893:15908   */\n      revert\n        /* \"#utility.yul\":15920:16100   */\n    tag_84:\n        /* \"#utility.yul\":15968:16045   */\n      0x4e487b7100000000000000000000000000000000000000000000000000000000\n        /* \"#utility.yul\":15965:15966   */\n      0x00\n        /* \"#utility.yul\":15958:16046   */\n      mstore\n        /* \"#utility.yul\":16065:16069   */\n      0x32\n        /* \"#utility.yul\":16062:16063   */\n      0x04\n        /* \"#utility.yul\":16055:16070   */\n      mstore\n        /* \"#utility.yul\":16089:16093   */\n      0x24\n        /* \"#utility.yul\":16086:16087   */\n      0x00\n        /* \"#utility.yul\":16079:16094   */\n      revert\n        /* \"#utility.yul\":16106:16286   */\n    tag_298:\n        /* \"#utility.yul\":16154:16231   */\n      0x4e487b7100000000000000000000000000000000000000000000000000000000\n        /* \"#utility.yul\":16151:16152   */\n      0x00\n        /* \"#utility.yul\":16144:16232   */\n      mstore\n        /* \"#utility.yul\":16251:16255   */\n      0x41\n        /* \"#utility.yul\":16248:16249   */\n      0x04\n        /* \"#utility.yul\":16241:16256   */\n      mstore\n        /* \"#utility.yul\":16275:16279   */\n      0x24\n        /* \"#utility.yul\":16272:16273   */\n      0x00\n        /* \"#utility.yul\":16265:16280   */\n      revert\n        /* \"#utility.yul\":16292:16409   */\n    tag_175:\n        /* \"#utility.yul\":16401:16402   */\n      0x00\n        /* \"#utility.yul\":16398:16399   */\n      dup1\n        /* \"#utility.yul\":16391:16403   */\n      revert\n        /* \"#utility.yul\":16415:16532   */\n    tag_140:\n        /* \"#utility.yul\":16524:16525   */\n      0x00\n        /* \"#utility.yul\":16521:16522   */\n      dup1\n        /* \"#utility.yul\":16514:16526   */\n      revert\n        /* \"#utility.yul\":16538:16655   */\n    tag_165:\n        /* \"#utility.yul\":16647:16648   */\n      0x00\n        /* \"#utility.yul\":16644:16645   */\n      dup1\n        /* \"#utility.yul\":16637:16649   */\n      revert\n        /* \"#utility.yul\":16661:16778   */\n    tag_201:\n        /* \"#utility.yul\":16770:16771   */\n      0x00\n        /* \"#utility.yul\":16767:16768   */\n      dup1\n        /* \"#utility.yul\":16760:16772   */\n      revert\n        /* \"#utility.yul\":16784:16901   */\n    tag_193:\n        /* \"#utility.yul\":16893:16894   */\n      0x00\n        /* \"#utility.yul\":16890:16891   */\n      dup1\n        /* \"#utility.yul\":16883:16895   */\n      revert\n        /* \"#utility.yul\":16907:17009   */\n    tag_248:\n        /* \"#utility.yul\":16948:16954   */\n      0x00\n        /* \"#utility.yul\":16999:17001   */\n      0x1f\n        /* \"#utility.yul\":16995:17002   */\n      not\n        /* \"#utility.yul\":16990:16992   */\n      0x1f\n        /* \"#utility.yul\":16983:16988   */\n      dup4\n        /* \"#utility.yul\":16979:16993   */\n      add\n        /* \"#utility.yul\":16975:17003   */\n      and\n        /* \"#utility.yul\":16965:17003   */\n      swap1\n      pop\n        /* \"#utility.yul\":16907:17009   */\n      swap2\n      swap1\n      pop\n      jump\t// out\n        /* \"#utility.yul\":17015:17174   */\n    tag_253:\n        /* \"#utility.yul\":17155:17166   */\n      0x57726f6e67206b65790000000000000000000000000000000000000000000000\n        /* \"#utility.yul\":17151:17152   */\n      0x00\n        /* \"#utility.yul\":17143:17149   */\n      dup3\n        /* \"#utility.yul\":17139:17153   */\n      add\n        /* \"#utility.yul\":17132:17167   */\n      mstore\n        /* \"#utility.yul\":17015:17174   */\n      pop\n      jump\t// out\n        /* \"#utility.yul\":17180:17342   */\n    tag_258:\n        /* \"#utility.yul\":17320:17334   */\n      0x4944206265656e20757365640000000000000000000000000000000000000000\n        /* \"#utility.yul\":17316:17317   */\n      0x00\n        /* \"#utility.yul\":17308:17314   */\n      dup3\n        /* \"#utility.yul\":17304:17318   */\n      add\n        /* \"#utility.yul\":17297:17335   */\n      mstore\n        /* \"#utility.yul\":17180:17342   */\n      pop\n      jump\t// out\n        /* \"#utility.yul\":17348:17511   */\n    tag_263:\n        /* \"#utility.yul\":17488:17503   */\n      0x4e6f205065726d697373696f6e00000000000000000000000000000000000000\n        /* \"#utility.yul\":17484:17485   */\n      0x00\n        /* \"#utility.yul\":17476:17482   */\n      dup3\n        /* \"#utility.yul\":17472:17486   */\n      add\n        /* \"#utility.yul\":17465:17504   */\n      mstore\n        /* \"#utility.yul\":17348:17511   */\n      pop\n      jump\t// out\n        /* \"#utility.yul\":17517:17639   */\n    tag_170:\n        /* \"#utility.yul\":17590:17614   */\n      tag_353\n        /* \"#utility.yul\":17608:17613   */\n      dup2\n        /* \"#utility.yul\":17590:17614   */\n      tag_234\n      jump\t// in\n    tag_353:\n        /* \"#utility.yul\":17583:17588   */\n      dup2\n        /* \"#utility.yul\":17580:17615   */\n      eq\n        /* \"#utility.yul\":17570:17633   */\n      tag_354\n      jumpi\n        /* \"#utility.yul\":17629:17630   */\n      0x00\n        /* \"#utility.yul\":17626:17627   */\n      dup1\n        /* \"#utility.yul\":17619:17631   */\n      revert\n        /* \"#utility.yul\":17570:17633   */\n    tag_354:\n        /* \"#utility.yul\":17517:17639   */\n      pop\n      jump\t// out\n        /* \"#utility.yul\":17645:17767   */\n    tag_189:\n        /* \"#utility.yul\":17718:17742   */\n      tag_356\n        /* \"#utility.yul\":17736:17741   */\n      dup2\n        /* \"#utility.yul\":17718:17742   */\n      tag_267\n      jump\t// in\n    tag_356:\n        /* \"#utility.yul\":17711:17716   */\n      dup2\n        /* \"#utility.yul\":17708:17743   */\n      eq\n        /* \"#utility.yul\":17698:17761   */\n      tag_357\n      jumpi\n        /* \"#utility.yul\":17757:17758   */\n      0x00\n        /* \"#utility.yul\":17754:17755   */\n      dup1\n        /* \"#utility.yul\":17747:17759   */\n      revert\n        /* \"#utility.yul\":17698:17761   */\n    tag_357:\n        /* \"#utility.yul\":17645:17767   */\n      pop\n      jump\t// out\n\n    auxdata: 0xa26469706673582212207942b4c005265893492922a81a681c528d085ecafc90b90b0f987b69ca6f2fcd64736f6c63430008070033\n}\n",
				"bytecode": {
					"linkReferences": {},
					"object": "608060405234801561001057600080fd5b50336000806101000a81548173ffffffffffffffffffffffffffffffffffffffff021916908373ffffffffffffffffffffffffffffffffffffffff16021790555061171b806100606000396000f3fe608060405234801561001057600080fd5b50600436106100885760003560e01c8063be19e1211161005b578063be19e12114610111578063cb9f40991461012d578063d6f937e514610149578063fea9b7171461017957610088565b806350fae1d21461008d578063730cb352146100a95780638aa430af146100d9578063a4db23fc146100f5575b600080fd5b6100a760048036038101906100a29190610fe0565b610195565b005b6100c360048036038101906100be91906110d8565b6101e6565b6040516100d0919061124e565b60405180910390f35b6100f360048036038101906100ee91906110ab565b610360565b005b61010f600480360381019061010a91906110ab565b6104d3565b005b61012b60048036038101906101269190610f55565b61061e565b005b6101476004803603810190610142919061103c565b610732565b005b610163600480360381019061015e9190610f15565b6108dd565b6040516101709190611269565b60405180910390f35b610193600480360381019061018e91906110d8565b610a73565b005b600180600083815260200190815260200160002060010154106101b757600080fd5b816001600083815260200190815260200160002060070190805190602001906101e1929190610c12565b505050565b60008060009054906101000a900473ffffffffffffffffffffffffffffffffffffffff1673ffffffffffffffffffffffffffffffffffffffff163373ffffffffffffffffffffffffffffffffffffffff1614610277576040517f08c379a000000000000000000000000000000000000000000000000000000000815260040161026e906112cb565b60405180910390fd5b6002600084815260200190815260200160002060009054906101000a900460ff16156102d8576040517f08c379a00000000000000000000000000000000000000000000000000000000081526004016102cf906112ab565b60405180910390fd5b8260016000858152602001908152602001600020600001819055506000600160008581526020019081526020016000206001018190555081600160008581526020019081526020016000206003018190555060016002600085815260200190815260200160002060006101000a81548160ff0219169083151502179055506001905092915050565b6001806000838152602001908152602001600020600101541461038257600080fd5b60008054906101000a900473ffffffffffffffffffffffffffffffffffffffff1673ffffffffffffffffffffffffffffffffffffffff163373ffffffffffffffffffffffffffffffffffffffff1614610410576040517f08c379a0000000000000000000000000000000000000000000000000000000008152600401610407906112cb565b60405180910390fd5b600160008281526020019081526020016000206003015460016000838152602001908152602001600020600201544261044991906113ec565b1161045357600080fd5b60016000828152602001908152602001600020600101600081548092919061047a9061150d565b91905055507f6d3c27ac9c0e2b532d3134fc77f00406a0f871f15158acd1a534ff32f02b2ebf600160008381526020019081526020016000206002015443836040516104c8939291906112eb565b60405180910390a150565b600180600083815260200190815260200160002060010154106104f557600080fd5b60008054906101000a900473ffffffffffffffffffffffffffffffffffffffff1673ffffffffffffffffffffffffffffffffffffffff163373ffffffffffffffffffffffffffffffffffffffff1614610583576040517f08c379a000000000000000000000000000000000000000000000000000000000815260040161057a906112cb565b60405180910390fd5b6001600082815260200190815260200160002060010160008154809291906105aa9061150d565b91905055504260016000838152602001908152602001600020600201819055507f72ed78084ba8ccd7ed78c0500fe00f29f9bce811b89269a56cf18b4dcfa6534460016000838152602001908152602001600020600201544383604051610613939291906112eb565b60405180910390a150565b6001806000838152602001908152602001600020600101541061064057600080fd5b60008054906101000a900473ffffffffffffffffffffffffffffffffffffffff1673ffffffffffffffffffffffffffffffffffffffff163373ffffffffffffffffffffffffffffffffffffffff16146106ce576040517f08c379a00000000000000000000000000000000000000000000000000000000081526004016106c5906112cb565b60405180910390fd5b60005b835181101561072c576107198482815181106106f0576106ef6115b4565b5b602002602001015184838151811061070b5761070a6115b4565b5b602002602001015184610b42565b80806107249061150d565b9150506106d1565b50505050565b6001806000848152602001908152602001600020600101541461075457600080fd5b60016000838152602001908152602001600020600801600082815260200190815260200160002060009054906101000a900473ffffffffffffffffffffffffffffffffffffffff1673ffffffffffffffffffffffffffffffffffffffff163373ffffffffffffffffffffffffffffffffffffffff1614610809576040517f08c379a00000000000000000000000000000000000000000000000000000000081526004016108009061128b565b60405180910390fd5b826001600084815260200190815260200160002060090160003373ffffffffffffffffffffffffffffffffffffffff1673ffffffffffffffffffffffffffffffffffffffff1681526020019081526020016000209080519060200190610870929190610c9c565b506001600083815260200190815260200160002060050160008154809291906108989061150d565b91905055507fc2d7e3c30328bfe2d5070f2c6c0dd93a439a518dcd8e0e115dbc992a607a8e663384846040516108d0939291906111e7565b60405180910390a1505050565b60606001806000848152602001908152602001600020600101541161090157600080fd5b60008054906101000a900473ffffffffffffffffffffffffffffffffffffffff1673ffffffffffffffffffffffffffffffffffffffff163373ffffffffffffffffffffffffffffffffffffffff161461098f576040517f08c379a0000000000000000000000000000000000000000000000000000000008152600401610986906112cb565b60405180910390fd5b6001600083815260200190815260200160002060090160008473ffffffffffffffffffffffffffffffffffffffff1673ffffffffffffffffffffffffffffffffffffffff16815260200190815260200160002080546109ed906114aa565b80601f0160208091040260200160405190810160405280929190818152602001828054610a19906114aa565b8015610a665780601f10610a3b57610100808354040283529160200191610a66565b820191906000526020600020905b815481529060010190602001808311610a4957829003601f168201915b5050505050905092915050565b60008054906101000a900473ffffffffffffffffffffffffffffffffffffffff1673ffffffffffffffffffffffffffffffffffffffff163373ffffffffffffffffffffffffffffffffffffffff1614610b01576040517f08c379a0000000000000000000000000000000000000000000000000000000008152600401610af8906112cb565b60405180910390fd5b60018060008381526020019081526020016000206001015410610b2357600080fd5b8160016000838152602001908152602001600020600301819055505050565b8260016000838152602001908152602001600020600801600084815260200190815260200160002060006101000a81548173ffffffffffffffffffffffffffffffffffffffff021916908373ffffffffffffffffffffffffffffffffffffffff160217905550600160008281526020019081526020016000206004016000815480929190610bcf9061150d565b91905055507f4ad260fdb84f8458e9ae5bfb9f78b3a60d8daeba55271ac59884c0f6cb4e04358382604051610c05929190611225565b60405180910390a1505050565b828054828255906000526020600020908101928215610c8b579160200282015b82811115610c8a5782518260006101000a81548173ffffffffffffffffffffffffffffffffffffffff021916908373ffffffffffffffffffffffffffffffffffffffff16021790555091602001919060010190610c32565b5b509050610c989190610d22565b5090565b828054610ca8906114aa565b90600052602060002090601f016020900481019282610cca5760008555610d11565b82601f10610ce357805160ff1916838001178555610d11565b82800160010185558215610d11579182015b82811115610d10578251825591602001919060010190610cf5565b5b509050610d1e9190610d22565b5090565b5b80821115610d3b576000816000905550600101610d23565b5090565b6000610d52610d4d84611347565b611322565b90508083825260208201905082856020860282011115610d7557610d74611617565b5b60005b85811015610da55781610d8b8882610e61565b845260208401935060208301925050600181019050610d78565b5050509392505050565b6000610dc2610dbd84611373565b611322565b90508083825260208201905082856020860282011115610de557610de4611617565b5b60005b85811015610e155781610dfb8882610f00565b845260208401935060208301925050600181019050610de8565b5050509392505050565b6000610e32610e2d8461139f565b611322565b905082815260208101848484011115610e4e57610e4d61161c565b5b610e59848285611468565b509392505050565b600081359050610e70816116b7565b92915050565b600082601f830112610e8b57610e8a611612565b5b8135610e9b848260208601610d3f565b91505092915050565b600082601f830112610eb957610eb8611612565b5b8135610ec9848260208601610daf565b91505092915050565b600082601f830112610ee757610ee6611612565b5b8135610ef7848260208601610e1f565b91505092915050565b600081359050610f0f816116ce565b92915050565b60008060408385031215610f2c57610f2b611626565b5b6000610f3a85828601610e61565b9250506020610f4b85828601610f00565b9150509250929050565b600080600060608486031215610f6e57610f6d611626565b5b600084013567ffffffffffffffff811115610f8c57610f8b611621565b5b610f9886828701610e76565b935050602084013567ffffffffffffffff811115610fb957610fb8611621565b5b610fc586828701610ea4565b9250506040610fd686828701610f00565b9150509250925092565b60008060408385031215610ff757610ff6611626565b5b600083013567ffffffffffffffff81111561101557611014611621565b5b61102185828601610e76565b925050602061103285828601610f00565b9150509250929050565b60008060006060848603121561105557611054611626565b5b600084013567ffffffffffffffff81111561107357611072611621565b5b61107f86828701610ed2565b935050602061109086828701610f00565b92505060406110a186828701610f00565b9150509250925092565b6000602082840312156110c1576110c0611626565b5b60006110cf84828501610f00565b91505092915050565b600080604083850312156110ef576110ee611626565b5b60006110fd85828601610f00565b925050602061110e85828601610f00565b9150509250929050565b61112181611420565b82525050565b61113081611432565b82525050565b6000611141826113d0565b61114b81856113db565b935061115b818560208601611477565b6111648161162b565b840191505092915050565b600061117c6009836113db565b91506111878261163c565b602082019050919050565b600061119f600c836113db565b91506111aa82611665565b602082019050919050565b60006111c2600d836113db565b91506111cd8261168e565b602082019050919050565b6111e18161145e565b82525050565b60006060820190506111fc6000830186611118565b818103602083015261120e8185611136565b905061121d60408301846111d8565b949350505050565b600060408201905061123a6000830185611118565b61124760208301846111d8565b9392505050565b60006020820190506112636000830184611127565b92915050565b600060208201905081810360008301526112838184611136565b905092915050565b600060208201905081810360008301526112a48161116f565b9050919050565b600060208201905081810360008301526112c481611192565b9050919050565b600060208201905081810360008301526112e4816111b5565b9050919050565b600060608201905061130060008301866111d8565b61130d60208301856111d8565b61131a60408301846111d8565b949350505050565b600061132c61133d565b905061133882826114dc565b919050565b6000604051905090565b600067ffffffffffffffff821115611362576113616115e3565b5b602082029050602081019050919050565b600067ffffffffffffffff82111561138e5761138d6115e3565b5b602082029050602081019050919050565b600067ffffffffffffffff8211156113ba576113b96115e3565b5b6113c38261162b565b9050602081019050919050565b600081519050919050565b600082825260208201905092915050565b60006113f78261145e565b91506114028361145e565b92508282101561141557611414611556565b5b828203905092915050565b600061142b8261143e565b9050919050565b60008115159050919050565b600073ffffffffffffffffffffffffffffffffffffffff82169050919050565b6000819050919050565b82818337600083830152505050565b60005b8381101561149557808201518184015260208101905061147a565b838111156114a4576000848401525b50505050565b600060028204905060018216806114c257607f821691505b602082108114156114d6576114d5611585565b5b50919050565b6114e58261162b565b810181811067ffffffffffffffff82111715611504576115036115e3565b5b80604052505050565b60006115188261145e565b91507fffffffffffffffffffffffffffffffffffffffffffffffffffffffffffffffff82141561154b5761154a611556565b5b600182019050919050565b7f4e487b7100000000000000000000000000000000000000000000000000000000600052601160045260246000fd5b7f4e487b7100000000000000000000000000000000000000000000000000000000600052602260045260246000fd5b7f4e487b7100000000000000000000000000000000000000000000000000000000600052603260045260246000fd5b7f4e487b7100000000000000000000000000000000000000000000000000000000600052604160045260246000fd5b600080fd5b600080fd5b600080fd5b600080fd5b600080fd5b6000601f19601f8301169050919050565b7f57726f6e67206b65790000000000000000000000000000000000000000000000600082015250565b7f4944206265656e20757365640000000000000000000000000000000000000000600082015250565b7f4e6f205065726d697373696f6e00000000000000000000000000000000000000600082015250565b6116c081611420565b81146116cb57600080fd5b50565b6116d78161145e565b81146116e257600080fd5b5056fea26469706673582212207942b4c005265893492922a81a681c528d085ecafc90b90b0f987b69ca6f2fcd64736f6c63430008070033",
					"opcodes": "PUSH1 0x80 PUSH1 0x40 MSTORE CALLVALUE DUP1 ISZERO PUSH2 0x10 JUMPI PUSH1 0x0 DUP1 REVERT JUMPDEST POP CALLER PUSH1 0x0 DUP1 PUSH2 0x100 EXP DUP2 SLOAD DUP2 PUSH20 0xFFFFFFFFFFFFFFFFFFFFFFFFFFFFFFFFFFFFFFFF MUL NOT AND SWAP1 DUP4 PUSH20 0xFFFFFFFFFFFFFFFFFFFFFFFFFFFFFFFFFFFFFFFF AND MUL OR SWAP1 SSTORE POP PUSH2 0x171B DUP1 PUSH2 0x60 PUSH1 0x0 CODECOPY PUSH1 0x0 RETURN INVALID PUSH1 0x80 PUSH1 0x40 MSTORE CALLVALUE DUP1 ISZERO PUSH2 0x10 JUMPI PUSH1 0x0 DUP1 REVERT JUMPDEST POP PUSH1 0x4 CALLDATASIZE LT PUSH2 0x88 JUMPI PUSH1 0x0 CALLDATALOAD PUSH1 0xE0 SHR DUP1 PUSH4 0xBE19E121 GT PUSH2 0x5B JUMPI DUP1 PUSH4 0xBE19E121 EQ PUSH2 0x111 JUMPI DUP1 PUSH4 0xCB9F4099 EQ PUSH2 0x12D JUMPI DUP1 PUSH4 0xD6F937E5 EQ PUSH2 0x149 JUMPI DUP1 PUSH4 0xFEA9B717 EQ PUSH2 0x179 JUMPI PUSH2 0x88 JUMP JUMPDEST DUP1 PUSH4 0x50FAE1D2 EQ PUSH2 0x8D JUMPI DUP1 PUSH4 0x730CB352 EQ PUSH2 0xA9 JUMPI DUP1 PUSH4 0x8AA430AF EQ PUSH2 0xD9 JUMPI DUP1 PUSH4 0xA4DB23FC EQ PUSH2 0xF5 JUMPI JUMPDEST PUSH1 0x0 DUP1 REVERT JUMPDEST PUSH2 0xA7 PUSH1 0x4 DUP1 CALLDATASIZE SUB DUP2 ADD SWAP1 PUSH2 0xA2 SWAP2 SWAP1 PUSH2 0xFE0 JUMP JUMPDEST PUSH2 0x195 JUMP JUMPDEST STOP JUMPDEST PUSH2 0xC3 PUSH1 0x4 DUP1 CALLDATASIZE SUB DUP2 ADD SWAP1 PUSH2 0xBE SWAP2 SWAP1 PUSH2 0x10D8 JUMP JUMPDEST PUSH2 0x1E6 JUMP JUMPDEST PUSH1 0x40 MLOAD PUSH2 0xD0 SWAP2 SWAP1 PUSH2 0x124E JUMP JUMPDEST PUSH1 0x40 MLOAD DUP1 SWAP2 SUB SWAP1 RETURN JUMPDEST PUSH2 0xF3 PUSH1 0x4 DUP1 CALLDATASIZE SUB DUP2 ADD SWAP1 PUSH2 0xEE SWAP2 SWAP1 PUSH2 0x10AB JUMP JUMPDEST PUSH2 0x360 JUMP JUMPDEST STOP JUMPDEST PUSH2 0x10F PUSH1 0x4 DUP1 CALLDATASIZE SUB DUP2 ADD SWAP1 PUSH2 0x10A SWAP2 SWAP1 PUSH2 0x10AB JUMP JUMPDEST PUSH2 0x4D3 JUMP JUMPDEST STOP JUMPDEST PUSH2 0x12B PUSH1 0x4 DUP1 CALLDATASIZE SUB DUP2 ADD SWAP1 PUSH2 0x126 SWAP2 SWAP1 PUSH2 0xF55 JUMP JUMPDEST PUSH2 0x61E JUMP JUMPDEST STOP JUMPDEST PUSH2 0x147 PUSH1 0x4 DUP1 CALLDATASIZE SUB DUP2 ADD SWAP1 PUSH2 0x142 SWAP2 SWAP1 PUSH2 0x103C JUMP JUMPDEST PUSH2 0x732 JUMP JUMPDEST STOP JUMPDEST PUSH2 0x163 PUSH1 0x4 DUP1 CALLDATASIZE SUB DUP2 ADD SWAP1 PUSH2 0x15E SWAP2 SWAP1 PUSH2 0xF15 JUMP JUMPDEST PUSH2 0x8DD JUMP JUMPDEST PUSH1 0x40 MLOAD PUSH2 0x170 SWAP2 SWAP1 PUSH2 0x1269 JUMP JUMPDEST PUSH1 0x40 MLOAD DUP1 SWAP2 SUB SWAP1 RETURN JUMPDEST PUSH2 0x193 PUSH1 0x4 DUP1 CALLDATASIZE SUB DUP2 ADD SWAP1 PUSH2 0x18E SWAP2 SWAP1 PUSH2 0x10D8 JUMP JUMPDEST PUSH2 0xA73 JUMP JUMPDEST STOP JUMPDEST PUSH1 0x1 DUP1 PUSH1 0x0 DUP4 DUP2 MSTORE PUSH1 0x20 ADD SWAP1 DUP2 MSTORE PUSH1 0x20 ADD PUSH1 0x0 KECCAK256 PUSH1 0x1 ADD SLOAD LT PUSH2 0x1B7 JUMPI PUSH1 0x0 DUP1 REVERT JUMPDEST DUP2 PUSH1 0x1 PUSH1 0x0 DUP4 DUP2 MSTORE PUSH1 0x20 ADD SWAP1 DUP2 MSTORE PUSH1 0x20 ADD PUSH1 0x0 KECCAK256 PUSH1 0x7 ADD SWAP1 DUP1 MLOAD SWAP1 PUSH1 0x20 ADD SWAP1 PUSH2 0x1E1 SWAP3 SWAP2 SWAP1 PUSH2 0xC12 JUMP JUMPDEST POP POP POP JUMP JUMPDEST PUSH1 0x0 DUP1 PUSH1 0x0 SWAP1 SLOAD SWAP1 PUSH2 0x100 EXP SWAP1 DIV PUSH20 0xFFFFFFFFFFFFFFFFFFFFFFFFFFFFFFFFFFFFFFFF AND PUSH20 0xFFFFFFFFFFFFFFFFFFFFFFFFFFFFFFFFFFFFFFFF AND CALLER PUSH20 0xFFFFFFFFFFFFFFFFFFFFFFFFFFFFFFFFFFFFFFFF AND EQ PUSH2 0x277 JUMPI PUSH1 0x40 MLOAD PUSH32 0x8C379A000000000000000000000000000000000000000000000000000000000 DUP2 MSTORE PUSH1 0x4 ADD PUSH2 0x26E SWAP1 PUSH2 0x12CB JUMP JUMPDEST PUSH1 0x40 MLOAD DUP1 SWAP2 SUB SWAP1 REVERT JUMPDEST PUSH1 0x2 PUSH1 0x0 DUP5 DUP2 MSTORE PUSH1 0x20 ADD SWAP1 DUP2 MSTORE PUSH1 0x20 ADD PUSH1 0x0 KECCAK256 PUSH1 0x0 SWAP1 SLOAD SWAP1 PUSH2 0x100 EXP SWAP1 DIV PUSH1 0xFF AND ISZERO PUSH2 0x2D8 JUMPI PUSH1 0x40 MLOAD PUSH32 0x8C379A000000000000000000000000000000000000000000000000000000000 DUP2 MSTORE PUSH1 0x4 ADD PUSH2 0x2CF SWAP1 PUSH2 0x12AB JUMP JUMPDEST PUSH1 0x40 MLOAD DUP1 SWAP2 SUB SWAP1 REVERT JUMPDEST DUP3 PUSH1 0x1 PUSH1 0x0 DUP6 DUP2 MSTORE PUSH1 0x20 ADD SWAP1 DUP2 MSTORE PUSH1 0x20 ADD PUSH1 0x0 KECCAK256 PUSH1 0x0 ADD DUP2 SWAP1 SSTORE POP PUSH1 0x0 PUSH1 0x1 PUSH1 0x0 DUP6 DUP2 MSTORE PUSH1 0x20 ADD SWAP1 DUP2 MSTORE PUSH1 0x20 ADD PUSH1 0x0 KECCAK256 PUSH1 0x1 ADD DUP2 SWAP1 SSTORE POP DUP2 PUSH1 0x1 PUSH1 0x0 DUP6 DUP2 MSTORE PUSH1 0x20 ADD SWAP1 DUP2 MSTORE PUSH1 0x20 ADD PUSH1 0x0 KECCAK256 PUSH1 0x3 ADD DUP2 SWAP1 SSTORE POP PUSH1 0x1 PUSH1 0x2 PUSH1 0x0 DUP6 DUP2 MSTORE PUSH1 0x20 ADD SWAP1 DUP2 MSTORE PUSH1 0x20 ADD PUSH1 0x0 KECCAK256 PUSH1 0x0 PUSH2 0x100 EXP DUP2 SLOAD DUP2 PUSH1 0xFF MUL NOT AND SWAP1 DUP4 ISZERO ISZERO MUL OR SWAP1 SSTORE POP PUSH1 0x1 SWAP1 POP SWAP3 SWAP2 POP POP JUMP JUMPDEST PUSH1 0x1 DUP1 PUSH1 0x0 DUP4 DUP2 MSTORE PUSH1 0x20 ADD SWAP1 DUP2 MSTORE PUSH1 0x20 ADD PUSH1 0x0 KECCAK256 PUSH1 0x1 ADD SLOAD EQ PUSH2 0x382 JUMPI PUSH1 0x0 DUP1 REVERT JUMPDEST PUSH1 0x0 DUP1 SLOAD SWAP1 PUSH2 0x100 EXP SWAP1 DIV PUSH20 0xFFFFFFFFFFFFFFFFFFFFFFFFFFFFFFFFFFFFFFFF AND PUSH20 0xFFFFFFFFFFFFFFFFFFFFFFFFFFFFFFFFFFFFFFFF AND CALLER PUSH20 0xFFFFFFFFFFFFFFFFFFFFFFFFFFFFFFFFFFFFFFFF AND EQ PUSH2 0x410 JUMPI PUSH1 0x40 MLOAD PUSH32 0x8C379A000000000000000000000000000000000000000000000000000000000 DUP2 MSTORE PUSH1 0x4 ADD PUSH2 0x407 SWAP1 PUSH2 0x12CB JUMP JUMPDEST PUSH1 0x40 MLOAD DUP1 SWAP2 SUB SWAP1 REVERT JUMPDEST PUSH1 0x1 PUSH1 0x0 DUP3 DUP2 MSTORE PUSH1 0x20 ADD SWAP1 DUP2 MSTORE PUSH1 0x20 ADD PUSH1 0x0 KECCAK256 PUSH1 0x3 ADD SLOAD PUSH1 0x1 PUSH1 0x0 DUP4 DUP2 MSTORE PUSH1 0x20 ADD SWAP1 DUP2 MSTORE PUSH1 0x20 ADD PUSH1 0x0 KECCAK256 PUSH1 0x2 ADD SLOAD TIMESTAMP PUSH2 0x449 SWAP2 SWAP1 PUSH2 0x13EC JUMP JUMPDEST GT PUSH2 0x453 JUMPI PUSH1 0x0 DUP1 REVERT JUMPDEST PUSH1 0x1 PUSH1 0x0 DUP3 DUP2 MSTORE PUSH1 0x20 ADD SWAP1 DUP2 MSTORE PUSH1 0x20 ADD PUSH1 0x0 KECCAK256 PUSH1 0x1 ADD PUSH1 0x0 DUP2 SLOAD DUP1 SWAP3 SWAP2 SWAP1 PUSH2 0x47A SWAP1 PUSH2 0x150D JUMP JUMPDEST SWAP2 SWAP1 POP SSTORE POP PUSH32 0x6D3C27AC9C0E2B532D3134FC77F00406A0F871F15158ACD1A534FF32F02B2EBF PUSH1 0x1 PUSH1 0x0 DUP4 DUP2 MSTORE PUSH1 0x20 ADD SWAP1 DUP2 MSTORE PUSH1 0x20 ADD PUSH1 0x0 KECCAK256 PUSH1 0x2 ADD SLOAD NUMBER DUP4 PUSH1 0x40 MLOAD PUSH2 0x4C8 SWAP4 SWAP3 SWAP2 SWAP1 PUSH2 0x12EB JUMP JUMPDEST PUSH1 0x40 MLOAD DUP1 SWAP2 SUB SWAP1 LOG1 POP JUMP JUMPDEST PUSH1 0x1 DUP1 PUSH1 0x0 DUP4 DUP2 MSTORE PUSH1 0x20 ADD SWAP1 DUP2 MSTORE PUSH1 0x20 ADD PUSH1 0x0 KECCAK256 PUSH1 0x1 ADD SLOAD LT PUSH2 0x4F5 JUMPI PUSH1 0x0 DUP1 REVERT JUMPDEST PUSH1 0x0 DUP1 SLOAD SWAP1 PUSH2 0x100 EXP SWAP1 DIV PUSH20 0xFFFFFFFFFFFFFFFFFFFFFFFFFFFFFFFFFFFFFFFF AND PUSH20 0xFFFFFFFFFFFFFFFFFFFFFFFFFFFFFFFFFFFFFFFF AND CALLER PUSH20 0xFFFFFFFFFFFFFFFFFFFFFFFFFFFFFFFFFFFFFFFF AND EQ PUSH2 0x583 JUMPI PUSH1 0x40 MLOAD PUSH32 0x8C379A000000000000000000000000000000000000000000000000000000000 DUP2 MSTORE PUSH1 0x4 ADD PUSH2 0x57A SWAP1 PUSH2 0x12CB JUMP JUMPDEST PUSH1 0x40 MLOAD DUP1 SWAP2 SUB SWAP1 REVERT JUMPDEST PUSH1 0x1 PUSH1 0x0 DUP3 DUP2 MSTORE PUSH1 0x20 ADD SWAP1 DUP2 MSTORE PUSH1 0x20 ADD PUSH1 0x0 KECCAK256 PUSH1 0x1 ADD PUSH1 0x0 DUP2 SLOAD DUP1 SWAP3 SWAP2 SWAP1 PUSH2 0x5AA SWAP1 PUSH2 0x150D JUMP JUMPDEST SWAP2 SWAP1 POP SSTORE POP TIMESTAMP PUSH1 0x1 PUSH1 0x0 DUP4 DUP2 MSTORE PUSH1 0x20 ADD SWAP1 DUP2 MSTORE PUSH1 0x20 ADD PUSH1 0x0 KECCAK256 PUSH1 0x2 ADD DUP2 SWAP1 SSTORE POP PUSH32 0x72ED78084BA8CCD7ED78C0500FE00F29F9BCE811B89269A56CF18B4DCFA65344 PUSH1 0x1 PUSH1 0x0 DUP4 DUP2 MSTORE PUSH1 0x20 ADD SWAP1 DUP2 MSTORE PUSH1 0x20 ADD PUSH1 0x0 KECCAK256 PUSH1 0x2 ADD SLOAD NUMBER DUP4 PUSH1 0x40 MLOAD PUSH2 0x613 SWAP4 SWAP3 SWAP2 SWAP1 PUSH2 0x12EB JUMP JUMPDEST PUSH1 0x40 MLOAD DUP1 SWAP2 SUB SWAP1 LOG1 POP JUMP JUMPDEST PUSH1 0x1 DUP1 PUSH1 0x0 DUP4 DUP2 MSTORE PUSH1 0x20 ADD SWAP1 DUP2 MSTORE PUSH1 0x20 ADD PUSH1 0x0 KECCAK256 PUSH1 0x1 ADD SLOAD LT PUSH2 0x640 JUMPI PUSH1 0x0 DUP1 REVERT JUMPDEST PUSH1 0x0 DUP1 SLOAD SWAP1 PUSH2 0x100 EXP SWAP1 DIV PUSH20 0xFFFFFFFFFFFFFFFFFFFFFFFFFFFFFFFFFFFFFFFF AND PUSH20 0xFFFFFFFFFFFFFFFFFFFFFFFFFFFFFFFFFFFFFFFF AND CALLER PUSH20 0xFFFFFFFFFFFFFFFFFFFFFFFFFFFFFFFFFFFFFFFF AND EQ PUSH2 0x6CE JUMPI PUSH1 0x40 MLOAD PUSH32 0x8C379A000000000000000000000000000000000000000000000000000000000 DUP2 MSTORE PUSH1 0x4 ADD PUSH2 0x6C5 SWAP1 PUSH2 0x12CB JUMP JUMPDEST PUSH1 0x40 MLOAD DUP1 SWAP2 SUB SWAP1 REVERT JUMPDEST PUSH1 0x0 JUMPDEST DUP4 MLOAD DUP2 LT ISZERO PUSH2 0x72C JUMPI PUSH2 0x719 DUP5 DUP3 DUP2 MLOAD DUP2 LT PUSH2 0x6F0 JUMPI PUSH2 0x6EF PUSH2 0x15B4 JUMP JUMPDEST JUMPDEST PUSH1 0x20 MUL PUSH1 0x20 ADD ADD MLOAD DUP5 DUP4 DUP2 MLOAD DUP2 LT PUSH2 0x70B JUMPI PUSH2 0x70A PUSH2 0x15B4 JUMP JUMPDEST JUMPDEST PUSH1 0x20 MUL PUSH1 0x20 ADD ADD MLOAD DUP5 PUSH2 0xB42 JUMP JUMPDEST DUP1 DUP1 PUSH2 0x724 SWAP1 PUSH2 0x150D JUMP JUMPDEST SWAP2 POP POP PUSH2 0x6D1 JUMP JUMPDEST POP POP POP POP JUMP JUMPDEST PUSH1 0x1 DUP1 PUSH1 0x0 DUP5 DUP2 MSTORE PUSH1 0x20 ADD SWAP1 DUP2 MSTORE PUSH1 0x20 ADD PUSH1 0x0 KECCAK256 PUSH1 0x1 ADD SLOAD EQ PUSH2 0x754 JUMPI PUSH1 0x0 DUP1 REVERT JUMPDEST PUSH1 0x1 PUSH1 0x0 DUP4 DUP2 MSTORE PUSH1 0x20 ADD SWAP1 DUP2 MSTORE PUSH1 0x20 ADD PUSH1 0x0 KECCAK256 PUSH1 0x8 ADD PUSH1 0x0 DUP3 DUP2 MSTORE PUSH1 0x20 ADD SWAP1 DUP2 MSTORE PUSH1 0x20 ADD PUSH1 0x0 KECCAK256 PUSH1 0x0 SWAP1 SLOAD SWAP1 PUSH2 0x100 EXP SWAP1 DIV PUSH20 0xFFFFFFFFFFFFFFFFFFFFFFFFFFFFFFFFFFFFFFFF AND PUSH20 0xFFFFFFFFFFFFFFFFFFFFFFFFFFFFFFFFFFFFFFFF AND CALLER PUSH20 0xFFFFFFFFFFFFFFFFFFFFFFFFFFFFFFFFFFFFFFFF AND EQ PUSH2 0x809 JUMPI PUSH1 0x40 MLOAD PUSH32 0x8C379A000000000000000000000000000000000000000000000000000000000 DUP2 MSTORE PUSH1 0x4 ADD PUSH2 0x800 SWAP1 PUSH2 0x128B JUMP JUMPDEST PUSH1 0x40 MLOAD DUP1 SWAP2 SUB SWAP1 REVERT JUMPDEST DUP3 PUSH1 0x1 PUSH1 0x0 DUP5 DUP2 MSTORE PUSH1 0x20 ADD SWAP1 DUP2 MSTORE PUSH1 0x20 ADD PUSH1 0x0 KECCAK256 PUSH1 0x9 ADD PUSH1 0x0 CALLER PUSH20 0xFFFFFFFFFFFFFFFFFFFFFFFFFFFFFFFFFFFFFFFF AND PUSH20 0xFFFFFFFFFFFFFFFFFFFFFFFFFFFFFFFFFFFFFFFF AND DUP2 MSTORE PUSH1 0x20 ADD SWAP1 DUP2 MSTORE PUSH1 0x20 ADD PUSH1 0x0 KECCAK256 SWAP1 DUP1 MLOAD SWAP1 PUSH1 0x20 ADD SWAP1 PUSH2 0x870 SWAP3 SWAP2 SWAP1 PUSH2 0xC9C JUMP JUMPDEST POP PUSH1 0x1 PUSH1 0x0 DUP4 DUP2 MSTORE PUSH1 0x20 ADD SWAP1 DUP2 MSTORE PUSH1 0x20 ADD PUSH1 0x0 KECCAK256 PUSH1 0x5 ADD PUSH1 0x0 DUP2 SLOAD DUP1 SWAP3 SWAP2 SWAP1 PUSH2 0x898 SWAP1 PUSH2 0x150D JUMP JUMPDEST SWAP2 SWAP1 POP SSTORE POP PUSH32 0xC2D7E3C30328BFE2D5070F2C6C0DD93A439A518DCD8E0E115DBC992A607A8E66 CALLER DUP5 DUP5 PUSH1 0x40 MLOAD PUSH2 0x8D0 SWAP4 SWAP3 SWAP2 SWAP1 PUSH2 0x11E7 JUMP JUMPDEST PUSH1 0x40 MLOAD DUP1 SWAP2 SUB SWAP1 LOG1 POP POP POP JUMP JUMPDEST PUSH1 0x60 PUSH1 0x1 DUP1 PUSH1 0x0 DUP5 DUP2 MSTORE PUSH1 0x20 ADD SWAP1 DUP2 MSTORE PUSH1 0x20 ADD PUSH1 0x0 KECCAK256 PUSH1 0x1 ADD SLOAD GT PUSH2 0x901 JUMPI PUSH1 0x0 DUP1 REVERT JUMPDEST PUSH1 0x0 DUP1 SLOAD SWAP1 PUSH2 0x100 EXP SWAP1 DIV PUSH20 0xFFFFFFFFFFFFFFFFFFFFFFFFFFFFFFFFFFFFFFFF AND PUSH20 0xFFFFFFFFFFFFFFFFFFFFFFFFFFFFFFFFFFFFFFFF AND CALLER PUSH20 0xFFFFFFFFFFFFFFFFFFFFFFFFFFFFFFFFFFFFFFFF AND EQ PUSH2 0x98F JUMPI PUSH1 0x40 MLOAD PUSH32 0x8C379A000000000000000000000000000000000000000000000000000000000 DUP2 MSTORE PUSH1 0x4 ADD PUSH2 0x986 SWAP1 PUSH2 0x12CB JUMP JUMPDEST PUSH1 0x40 MLOAD DUP1 SWAP2 SUB SWAP1 REVERT JUMPDEST PUSH1 0x1 PUSH1 0x0 DUP4 DUP2 MSTORE PUSH1 0x20 ADD SWAP1 DUP2 MSTORE PUSH1 0x20 ADD PUSH1 0x0 KECCAK256 PUSH1 0x9 ADD PUSH1 0x0 DUP5 PUSH20 0xFFFFFFFFFFFFFFFFFFFFFFFFFFFFFFFFFFFFFFFF AND PUSH20 0xFFFFFFFFFFFFFFFFFFFFFFFFFFFFFFFFFFFFFFFF AND DUP2 MSTORE PUSH1 0x20 ADD SWAP1 DUP2 MSTORE PUSH1 0x20 ADD PUSH1 0x0 KECCAK256 DUP1 SLOAD PUSH2 0x9ED SWAP1 PUSH2 0x14AA JUMP JUMPDEST DUP1 PUSH1 0x1F ADD PUSH1 0x20 DUP1 SWAP2 DIV MUL PUSH1 0x20 ADD PUSH1 0x40 MLOAD SWAP1 DUP2 ADD PUSH1 0x40 MSTORE DUP1 SWAP3 SWAP2 SWAP1 DUP2 DUP2 MSTORE PUSH1 0x20 ADD DUP3 DUP1 SLOAD PUSH2 0xA19 SWAP1 PUSH2 0x14AA JUMP JUMPDEST DUP1 ISZERO PUSH2 0xA66 JUMPI DUP1 PUSH1 0x1F LT PUSH2 0xA3B JUMPI PUSH2 0x100 DUP1 DUP4 SLOAD DIV MUL DUP4 MSTORE SWAP2 PUSH1 0x20 ADD SWAP2 PUSH2 0xA66 JUMP JUMPDEST DUP3 ADD SWAP2 SWAP1 PUSH1 0x0 MSTORE PUSH1 0x20 PUSH1 0x0 KECCAK256 SWAP1 JUMPDEST DUP2 SLOAD DUP2 MSTORE SWAP1 PUSH1 0x1 ADD SWAP1 PUSH1 0x20 ADD DUP1 DUP4 GT PUSH2 0xA49 JUMPI DUP3 SWAP1 SUB PUSH1 0x1F AND DUP3 ADD SWAP2 JUMPDEST POP POP POP POP POP SWAP1 POP SWAP3 SWAP2 POP POP JUMP JUMPDEST PUSH1 0x0 DUP1 SLOAD SWAP1 PUSH2 0x100 EXP SWAP1 DIV PUSH20 0xFFFFFFFFFFFFFFFFFFFFFFFFFFFFFFFFFFFFFFFF AND PUSH20 0xFFFFFFFFFFFFFFFFFFFFFFFFFFFFFFFFFFFFFFFF AND CALLER PUSH20 0xFFFFFFFFFFFFFFFFFFFFFFFFFFFFFFFFFFFFFFFF AND EQ PUSH2 0xB01 JUMPI PUSH1 0x40 MLOAD PUSH32 0x8C379A000000000000000000000000000000000000000000000000000000000 DUP2 MSTORE PUSH1 0x4 ADD PUSH2 0xAF8 SWAP1 PUSH2 0x12CB JUMP JUMPDEST PUSH1 0x40 MLOAD DUP1 SWAP2 SUB SWAP1 REVERT JUMPDEST PUSH1 0x1 DUP1 PUSH1 0x0 DUP4 DUP2 MSTORE PUSH1 0x20 ADD SWAP1 DUP2 MSTORE PUSH1 0x20 ADD PUSH1 0x0 KECCAK256 PUSH1 0x1 ADD SLOAD LT PUSH2 0xB23 JUMPI PUSH1 0x0 DUP1 REVERT JUMPDEST DUP2 PUSH1 0x1 PUSH1 0x0 DUP4 DUP2 MSTORE PUSH1 0x20 ADD SWAP1 DUP2 MSTORE PUSH1 0x20 ADD PUSH1 0x0 KECCAK256 PUSH1 0x3 ADD DUP2 SWAP1 SSTORE POP POP POP JUMP JUMPDEST DUP3 PUSH1 0x1 PUSH1 0x0 DUP4 DUP2 MSTORE PUSH1 0x20 ADD SWAP1 DUP2 MSTORE PUSH1 0x20 ADD PUSH1 0x0 KECCAK256 PUSH1 0x8 ADD PUSH1 0x0 DUP5 DUP2 MSTORE PUSH1 0x20 ADD SWAP1 DUP2 MSTORE PUSH1 0x20 ADD PUSH1 0x0 KECCAK256 PUSH1 0x0 PUSH2 0x100 EXP DUP2 SLOAD DUP2 PUSH20 0xFFFFFFFFFFFFFFFFFFFFFFFFFFFFFFFFFFFFFFFF MUL NOT AND SWAP1 DUP4 PUSH20 0xFFFFFFFFFFFFFFFFFFFFFFFFFFFFFFFFFFFFFFFF AND MUL OR SWAP1 SSTORE POP PUSH1 0x1 PUSH1 0x0 DUP3 DUP2 MSTORE PUSH1 0x20 ADD SWAP1 DUP2 MSTORE PUSH1 0x20 ADD PUSH1 0x0 KECCAK256 PUSH1 0x4 ADD PUSH1 0x0 DUP2 SLOAD DUP1 SWAP3 SWAP2 SWAP1 PUSH2 0xBCF SWAP1 PUSH2 0x150D JUMP JUMPDEST SWAP2 SWAP1 POP SSTORE POP PUSH32 0x4AD260FDB84F8458E9AE5BFB9F78B3A60D8DAEBA55271AC59884C0F6CB4E0435 DUP4 DUP3 PUSH1 0x40 MLOAD PUSH2 0xC05 SWAP3 SWAP2 SWAP1 PUSH2 0x1225 JUMP JUMPDEST PUSH1 0x40 MLOAD DUP1 SWAP2 SUB SWAP1 LOG1 POP POP POP JUMP JUMPDEST DUP3 DUP1 SLOAD DUP3 DUP3 SSTORE SWAP1 PUSH1 0x0 MSTORE PUSH1 0x20 PUSH1 0x0 KECCAK256 SWAP1 DUP2 ADD SWAP3 DUP3 ISZERO PUSH2 0xC8B JUMPI SWAP2 PUSH1 0x20 MUL DUP3 ADD JUMPDEST DUP3 DUP2 GT ISZERO PUSH2 0xC8A JUMPI DUP3 MLOAD DUP3 PUSH1 0x0 PUSH2 0x100 EXP DUP2 SLOAD DUP2 PUSH20 0xFFFFFFFFFFFFFFFFFFFFFFFFFFFFFFFFFFFFFFFF MUL NOT AND SWAP1 DUP4 PUSH20 0xFFFFFFFFFFFFFFFFFFFFFFFFFFFFFFFFFFFFFFFF AND MUL OR SWAP1 SSTORE POP SWAP2 PUSH1 0x20 ADD SWAP2 SWAP1 PUSH1 0x1 ADD SWAP1 PUSH2 0xC32 JUMP JUMPDEST JUMPDEST POP SWAP1 POP PUSH2 0xC98 SWAP2 SWAP1 PUSH2 0xD22 JUMP JUMPDEST POP SWAP1 JUMP JUMPDEST DUP3 DUP1 SLOAD PUSH2 0xCA8 SWAP1 PUSH2 0x14AA JUMP JUMPDEST SWAP1 PUSH1 0x0 MSTORE PUSH1 0x20 PUSH1 0x0 KECCAK256 SWAP1 PUSH1 0x1F ADD PUSH1 0x20 SWAP1 DIV DUP2 ADD SWAP3 DUP3 PUSH2 0xCCA JUMPI PUSH1 0x0 DUP6 SSTORE PUSH2 0xD11 JUMP JUMPDEST DUP3 PUSH1 0x1F LT PUSH2 0xCE3 JUMPI DUP1 MLOAD PUSH1 0xFF NOT AND DUP4 DUP1 ADD OR DUP6 SSTORE PUSH2 0xD11 JUMP JUMPDEST DUP3 DUP1 ADD PUSH1 0x1 ADD DUP6 SSTORE DUP3 ISZERO PUSH2 0xD11 JUMPI SWAP2 DUP3 ADD JUMPDEST DUP3 DUP2 GT ISZERO PUSH2 0xD10 JUMPI DUP3 MLOAD DUP3 SSTORE SWAP2 PUSH1 0x20 ADD SWAP2 SWAP1 PUSH1 0x1 ADD SWAP1 PUSH2 0xCF5 JUMP JUMPDEST JUMPDEST POP SWAP1 POP PUSH2 0xD1E SWAP2 SWAP1 PUSH2 0xD22 JUMP JUMPDEST POP SWAP1 JUMP JUMPDEST JUMPDEST DUP1 DUP3 GT ISZERO PUSH2 0xD3B JUMPI PUSH1 0x0 DUP2 PUSH1 0x0 SWAP1 SSTORE POP PUSH1 0x1 ADD PUSH2 0xD23 JUMP JUMPDEST POP SWAP1 JUMP JUMPDEST PUSH1 0x0 PUSH2 0xD52 PUSH2 0xD4D DUP5 PUSH2 0x1347 JUMP JUMPDEST PUSH2 0x1322 JUMP JUMPDEST SWAP1 POP DUP1 DUP4 DUP3 MSTORE PUSH1 0x20 DUP3 ADD SWAP1 POP DUP3 DUP6 PUSH1 0x20 DUP7 MUL DUP3 ADD GT ISZERO PUSH2 0xD75 JUMPI PUSH2 0xD74 PUSH2 0x1617 JUMP JUMPDEST JUMPDEST PUSH1 0x0 JUMPDEST DUP6 DUP2 LT ISZERO PUSH2 0xDA5 JUMPI DUP2 PUSH2 0xD8B DUP9 DUP3 PUSH2 0xE61 JUMP JUMPDEST DUP5 MSTORE PUSH1 0x20 DUP5 ADD SWAP4 POP PUSH1 0x20 DUP4 ADD SWAP3 POP POP PUSH1 0x1 DUP2 ADD SWAP1 POP PUSH2 0xD78 JUMP JUMPDEST POP POP POP SWAP4 SWAP3 POP POP POP JUMP JUMPDEST PUSH1 0x0 PUSH2 0xDC2 PUSH2 0xDBD DUP5 PUSH2 0x1373 JUMP JUMPDEST PUSH2 0x1322 JUMP JUMPDEST SWAP1 POP DUP1 DUP4 DUP3 MSTORE PUSH1 0x20 DUP3 ADD SWAP1 POP DUP3 DUP6 PUSH1 0x20 DUP7 MUL DUP3 ADD GT ISZERO PUSH2 0xDE5 JUMPI PUSH2 0xDE4 PUSH2 0x1617 JUMP JUMPDEST JUMPDEST PUSH1 0x0 JUMPDEST DUP6 DUP2 LT ISZERO PUSH2 0xE15 JUMPI DUP2 PUSH2 0xDFB DUP9 DUP3 PUSH2 0xF00 JUMP JUMPDEST DUP5 MSTORE PUSH1 0x20 DUP5 ADD SWAP4 POP PUSH1 0x20 DUP4 ADD SWAP3 POP POP PUSH1 0x1 DUP2 ADD SWAP1 POP PUSH2 0xDE8 JUMP JUMPDEST POP POP POP SWAP4 SWAP3 POP POP POP JUMP JUMPDEST PUSH1 0x0 PUSH2 0xE32 PUSH2 0xE2D DUP5 PUSH2 0x139F JUMP JUMPDEST PUSH2 0x1322 JUMP JUMPDEST SWAP1 POP DUP3 DUP2 MSTORE PUSH1 0x20 DUP2 ADD DUP5 DUP5 DUP5 ADD GT ISZERO PUSH2 0xE4E JUMPI PUSH2 0xE4D PUSH2 0x161C JUMP JUMPDEST JUMPDEST PUSH2 0xE59 DUP5 DUP3 DUP6 PUSH2 0x1468 JUMP JUMPDEST POP SWAP4 SWAP3 POP POP POP JUMP JUMPDEST PUSH1 0x0 DUP2 CALLDATALOAD SWAP1 POP PUSH2 0xE70 DUP2 PUSH2 0x16B7 JUMP JUMPDEST SWAP3 SWAP2 POP POP JUMP JUMPDEST PUSH1 0x0 DUP3 PUSH1 0x1F DUP4 ADD SLT PUSH2 0xE8B JUMPI PUSH2 0xE8A PUSH2 0x1612 JUMP JUMPDEST JUMPDEST DUP2 CALLDATALOAD PUSH2 0xE9B DUP5 DUP3 PUSH1 0x20 DUP7 ADD PUSH2 0xD3F JUMP JUMPDEST SWAP2 POP POP SWAP3 SWAP2 POP POP JUMP JUMPDEST PUSH1 0x0 DUP3 PUSH1 0x1F DUP4 ADD SLT PUSH2 0xEB9 JUMPI PUSH2 0xEB8 PUSH2 0x1612 JUMP JUMPDEST JUMPDEST DUP2 CALLDATALOAD PUSH2 0xEC9 DUP5 DUP3 PUSH1 0x20 DUP7 ADD PUSH2 0xDAF JUMP JUMPDEST SWAP2 POP POP SWAP3 SWAP2 POP POP JUMP JUMPDEST PUSH1 0x0 DUP3 PUSH1 0x1F DUP4 ADD SLT PUSH2 0xEE7 JUMPI PUSH2 0xEE6 PUSH2 0x1612 JUMP JUMPDEST JUMPDEST DUP2 CALLDATALOAD PUSH2 0xEF7 DUP5 DUP3 PUSH1 0x20 DUP7 ADD PUSH2 0xE1F JUMP JUMPDEST SWAP2 POP POP SWAP3 SWAP2 POP POP JUMP JUMPDEST PUSH1 0x0 DUP2 CALLDATALOAD SWAP1 POP PUSH2 0xF0F DUP2 PUSH2 0x16CE JUMP JUMPDEST SWAP3 SWAP2 POP POP JUMP JUMPDEST PUSH1 0x0 DUP1 PUSH1 0x40 DUP4 DUP6 SUB SLT ISZERO PUSH2 0xF2C JUMPI PUSH2 0xF2B PUSH2 0x1626 JUMP JUMPDEST JUMPDEST PUSH1 0x0 PUSH2 0xF3A DUP6 DUP3 DUP7 ADD PUSH2 0xE61 JUMP JUMPDEST SWAP3 POP POP PUSH1 0x20 PUSH2 0xF4B DUP6 DUP3 DUP7 ADD PUSH2 0xF00 JUMP JUMPDEST SWAP2 POP POP SWAP3 POP SWAP3 SWAP1 POP JUMP JUMPDEST PUSH1 0x0 DUP1 PUSH1 0x0 PUSH1 0x60 DUP5 DUP7 SUB SLT ISZERO PUSH2 0xF6E JUMPI PUSH2 0xF6D PUSH2 0x1626 JUMP JUMPDEST JUMPDEST PUSH1 0x0 DUP5 ADD CALLDATALOAD PUSH8 0xFFFFFFFFFFFFFFFF DUP2 GT ISZERO PUSH2 0xF8C JUMPI PUSH2 0xF8B PUSH2 0x1621 JUMP JUMPDEST JUMPDEST PUSH2 0xF98 DUP7 DUP3 DUP8 ADD PUSH2 0xE76 JUMP JUMPDEST SWAP4 POP POP PUSH1 0x20 DUP5 ADD CALLDATALOAD PUSH8 0xFFFFFFFFFFFFFFFF DUP2 GT ISZERO PUSH2 0xFB9 JUMPI PUSH2 0xFB8 PUSH2 0x1621 JUMP JUMPDEST JUMPDEST PUSH2 0xFC5 DUP7 DUP3 DUP8 ADD PUSH2 0xEA4 JUMP JUMPDEST SWAP3 POP POP PUSH1 0x40 PUSH2 0xFD6 DUP7 DUP3 DUP8 ADD PUSH2 0xF00 JUMP JUMPDEST SWAP2 POP POP SWAP3 POP SWAP3 POP SWAP3 JUMP JUMPDEST PUSH1 0x0 DUP1 PUSH1 0x40 DUP4 DUP6 SUB SLT ISZERO PUSH2 0xFF7 JUMPI PUSH2 0xFF6 PUSH2 0x1626 JUMP JUMPDEST JUMPDEST PUSH1 0x0 DUP4 ADD CALLDATALOAD PUSH8 0xFFFFFFFFFFFFFFFF DUP2 GT ISZERO PUSH2 0x1015 JUMPI PUSH2 0x1014 PUSH2 0x1621 JUMP JUMPDEST JUMPDEST PUSH2 0x1021 DUP6 DUP3 DUP7 ADD PUSH2 0xE76 JUMP JUMPDEST SWAP3 POP POP PUSH1 0x20 PUSH2 0x1032 DUP6 DUP3 DUP7 ADD PUSH2 0xF00 JUMP JUMPDEST SWAP2 POP POP SWAP3 POP SWAP3 SWAP1 POP JUMP JUMPDEST PUSH1 0x0 DUP1 PUSH1 0x0 PUSH1 0x60 DUP5 DUP7 SUB SLT ISZERO PUSH2 0x1055 JUMPI PUSH2 0x1054 PUSH2 0x1626 JUMP JUMPDEST JUMPDEST PUSH1 0x0 DUP5 ADD CALLDATALOAD PUSH8 0xFFFFFFFFFFFFFFFF DUP2 GT ISZERO PUSH2 0x1073 JUMPI PUSH2 0x1072 PUSH2 0x1621 JUMP JUMPDEST JUMPDEST PUSH2 0x107F DUP7 DUP3 DUP8 ADD PUSH2 0xED2 JUMP JUMPDEST SWAP4 POP POP PUSH1 0x20 PUSH2 0x1090 DUP7 DUP3 DUP8 ADD PUSH2 0xF00 JUMP JUMPDEST SWAP3 POP POP PUSH1 0x40 PUSH2 0x10A1 DUP7 DUP3 DUP8 ADD PUSH2 0xF00 JUMP JUMPDEST SWAP2 POP POP SWAP3 POP SWAP3 POP SWAP3 JUMP JUMPDEST PUSH1 0x0 PUSH1 0x20 DUP3 DUP5 SUB SLT ISZERO PUSH2 0x10C1 JUMPI PUSH2 0x10C0 PUSH2 0x1626 JUMP JUMPDEST JUMPDEST PUSH1 0x0 PUSH2 0x10CF DUP5 DUP3 DUP6 ADD PUSH2 0xF00 JUMP JUMPDEST SWAP2 POP POP SWAP3 SWAP2 POP POP JUMP JUMPDEST PUSH1 0x0 DUP1 PUSH1 0x40 DUP4 DUP6 SUB SLT ISZERO PUSH2 0x10EF JUMPI PUSH2 0x10EE PUSH2 0x1626 JUMP JUMPDEST JUMPDEST PUSH1 0x0 PUSH2 0x10FD DUP6 DUP3 DUP7 ADD PUSH2 0xF00 JUMP JUMPDEST SWAP3 POP POP PUSH1 0x20 PUSH2 0x110E DUP6 DUP3 DUP7 ADD PUSH2 0xF00 JUMP JUMPDEST SWAP2 POP POP SWAP3 POP SWAP3 SWAP1 POP JUMP JUMPDEST PUSH2 0x1121 DUP2 PUSH2 0x1420 JUMP JUMPDEST DUP3 MSTORE POP POP JUMP JUMPDEST PUSH2 0x1130 DUP2 PUSH2 0x1432 JUMP JUMPDEST DUP3 MSTORE POP POP JUMP JUMPDEST PUSH1 0x0 PUSH2 0x1141 DUP3 PUSH2 0x13D0 JUMP JUMPDEST PUSH2 0x114B DUP2 DUP6 PUSH2 0x13DB JUMP JUMPDEST SWAP4 POP PUSH2 0x115B DUP2 DUP6 PUSH1 0x20 DUP7 ADD PUSH2 0x1477 JUMP JUMPDEST PUSH2 0x1164 DUP2 PUSH2 0x162B JUMP JUMPDEST DUP5 ADD SWAP2 POP POP SWAP3 SWAP2 POP POP JUMP JUMPDEST PUSH1 0x0 PUSH2 0x117C PUSH1 0x9 DUP4 PUSH2 0x13DB JUMP JUMPDEST SWAP2 POP PUSH2 0x1187 DUP3 PUSH2 0x163C JUMP JUMPDEST PUSH1 0x20 DUP3 ADD SWAP1 POP SWAP2 SWAP1 POP JUMP JUMPDEST PUSH1 0x0 PUSH2 0x119F PUSH1 0xC DUP4 PUSH2 0x13DB JUMP JUMPDEST SWAP2 POP PUSH2 0x11AA DUP3 PUSH2 0x1665 JUMP JUMPDEST PUSH1 0x20 DUP3 ADD SWAP1 POP SWAP2 SWAP1 POP JUMP JUMPDEST PUSH1 0x0 PUSH2 0x11C2 PUSH1 0xD DUP4 PUSH2 0x13DB JUMP JUMPDEST SWAP2 POP PUSH2 0x11CD DUP3 PUSH2 0x168E JUMP JUMPDEST PUSH1 0x20 DUP3 ADD SWAP1 POP SWAP2 SWAP1 POP JUMP JUMPDEST PUSH2 0x11E1 DUP2 PUSH2 0x145E JUMP JUMPDEST DUP3 MSTORE POP POP JUMP JUMPDEST PUSH1 0x0 PUSH1 0x60 DUP3 ADD SWAP1 POP PUSH2 0x11FC PUSH1 0x0 DUP4 ADD DUP7 PUSH2 0x1118 JUMP JUMPDEST DUP2 DUP2 SUB PUSH1 0x20 DUP4 ADD MSTORE PUSH2 0x120E DUP2 DUP6 PUSH2 0x1136 JUMP JUMPDEST SWAP1 POP PUSH2 0x121D PUSH1 0x40 DUP4 ADD DUP5 PUSH2 0x11D8 JUMP JUMPDEST SWAP5 SWAP4 POP POP POP POP JUMP JUMPDEST PUSH1 0x0 PUSH1 0x40 DUP3 ADD SWAP1 POP PUSH2 0x123A PUSH1 0x0 DUP4 ADD DUP6 PUSH2 0x1118 JUMP JUMPDEST PUSH2 0x1247 PUSH1 0x20 DUP4 ADD DUP5 PUSH2 0x11D8 JUMP JUMPDEST SWAP4 SWAP3 POP POP POP JUMP JUMPDEST PUSH1 0x0 PUSH1 0x20 DUP3 ADD SWAP1 POP PUSH2 0x1263 PUSH1 0x0 DUP4 ADD DUP5 PUSH2 0x1127 JUMP JUMPDEST SWAP3 SWAP2 POP POP JUMP JUMPDEST PUSH1 0x0 PUSH1 0x20 DUP3 ADD SWAP1 POP DUP2 DUP2 SUB PUSH1 0x0 DUP4 ADD MSTORE PUSH2 0x1283 DUP2 DUP5 PUSH2 0x1136 JUMP JUMPDEST SWAP1 POP SWAP3 SWAP2 POP POP JUMP JUMPDEST PUSH1 0x0 PUSH1 0x20 DUP3 ADD SWAP1 POP DUP2 DUP2 SUB PUSH1 0x0 DUP4 ADD MSTORE PUSH2 0x12A4 DUP2 PUSH2 0x116F JUMP JUMPDEST SWAP1 POP SWAP2 SWAP1 POP JUMP JUMPDEST PUSH1 0x0 PUSH1 0x20 DUP3 ADD SWAP1 POP DUP2 DUP2 SUB PUSH1 0x0 DUP4 ADD MSTORE PUSH2 0x12C4 DUP2 PUSH2 0x1192 JUMP JUMPDEST SWAP1 POP SWAP2 SWAP1 POP JUMP JUMPDEST PUSH1 0x0 PUSH1 0x20 DUP3 ADD SWAP1 POP DUP2 DUP2 SUB PUSH1 0x0 DUP4 ADD MSTORE PUSH2 0x12E4 DUP2 PUSH2 0x11B5 JUMP JUMPDEST SWAP1 POP SWAP2 SWAP1 POP JUMP JUMPDEST PUSH1 0x0 PUSH1 0x60 DUP3 ADD SWAP1 POP PUSH2 0x1300 PUSH1 0x0 DUP4 ADD DUP7 PUSH2 0x11D8 JUMP JUMPDEST PUSH2 0x130D PUSH1 0x20 DUP4 ADD DUP6 PUSH2 0x11D8 JUMP JUMPDEST PUSH2 0x131A PUSH1 0x40 DUP4 ADD DUP5 PUSH2 0x11D8 JUMP JUMPDEST SWAP5 SWAP4 POP POP POP POP JUMP JUMPDEST PUSH1 0x0 PUSH2 0x132C PUSH2 0x133D JUMP JUMPDEST SWAP1 POP PUSH2 0x1338 DUP3 DUP3 PUSH2 0x14DC JUMP JUMPDEST SWAP2 SWAP1 POP JUMP JUMPDEST PUSH1 0x0 PUSH1 0x40 MLOAD SWAP1 POP SWAP1 JUMP JUMPDEST PUSH1 0x0 PUSH8 0xFFFFFFFFFFFFFFFF DUP3 GT ISZERO PUSH2 0x1362 JUMPI PUSH2 0x1361 PUSH2 0x15E3 JUMP JUMPDEST JUMPDEST PUSH1 0x20 DUP3 MUL SWAP1 POP PUSH1 0x20 DUP2 ADD SWAP1 POP SWAP2 SWAP1 POP JUMP JUMPDEST PUSH1 0x0 PUSH8 0xFFFFFFFFFFFFFFFF DUP3 GT ISZERO PUSH2 0x138E JUMPI PUSH2 0x138D PUSH2 0x15E3 JUMP JUMPDEST JUMPDEST PUSH1 0x20 DUP3 MUL SWAP1 POP PUSH1 0x20 DUP2 ADD SWAP1 POP SWAP2 SWAP1 POP JUMP JUMPDEST PUSH1 0x0 PUSH8 0xFFFFFFFFFFFFFFFF DUP3 GT ISZERO PUSH2 0x13BA JUMPI PUSH2 0x13B9 PUSH2 0x15E3 JUMP JUMPDEST JUMPDEST PUSH2 0x13C3 DUP3 PUSH2 0x162B JUMP JUMPDEST SWAP1 POP PUSH1 0x20 DUP2 ADD SWAP1 POP SWAP2 SWAP1 POP JUMP JUMPDEST PUSH1 0x0 DUP2 MLOAD SWAP1 POP SWAP2 SWAP1 POP JUMP JUMPDEST PUSH1 0x0 DUP3 DUP3 MSTORE PUSH1 0x20 DUP3 ADD SWAP1 POP SWAP3 SWAP2 POP POP JUMP JUMPDEST PUSH1 0x0 PUSH2 0x13F7 DUP3 PUSH2 0x145E JUMP JUMPDEST SWAP2 POP PUSH2 0x1402 DUP4 PUSH2 0x145E JUMP JUMPDEST SWAP3 POP DUP3 DUP3 LT ISZERO PUSH2 0x1415 JUMPI PUSH2 0x1414 PUSH2 0x1556 JUMP JUMPDEST JUMPDEST DUP3 DUP3 SUB SWAP1 POP SWAP3 SWAP2 POP POP JUMP JUMPDEST PUSH1 0x0 PUSH2 0x142B DUP3 PUSH2 0x143E JUMP JUMPDEST SWAP1 POP SWAP2 SWAP1 POP JUMP JUMPDEST PUSH1 0x0 DUP2 ISZERO ISZERO SWAP1 POP SWAP2 SWAP1 POP JUMP JUMPDEST PUSH1 0x0 PUSH20 0xFFFFFFFFFFFFFFFFFFFFFFFFFFFFFFFFFFFFFFFF DUP3 AND SWAP1 POP SWAP2 SWAP1 POP JUMP JUMPDEST PUSH1 0x0 DUP2 SWAP1 POP SWAP2 SWAP1 POP JUMP JUMPDEST DUP3 DUP2 DUP4 CALLDATACOPY PUSH1 0x0 DUP4 DUP4 ADD MSTORE POP POP POP JUMP JUMPDEST PUSH1 0x0 JUMPDEST DUP4 DUP2 LT ISZERO PUSH2 0x1495 JUMPI DUP1 DUP3 ADD MLOAD DUP2 DUP5 ADD MSTORE PUSH1 0x20 DUP2 ADD SWAP1 POP PUSH2 0x147A JUMP JUMPDEST DUP4 DUP2 GT ISZERO PUSH2 0x14A4 JUMPI PUSH1 0x0 DUP5 DUP5 ADD MSTORE JUMPDEST POP POP POP POP JUMP JUMPDEST PUSH1 0x0 PUSH1 0x2 DUP3 DIV SWAP1 POP PUSH1 0x1 DUP3 AND DUP1 PUSH2 0x14C2 JUMPI PUSH1 0x7F DUP3 AND SWAP2 POP JUMPDEST PUSH1 0x20 DUP3 LT DUP2 EQ ISZERO PUSH2 0x14D6 JUMPI PUSH2 0x14D5 PUSH2 0x1585 JUMP JUMPDEST JUMPDEST POP SWAP2 SWAP1 POP JUMP JUMPDEST PUSH2 0x14E5 DUP3 PUSH2 0x162B JUMP JUMPDEST DUP2 ADD DUP2 DUP2 LT PUSH8 0xFFFFFFFFFFFFFFFF DUP3 GT OR ISZERO PUSH2 0x1504 JUMPI PUSH2 0x1503 PUSH2 0x15E3 JUMP JUMPDEST JUMPDEST DUP1 PUSH1 0x40 MSTORE POP POP POP JUMP JUMPDEST PUSH1 0x0 PUSH2 0x1518 DUP3 PUSH2 0x145E JUMP JUMPDEST SWAP2 POP PUSH32 0xFFFFFFFFFFFFFFFFFFFFFFFFFFFFFFFFFFFFFFFFFFFFFFFFFFFFFFFFFFFFFFFF DUP3 EQ ISZERO PUSH2 0x154B JUMPI PUSH2 0x154A PUSH2 0x1556 JUMP JUMPDEST JUMPDEST PUSH1 0x1 DUP3 ADD SWAP1 POP SWAP2 SWAP1 POP JUMP JUMPDEST PUSH32 0x4E487B7100000000000000000000000000000000000000000000000000000000 PUSH1 0x0 MSTORE PUSH1 0x11 PUSH1 0x4 MSTORE PUSH1 0x24 PUSH1 0x0 REVERT JUMPDEST PUSH32 0x4E487B7100000000000000000000000000000000000000000000000000000000 PUSH1 0x0 MSTORE PUSH1 0x22 PUSH1 0x4 MSTORE PUSH1 0x24 PUSH1 0x0 REVERT JUMPDEST PUSH32 0x4E487B7100000000000000000000000000000000000000000000000000000000 PUSH1 0x0 MSTORE PUSH1 0x32 PUSH1 0x4 MSTORE PUSH1 0x24 PUSH1 0x0 REVERT JUMPDEST PUSH32 0x4E487B7100000000000000000000000000000000000000000000000000000000 PUSH1 0x0 MSTORE PUSH1 0x41 PUSH1 0x4 MSTORE PUSH1 0x24 PUSH1 0x0 REVERT JUMPDEST PUSH1 0x0 DUP1 REVERT JUMPDEST PUSH1 0x0 DUP1 REVERT JUMPDEST PUSH1 0x0 DUP1 REVERT JUMPDEST PUSH1 0x0 DUP1 REVERT JUMPDEST PUSH1 0x0 DUP1 REVERT JUMPDEST PUSH1 0x0 PUSH1 0x1F NOT PUSH1 0x1F DUP4 ADD AND SWAP1 POP SWAP2 SWAP1 POP JUMP JUMPDEST PUSH32 0x57726F6E67206B65790000000000000000000000000000000000000000000000 PUSH1 0x0 DUP3 ADD MSTORE POP JUMP JUMPDEST PUSH32 0x4944206265656E20757365640000000000000000000000000000000000000000 PUSH1 0x0 DUP3 ADD MSTORE POP JUMP JUMPDEST PUSH32 0x4E6F205065726D697373696F6E00000000000000000000000000000000000000 PUSH1 0x0 DUP3 ADD MSTORE POP JUMP JUMPDEST PUSH2 0x16C0 DUP2 PUSH2 0x1420 JUMP JUMPDEST DUP2 EQ PUSH2 0x16CB JUMPI PUSH1 0x0 DUP1 REVERT JUMPDEST POP JUMP JUMPDEST PUSH2 0x16D7 DUP2 PUSH2 0x145E JUMP JUMPDEST DUP2 EQ PUSH2 0x16E2 JUMPI PUSH1 0x0 DUP1 REVERT JUMPDEST POP JUMP INVALID LOG2 PUSH5 0x6970667358 0x22 SLT KECCAK256 PUSH26 0x42B4C005265893492922A81A681C528D085ECAFC90B90B0F987B PUSH10 0xCA6F2FCD64736F6C6343 STOP ADDMOD SMOD STOP CALLER "
				},
				"gasEstimates": {
					"creation": {
						"codeDepositCost": "1183000",
						"executionCost": "25493",
						"totalCost": "1208493"
					},
					"external": {
						"get_ballot(address,uint256)": "infinite",
						"new_proposal(uint256,uint256)": "infinite",
						"set_candidates(address[],uint256)": "infinite",
						"set_duration(uint256,uint256)": "infinite",
						"set_voters(address[],uint256[],uint256)": "infinite",
						"voting(string,uint256,uint256)": "infinite",
						"voting_end(uint256)": "infinite",
						"voting_start(uint256)": "infinite"
					},
					"internal": {
						"set_voter_list(address,uint256,uint256)": "infinite"
					}
				},
				"methodIdentifiers": {
					"get_ballot(address,uint256)": "d6f937e5",
					"new_proposal(uint256,uint256)": "730cb352",
					"set_candidates(address[],uint256)": "50fae1d2",
					"set_duration(uint256,uint256)": "fea9b717",
					"set_voters(address[],uint256[],uint256)": "be19e121",
					"voting(string,uint256,uint256)": "cb9f4099",
					"voting_end(uint256)": "8aa430af",
					"voting_start(uint256)": "a4db23fc"
				}
			},
			"storageLayout": {
				"storage": [
					{
						"astId": 3,
						"contract": "Desktop/Blockchain_project/backend/smartcontract/Vote_1.sol:Vote",
						"label": "_constractowner",
						"offset": 0,
						"slot": "0",
						"type": "t_address"
					},
					{
						"astId": 77,
						"contract": "Desktop/Blockchain_project/backend/smartcontract/Vote_1.sol:Vote",
						"label": "_proposal",
						"offset": 0,
						"slot": "1",
						"type": "t_mapping(t_uint256,t_struct(_Proposal)72_storage)"
					},
					{
						"astId": 81,
						"contract": "Desktop/Blockchain_project/backend/smartcontract/Vote_1.sol:Vote",
						"label": "_proposal_id_used",
						"offset": 0,
						"slot": "2",
						"type": "t_mapping(t_uint256,t_bool)"
					}
				],
				"types": {
					"t_address": {
						"encoding": "inplace",
						"label": "address",
						"numberOfBytes": "20"
					},
					"t_array(t_address)dyn_storage": {
						"base": "t_address",
						"encoding": "dynamic_array",
						"label": "address[]",
						"numberOfBytes": "32"
					},
					"t_bool": {
						"encoding": "inplace",
						"label": "bool",
						"numberOfBytes": "1"
					},
					"t_mapping(t_address,t_bool)": {
						"encoding": "mapping",
						"key": "t_address",
						"label": "mapping(address => bool)",
						"numberOfBytes": "32",
						"value": "t_bool"
					},
					"t_mapping(t_address,t_string_storage)": {
						"encoding": "mapping",
						"key": "t_address",
						"label": "mapping(address => string)",
						"numberOfBytes": "32",
						"value": "t_string_storage"
					},
					"t_mapping(t_uint256,t_address)": {
						"encoding": "mapping",
						"key": "t_uint256",
						"label": "mapping(uint256 => address)",
						"numberOfBytes": "32",
						"value": "t_address"
					},
					"t_mapping(t_uint256,t_bool)": {
						"encoding": "mapping",
						"key": "t_uint256",
						"label": "mapping(uint256 => bool)",
						"numberOfBytes": "32",
						"value": "t_bool"
					},
					"t_mapping(t_uint256,t_struct(_Proposal)72_storage)": {
						"encoding": "mapping",
						"key": "t_uint256",
						"label": "mapping(uint256 => struct Vote._Proposal)",
						"numberOfBytes": "32",
						"value": "t_struct(_Proposal)72_storage"
					},
					"t_string_storage": {
						"encoding": "bytes",
						"label": "string",
						"numberOfBytes": "32"
					},
					"t_struct(_Proposal)72_storage": {
						"encoding": "inplace",
						"label": "struct Vote._Proposal",
						"members": [
							{
								"astId": 44,
								"contract": "Desktop/Blockchain_project/backend/smartcontract/Vote_1.sol:Vote",
								"label": "_proposal_id",
								"offset": 0,
								"slot": "0",
								"type": "t_uint256"
							},
							{
								"astId": 46,
								"contract": "Desktop/Blockchain_project/backend/smartcontract/Vote_1.sol:Vote",
								"label": "_voting_status",
								"offset": 0,
								"slot": "1",
								"type": "t_uint256"
							},
							{
								"astId": 48,
								"contract": "Desktop/Blockchain_project/backend/smartcontract/Vote_1.sol:Vote",
								"label": "_timestamp",
								"offset": 0,
								"slot": "2",
								"type": "t_uint256"
							},
							{
								"astId": 50,
								"contract": "Desktop/Blockchain_project/backend/smartcontract/Vote_1.sol:Vote",
								"label": "_duration",
								"offset": 0,
								"slot": "3",
								"type": "t_uint256"
							},
							{
								"astId": 52,
								"contract": "Desktop/Blockchain_project/backend/smartcontract/Vote_1.sol:Vote",
								"label": "_count",
								"offset": 0,
								"slot": "4",
								"type": "t_uint256"
							},
							{
								"astId": 54,
								"contract": "Desktop/Blockchain_project/backend/smartcontract/Vote_1.sol:Vote",
								"label": "_voted",
								"offset": 0,
								"slot": "5",
								"type": "t_uint256"
							},
							{
								"astId": 56,
								"contract": "Desktop/Blockchain_project/backend/smartcontract/Vote_1.sol:Vote",
								"label": "_voter_amount",
								"offset": 0,
								"slot": "6",
								"type": "t_uint256"
							},
							{
								"astId": 59,
								"contract": "Desktop/Blockchain_project/backend/smartcontract/Vote_1.sol:Vote",
								"label": "_candidate",
								"offset": 0,
								"slot": "7",
								"type": "t_array(t_address)dyn_storage"
							},
							{
								"astId": 63,
								"contract": "Desktop/Blockchain_project/backend/smartcontract/Vote_1.sol:Vote",
								"label": "voter_list",
								"offset": 0,
								"slot": "8",
								"type": "t_mapping(t_uint256,t_address)"
							},
							{
								"astId": 67,
								"contract": "Desktop/Blockchain_project/backend/smartcontract/Vote_1.sol:Vote",
								"label": "voter_ballot",
								"offset": 0,
								"slot": "9",
								"type": "t_mapping(t_address,t_string_storage)"
							},
							{
								"astId": 71,
								"contract": "Desktop/Blockchain_project/backend/smartcontract/Vote_1.sol:Vote",
								"label": "hasVoted",
								"offset": 0,
								"slot": "10",
								"type": "t_mapping(t_address,t_bool)"
							}
						],
						"numberOfBytes": "352"
					},
					"t_uint256": {
						"encoding": "inplace",
						"label": "uint256",
						"numberOfBytes": "32"
					}
				}
			},
			"userdoc": {
				"kind": "user",
				"methods": {},
				"version": 1
			}
		}
	}
}