{
	"Vote_1.sol": {
		"Vote": {
			"abi": [
				{
					"inputs": [],
					"stateMutability": "nonpayable",
					"type": "constructor"
				},
				{
					"anonymous": false,
					"inputs": [
						{
							"indexed": false,
							"internalType": "uint256",
							"name": "end_time",
							"type": "uint256"
						},
						{
							"indexed": false,
							"internalType": "uint256",
							"name": "block_number",
							"type": "uint256"
						}
					],
					"name": "Vote_end",
					"type": "event"
				},
				{
					"anonymous": false,
					"inputs": [
						{
							"indexed": false,
							"internalType": "uint256",
							"name": "start_time",
							"type": "uint256"
						},
						{
							"indexed": false,
							"internalType": "uint256",
							"name": "block_number",
							"type": "uint256"
						}
					],
					"name": "Vote_start",
					"type": "event"
				},
				{
					"anonymous": false,
					"inputs": [
						{
							"indexed": false,
							"internalType": "address",
							"name": "voter",
							"type": "address"
						},
						{
							"indexed": false,
							"internalType": "uint256",
							"name": "id",
							"type": "uint256"
						}
					],
					"name": "Voter_set",
					"type": "event"
				},
				{
					"anonymous": false,
					"inputs": [
						{
							"indexed": false,
							"internalType": "address",
							"name": "voter",
							"type": "address"
						}
					],
					"name": "Voting_complete",
					"type": "event"
				},
				{
					"inputs": [
						{
							"internalType": "address",
							"name": "voter",
							"type": "address"
						},
						{
							"internalType": "uint256",
							"name": "proposal_id",
							"type": "uint256"
						}
					],
					"name": "get_ballot",
					"outputs": [
						{
							"internalType": "bytes32",
							"name": "",
							"type": "bytes32"
						}
					],
					"stateMutability": "view",
					"type": "function"
				},
				{
					"inputs": [
						{
							"internalType": "uint256",
							"name": "proposal_id",
							"type": "uint256"
						}
					],
					"name": "new_proposal",
					"outputs": [],
					"stateMutability": "nonpayable",
					"type": "function"
				},
				{
					"inputs": [
						{
							"internalType": "address[]",
							"name": "candidates",
							"type": "address[]"
						},
						{
							"internalType": "uint256",
							"name": "proposal_id",
							"type": "uint256"
						}
					],
					"name": "set_candidates",
					"outputs": [],
					"stateMutability": "nonpayable",
					"type": "function"
				},
				{
					"inputs": [
						{
							"internalType": "uint256",
							"name": "duration",
							"type": "uint256"
						},
						{
							"internalType": "uint256",
							"name": "proposal_id",
							"type": "uint256"
						}
					],
					"name": "set_duration",
					"outputs": [],
					"stateMutability": "nonpayable",
					"type": "function"
				},
				{
					"inputs": [
						{
							"internalType": "address[]",
							"name": "voters",
							"type": "address[]"
						},
						{
							"internalType": "uint256",
							"name": "proposal_id",
							"type": "uint256"
						}
					],
					"name": "set_voters",
					"outputs": [],
					"stateMutability": "nonpayable",
					"type": "function"
				},
				{
					"inputs": [
						{
							"internalType": "bytes32",
							"name": "ballot",
							"type": "bytes32"
						},
						{
							"internalType": "uint256",
							"name": "proposal_id",
							"type": "uint256"
						},
						{
							"internalType": "uint256",
							"name": "voter_id",
							"type": "uint256"
						}
					],
					"name": "voting",
					"outputs": [],
					"stateMutability": "nonpayable",
					"type": "function"
				},
				{
					"inputs": [
						{
							"internalType": "uint256",
							"name": "proposal_id",
							"type": "uint256"
						}
					],
					"name": "voting_end",
					"outputs": [],
					"stateMutability": "nonpayable",
					"type": "function"
				},
				{
					"inputs": [
						{
							"internalType": "uint256",
							"name": "proposal_id",
							"type": "uint256"
						}
					],
					"name": "voting_start",
					"outputs": [],
					"stateMutability": "nonpayable",
					"type": "function"
				}
			],
			"devdoc": {
				"kind": "dev",
				"methods": {},
				"version": 1
			},
			"evm": {
				"assembly": "    /* \"Vote_1.sol\":66:3658  contract Vote{... */\n  mstore(0x40, 0x80)\n    /* \"Vote_1.sol\":116:175  constructor(){... */\n  callvalue\n  dup1\n  iszero\n  tag_1\n  jumpi\n  0x00\n  dup1\n  revert\ntag_1:\n  pop\n    /* \"Vote_1.sol\":157:167  msg.sender */\n  caller\n    /* \"Vote_1.sol\":139:154  _constractowner */\n  0x00\n  dup1\n    /* \"Vote_1.sol\":139:167  _constractowner = msg.sender */\n  0x0100\n  exp\n  dup2\n  sload\n  dup2\n  0xffffffffffffffffffffffffffffffffffffffff\n  mul\n  not\n  and\n  swap1\n  dup4\n  0xffffffffffffffffffffffffffffffffffffffff\n  and\n  mul\n  or\n  swap1\n  sstore\n  pop\n    /* \"Vote_1.sol\":66:3658  contract Vote{... */\n  dataSize(sub_0)\n  dup1\n  dataOffset(sub_0)\n  0x00\n  codecopy\n  0x00\n  return\nstop\n\nsub_0: assembly {\n        /* \"Vote_1.sol\":66:3658  contract Vote{... */\n      mstore(0x40, 0x80)\n      callvalue\n      dup1\n      iszero\n      tag_1\n      jumpi\n      0x00\n      dup1\n      revert\n    tag_1:\n      pop\n      jumpi(tag_2, lt(calldatasize, 0x04))\n      shr(0xe0, calldataload(0x00))\n      dup1\n      0xd6f937e5\n      gt\n      tag_11\n      jumpi\n      dup1\n      0xd6f937e5\n      eq\n      tag_7\n      jumpi\n      dup1\n      0xe28ee120\n      eq\n      tag_8\n      jumpi\n      dup1\n      0xfb5babd8\n      eq\n      tag_9\n      jumpi\n      dup1\n      0xfea9b717\n      eq\n      tag_10\n      jumpi\n      jump(tag_2)\n    tag_11:\n      dup1\n      0x50fae1d2\n      eq\n      tag_3\n      jumpi\n      dup1\n      0x8aa430af\n      eq\n      tag_4\n      jumpi\n      dup1\n      0xa4db23fc\n      eq\n      tag_5\n      jumpi\n      dup1\n      0xd0350b59\n      eq\n      tag_6\n      jumpi\n    tag_2:\n      0x00\n      dup1\n      revert\n        /* \"Vote_1.sol\":3137:3337  function set_candidates(address [] memory candidates, uint proposal_id) public {... */\n    tag_3:\n      tag_12\n      0x04\n      dup1\n      calldatasize\n      sub\n      dup2\n      add\n      swap1\n      tag_13\n      swap2\n      swap1\n      tag_14\n      jump\t// in\n    tag_13:\n      tag_15\n      jump\t// in\n    tag_12:\n      stop\n        /* \"Vote_1.sol\":2461:2857  function voting_end(uint proposal_id) public {... */\n    tag_4:\n      tag_16\n      0x04\n      dup1\n      calldatasize\n      sub\n      dup2\n      add\n      swap1\n      tag_17\n      swap2\n      swap1\n      tag_18\n      jump\t// in\n    tag_17:\n      tag_19\n      jump\t// in\n    tag_16:\n      stop\n        /* \"Vote_1.sol\":2095:2455  function voting_start(uint proposal_id) public {... */\n    tag_5:\n      tag_20\n      0x04\n      dup1\n      calldatasize\n      sub\n      dup2\n      add\n      swap1\n      tag_21\n      swap2\n      swap1\n      tag_18\n      jump\t// in\n    tag_21:\n      tag_22\n      jump\t// in\n    tag_20:\n      stop\n        /* \"Vote_1.sol\":1716:2089  function voting(bytes32 ballot, uint proposal_id, uint voter_id) public{... */\n    tag_6:\n      tag_23\n      0x04\n      dup1\n      calldatasize\n      sub\n      dup2\n      add\n      swap1\n      tag_24\n      swap2\n      swap1\n      tag_25\n      jump\t// in\n    tag_24:\n      tag_26\n      jump\t// in\n    tag_23:\n      stop\n        /* \"Vote_1.sol\":2863:3131  function get_ballot(address voter, uint proposal_id) public view returns(bytes32){... */\n    tag_7:\n      tag_27\n      0x04\n      dup1\n      calldatasize\n      sub\n      dup2\n      add\n      swap1\n      tag_28\n      swap2\n      swap1\n      tag_29\n      jump\t// in\n    tag_28:\n      tag_30\n      jump\t// in\n    tag_27:\n      mload(0x40)\n      tag_31\n      swap2\n      swap1\n      tag_32\n      jump\t// in\n    tag_31:\n      mload(0x40)\n      dup1\n      swap2\n      sub\n      swap1\n      return\n        /* \"Vote_1.sol\":854:1194  function new_proposal(uint proposal_id) public {... */\n    tag_8:\n      tag_33\n      0x04\n      dup1\n      calldatasize\n      sub\n      dup2\n      add\n      swap1\n      tag_34\n      swap2\n      swap1\n      tag_18\n      jump\t// in\n    tag_34:\n      tag_35\n      jump\t// in\n    tag_33:\n      stop\n        /* \"Vote_1.sol\":3345:3655  function set_voters(address [] memory voters, uint proposal_id) public {... */\n    tag_9:\n      tag_36\n      0x04\n      dup1\n      calldatasize\n      sub\n      dup2\n      add\n      swap1\n      tag_37\n      swap2\n      swap1\n      tag_14\n      jump\t// in\n    tag_37:\n      tag_38\n      jump\t// in\n    tag_36:\n      stop\n        /* \"Vote_1.sol\":1200:1443  function set_duration(uint duration, uint proposal_id) public {... */\n    tag_10:\n      tag_39\n      0x04\n      dup1\n      calldatasize\n      sub\n      dup2\n      add\n      swap1\n      tag_40\n      swap2\n      swap1\n      tag_41\n      jump\t// in\n    tag_40:\n      tag_42\n      jump\t// in\n    tag_39:\n      stop\n        /* \"Vote_1.sol\":3137:3337  function set_candidates(address [] memory candidates, uint proposal_id) public {... */\n    tag_15:\n        /* \"Vote_1.sol\":3272:3273  1 */\n      0x01\n        /* \"Vote_1.sol\":3234:3243  _proposal */\n      dup1\n        /* \"Vote_1.sol\":3234:3256  _proposal[proposal_id] */\n      0x00\n        /* \"Vote_1.sol\":3244:3255  proposal_id */\n      dup4\n        /* \"Vote_1.sol\":3234:3256  _proposal[proposal_id] */\n      dup2\n      mstore\n      0x20\n      add\n      swap1\n      dup2\n      mstore\n      0x20\n      add\n      0x00\n      keccak256\n        /* \"Vote_1.sol\":3234:3271  _proposal[proposal_id]._voting_status */\n      0x01\n      add\n      sload\n        /* \"Vote_1.sol\":3234:3273  _proposal[proposal_id]._voting_status<1 */\n      lt\n        /* \"Vote_1.sol\":3226:3274  require(_proposal[proposal_id]._voting_status<1) */\n      tag_44\n      jumpi\n      0x00\n      dup1\n      revert\n    tag_44:\n        /* \"Vote_1.sol\":3320:3330  candidates */\n      dup2\n        /* \"Vote_1.sol\":3284:3293  _proposal */\n      0x01\n        /* \"Vote_1.sol\":3284:3306  _proposal[proposal_id] */\n      0x00\n        /* \"Vote_1.sol\":3294:3305  proposal_id */\n      dup4\n        /* \"Vote_1.sol\":3284:3306  _proposal[proposal_id] */\n      dup2\n      mstore\n      0x20\n      add\n      swap1\n      dup2\n      mstore\n      0x20\n      add\n      0x00\n      keccak256\n        /* \"Vote_1.sol\":3284:3317  _proposal[proposal_id]._candidate */\n      0x07\n      add\n        /* \"Vote_1.sol\":3284:3330  _proposal[proposal_id]._candidate = candidates */\n      swap1\n      dup1\n      mload\n      swap1\n      0x20\n      add\n      swap1\n      tag_45\n      swap3\n      swap2\n      swap1\n      tag_46\n      jump\t// in\n    tag_45:\n      pop\n        /* \"Vote_1.sol\":3137:3337  function set_candidates(address [] memory candidates, uint proposal_id) public {... */\n      pop\n      pop\n      jump\t// out\n        /* \"Vote_1.sol\":2461:2857  function voting_end(uint proposal_id) public {... */\n    tag_19:\n        /* \"Vote_1.sol\":2563:2564  1 */\n      0x01\n        /* \"Vote_1.sol\":2524:2533  _proposal */\n      dup1\n        /* \"Vote_1.sol\":2524:2546  _proposal[proposal_id] */\n      0x00\n        /* \"Vote_1.sol\":2534:2545  proposal_id */\n      dup4\n        /* \"Vote_1.sol\":2524:2546  _proposal[proposal_id] */\n      dup2\n      mstore\n      0x20\n      add\n      swap1\n      dup2\n      mstore\n      0x20\n      add\n      0x00\n      keccak256\n        /* \"Vote_1.sol\":2524:2561  _proposal[proposal_id]._voting_status */\n      0x01\n      add\n      sload\n        /* \"Vote_1.sol\":2524:2564  _proposal[proposal_id]._voting_status==1 */\n      eq\n        /* \"Vote_1.sol\":2516:2565  require(_proposal[proposal_id]._voting_status==1) */\n      tag_48\n      jumpi\n      0x00\n      dup1\n      revert\n    tag_48:\n        /* \"Vote_1.sol\":2595:2610  _constractowner */\n      0x00\n      dup1\n      sload\n      swap1\n      0x0100\n      exp\n      swap1\n      div\n      0xffffffffffffffffffffffffffffffffffffffff\n      and\n        /* \"Vote_1.sol\":2583:2610  msg.sender==_constractowner */\n      0xffffffffffffffffffffffffffffffffffffffff\n      and\n        /* \"Vote_1.sol\":2583:2593  msg.sender */\n      caller\n        /* \"Vote_1.sol\":2583:2610  msg.sender==_constractowner */\n      0xffffffffffffffffffffffffffffffffffffffff\n      and\n      eq\n        /* \"Vote_1.sol\":2575:2628  require(msg.sender==_constractowner, \"No Permission\") */\n      tag_49\n      jumpi\n      mload(0x40)\n      0x08c379a000000000000000000000000000000000000000000000000000000000\n      dup2\n      mstore\n      0x04\n      add\n      tag_50\n      swap1\n      tag_51\n      jump\t// in\n    tag_50:\n      mload(0x40)\n      dup1\n      swap2\n      sub\n      swap1\n      revert\n    tag_49:\n        /* \"Vote_1.sol\":2696:2705  _proposal */\n      0x01\n        /* \"Vote_1.sol\":2696:2718  _proposal[proposal_id] */\n      0x00\n        /* \"Vote_1.sol\":2706:2717  proposal_id */\n      dup3\n        /* \"Vote_1.sol\":2696:2718  _proposal[proposal_id] */\n      dup2\n      mstore\n      0x20\n      add\n      swap1\n      dup2\n      mstore\n      0x20\n      add\n      0x00\n      keccak256\n        /* \"Vote_1.sol\":2696:2728  _proposal[proposal_id]._duration */\n      0x03\n      add\n      sload\n        /* \"Vote_1.sol\":2680:2695  block.timestamp */\n      timestamp\n        /* \"Vote_1.sol\":2646:2655  _proposal */\n      0x01\n        /* \"Vote_1.sol\":2646:2668  _proposal[proposal_id] */\n      0x00\n        /* \"Vote_1.sol\":2656:2667  proposal_id */\n      dup5\n        /* \"Vote_1.sol\":2646:2668  _proposal[proposal_id] */\n      dup2\n      mstore\n      0x20\n      add\n      swap1\n      dup2\n      mstore\n      0x20\n      add\n      0x00\n      keccak256\n        /* \"Vote_1.sol\":2646:2679  _proposal[proposal_id]._timestamp */\n      0x02\n      add\n      sload\n        /* \"Vote_1.sol\":2646:2695  _proposal[proposal_id]._timestamp-block.timestamp */\n      tag_52\n      swap2\n      swap1\n      tag_53\n      jump\t// in\n    tag_52:\n        /* \"Vote_1.sol\":2646:2728  _proposal[proposal_id]._timestamp-block.timestamp>_proposal[proposal_id]._duration */\n      gt\n        /* \"Vote_1.sol\":2638:2729  require(_proposal[proposal_id]._timestamp-block.timestamp>_proposal[proposal_id]._duration) */\n      tag_54\n      jumpi\n      0x00\n      dup1\n      revert\n    tag_54:\n        /* \"Vote_1.sol\":2739:2748  _proposal */\n      0x01\n        /* \"Vote_1.sol\":2739:2761  _proposal[proposal_id] */\n      0x00\n        /* \"Vote_1.sol\":2749:2760  proposal_id */\n      dup3\n        /* \"Vote_1.sol\":2739:2761  _proposal[proposal_id] */\n      dup2\n      mstore\n      0x20\n      add\n      swap1\n      dup2\n      mstore\n      0x20\n      add\n      0x00\n      keccak256\n        /* \"Vote_1.sol\":2739:2776  _proposal[proposal_id]._voting_status */\n      0x01\n      add\n      0x00\n        /* \"Vote_1.sol\":2739:2778  _proposal[proposal_id]._voting_status++ */\n      dup2\n      sload\n      dup1\n      swap3\n      swap2\n      swap1\n      tag_55\n      swap1\n      tag_56\n      jump\t// in\n    tag_55:\n      swap2\n      swap1\n      pop\n      sstore\n      pop\n        /* \"Vote_1.sol\":2793:2850  Vote_end(_proposal[proposal_id]._timestamp, block.number) */\n      0x9d94d1250f6951964b35d1847ff87d835e8e5364ea44a55696ce1f704098c59d\n        /* \"Vote_1.sol\":2802:2811  _proposal */\n      0x01\n        /* \"Vote_1.sol\":2802:2824  _proposal[proposal_id] */\n      0x00\n        /* \"Vote_1.sol\":2812:2823  proposal_id */\n      dup4\n        /* \"Vote_1.sol\":2802:2824  _proposal[proposal_id] */\n      dup2\n      mstore\n      0x20\n      add\n      swap1\n      dup2\n      mstore\n      0x20\n      add\n      0x00\n      keccak256\n        /* \"Vote_1.sol\":2802:2835  _proposal[proposal_id]._timestamp */\n      0x02\n      add\n      sload\n        /* \"Vote_1.sol\":2837:2849  block.number */\n      number\n        /* \"Vote_1.sol\":2793:2850  Vote_end(_proposal[proposal_id]._timestamp, block.number) */\n      mload(0x40)\n      tag_57\n      swap3\n      swap2\n      swap1\n      tag_58\n      jump\t// in\n    tag_57:\n      mload(0x40)\n      dup1\n      swap2\n      sub\n      swap1\n      log1\n        /* \"Vote_1.sol\":2461:2857  function voting_end(uint proposal_id) public {... */\n      pop\n      jump\t// out\n        /* \"Vote_1.sol\":2095:2455  function voting_start(uint proposal_id) public {... */\n    tag_22:\n        /* \"Vote_1.sol\":2198:2199  1 */\n      0x01\n        /* \"Vote_1.sol\":2160:2169  _proposal */\n      dup1\n        /* \"Vote_1.sol\":2160:2182  _proposal[proposal_id] */\n      0x00\n        /* \"Vote_1.sol\":2170:2181  proposal_id */\n      dup4\n        /* \"Vote_1.sol\":2160:2182  _proposal[proposal_id] */\n      dup2\n      mstore\n      0x20\n      add\n      swap1\n      dup2\n      mstore\n      0x20\n      add\n      0x00\n      keccak256\n        /* \"Vote_1.sol\":2160:2197  _proposal[proposal_id]._voting_status */\n      0x01\n      add\n      sload\n        /* \"Vote_1.sol\":2160:2199  _proposal[proposal_id]._voting_status<1 */\n      lt\n        /* \"Vote_1.sol\":2152:2200  require(_proposal[proposal_id]._voting_status<1) */\n      tag_60\n      jumpi\n      0x00\n      dup1\n      revert\n    tag_60:\n        /* \"Vote_1.sol\":2230:2245  _constractowner */\n      0x00\n      dup1\n      sload\n      swap1\n      0x0100\n      exp\n      swap1\n      div\n      0xffffffffffffffffffffffffffffffffffffffff\n      and\n        /* \"Vote_1.sol\":2218:2245  msg.sender==_constractowner */\n      0xffffffffffffffffffffffffffffffffffffffff\n      and\n        /* \"Vote_1.sol\":2218:2228  msg.sender */\n      caller\n        /* \"Vote_1.sol\":2218:2245  msg.sender==_constractowner */\n      0xffffffffffffffffffffffffffffffffffffffff\n      and\n      eq\n        /* \"Vote_1.sol\":2210:2263  require(msg.sender==_constractowner, \"No Permission\") */\n      tag_61\n      jumpi\n      mload(0x40)\n      0x08c379a000000000000000000000000000000000000000000000000000000000\n      dup2\n      mstore\n      0x04\n      add\n      tag_62\n      swap1\n      tag_51\n      jump\t// in\n    tag_62:\n      mload(0x40)\n      dup1\n      swap2\n      sub\n      swap1\n      revert\n    tag_61:\n        /* \"Vote_1.sol\":2273:2282  _proposal */\n      0x01\n        /* \"Vote_1.sol\":2273:2295  _proposal[proposal_id] */\n      0x00\n        /* \"Vote_1.sol\":2283:2294  proposal_id */\n      dup3\n        /* \"Vote_1.sol\":2273:2295  _proposal[proposal_id] */\n      dup2\n      mstore\n      0x20\n      add\n      swap1\n      dup2\n      mstore\n      0x20\n      add\n      0x00\n      keccak256\n        /* \"Vote_1.sol\":2273:2310  _proposal[proposal_id]._voting_status */\n      0x01\n      add\n      0x00\n        /* \"Vote_1.sol\":2273:2313  _proposal[proposal_id]._voting_status ++ */\n      dup2\n      sload\n      dup1\n      swap3\n      swap2\n      swap1\n      tag_63\n      swap1\n      tag_56\n      jump\t// in\n    tag_63:\n      swap2\n      swap1\n      pop\n      sstore\n      pop\n        /* \"Vote_1.sol\":2359:2374  block.timestamp */\n      timestamp\n        /* \"Vote_1.sol\":2323:2332  _proposal */\n      0x01\n        /* \"Vote_1.sol\":2323:2345  _proposal[proposal_id] */\n      0x00\n        /* \"Vote_1.sol\":2333:2344  proposal_id */\n      dup4\n        /* \"Vote_1.sol\":2323:2345  _proposal[proposal_id] */\n      dup2\n      mstore\n      0x20\n      add\n      swap1\n      dup2\n      mstore\n      0x20\n      add\n      0x00\n      keccak256\n        /* \"Vote_1.sol\":2323:2356  _proposal[proposal_id]._timestamp */\n      0x02\n      add\n        /* \"Vote_1.sol\":2323:2374  _proposal[proposal_id]._timestamp = block.timestamp */\n      dup2\n      swap1\n      sstore\n      pop\n        /* \"Vote_1.sol\":2389:2448  Vote_start(_proposal[proposal_id]._timestamp, block.number) */\n      0xb51e74b12e81373f02a15998d821839a05d2e20df1048dc8945bcdf309b4c71a\n        /* \"Vote_1.sol\":2400:2409  _proposal */\n      0x01\n        /* \"Vote_1.sol\":2400:2422  _proposal[proposal_id] */\n      0x00\n        /* \"Vote_1.sol\":2410:2421  proposal_id */\n      dup4\n        /* \"Vote_1.sol\":2400:2422  _proposal[proposal_id] */\n      dup2\n      mstore\n      0x20\n      add\n      swap1\n      dup2\n      mstore\n      0x20\n      add\n      0x00\n      keccak256\n        /* \"Vote_1.sol\":2400:2433  _proposal[proposal_id]._timestamp */\n      0x02\n      add\n      sload\n        /* \"Vote_1.sol\":2435:2447  block.number */\n      number\n        /* \"Vote_1.sol\":2389:2448  Vote_start(_proposal[proposal_id]._timestamp, block.number) */\n      mload(0x40)\n      tag_64\n      swap3\n      swap2\n      swap1\n      tag_58\n      jump\t// in\n    tag_64:\n      mload(0x40)\n      dup1\n      swap2\n      sub\n      swap1\n      log1\n        /* \"Vote_1.sol\":2095:2455  function voting_start(uint proposal_id) public {... */\n      pop\n      jump\t// out\n        /* \"Vote_1.sol\":1716:2089  function voting(bytes32 ballot, uint proposal_id, uint voter_id) public{... */\n    tag_26:\n        /* \"Vote_1.sol\":1844:1845  1 */\n      0x01\n        /* \"Vote_1.sol\":1805:1814  _proposal */\n      dup1\n        /* \"Vote_1.sol\":1805:1827  _proposal[proposal_id] */\n      0x00\n        /* \"Vote_1.sol\":1815:1826  proposal_id */\n      dup5\n        /* \"Vote_1.sol\":1805:1827  _proposal[proposal_id] */\n      dup2\n      mstore\n      0x20\n      add\n      swap1\n      dup2\n      mstore\n      0x20\n      add\n      0x00\n      keccak256\n        /* \"Vote_1.sol\":1805:1842  _proposal[proposal_id]._voting_status */\n      0x01\n      add\n      sload\n        /* \"Vote_1.sol\":1805:1845  _proposal[proposal_id]._voting_status==1 */\n      eq\n        /* \"Vote_1.sol\":1797:1846  require(_proposal[proposal_id]._voting_status==1) */\n      tag_66\n      jumpi\n      0x00\n      dup1\n      revert\n    tag_66:\n        /* \"Vote_1.sol\":1876:1885  _proposal */\n      0x01\n        /* \"Vote_1.sol\":1876:1898  _proposal[proposal_id] */\n      0x00\n        /* \"Vote_1.sol\":1886:1897  proposal_id */\n      dup4\n        /* \"Vote_1.sol\":1876:1898  _proposal[proposal_id] */\n      dup2\n      mstore\n      0x20\n      add\n      swap1\n      dup2\n      mstore\n      0x20\n      add\n      0x00\n      keccak256\n        /* \"Vote_1.sol\":1876:1909  _proposal[proposal_id].voter_list */\n      0x08\n      add\n        /* \"Vote_1.sol\":1876:1919  _proposal[proposal_id].voter_list[voter_id] */\n      0x00\n        /* \"Vote_1.sol\":1910:1918  voter_id */\n      dup3\n        /* \"Vote_1.sol\":1876:1919  _proposal[proposal_id].voter_list[voter_id] */\n      dup2\n      mstore\n      0x20\n      add\n      swap1\n      dup2\n      mstore\n      0x20\n      add\n      0x00\n      keccak256\n      0x00\n      swap1\n      sload\n      swap1\n      0x0100\n      exp\n      swap1\n      div\n      0xffffffffffffffffffffffffffffffffffffffff\n      and\n        /* \"Vote_1.sol\":1864:1919  msg.sender==_proposal[proposal_id].voter_list[voter_id] */\n      0xffffffffffffffffffffffffffffffffffffffff\n      and\n        /* \"Vote_1.sol\":1864:1874  msg.sender */\n      caller\n        /* \"Vote_1.sol\":1864:1919  msg.sender==_proposal[proposal_id].voter_list[voter_id] */\n      0xffffffffffffffffffffffffffffffffffffffff\n      and\n      eq\n        /* \"Vote_1.sol\":1856:1933  require(msg.sender==_proposal[proposal_id].voter_list[voter_id], \"Wrong key\") */\n      tag_67\n      jumpi\n      mload(0x40)\n      0x08c379a000000000000000000000000000000000000000000000000000000000\n      dup2\n      mstore\n      0x04\n      add\n      tag_68\n      swap1\n      tag_69\n      jump\t// in\n    tag_68:\n      mload(0x40)\n      dup1\n      swap2\n      sub\n      swap1\n      revert\n    tag_67:\n        /* \"Vote_1.sol\":1993:1999  ballot */\n      dup3\n        /* \"Vote_1.sol\":1943:1952  _proposal */\n      0x01\n        /* \"Vote_1.sol\":1943:1965  _proposal[proposal_id] */\n      0x00\n        /* \"Vote_1.sol\":1953:1964  proposal_id */\n      dup5\n        /* \"Vote_1.sol\":1943:1965  _proposal[proposal_id] */\n      dup2\n      mstore\n      0x20\n      add\n      swap1\n      dup2\n      mstore\n      0x20\n      add\n      0x00\n      keccak256\n        /* \"Vote_1.sol\":1943:1978  _proposal[proposal_id].voter_ballot */\n      0x09\n      add\n        /* \"Vote_1.sol\":1943:1990  _proposal[proposal_id].voter_ballot[msg.sender] */\n      0x00\n        /* \"Vote_1.sol\":1979:1989  msg.sender */\n      caller\n        /* \"Vote_1.sol\":1943:1990  _proposal[proposal_id].voter_ballot[msg.sender] */\n      0xffffffffffffffffffffffffffffffffffffffff\n      and\n      0xffffffffffffffffffffffffffffffffffffffff\n      and\n      dup2\n      mstore\n      0x20\n      add\n      swap1\n      dup2\n      mstore\n      0x20\n      add\n      0x00\n      keccak256\n        /* \"Vote_1.sol\":1943:1999  _proposal[proposal_id].voter_ballot[msg.sender] = ballot */\n      dup2\n      swap1\n      sstore\n      pop\n        /* \"Vote_1.sol\":2009:2018  _proposal */\n      0x01\n        /* \"Vote_1.sol\":2009:2031  _proposal[proposal_id] */\n      0x00\n        /* \"Vote_1.sol\":2019:2030  proposal_id */\n      dup4\n        /* \"Vote_1.sol\":2009:2031  _proposal[proposal_id] */\n      dup2\n      mstore\n      0x20\n      add\n      swap1\n      dup2\n      mstore\n      0x20\n      add\n      0x00\n      keccak256\n        /* \"Vote_1.sol\":2009:2038  _proposal[proposal_id]._voted */\n      0x05\n      add\n      0x00\n        /* \"Vote_1.sol\":2009:2040  _proposal[proposal_id]._voted++ */\n      dup2\n      sload\n      dup1\n      swap3\n      swap2\n      swap1\n      tag_70\n      swap1\n      tag_56\n      jump\t// in\n    tag_70:\n      swap2\n      swap1\n      pop\n      sstore\n      pop\n        /* \"Vote_1.sol\":2055:2082  Voting_complete(msg.sender) */\n      0xfa031a8df385ffa120ab85b1ef5f8e5ea3fa0288cf068ba3d05a152d87026a09\n        /* \"Vote_1.sol\":2071:2081  msg.sender */\n      caller\n        /* \"Vote_1.sol\":2055:2082  Voting_complete(msg.sender) */\n      mload(0x40)\n      tag_71\n      swap2\n      swap1\n      tag_72\n      jump\t// in\n    tag_71:\n      mload(0x40)\n      dup1\n      swap2\n      sub\n      swap1\n      log1\n        /* \"Vote_1.sol\":1716:2089  function voting(bytes32 ballot, uint proposal_id, uint voter_id) public{... */\n      pop\n      pop\n      pop\n      jump\t// out\n        /* \"Vote_1.sol\":2863:3131  function get_ballot(address voter, uint proposal_id) public view returns(bytes32){... */\n    tag_30:\n        /* \"Vote_1.sol\":2936:2943  bytes32 */\n      0x00\n        /* \"Vote_1.sol\":3000:3001  1 */\n      0x01\n        /* \"Vote_1.sol\":2962:2971  _proposal */\n      dup1\n        /* \"Vote_1.sol\":2962:2984  _proposal[proposal_id] */\n      0x00\n        /* \"Vote_1.sol\":2972:2983  proposal_id */\n      dup5\n        /* \"Vote_1.sol\":2962:2984  _proposal[proposal_id] */\n      dup2\n      mstore\n      0x20\n      add\n      swap1\n      dup2\n      mstore\n      0x20\n      add\n      0x00\n      keccak256\n        /* \"Vote_1.sol\":2962:2999  _proposal[proposal_id]._voting_status */\n      0x01\n      add\n      sload\n        /* \"Vote_1.sol\":2962:3001  _proposal[proposal_id]._voting_status>1 */\n      gt\n        /* \"Vote_1.sol\":2954:3002  require(_proposal[proposal_id]._voting_status>1) */\n      tag_74\n      jumpi\n      0x00\n      dup1\n      revert\n    tag_74:\n        /* \"Vote_1.sol\":3032:3047  _constractowner */\n      0x00\n      dup1\n      sload\n      swap1\n      0x0100\n      exp\n      swap1\n      div\n      0xffffffffffffffffffffffffffffffffffffffff\n      and\n        /* \"Vote_1.sol\":3020:3047  msg.sender==_constractowner */\n      0xffffffffffffffffffffffffffffffffffffffff\n      and\n        /* \"Vote_1.sol\":3020:3030  msg.sender */\n      caller\n        /* \"Vote_1.sol\":3020:3047  msg.sender==_constractowner */\n      0xffffffffffffffffffffffffffffffffffffffff\n      and\n      eq\n        /* \"Vote_1.sol\":3012:3065  require(msg.sender==_constractowner, \"No Permission\") */\n      tag_75\n      jumpi\n      mload(0x40)\n      0x08c379a000000000000000000000000000000000000000000000000000000000\n      dup2\n      mstore\n      0x04\n      add\n      tag_76\n      swap1\n      tag_51\n      jump\t// in\n    tag_76:\n      mload(0x40)\n      dup1\n      swap2\n      sub\n      swap1\n      revert\n    tag_75:\n        /* \"Vote_1.sol\":3082:3091  _proposal */\n      0x01\n        /* \"Vote_1.sol\":3082:3104  _proposal[proposal_id] */\n      0x00\n        /* \"Vote_1.sol\":3092:3103  proposal_id */\n      dup4\n        /* \"Vote_1.sol\":3082:3104  _proposal[proposal_id] */\n      dup2\n      mstore\n      0x20\n      add\n      swap1\n      dup2\n      mstore\n      0x20\n      add\n      0x00\n      keccak256\n        /* \"Vote_1.sol\":3082:3117  _proposal[proposal_id].voter_ballot */\n      0x09\n      add\n        /* \"Vote_1.sol\":3082:3124  _proposal[proposal_id].voter_ballot[voter] */\n      0x00\n        /* \"Vote_1.sol\":3118:3123  voter */\n      dup5\n        /* \"Vote_1.sol\":3082:3124  _proposal[proposal_id].voter_ballot[voter] */\n      0xffffffffffffffffffffffffffffffffffffffff\n      and\n      0xffffffffffffffffffffffffffffffffffffffff\n      and\n      dup2\n      mstore\n      0x20\n      add\n      swap1\n      dup2\n      mstore\n      0x20\n      add\n      0x00\n      keccak256\n      sload\n        /* \"Vote_1.sol\":3075:3124  return _proposal[proposal_id].voter_ballot[voter] */\n      swap1\n      pop\n        /* \"Vote_1.sol\":2863:3131  function get_ballot(address voter, uint proposal_id) public view returns(bytes32){... */\n      swap3\n      swap2\n      pop\n      pop\n      jump\t// out\n        /* \"Vote_1.sol\":854:1194  function new_proposal(uint proposal_id) public {... */\n    tag_35:\n        /* \"Vote_1.sol\":931:946  _constractowner */\n      0x00\n      dup1\n      sload\n      swap1\n      0x0100\n      exp\n      swap1\n      div\n      0xffffffffffffffffffffffffffffffffffffffff\n      and\n        /* \"Vote_1.sol\":919:946  msg.sender==_constractowner */\n      0xffffffffffffffffffffffffffffffffffffffff\n      and\n        /* \"Vote_1.sol\":919:929  msg.sender */\n      caller\n        /* \"Vote_1.sol\":919:946  msg.sender==_constractowner */\n      0xffffffffffffffffffffffffffffffffffffffff\n      and\n      eq\n        /* \"Vote_1.sol\":911:964  require(msg.sender==_constractowner, \"No Permission\") */\n      tag_78\n      jumpi\n      mload(0x40)\n      0x08c379a000000000000000000000000000000000000000000000000000000000\n      dup2\n      mstore\n      0x04\n      add\n      tag_79\n      swap1\n      tag_51\n      jump\t// in\n    tag_79:\n      mload(0x40)\n      dup1\n      swap2\n      sub\n      swap1\n      revert\n    tag_78:\n        /* \"Vote_1.sol\":983:1000  _proposal_id_used */\n      0x02\n        /* \"Vote_1.sol\":983:1013  _proposal_id_used[proposal_id] */\n      0x00\n        /* \"Vote_1.sol\":1001:1012  proposal_id */\n      dup3\n        /* \"Vote_1.sol\":983:1013  _proposal_id_used[proposal_id] */\n      dup2\n      mstore\n      0x20\n      add\n      swap1\n      dup2\n      mstore\n      0x20\n      add\n      0x00\n      keccak256\n      0x00\n      swap1\n      sload\n      swap1\n      0x0100\n      exp\n      swap1\n      div\n      0xff\n      and\n        /* \"Vote_1.sol\":982:1013  !_proposal_id_used[proposal_id] */\n      iszero\n        /* \"Vote_1.sol\":974:1030  require(!_proposal_id_used[proposal_id], \"ID been used\") */\n      tag_80\n      jumpi\n      mload(0x40)\n      0x08c379a000000000000000000000000000000000000000000000000000000000\n      dup2\n      mstore\n      0x04\n      add\n      tag_81\n      swap1\n      tag_82\n      jump\t// in\n    tag_81:\n      mload(0x40)\n      dup1\n      swap2\n      sub\n      swap1\n      revert\n    tag_80:\n        /* \"Vote_1.sol\":1078:1089  proposal_id */\n      dup1\n        /* \"Vote_1.sol\":1040:1049  _proposal */\n      0x01\n        /* \"Vote_1.sol\":1040:1062  _proposal[proposal_id] */\n      0x00\n        /* \"Vote_1.sol\":1050:1061  proposal_id */\n      dup4\n        /* \"Vote_1.sol\":1040:1062  _proposal[proposal_id] */\n      dup2\n      mstore\n      0x20\n      add\n      swap1\n      dup2\n      mstore\n      0x20\n      add\n      0x00\n      keccak256\n        /* \"Vote_1.sol\":1040:1075  _proposal[proposal_id]._proposal_id */\n      0x00\n      add\n        /* \"Vote_1.sol\":1040:1089  _proposal[proposal_id]._proposal_id = proposal_id */\n      dup2\n      swap1\n      sstore\n      pop\n        /* \"Vote_1.sol\":1139:1140  0 */\n      0x00\n        /* \"Vote_1.sol\":1099:1108  _proposal */\n      0x01\n        /* \"Vote_1.sol\":1099:1121  _proposal[proposal_id] */\n      0x00\n        /* \"Vote_1.sol\":1109:1120  proposal_id */\n      dup4\n        /* \"Vote_1.sol\":1099:1121  _proposal[proposal_id] */\n      dup2\n      mstore\n      0x20\n      add\n      swap1\n      dup2\n      mstore\n      0x20\n      add\n      0x00\n      keccak256\n        /* \"Vote_1.sol\":1099:1136  _proposal[proposal_id]._voting_status */\n      0x01\n      add\n        /* \"Vote_1.sol\":1099:1140  _proposal[proposal_id]._voting_status = 0 */\n      dup2\n      swap1\n      sstore\n      pop\n        /* \"Vote_1.sol\":1183:1187  true */\n      0x01\n        /* \"Vote_1.sol\":1150:1167  _proposal_id_used */\n      0x02\n        /* \"Vote_1.sol\":1150:1180  _proposal_id_used[proposal_id] */\n      0x00\n        /* \"Vote_1.sol\":1168:1179  proposal_id */\n      dup4\n        /* \"Vote_1.sol\":1150:1180  _proposal_id_used[proposal_id] */\n      dup2\n      mstore\n      0x20\n      add\n      swap1\n      dup2\n      mstore\n      0x20\n      add\n      0x00\n      keccak256\n      0x00\n        /* \"Vote_1.sol\":1150:1187  _proposal_id_used[proposal_id] = true */\n      0x0100\n      exp\n      dup2\n      sload\n      dup2\n      0xff\n      mul\n      not\n      and\n      swap1\n      dup4\n      iszero\n      iszero\n      mul\n      or\n      swap1\n      sstore\n      pop\n        /* \"Vote_1.sol\":854:1194  function new_proposal(uint proposal_id) public {... */\n      pop\n      jump\t// out\n        /* \"Vote_1.sol\":3345:3655  function set_voters(address [] memory voters, uint proposal_id) public {... */\n    tag_38:\n        /* \"Vote_1.sol\":3472:3473  1 */\n      0x01\n        /* \"Vote_1.sol\":3434:3443  _proposal */\n      dup1\n        /* \"Vote_1.sol\":3434:3456  _proposal[proposal_id] */\n      0x00\n        /* \"Vote_1.sol\":3444:3455  proposal_id */\n      dup4\n        /* \"Vote_1.sol\":3434:3456  _proposal[proposal_id] */\n      dup2\n      mstore\n      0x20\n      add\n      swap1\n      dup2\n      mstore\n      0x20\n      add\n      0x00\n      keccak256\n        /* \"Vote_1.sol\":3434:3471  _proposal[proposal_id]._voting_status */\n      0x01\n      add\n      sload\n        /* \"Vote_1.sol\":3434:3473  _proposal[proposal_id]._voting_status<1 */\n      lt\n        /* \"Vote_1.sol\":3426:3474  require(_proposal[proposal_id]._voting_status<1) */\n      tag_84\n      jumpi\n      0x00\n      dup1\n      revert\n    tag_84:\n        /* \"Vote_1.sol\":3504:3519  _constractowner */\n      0x00\n      dup1\n      sload\n      swap1\n      0x0100\n      exp\n      swap1\n      div\n      0xffffffffffffffffffffffffffffffffffffffff\n      and\n        /* \"Vote_1.sol\":3492:3519  msg.sender==_constractowner */\n      0xffffffffffffffffffffffffffffffffffffffff\n      and\n        /* \"Vote_1.sol\":3492:3502  msg.sender */\n      caller\n        /* \"Vote_1.sol\":3492:3519  msg.sender==_constractowner */\n      0xffffffffffffffffffffffffffffffffffffffff\n      and\n      eq\n        /* \"Vote_1.sol\":3484:3537  require(msg.sender==_constractowner, \"No Permission\") */\n      tag_85\n      jumpi\n      mload(0x40)\n      0x08c379a000000000000000000000000000000000000000000000000000000000\n      dup2\n      mstore\n      0x04\n      add\n      tag_86\n      swap1\n      tag_51\n      jump\t// in\n    tag_86:\n      mload(0x40)\n      dup1\n      swap2\n      sub\n      swap1\n      revert\n    tag_85:\n        /* \"Vote_1.sol\":3551:3557  uint i */\n      0x00\n        /* \"Vote_1.sol\":3547:3649  for(uint i = 0; i < voters.length; i++){... */\n    tag_87:\n        /* \"Vote_1.sol\":3567:3573  voters */\n      dup3\n        /* \"Vote_1.sol\":3567:3580  voters.length */\n      mload\n        /* \"Vote_1.sol\":3563:3564  i */\n      dup2\n        /* \"Vote_1.sol\":3563:3580  i < voters.length */\n      lt\n        /* \"Vote_1.sol\":3547:3649  for(uint i = 0; i < voters.length; i++){... */\n      iszero\n      tag_88\n      jumpi\n        /* \"Vote_1.sol\":3600:3638  set_voter_list(voters[i], proposal_id) */\n      tag_90\n        /* \"Vote_1.sol\":3615:3621  voters */\n      dup4\n        /* \"Vote_1.sol\":3622:3623  i */\n      dup3\n        /* \"Vote_1.sol\":3615:3624  voters[i] */\n      dup2\n      mload\n      dup2\n      lt\n      tag_91\n      jumpi\n      tag_92\n      tag_93\n      jump\t// in\n    tag_92:\n    tag_91:\n      0x20\n      mul\n      0x20\n      add\n      add\n      mload\n        /* \"Vote_1.sol\":3626:3637  proposal_id */\n      dup4\n        /* \"Vote_1.sol\":3600:3614  set_voter_list */\n      tag_94\n        /* \"Vote_1.sol\":3600:3638  set_voter_list(voters[i], proposal_id) */\n      jump\t// in\n    tag_90:\n        /* \"Vote_1.sol\":3582:3585  i++ */\n      dup1\n      dup1\n      tag_95\n      swap1\n      tag_56\n      jump\t// in\n    tag_95:\n      swap2\n      pop\n      pop\n        /* \"Vote_1.sol\":3547:3649  for(uint i = 0; i < voters.length; i++){... */\n      jump(tag_87)\n    tag_88:\n      pop\n        /* \"Vote_1.sol\":3345:3655  function set_voters(address [] memory voters, uint proposal_id) public {... */\n      pop\n      pop\n      jump\t// out\n        /* \"Vote_1.sol\":1200:1443  function set_duration(uint duration, uint proposal_id) public {... */\n    tag_42:\n        /* \"Vote_1.sol\":1292:1307  _constractowner */\n      0x00\n      dup1\n      sload\n      swap1\n      0x0100\n      exp\n      swap1\n      div\n      0xffffffffffffffffffffffffffffffffffffffff\n      and\n        /* \"Vote_1.sol\":1280:1307  msg.sender==_constractowner */\n      0xffffffffffffffffffffffffffffffffffffffff\n      and\n        /* \"Vote_1.sol\":1280:1290  msg.sender */\n      caller\n        /* \"Vote_1.sol\":1280:1307  msg.sender==_constractowner */\n      0xffffffffffffffffffffffffffffffffffffffff\n      and\n      eq\n        /* \"Vote_1.sol\":1272:1325  require(msg.sender==_constractowner, \"No Permission\") */\n      tag_97\n      jumpi\n      mload(0x40)\n      0x08c379a000000000000000000000000000000000000000000000000000000000\n      dup2\n      mstore\n      0x04\n      add\n      tag_98\n      swap1\n      tag_51\n      jump\t// in\n    tag_98:\n      mload(0x40)\n      dup1\n      swap2\n      sub\n      swap1\n      revert\n    tag_97:\n        /* \"Vote_1.sol\":1381:1382  1 */\n      0x01\n        /* \"Vote_1.sol\":1343:1352  _proposal */\n      dup1\n        /* \"Vote_1.sol\":1343:1365  _proposal[proposal_id] */\n      0x00\n        /* \"Vote_1.sol\":1353:1364  proposal_id */\n      dup4\n        /* \"Vote_1.sol\":1343:1365  _proposal[proposal_id] */\n      dup2\n      mstore\n      0x20\n      add\n      swap1\n      dup2\n      mstore\n      0x20\n      add\n      0x00\n      keccak256\n        /* \"Vote_1.sol\":1343:1380  _proposal[proposal_id]._voting_status */\n      0x01\n      add\n      sload\n        /* \"Vote_1.sol\":1343:1382  _proposal[proposal_id]._voting_status<1 */\n      lt\n        /* \"Vote_1.sol\":1335:1383  require(_proposal[proposal_id]._voting_status<1) */\n      tag_99\n      jumpi\n      0x00\n      dup1\n      revert\n    tag_99:\n        /* \"Vote_1.sol\":1428:1436  duration */\n      dup2\n        /* \"Vote_1.sol\":1393:1402  _proposal */\n      0x01\n        /* \"Vote_1.sol\":1393:1415  _proposal[proposal_id] */\n      0x00\n        /* \"Vote_1.sol\":1403:1414  proposal_id */\n      dup4\n        /* \"Vote_1.sol\":1393:1415  _proposal[proposal_id] */\n      dup2\n      mstore\n      0x20\n      add\n      swap1\n      dup2\n      mstore\n      0x20\n      add\n      0x00\n      keccak256\n        /* \"Vote_1.sol\":1393:1425  _proposal[proposal_id]._duration */\n      0x03\n      add\n        /* \"Vote_1.sol\":1393:1436  _proposal[proposal_id]._duration = duration */\n      dup2\n      swap1\n      sstore\n      pop\n        /* \"Vote_1.sol\":1200:1443  function set_duration(uint duration, uint proposal_id) public {... */\n      pop\n      pop\n      jump\t// out\n        /* \"Vote_1.sol\":1449:1710  function set_voter_list(address voter, uint proposal_id) private {... */\n    tag_94:\n        /* \"Vote_1.sol\":1524:1534  uint count */\n      0x00\n        /* \"Vote_1.sol\":1537:1546  _proposal */\n      0x01\n        /* \"Vote_1.sol\":1537:1559  _proposal[proposal_id] */\n      0x00\n        /* \"Vote_1.sol\":1547:1558  proposal_id */\n      dup4\n        /* \"Vote_1.sol\":1537:1559  _proposal[proposal_id] */\n      dup2\n      mstore\n      0x20\n      add\n      swap1\n      dup2\n      mstore\n      0x20\n      add\n      0x00\n      keccak256\n        /* \"Vote_1.sol\":1537:1566  _proposal[proposal_id]._count */\n      0x04\n      add\n      sload\n        /* \"Vote_1.sol\":1524:1566  uint count = _proposal[proposal_id]._count */\n      swap1\n      pop\n        /* \"Vote_1.sol\":1619:1624  voter */\n      dup3\n        /* \"Vote_1.sol\":1576:1585  _proposal */\n      0x01\n        /* \"Vote_1.sol\":1576:1598  _proposal[proposal_id] */\n      0x00\n        /* \"Vote_1.sol\":1586:1597  proposal_id */\n      dup5\n        /* \"Vote_1.sol\":1576:1598  _proposal[proposal_id] */\n      dup2\n      mstore\n      0x20\n      add\n      swap1\n      dup2\n      mstore\n      0x20\n      add\n      0x00\n      keccak256\n        /* \"Vote_1.sol\":1576:1609  _proposal[proposal_id].voter_list */\n      0x08\n      add\n        /* \"Vote_1.sol\":1576:1616  _proposal[proposal_id].voter_list[count] */\n      0x00\n        /* \"Vote_1.sol\":1610:1615  count */\n      dup4\n        /* \"Vote_1.sol\":1576:1616  _proposal[proposal_id].voter_list[count] */\n      dup2\n      mstore\n      0x20\n      add\n      swap1\n      dup2\n      mstore\n      0x20\n      add\n      0x00\n      keccak256\n      0x00\n        /* \"Vote_1.sol\":1576:1624  _proposal[proposal_id].voter_list[count] = voter */\n      0x0100\n      exp\n      dup2\n      sload\n      dup2\n      0xffffffffffffffffffffffffffffffffffffffff\n      mul\n      not\n      and\n      swap1\n      dup4\n      0xffffffffffffffffffffffffffffffffffffffff\n      and\n      mul\n      or\n      swap1\n      sstore\n      pop\n        /* \"Vote_1.sol\":1634:1643  _proposal */\n      0x01\n        /* \"Vote_1.sol\":1634:1656  _proposal[proposal_id] */\n      0x00\n        /* \"Vote_1.sol\":1644:1655  proposal_id */\n      dup4\n        /* \"Vote_1.sol\":1634:1656  _proposal[proposal_id] */\n      dup2\n      mstore\n      0x20\n      add\n      swap1\n      dup2\n      mstore\n      0x20\n      add\n      0x00\n      keccak256\n        /* \"Vote_1.sol\":1634:1663  _proposal[proposal_id]._count */\n      0x04\n      add\n      0x00\n        /* \"Vote_1.sol\":1634:1665  _proposal[proposal_id]._count++ */\n      dup2\n      sload\n      dup1\n      swap3\n      swap2\n      swap1\n      tag_101\n      swap1\n      tag_56\n      jump\t// in\n    tag_101:\n      swap2\n      swap1\n      pop\n      sstore\n      pop\n        /* \"Vote_1.sol\":1680:1703  Voter_set(voter, count) */\n      0x4ad260fdb84f8458e9ae5bfb9f78b3a60d8daeba55271ac59884c0f6cb4e0435\n        /* \"Vote_1.sol\":1690:1695  voter */\n      dup4\n        /* \"Vote_1.sol\":1697:1702  count */\n      dup3\n        /* \"Vote_1.sol\":1680:1703  Voter_set(voter, count) */\n      mload(0x40)\n      tag_102\n      swap3\n      swap2\n      swap1\n      tag_103\n      jump\t// in\n    tag_102:\n      mload(0x40)\n      dup1\n      swap2\n      sub\n      swap1\n      log1\n        /* \"Vote_1.sol\":1514:1710  {... */\n      pop\n        /* \"Vote_1.sol\":1449:1710  function set_voter_list(address voter, uint proposal_id) private {... */\n      pop\n      pop\n      jump\t// out\n    tag_46:\n      dup3\n      dup1\n      sload\n      dup3\n      dup3\n      sstore\n      swap1\n      0x00\n      mstore\n      keccak256(0x00, 0x20)\n      swap1\n      dup2\n      add\n      swap3\n      dup3\n      iszero\n      tag_104\n      jumpi\n      swap2\n      0x20\n      mul\n      dup3\n      add\n    tag_105:\n      dup3\n      dup2\n      gt\n      iszero\n      tag_106\n      jumpi\n      dup3\n      mload\n      dup3\n      exp(0x0100, 0x00)\n      dup2\n      sload\n      dup2\n      0xffffffffffffffffffffffffffffffffffffffff\n      mul\n      not\n      and\n      swap1\n      dup4\n      0xffffffffffffffffffffffffffffffffffffffff\n      and\n      mul\n      or\n      swap1\n      sstore\n      pop\n      swap2\n      0x20\n      add\n      swap2\n      swap1\n      0x01\n      add\n      swap1\n      jump(tag_105)\n    tag_106:\n    tag_104:\n      pop\n      swap1\n      pop\n      tag_107\n      swap2\n      swap1\n      tag_108\n      jump\t// in\n    tag_107:\n      pop\n      swap1\n      jump\t// out\n    tag_108:\n    tag_109:\n      dup1\n      dup3\n      gt\n      iszero\n      tag_110\n      jumpi\n      0x00\n      dup2\n      0x00\n      swap1\n      sstore\n      pop\n      0x01\n      add\n      jump(tag_109)\n    tag_110:\n      pop\n      swap1\n      jump\t// out\n        /* \"#utility.yul\":24:746   */\n    tag_112:\n        /* \"#utility.yul\":120:125   */\n      0x00\n        /* \"#utility.yul\":145:226   */\n      tag_114\n        /* \"#utility.yul\":161:225   */\n      tag_115\n        /* \"#utility.yul\":218:224   */\n      dup5\n        /* \"#utility.yul\":161:225   */\n      tag_116\n      jump\t// in\n    tag_115:\n        /* \"#utility.yul\":145:226   */\n      tag_117\n      jump\t// in\n    tag_114:\n        /* \"#utility.yul\":136:226   */\n      swap1\n      pop\n        /* \"#utility.yul\":246:251   */\n      dup1\n        /* \"#utility.yul\":275:281   */\n      dup4\n        /* \"#utility.yul\":268:273   */\n      dup3\n        /* \"#utility.yul\":261:282   */\n      mstore\n        /* \"#utility.yul\":309:313   */\n      0x20\n        /* \"#utility.yul\":302:307   */\n      dup3\n        /* \"#utility.yul\":298:314   */\n      add\n        /* \"#utility.yul\":291:314   */\n      swap1\n      pop\n        /* \"#utility.yul\":335:341   */\n      dup3\n        /* \"#utility.yul\":385:388   */\n      dup6\n        /* \"#utility.yul\":377:381   */\n      0x20\n        /* \"#utility.yul\":369:375   */\n      dup7\n        /* \"#utility.yul\":365:382   */\n      mul\n        /* \"#utility.yul\":360:363   */\n      dup3\n        /* \"#utility.yul\":356:383   */\n      add\n        /* \"#utility.yul\":353:389   */\n      gt\n        /* \"#utility.yul\":350:493   */\n      iszero\n      tag_118\n      jumpi\n        /* \"#utility.yul\":404:483   */\n      tag_119\n      tag_120\n      jump\t// in\n    tag_119:\n        /* \"#utility.yul\":350:493   */\n    tag_118:\n        /* \"#utility.yul\":517:518   */\n      0x00\n        /* \"#utility.yul\":502:740   */\n    tag_121:\n        /* \"#utility.yul\":527:533   */\n      dup6\n        /* \"#utility.yul\":524:525   */\n      dup2\n        /* \"#utility.yul\":521:534   */\n      lt\n        /* \"#utility.yul\":502:740   */\n      iszero\n      tag_123\n      jumpi\n        /* \"#utility.yul\":595:598   */\n      dup2\n        /* \"#utility.yul\":624:661   */\n      tag_124\n        /* \"#utility.yul\":657:660   */\n      dup9\n        /* \"#utility.yul\":645:655   */\n      dup3\n        /* \"#utility.yul\":624:661   */\n      tag_125\n      jump\t// in\n    tag_124:\n        /* \"#utility.yul\":619:622   */\n      dup5\n        /* \"#utility.yul\":612:662   */\n      mstore\n        /* \"#utility.yul\":691:695   */\n      0x20\n        /* \"#utility.yul\":686:689   */\n      dup5\n        /* \"#utility.yul\":682:696   */\n      add\n        /* \"#utility.yul\":675:696   */\n      swap4\n      pop\n        /* \"#utility.yul\":725:729   */\n      0x20\n        /* \"#utility.yul\":720:723   */\n      dup4\n        /* \"#utility.yul\":716:730   */\n      add\n        /* \"#utility.yul\":709:730   */\n      swap3\n      pop\n        /* \"#utility.yul\":562:740   */\n      pop\n        /* \"#utility.yul\":549:550   */\n      0x01\n        /* \"#utility.yul\":546:547   */\n      dup2\n        /* \"#utility.yul\":542:551   */\n      add\n        /* \"#utility.yul\":537:551   */\n      swap1\n      pop\n        /* \"#utility.yul\":502:740   */\n      jump(tag_121)\n    tag_123:\n        /* \"#utility.yul\":506:520   */\n      pop\n        /* \"#utility.yul\":126:746   */\n      pop\n      pop\n        /* \"#utility.yul\":24:746   */\n      swap4\n      swap3\n      pop\n      pop\n      pop\n      jump\t// out\n        /* \"#utility.yul\":752:891   */\n    tag_125:\n        /* \"#utility.yul\":798:803   */\n      0x00\n        /* \"#utility.yul\":836:842   */\n      dup2\n        /* \"#utility.yul\":823:843   */\n      calldataload\n        /* \"#utility.yul\":814:843   */\n      swap1\n      pop\n        /* \"#utility.yul\":852:885   */\n      tag_127\n        /* \"#utility.yul\":879:884   */\n      dup2\n        /* \"#utility.yul\":852:885   */\n      tag_128\n      jump\t// in\n    tag_127:\n        /* \"#utility.yul\":752:891   */\n      swap3\n      swap2\n      pop\n      pop\n      jump\t// out\n        /* \"#utility.yul\":914:1284   */\n    tag_129:\n        /* \"#utility.yul\":985:990   */\n      0x00\n        /* \"#utility.yul\":1034:1037   */\n      dup3\n        /* \"#utility.yul\":1027:1031   */\n      0x1f\n        /* \"#utility.yul\":1019:1025   */\n      dup4\n        /* \"#utility.yul\":1015:1032   */\n      add\n        /* \"#utility.yul\":1011:1038   */\n      slt\n        /* \"#utility.yul\":1001:1123   */\n      tag_131\n      jumpi\n        /* \"#utility.yul\":1042:1121   */\n      tag_132\n      tag_133\n      jump\t// in\n    tag_132:\n        /* \"#utility.yul\":1001:1123   */\n    tag_131:\n        /* \"#utility.yul\":1159:1165   */\n      dup2\n        /* \"#utility.yul\":1146:1166   */\n      calldataload\n        /* \"#utility.yul\":1184:1278   */\n      tag_134\n        /* \"#utility.yul\":1274:1277   */\n      dup5\n        /* \"#utility.yul\":1266:1272   */\n      dup3\n        /* \"#utility.yul\":1259:1263   */\n      0x20\n        /* \"#utility.yul\":1251:1257   */\n      dup7\n        /* \"#utility.yul\":1247:1264   */\n      add\n        /* \"#utility.yul\":1184:1278   */\n      tag_112\n      jump\t// in\n    tag_134:\n        /* \"#utility.yul\":1175:1278   */\n      swap2\n      pop\n        /* \"#utility.yul\":991:1284   */\n      pop\n        /* \"#utility.yul\":914:1284   */\n      swap3\n      swap2\n      pop\n      pop\n      jump\t// out\n        /* \"#utility.yul\":1290:1429   */\n    tag_135:\n        /* \"#utility.yul\":1336:1341   */\n      0x00\n        /* \"#utility.yul\":1374:1380   */\n      dup2\n        /* \"#utility.yul\":1361:1381   */\n      calldataload\n        /* \"#utility.yul\":1352:1381   */\n      swap1\n      pop\n        /* \"#utility.yul\":1390:1423   */\n      tag_137\n        /* \"#utility.yul\":1417:1422   */\n      dup2\n        /* \"#utility.yul\":1390:1423   */\n      tag_138\n      jump\t// in\n    tag_137:\n        /* \"#utility.yul\":1290:1429   */\n      swap3\n      swap2\n      pop\n      pop\n      jump\t// out\n        /* \"#utility.yul\":1435:1574   */\n    tag_139:\n        /* \"#utility.yul\":1481:1486   */\n      0x00\n        /* \"#utility.yul\":1519:1525   */\n      dup2\n        /* \"#utility.yul\":1506:1526   */\n      calldataload\n        /* \"#utility.yul\":1497:1526   */\n      swap1\n      pop\n        /* \"#utility.yul\":1535:1568   */\n      tag_141\n        /* \"#utility.yul\":1562:1567   */\n      dup2\n        /* \"#utility.yul\":1535:1568   */\n      tag_142\n      jump\t// in\n    tag_141:\n        /* \"#utility.yul\":1435:1574   */\n      swap3\n      swap2\n      pop\n      pop\n      jump\t// out\n        /* \"#utility.yul\":1580:2054   */\n    tag_29:\n        /* \"#utility.yul\":1648:1654   */\n      0x00\n        /* \"#utility.yul\":1656:1662   */\n      dup1\n        /* \"#utility.yul\":1705:1707   */\n      0x40\n        /* \"#utility.yul\":1693:1702   */\n      dup4\n        /* \"#utility.yul\":1684:1691   */\n      dup6\n        /* \"#utility.yul\":1680:1703   */\n      sub\n        /* \"#utility.yul\":1676:1708   */\n      slt\n        /* \"#utility.yul\":1673:1792   */\n      iszero\n      tag_144\n      jumpi\n        /* \"#utility.yul\":1711:1790   */\n      tag_145\n      tag_146\n      jump\t// in\n    tag_145:\n        /* \"#utility.yul\":1673:1792   */\n    tag_144:\n        /* \"#utility.yul\":1831:1832   */\n      0x00\n        /* \"#utility.yul\":1856:1909   */\n      tag_147\n        /* \"#utility.yul\":1901:1908   */\n      dup6\n        /* \"#utility.yul\":1892:1898   */\n      dup3\n        /* \"#utility.yul\":1881:1890   */\n      dup7\n        /* \"#utility.yul\":1877:1899   */\n      add\n        /* \"#utility.yul\":1856:1909   */\n      tag_125\n      jump\t// in\n    tag_147:\n        /* \"#utility.yul\":1846:1909   */\n      swap3\n      pop\n        /* \"#utility.yul\":1802:1919   */\n      pop\n        /* \"#utility.yul\":1958:1960   */\n      0x20\n        /* \"#utility.yul\":1984:2037   */\n      tag_148\n        /* \"#utility.yul\":2029:2036   */\n      dup6\n        /* \"#utility.yul\":2020:2026   */\n      dup3\n        /* \"#utility.yul\":2009:2018   */\n      dup7\n        /* \"#utility.yul\":2005:2027   */\n      add\n        /* \"#utility.yul\":1984:2037   */\n      tag_139\n      jump\t// in\n    tag_148:\n        /* \"#utility.yul\":1974:2037   */\n      swap2\n      pop\n        /* \"#utility.yul\":1929:2047   */\n      pop\n        /* \"#utility.yul\":1580:2054   */\n      swap3\n      pop\n      swap3\n      swap1\n      pop\n      jump\t// out\n        /* \"#utility.yul\":2060:2744   */\n    tag_14:\n        /* \"#utility.yul\":2153:2159   */\n      0x00\n        /* \"#utility.yul\":2161:2167   */\n      dup1\n        /* \"#utility.yul\":2210:2212   */\n      0x40\n        /* \"#utility.yul\":2198:2207   */\n      dup4\n        /* \"#utility.yul\":2189:2196   */\n      dup6\n        /* \"#utility.yul\":2185:2208   */\n      sub\n        /* \"#utility.yul\":2181:2213   */\n      slt\n        /* \"#utility.yul\":2178:2297   */\n      iszero\n      tag_150\n      jumpi\n        /* \"#utility.yul\":2216:2295   */\n      tag_151\n      tag_146\n      jump\t// in\n    tag_151:\n        /* \"#utility.yul\":2178:2297   */\n    tag_150:\n        /* \"#utility.yul\":2364:2365   */\n      0x00\n        /* \"#utility.yul\":2353:2362   */\n      dup4\n        /* \"#utility.yul\":2349:2366   */\n      add\n        /* \"#utility.yul\":2336:2367   */\n      calldataload\n        /* \"#utility.yul\":2394:2412   */\n      0xffffffffffffffff\n        /* \"#utility.yul\":2386:2392   */\n      dup2\n        /* \"#utility.yul\":2383:2413   */\n      gt\n        /* \"#utility.yul\":2380:2497   */\n      iszero\n      tag_152\n      jumpi\n        /* \"#utility.yul\":2416:2495   */\n      tag_153\n      tag_154\n      jump\t// in\n    tag_153:\n        /* \"#utility.yul\":2380:2497   */\n    tag_152:\n        /* \"#utility.yul\":2521:2599   */\n      tag_155\n        /* \"#utility.yul\":2591:2598   */\n      dup6\n        /* \"#utility.yul\":2582:2588   */\n      dup3\n        /* \"#utility.yul\":2571:2580   */\n      dup7\n        /* \"#utility.yul\":2567:2589   */\n      add\n        /* \"#utility.yul\":2521:2599   */\n      tag_129\n      jump\t// in\n    tag_155:\n        /* \"#utility.yul\":2511:2599   */\n      swap3\n      pop\n        /* \"#utility.yul\":2307:2609   */\n      pop\n        /* \"#utility.yul\":2648:2650   */\n      0x20\n        /* \"#utility.yul\":2674:2727   */\n      tag_156\n        /* \"#utility.yul\":2719:2726   */\n      dup6\n        /* \"#utility.yul\":2710:2716   */\n      dup3\n        /* \"#utility.yul\":2699:2708   */\n      dup7\n        /* \"#utility.yul\":2695:2717   */\n      add\n        /* \"#utility.yul\":2674:2727   */\n      tag_139\n      jump\t// in\n    tag_156:\n        /* \"#utility.yul\":2664:2727   */\n      swap2\n      pop\n        /* \"#utility.yul\":2619:2737   */\n      pop\n        /* \"#utility.yul\":2060:2744   */\n      swap3\n      pop\n      swap3\n      swap1\n      pop\n      jump\t// out\n        /* \"#utility.yul\":2750:3369   */\n    tag_25:\n        /* \"#utility.yul\":2827:2833   */\n      0x00\n        /* \"#utility.yul\":2835:2841   */\n      dup1\n        /* \"#utility.yul\":2843:2849   */\n      0x00\n        /* \"#utility.yul\":2892:2894   */\n      0x60\n        /* \"#utility.yul\":2880:2889   */\n      dup5\n        /* \"#utility.yul\":2871:2878   */\n      dup7\n        /* \"#utility.yul\":2867:2890   */\n      sub\n        /* \"#utility.yul\":2863:2895   */\n      slt\n        /* \"#utility.yul\":2860:2979   */\n      iszero\n      tag_158\n      jumpi\n        /* \"#utility.yul\":2898:2977   */\n      tag_159\n      tag_146\n      jump\t// in\n    tag_159:\n        /* \"#utility.yul\":2860:2979   */\n    tag_158:\n        /* \"#utility.yul\":3018:3019   */\n      0x00\n        /* \"#utility.yul\":3043:3096   */\n      tag_160\n        /* \"#utility.yul\":3088:3095   */\n      dup7\n        /* \"#utility.yul\":3079:3085   */\n      dup3\n        /* \"#utility.yul\":3068:3077   */\n      dup8\n        /* \"#utility.yul\":3064:3086   */\n      add\n        /* \"#utility.yul\":3043:3096   */\n      tag_135\n      jump\t// in\n    tag_160:\n        /* \"#utility.yul\":3033:3096   */\n      swap4\n      pop\n        /* \"#utility.yul\":2989:3106   */\n      pop\n        /* \"#utility.yul\":3145:3147   */\n      0x20\n        /* \"#utility.yul\":3171:3224   */\n      tag_161\n        /* \"#utility.yul\":3216:3223   */\n      dup7\n        /* \"#utility.yul\":3207:3213   */\n      dup3\n        /* \"#utility.yul\":3196:3205   */\n      dup8\n        /* \"#utility.yul\":3192:3214   */\n      add\n        /* \"#utility.yul\":3171:3224   */\n      tag_139\n      jump\t// in\n    tag_161:\n        /* \"#utility.yul\":3161:3224   */\n      swap3\n      pop\n        /* \"#utility.yul\":3116:3234   */\n      pop\n        /* \"#utility.yul\":3273:3275   */\n      0x40\n        /* \"#utility.yul\":3299:3352   */\n      tag_162\n        /* \"#utility.yul\":3344:3351   */\n      dup7\n        /* \"#utility.yul\":3335:3341   */\n      dup3\n        /* \"#utility.yul\":3324:3333   */\n      dup8\n        /* \"#utility.yul\":3320:3342   */\n      add\n        /* \"#utility.yul\":3299:3352   */\n      tag_139\n      jump\t// in\n    tag_162:\n        /* \"#utility.yul\":3289:3352   */\n      swap2\n      pop\n        /* \"#utility.yul\":3244:3362   */\n      pop\n        /* \"#utility.yul\":2750:3369   */\n      swap3\n      pop\n      swap3\n      pop\n      swap3\n      jump\t// out\n        /* \"#utility.yul\":3375:3704   */\n    tag_18:\n        /* \"#utility.yul\":3434:3440   */\n      0x00\n        /* \"#utility.yul\":3483:3485   */\n      0x20\n        /* \"#utility.yul\":3471:3480   */\n      dup3\n        /* \"#utility.yul\":3462:3469   */\n      dup5\n        /* \"#utility.yul\":3458:3481   */\n      sub\n        /* \"#utility.yul\":3454:3486   */\n      slt\n        /* \"#utility.yul\":3451:3570   */\n      iszero\n      tag_164\n      jumpi\n        /* \"#utility.yul\":3489:3568   */\n      tag_165\n      tag_146\n      jump\t// in\n    tag_165:\n        /* \"#utility.yul\":3451:3570   */\n    tag_164:\n        /* \"#utility.yul\":3609:3610   */\n      0x00\n        /* \"#utility.yul\":3634:3687   */\n      tag_166\n        /* \"#utility.yul\":3679:3686   */\n      dup5\n        /* \"#utility.yul\":3670:3676   */\n      dup3\n        /* \"#utility.yul\":3659:3668   */\n      dup6\n        /* \"#utility.yul\":3655:3677   */\n      add\n        /* \"#utility.yul\":3634:3687   */\n      tag_139\n      jump\t// in\n    tag_166:\n        /* \"#utility.yul\":3624:3687   */\n      swap2\n      pop\n        /* \"#utility.yul\":3580:3697   */\n      pop\n        /* \"#utility.yul\":3375:3704   */\n      swap3\n      swap2\n      pop\n      pop\n      jump\t// out\n        /* \"#utility.yul\":3710:4184   */\n    tag_41:\n        /* \"#utility.yul\":3778:3784   */\n      0x00\n        /* \"#utility.yul\":3786:3792   */\n      dup1\n        /* \"#utility.yul\":3835:3837   */\n      0x40\n        /* \"#utility.yul\":3823:3832   */\n      dup4\n        /* \"#utility.yul\":3814:3821   */\n      dup6\n        /* \"#utility.yul\":3810:3833   */\n      sub\n        /* \"#utility.yul\":3806:3838   */\n      slt\n        /* \"#utility.yul\":3803:3922   */\n      iszero\n      tag_168\n      jumpi\n        /* \"#utility.yul\":3841:3920   */\n      tag_169\n      tag_146\n      jump\t// in\n    tag_169:\n        /* \"#utility.yul\":3803:3922   */\n    tag_168:\n        /* \"#utility.yul\":3961:3962   */\n      0x00\n        /* \"#utility.yul\":3986:4039   */\n      tag_170\n        /* \"#utility.yul\":4031:4038   */\n      dup6\n        /* \"#utility.yul\":4022:4028   */\n      dup3\n        /* \"#utility.yul\":4011:4020   */\n      dup7\n        /* \"#utility.yul\":4007:4029   */\n      add\n        /* \"#utility.yul\":3986:4039   */\n      tag_139\n      jump\t// in\n    tag_170:\n        /* \"#utility.yul\":3976:4039   */\n      swap3\n      pop\n        /* \"#utility.yul\":3932:4049   */\n      pop\n        /* \"#utility.yul\":4088:4090   */\n      0x20\n        /* \"#utility.yul\":4114:4167   */\n      tag_171\n        /* \"#utility.yul\":4159:4166   */\n      dup6\n        /* \"#utility.yul\":4150:4156   */\n      dup3\n        /* \"#utility.yul\":4139:4148   */\n      dup7\n        /* \"#utility.yul\":4135:4157   */\n      add\n        /* \"#utility.yul\":4114:4167   */\n      tag_139\n      jump\t// in\n    tag_171:\n        /* \"#utility.yul\":4104:4167   */\n      swap2\n      pop\n        /* \"#utility.yul\":4059:4177   */\n      pop\n        /* \"#utility.yul\":3710:4184   */\n      swap3\n      pop\n      swap3\n      swap1\n      pop\n      jump\t// out\n        /* \"#utility.yul\":4190:4308   */\n    tag_172:\n        /* \"#utility.yul\":4277:4301   */\n      tag_174\n        /* \"#utility.yul\":4295:4300   */\n      dup2\n        /* \"#utility.yul\":4277:4301   */\n      tag_175\n      jump\t// in\n    tag_174:\n        /* \"#utility.yul\":4272:4275   */\n      dup3\n        /* \"#utility.yul\":4265:4302   */\n      mstore\n        /* \"#utility.yul\":4190:4308   */\n      pop\n      pop\n      jump\t// out\n        /* \"#utility.yul\":4314:4432   */\n    tag_176:\n        /* \"#utility.yul\":4401:4425   */\n      tag_178\n        /* \"#utility.yul\":4419:4424   */\n      dup2\n        /* \"#utility.yul\":4401:4425   */\n      tag_179\n      jump\t// in\n    tag_178:\n        /* \"#utility.yul\":4396:4399   */\n      dup3\n        /* \"#utility.yul\":4389:4426   */\n      mstore\n        /* \"#utility.yul\":4314:4432   */\n      pop\n      pop\n      jump\t// out\n        /* \"#utility.yul\":4438:4803   */\n    tag_180:\n        /* \"#utility.yul\":4580:4583   */\n      0x00\n        /* \"#utility.yul\":4601:4667   */\n      tag_182\n        /* \"#utility.yul\":4665:4666   */\n      0x09\n        /* \"#utility.yul\":4660:4663   */\n      dup4\n        /* \"#utility.yul\":4601:4667   */\n      tag_183\n      jump\t// in\n    tag_182:\n        /* \"#utility.yul\":4594:4667   */\n      swap2\n      pop\n        /* \"#utility.yul\":4676:4769   */\n      tag_184\n        /* \"#utility.yul\":4765:4768   */\n      dup3\n        /* \"#utility.yul\":4676:4769   */\n      tag_185\n      jump\t// in\n    tag_184:\n        /* \"#utility.yul\":4794:4796   */\n      0x20\n        /* \"#utility.yul\":4789:4792   */\n      dup3\n        /* \"#utility.yul\":4785:4797   */\n      add\n        /* \"#utility.yul\":4778:4797   */\n      swap1\n      pop\n        /* \"#utility.yul\":4438:4803   */\n      swap2\n      swap1\n      pop\n      jump\t// out\n        /* \"#utility.yul\":4809:5175   */\n    tag_186:\n        /* \"#utility.yul\":4951:4954   */\n      0x00\n        /* \"#utility.yul\":4972:5039   */\n      tag_188\n        /* \"#utility.yul\":5036:5038   */\n      0x0c\n        /* \"#utility.yul\":5031:5034   */\n      dup4\n        /* \"#utility.yul\":4972:5039   */\n      tag_183\n      jump\t// in\n    tag_188:\n        /* \"#utility.yul\":4965:5039   */\n      swap2\n      pop\n        /* \"#utility.yul\":5048:5141   */\n      tag_189\n        /* \"#utility.yul\":5137:5140   */\n      dup3\n        /* \"#utility.yul\":5048:5141   */\n      tag_190\n      jump\t// in\n    tag_189:\n        /* \"#utility.yul\":5166:5168   */\n      0x20\n        /* \"#utility.yul\":5161:5164   */\n      dup3\n        /* \"#utility.yul\":5157:5169   */\n      add\n        /* \"#utility.yul\":5150:5169   */\n      swap1\n      pop\n        /* \"#utility.yul\":4809:5175   */\n      swap2\n      swap1\n      pop\n      jump\t// out\n        /* \"#utility.yul\":5181:5547   */\n    tag_191:\n        /* \"#utility.yul\":5323:5326   */\n      0x00\n        /* \"#utility.yul\":5344:5411   */\n      tag_193\n        /* \"#utility.yul\":5408:5410   */\n      0x0d\n        /* \"#utility.yul\":5403:5406   */\n      dup4\n        /* \"#utility.yul\":5344:5411   */\n      tag_183\n      jump\t// in\n    tag_193:\n        /* \"#utility.yul\":5337:5411   */\n      swap2\n      pop\n        /* \"#utility.yul\":5420:5513   */\n      tag_194\n        /* \"#utility.yul\":5509:5512   */\n      dup3\n        /* \"#utility.yul\":5420:5513   */\n      tag_195\n      jump\t// in\n    tag_194:\n        /* \"#utility.yul\":5538:5540   */\n      0x20\n        /* \"#utility.yul\":5533:5536   */\n      dup3\n        /* \"#utility.yul\":5529:5541   */\n      add\n        /* \"#utility.yul\":5522:5541   */\n      swap1\n      pop\n        /* \"#utility.yul\":5181:5547   */\n      swap2\n      swap1\n      pop\n      jump\t// out\n        /* \"#utility.yul\":5553:5671   */\n    tag_196:\n        /* \"#utility.yul\":5640:5664   */\n      tag_198\n        /* \"#utility.yul\":5658:5663   */\n      dup2\n        /* \"#utility.yul\":5640:5664   */\n      tag_199\n      jump\t// in\n    tag_198:\n        /* \"#utility.yul\":5635:5638   */\n      dup3\n        /* \"#utility.yul\":5628:5665   */\n      mstore\n        /* \"#utility.yul\":5553:5671   */\n      pop\n      pop\n      jump\t// out\n        /* \"#utility.yul\":5677:5899   */\n    tag_72:\n        /* \"#utility.yul\":5770:5774   */\n      0x00\n        /* \"#utility.yul\":5808:5810   */\n      0x20\n        /* \"#utility.yul\":5797:5806   */\n      dup3\n        /* \"#utility.yul\":5793:5811   */\n      add\n        /* \"#utility.yul\":5785:5811   */\n      swap1\n      pop\n        /* \"#utility.yul\":5821:5892   */\n      tag_201\n        /* \"#utility.yul\":5889:5890   */\n      0x00\n        /* \"#utility.yul\":5878:5887   */\n      dup4\n        /* \"#utility.yul\":5874:5891   */\n      add\n        /* \"#utility.yul\":5865:5871   */\n      dup5\n        /* \"#utility.yul\":5821:5892   */\n      tag_172\n      jump\t// in\n    tag_201:\n        /* \"#utility.yul\":5677:5899   */\n      swap3\n      swap2\n      pop\n      pop\n      jump\t// out\n        /* \"#utility.yul\":5905:6237   */\n    tag_103:\n        /* \"#utility.yul\":6026:6030   */\n      0x00\n        /* \"#utility.yul\":6064:6066   */\n      0x40\n        /* \"#utility.yul\":6053:6062   */\n      dup3\n        /* \"#utility.yul\":6049:6067   */\n      add\n        /* \"#utility.yul\":6041:6067   */\n      swap1\n      pop\n        /* \"#utility.yul\":6077:6148   */\n      tag_203\n        /* \"#utility.yul\":6145:6146   */\n      0x00\n        /* \"#utility.yul\":6134:6143   */\n      dup4\n        /* \"#utility.yul\":6130:6147   */\n      add\n        /* \"#utility.yul\":6121:6127   */\n      dup6\n        /* \"#utility.yul\":6077:6148   */\n      tag_172\n      jump\t// in\n    tag_203:\n        /* \"#utility.yul\":6158:6230   */\n      tag_204\n        /* \"#utility.yul\":6226:6228   */\n      0x20\n        /* \"#utility.yul\":6215:6224   */\n      dup4\n        /* \"#utility.yul\":6211:6229   */\n      add\n        /* \"#utility.yul\":6202:6208   */\n      dup5\n        /* \"#utility.yul\":6158:6230   */\n      tag_196\n      jump\t// in\n    tag_204:\n        /* \"#utility.yul\":5905:6237   */\n      swap4\n      swap3\n      pop\n      pop\n      pop\n      jump\t// out\n        /* \"#utility.yul\":6243:6465   */\n    tag_32:\n        /* \"#utility.yul\":6336:6340   */\n      0x00\n        /* \"#utility.yul\":6374:6376   */\n      0x20\n        /* \"#utility.yul\":6363:6372   */\n      dup3\n        /* \"#utility.yul\":6359:6377   */\n      add\n        /* \"#utility.yul\":6351:6377   */\n      swap1\n      pop\n        /* \"#utility.yul\":6387:6458   */\n      tag_206\n        /* \"#utility.yul\":6455:6456   */\n      0x00\n        /* \"#utility.yul\":6444:6453   */\n      dup4\n        /* \"#utility.yul\":6440:6457   */\n      add\n        /* \"#utility.yul\":6431:6437   */\n      dup5\n        /* \"#utility.yul\":6387:6458   */\n      tag_176\n      jump\t// in\n    tag_206:\n        /* \"#utility.yul\":6243:6465   */\n      swap3\n      swap2\n      pop\n      pop\n      jump\t// out\n        /* \"#utility.yul\":6471:6890   */\n    tag_69:\n        /* \"#utility.yul\":6637:6641   */\n      0x00\n        /* \"#utility.yul\":6675:6677   */\n      0x20\n        /* \"#utility.yul\":6664:6673   */\n      dup3\n        /* \"#utility.yul\":6660:6678   */\n      add\n        /* \"#utility.yul\":6652:6678   */\n      swap1\n      pop\n        /* \"#utility.yul\":6724:6733   */\n      dup2\n        /* \"#utility.yul\":6718:6722   */\n      dup2\n        /* \"#utility.yul\":6714:6734   */\n      sub\n        /* \"#utility.yul\":6710:6711   */\n      0x00\n        /* \"#utility.yul\":6699:6708   */\n      dup4\n        /* \"#utility.yul\":6695:6712   */\n      add\n        /* \"#utility.yul\":6688:6735   */\n      mstore\n        /* \"#utility.yul\":6752:6883   */\n      tag_208\n        /* \"#utility.yul\":6878:6882   */\n      dup2\n        /* \"#utility.yul\":6752:6883   */\n      tag_180\n      jump\t// in\n    tag_208:\n        /* \"#utility.yul\":6744:6883   */\n      swap1\n      pop\n        /* \"#utility.yul\":6471:6890   */\n      swap2\n      swap1\n      pop\n      jump\t// out\n        /* \"#utility.yul\":6896:7315   */\n    tag_82:\n        /* \"#utility.yul\":7062:7066   */\n      0x00\n        /* \"#utility.yul\":7100:7102   */\n      0x20\n        /* \"#utility.yul\":7089:7098   */\n      dup3\n        /* \"#utility.yul\":7085:7103   */\n      add\n        /* \"#utility.yul\":7077:7103   */\n      swap1\n      pop\n        /* \"#utility.yul\":7149:7158   */\n      dup2\n        /* \"#utility.yul\":7143:7147   */\n      dup2\n        /* \"#utility.yul\":7139:7159   */\n      sub\n        /* \"#utility.yul\":7135:7136   */\n      0x00\n        /* \"#utility.yul\":7124:7133   */\n      dup4\n        /* \"#utility.yul\":7120:7137   */\n      add\n        /* \"#utility.yul\":7113:7160   */\n      mstore\n        /* \"#utility.yul\":7177:7308   */\n      tag_210\n        /* \"#utility.yul\":7303:7307   */\n      dup2\n        /* \"#utility.yul\":7177:7308   */\n      tag_186\n      jump\t// in\n    tag_210:\n        /* \"#utility.yul\":7169:7308   */\n      swap1\n      pop\n        /* \"#utility.yul\":6896:7315   */\n      swap2\n      swap1\n      pop\n      jump\t// out\n        /* \"#utility.yul\":7321:7740   */\n    tag_51:\n        /* \"#utility.yul\":7487:7491   */\n      0x00\n        /* \"#utility.yul\":7525:7527   */\n      0x20\n        /* \"#utility.yul\":7514:7523   */\n      dup3\n        /* \"#utility.yul\":7510:7528   */\n      add\n        /* \"#utility.yul\":7502:7528   */\n      swap1\n      pop\n        /* \"#utility.yul\":7574:7583   */\n      dup2\n        /* \"#utility.yul\":7568:7572   */\n      dup2\n        /* \"#utility.yul\":7564:7584   */\n      sub\n        /* \"#utility.yul\":7560:7561   */\n      0x00\n        /* \"#utility.yul\":7549:7558   */\n      dup4\n        /* \"#utility.yul\":7545:7562   */\n      add\n        /* \"#utility.yul\":7538:7585   */\n      mstore\n        /* \"#utility.yul\":7602:7733   */\n      tag_212\n        /* \"#utility.yul\":7728:7732   */\n      dup2\n        /* \"#utility.yul\":7602:7733   */\n      tag_191\n      jump\t// in\n    tag_212:\n        /* \"#utility.yul\":7594:7733   */\n      swap1\n      pop\n        /* \"#utility.yul\":7321:7740   */\n      swap2\n      swap1\n      pop\n      jump\t// out\n        /* \"#utility.yul\":7746:8078   */\n    tag_58:\n        /* \"#utility.yul\":7867:7871   */\n      0x00\n        /* \"#utility.yul\":7905:7907   */\n      0x40\n        /* \"#utility.yul\":7894:7903   */\n      dup3\n        /* \"#utility.yul\":7890:7908   */\n      add\n        /* \"#utility.yul\":7882:7908   */\n      swap1\n      pop\n        /* \"#utility.yul\":7918:7989   */\n      tag_214\n        /* \"#utility.yul\":7986:7987   */\n      0x00\n        /* \"#utility.yul\":7975:7984   */\n      dup4\n        /* \"#utility.yul\":7971:7988   */\n      add\n        /* \"#utility.yul\":7962:7968   */\n      dup6\n        /* \"#utility.yul\":7918:7989   */\n      tag_196\n      jump\t// in\n    tag_214:\n        /* \"#utility.yul\":7999:8071   */\n      tag_215\n        /* \"#utility.yul\":8067:8069   */\n      0x20\n        /* \"#utility.yul\":8056:8065   */\n      dup4\n        /* \"#utility.yul\":8052:8070   */\n      add\n        /* \"#utility.yul\":8043:8049   */\n      dup5\n        /* \"#utility.yul\":7999:8071   */\n      tag_196\n      jump\t// in\n    tag_215:\n        /* \"#utility.yul\":7746:8078   */\n      swap4\n      swap3\n      pop\n      pop\n      pop\n      jump\t// out\n        /* \"#utility.yul\":8084:8213   */\n    tag_117:\n        /* \"#utility.yul\":8118:8124   */\n      0x00\n        /* \"#utility.yul\":8145:8165   */\n      tag_217\n      tag_218\n      jump\t// in\n    tag_217:\n        /* \"#utility.yul\":8135:8165   */\n      swap1\n      pop\n        /* \"#utility.yul\":8174:8207   */\n      tag_219\n        /* \"#utility.yul\":8202:8206   */\n      dup3\n        /* \"#utility.yul\":8194:8200   */\n      dup3\n        /* \"#utility.yul\":8174:8207   */\n      tag_220\n      jump\t// in\n    tag_219:\n        /* \"#utility.yul\":8084:8213   */\n      swap2\n      swap1\n      pop\n      jump\t// out\n        /* \"#utility.yul\":8219:8294   */\n    tag_218:\n        /* \"#utility.yul\":8252:8258   */\n      0x00\n        /* \"#utility.yul\":8285:8287   */\n      0x40\n        /* \"#utility.yul\":8279:8288   */\n      mload\n        /* \"#utility.yul\":8269:8288   */\n      swap1\n      pop\n        /* \"#utility.yul\":8219:8294   */\n      swap1\n      jump\t// out\n        /* \"#utility.yul\":8300:8611   */\n    tag_116:\n        /* \"#utility.yul\":8377:8381   */\n      0x00\n        /* \"#utility.yul\":8467:8485   */\n      0xffffffffffffffff\n        /* \"#utility.yul\":8459:8465   */\n      dup3\n        /* \"#utility.yul\":8456:8486   */\n      gt\n        /* \"#utility.yul\":8453:8509   */\n      iszero\n      tag_223\n      jumpi\n        /* \"#utility.yul\":8489:8507   */\n      tag_224\n      tag_225\n      jump\t// in\n    tag_224:\n        /* \"#utility.yul\":8453:8509   */\n    tag_223:\n        /* \"#utility.yul\":8539:8543   */\n      0x20\n        /* \"#utility.yul\":8531:8537   */\n      dup3\n        /* \"#utility.yul\":8527:8544   */\n      mul\n        /* \"#utility.yul\":8519:8544   */\n      swap1\n      pop\n        /* \"#utility.yul\":8599:8603   */\n      0x20\n        /* \"#utility.yul\":8593:8597   */\n      dup2\n        /* \"#utility.yul\":8589:8604   */\n      add\n        /* \"#utility.yul\":8581:8604   */\n      swap1\n      pop\n        /* \"#utility.yul\":8300:8611   */\n      swap2\n      swap1\n      pop\n      jump\t// out\n        /* \"#utility.yul\":8617:8786   */\n    tag_183:\n        /* \"#utility.yul\":8701:8712   */\n      0x00\n        /* \"#utility.yul\":8735:8741   */\n      dup3\n        /* \"#utility.yul\":8730:8733   */\n      dup3\n        /* \"#utility.yul\":8723:8742   */\n      mstore\n        /* \"#utility.yul\":8775:8779   */\n      0x20\n        /* \"#utility.yul\":8770:8773   */\n      dup3\n        /* \"#utility.yul\":8766:8780   */\n      add\n        /* \"#utility.yul\":8751:8780   */\n      swap1\n      pop\n        /* \"#utility.yul\":8617:8786   */\n      swap3\n      swap2\n      pop\n      pop\n      jump\t// out\n        /* \"#utility.yul\":8792:8983   */\n    tag_53:\n        /* \"#utility.yul\":8832:8836   */\n      0x00\n        /* \"#utility.yul\":8852:8872   */\n      tag_228\n        /* \"#utility.yul\":8870:8871   */\n      dup3\n        /* \"#utility.yul\":8852:8872   */\n      tag_199\n      jump\t// in\n    tag_228:\n        /* \"#utility.yul\":8847:8872   */\n      swap2\n      pop\n        /* \"#utility.yul\":8886:8906   */\n      tag_229\n        /* \"#utility.yul\":8904:8905   */\n      dup4\n        /* \"#utility.yul\":8886:8906   */\n      tag_199\n      jump\t// in\n    tag_229:\n        /* \"#utility.yul\":8881:8906   */\n      swap3\n      pop\n        /* \"#utility.yul\":8925:8926   */\n      dup3\n        /* \"#utility.yul\":8922:8923   */\n      dup3\n        /* \"#utility.yul\":8919:8927   */\n      lt\n        /* \"#utility.yul\":8916:8950   */\n      iszero\n      tag_230\n      jumpi\n        /* \"#utility.yul\":8930:8948   */\n      tag_231\n      tag_232\n      jump\t// in\n    tag_231:\n        /* \"#utility.yul\":8916:8950   */\n    tag_230:\n        /* \"#utility.yul\":8975:8976   */\n      dup3\n        /* \"#utility.yul\":8972:8973   */\n      dup3\n        /* \"#utility.yul\":8968:8977   */\n      sub\n        /* \"#utility.yul\":8960:8977   */\n      swap1\n      pop\n        /* \"#utility.yul\":8792:8983   */\n      swap3\n      swap2\n      pop\n      pop\n      jump\t// out\n        /* \"#utility.yul\":8989:9085   */\n    tag_175:\n        /* \"#utility.yul\":9026:9033   */\n      0x00\n        /* \"#utility.yul\":9055:9079   */\n      tag_234\n        /* \"#utility.yul\":9073:9078   */\n      dup3\n        /* \"#utility.yul\":9055:9079   */\n      tag_235\n      jump\t// in\n    tag_234:\n        /* \"#utility.yul\":9044:9079   */\n      swap1\n      pop\n        /* \"#utility.yul\":8989:9085   */\n      swap2\n      swap1\n      pop\n      jump\t// out\n        /* \"#utility.yul\":9091:9168   */\n    tag_179:\n        /* \"#utility.yul\":9128:9135   */\n      0x00\n        /* \"#utility.yul\":9157:9162   */\n      dup2\n        /* \"#utility.yul\":9146:9162   */\n      swap1\n      pop\n        /* \"#utility.yul\":9091:9168   */\n      swap2\n      swap1\n      pop\n      jump\t// out\n        /* \"#utility.yul\":9174:9300   */\n    tag_235:\n        /* \"#utility.yul\":9211:9218   */\n      0x00\n        /* \"#utility.yul\":9251:9293   */\n      0xffffffffffffffffffffffffffffffffffffffff\n        /* \"#utility.yul\":9244:9249   */\n      dup3\n        /* \"#utility.yul\":9240:9294   */\n      and\n        /* \"#utility.yul\":9229:9294   */\n      swap1\n      pop\n        /* \"#utility.yul\":9174:9300   */\n      swap2\n      swap1\n      pop\n      jump\t// out\n        /* \"#utility.yul\":9306:9383   */\n    tag_199:\n        /* \"#utility.yul\":9343:9350   */\n      0x00\n        /* \"#utility.yul\":9372:9377   */\n      dup2\n        /* \"#utility.yul\":9361:9377   */\n      swap1\n      pop\n        /* \"#utility.yul\":9306:9383   */\n      swap2\n      swap1\n      pop\n      jump\t// out\n        /* \"#utility.yul\":9389:9670   */\n    tag_220:\n        /* \"#utility.yul\":9472:9499   */\n      tag_240\n        /* \"#utility.yul\":9494:9498   */\n      dup3\n        /* \"#utility.yul\":9472:9499   */\n      tag_241\n      jump\t// in\n    tag_240:\n        /* \"#utility.yul\":9464:9470   */\n      dup2\n        /* \"#utility.yul\":9460:9500   */\n      add\n        /* \"#utility.yul\":9602:9608   */\n      dup2\n        /* \"#utility.yul\":9590:9600   */\n      dup2\n        /* \"#utility.yul\":9587:9609   */\n      lt\n        /* \"#utility.yul\":9566:9584   */\n      0xffffffffffffffff\n        /* \"#utility.yul\":9554:9564   */\n      dup3\n        /* \"#utility.yul\":9551:9585   */\n      gt\n        /* \"#utility.yul\":9548:9610   */\n      or\n        /* \"#utility.yul\":9545:9633   */\n      iszero\n      tag_242\n      jumpi\n        /* \"#utility.yul\":9613:9631   */\n      tag_243\n      tag_225\n      jump\t// in\n    tag_243:\n        /* \"#utility.yul\":9545:9633   */\n    tag_242:\n        /* \"#utility.yul\":9653:9663   */\n      dup1\n        /* \"#utility.yul\":9649:9651   */\n      0x40\n        /* \"#utility.yul\":9642:9664   */\n      mstore\n        /* \"#utility.yul\":9432:9670   */\n      pop\n        /* \"#utility.yul\":9389:9670   */\n      pop\n      pop\n      jump\t// out\n        /* \"#utility.yul\":9676:9909   */\n    tag_56:\n        /* \"#utility.yul\":9715:9718   */\n      0x00\n        /* \"#utility.yul\":9738:9762   */\n      tag_245\n        /* \"#utility.yul\":9756:9761   */\n      dup3\n        /* \"#utility.yul\":9738:9762   */\n      tag_199\n      jump\t// in\n    tag_245:\n        /* \"#utility.yul\":9729:9762   */\n      swap2\n      pop\n        /* \"#utility.yul\":9784:9850   */\n      0xffffffffffffffffffffffffffffffffffffffffffffffffffffffffffffffff\n        /* \"#utility.yul\":9777:9782   */\n      dup3\n        /* \"#utility.yul\":9774:9851   */\n      eq\n        /* \"#utility.yul\":9771:9874   */\n      iszero\n      tag_246\n      jumpi\n        /* \"#utility.yul\":9854:9872   */\n      tag_247\n      tag_232\n      jump\t// in\n    tag_247:\n        /* \"#utility.yul\":9771:9874   */\n    tag_246:\n        /* \"#utility.yul\":9901:9902   */\n      0x01\n        /* \"#utility.yul\":9894:9899   */\n      dup3\n        /* \"#utility.yul\":9890:9903   */\n      add\n        /* \"#utility.yul\":9883:9903   */\n      swap1\n      pop\n        /* \"#utility.yul\":9676:9909   */\n      swap2\n      swap1\n      pop\n      jump\t// out\n        /* \"#utility.yul\":9915:10095   */\n    tag_232:\n        /* \"#utility.yul\":9963:10040   */\n      0x4e487b7100000000000000000000000000000000000000000000000000000000\n        /* \"#utility.yul\":9960:9961   */\n      0x00\n        /* \"#utility.yul\":9953:10041   */\n      mstore\n        /* \"#utility.yul\":10060:10064   */\n      0x11\n        /* \"#utility.yul\":10057:10058   */\n      0x04\n        /* \"#utility.yul\":10050:10065   */\n      mstore\n        /* \"#utility.yul\":10084:10088   */\n      0x24\n        /* \"#utility.yul\":10081:10082   */\n      0x00\n        /* \"#utility.yul\":10074:10089   */\n      revert\n        /* \"#utility.yul\":10101:10281   */\n    tag_93:\n        /* \"#utility.yul\":10149:10226   */\n      0x4e487b7100000000000000000000000000000000000000000000000000000000\n        /* \"#utility.yul\":10146:10147   */\n      0x00\n        /* \"#utility.yul\":10139:10227   */\n      mstore\n        /* \"#utility.yul\":10246:10250   */\n      0x32\n        /* \"#utility.yul\":10243:10244   */\n      0x04\n        /* \"#utility.yul\":10236:10251   */\n      mstore\n        /* \"#utility.yul\":10270:10274   */\n      0x24\n        /* \"#utility.yul\":10267:10268   */\n      0x00\n        /* \"#utility.yul\":10260:10275   */\n      revert\n        /* \"#utility.yul\":10287:10467   */\n    tag_225:\n        /* \"#utility.yul\":10335:10412   */\n      0x4e487b7100000000000000000000000000000000000000000000000000000000\n        /* \"#utility.yul\":10332:10333   */\n      0x00\n        /* \"#utility.yul\":10325:10413   */\n      mstore\n        /* \"#utility.yul\":10432:10436   */\n      0x41\n        /* \"#utility.yul\":10429:10430   */\n      0x04\n        /* \"#utility.yul\":10422:10437   */\n      mstore\n        /* \"#utility.yul\":10456:10460   */\n      0x24\n        /* \"#utility.yul\":10453:10454   */\n      0x00\n        /* \"#utility.yul\":10446:10461   */\n      revert\n        /* \"#utility.yul\":10473:10590   */\n    tag_133:\n        /* \"#utility.yul\":10582:10583   */\n      0x00\n        /* \"#utility.yul\":10579:10580   */\n      dup1\n        /* \"#utility.yul\":10572:10584   */\n      revert\n        /* \"#utility.yul\":10596:10713   */\n    tag_120:\n        /* \"#utility.yul\":10705:10706   */\n      0x00\n        /* \"#utility.yul\":10702:10703   */\n      dup1\n        /* \"#utility.yul\":10695:10707   */\n      revert\n        /* \"#utility.yul\":10719:10836   */\n    tag_154:\n        /* \"#utility.yul\":10828:10829   */\n      0x00\n        /* \"#utility.yul\":10825:10826   */\n      dup1\n        /* \"#utility.yul\":10818:10830   */\n      revert\n        /* \"#utility.yul\":10842:10959   */\n    tag_146:\n        /* \"#utility.yul\":10951:10952   */\n      0x00\n        /* \"#utility.yul\":10948:10949   */\n      dup1\n        /* \"#utility.yul\":10941:10953   */\n      revert\n        /* \"#utility.yul\":10965:11067   */\n    tag_241:\n        /* \"#utility.yul\":11006:11012   */\n      0x00\n        /* \"#utility.yul\":11057:11059   */\n      0x1f\n        /* \"#utility.yul\":11053:11060   */\n      not\n        /* \"#utility.yul\":11048:11050   */\n      0x1f\n        /* \"#utility.yul\":11041:11046   */\n      dup4\n        /* \"#utility.yul\":11037:11051   */\n      add\n        /* \"#utility.yul\":11033:11061   */\n      and\n        /* \"#utility.yul\":11023:11061   */\n      swap1\n      pop\n        /* \"#utility.yul\":10965:11067   */\n      swap2\n      swap1\n      pop\n      jump\t// out\n        /* \"#utility.yul\":11073:11232   */\n    tag_185:\n        /* \"#utility.yul\":11213:11224   */\n      0x57726f6e67206b65790000000000000000000000000000000000000000000000\n        /* \"#utility.yul\":11209:11210   */\n      0x00\n        /* \"#utility.yul\":11201:11207   */\n      dup3\n        /* \"#utility.yul\":11197:11211   */\n      add\n        /* \"#utility.yul\":11190:11225   */\n      mstore\n        /* \"#utility.yul\":11073:11232   */\n      pop\n      jump\t// out\n        /* \"#utility.yul\":11238:11400   */\n    tag_190:\n        /* \"#utility.yul\":11378:11392   */\n      0x4944206265656e20757365640000000000000000000000000000000000000000\n        /* \"#utility.yul\":11374:11375   */\n      0x00\n        /* \"#utility.yul\":11366:11372   */\n      dup3\n        /* \"#utility.yul\":11362:11376   */\n      add\n        /* \"#utility.yul\":11355:11393   */\n      mstore\n        /* \"#utility.yul\":11238:11400   */\n      pop\n      jump\t// out\n        /* \"#utility.yul\":11406:11569   */\n    tag_195:\n        /* \"#utility.yul\":11546:11561   */\n      0x4e6f205065726d697373696f6e00000000000000000000000000000000000000\n        /* \"#utility.yul\":11542:11543   */\n      0x00\n        /* \"#utility.yul\":11534:11540   */\n      dup3\n        /* \"#utility.yul\":11530:11544   */\n      add\n        /* \"#utility.yul\":11523:11562   */\n      mstore\n        /* \"#utility.yul\":11406:11569   */\n      pop\n      jump\t// out\n        /* \"#utility.yul\":11575:11697   */\n    tag_128:\n        /* \"#utility.yul\":11648:11672   */\n      tag_260\n        /* \"#utility.yul\":11666:11671   */\n      dup2\n        /* \"#utility.yul\":11648:11672   */\n      tag_175\n      jump\t// in\n    tag_260:\n        /* \"#utility.yul\":11641:11646   */\n      dup2\n        /* \"#utility.yul\":11638:11673   */\n      eq\n        /* \"#utility.yul\":11628:11691   */\n      tag_261\n      jumpi\n        /* \"#utility.yul\":11687:11688   */\n      0x00\n        /* \"#utility.yul\":11684:11685   */\n      dup1\n        /* \"#utility.yul\":11677:11689   */\n      revert\n        /* \"#utility.yul\":11628:11691   */\n    tag_261:\n        /* \"#utility.yul\":11575:11697   */\n      pop\n      jump\t// out\n        /* \"#utility.yul\":11703:11825   */\n    tag_138:\n        /* \"#utility.yul\":11776:11800   */\n      tag_263\n        /* \"#utility.yul\":11794:11799   */\n      dup2\n        /* \"#utility.yul\":11776:11800   */\n      tag_179\n      jump\t// in\n    tag_263:\n        /* \"#utility.yul\":11769:11774   */\n      dup2\n        /* \"#utility.yul\":11766:11801   */\n      eq\n        /* \"#utility.yul\":11756:11819   */\n      tag_264\n      jumpi\n        /* \"#utility.yul\":11815:11816   */\n      0x00\n        /* \"#utility.yul\":11812:11813   */\n      dup1\n        /* \"#utility.yul\":11805:11817   */\n      revert\n        /* \"#utility.yul\":11756:11819   */\n    tag_264:\n        /* \"#utility.yul\":11703:11825   */\n      pop\n      jump\t// out\n        /* \"#utility.yul\":11831:11953   */\n    tag_142:\n        /* \"#utility.yul\":11904:11928   */\n      tag_266\n        /* \"#utility.yul\":11922:11927   */\n      dup2\n        /* \"#utility.yul\":11904:11928   */\n      tag_199\n      jump\t// in\n    tag_266:\n        /* \"#utility.yul\":11897:11902   */\n      dup2\n        /* \"#utility.yul\":11894:11929   */\n      eq\n        /* \"#utility.yul\":11884:11947   */\n      tag_267\n      jumpi\n        /* \"#utility.yul\":11943:11944   */\n      0x00\n        /* \"#utility.yul\":11940:11941   */\n      dup1\n        /* \"#utility.yul\":11933:11945   */\n      revert\n        /* \"#utility.yul\":11884:11947   */\n    tag_267:\n        /* \"#utility.yul\":11831:11953   */\n      pop\n      jump\t// out\n\n    auxdata: 0xa26469706673582212207094567b7bcfe3e956f2adcdc81e9a6c8b29a93ef2b92f67bf7bacb7e976f75b64736f6c63430008070033\n}\n",
				"bytecode": {
					"linkReferences": {},
					"object": "608060405234801561001057600080fd5b50336000806101000a81548173ffffffffffffffffffffffffffffffffffffffff021916908373ffffffffffffffffffffffffffffffffffffffff160217905550611294806100606000396000f3fe608060405234801561001057600080fd5b50600436106100885760003560e01c8063d6f937e51161005b578063d6f937e5146100fd578063e28ee1201461012d578063fb5babd814610149578063fea9b7171461016557610088565b806350fae1d21461008d5780638aa430af146100a9578063a4db23fc146100c5578063d0350b59146100e1575b600080fd5b6100a760048036038101906100a29190610cfc565b610181565b005b6100c360048036038101906100be9190610dab565b6101d2565b005b6100df60048036038101906100da9190610dab565b610343565b005b6100fb60048036038101906100f69190610d58565b61048c565b005b61011760048036038101906101129190610cbc565b610623565b6040516101249190610ef2565b60405180910390f35b61014760048036038101906101429190610dab565b610731565b005b610163600480360381019061015e9190610cfc565b610886565b005b61017f600480360381019061017a9190610dd8565b61097e565b005b600180600083815260200190815260200160002060010154106101a357600080fd5b816001600083815260200190815260200160002060070190805190602001906101cd929190610b38565b505050565b600180600083815260200190815260200160002060010154146101f457600080fd5b60008054906101000a900473ffffffffffffffffffffffffffffffffffffffff1673ffffffffffffffffffffffffffffffffffffffff163373ffffffffffffffffffffffffffffffffffffffff1614610282576040517f08c379a000000000000000000000000000000000000000000000000000000000815260040161027990610f4d565b60405180910390fd5b60016000828152602001908152602001600020600301544260016000848152602001908152602001600020600201546102bb9190610ff8565b116102c557600080fd5b6001600082815260200190815260200160002060010160008154809291906102ec906110a3565b91905055507f9d94d1250f6951964b35d1847ff87d835e8e5364ea44a55696ce1f704098c59d600160008381526020019081526020016000206002015443604051610338929190610f6d565b60405180910390a150565b6001806000838152602001908152602001600020600101541061036557600080fd5b60008054906101000a900473ffffffffffffffffffffffffffffffffffffffff1673ffffffffffffffffffffffffffffffffffffffff163373ffffffffffffffffffffffffffffffffffffffff16146103f3576040517f08c379a00000000000000000000000000000000000000000000000000000000081526004016103ea90610f4d565b60405180910390fd5b60016000828152602001908152602001600020600101600081548092919061041a906110a3565b91905055504260016000838152602001908152602001600020600201819055507fb51e74b12e81373f02a15998d821839a05d2e20df1048dc8945bcdf309b4c71a600160008381526020019081526020016000206002015443604051610481929190610f6d565b60405180910390a150565b600180600084815260200190815260200160002060010154146104ae57600080fd5b60016000838152602001908152602001600020600801600082815260200190815260200160002060009054906101000a900473ffffffffffffffffffffffffffffffffffffffff1673ffffffffffffffffffffffffffffffffffffffff163373ffffffffffffffffffffffffffffffffffffffff1614610563576040517f08c379a000000000000000000000000000000000000000000000000000000000815260040161055a90610f0d565b60405180910390fd5b826001600084815260200190815260200160002060090160003373ffffffffffffffffffffffffffffffffffffffff1673ffffffffffffffffffffffffffffffffffffffff168152602001908152602001600020819055506001600083815260200190815260200160002060050160008154809291906105e2906110a3565b91905055507ffa031a8df385ffa120ab85b1ef5f8e5ea3fa0288cf068ba3d05a152d87026a09336040516106169190610eae565b60405180910390a1505050565b60006001806000848152602001908152602001600020600101541161064757600080fd5b60008054906101000a900473ffffffffffffffffffffffffffffffffffffffff1673ffffffffffffffffffffffffffffffffffffffff163373ffffffffffffffffffffffffffffffffffffffff16146106d5576040517f08c379a00000000000000000000000000000000000000000000000000000000081526004016106cc90610f4d565b60405180910390fd5b6001600083815260200190815260200160002060090160008473ffffffffffffffffffffffffffffffffffffffff1673ffffffffffffffffffffffffffffffffffffffff16815260200190815260200160002054905092915050565b60008054906101000a900473ffffffffffffffffffffffffffffffffffffffff1673ffffffffffffffffffffffffffffffffffffffff163373ffffffffffffffffffffffffffffffffffffffff16146107bf576040517f08c379a00000000000000000000000000000000000000000000000000000000081526004016107b690610f4d565b60405180910390fd5b6002600082815260200190815260200160002060009054906101000a900460ff1615610820576040517f08c379a000000000000000000000000000000000000000000000000000000000815260040161081790610f2d565b60405180910390fd5b8060016000838152602001908152602001600020600001819055506000600160008381526020019081526020016000206001018190555060016002600083815260200190815260200160002060006101000a81548160ff02191690831515021790555050565b600180600083815260200190815260200160002060010154106108a857600080fd5b60008054906101000a900473ffffffffffffffffffffffffffffffffffffffff1673ffffffffffffffffffffffffffffffffffffffff163373ffffffffffffffffffffffffffffffffffffffff1614610936576040517f08c379a000000000000000000000000000000000000000000000000000000000815260040161092d90610f4d565b60405180910390fd5b60005b8251811015610979576109668382815181106109585761095761111b565b5b602002602001015183610a4d565b8080610971906110a3565b915050610939565b505050565b60008054906101000a900473ffffffffffffffffffffffffffffffffffffffff1673ffffffffffffffffffffffffffffffffffffffff163373ffffffffffffffffffffffffffffffffffffffff1614610a0c576040517f08c379a0000000000000000000000000000000000000000000000000000000008152600401610a0390610f4d565b60405180910390fd5b60018060008381526020019081526020016000206001015410610a2e57600080fd5b8160016000838152602001908152602001600020600301819055505050565b6000600160008381526020019081526020016000206004015490508260016000848152602001908152602001600020600801600083815260200190815260200160002060006101000a81548173ffffffffffffffffffffffffffffffffffffffff021916908373ffffffffffffffffffffffffffffffffffffffff160217905550600160008381526020019081526020016000206004016000815480929190610af5906110a3565b91905055507f4ad260fdb84f8458e9ae5bfb9f78b3a60d8daeba55271ac59884c0f6cb4e04358382604051610b2b929190610ec9565b60405180910390a1505050565b828054828255906000526020600020908101928215610bb1579160200282015b82811115610bb05782518260006101000a81548173ffffffffffffffffffffffffffffffffffffffff021916908373ffffffffffffffffffffffffffffffffffffffff16021790555091602001919060010190610b58565b5b509050610bbe9190610bc2565b5090565b5b80821115610bdb576000816000905550600101610bc3565b5090565b6000610bf2610bed84610fbb565b610f96565b90508083825260208201905082856020860282011115610c1557610c1461117e565b5b60005b85811015610c455781610c2b8882610c4f565b845260208401935060208301925050600181019050610c18565b5050509392505050565b600081359050610c5e81611219565b92915050565b600082601f830112610c7957610c78611179565b5b8135610c89848260208601610bdf565b91505092915050565b600081359050610ca181611230565b92915050565b600081359050610cb681611247565b92915050565b60008060408385031215610cd357610cd2611188565b5b6000610ce185828601610c4f565b9250506020610cf285828601610ca7565b9150509250929050565b60008060408385031215610d1357610d12611188565b5b600083013567ffffffffffffffff811115610d3157610d30611183565b5b610d3d85828601610c64565b9250506020610d4e85828601610ca7565b9150509250929050565b600080600060608486031215610d7157610d70611188565b5b6000610d7f86828701610c92565b9350506020610d9086828701610ca7565b9250506040610da186828701610ca7565b9150509250925092565b600060208284031215610dc157610dc0611188565b5b6000610dcf84828501610ca7565b91505092915050565b60008060408385031215610def57610dee611188565b5b6000610dfd85828601610ca7565b9250506020610e0e85828601610ca7565b9150509250929050565b610e218161102c565b82525050565b610e308161103e565b82525050565b6000610e43600983610fe7565b9150610e4e8261119e565b602082019050919050565b6000610e66600c83610fe7565b9150610e71826111c7565b602082019050919050565b6000610e89600d83610fe7565b9150610e94826111f0565b602082019050919050565b610ea881611068565b82525050565b6000602082019050610ec36000830184610e18565b92915050565b6000604082019050610ede6000830185610e18565b610eeb6020830184610e9f565b9392505050565b6000602082019050610f076000830184610e27565b92915050565b60006020820190508181036000830152610f2681610e36565b9050919050565b60006020820190508181036000830152610f4681610e59565b9050919050565b60006020820190508181036000830152610f6681610e7c565b9050919050565b6000604082019050610f826000830185610e9f565b610f8f6020830184610e9f565b9392505050565b6000610fa0610fb1565b9050610fac8282611072565b919050565b6000604051905090565b600067ffffffffffffffff821115610fd657610fd561114a565b5b602082029050602081019050919050565b600082825260208201905092915050565b600061100382611068565b915061100e83611068565b925082821015611021576110206110ec565b5b828203905092915050565b600061103782611048565b9050919050565b6000819050919050565b600073ffffffffffffffffffffffffffffffffffffffff82169050919050565b6000819050919050565b61107b8261118d565b810181811067ffffffffffffffff8211171561109a5761109961114a565b5b80604052505050565b60006110ae82611068565b91507fffffffffffffffffffffffffffffffffffffffffffffffffffffffffffffffff8214156110e1576110e06110ec565b5b600182019050919050565b7f4e487b7100000000000000000000000000000000000000000000000000000000600052601160045260246000fd5b7f4e487b7100000000000000000000000000000000000000000000000000000000600052603260045260246000fd5b7f4e487b7100000000000000000000000000000000000000000000000000000000600052604160045260246000fd5b600080fd5b600080fd5b600080fd5b600080fd5b6000601f19601f8301169050919050565b7f57726f6e67206b65790000000000000000000000000000000000000000000000600082015250565b7f4944206265656e20757365640000000000000000000000000000000000000000600082015250565b7f4e6f205065726d697373696f6e00000000000000000000000000000000000000600082015250565b6112228161102c565b811461122d57600080fd5b50565b6112398161103e565b811461124457600080fd5b50565b61125081611068565b811461125b57600080fd5b5056fea26469706673582212207094567b7bcfe3e956f2adcdc81e9a6c8b29a93ef2b92f67bf7bacb7e976f75b64736f6c63430008070033",
					"opcodes": "PUSH1 0x80 PUSH1 0x40 MSTORE CALLVALUE DUP1 ISZERO PUSH2 0x10 JUMPI PUSH1 0x0 DUP1 REVERT JUMPDEST POP CALLER PUSH1 0x0 DUP1 PUSH2 0x100 EXP DUP2 SLOAD DUP2 PUSH20 0xFFFFFFFFFFFFFFFFFFFFFFFFFFFFFFFFFFFFFFFF MUL NOT AND SWAP1 DUP4 PUSH20 0xFFFFFFFFFFFFFFFFFFFFFFFFFFFFFFFFFFFFFFFF AND MUL OR SWAP1 SSTORE POP PUSH2 0x1294 DUP1 PUSH2 0x60 PUSH1 0x0 CODECOPY PUSH1 0x0 RETURN INVALID PUSH1 0x80 PUSH1 0x40 MSTORE CALLVALUE DUP1 ISZERO PUSH2 0x10 JUMPI PUSH1 0x0 DUP1 REVERT JUMPDEST POP PUSH1 0x4 CALLDATASIZE LT PUSH2 0x88 JUMPI PUSH1 0x0 CALLDATALOAD PUSH1 0xE0 SHR DUP1 PUSH4 0xD6F937E5 GT PUSH2 0x5B JUMPI DUP1 PUSH4 0xD6F937E5 EQ PUSH2 0xFD JUMPI DUP1 PUSH4 0xE28EE120 EQ PUSH2 0x12D JUMPI DUP1 PUSH4 0xFB5BABD8 EQ PUSH2 0x149 JUMPI DUP1 PUSH4 0xFEA9B717 EQ PUSH2 0x165 JUMPI PUSH2 0x88 JUMP JUMPDEST DUP1 PUSH4 0x50FAE1D2 EQ PUSH2 0x8D JUMPI DUP1 PUSH4 0x8AA430AF EQ PUSH2 0xA9 JUMPI DUP1 PUSH4 0xA4DB23FC EQ PUSH2 0xC5 JUMPI DUP1 PUSH4 0xD0350B59 EQ PUSH2 0xE1 JUMPI JUMPDEST PUSH1 0x0 DUP1 REVERT JUMPDEST PUSH2 0xA7 PUSH1 0x4 DUP1 CALLDATASIZE SUB DUP2 ADD SWAP1 PUSH2 0xA2 SWAP2 SWAP1 PUSH2 0xCFC JUMP JUMPDEST PUSH2 0x181 JUMP JUMPDEST STOP JUMPDEST PUSH2 0xC3 PUSH1 0x4 DUP1 CALLDATASIZE SUB DUP2 ADD SWAP1 PUSH2 0xBE SWAP2 SWAP1 PUSH2 0xDAB JUMP JUMPDEST PUSH2 0x1D2 JUMP JUMPDEST STOP JUMPDEST PUSH2 0xDF PUSH1 0x4 DUP1 CALLDATASIZE SUB DUP2 ADD SWAP1 PUSH2 0xDA SWAP2 SWAP1 PUSH2 0xDAB JUMP JUMPDEST PUSH2 0x343 JUMP JUMPDEST STOP JUMPDEST PUSH2 0xFB PUSH1 0x4 DUP1 CALLDATASIZE SUB DUP2 ADD SWAP1 PUSH2 0xF6 SWAP2 SWAP1 PUSH2 0xD58 JUMP JUMPDEST PUSH2 0x48C JUMP JUMPDEST STOP JUMPDEST PUSH2 0x117 PUSH1 0x4 DUP1 CALLDATASIZE SUB DUP2 ADD SWAP1 PUSH2 0x112 SWAP2 SWAP1 PUSH2 0xCBC JUMP JUMPDEST PUSH2 0x623 JUMP JUMPDEST PUSH1 0x40 MLOAD PUSH2 0x124 SWAP2 SWAP1 PUSH2 0xEF2 JUMP JUMPDEST PUSH1 0x40 MLOAD DUP1 SWAP2 SUB SWAP1 RETURN JUMPDEST PUSH2 0x147 PUSH1 0x4 DUP1 CALLDATASIZE SUB DUP2 ADD SWAP1 PUSH2 0x142 SWAP2 SWAP1 PUSH2 0xDAB JUMP JUMPDEST PUSH2 0x731 JUMP JUMPDEST STOP JUMPDEST PUSH2 0x163 PUSH1 0x4 DUP1 CALLDATASIZE SUB DUP2 ADD SWAP1 PUSH2 0x15E SWAP2 SWAP1 PUSH2 0xCFC JUMP JUMPDEST PUSH2 0x886 JUMP JUMPDEST STOP JUMPDEST PUSH2 0x17F PUSH1 0x4 DUP1 CALLDATASIZE SUB DUP2 ADD SWAP1 PUSH2 0x17A SWAP2 SWAP1 PUSH2 0xDD8 JUMP JUMPDEST PUSH2 0x97E JUMP JUMPDEST STOP JUMPDEST PUSH1 0x1 DUP1 PUSH1 0x0 DUP4 DUP2 MSTORE PUSH1 0x20 ADD SWAP1 DUP2 MSTORE PUSH1 0x20 ADD PUSH1 0x0 KECCAK256 PUSH1 0x1 ADD SLOAD LT PUSH2 0x1A3 JUMPI PUSH1 0x0 DUP1 REVERT JUMPDEST DUP2 PUSH1 0x1 PUSH1 0x0 DUP4 DUP2 MSTORE PUSH1 0x20 ADD SWAP1 DUP2 MSTORE PUSH1 0x20 ADD PUSH1 0x0 KECCAK256 PUSH1 0x7 ADD SWAP1 DUP1 MLOAD SWAP1 PUSH1 0x20 ADD SWAP1 PUSH2 0x1CD SWAP3 SWAP2 SWAP1 PUSH2 0xB38 JUMP JUMPDEST POP POP POP JUMP JUMPDEST PUSH1 0x1 DUP1 PUSH1 0x0 DUP4 DUP2 MSTORE PUSH1 0x20 ADD SWAP1 DUP2 MSTORE PUSH1 0x20 ADD PUSH1 0x0 KECCAK256 PUSH1 0x1 ADD SLOAD EQ PUSH2 0x1F4 JUMPI PUSH1 0x0 DUP1 REVERT JUMPDEST PUSH1 0x0 DUP1 SLOAD SWAP1 PUSH2 0x100 EXP SWAP1 DIV PUSH20 0xFFFFFFFFFFFFFFFFFFFFFFFFFFFFFFFFFFFFFFFF AND PUSH20 0xFFFFFFFFFFFFFFFFFFFFFFFFFFFFFFFFFFFFFFFF AND CALLER PUSH20 0xFFFFFFFFFFFFFFFFFFFFFFFFFFFFFFFFFFFFFFFF AND EQ PUSH2 0x282 JUMPI PUSH1 0x40 MLOAD PUSH32 0x8C379A000000000000000000000000000000000000000000000000000000000 DUP2 MSTORE PUSH1 0x4 ADD PUSH2 0x279 SWAP1 PUSH2 0xF4D JUMP JUMPDEST PUSH1 0x40 MLOAD DUP1 SWAP2 SUB SWAP1 REVERT JUMPDEST PUSH1 0x1 PUSH1 0x0 DUP3 DUP2 MSTORE PUSH1 0x20 ADD SWAP1 DUP2 MSTORE PUSH1 0x20 ADD PUSH1 0x0 KECCAK256 PUSH1 0x3 ADD SLOAD TIMESTAMP PUSH1 0x1 PUSH1 0x0 DUP5 DUP2 MSTORE PUSH1 0x20 ADD SWAP1 DUP2 MSTORE PUSH1 0x20 ADD PUSH1 0x0 KECCAK256 PUSH1 0x2 ADD SLOAD PUSH2 0x2BB SWAP2 SWAP1 PUSH2 0xFF8 JUMP JUMPDEST GT PUSH2 0x2C5 JUMPI PUSH1 0x0 DUP1 REVERT JUMPDEST PUSH1 0x1 PUSH1 0x0 DUP3 DUP2 MSTORE PUSH1 0x20 ADD SWAP1 DUP2 MSTORE PUSH1 0x20 ADD PUSH1 0x0 KECCAK256 PUSH1 0x1 ADD PUSH1 0x0 DUP2 SLOAD DUP1 SWAP3 SWAP2 SWAP1 PUSH2 0x2EC SWAP1 PUSH2 0x10A3 JUMP JUMPDEST SWAP2 SWAP1 POP SSTORE POP PUSH32 0x9D94D1250F6951964B35D1847FF87D835E8E5364EA44A55696CE1F704098C59D PUSH1 0x1 PUSH1 0x0 DUP4 DUP2 MSTORE PUSH1 0x20 ADD SWAP1 DUP2 MSTORE PUSH1 0x20 ADD PUSH1 0x0 KECCAK256 PUSH1 0x2 ADD SLOAD NUMBER PUSH1 0x40 MLOAD PUSH2 0x338 SWAP3 SWAP2 SWAP1 PUSH2 0xF6D JUMP JUMPDEST PUSH1 0x40 MLOAD DUP1 SWAP2 SUB SWAP1 LOG1 POP JUMP JUMPDEST PUSH1 0x1 DUP1 PUSH1 0x0 DUP4 DUP2 MSTORE PUSH1 0x20 ADD SWAP1 DUP2 MSTORE PUSH1 0x20 ADD PUSH1 0x0 KECCAK256 PUSH1 0x1 ADD SLOAD LT PUSH2 0x365 JUMPI PUSH1 0x0 DUP1 REVERT JUMPDEST PUSH1 0x0 DUP1 SLOAD SWAP1 PUSH2 0x100 EXP SWAP1 DIV PUSH20 0xFFFFFFFFFFFFFFFFFFFFFFFFFFFFFFFFFFFFFFFF AND PUSH20 0xFFFFFFFFFFFFFFFFFFFFFFFFFFFFFFFFFFFFFFFF AND CALLER PUSH20 0xFFFFFFFFFFFFFFFFFFFFFFFFFFFFFFFFFFFFFFFF AND EQ PUSH2 0x3F3 JUMPI PUSH1 0x40 MLOAD PUSH32 0x8C379A000000000000000000000000000000000000000000000000000000000 DUP2 MSTORE PUSH1 0x4 ADD PUSH2 0x3EA SWAP1 PUSH2 0xF4D JUMP JUMPDEST PUSH1 0x40 MLOAD DUP1 SWAP2 SUB SWAP1 REVERT JUMPDEST PUSH1 0x1 PUSH1 0x0 DUP3 DUP2 MSTORE PUSH1 0x20 ADD SWAP1 DUP2 MSTORE PUSH1 0x20 ADD PUSH1 0x0 KECCAK256 PUSH1 0x1 ADD PUSH1 0x0 DUP2 SLOAD DUP1 SWAP3 SWAP2 SWAP1 PUSH2 0x41A SWAP1 PUSH2 0x10A3 JUMP JUMPDEST SWAP2 SWAP1 POP SSTORE POP TIMESTAMP PUSH1 0x1 PUSH1 0x0 DUP4 DUP2 MSTORE PUSH1 0x20 ADD SWAP1 DUP2 MSTORE PUSH1 0x20 ADD PUSH1 0x0 KECCAK256 PUSH1 0x2 ADD DUP2 SWAP1 SSTORE POP PUSH32 0xB51E74B12E81373F02A15998D821839A05D2E20DF1048DC8945BCDF309B4C71A PUSH1 0x1 PUSH1 0x0 DUP4 DUP2 MSTORE PUSH1 0x20 ADD SWAP1 DUP2 MSTORE PUSH1 0x20 ADD PUSH1 0x0 KECCAK256 PUSH1 0x2 ADD SLOAD NUMBER PUSH1 0x40 MLOAD PUSH2 0x481 SWAP3 SWAP2 SWAP1 PUSH2 0xF6D JUMP JUMPDEST PUSH1 0x40 MLOAD DUP1 SWAP2 SUB SWAP1 LOG1 POP JUMP JUMPDEST PUSH1 0x1 DUP1 PUSH1 0x0 DUP5 DUP2 MSTORE PUSH1 0x20 ADD SWAP1 DUP2 MSTORE PUSH1 0x20 ADD PUSH1 0x0 KECCAK256 PUSH1 0x1 ADD SLOAD EQ PUSH2 0x4AE JUMPI PUSH1 0x0 DUP1 REVERT JUMPDEST PUSH1 0x1 PUSH1 0x0 DUP4 DUP2 MSTORE PUSH1 0x20 ADD SWAP1 DUP2 MSTORE PUSH1 0x20 ADD PUSH1 0x0 KECCAK256 PUSH1 0x8 ADD PUSH1 0x0 DUP3 DUP2 MSTORE PUSH1 0x20 ADD SWAP1 DUP2 MSTORE PUSH1 0x20 ADD PUSH1 0x0 KECCAK256 PUSH1 0x0 SWAP1 SLOAD SWAP1 PUSH2 0x100 EXP SWAP1 DIV PUSH20 0xFFFFFFFFFFFFFFFFFFFFFFFFFFFFFFFFFFFFFFFF AND PUSH20 0xFFFFFFFFFFFFFFFFFFFFFFFFFFFFFFFFFFFFFFFF AND CALLER PUSH20 0xFFFFFFFFFFFFFFFFFFFFFFFFFFFFFFFFFFFFFFFF AND EQ PUSH2 0x563 JUMPI PUSH1 0x40 MLOAD PUSH32 0x8C379A000000000000000000000000000000000000000000000000000000000 DUP2 MSTORE PUSH1 0x4 ADD PUSH2 0x55A SWAP1 PUSH2 0xF0D JUMP JUMPDEST PUSH1 0x40 MLOAD DUP1 SWAP2 SUB SWAP1 REVERT JUMPDEST DUP3 PUSH1 0x1 PUSH1 0x0 DUP5 DUP2 MSTORE PUSH1 0x20 ADD SWAP1 DUP2 MSTORE PUSH1 0x20 ADD PUSH1 0x0 KECCAK256 PUSH1 0x9 ADD PUSH1 0x0 CALLER PUSH20 0xFFFFFFFFFFFFFFFFFFFFFFFFFFFFFFFFFFFFFFFF AND PUSH20 0xFFFFFFFFFFFFFFFFFFFFFFFFFFFFFFFFFFFFFFFF AND DUP2 MSTORE PUSH1 0x20 ADD SWAP1 DUP2 MSTORE PUSH1 0x20 ADD PUSH1 0x0 KECCAK256 DUP2 SWAP1 SSTORE POP PUSH1 0x1 PUSH1 0x0 DUP4 DUP2 MSTORE PUSH1 0x20 ADD SWAP1 DUP2 MSTORE PUSH1 0x20 ADD PUSH1 0x0 KECCAK256 PUSH1 0x5 ADD PUSH1 0x0 DUP2 SLOAD DUP1 SWAP3 SWAP2 SWAP1 PUSH2 0x5E2 SWAP1 PUSH2 0x10A3 JUMP JUMPDEST SWAP2 SWAP1 POP SSTORE POP PUSH32 0xFA031A8DF385FFA120AB85B1EF5F8E5EA3FA0288CF068BA3D05A152D87026A09 CALLER PUSH1 0x40 MLOAD PUSH2 0x616 SWAP2 SWAP1 PUSH2 0xEAE JUMP JUMPDEST PUSH1 0x40 MLOAD DUP1 SWAP2 SUB SWAP1 LOG1 POP POP POP JUMP JUMPDEST PUSH1 0x0 PUSH1 0x1 DUP1 PUSH1 0x0 DUP5 DUP2 MSTORE PUSH1 0x20 ADD SWAP1 DUP2 MSTORE PUSH1 0x20 ADD PUSH1 0x0 KECCAK256 PUSH1 0x1 ADD SLOAD GT PUSH2 0x647 JUMPI PUSH1 0x0 DUP1 REVERT JUMPDEST PUSH1 0x0 DUP1 SLOAD SWAP1 PUSH2 0x100 EXP SWAP1 DIV PUSH20 0xFFFFFFFFFFFFFFFFFFFFFFFFFFFFFFFFFFFFFFFF AND PUSH20 0xFFFFFFFFFFFFFFFFFFFFFFFFFFFFFFFFFFFFFFFF AND CALLER PUSH20 0xFFFFFFFFFFFFFFFFFFFFFFFFFFFFFFFFFFFFFFFF AND EQ PUSH2 0x6D5 JUMPI PUSH1 0x40 MLOAD PUSH32 0x8C379A000000000000000000000000000000000000000000000000000000000 DUP2 MSTORE PUSH1 0x4 ADD PUSH2 0x6CC SWAP1 PUSH2 0xF4D JUMP JUMPDEST PUSH1 0x40 MLOAD DUP1 SWAP2 SUB SWAP1 REVERT JUMPDEST PUSH1 0x1 PUSH1 0x0 DUP4 DUP2 MSTORE PUSH1 0x20 ADD SWAP1 DUP2 MSTORE PUSH1 0x20 ADD PUSH1 0x0 KECCAK256 PUSH1 0x9 ADD PUSH1 0x0 DUP5 PUSH20 0xFFFFFFFFFFFFFFFFFFFFFFFFFFFFFFFFFFFFFFFF AND PUSH20 0xFFFFFFFFFFFFFFFFFFFFFFFFFFFFFFFFFFFFFFFF AND DUP2 MSTORE PUSH1 0x20 ADD SWAP1 DUP2 MSTORE PUSH1 0x20 ADD PUSH1 0x0 KECCAK256 SLOAD SWAP1 POP SWAP3 SWAP2 POP POP JUMP JUMPDEST PUSH1 0x0 DUP1 SLOAD SWAP1 PUSH2 0x100 EXP SWAP1 DIV PUSH20 0xFFFFFFFFFFFFFFFFFFFFFFFFFFFFFFFFFFFFFFFF AND PUSH20 0xFFFFFFFFFFFFFFFFFFFFFFFFFFFFFFFFFFFFFFFF AND CALLER PUSH20 0xFFFFFFFFFFFFFFFFFFFFFFFFFFFFFFFFFFFFFFFF AND EQ PUSH2 0x7BF JUMPI PUSH1 0x40 MLOAD PUSH32 0x8C379A000000000000000000000000000000000000000000000000000000000 DUP2 MSTORE PUSH1 0x4 ADD PUSH2 0x7B6 SWAP1 PUSH2 0xF4D JUMP JUMPDEST PUSH1 0x40 MLOAD DUP1 SWAP2 SUB SWAP1 REVERT JUMPDEST PUSH1 0x2 PUSH1 0x0 DUP3 DUP2 MSTORE PUSH1 0x20 ADD SWAP1 DUP2 MSTORE PUSH1 0x20 ADD PUSH1 0x0 KECCAK256 PUSH1 0x0 SWAP1 SLOAD SWAP1 PUSH2 0x100 EXP SWAP1 DIV PUSH1 0xFF AND ISZERO PUSH2 0x820 JUMPI PUSH1 0x40 MLOAD PUSH32 0x8C379A000000000000000000000000000000000000000000000000000000000 DUP2 MSTORE PUSH1 0x4 ADD PUSH2 0x817 SWAP1 PUSH2 0xF2D JUMP JUMPDEST PUSH1 0x40 MLOAD DUP1 SWAP2 SUB SWAP1 REVERT JUMPDEST DUP1 PUSH1 0x1 PUSH1 0x0 DUP4 DUP2 MSTORE PUSH1 0x20 ADD SWAP1 DUP2 MSTORE PUSH1 0x20 ADD PUSH1 0x0 KECCAK256 PUSH1 0x0 ADD DUP2 SWAP1 SSTORE POP PUSH1 0x0 PUSH1 0x1 PUSH1 0x0 DUP4 DUP2 MSTORE PUSH1 0x20 ADD SWAP1 DUP2 MSTORE PUSH1 0x20 ADD PUSH1 0x0 KECCAK256 PUSH1 0x1 ADD DUP2 SWAP1 SSTORE POP PUSH1 0x1 PUSH1 0x2 PUSH1 0x0 DUP4 DUP2 MSTORE PUSH1 0x20 ADD SWAP1 DUP2 MSTORE PUSH1 0x20 ADD PUSH1 0x0 KECCAK256 PUSH1 0x0 PUSH2 0x100 EXP DUP2 SLOAD DUP2 PUSH1 0xFF MUL NOT AND SWAP1 DUP4 ISZERO ISZERO MUL OR SWAP1 SSTORE POP POP JUMP JUMPDEST PUSH1 0x1 DUP1 PUSH1 0x0 DUP4 DUP2 MSTORE PUSH1 0x20 ADD SWAP1 DUP2 MSTORE PUSH1 0x20 ADD PUSH1 0x0 KECCAK256 PUSH1 0x1 ADD SLOAD LT PUSH2 0x8A8 JUMPI PUSH1 0x0 DUP1 REVERT JUMPDEST PUSH1 0x0 DUP1 SLOAD SWAP1 PUSH2 0x100 EXP SWAP1 DIV PUSH20 0xFFFFFFFFFFFFFFFFFFFFFFFFFFFFFFFFFFFFFFFF AND PUSH20 0xFFFFFFFFFFFFFFFFFFFFFFFFFFFFFFFFFFFFFFFF AND CALLER PUSH20 0xFFFFFFFFFFFFFFFFFFFFFFFFFFFFFFFFFFFFFFFF AND EQ PUSH2 0x936 JUMPI PUSH1 0x40 MLOAD PUSH32 0x8C379A000000000000000000000000000000000000000000000000000000000 DUP2 MSTORE PUSH1 0x4 ADD PUSH2 0x92D SWAP1 PUSH2 0xF4D JUMP JUMPDEST PUSH1 0x40 MLOAD DUP1 SWAP2 SUB SWAP1 REVERT JUMPDEST PUSH1 0x0 JUMPDEST DUP3 MLOAD DUP2 LT ISZERO PUSH2 0x979 JUMPI PUSH2 0x966 DUP4 DUP3 DUP2 MLOAD DUP2 LT PUSH2 0x958 JUMPI PUSH2 0x957 PUSH2 0x111B JUMP JUMPDEST JUMPDEST PUSH1 0x20 MUL PUSH1 0x20 ADD ADD MLOAD DUP4 PUSH2 0xA4D JUMP JUMPDEST DUP1 DUP1 PUSH2 0x971 SWAP1 PUSH2 0x10A3 JUMP JUMPDEST SWAP2 POP POP PUSH2 0x939 JUMP JUMPDEST POP POP POP JUMP JUMPDEST PUSH1 0x0 DUP1 SLOAD SWAP1 PUSH2 0x100 EXP SWAP1 DIV PUSH20 0xFFFFFFFFFFFFFFFFFFFFFFFFFFFFFFFFFFFFFFFF AND PUSH20 0xFFFFFFFFFFFFFFFFFFFFFFFFFFFFFFFFFFFFFFFF AND CALLER PUSH20 0xFFFFFFFFFFFFFFFFFFFFFFFFFFFFFFFFFFFFFFFF AND EQ PUSH2 0xA0C JUMPI PUSH1 0x40 MLOAD PUSH32 0x8C379A000000000000000000000000000000000000000000000000000000000 DUP2 MSTORE PUSH1 0x4 ADD PUSH2 0xA03 SWAP1 PUSH2 0xF4D JUMP JUMPDEST PUSH1 0x40 MLOAD DUP1 SWAP2 SUB SWAP1 REVERT JUMPDEST PUSH1 0x1 DUP1 PUSH1 0x0 DUP4 DUP2 MSTORE PUSH1 0x20 ADD SWAP1 DUP2 MSTORE PUSH1 0x20 ADD PUSH1 0x0 KECCAK256 PUSH1 0x1 ADD SLOAD LT PUSH2 0xA2E JUMPI PUSH1 0x0 DUP1 REVERT JUMPDEST DUP2 PUSH1 0x1 PUSH1 0x0 DUP4 DUP2 MSTORE PUSH1 0x20 ADD SWAP1 DUP2 MSTORE PUSH1 0x20 ADD PUSH1 0x0 KECCAK256 PUSH1 0x3 ADD DUP2 SWAP1 SSTORE POP POP POP JUMP JUMPDEST PUSH1 0x0 PUSH1 0x1 PUSH1 0x0 DUP4 DUP2 MSTORE PUSH1 0x20 ADD SWAP1 DUP2 MSTORE PUSH1 0x20 ADD PUSH1 0x0 KECCAK256 PUSH1 0x4 ADD SLOAD SWAP1 POP DUP3 PUSH1 0x1 PUSH1 0x0 DUP5 DUP2 MSTORE PUSH1 0x20 ADD SWAP1 DUP2 MSTORE PUSH1 0x20 ADD PUSH1 0x0 KECCAK256 PUSH1 0x8 ADD PUSH1 0x0 DUP4 DUP2 MSTORE PUSH1 0x20 ADD SWAP1 DUP2 MSTORE PUSH1 0x20 ADD PUSH1 0x0 KECCAK256 PUSH1 0x0 PUSH2 0x100 EXP DUP2 SLOAD DUP2 PUSH20 0xFFFFFFFFFFFFFFFFFFFFFFFFFFFFFFFFFFFFFFFF MUL NOT AND SWAP1 DUP4 PUSH20 0xFFFFFFFFFFFFFFFFFFFFFFFFFFFFFFFFFFFFFFFF AND MUL OR SWAP1 SSTORE POP PUSH1 0x1 PUSH1 0x0 DUP4 DUP2 MSTORE PUSH1 0x20 ADD SWAP1 DUP2 MSTORE PUSH1 0x20 ADD PUSH1 0x0 KECCAK256 PUSH1 0x4 ADD PUSH1 0x0 DUP2 SLOAD DUP1 SWAP3 SWAP2 SWAP1 PUSH2 0xAF5 SWAP1 PUSH2 0x10A3 JUMP JUMPDEST SWAP2 SWAP1 POP SSTORE POP PUSH32 0x4AD260FDB84F8458E9AE5BFB9F78B3A60D8DAEBA55271AC59884C0F6CB4E0435 DUP4 DUP3 PUSH1 0x40 MLOAD PUSH2 0xB2B SWAP3 SWAP2 SWAP1 PUSH2 0xEC9 JUMP JUMPDEST PUSH1 0x40 MLOAD DUP1 SWAP2 SUB SWAP1 LOG1 POP POP POP JUMP JUMPDEST DUP3 DUP1 SLOAD DUP3 DUP3 SSTORE SWAP1 PUSH1 0x0 MSTORE PUSH1 0x20 PUSH1 0x0 KECCAK256 SWAP1 DUP2 ADD SWAP3 DUP3 ISZERO PUSH2 0xBB1 JUMPI SWAP2 PUSH1 0x20 MUL DUP3 ADD JUMPDEST DUP3 DUP2 GT ISZERO PUSH2 0xBB0 JUMPI DUP3 MLOAD DUP3 PUSH1 0x0 PUSH2 0x100 EXP DUP2 SLOAD DUP2 PUSH20 0xFFFFFFFFFFFFFFFFFFFFFFFFFFFFFFFFFFFFFFFF MUL NOT AND SWAP1 DUP4 PUSH20 0xFFFFFFFFFFFFFFFFFFFFFFFFFFFFFFFFFFFFFFFF AND MUL OR SWAP1 SSTORE POP SWAP2 PUSH1 0x20 ADD SWAP2 SWAP1 PUSH1 0x1 ADD SWAP1 PUSH2 0xB58 JUMP JUMPDEST JUMPDEST POP SWAP1 POP PUSH2 0xBBE SWAP2 SWAP1 PUSH2 0xBC2 JUMP JUMPDEST POP SWAP1 JUMP JUMPDEST JUMPDEST DUP1 DUP3 GT ISZERO PUSH2 0xBDB JUMPI PUSH1 0x0 DUP2 PUSH1 0x0 SWAP1 SSTORE POP PUSH1 0x1 ADD PUSH2 0xBC3 JUMP JUMPDEST POP SWAP1 JUMP JUMPDEST PUSH1 0x0 PUSH2 0xBF2 PUSH2 0xBED DUP5 PUSH2 0xFBB JUMP JUMPDEST PUSH2 0xF96 JUMP JUMPDEST SWAP1 POP DUP1 DUP4 DUP3 MSTORE PUSH1 0x20 DUP3 ADD SWAP1 POP DUP3 DUP6 PUSH1 0x20 DUP7 MUL DUP3 ADD GT ISZERO PUSH2 0xC15 JUMPI PUSH2 0xC14 PUSH2 0x117E JUMP JUMPDEST JUMPDEST PUSH1 0x0 JUMPDEST DUP6 DUP2 LT ISZERO PUSH2 0xC45 JUMPI DUP2 PUSH2 0xC2B DUP9 DUP3 PUSH2 0xC4F JUMP JUMPDEST DUP5 MSTORE PUSH1 0x20 DUP5 ADD SWAP4 POP PUSH1 0x20 DUP4 ADD SWAP3 POP POP PUSH1 0x1 DUP2 ADD SWAP1 POP PUSH2 0xC18 JUMP JUMPDEST POP POP POP SWAP4 SWAP3 POP POP POP JUMP JUMPDEST PUSH1 0x0 DUP2 CALLDATALOAD SWAP1 POP PUSH2 0xC5E DUP2 PUSH2 0x1219 JUMP JUMPDEST SWAP3 SWAP2 POP POP JUMP JUMPDEST PUSH1 0x0 DUP3 PUSH1 0x1F DUP4 ADD SLT PUSH2 0xC79 JUMPI PUSH2 0xC78 PUSH2 0x1179 JUMP JUMPDEST JUMPDEST DUP2 CALLDATALOAD PUSH2 0xC89 DUP5 DUP3 PUSH1 0x20 DUP7 ADD PUSH2 0xBDF JUMP JUMPDEST SWAP2 POP POP SWAP3 SWAP2 POP POP JUMP JUMPDEST PUSH1 0x0 DUP2 CALLDATALOAD SWAP1 POP PUSH2 0xCA1 DUP2 PUSH2 0x1230 JUMP JUMPDEST SWAP3 SWAP2 POP POP JUMP JUMPDEST PUSH1 0x0 DUP2 CALLDATALOAD SWAP1 POP PUSH2 0xCB6 DUP2 PUSH2 0x1247 JUMP JUMPDEST SWAP3 SWAP2 POP POP JUMP JUMPDEST PUSH1 0x0 DUP1 PUSH1 0x40 DUP4 DUP6 SUB SLT ISZERO PUSH2 0xCD3 JUMPI PUSH2 0xCD2 PUSH2 0x1188 JUMP JUMPDEST JUMPDEST PUSH1 0x0 PUSH2 0xCE1 DUP6 DUP3 DUP7 ADD PUSH2 0xC4F JUMP JUMPDEST SWAP3 POP POP PUSH1 0x20 PUSH2 0xCF2 DUP6 DUP3 DUP7 ADD PUSH2 0xCA7 JUMP JUMPDEST SWAP2 POP POP SWAP3 POP SWAP3 SWAP1 POP JUMP JUMPDEST PUSH1 0x0 DUP1 PUSH1 0x40 DUP4 DUP6 SUB SLT ISZERO PUSH2 0xD13 JUMPI PUSH2 0xD12 PUSH2 0x1188 JUMP JUMPDEST JUMPDEST PUSH1 0x0 DUP4 ADD CALLDATALOAD PUSH8 0xFFFFFFFFFFFFFFFF DUP2 GT ISZERO PUSH2 0xD31 JUMPI PUSH2 0xD30 PUSH2 0x1183 JUMP JUMPDEST JUMPDEST PUSH2 0xD3D DUP6 DUP3 DUP7 ADD PUSH2 0xC64 JUMP JUMPDEST SWAP3 POP POP PUSH1 0x20 PUSH2 0xD4E DUP6 DUP3 DUP7 ADD PUSH2 0xCA7 JUMP JUMPDEST SWAP2 POP POP SWAP3 POP SWAP3 SWAP1 POP JUMP JUMPDEST PUSH1 0x0 DUP1 PUSH1 0x0 PUSH1 0x60 DUP5 DUP7 SUB SLT ISZERO PUSH2 0xD71 JUMPI PUSH2 0xD70 PUSH2 0x1188 JUMP JUMPDEST JUMPDEST PUSH1 0x0 PUSH2 0xD7F DUP7 DUP3 DUP8 ADD PUSH2 0xC92 JUMP JUMPDEST SWAP4 POP POP PUSH1 0x20 PUSH2 0xD90 DUP7 DUP3 DUP8 ADD PUSH2 0xCA7 JUMP JUMPDEST SWAP3 POP POP PUSH1 0x40 PUSH2 0xDA1 DUP7 DUP3 DUP8 ADD PUSH2 0xCA7 JUMP JUMPDEST SWAP2 POP POP SWAP3 POP SWAP3 POP SWAP3 JUMP JUMPDEST PUSH1 0x0 PUSH1 0x20 DUP3 DUP5 SUB SLT ISZERO PUSH2 0xDC1 JUMPI PUSH2 0xDC0 PUSH2 0x1188 JUMP JUMPDEST JUMPDEST PUSH1 0x0 PUSH2 0xDCF DUP5 DUP3 DUP6 ADD PUSH2 0xCA7 JUMP JUMPDEST SWAP2 POP POP SWAP3 SWAP2 POP POP JUMP JUMPDEST PUSH1 0x0 DUP1 PUSH1 0x40 DUP4 DUP6 SUB SLT ISZERO PUSH2 0xDEF JUMPI PUSH2 0xDEE PUSH2 0x1188 JUMP JUMPDEST JUMPDEST PUSH1 0x0 PUSH2 0xDFD DUP6 DUP3 DUP7 ADD PUSH2 0xCA7 JUMP JUMPDEST SWAP3 POP POP PUSH1 0x20 PUSH2 0xE0E DUP6 DUP3 DUP7 ADD PUSH2 0xCA7 JUMP JUMPDEST SWAP2 POP POP SWAP3 POP SWAP3 SWAP1 POP JUMP JUMPDEST PUSH2 0xE21 DUP2 PUSH2 0x102C JUMP JUMPDEST DUP3 MSTORE POP POP JUMP JUMPDEST PUSH2 0xE30 DUP2 PUSH2 0x103E JUMP JUMPDEST DUP3 MSTORE POP POP JUMP JUMPDEST PUSH1 0x0 PUSH2 0xE43 PUSH1 0x9 DUP4 PUSH2 0xFE7 JUMP JUMPDEST SWAP2 POP PUSH2 0xE4E DUP3 PUSH2 0x119E JUMP JUMPDEST PUSH1 0x20 DUP3 ADD SWAP1 POP SWAP2 SWAP1 POP JUMP JUMPDEST PUSH1 0x0 PUSH2 0xE66 PUSH1 0xC DUP4 PUSH2 0xFE7 JUMP JUMPDEST SWAP2 POP PUSH2 0xE71 DUP3 PUSH2 0x11C7 JUMP JUMPDEST PUSH1 0x20 DUP3 ADD SWAP1 POP SWAP2 SWAP1 POP JUMP JUMPDEST PUSH1 0x0 PUSH2 0xE89 PUSH1 0xD DUP4 PUSH2 0xFE7 JUMP JUMPDEST SWAP2 POP PUSH2 0xE94 DUP3 PUSH2 0x11F0 JUMP JUMPDEST PUSH1 0x20 DUP3 ADD SWAP1 POP SWAP2 SWAP1 POP JUMP JUMPDEST PUSH2 0xEA8 DUP2 PUSH2 0x1068 JUMP JUMPDEST DUP3 MSTORE POP POP JUMP JUMPDEST PUSH1 0x0 PUSH1 0x20 DUP3 ADD SWAP1 POP PUSH2 0xEC3 PUSH1 0x0 DUP4 ADD DUP5 PUSH2 0xE18 JUMP JUMPDEST SWAP3 SWAP2 POP POP JUMP JUMPDEST PUSH1 0x0 PUSH1 0x40 DUP3 ADD SWAP1 POP PUSH2 0xEDE PUSH1 0x0 DUP4 ADD DUP6 PUSH2 0xE18 JUMP JUMPDEST PUSH2 0xEEB PUSH1 0x20 DUP4 ADD DUP5 PUSH2 0xE9F JUMP JUMPDEST SWAP4 SWAP3 POP POP POP JUMP JUMPDEST PUSH1 0x0 PUSH1 0x20 DUP3 ADD SWAP1 POP PUSH2 0xF07 PUSH1 0x0 DUP4 ADD DUP5 PUSH2 0xE27 JUMP JUMPDEST SWAP3 SWAP2 POP POP JUMP JUMPDEST PUSH1 0x0 PUSH1 0x20 DUP3 ADD SWAP1 POP DUP2 DUP2 SUB PUSH1 0x0 DUP4 ADD MSTORE PUSH2 0xF26 DUP2 PUSH2 0xE36 JUMP JUMPDEST SWAP1 POP SWAP2 SWAP1 POP JUMP JUMPDEST PUSH1 0x0 PUSH1 0x20 DUP3 ADD SWAP1 POP DUP2 DUP2 SUB PUSH1 0x0 DUP4 ADD MSTORE PUSH2 0xF46 DUP2 PUSH2 0xE59 JUMP JUMPDEST SWAP1 POP SWAP2 SWAP1 POP JUMP JUMPDEST PUSH1 0x0 PUSH1 0x20 DUP3 ADD SWAP1 POP DUP2 DUP2 SUB PUSH1 0x0 DUP4 ADD MSTORE PUSH2 0xF66 DUP2 PUSH2 0xE7C JUMP JUMPDEST SWAP1 POP SWAP2 SWAP1 POP JUMP JUMPDEST PUSH1 0x0 PUSH1 0x40 DUP3 ADD SWAP1 POP PUSH2 0xF82 PUSH1 0x0 DUP4 ADD DUP6 PUSH2 0xE9F JUMP JUMPDEST PUSH2 0xF8F PUSH1 0x20 DUP4 ADD DUP5 PUSH2 0xE9F JUMP JUMPDEST SWAP4 SWAP3 POP POP POP JUMP JUMPDEST PUSH1 0x0 PUSH2 0xFA0 PUSH2 0xFB1 JUMP JUMPDEST SWAP1 POP PUSH2 0xFAC DUP3 DUP3 PUSH2 0x1072 JUMP JUMPDEST SWAP2 SWAP1 POP JUMP JUMPDEST PUSH1 0x0 PUSH1 0x40 MLOAD SWAP1 POP SWAP1 JUMP JUMPDEST PUSH1 0x0 PUSH8 0xFFFFFFFFFFFFFFFF DUP3 GT ISZERO PUSH2 0xFD6 JUMPI PUSH2 0xFD5 PUSH2 0x114A JUMP JUMPDEST JUMPDEST PUSH1 0x20 DUP3 MUL SWAP1 POP PUSH1 0x20 DUP2 ADD SWAP1 POP SWAP2 SWAP1 POP JUMP JUMPDEST PUSH1 0x0 DUP3 DUP3 MSTORE PUSH1 0x20 DUP3 ADD SWAP1 POP SWAP3 SWAP2 POP POP JUMP JUMPDEST PUSH1 0x0 PUSH2 0x1003 DUP3 PUSH2 0x1068 JUMP JUMPDEST SWAP2 POP PUSH2 0x100E DUP4 PUSH2 0x1068 JUMP JUMPDEST SWAP3 POP DUP3 DUP3 LT ISZERO PUSH2 0x1021 JUMPI PUSH2 0x1020 PUSH2 0x10EC JUMP JUMPDEST JUMPDEST DUP3 DUP3 SUB SWAP1 POP SWAP3 SWAP2 POP POP JUMP JUMPDEST PUSH1 0x0 PUSH2 0x1037 DUP3 PUSH2 0x1048 JUMP JUMPDEST SWAP1 POP SWAP2 SWAP1 POP JUMP JUMPDEST PUSH1 0x0 DUP2 SWAP1 POP SWAP2 SWAP1 POP JUMP JUMPDEST PUSH1 0x0 PUSH20 0xFFFFFFFFFFFFFFFFFFFFFFFFFFFFFFFFFFFFFFFF DUP3 AND SWAP1 POP SWAP2 SWAP1 POP JUMP JUMPDEST PUSH1 0x0 DUP2 SWAP1 POP SWAP2 SWAP1 POP JUMP JUMPDEST PUSH2 0x107B DUP3 PUSH2 0x118D JUMP JUMPDEST DUP2 ADD DUP2 DUP2 LT PUSH8 0xFFFFFFFFFFFFFFFF DUP3 GT OR ISZERO PUSH2 0x109A JUMPI PUSH2 0x1099 PUSH2 0x114A JUMP JUMPDEST JUMPDEST DUP1 PUSH1 0x40 MSTORE POP POP POP JUMP JUMPDEST PUSH1 0x0 PUSH2 0x10AE DUP3 PUSH2 0x1068 JUMP JUMPDEST SWAP2 POP PUSH32 0xFFFFFFFFFFFFFFFFFFFFFFFFFFFFFFFFFFFFFFFFFFFFFFFFFFFFFFFFFFFFFFFF DUP3 EQ ISZERO PUSH2 0x10E1 JUMPI PUSH2 0x10E0 PUSH2 0x10EC JUMP JUMPDEST JUMPDEST PUSH1 0x1 DUP3 ADD SWAP1 POP SWAP2 SWAP1 POP JUMP JUMPDEST PUSH32 0x4E487B7100000000000000000000000000000000000000000000000000000000 PUSH1 0x0 MSTORE PUSH1 0x11 PUSH1 0x4 MSTORE PUSH1 0x24 PUSH1 0x0 REVERT JUMPDEST PUSH32 0x4E487B7100000000000000000000000000000000000000000000000000000000 PUSH1 0x0 MSTORE PUSH1 0x32 PUSH1 0x4 MSTORE PUSH1 0x24 PUSH1 0x0 REVERT JUMPDEST PUSH32 0x4E487B7100000000000000000000000000000000000000000000000000000000 PUSH1 0x0 MSTORE PUSH1 0x41 PUSH1 0x4 MSTORE PUSH1 0x24 PUSH1 0x0 REVERT JUMPDEST PUSH1 0x0 DUP1 REVERT JUMPDEST PUSH1 0x0 DUP1 REVERT JUMPDEST PUSH1 0x0 DUP1 REVERT JUMPDEST PUSH1 0x0 DUP1 REVERT JUMPDEST PUSH1 0x0 PUSH1 0x1F NOT PUSH1 0x1F DUP4 ADD AND SWAP1 POP SWAP2 SWAP1 POP JUMP JUMPDEST PUSH32 0x57726F6E67206B65790000000000000000000000000000000000000000000000 PUSH1 0x0 DUP3 ADD MSTORE POP JUMP JUMPDEST PUSH32 0x4944206265656E20757365640000000000000000000000000000000000000000 PUSH1 0x0 DUP3 ADD MSTORE POP JUMP JUMPDEST PUSH32 0x4E6F205065726D697373696F6E00000000000000000000000000000000000000 PUSH1 0x0 DUP3 ADD MSTORE POP JUMP JUMPDEST PUSH2 0x1222 DUP2 PUSH2 0x102C JUMP JUMPDEST DUP2 EQ PUSH2 0x122D JUMPI PUSH1 0x0 DUP1 REVERT JUMPDEST POP JUMP JUMPDEST PUSH2 0x1239 DUP2 PUSH2 0x103E JUMP JUMPDEST DUP2 EQ PUSH2 0x1244 JUMPI PUSH1 0x0 DUP1 REVERT JUMPDEST POP JUMP JUMPDEST PUSH2 0x1250 DUP2 PUSH2 0x1068 JUMP JUMPDEST DUP2 EQ PUSH2 0x125B JUMPI PUSH1 0x0 DUP1 REVERT JUMPDEST POP JUMP INVALID LOG2 PUSH5 0x6970667358 0x22 SLT KECCAK256 PUSH17 0x94567B7BCFE3E956F2ADCDC81E9A6C8B29 0xA9 RETURNDATACOPY CALLCODE 0xB9 0x2F PUSH8 0xBF7BACB7E976F75B PUSH5 0x736F6C6343 STOP ADDMOD SMOD STOP CALLER "
				},
				"gasEstimates": {
					"creation": {
						"codeDepositCost": "951200",
						"executionCost": "25254",
						"totalCost": "976454"
					},
					"external": {
						"get_ballot(address,uint256)": "7472",
						"new_proposal(uint256)": "56470",
						"set_candidates(address[],uint256)": "infinite",
						"set_duration(uint256,uint256)": "infinite",
						"set_voters(address[],uint256)": "infinite",
						"voting(bytes32,uint256,uint256)": "infinite",
						"voting_end(uint256)": "infinite",
						"voting_start(uint256)": "infinite"
					},
					"internal": {
						"set_voter_list(address,uint256)": "infinite"
					}
				},
				"methodIdentifiers": {
					"get_ballot(address,uint256)": "d6f937e5",
					"new_proposal(uint256)": "e28ee120",
					"set_candidates(address[],uint256)": "50fae1d2",
					"set_duration(uint256,uint256)": "fea9b717",
					"set_voters(address[],uint256)": "fb5babd8",
					"voting(bytes32,uint256,uint256)": "d0350b59",
					"voting_end(uint256)": "8aa430af",
					"voting_start(uint256)": "a4db23fc"
				}
			},
			"storageLayout": {
				"storage": [
					{
						"astId": 3,
						"contract": "Vote_1.sol:Vote",
						"label": "_constractowner",
						"offset": 0,
						"slot": "0",
						"type": "t_address"
					},
					{
						"astId": 69,
						"contract": "Vote_1.sol:Vote",
						"label": "_proposal",
						"offset": 0,
						"slot": "1",
						"type": "t_mapping(t_uint256,t_struct(_Proposal)64_storage)"
					},
					{
						"astId": 73,
						"contract": "Vote_1.sol:Vote",
						"label": "_proposal_id_used",
						"offset": 0,
						"slot": "2",
						"type": "t_mapping(t_uint256,t_bool)"
					}
				],
				"types": {
					"t_address": {
						"encoding": "inplace",
						"label": "address",
						"numberOfBytes": "20"
					},
					"t_array(t_address)dyn_storage": {
						"base": "t_address",
						"encoding": "dynamic_array",
						"label": "address[]",
						"numberOfBytes": "32"
					},
					"t_bool": {
						"encoding": "inplace",
						"label": "bool",
						"numberOfBytes": "1"
					},
					"t_bytes32": {
						"encoding": "inplace",
						"label": "bytes32",
						"numberOfBytes": "32"
					},
					"t_mapping(t_address,t_bool)": {
						"encoding": "mapping",
						"key": "t_address",
						"label": "mapping(address => bool)",
						"numberOfBytes": "32",
						"value": "t_bool"
					},
					"t_mapping(t_address,t_bytes32)": {
						"encoding": "mapping",
						"key": "t_address",
						"label": "mapping(address => bytes32)",
						"numberOfBytes": "32",
						"value": "t_bytes32"
					},
					"t_mapping(t_uint256,t_address)": {
						"encoding": "mapping",
						"key": "t_uint256",
						"label": "mapping(uint256 => address)",
						"numberOfBytes": "32",
						"value": "t_address"
					},
					"t_mapping(t_uint256,t_bool)": {
						"encoding": "mapping",
						"key": "t_uint256",
						"label": "mapping(uint256 => bool)",
						"numberOfBytes": "32",
						"value": "t_bool"
					},
					"t_mapping(t_uint256,t_struct(_Proposal)64_storage)": {
						"encoding": "mapping",
						"key": "t_uint256",
						"label": "mapping(uint256 => struct Vote._Proposal)",
						"numberOfBytes": "32",
						"value": "t_struct(_Proposal)64_storage"
					},
					"t_struct(_Proposal)64_storage": {
						"encoding": "inplace",
						"label": "struct Vote._Proposal",
						"members": [
							{
								"astId": 36,
								"contract": "Vote_1.sol:Vote",
								"label": "_proposal_id",
								"offset": 0,
								"slot": "0",
								"type": "t_uint256"
							},
							{
								"astId": 38,
								"contract": "Vote_1.sol:Vote",
								"label": "_voting_status",
								"offset": 0,
								"slot": "1",
								"type": "t_uint256"
							},
							{
								"astId": 40,
								"contract": "Vote_1.sol:Vote",
								"label": "_timestamp",
								"offset": 0,
								"slot": "2",
								"type": "t_uint256"
							},
							{
								"astId": 42,
								"contract": "Vote_1.sol:Vote",
								"label": "_duration",
								"offset": 0,
								"slot": "3",
								"type": "t_uint256"
							},
							{
								"astId": 44,
								"contract": "Vote_1.sol:Vote",
								"label": "_count",
								"offset": 0,
								"slot": "4",
								"type": "t_uint256"
							},
							{
								"astId": 46,
								"contract": "Vote_1.sol:Vote",
								"label": "_voted",
								"offset": 0,
								"slot": "5",
								"type": "t_uint256"
							},
							{
								"astId": 48,
								"contract": "Vote_1.sol:Vote",
								"label": "_voter_amount",
								"offset": 0,
								"slot": "6",
								"type": "t_uint256"
							},
							{
								"astId": 51,
								"contract": "Vote_1.sol:Vote",
								"label": "_candidate",
								"offset": 0,
								"slot": "7",
								"type": "t_array(t_address)dyn_storage"
							},
							{
								"astId": 55,
								"contract": "Vote_1.sol:Vote",
								"label": "voter_list",
								"offset": 0,
								"slot": "8",
								"type": "t_mapping(t_uint256,t_address)"
							},
							{
								"astId": 59,
								"contract": "Vote_1.sol:Vote",
								"label": "voter_ballot",
								"offset": 0,
								"slot": "9",
								"type": "t_mapping(t_address,t_bytes32)"
							},
							{
								"astId": 63,
								"contract": "Vote_1.sol:Vote",
								"label": "hasVoted",
								"offset": 0,
								"slot": "10",
								"type": "t_mapping(t_address,t_bool)"
							}
						],
						"numberOfBytes": "352"
					},
					"t_uint256": {
						"encoding": "inplace",
						"label": "uint256",
						"numberOfBytes": "32"
					}
				}
			},
			"userdoc": {
				"kind": "user",
				"methods": {},
				"version": 1
			}
		}
	}
}